:02000002D0002C
:1040000000400D00B4C60D00000006000D000501C3
:084010000401DB0700000000C1
:0440180040B00D00A7
:1040200009480A49884208B505D0094A824202D0A7
:10403000121A06F0E3FE0748074A0021121A06F09A
:1040400005FF014808BD00BFC0E003204CC50D00BE
:10405000FCE1032000E20320F4E7032070B5074EE3
:10406000074C06F0F7F8A41BA4080025A54200D1D0
:1040700070BD56F8043B98470135F7E7F4BC0D00D6
:1040800028BD0D0001F0B8B908B500F043FFBDE848
:10409000084006F0A1B804F091BB04F08FBB04F017
:1040A00095BB000008B5034A00210C2004F022FA59
:1040B000FEE700BFA5810D000078B0FA80F040094E
:1040C0007047012303707047014B1A60704700BFAF
:1040D000F4E0032038B50446006928B185680C2156
:1040E00006F0C3F92846F8E7204638BD08B504496C
:1040F00005F0CBFB18B1034803F084F9012008BD9B
:1041000098B00D001CE3032008B5044905F0BDFB81
:1041100018B1034B03221A70012008BD98B00D009E
:1041200088E5032010B5034B0360044603F06EFDE1
:10413000204610BD88B40D0010B50446FFF7F2FF0D
:104140002046382106F091F9204610BD10B5034BEA
:104150000360044603F036F9204610BD6CB40D0030
:1041600010B50446FFF7F2FF2046102106F07DF956
:10417000204610BD08B504F081FA20B1BDE8084022
:10418000002004F09BBA08BD08B5002004F09EFA98
:1041900028B104F073FA80F00100C0B208BD01201C
:1041A000FCE70023042204F049BA10B500210446BC
:1041B000084603F097FFD4F8A0400021012003F047
:1041C00091FFE0B210BD10B50446006808B104F0DC
:1041D000FDFA204610BD0000F8B5037D05460F46E8
:1041E00016468BB10368DB6883B19A88012A06D032
:1041F0009B68F9E79B684BB19A88012AFAD12BB1E9
:104200009A89BA42F6D19E732846F8BD0A49102011
:1042100006F02DF9044668B11022002106F016FEC2
:10422000064B23600123A3802B69A360A781A6739B
:104230002C61E9E72875E7E798BB0D001000030043
:10424000002003F0D7BF0EB410B58DB00FAA0168DF
:1042500052F8044B039200232020CDE90403CDE95A
:1042600000421E2004AA04F055F90DB0BDE810402C
:1042700003B0704737B504689DF818508DF80030CA
:104280008DF80450E4683C23A04703B030BD000023
:1042900010B50B7892B00C467BB9194902A806F00C
:1042A0000BFE00238DF80030164B17491B7817487A
:1042B00002AAFFF7DFFF12B010BD084606F076FD38
:1042C000C8280ED1124902A806F0F6FD05F003FE3B
:1042D000104BD861104B01221A70104B00221A703B
:1042E000DFE7204606F062FDC928EBD0204606F045
:1042F0005DFD0B4A0346402102A804F07FFAD0E797
:10430000D8B00D0060E203200FB10D004CE5032092
:10431000E0B00D008CE50320B0E50320FEE20320B1
:10432000F2B00D0037B51949044605F0AEFA05465E
:10433000B0B1174B01241C71164B1C7004F09EF990
:1043400010B9012003B030BD00238DF80030124BAE
:10435000124A1B7812491348FFF78CFF2046F1E7F9
:104360001149204605F091FA0028EBD0084B1D7149
:10437000084B01241C7004F081F90028E1D0064BA1
:104380008DF800501B78094AE4E700BF98B00D0093
:104390008CE50320B0E5032060E203201CB10D0092
:1043A0003FB10D004CE503202DB10D002FB10D00E4
:1043B0002DE9F047C8B08046FFF7DCFEFFF740FF6D
:1043C0004FF0000A814647F22F560027FFF738FFCB
:1043D000B0EB090461EB0A05AF4208BFA64205D362
:1043E000FFF7D2FE10B904F039F9EFE7FFF7CCFE82
:1043F000D8F800000A2203A906F018FE00F10C0309
:10440000DBB2182B48D845B207EE905A264BB8EECF
:10441000E70A012483ED050A05F0F4FB234B1C7029
:1044200005F09EFD064605F056FD301A06F078F9B7
:104430001BA3D3E9002306F007FB1D4ACDE90001C9
:104440000A211C4804F0DAF904F018F910B32B46DD
:10445000194A1A4D4FF48071002608A804F0CEF9CD
:104460008DF8006016492B78164808AAFFF702FF5E
:1044700005F031FD0246C31704A805F029FC8DF8AC
:1044800000602B78049A0E490E48FFF7F3FE04A84B
:1044900005F082F9204600E0002048B0BDE8F08732
:1044A000000000000020AC408CE50320B0E50320B4
:1044B00044B10D00F4E203204EB10D0060E2032090
:1044C00062B10D004CE5032030B5C5B00A2200688A
:1044D00003A906F0ABFDC3B25A1E3B2A1FD8114AEE
:1044E000114D1248AB71012414700C21104A04F0D4
:1044F00085F9AB790F4A4FF4807104A804F07EF976
:1045000004F0BCF848B100238DF800300A4B0B4989
:104510001B780B4804AAFFF7ADFE204600E0002000
:1045200045B030BDB0E503208CE5032004E1032055
:104530007EB10D0067B10D0060E20320A3B30D0052
:104540004CE503202DE9F04F234B244C9D68A269D4
:104550001B69D3B0D4E90067D4E90289D4E904AB7C
:104560001193109205F0B7FC94ED0A7B119B089310
:104570008DED0E7B94ED087B194B109A0A908DED12
:104580000C7BCDE906530992CDE904ABCDE9028954
:10459000CDE90067134A4FF4807112A804F02EF998
:1045A00000238DF80030104B10491B78104812AAD8
:1045B000FFF760FE0F4B01221A7003F0FBFD0E4B5C
:1045C000186005F099FC0D4B186005F0A1FC0C4B30
:1045D000186053B0BDE8F08F8CE50320B8E20320EB
:1045E00090E2032089B10D0060E2032019B20D00B2
:1045F0004CE50320FEE20320B4E50320ECE20320B7
:10460000F0E203200000000037B505460024124800
:104610000022294602F066FD0F488DED010A02F0E6
:104620003DFE9DED010A28B90134042CEFD19FED28
:10463000080B0AE0032CFAD0074802F015FE10EE32
:10464000100A06F07FF841EC100B03B030BD00BF3C
:10465000000000000000F87F00E3032030B5194D92
:104660000FCD99B004AC0FC40FCD0FC495E8030073
:1046700084E8030014490EA804F076F90EA804F0AB
:10468000C6F904460EA804F0CBF90EA810EE105A95
:1046900004F0F6F918AB10EE100A03EB840406F0F0
:1046A00051F8CDE90201284606F04CF8CDE90001A9
:1046B000064A54F8503C0648402104F09FF819B0CF
:1046C00030BD00BFA8B40D00ECE5032034B20D00EE
:1046D00010E2032010B5202490B022460021684645
:1046E00006F0B4FB224600210DEB04008DF80540D6
:1046F00006F0ACFB00210DEB04008DF8254003F023
:104700007FFF41F27003ADF80630084B029341F28F
:104710001003ADF80C30009B002143F40073684691
:10472000009303F06DFF10B010BD00BF840384033D
:104730002DE9F84F1D48DFF880A0406800231A4695
:10474000194604F00BF803F091FF4FF496744FF004
:10475000000B40F2E7384FF00009FFF771FD054606
:10476000FFF76EFD461B61EB0B07B94508BFB0456F
:1047700005D303F083FF10B903F070FFF0E703F0F7
:104780007DFF20B103F07AFF50B9BDE8F88F03F048
:1047900011FDCAF8000003F061FF013CDDD1F1E733
:1047A000034A0123D370034A1370EEE7ECE50320BC
:1047B0008CE50320B0E50320D8E7032008B503F01B
:1047C0005DFF80F00100C0B208BD00002DE9F0439C
:1047D00085B0002601A8CDE901668DF80C6004F0D3
:1047E00020FAFFF72DFDB146804643F697260027B5
:1047F000FFF726FDB0EB080461EB0905AF4208BFE7
:10480000A64205D3FFF7DAFF10B903F027FFEFE761
:10481000FFF7D4FF0A48002319461A46406803F000
:10482000A5FF084B0022DA70074B01244FF4FA6011
:104830001C7004F02BF8204605B0BDE8F08300BFE3
:10484000ECE503208CE50320B0E5032030B5114DE5
:10485000114C12492A7820788DB00E2303FB0212E6
:10486000009203FB00130E4A282102A803F0C6FFA2
:104870002B78237003F002FF48B100238DF800303D
:10488000084B09491B78094802AAFFF7F3FC0DB051
:1048900030BD00BF88E5032048E5032010E1032078
:1048A0004DB20D0060E203205BB20D004CE5032029
:1048B00030B585B0002301A8CDE901338DF80C3067
:1048C00004F0AFF903F076FC43F69725044603F0B5
:1048D000D5FE40B103F06EFC001BA84203D8642053
:1048E00003F0D4FFF3E70021094B47F230520846AA
:1048F00003F0E0FB4FF47A7003F0C8FF054B0A2287
:104900001B68012101A805F0E1F805B030BD00BF2A
:104910006CB20D005CE203202DE9F347174B184DF4
:10492000184A1949194800248DF800401B78FFF7F0
:10493000A1FC2C71FFF71EFCFFF782FC47F22F58F9
:1049400082464FF00009FFF77BFCB0EB0A0661EBF3
:104950000407B94508BFB04505D3FFF715FC10B9EA
:1049600003F07CFEEFE7FFF70FFC00232B61084B01
:1049700001221A7002B0BDE8F08700BF60E2032098
:104980008CE5032079B20D0081B20D004CE50320C7
:10499000B0E5032038B505F0C7FA054605F0D8FAAA
:1049A000044605F0CDFA231F062B0ED9E31E082B73
:1049B0000DD801382D1A04D50B2C14BF002001206E
:1049C00038BD072D03DD032CF7E70120F8E70020B1
:1049D000F6E700000000000070B52DED028BC8B0B6
:1049E000054605F078FA0A22044603A9286806F06D
:1049F0001DFBC3B2022B59D843B208EE103AB8EEF1
:104A0000C88AB0EE480A05F01DF92D4B83ED068AE1
:104A10002C4B01221A7018EE100A05F093FE2A4A58
:104A2000CDE900014FF4807108A803F0E7FE05F01E
:104A300035FA28B1FFF7AEFF002834D005F020F991
:104A400005F08EFA054605F046FA281A05F068FECC
:104A500019A3D3E9002305F0F7FF1C4ACDE90001B3
:104A60000A211B4803F0CAFE03F008FEC8B1194D25
:104A700019491A4800268DF800602B7808AAFFF71C
:104A8000F9FB2246E31704A805F022F98DF800602F
:104A90002B78049A10491148FFF7ECFB04A804F0A6
:104AA0007BFE012003E005F0F7F8C9E7002048B0DD
:104AB000BDEC028B70BD00BF000000000020AC40C8
:104AC0008CE50320B0E503208FB20D0044B10D004A
:104AD000F4E2032060E2032062B10D004CE5032004
:104AE0002DE9F043534CA9B003F064FB2368C01ACE
:104AF000B0F57A7F2AD303F05DFB4F4F2060002191
:104B00007C68084603F0EEFA2678646B00210120E9
:104B100003F0E8FA3D46E6B96868FFF746FB474A06
:104B20000346802108A803F069FE454808A9FFF75D
:104B30008AFB03F0A3FD48B100238DF80030414B00
:104B400041491B78414808AAFFF794FB29B0BDE80A
:104B5000F08303F02FFB42F20F73001B9842DBD867
:104B60007D68DFF8F4800021084603F0BBFA0FCD22
:104B700008AC0FC40FCD0FC40FCD0FC495E80300D0
:104B800084E803000021012003F0ACFA08A801F03A
:104B9000EBFF51EC100B06F05FF805F0D3FD7D68DC
:104BA000C8E908010021084603F09CFA0FCD08AEC1
:104BB0000FC60FCD0FC60FCD0FC695E8030084E8D2
:104BC00003000021012003F08DFA08A801F0F0FF96
:104BD00051EC100B06F040F805F0B4FD0D46002135
:104BE00004467E680846C8E90A45D8E9088903F002
:104BF00079FA00210120D6F8806003F073FA786812
:104C0000FFF7D3FA0690304605F08AFD104B0022DC
:104C100005F01AFF06F020F805F094FDCDE90245F5
:104C2000CDE90401CDE900890A4A802108A803F0F2
:104C3000E5FD7AE764E203202CE30320A0B20D0037
:104C400024E6032060E20320EAB20D004CE50320D5
:104C500000005940BAB20D00B8E2032030B585B06B
:104C60000D4600226946009203F05CFCB0B9009C3E
:104C70000CB1236923B90A4A00210A2003F03AFC47
:104C80000023ADF806300C23ADF804300423039361
:104C90000295236901AA01212046984705B030BD3D
:104CA000A5810D0007B5072001A9FFF7D7FF002850
:104CB000A8BF019803B05DF804FB000070B58CB08C
:104CC00005A90320FFF7CAFF002838D1BDF814302A
:104CD00007EE903AFBEECC7A2A4D2B4E0FCD05AC69
:104CE0000FC495E80700FDEEE77A84E80700C6EDFB
:104CF000027AFFF7D7FF0CAB03EB8000234D50F88F
:104D00001C3C234A2348102103F078FD2B783446BD
:104D10002E46BBB9FFF7C6FF042813D101232B7021
:104D200005F0D9F8236AC01AB0F5615F28D8A368E6
:104D3000322BCCBF0023012363710CB070BDFFEE9A
:104D4000007AC9E7FFF7AEFF022814D100233370C1
:104D500005F0C1F8206205F0BEF8C317024601A8AD
:104D600004F0B6FF019A0C48202103F047FD01A88A
:104D700004F012FDD4E7FFF795FF0328D0D1E5E753
:104D80000123D9E7D0B40D008CE5032068E20320AD
:104D900023B60D0090E20320D4E00320F7B5FFF71F
:104DA0009FFE244B00225868114603F0CFFC08B147
:104DB000FFF754FC204D214F00242E463819FFF7F1
:104DC00023FC51EC100B05F047FF07EE900AF4EEC0
:104DD000677AF1EE10FA03D605F0B4FCC5E90001DC
:104DE0000834182C05F10805E8D1D6E900230C2178
:104DF000CDE900231248134A03F000FDD6E902234F
:104E00000C21CDE9002310480E4A03F0F7FCD6E947
:104E100004230C21CDE900230C480A4A03F0EEFCE0
:104E2000FFF74CFF0A4A012313700A4A137003B0BC
:104E3000F0BD00BFECE50320B8E2032000F403203E
:104E4000C0E00320EEB20D0080E10320F8E0032073
:104E5000B0E50320E8E2032010B5274CFFF79EFFE2
:104E6000E378012B05D903F009FC002842D0012387
:104E7000E3702379D4ED057A012B84BF00232371DD
:104E8000A3681D2BCCBF0023012363712369BAEEF5
:104E9000087AFF2B88BF0023F4EEC77A88BF23610E
:104EA000F1EE10FA06D4B2EE087AF4EEC77AF1EE1B
:104EB00010FA01DD114B6361D4ED067AF5EEC07A8C
:104EC000F1EE10FA06D4B0EE007AF4EEC77AF1EE05
:104ED00010FA02DD4FF07E53A36104F0FCFF236A59
:104EE00098423CBF002323620A23A371044B012292
:104EF0001A7010BDE070BCE78CE503200000A0C074
:104F0000B0E5032038B503681446DD682423A847BC
:104F1000204638BDF0B5934C2378013B93B0052B68
:104F200030D8DFE813F09D0106001201740049013A
:104F30006D018D4D2B792BB18C4B1B78022B01D041
:104F4000FFF784FC6B790BB104232370884E03F0C8
:104F500031F93268801AB0F57A7F13D904F0D8FF9E
:104F6000AB7990FBF3F202FB1303002B44D104F066
:104F7000CFFF804B1B6898423ED00323237003F081
:104F800019F930607C4C7D4801F008FA237833B180
:104F9000754A7B480121FFF7B5FF00232370794C48
:104FA00023783BB13023784A7548502102F0ADFA9E
:104FB00000232370754B1B68002B1BDB744A4021B8
:104FC00002A803F01BFC02A97248FFF73CF9642019
:104FD00003F05CFC00238DF800306F4B6F491B78A9
:104FE0006F4802AAFFF746F94FF4FA6003F04EFC4F
:104FF00004F004FD13B0F0BD04F08AFF0028BED118
:1050000004F086FF5B4B1B689842B6D1B7E7564D5C
:105010002B792BB1554B1B78042B01D0FFF716FCD5
:10502000FFF74CFE6B790BB9022325E004F053FF28
:10503000EB69C01AB0F5E15F20D9FFF779FB564B59
:10504000584A1B788DF8003057493C2302A803F0DA
:10505000F1FE039D7DB16B68013B6B605BB92B6812
:1050600028469B689847AB68013BAB601BB92B682F
:105070002846DB6898470523237083E704F048FF40
:10508000012803DDEB780BB1FFF7A0FB002107201F
:1050900005F079F90021394800F088FD04F038FF67
:1050A000424B1A7D04460AB102221A723F4800227E
:1050B0000421FFF791F8037D06465BB33C23C4F15E
:1050C0003C005843B0F5616FA8BF4FF4616033688E
:1050D0000128B8BF01204FF47A77DB6847432BB132
:1050E0009A88042A00F027819B68F8E7304910204D
:1050F00005F0BDF90446002800F01B8110220021B4
:1051000005F0A4FE2B4B23600423A3803369C4E97C
:1051100002373461254902A804F074FC17484FF0A7
:10512000FF3100F043FD029B43B19A88012A05D16B
:105130009B89042B02D104F0CEFE2862029800283D
:105140003FF420AF03F042FB1CE7074B1B792BB168
:10515000064B1B78032B01D0FFF778FBFFF71EFEF1
:1051600089E700BF88E503208CE5032048E503209C
:105170006CE20320F0E20320B0E5032070E203209C
:105180001CE30320E8E20320B8E20320F4E003205C
:1051900058B30D0024E6032060E2032077B30D002E
:1051A0004CE50320F6B20D000BB30D00A0E2032086
:1051B00098BB0D0010000300604D2A792AB1604BA6
:1051C0001B78052B01D0FFF741FBEB780BB9FFF7FC
:1051D000AFFA03F053FA08B9FFF7AAFA03F04EFA50
:1051E00040B104F089FE08B9FFF796FBFFF7AAF972
:1051F000062341E702F0DEFF524B186001233BE734
:105200004E4B1B792BB14E4B1B78062B01D0FFF771
:105210001DFB4D4D2B7853B904F07AFE4B4B1B68A8
:1052200098427FF401AF2B78002B3FF4ABAE02F035
:10523000C1FF474B1B68C01A4AF6C87398427FF6F5
:10524000A1AE02F0B7FF3F4B424A186000238DF831
:105250000030414B41491B784148FFF70BF8CDE73F
:10526000364C23792BB1364B1B78012B01D0FFF73D
:10527000EDFA02F09FFF334B1B6803F5EA4330332E
:105280008342BFF47FAE2369032B13DC03F0F6F9EE
:1052900048B100238DF800302F4B324A1B78324939
:1052A0002F48FEF7E7FF4FF4FA6003F0EFFA04F03F
:1052B000A5FB67E604F00FFEE369C01AB0F5E15FF5
:1052C0001CD903F0DBF948B100238DF80030224BE4
:1052D000264A1B7824492248FEF7CCFF4FF4FA6097
:1052E00003F0D4FA0023154A214823610121FFF776
:1052F00009FE0A211F4800F0B3FD43E603F0BEF9A2
:1053000048B100238DF80030134B184A1B7816491A
:105310001348FEF7AFFF4FF4FA6003F0B7FA00232B
:10532000064A134823610121FFF7ECFDFFF7C0FA9D
:1053300028E63075EEE6DF60ECE600BF8CE5032082
:1053400048E5032084E50320FEE20320F0E2032089
:10535000B4E5032078B20D0060E2032011B30D0024
:105360004CE503202AB30D000BB30D003EB30D0036
:105370001CE3032070E2032037B5FFF7D9F9FFF7EC
:105380000DFD03F07BF948B100238DF80030124B7E
:10539000124A1B7812491348FEF76CFF124CA3689F
:1053A0001D2BCCBF0023012363710A23A3710F4B74
:1053B00063614FF07E530125A3610023E3612570F3
:1053C000257104F088FD2246206229460848FFF72F
:1053D00099FD03B030BD00BF60E203207EB30D0035
:1053E0003FB10D004CE503208CE503200000A0C078
:1053F0001CE3032000000000F0B50021ADB0082040
:1054000004F0B0FF0021042004F0ACFF01210720CC
:1054100004F0A8FF0121072004F0B5FF04A8002430
:1054200003F034F900237D220CA904A804F03FFA0C
:1054300023462246B249B34DB34FCDE900440CA8F0
:1054400003F034F9B149B248FEF7ABFEB149B248B6
:10545000FEF7A7FE23460222B049B14803F0EEF85A
:10546000B049B148FEF79DFEB049B148FEF799FE3C
:10547000B049B148FEF795FEB049B148FEF791FE3C
:10548000B049B1482346022203F0D8F8234602224D
:10549000AE49AF4803F0D2F8AE49AF48FEF781FEFF
:1054A000AE49AF48FEF77DFEAE49AF48FEF779FE44
:1054B000AE4AAF49AF4803F0A3FBAF4AAF49AD488E
:1054C00003F09EFBAE4AAF49AA4803F099FBAE4AEF
:1054D000AE49A84803F094FBAD4AAE49A54803F095
:1054E0008FFBAD498C4AA34803F08AFB01260323B6
:1054F00041F2883208A8CDE908328DF8286003F01F
:10550000A3FBFFF715F9A54801F072FF3346A34846
:105510000DF10F02214601F0ADFF9DF80F30022B77
:1055200000F0D1809D4801F06DFF9D4A9B483346B5
:10553000214601F0EAFF334698480DF10F0221465B
:1055400001F098FF9DF80F30022B00F0B9803E70FB
:10555000944CFFF781FC944A002300214FF48020F3
:1055600003F00AF8082301212046638100F036FE8B
:1055700001231A461021204600F09BFB7C21A870D5
:10558000204600F013FBAB79884A62480C2103F0F7
:1055900035F995ED060A04F055FB04F07FFC002870
:1055A00040F09880AB78002B00F09480804E20462D
:1055B000314600F003FED6E9000104F075FBFFF769
:1055C000E9F9002800F08B8004F05AFB95ED050AFC
:1055D00004F018FB04F0C4FC044604F07CFC201A20
:1055E00005F09EF844A3D3E9002305F02DFA714A93
:1055F000CDE900010A21574803F000F900221146C5
:1056000008A8089202F0B6FD089B142B4FF0000288
:1056100068D12B6901332B61674B01221A7000237B
:105620002A6A08A804F054FB089A4E48202103F087
:10563000E5F808A804F0B0F8FFF740FB5F4A5748C8
:105640003023502101F016FF04F056FC5C4B18602B
:10565000FFF740F8042004F0AFFE08B9FFF78CFE16
:10566000584801F03CFD5849564801F01CFD574987
:10567000544801F018FD5649524801F014FD04F059
:10568000C7FE42220146534800F0A8FF514800F0EF
:105690005BFF00238DF800304F4B504A1B78504978
:1056A0005048FEF7E7FD3B780BB902233B70002121
:1056B000072004F068FE04A804F06EF82DB0F0BDD9
:1056C000FFF75AFE44E724232A463146334801F0C7
:1056D000D1FE3DE7FFF72CF8FEF74CFD6FE704F035
:1056E000DBFA73E7114608A8089202F043FD089B15
:1056F0008C2B94D18DE700BF000000000020AC404F
:1057000091420D008CE5032088E5032010E2032080
:1057100096B30D0004E103209DB30D009CE503202A
:10572000ACB30D00C0E00320B7B30D0080E103204F
:10573000C1B30D00F8E00320CAB30D00CCE0032094
:10574000D6B30D0094E50320DEB30D00D0E20320B4
:10575000E9B30D00F4E20320F0B30D0090E2032062
:10576000FBB30D00D4E003200AB40D0017B40D0004
:10577000ED400D00D58B0D0021B40D0009410D0049
:1057800029B40D0025430D0036B40D00B1430D00C2
:1057900043B40D00D9490D00C9440D001CE303209A
:1057A000ECB40D0070E20320C9400D007EB10D0085
:1057B00008E2032044B10D00B0E50320B8E2032065
:1057C000ECE2032000E3032000F4032008F40320AC
:1057D00010F403202CE3032060E2032051B40D00F9
:1057E0000BB30D004CE50320F8B5404B404E414D46
:1057F00000241C60404B01271F7004F05DFD234610
:10580000224642F6DF5104F05FFD04F055FD2246CA
:1058100023460C2104F060FD384BB3603460B48043
:10582000B471022002F090FE2A463549304604F059
:1058300017FE2146384602F0A7FE3946042002F042
:1058400091FC30483049A0F809400346021D43F856
:10585000092B9C702D4B43602A46C0E90344077511
:10586000047204F0FDFD04F0D3FD294E01462346E9
:105870004FF40052304601F0B1FD264B3360304604
:10588000254E26492A4604F0EBFD25494FF40062D7
:10589000304602F0E3FA234B33603046224E234970
:1058A0002A4604F0DDFD22461021214C304601F04D
:1058B000E3FB2A461F49304604F0D2FD204600F0A3
:1058C00013FF2A461C49204604F0CAFD04F0A0FD3F
:1058D0001A4C01466922204600F06AF82A46204602
:1058E0001749BDE8F84004F0BBBD00BF5CE20320EF
:1058F00050E2032000E2032060E203200000FFFFEB
:10590000C7410D00A0E20320D5400D0010000300A8
:105910001CE303206CB40D004CE503204D410D0049
:1059200018F4032088B40D0000E3032025410D0086
:105930002CE30320CD700D0035680D0070E20320CC
:1059400045590D00704710B52021044604F08DFD27
:10595000204610BD0EB410B58DB00FAA016852F8E4
:10596000044B039200232020CDE90403CDE900423B
:10597000012004AA02F0CEFD0DB0BDE8104003B036
:1059800070470EB410B58DB00FAA016852F8044BE1
:10599000039200232020CDE90403CDE90042322008
:1059A00004AA02F0B7FD0DB0BDE8104003B0704787
:1059B00010B50272FF2242810022C0E90322426137
:1059C0000276C261024A034C1060C0E9004110BD7A
:1059D000BCE503203CB70D002DE9F8439DF820807D
:1059E0000446894616461F46B8F1000F02D04068AB
:1059F00003F04CFC217A606803F03DFC60680368AA
:105A000049469B6898476068002103F03BFC0546C7
:105A100000BB0123217A60683A4603F01AFC8742F2
:105A2000034609D13744BE421CD0606803685B69F5
:105A3000984706F8010BF6E70B490C484A46FFF772
:105A4000A0FFB8F1000F02D0606803F028FC2846E0
:105A5000BDE8F8830346064904484A46FFF791FF2C
:105A60000025EEE70125ECE7EDB40D00B8E50320D5
:105A700012B50D0007B500930123FFF7ADFF03B08A
:105A80005DF804FB73B54389FF2B044610D0194E13
:105A9000194D02F08FFBB0F57A7F09D2608904F0CE
:105AA0008BFC012804D031462846FEF7CCFBF0E7FA
:105AB00001230DF1070228212046FFF7DBFF30B953
:105AC0000D480E49FEF7BFFB002002B070BD9DF8E7
:105AD0000730182BF4D101230DF1070229212046AC
:105AE000FFF7C8FF0028EBD09DF80730052BE7D162
:105AF000EBE700BF36B50D00B8E503204BB50D0050
:105B000007B5134600228DF807200DF10702FFF7B5
:105B1000B1FF9DF8070003B05DF804FB2DE9F041EB
:105B20009DF8188004460F4615461E46B8F1000F32
:105B300002D0406803F0AAFB217A606803F09BFB67
:105B40006068036839469B6898472E44B542606890
:105B500005D0036815F8011B9B689847F6E70121FB
:105B600003F090FB034670B1084909483A46FFF735
:105B700008FF0025B8F1000F02D0606803F08FFB2A
:105B80002846BDE8F0810125F4E700BF58B50D00B7
:105B9000B8E503201FB58DF80F2000930DF10F021B
:105BA0000123FFF7BBFF05B05DF804FBF8B50A461B
:105BB0000C4605461A491B48FEF745FB002CB8BFAA
:105BC000EC687CB9012322461B212846FFF7E2FF3F
:105BD0001549024606461348FFF7BCFEEC606C61AF
:105BE0003046F8BD032C19DDA7101F2FA8BF1F27B3
:105BF000BA0062F07C020123D2B21B212846FFF7D3
:105C0000C9FF3A460346094906460648FFF7A2FE81
:105C10004FF4FA635F43EC606F61E1E70127E7E768
:105C20007DB50D00B8E5032087B50D00A3B50D00C7
:105C30000B4607490246086848B1002B08BFB2F579
:105C4000006F04D1C36813B10021FFF7AFBF7047E5
:105C5000BCE503202DE9FF419DF828800546164646
:105C60001F46B8F1000F04D04068019103F00EFB0D
:105C70000199019100230DF10F022846FFF7FAFE6A
:105C8000044660B19DF80F3003EA06023A4393429E
:105C900005D0019900232846FFF77CFF0446B8F1A0
:105CA000000F02D0686803F0FAFA204604B0BDE89D
:105CB000F08113B514460DF10702FFF7DBFE28B1A2
:105CC0009DF807301C420CBF0120002002B010BD1F
:105CD00013B514460DF10702FFF7CCFE28B19DF86D
:105CE00007301C4214BF0120002002B010BD07B5D0
:105CF000D2430093D2B20023FFF7ACFF03B05DF8AC
:105D000004FB000037B501230DF107020F21044603
:105D1000FFF7B0FE054638B91E491F48AD22FFF710
:105D200030FE284603B030BD9DF8073013F0200F39
:105D30004FF001030BD02022E3610F212046FFF733
:105D4000D6FF164A16491448FEF77DFAE9E70822FD
:105D500017212046FFF7BCFF18B10223114AE36167
:105D6000F0E79DF807301A0709D50323E3610822FD
:105D700001230F212046FFF7BAFF0B4AE2E75B073A
:105D8000CFD50422E26101230F212046FFF7AFFFA8
:105D9000064AD7E7F6B50D00B8E50320C7B50D00F4
:105DA00015B60D00D0B50D00E0B50D00F0B50D0035
:105DB00007B500931346FF22FFF74CFF03B05DF8D1
:105DC00004FB0000F8B50F461646012300220F2100
:105DD0000546FFF7DFFE044638B94FF425721E4929
:105DE0001E48FFF7CEFD2046F8BD012323221821CF
:105DF0002846FFF7CFFE044610B940F29B22EEE79B
:105E0000FF2FA8BFFF27012FB8BF01270123FAB238
:105E100019212846FFF7BEFE044610B94FF42A7236
:105E2000DDE70123082212212846FFF7C1FF0446BF
:105E300010B940F2AF22D2E7002E4FF0010314BF99
:105E40008322822218212846FFF7A4FE0446002858
:105E5000C9D140F2B922C2E726B60D00B8E5032049
:105E60002DE9F7430A4605460F464F484F49FEF7CE
:105E7000EAF900212846FFF799FE044648B940F2A6
:105E8000F7124B494848FFF77CFD204603B0BDE8B8
:105E9000F08301231A4630212846FFF789FF044684
:105EA00010B940F20522ECE71022012311462846E2
:105EB000FFF71DFF044610B94FF40372E1E7012319
:105EC000262213212846FFF765FE044610B940F24A
:105ED0001322D6E7012600963346FC2211212846DC
:105EE000FFF7B8FE044610B940F21B22C9E70022B2
:105EF00039462846FFF766FF044610B940F22222D1
:105F0000BFE700960223772210212846FFF7A2FE62
:105F1000044610B940F22B22B3E7334604221C2179
:105F20002846FFF745FF044610B940F23222A8E7A1
:105F300000961823E32211212846FFF78BFE044622
:105F400010B940F239229CE73346C0221721284677
:105F5000FFF720FE044610B94FF4107291E702F0EB
:105F600029F9DFF85490DFF840804FF47A71064643
:105F70004F4302F01FF9801BB8420ED201221721B5
:105F80002846FFF7BDFD494602464046FEF75BF94D
:105F90004FF47A7002F07AFCEBE706490248FFF70B
:105FA000F0FC03F02BFD70E7B8E5032051B60D00BF
:105FB00046B60D0077B60D0062B60D002DE9F34729
:105FC0009DF828A005460C4691461F46BAF1000FE1
:105FD00002D0406803F05AF907B3202F3E4628BF8D
:105FE00020267F2C26D83319802B01D9C4F18006B6
:105FF000012304223F212846FFF779FE002364F0A5
:106000007F0100934A463346C9B22846FFF7E4FCB5
:10601000804628B13444BF1BB144DDE74FF001088E
:10602000BAF1000F02D0686803F039F9404602B0B7
:10603000BDE8F087012304223F212846FFF7B8FE80
:10604000DCE72DE9F3479DF828A005460C4691466C
:106050001F46BAF1000F02D0406803F017F907B3EA
:106060001F2F3E4628BF1F267F2C26D83319802B92
:1060700001D9C4F18006012304223F212846FFF7FD
:1060800036FE002364F07F0100934A463346C9B2CE
:106090002846FFF743FD804628B13444BF1BB14476
:1060A000DDE74FF00108BAF1000F02D0686803F095
:1060B000F6F8404602B0BDE8F087012304223F21F4
:1060C0002846FFF775FEDCE730B585B00D68D1E9ED
:1060D000043203954D6802958D680195C968009159
:1060E0000133044902F26C72044603F0F9FB2046C6
:1060F00005B030BD89B60D0003110A2200F00F0073
:1061000002FB0300704738B5044600781546FFF7D8
:10611000F3FF08606078FFF7EFFF4860A078FFF7B3
:10612000EBFF8860E078FFF7E7FFC8602079FFF7B2
:10613000E3FF013808612DB9651D2878FFF7DCFF02
:10614000886138BD6079FFF7D7FF6430A51D4861CD
:10615000F3E7000070B5012388B00D461A46102100
:106160000446FFF7A6FDF0B108230126204600965D
:106170000DEB03020021FFF72FFC044698B13246D5
:1061800029460DF10900FFF7BEFF04A8FFF79CFFA9
:106190000848049A0849FEF756F804A803F0FCFAE8
:1061A000204608B070BD24220021284604F04EFE8F
:1061B0000024F5E7B8E50320A7B60D0030B58BB095
:1061C0000D4601A9FFF7C6FF044620B101A802F061
:1061D00055FBC5E9000120460BB030BD10B50446A3
:1061E00088B011B1406803F017F82046FFF74AFC69
:1061F00070B32046FFF786FD01231A461021204682
:10620000FFF757FDD8B103F049FEC0B902A92046F7
:10621000FFF7D4FFDDE9020103F046FD0F4B104903
:106220001B68009304A8DDE9022303F0F5FD0D4887
:10623000049A0D49FEF707F804A803F0ADFA0B4ADB
:10624000002300214FF4006002F096F908B010BD61
:1062500007490448FFF795FBF1E700BF8CE10320F5
:1062600050E60320B8E50320B5B60D00315C0D0003
:10627000D2B60D000A2290FBF2F302FB130093FB4F
:10628000F2F102FB113140EA0110C0B2704770B563
:10629000054600680C461646FFF7ECFF207068685C
:1062A000FFF7E8FF6070A868FFF7E4FFA070E868F8
:1062B000FFF7E0FFE07028690130FFF7DBFF207196
:1062C0002EB9661DA869FFF7D5FF307070BD6A69E9
:1062D000642392FBF3F003FB1020FFF7CBFFA61D16
:1062E0006071EFE7F0B587B0054602A816460C4688
:1062F000FFF7EAFE1E48029A1E49FDF7A4FF02A816
:1063000003F04AFA16B1686802F0C0FF2046012285
:106310000DF1090100278DF80870FFF7B8FF012380
:106320001A4610212846FFF743FD0446E8B108232A
:1063300000970DEB030239462846FFF7EFFB0446B2
:1063400060B101231A4610212846FFF7D0FC16B190
:10635000686802F0A4FF204607B0F0BD4FF48D72CC
:1063600005490348FFF70DFBF1E74FF48F72F7E79C
:10637000B8E50320EAB60D00F8B60D0013B50446E3
:106380006846CDE9002304F027FD9DF81020014662
:106390002046FFF7A7FF02B010BD0000F0B5057E54
:1063A00089B0044675BB03F079FD58B30026002779
:1063B00004A92846CDE9046702F090F910B301253D
:1063C000257603F088FD00950246C3172046CDE9E7
:1063D0000223FFF7D3FF02A92046CDE90267FFF7AA
:1063E000EDFE124B12491B68009304A8DDE902235D
:1063F00003F012FD0F48049A0F49FDF724FF04A88B
:1064000003F0CAF9636973B101F0D4FE2369C01ABD
:106410006369984207D301F0CDFE4FF0FF31206150
:106420002046FFF7C3FB09B0F0BD00BF8CE103209D
:1064300050E60320B8E5032013B70D00014B024AD4
:106440001A607047B8E5032029B70D00704710B5F2
:106450001021044604F009F8204610BD0EB403B51F
:1064600003AB002153F8042B019303F0A0F802B012
:106470005DF804EB03B0704773B504460846227913
:10648000A36832B1A3B90B4902B0BDE8704003F074
:106490005DB8094A267B094D0949647B012E18BF66
:1064A0002946CDE900140749FFF7D8FF02B070BDB7
:1064B000054AEFE75DB70D0078B20D0059B70D0042
:1064C00055B70D0073B70D004CB70D0010B58368BC
:1064D000044613B1032201469847204610BD0368C5
:1064E000C9B29B681847000038B500F1080504469A
:1064F000294600F059FA124B23602846002500F087
:1065000096FA84F8A85103F083FF422384F8B0314F
:10651000C4F8AC0103F090FDFF23A4F8E431094B6B
:10652000C4F8C4511C60C4E96D05C4E97355C4E9DD
:106530007555C4E97755C4F8E851204638BD00BF09
:10654000DCB70D00CCE50320F7B5D0F8B8610746FD
:10655000002E39D10420FDF79EFD054690B31B495E
:10656000142003F084FF28B1C0E90066C0E9026688
:10657000067446742860A0B1154B1649C0E902376D
:106580004FF40063CDE900030222134B043001F005
:1065900099FD30B92B681B7CA3B9012001F0FAFDED
:1065A000F8E72C6800232B6064B1266836B13046CA
:1065B000FFF78CFF1021304603F057FF14212046CF
:1065C00003F053FFC7F8B85103B0F0BD98BB0D00FE
:1065D00093690D0090B70D008F670D0010B5012372
:1065E00080F8A831D0F8AC31044648685860886813
:1065F0009860C868D860087C1874084684F8B02190
:1066000002F00AFE204610BD38B5044690F8B011DD
:10661000D0F8AC0102F02FFEFD21D4F8AC01FFF759
:106620005EFFD4F8AC01002102F02CFE08B100207E
:1066300038BD94F8B011D4F8AC010123022202F065
:1066400008FEC0B20228F2D1D4F8AC0103685B693D
:1066500098470546D4F8AC0103685B69984740EA5F
:10666000052080B2E4E72DE9F8430746884690F814
:10667000B011D0F8AC01154602F0FDFDFF21D7F8AE
:10668000AC01FFF72CFFD7F8AC01002102F0FAFDB6
:1066900018B14FF0FF30BDE8F8830446A54220D979
:1066A0002E1B202E28BF202604EB0609A5EB09028D
:1066B0005342534197F8B011D7F8AC01324602F07B
:1066C000C8FDC0B28642E4D144442644D7F8AC01A8
:1066D00003685B69984704F8010BA642F6D14C4663
:1066E000DCE72846D7E7000037B50446FFF7FCFE95
:1066F0001C4B236004F5FA701033C4F8EC31082108
:10670000C4F8F00100F030FE174D184BC4F8F43116
:106710002978BFF35B8F11F001010BD1284601915D
:10672000FDF7CAFC019928B1114802F08BFF2846F9
:10673000FDF7C7FC0E4BC4F800321123C4F8043235
:1067400000230C4A84F8083284F810320A4BC4F84B
:10675000143220460123C4F80C22A4F8183203B0E6
:1067600030BD00BFBCB70D00C0E503203CB80D0034
:10677000C4E50320A8B70D0080969800826810B584
:106780000AB903F078FEBDE81040C368184710B599
:10679000012303748368044643B1C068984701230A
:1067A00063740020BDE8104001F0D4BC00680028EC
:1067B000F5D0FFF7E3FFF2E770B5D0E900560446E5
:1067C000AE4204D02846FFF781FE1035F8E7206876
:1067D00008B1FDF764FC204670BD000010B50E4BFB
:1067E00003600446D0F8E80120B101F08BFC0023DF
:1067F000C4F8E83104F5EC70FFF7DEFF04F5E6704D
:10680000FFF7DAFF04F5DE70FFF760FE204600F0C8
:10681000C3F8204610BD00BFDCB70D0010B504461C
:10682000FFF7DCFF20464FF4F67103F01EFE204612
:1068300010BD000010B5084B03F1080218330446E0
:106840000260C0F8EC3100F5FA7000F02DFD204632
:10685000FFF7C4FF204610BDB4B70D00A0F5F670D9
:10686000FFF7E8BF10B50446FFF7E4FF20464FF4FA
:10687000077103F0FAFD204610BDA0F5F670FFF792
:10688000F1BF07B582688DF807100AB903F0F3FD70
:10689000C3680DF10701984703B05DF804FB2DE9CB
:1068A000F04790F8A8718AB00446FFB900F10806D5
:1068B00000F5DE75D4F8B40103681B699847002819
:1068C00045DDD4F8B40103685B699847C1B230462E
:1068D000019100F047FBD4F8C4313843C7B2002B14
:1068E000E8D001992846FFF7CCFFE3E7D0F8AC8168
:1068F000404602F0CBFC2046FFF786FE20280646E5
:1069000002D810B900271FE02026324602A92046EF
:10691000FFF7A9FEB042F5D102AD2E44002704F1E5
:10692000080904F5DE7A15F8011B484600F01AFB49
:10693000D4F8C4313843C7B223B115F8011C50460E
:10694000FFF79FFFB542EED1404602F0A8FC57B1D9
:10695000D4F8D851D4F8DC319D4204D02846FFF752
:106960000DFF1035F6E70AB0BDE8F08738B50446EC
:106970002046FFF794FFD4F8CC51D4F8D0319D4293
:1069800004D02846FFF7FAFE1035F6E701F0A2FB27
:10699000EEE708B5FFF7EAFF704710B50821044697
:1069A00003F063FD204610BD014AC0E90021704795
:1069B000ECB70D000022C0E90F22C0E91322C0E9A4
:1069C0001722C0E91B220280828082600273028249
:1069D000426102768283026280F824200285C262CC
:1069E00080F83020426302874264A0F84820426564
:1069F000A0F858204266A0F868204267A0F87820E6
:106A0000C0E91F22C0E92322C0E92722C0E92B22C6
:106A1000C0F88420A0F88820C0F89420A0F898201E
:106A2000C0F8A420A0F8A820C0F8B420704710B582
:106A30000446FFF7BFFF04F1B800FFF7BBFF0223D6
:106A400084F881310023C4E96233C4E96433C4E9C2
:106A50006633A4F8823184F88431A4F8703184F864
:106A60007231204610BDA1F14103052B02D8A1F1DE
:106A700037007047A1F16103052B94BFA1F15700C6
:106A8000A1F13000704738B5057804462D2D08BFB8
:106A90000134204604F08EF964235843224614F84A
:106AA000013BA3F130010929F8D92E2B0BD15378E2
:106AB000303B092B07D80A2101FB03009378303BB8
:106AC000092B98BFC0182D2D08BF404238BD0000CB
:106AD00038B50D46044604F06DF96422134BB0FB43
:106AE000F2F102FB11004343298020460278A2F113
:106AF0003004092C014600F10100F7D92E2A0BD1F0
:106B00000A480A2411F8012F303A092A04D8B0FBA8
:106B1000F4F000FB0233F5E703EB830301330322B8
:106B2000B3FBF2F36B6000232B7238BD80969800A4
:106B300010B50346044653F81C2F42605A68826021
:106B40001B7A0373034653F8282F02615A68426187
:106B50001B7A037601F02EFB40F201136063238061
:106B600010BD000000000000D0B5002304464370B3
:106B7000806803F0C5FD0CA3D3E9002303F064FF94
:106B80000646A0880F4603F0CBFD0B460246394669
:106B9000304603F079FC237B13B101F10043194621
:106BA00041EC100BD0BD00BF0000000065CDCD4111
:106BB000D0B5002304464370406903F0A1FD0CA347
:106BC000D3E9002303F040FF0646208A0F4603F076
:106BD000A7FD0B4602463946304603F055FC237E9E
:106BE00013B101F10043194641EC100BD0BD00BFB9
:106BF0000000000065CDCD4110B5836843600446B8
:106C000001F0D8FA40F20113E060238010BD10B506
:106C100083684360044601F0CDFA40F20113E0605E
:106C2000238010BD10B504460846FFF72CFFA06076
:106C300010BD10B50446084604F0BCF8A06010BDB5
:106C400010B5C3688360044601F0B4FA40F2011342
:106C50006060238010BD10B504460846FFF713FF9F
:106C6000E06010BD10B5C3688360044601F0A2FA6D
:106C700040F201136060238010BD10B50446084641
:106C800004F098F8E06010BD10B5014604461030DD
:106C900004F012F901F08EFA40F201132062A3848D
:106CA00010BD102204F035B9F8B590F871510446C2
:106CB000002D00F0888090F87211FFF7D4FE94F850
:106CC000731102462046FFF7CEFE94F8703100EBB8
:106CD0000210C0B283426ED1D4F89C310133C4F8A3
:106CE0009C3194F8843123B1D4F894310133C4F841
:106CF000943194F88131E3B3012B2BD104F1F000EE
:106D0000FFF77AFF04F58070FFF781FF94F8843174
:106D100004F1B8065BB13046FFF70AFF04F588704E
:106D2000FFF78EFF04F59070FFF78AFF05E084F807
:106D3000B83084F8103184F820310021084601F081
:106D4000D1F93146B822204604F058F8002101203C
:106D500001F0C8F9D4F88C619EB3D4F88C31B06AD4
:106D6000996A04F09FF860BB3046FFF78DFF366BE1
:106D7000F2E704F58070FFF74AFF94F8843104F1DC
:106D8000B8068BB13046FFF7D3FE04F59870FFF7D5
:106D900057FF04F5A070FFF753FF04F5A870FFF745
:106DA00061FF04F5B070BFE784F8B83084F8303183
:106DB00084F84031F1E7D4F898310133C4F89831C0
:106DC00000252846F8BD90F882216ABB00F5B97607
:106DD0006049304604F066F820B15F49304604F05F
:106DE00061F898B9012384F88131D4F88831C4F866
:106DF0008C31D4F88C71002FE3D0B86A314604F09E
:106E000051F8002880F29F803B6BF0E753493046F1
:106E100004F048F820B15249304604F043F808B96C
:106E20000023E0E70223DEE790F88111022924D055
:106E300090F872310BB342EA4112013A282A1CD869
:106E4000DFE802F0153C434A4D666B72771B7C1BF2
:106E50001B1B1B1B1B1B1B1B1B1B1B1B1B1B1B1B82
:106E60001B1B1B1B15353C434A4D545B600000F552
:106E7000B97100F58070FFF7D5FED4F88C6104F588
:106E8000B977002E9DD0D4F88C31B06A996A04F09D
:106E900009F8002895D1F26A94F882319A4290DC80
:106EA00003D139463046FFF7FCFE366BE9E7A3F124
:106EB00041004342434184F88431DEE700F1D401CC
:106EC00004F5B970FFF704FED7E7A3F153014B4275
:106ED0004B4180F8DC30D0E700F1E001F0E7A3F1AE
:106EE00057025342534180F8E830C6E700F5B971C4
:106EF00000F58870FFF7AFFEBFE700F5B97100F548
:106F00009070F7E700F5B971F030FFF792FEB4E743
:106F1000302B94BF00230123CDE700F5B97100F5B4
:106F2000A870FFF7AAFEA8E700F5B97100F5B070E8
:106F3000E0E700F5B97100F59870DBE700F5B9718D
:106F400000F5A070D6E73FF43CAF0023C4F88C31C5
:106F500037E700BFF4B70D00FAB70D0000B80D0019
:106F600006B80D0038B5D0F89031242903F101039B
:106F700004460D46C0F890313AD090F8833114D8C9
:106F80000A291CD00D291AD00D2B9FBF5A1C1B1982
:106F900084F8832183F8725194F8710198BB94F8B6
:106FA00070114D4084F8705121E02A2907D02C2916
:106FB000EAD190F8702182F02C0280F870210E2B1B
:106FC0004FF0000005D8234483F872012046FFF7F4
:106FD0006BFE94F88231013384F88231002384F807
:106FE0008331A5F12A035D425D4184F8715138BDBA
:106FF00000200223A4F8700184F88131A4F88201F2
:1070000084F88401F3E70020F1E738B50468054609
:107010007CB16368013B63605BB9236820469B6871
:107020009847A368013BA3601BB923682046DB682F
:107030009847284638BD13B50B460246D0E90001F3
:107040006C4684E8030093E8030082E8030094E8B8
:10705000030083E8030002B010BD0000034B0122CF
:107060001A70034B034A1A60704700BFD4E503202F
:10707000D0E503200CB80D0037B5002343608360D2
:10708000C360036143610383827604460E2001914D
:10709000FDF701F8054610B1019900F0A7FB204665
:1070A000256003B030BD38B500F110050C4600680E
:1070B000294600F08BFC031E1DBF2B6823606B6804
:1070C000236014BF01200020636038BD10B5044662
:1070D000006810B10E2103F0C8F9204610BD006809
:1070E00000F06CBC2DE9F041837E04460D46164647
:1070F0002BB90B781BB99FED570ABDE8F0812068CA
:1071000000F07EFBA37E002B5DD0002E5BD12068BB
:1071100000F050FC00224421206800F006FC40F200
:10712000EE2001F0B3FB206800F06AFBA37E002B89
:107130004ED0002E4CD1206800F03CFC206800228C
:10714000BE2100F0F2FB2B78262B04D10022206810
:10715000114600F0EAFB261D04F10D0837462068B1
:1071600000F006FC06F8010B4645F8D10821384628
:1071700000F0A0FC237B207698426376BBD12B786D
:10718000262B47D029D8102B29D0222BB3D1227AF5
:10719000237902F06002202A36D0402A37D012B973
:1071A00023F0070323716379207940EA032000B2BA
:1071B00003F0B6FA284B002203F01CFB03F04CFD51
:1071C00000EE100A99E72068294600F0E1FBA1E7EC
:1071D0002068294600F0DCFBB0E7282BD6E7E37AED
:1071E000A288102B08BFA37A4FEAC20203BFC3F1E3
:1071F0000C0322F00F029B1813B208BF1BB200EE63
:10720000103ABAEECE0A78E723F00303CAE723F078
:107210000103C7E7A579284603F082FA064660799C
:10722000C01007EE900AF8EEE77A0F4617EE900AC4
:1072300003F088FA094B002203F0DCFA2B0654BF56
:10724000074B084B002203F0D5FA32463B4603F0C9
:107250001BF9B3E70000C07F0000B03F0000A03F73
:107260000000F03F0000F0BF08B510EE100A03F078
:1072700069FA08A3D3E9002303F0BCFA044B002207
:1072800003F002F903F0E8FC00EE100A08BD00BFAD
:1072900000004040CDCCCCCCCCCCFC3F027E407E2C
:1072A000131A584258417047704710B528210446B8
:1072B00003F0DBF8204610BD10B5044600F11801BC
:1072C000C06802F0F5F9208A0021BDE8104003F003
:1072D0005AB810B504460121008A03F054F8E0685A
:1072E000BDE8104002F0CBB9F8B51E4603685B69F3
:1072F0000F46144605469847012E88BF47F04007C1
:10730000E86847F0800102F041FA2644B44206D012
:10731000E868002102F03AFA04F8010BF6E72B685E
:1073200028469B6998470120F8BDF8B51E460368BA
:107330005B690F46144605469847012E88BF47F003
:107340004007E868394602F021FA2644B44205D0E5
:1073500014F8011BE86802F019FAF7E72B682846D1
:107360009B6998470120F8BD024AC0E9002100222C
:107370000272704720B80D0013B5036801AADC68DB
:107380000123A0479DF8040002B010BD38B50546A2
:107390000A240F212846FFF7EFFF33284FF00100A2
:1073A00004D001F073FA013CF3D1204638BD10B58A
:1073B0000446018AC06802F04FF92046BDE810403B
:1073C000FFF7E4BF704710B51021044603F04DF8F5
:1073D000204610BD0368C9B29B68184730B5034DFD
:1073E000C0E90223C0E9005130BD00BF8CB80D00D8
:1073F000406801F011BF10B50446006801F04FFF6E
:10740000204610BD2DE9F0418AB004464068019045
:1074100001F03CFF1E22002102A8A76803F016FD20
:107420000026EFB123681E2FB84628BF4FF01E0874
:10743000DD6802AA434631462046A847054658B9AA
:107440000A480B493246FCF7FEFE01A8FFF7D3FFBE
:1074500028460AB0BDE8F081A7EB08074644E0E7FC
:1074600001A8FFF7C8FF0125F2E700BF24E60320CB
:1074700058B80D002DE9F7430446406801900D46C9
:1074800016461F4601F002FFA7B1E168606841F0AF
:10749000500101F0F4FE290A6068FFF79BFF2946BE
:1074A0006068FFF797FF6068002101F0EBFE48B1CC
:1074B000002400E0012401A8FFF79DFF204603B04F
:1074C000BDE8F083202F217B6068B84628BF4FF0CD
:1074D00020080123424641F0500101F0BAFE02F0BB
:1074E00097FF03681B6998474045E1DB06EB0809F5
:1074F00002F08EFF03685B69984706F8010B4E4562
:10750000F6D14544A7EB0807BEE72DE9F74F04463F
:10751000406801900E4690461D4601F0B7FE4FF0C0
:107520000109B9F1000F2AD04DB3E168606841F05C
:10753000500101F0A4FE310A6068FFF74BFF60685C
:107540003146FFF747FFA5F11E0A4746A6EB080B99
:10755000606817F8011B0368013D9B689847554513
:107560000BEB0706B84601D0002DF1D16068012170
:1075700001F088FE0028D7D04FF00009D1E701A81C
:10758000FFF739FF484603B0BDE8F08F2DE9F0431F
:107590008BB00E4615468046406801901C4601F0AF
:1075A00075FEAE4229D2264425448CB11E2C2746B6
:1075B000D8F8003028BF1E27F61BD3F8089002AA7F
:1075C0003B4631464046ED1BC84748B9002400E021
:1075D000012401A8FFF70FFF20460BB0BDE8F083A0
:1075E000D8F8003002AAD3F80C9029463B46404612
:1075F000C8470028EAD0E41BD7E7E9D9002CE7D038
:10760000D8F800301E2C274628BF1E27D3F8089034
:1076100002AA3B4631464046C8470028D6D0D8F893
:10762000003002AAD3F80C9029463B464046C84792
:107630000028CBD03E443D44E41BDFE710B503688F
:107640002F2B044604D9074A00210A2000F052FFDC
:1076500023681F2B83BF03F01F03034823604FF0F1
:10766000A04010BDA5810D0000030050F7B51B4CD4
:10767000058823781A4EBFF35B8F13F0010F09D1F1
:107680002046FCF719FD28B100F0CCFD3060204603
:10769000FCF717FD33682D015B5D5F012378BFF3B5
:1076A0005B8FDB0709D40D48FCF706FD28B100F01D
:1076B000B9FD30600948FCF704FD33682B4401A88C
:1076C0005B7803F01F033B430193FFF7B7FF019A79
:1076D00001239340C0F80C3503B0F0BDD8E503207A
:1076E000DCE50320F7B51B4C058823781A4EBFF361
:1076F0005B8F13F0010F09D12046FCF7DDFC28B1A8
:1077000000F090FD30602046FCF7DBFC33682D0173
:107710005B5D5F012378BFF35B8FDB0709D40D4806
:10772000FCF7CAFC28B100F07DFD30600948FCF789
:10773000C8FC33682B4401A85B7803F01F033B436C
:107740000193FFF77BFF019A01239340C0F80835AE
:1077500003B0F0BDD8E50320DCE503202DE9F341BB
:10776000204D06882B78204FBFF35B8F13F0010F5D
:1077700009D12846FCF7A0FC28B100F053FD386081
:107780002846FCF79EFC3B6836019C5D2B78BFF3D6
:107790005B8FDB074FEA441809D41248FCF78CFCD6
:1077A00028B100F03FFD38600E48FCF78AFC3B68CA
:1077B000334401A85C7804F01F0444EA08040194EF
:1077C000FFF73CFFD0F81035019401A8FFF736FF12
:1077D000019BD0F81005D84000F0010002B0BDE8D0
:1077E000F08100BFD8E50320DCE5032038B504466E
:1077F0000D462846002102F0B5FD2580204638BD03
:1078000070B5054601F054FD2888002100F012FDF6
:1078100001F050FD7D24013C14F0FF042DD0022026
:1078200000F0C0FC2846FFF799FF0028F3D001F0D4
:107830003FFD2846FFF71AFF0121288800F0FAFCD7
:1078400001F038FD4FF4F07000F0ACFC00F0BAFC31
:1078500000210646288800F0EDFC462000F0A2FC3E
:107860002846FFF77BFFB0FA80F4304600F0B2FC08
:107870004FF4CD70640900F095FC204670BD70B5E2
:1078800011F00105044618D000F09CFC0546204686
:10789000FFF7ECFE0121208800F0CCFC012000F075
:1078A00081FC2088002100F0C5FC284600F092FCF5
:1078B0003B20BDE8704000F075BC00F083FC06463C
:1078C0002046FFF7D3FE0121208800F0B3FC4120C1
:1078D00000F068FC2088294600F0ACFC304600F03F
:1078E00079FC0520E5E738B5044600F06BFC054659
:1078F0002046FFF7BBFE2088012100F09BFC012001
:1079000000F050FC0021208800F094FC0D2000F0D5
:1079100049FC2046FFF722FF0446284600F05AFCA7
:107920002E2000F03FFC204638BD2DE9F0410446F2
:10793000884616460827012518EA050F14BF0121BD
:1079400000212046FFF79BFF6D00013FEDB2F3D110
:1079500066B101F0ADFC2046FFF7C4FE208801218E
:1079600000F068FCBDE8F04101F0A4BCBDE8F08186
:10797000F8B507460826002501243846FFF7B3FF6F
:1079800000B125436400013EE4B2F6D12846F8BDBB
:1079900070B500220C4655210646FFF7C6FF651E4E
:1079A000073415F8011F00223046FFF7BEFFA5423D
:1079B000F7D170BD0022CC21FFF7B7BF0023438071
:1079C0008380C38003814381037370472DE9F047AF
:1079D00090F80C9004468846B9F1000F0DD00020B5
:1079E00060812073A31C08F1FF380A3413F8012BBF
:1079F00008F8012FA342F9D104E0FFF701FF18B9FD
:107A000060812073BDE8F0874A46F0212046FFF7E9
:107A10008CFF0126CA4635462046FFF764FF07461D
:107A20002046FFF760FF012F0FD1012827D1402DFD
:107A3000D5D984F80A90B9F1000F01D1012323733D
:107A4000A378002BCBD00120CCE7874204EB0A03BC
:107A50000CD1A27AAA420ED99A78164214BF0127F5
:107A6000002767B9082D00D8E572A9469A7822EA5E
:107A700006029A7009E00CBF01270027F1E704EB2A
:107A80000A020127937833439370394620467600E3
:107A9000FFF7F5FE16F0FF0604BF0AF1010A5FFAD0
:107AA0008AFA05F1010508BF0126BAF1070FEDB208
:107AB000B2D9BCE730B50246014400208A4213D057
:107AC00012F8015B082480EA050313F0010F4FEA66
:107AD00050001CBF80F08C03D8B2631E13F0FF046B
:107AE0004FEA5505EFD1E9E730BD012A034602D13F
:107AF000016000207047022A04BFD1E90001C3E9F8
:107B00000001F6E710B442680346541001EB62002E
:107B1000D20748BF0A591B685DF8044B48BFD358C9
:107B2000184700000123F7B580F8293006460830D1
:107B300000F0E0FA0420FCF7AEFA054698B31B49C2
:107B4000142002F094FC30B10023C0E90033C0E9F6
:107B50000233037443742860A0B1154B1549C0E982
:107B600002364FF40063CDE900030222124B0430C9
:107B700000F0A8FA30B92B681B7CA3B9012000F0F3
:107B800009FBF8E72C6800232B6064B1276837B144
:107B90003846FEF79BFC1021384602F066FC1421A3
:107BA000204602F062FC756003B0F0BD98BB0D008A
:107BB000C37D0D00A0B80D008F670D0047F2305156
:107BC000084AC160084902600022C0E9041207495E
:107BD000C16107494260C0E908228161028580F8DD
:107BE0002A20704764B90D002D7F0D00057B0D0024
:107BF000EB7A0D0010B5044B044640F8103BFEF73D
:107C000065FC204610BD00BF64B90D0010B5034BE4
:107C100003600446FFF7EEFF204610BD8CB90D004F
:107C200010B50446FFF7F2FF2046382102F01DFC94
:107C3000204610BD806800F06DBA806800F072BA0E
:107C400010B504460068FFF7F8FF204610BD13B5D5
:107C500004460190FFF7EEFFE36ADC88A4B20CB1A2
:107C600003F1080401A8FFF7EBFF204602B010BDA6
:107C700013B504460190FFF7DDFF94F8283043B9AF
:107C8000E26A0124D38001A8FFF7DAFF204602B0A0
:107C900010BD0024F7E713B504460190FFF7CAFFB3
:107CA000E36A01A8DC88FFF7CBFF204602B010BDD5
:107CB0002DE9F047994686B090F829309DF838A014
:107CC0009DF83C8004460F46164613B903689B682E
:107CD0009847314B3846002E08BF1E4603F011F975
:107CE0000546304603F00DF9284400F10A05AB07BC
:107CF0001CBF25F0030504353346CDE90285CDE9E7
:107D0000009A264926483A46FCF79DFA238E083BFE
:107D1000AB4212D20024204606B0BDE8F087CB88E3
:107D2000012B36D005A8FFF78BFF236894F82810A5
:107D30009B69204698470028ECD020460594FFF721
:107D400079FFE16A228E636B0A44D21AAA42E6D313
:107D500048EA0A0883F80480C3F80090636B03F1D3
:107D600008083946404603F0A7F8404603F0C9F832
:107D700001303146404403F09FF8636BE26A1D44D2
:107D80006563D3880133D380012405A8FFF758FF2A
:107D9000C1E70024F9E700BF78B20D00B2B80D00CA
:107DA000E0E5032008B5044600F11005A3690BB90E
:107DB00002F061FBE36921462846984700F08AF902
:107DC000F4E708B5FFF7EEFF68B501F108050646D0
:107DD000284603F096F801300544284603F091F850
:107DE000F36A01302844C31A13F003031CBFC3F124
:107DF0000403C01868BDF7B504460E460190FFF7AE
:107E000019FFE76AFB8807F10805E6B1012B22D9C3
:107E100029462046FFF7D8FF054629462046FFF7AA
:107E2000D3FF228E3A44121A0146A0EB050602D077
:107E3000284602F0F1FF636B9B1B6363FB88013BE9
:107E4000FB80012601E0002BE7D101A8FFF7F8FE37
:107E5000304603B0F0BD0026F7E700002DE9F047FB
:107E60000D4604462F461646FFF7A8FE154B57F859
:107E7000082B2360144BE5629A422686984617D158
:107E8000AB889BB2B34213D105EB060A67634FF090
:107E90000009EB881FFA89F29BB29A420ED2616BFD
:107EA0002046FFF791FF5045606309F10109F0D9C1
:107EB0000023C5F800806763AE80EB802046BDE8F4
:107EC000F08700BF8CB90D0061AB9CD110B5D1E932
:107ED000002386B00021044604910AB9D90705D5CC
:107EE000CDE902230F4B05930F4B049302AB93E8AC
:107EF00003006A4682E8030094E8030083E8030075
:107F000092E80300049A84E80300A168A260059A3D
:107F100004911846E168E2600591FEF7D7FA204621
:107F200006B010BD057B0D00EB7A0D0007B5054BC3
:107F300000936946002310300193FFF7C7FF03B099
:107F40005DF804FB757F0D0013B5044600F032F9AF
:107F5000636AC01AE368984208D3054B00936946E8
:107F6000002304F110000193FFF7B0FF02B010BD31
:107F7000757F0D002DE9F04190F82A3086B0044657
:107F8000002B64D100F07AFB002860D000F012F9D9
:107F9000636AC01A40F2F133984258D923682046E8
:107FA0005B6998470546002851D000F10807012376
:107FB00084F82830384602F0A4FF95F80480CDF804
:107FC000048001302B682B4900933E1833462A4821
:107FD0003A46FCF738F92B688DF80080324639466E
:107FE00002A800F027FF029D6B781BB9012000F06A
:107FF0004DFCF8E7002000F0CFFA20B16B7813B900
:1080000000F02CFBFAE72B78012B23D11B491A48EF
:10801000FCF719F9236800219B6920469847002343
:1080200084F8283000F0C6F86062039C7CB1636875
:10803000013B63605BB9236820469B689847A3684F
:10804000013BA3601BB923682046DB68984706B054
:10805000BDE8F081E2680A490748FCF7F4F8094BEB
:10806000049304A9002304F110000593FFF72EFFE9
:10807000D5E700BFF3B80D00E0E5032014B90D000B
:108080002BB90D00497F0D00014B024A1A60704761
:10809000E0E5032052B90D00014B01221A70704730
:1080A000E4E5032008B5024B1B685B6C019308BD37
:1080B0007402030008B5024B1B689B6C019308BD5A
:1080C0007402030008B5024B1B685B68019308BD8E
:1080D0004802030008B5024B1B68DB68019308BD2A
:1080E0004802030008B5024B1B68DB69019308BD19
:1080F0004802030008B5024B1B681B6B019308BDC7
:108100004802030008B5024B1B685B6B019308BD76
:108110004802030008B5024B1B689B6B019308BD26
:108120004802030008B5024B1B681B6C019308BD95
:108130004802030008B5024B1B685B6C019308BD45
:108140004802030008B5024B1B689B6C019308BDF5
:108150004802030008B5024B1B68DB6E019308BDA3
:108160004802030008B5024B1B685B6E019308BD13
:108170003402030008B5024B1B68DB6E019308BD97
:108180003402030008B5024B1B685B68019308BD0D
:108190001802030008B5024B1B689B68019308BDD9
:1081A0001802030008B5024B1B68DB68019308BD89
:1081B0001802030008B5024B1B685B69019308BDF8
:1081C0001802030008B5024B1B689B6B019308BDA6
:1081D0001802030008B5024B1B68DB6B019308BD56
:1081E0001802030008B5024B1B689B6D019308BD84
:1081F0001802030008B5024B1B68DB6D019308BD34
:108200001802030008B5024B1B685B6E019308BDA2
:108210001802030008B5024B1B689B6E019308BD52
:108220001802030008B5024B1B681B68019308BDC8
:108230002C02030008B5024B1B689B68019308BD24
:108240002C02030008B5024B1B68DB68019308BDD4
:108250002C02030008B5024B1B681B69019308BD83
:108260002C02030008B5024B1B685B69019308BD33
:108270002C02030008B5024B1B681B6A019308BD62
:108280002C02030008B5024B1B685B6A019308BD12
:108290002C02030008B5024B1B68DB68019308BD84
:1082A0002802030008B5024B1B689B69019308BDB7
:1082B0002802030008B5024B1B68DB69019308BD67
:1082C0002802030008B5024B1B681B6A019308BD16
:1082D0002802030008B5024B1B685B6A019308BDC6
:1082E0002802030008B5024B1B689B6A019308BD76
:1082F0002802030008B5024B1B68DB6A019308BD26
:108300002802030008B5024B1B681B6B019308BDD4
:108310002802030008B5024B1B685B6B019308BD84
:108320002802030008B5024B1B681B6C019308BDB3
:108330002802030008B5024B1B689B6C019308BD23
:108340002802030008B5024B1B68DB6C019308BDD3
:108350002802030008B5024B1B681B6D019308BD82
:108360002802030008B5024B1B685B69019308BD36
:108370006402030008B5024B1B689B68019308BDAB
:108380006802030008B5024B1B68DB68019308BD57
:108390006802030008B5024B1B681B68019308BD07
:1083A0003002030008B5024B1B685B69019308BDEE
:1083B0003002030008B5024B1B68DB69019308BD5E
:1083C0003002030008B5024B1B681B6A019308BD0D
:1083D0003002030008B5024B1B685B6A019308BDBD
:1083E0003002030008B5024B1B68DB6B019308BD2C
:1083F0003002030008B5024B1B681B6C019308BDDB
:108400003002030008B5024B1B685B6C019308BD8A
:108410003002030008B5024B1B681B68019308BDBE
:108420003C02030008B5024B1B68DB68019308BDE2
:108430003C02030008B5024B1B681B69019308BD91
:108440003C02030008B5024B1B685B69019308BD41
:108450003C02030008B5024B1B689B69019308BDF1
:108460003C02030008B5024B1B68DB69019308BDA1
:108470003C02030008B5024B1B681B6A019308BD50
:108480003C02030008B5024B1B689B6A019308BDC0
:108490003C02030008B5024B1B681B68019308BD32
:1084A0004C02030008B5024B1B681B69019308BD11
:1084B0004C02030008B5024B1B685B69019308BDC1
:1084C0004C02030008B5024B1B689B69019308BD71
:1084D0004C02030008B5024B1B68DB69019308BD21
:1084E0004C02030008B5024B1B681B6A019308BDD0
:1084F0004C02030008B5024B1B685B6B019308BD7F
:108500006002030008B5024B1B681B6D019308BD98
:108510006002030008B5024B1B685B6D019308BD48
:108520006002030008B5034B1B68D3F89830019331
:1085300008BD00006002030008B5024B1B681B6801
:10854000019308BD2002030008B5024B1B685B685D
:10855000019308BD2002030008B5024B1B685B694C
:10856000019308BD2002030008B5024B1B689B69FC
:10857000019308BD2002030008B5024B1B681B6A6B
:10858000019308BD2002030008B5024B1B68DB6A9B
:10859000019308BD2002030008B5024B1B68DB6C89
:1085A000019308BD2002030008B5024B1B685B6DF8
:1085B000019308BD2002030008B5024B1B689B6DA8
:1085C000019308BD2002030008B5024B1B68DB6D58
:1085D000019308BD2002030008B5034B1B68D3F8C4
:1085E0008830019308BD00002002030008B5034B4A
:1085F0001B68D3F89430019308BD000020020300EB
:1086000008B5034B1B68D3F8A830019308BD0000E0
:108610002002030008B5034B1B68D3F8AC3001936C
:1086200008BD00002002030008B5034B1B68D3F807
:10863000B030019308BD00002002030008B5024BD2
:108640001B681B68019308BD4402030008B5024B78
:108650001B685B68019308BD4402030008B5024B28
:108660001B689B68019308BD4402030008B5024BD8
:108670001B68DB68019308BD4402030008B5024B88
:108680001B685B69019308BD4402030008B5024BF7
:108690001B68DB69019308BD4402030008B5024B67
:1086A0001B681B6A019308BD4402030008B5024B16
:1086B0001B685B6A019308BD4402030008B5024BC6
:1086C0001B68DB6A019308BD4402030008B5024B36
:1086D0001B681B6B019308BD4402030008B5024BE5
:1086E0001B685B6B019308BD4402030008B5024B95
:1086F0001B689B6B019308BD4402030008B5024B45
:108700001B68DB6B019308BD4402030008B5024BF4
:108710001B685B6C019308BD4402030008B5024B63
:108720001B685B68019308BD4002030008B5024B5B
:108730001B689B68019308BD4002030008B5024B0B
:108740001B68DB68019308BD4002030008B5024BBB
:108750001B681B69019308BD4002030008B5024B6A
:108760001B685B69019308BD4002030008B5024B1A
:108770001B689B69019308BD4002030008B5024BCA
:108780001B68DB69019308BD4002030008B5024B7A
:108790001B681B6A019308BD4002030008B5024B29
:1087A0001B681B6B019308BD4002030008B5024B18
:1087B0001B685B6B019308BD4002030008B5024BC8
:1087C0001B681B68019308BD1C02030008B5024B1F
:1087D0001B685B68019308BD1C02030008B5024BCF
:1087E0001B689B68019308BD1C02030008B5024B7F
:1087F0001B681B69019308BD1C02030008B5024BEE
:108800001B68DB69019308BD1C02030008B5024B1D
:108810001B685B6A019308BD1C02030008B5024B8C
:108820001B68DB6A019308BD1C02030008B5024BFC
:108830001B681B6B019308BD1C02030008B5024BAB
:108840001B685B6C019308BD1C02030008B5024B5A
:108850001B689B6C019308BD1C02030008B5024B0A
:108860001B68DB6C019308BD1C02030008B5024BBA
:108870001B681B6D019308BD1C02030008B5024B69
:108880001B685B6D019308BD1C0203000021FFF70C
:1088900063BE10B5836804460BB901F0ECFDC368F4
:1088A0009847A3681BB103222146204698472046DB
:1088B0001021BDE8104001F0D8BD10B50446006895
:1088C00008B1FFF73FFC204610BD0B68036013B1F1
:1088D0005A6801325A60704710B5064C0023204692
:1088E0002360FFF727FC2046034A0449BDE81040F7
:1088F00001F0B6BDE8E5032000E20320BB880D00CF
:10890000002240681146FFF721BF0022406811464F
:10891000FFF73CBF002240681146FFF747BF4068A1
:108920000022FFF73BBF4068002281F00101FFF702
:1089300025BF002340681A461946FFF717BF0023DA
:1089400040681A461946FFF709BF002240681146E1
:10895000FFF7ECBE406800220221FFF7EFBE0023C4
:1089600040681A46FFF7DABEF0B51B4B03600025DE
:108970000F4628331826C0E9025589B043603246B5
:1089800029460446103002F061FA78682A462946E2
:10899000FFF7DCFE18B9A060204609B0F0BD2946FB
:1089A000324602A8CDE9005502F050FA02A9684605
:1089B000ADF80860FFF776FB10B10123A360EBE789
:1089C000009B019AA360E2600BB90223A36002A995
:1089D000204600F0AEF8DFE7E8B90D00084B10B50F
:1089E000282422461846002102F030FA054B048064
:1089F0004FF0FF32426004225A60034A1A6010BDF1
:108A0000F4E50320ECE50320B4B90D007047007DC8
:108A1000704710B52821044601F027FD204610BDFF
:108A2000037D7BB1C369002B0CDB07EE903A9FED11
:108A3000077AF8EEE77A87EE870ADFED057A20EE0F
:108A4000270A7047BFEE000A704700BF00FF7F474C
:108A50000000C842037D63B18369B3F1004F08D0C1
:108A600007EE903A9FED047AF8EEE77A87EE870AF0
:108A700070479FED020A70470000C84200000000E6
:108A8000037D7BB1436A002B0CDB07EE903A9FED30
:108A9000077AF8EEE77A87EE870ADFED057A20EEAF
:108AA000270A7047BFEE000A704700BF00FF7F47EC
:108AB0000000C842037D63B1036AB3F1004F08D0E0
:108AC00007EE903A9FED047AF8EEE77A87EE870A90
:108AD00070479FED020A70470000C8420000000086
:108AE00070B50C1E06460ADA2D2100F033FD6142F6
:108AF00005460A22304600F03CFD284470BD214660
:108B00000025F6E770B50C46054681682046FFF75C
:108B1000E7FF2C210646204600F01CFDE9680644CC
:108B20002046FFF7DDFF304470BDA0F10400FFF7E1
:108B3000E9BF30B50D4600F110040FCD0FC495E824
:108B4000030084E80300012030BD70470020704717
:108B500010B51021044601F088FC204610BD08B570
:108B6000FFF7F6FF08BD30B500224FF69C74026097
:108B700084808D888C800C68858004600A6030BD9C
:108B800010B504460068FFF721FE204610BD38B539
:108B9000C468F4B12378022B03D104F10C00FFF771
:108BA000EFFF656835B12846FDF790FC1021284697
:108BB00001F05BFCA56835B12846FDF787FC102164
:108BC000284601F052FC20461421BDE8384001F04F
:108BD0004CBC38BD10B588B00446684600F027FE8E
:108BE000694604A800F046FE04A8A047044604A86D
:108BF00000F0D2FD684600F0CFFD204608B010BD61
:108C00001FB50023CDE90201019210241A466946DE
:108C10001846ADF80230ADF80040FFF717FD04B07C
:108C200010BD07B50823ADF8003003688DF8023099
:108C3000037A8DF803300021436801936846FFF7FB
:108C400065FD03B05DF804FB07B50823ADF80030FF
:108C500003688DF80230037A8DF80330436801937E
:108C600000236A4619460220FFF740FD03B05DF875
:108C700004FB73B50E46044656F8043B00930D46BC
:108C800001A83146FFF721FE019A009B6260236034
:108C900001A8002301930093FEF7B7F93046FEF7D1
:108CA000B4F92846082101F0E0FB204602B070BD6F
:108CB000826810B50AB901F0DEFBBDE81040C36858
:108CC000184708B5006800F11001FFF7F1FF08BD73
:108CD000826810B50AB901F0CEFBBDE81040C36848
:108CE000184708B5006800F11001FFF7F1FF08BD53
:108CF00038B500230446036010200D46FBF7CBF97E
:108D000028B10123C0E90133024B0360C560206034
:108D1000204638BD1CBA0D0038B5002383608B682F
:108D200004460D462BB102229847EB68E360AB681E
:108D3000A360204638BD0000F0B589B004686846DD
:108D4000FFF711FF4FF00203D4E84F2F002A03D1A1
:108D5000C4E8413F0029F7D125D104F10C0569464B
:108D60002846FFF700FFBFF35B8F012363700020ED
:108D700004F10803BFF35B8F53E8006F43E8000280
:108D8000002AF9D1BFF35B8F6EB1FFF705FC78B114
:108D900029463046FFF78CFF3046FDF797FB102140
:108DA000304601F062FB6846FFF7EAFE09B0F0BD0D
:108DB000314602A8FFF7B0FFE068B4F9105008B1DF
:108DC00002F082F806901020ADF81C50FBF763F912
:108DD0000546E8B1002787601820FBF75CF90446D8
:108DE00088B10146876002A8FEF725F9049BA268B6
:108DF000A360059B049206A9E268E36004F11000F9
:108E00000592FFF7B0FE084BEB60084B2C60AB609F
:108E100006A8FFF7B5FE02A8FDF758FB0022294679
:108E20000348FFF7C1FBB7E7C38C0D00598F0D0056
:108E300093880D002DE9F0478AB005469DF84890CB
:108E40000C4617469846FFF719FC07AE824638BB1A
:108E50004FF62E73059005A93046ADF81830FFF790
:108E600082FE1420FBF717F9044648B10223037071
:108E70000123C0E901AA437031460C30FFF773FEAD
:108E80002846214640F8044BFFF732FF3046FFF7F3
:108E900077FE05A8FFF774FE28460AB0BDE8F08704
:108EA0000C234FF0000A1420CDE908AA0793FBF722
:108EB000F2F8014628B1C0E901AA80F800A080F8C4
:108EC00001A004A80391FFF713FF224B0893082089
:108ED000FBF7E1F8824628B1039B40F8043B04A964
:108EE000FFF7F3FC00965FFA89F3424639462046C5
:108EF000CDF824A0FFF7D2FBB8B9039B5B7803F051
:108F0000FF0293B94FF69C7305A903A80592ADF82B
:108F10001830FFF711FF05A8FFF732FE05A80999E1
:108F2000FFF7A7FE06A8FEF770F8039B059304A9B8
:108F300006A8FFF7CAFC059B069A2B606A6000230F
:108F400006A806930593FEF760F804A8FEF75DF8FF
:108F5000A2E700BF1D900D00022AF8B5054607D014
:108F6000032A18D0012A01D10B6803600020F8BD44
:108F700018200E68FBF78FF8044650B13146FFF712
:108F8000CBFE3069B6F9147008B101F09DFF206185
:108F9000A7822C60EAE70468002CE7D004F11000F7
:108FA000FFF7EEFD2046FDF791FA1821204601F06B
:108FB0005CFADBE738B5002383608B6804460D4616
:108FC0002BB102229847EB68E360AB68A3602046B0
:108FD00038BD022A70B5044607D0032A12D0012AF0
:108FE00001D10B680360002070BD14200E68FBF7F0
:108FF00052F8054620B13146FFF7DCFF337C2B7475
:109000002560F0E70468002CEDD02046FDF75EFAFD
:109010001421204601F029FAE5E70000F0B589B0F7
:1090200004460D4601A81146FFF723FEA4B124B261
:109030001DB1284601F048FF054601A803A9039584
:10904000ADF81040FFF778FE03A8FFF799FD02A8DE
:10905000FDF7DBFF09B0F0BD019D0123D5E84F2FDF
:10906000002A03D1C5E8413F0029F7D1EFD12B7386
:10907000BFF35B8F6B702B1DBFF35B8F53E8006FEB
:1090800043E80042002AF9D1BFF35B8F002EDED007
:109090002046FFF781FA074660B105F10C01304622
:1090A000FFF716FE3046FDF711FA1021304601F0A9
:1090B000DCF9CCE7314603A8FFF77CFF2B7B8DF86A
:1090C0001C301020FAF7E7FF0546D0B18760142066
:1090D000FAF7E1FF044678B18760014603A8FDF77F
:1090E000AAFF059BA268A360069B0592E268E36065
:1090F0009DF81C3006922374064BEB60064B2C60E7
:10910000AB6003A8FDF7E2F9002229460348FFF708
:109110004BFAC7E7E38C0D00D38F0D0093880D0049
:10912000002240681146FFF731BB0022406811461B
:10913000FFF73CBB40680022FFF730BB40680022CD
:1091400081F00101FFF71ABB002340681A46194657
:10915000FFF70CBB002340681A461946FFF7FEBA1A
:10916000002240681146FFF7F1BA0022406811461C
:10917000FFF7DCBA406800220221FFF7DFBA0023C4
:1091800040681A46FFF7CABA024B03225A60024AE5
:109190001A6070471CE6032038BA0D007047F8B516
:1091A000064615460C468F18BC4206D0336814F8A4
:1091B000011B9B6830469847F6E72846F8BD007CBF
:1091C0000022FFF77FB8007C0021FFF783B8007C06
:1091D0000021FFF787B8007C0021FFF78BB8007CE7
:1091E0000021FFF78FB810B51421044601F03DF9B6
:1091F000204610BD10B54FF47A730446084600218E
:10920000C4E90113034B236020741146FFF78AF869
:10921000204610BD6CBA0D000023007C1A4619468A
:10922000FFF738B87FB500221423CDE90122ADF84D
:1092300004300B788DF808304B680393CB680493A7
:10924000007C0B7A059301A9FFF784F807B05DF85D
:1092500004FB1FB5003B8DF800104FF06401039133
:1092600018BF0123694601928DF80830FFF7DAFF35
:1092700005B05DF804FB007C0022FFF713B8C9B20B
:10928000FFF7F9BF007C0022FFF714B808B50021F2
:10929000007CFFF74FF8B0FA80F0400908BD08B530
:1092A0000021007CFFF74EF8B0FA80F0400908BDBD
:1092B000FEF7E8BFFEF7DEBF704710B51821044681
:1092C00001F0D3F8204610BDF0B5037D062B8DB01C
:1092D0000E4600F104074FF0000412D000F108051B
:1092E00015F8011D0A22304600F043F9AF4204444C
:1092F00019D0002CF4D02E21304600F02BF9044474
:10930000EEE72F236A4639460A208DF80040FFF722
:1093100029F8684601F0F5FD33680246DB686946C6
:1093200030469847044620460DB0F0BD10B5054BB9
:109330000446112240F8043B002101F087FD20463D
:1093400010BD00BF94BA0D000346074A10B543F89C
:10935000042B01F1100251F8044B43F8044B9142E5
:10936000F9D10A781A7010BD94BA0D0010B59DF8A5
:10937000084044EA032343EA024242EA016104232B
:109380004160037510BD13B5CB7800938B784A7894
:109390000978FFF7EBFF02B010BD0000014B024A55
:1093A0001A60704724E60320A0BA0D00002340682D
:1093B0001A46FFF7B3B9406800220221FFF7BEB991
:1093C000002240681146FFF7B1B9002240681146FB
:1093D000FFF7BCB9002340681A461946FFF7BEB92B
:1093E000002340681A461946FFF7C0B940680022BA
:1093F00081F00101FFF7C2B940680022FFF7CEB942
:10940000002240681146FFF7D1B90022406811469A
:10941000FFF7BCB92DE9F043002495B016460D4680
:109420000746FFF783FF214618220EA8009401F09B
:109430000DFD4023CDE90C3421466B460CAA304685
:10944000FEF7A0FF0446002846D1024601216868C5
:10945000FFF77CF90221804622466868FFF776F91B
:10946000009E81462146002E36D0002934D17368F3
:10947000022B03D00A2B0BD0F669F4E7B8F1000FEA
:1094800004D0716938460431FFF77DFF4146F3E7A8
:10949000B9F1000F01D14946EEE77469102201A825
:1094A00001F0D4FC06238DF8143001AD04F108035B
:1094B0001834186859682A4603C20833A34215466F
:1094C000F7D101A906A807ADFFF73EFF0FCD3C1D60
:1094D0000FC42B682370DEE70098FEF74BFF384679
:1094E00015B0BDE8F0830000024B034A1A60002269
:1094F0005A60704728E60320ACBA0D00F8B506465E
:109500000D468F180024BD420CD0336815F8011B9E
:109510009B6830469847031E01DB1C44F3E7002C90
:1095200008BF1C462046F8BD13B50446084659B18D
:10953000019101F0E6FC23680199DB6802462046B0
:1095400002B0BDE81040184702B010BD08B5FFF7E3
:10955000EBFF08BD03689B68184738B50D21054629
:10956000FFF7F8FF0A2104462846FFF7F3FF2044DF
:1095700038BD30B58BB000238DF82430012A98BF58
:109580000A2209AC0D46B1FBF2F101FB125303F0C4
:10959000FF03092B94BF30333733DBB2AA4204F800
:1095A000013DEFD92146FFF7BFFF0BB030BD2DE9DC
:1095B000F04186B000AF05460E46381D1421144612
:1095C0003B60FFF723F913280ED8391D2846FFF713
:1095D000ABFF04461EB12846FFF7BFFF04442046F8
:1095E0001837BD46BDE8F08100F1080323F00703FA
:1095F000E846ADEB030D2246411C3B686846FFF789
:1096000005F969462846FFF78FFF0446C546E1E79E
:1096100010B50446FCF75AFF204610BD0348044A23
:1096200004490023836000F01BBF00BF30E6032025
:1096300000E2032011960D000021FEF7DBBE0021A1
:10964000FEF7E0BE10B5044608462170FEF7B2FEF4
:1096500000236360204610BD13B5044600780191D5
:10966000FFF7EAFF019940B92078FEF793FE2078D2
:1096700002B0BDE81040FFF7E2BF02B010BD0078B5
:10968000FFF7DDBF400830B5186000241868884235
:10969000E5B206D90134082C02D040081860F5E77D
:1096A0000725024B5B5D137030BD00BFD8BA0D00BB
:1096B0002DE9F04306468FB000780D46FFF7BCFF5A
:1096C00000281BDB34781422002109A801F0BEFB1E
:1096D0000B23002209A92046ADF82430FEF77AFEBC
:1096E0009DF82D3013B19DF82C4054B10027B94698
:1096F000B84601242B795CB1C3B100200FB0BDE89E
:10970000F083DDF830809DF834909DF83570F1E7F6
:10971000002B35D1AB68434508D18DF820908DF8EA
:109720002170BDF82020AB899A42E6D00023A968B9
:109730008DF80F300A9804AB0DF10F02FFF7A2FF6E
:10974000297984B989B9AB6843450ED38DF8209047
:109750008DF82170BDF82020AB899A4205D1049B79
:10976000434502D1C9E70029F9D1002301936B7B5E
:1097700000939DF80F202B7B3078FEF733FEBCE77B
:10978000CDE90044234622460121F5E708B50078DB
:10979000FEF708FEC0B208BD10B504460068FFF72A
:1097A00015F8204610BD10B50446006808B1FFF753
:1097B0000DF80023C4E90133236010BD38B5044619
:1097C0000D4600680131FFF709F810B1C4E9000542
:1097D000012038BD10B50368044623B143688B42AD
:1097E00001D3012010BD2046FFF7E8FF0028F9D083
:1097F000A368002BF5D122681370F2E737B50D4648
:10980000114601920446FFF7E5FF019A28B9204668
:10981000FFF7C9FF204603B030BDA260294620688B
:1098200001F0ECFA2268A3680021D154F2E700238A
:1098300013B5C0E9003304468360037341B10846A1
:10984000019101F05EFB019902462046FFF7D6FF29
:10985000204602B010BD884210B5044605D00B6802
:109860002BB18A681946FFF7C9FF204610BDFFF7E4
:109870009AFFFAE710B500230446C0E9003383607D
:109880000373FFF7E8FF204610BD08B582683AB9B8
:1098900021B10878B0FA80F0400900E0012008BD4D
:1098A000006809B90078F5E701F0FCFAF2E758B56D
:1098B0000E462AB121B184689C4202D800230B7065
:1098C00058BDE41A013A0168944228BF144619446D
:1098D0002246304601F01DFB00233355F0E700001F
:1098E0000EB470B587B00BAD044655F8042B019249
:1098F0002B46052104A80395FEF788FF0B49064671
:109900002046FFF794FF31462046FFF763FF2068AB
:1099100030B1019A03952B46711CFEF777FFA060CA
:10992000204607B0BDE8704003B0704778B20D0024
:1099300010B50446006818B1FEF748FF0023236005
:1099400010BD38B5B1F9043083800B460D4653F88D
:10995000062FC0F806209B8843810446FFF7E8FFE6
:109960002B6813B1236000232B60204638BDB1F96A
:1099700004300A6810B533B932B951F8063F0360B4
:109980008B88838010BD22B19488012C03D0042CD5
:1099900006D0042205E092894A818C710B81ECE7A4
:1099A00002220B814FF6FF738A714B81E5E70000BD
:1099B00038B50C460546FFF7BBFF44B12088FEF7DB
:1099C000FDFE286028B12288214601F017FA002008
:1099D00038BD0148FCE700BFFCFEFFFF07B50B46A2
:1099E00000210246009101208C21FEF71DFE03B0EC
:1099F0005DF804FB01460020FFF7F0BF0020FFF7F1
:109A0000F9BF0000F0B52D4D0B7D04468BB0084624
:109A1000AF1D002B38D00B681B79002B34D00022EF
:109A2000274B049302A904300292ADF80C208DF864
:109A30000E20FEF7EFFDDDF80E30C5F8063000B25F
:109A4000BDF81230ADF80C00A8800299BB80284602
:109A5000FFF7AEFF02A8FFF76BFF00232360A38090
:109A6000A37123814FF6FF736381B5F90430A3809E
:109A70003B68C4F80630BB88296863812046FFF73D
:109A800097FF20460BB0F0BD00262023CDE902361B
:109A90000C4B00930C49334602AA3220FEF732FDEC
:109AA000074B049302A94FF6F263044802968DF81F
:109AB0000E60ADF80C30FFF744FFCBE740E6032023
:109AC0000000FFFFE7BA0D00E0BA0D0030B5044614
:109AD00085B0084611461A460023FEF745FD0D4D98
