:02000002D0002C
:1040000000400D0034C60D00000006000D00050143
:084010000401DB0700000000C1
:04401800F8AF0D00F0
:1040200009480A49884208B505D0094A824202D0A7
:10403000121A06F0BFFE0748074A0021121A06F0BE
:10404000E1FE014808BD00BFD8E00320ECC40D002C
:10405000F4E10320F8E10320F4E7032070B5074EF4
:10406000074C06F0D3F8A41BA4080025A54200D1F4
:1040700070BD56F8043B98470135F7E79CBC0D002E
:10408000D0BC0D0001F0B4B908B500F0A9FFBDE83F
:10409000084006F07DB804F06DBB04F06BBB04F083
:1040A00071BB000008B5034A00210C2004F0FEF9A2
:1040B000FEE700BF5D810D000078B0FA80F0400996
:1040C0007047012303707047014B1A60704700BFAF
:1040D000ECE0032038B50446006928B185680C215E
:1040E00006F09FF92846F8E7204638BD08B5044990
:1040F00005F0A7FB18B1034803F060F9012008BDE3
:1041000050B00D000CE3032008B5044905F099FBFD
:1041100018B1034B03221A70012008BD50B00D00E6
:1041200070E3032010B5034B0360044603F04AFD1F
:10413000204610BD2CB40D0010B50446FFF7F2FF69
:104140002046382106F06DF9204610BD10B5034B0E
:104150000360044603F012F9204610BD10B40D00B0
:1041600010B50446FFF7F2FF2046102106F059F97A
:10417000204610BD08B504F05DFA20B1BDE8084046
:10418000002004F077BA08BD08B5002004F07AFAE0
:1041900028B104F04FFA80F00100C0B208BD012040
:1041A000FCE70023042204F025BA10B500210446E0
:1041B000084603F073FFD4F8A0400021012003F06B
:1041C0006DFFE0B210BD10B50446006808B104F000
:1041D000D9FA204610BD30B500218FB004460846FC
:1041E00003F05CFF0FCC6D460FC50FCC0FC50FCC95
:1041F0000FC594E8030085E803000021012003F0C7
:104200004DFF684602F0C4FC51EC100B06F000FDB7
:1042100000EE100A0FB030BD30B500218FB004465B
:10422000084603F03BFF0FCC6D460FC50FCC0FC502
:104230000FCC0FC594E8030085E80300002101209E
:1042400003F02CFF684602F07FFC51EC100B06F0E7
:10425000DFFC00EE100A0FB030BD0000F8B5037DA2
:1042600005460F4616468BB10368DB6883B19A8812
:10427000012A06D09B68F9E79B684BB19A88012A0E
:10428000FAD12BB19A89BA42F6D19E732846F8BD6D
:104290000A49102006F0C7F8044668B11022002130
:1042A00006F0B0FD064B23600123A3802B69A360B9
:1042B000A781A6732C61E9E72875E7E740BB0D00ED
:1042C00010000300002003F071BF0EB410B58DB0D4
:1042D0000FAA016852F8044B039200232020CDE975
:1042E0000403CDE900421E2004AA04F0EFF80DB04B
:1042F000BDE8104003B0704737B504689DF818500A
:104300008DF800308DF80450E4683C23A04703B0DA
:1043100030BD000010B50B7892B00C467BB919493E
:1043200002A806F0A5FD00238DF80030164B1749B2
:104330001B78174802AAFFF7DFFF12B010BD08462E
:1043400006F010FDC8280ED1124902A806F090FD13
:1043500005F09DFD104BD861104B01221A70104BD7
:1043600000221A70DFE7204606F0FCFCC928EBD0DB
:10437000204606F0F7FC0B4A0346402102A804F051
:1043800019FAD0E790B00D0058E20320C7B00D0035
:1043900030E3032098B00D0074E3032094E303207E
:1043A000EEE20320AAB00D0037B51949044605F026
:1043B00048FA0546B0B1174B01241C71164B1C700E
:1043C00004F038F910B9012003B030BD00238DF896
:1043D0000030124B124A1B7812491348FFF78CFF2A
:1043E0002046F1E71149204605F02BFA0028EBD0D2
:1043F000084B1D71084B01241C7004F01BF90028A8
:10440000E1D0064B8DF800501B78094AE4E700BF65
:1044100050B00D0074E3032094E3032058E203201E
:10442000D4B00D00F7B00D0030E30320E5B00D006F
:10443000E7B00D00000000002DE9F047C8B080464D
:10444000FFF798FEFFF73EFF4FF0000A814647F264
:104450002F560027FFF736FFB0EB090461EB0A0582
:10446000AF4208BFA64205D3FFF78EFE10B904F095
:10447000D1F8EFE7FFF788FED8F800000A2203A979
:1044800006F0B0FD00F10C03DBB2182B48D845B2A2
:1044900007EE905A264BB8EEE70A012483ED050A91
:1044A00005F08CFB234B1C7005F036FD064605F02D
:1044B000EEFC301A06F010F91BA3D3E9002306F036
:1044C0009FFA1D4ACDE900010A211C4804F072F947
:1044D00004F0B0F810B32B46194A1A4D4FF480710E
:1044E000002608A804F066F98DF8006016492B78BC
:1044F000164808AAFFF700FF05F0C9FC0246C317DB
:1045000004A805F0C1FB8DF800602B78049A0E49D1
:104510000E48FFF7F1FE04A805F01AF9204600E066
:10452000002048B0BDE8F087000000000020AC404B
:1045300074E3032094E30320FCB00D00E4E20320C5
:1045400006B10D0058E203201AB10D0030E303203C
:1045500030B5C5B00A22006803A906F043FDC3B216
:104560005A1E3B2A1FD8114A114D1248AB71012423
:1045700014700C21104A04F01DF9AB790F4A4FF466
:10458000807104A804F016F904F054F848B100232F
:104590008DF800300A4B0B491B780B4804AAFFF733
:1045A000ABFE204600E0002045B030BD94E3032080
:1045B00074E30320FCE0032036B10D001FB10D00B1
:1045C00058E2032056B30D0030E303202DE9F04FED
:1045D000234B244C9D68A2691B69D3B0D4E90067C2
:1045E000D4E90289D4E904AB1193109205F04FFC91
:1045F00094ED0A7B119B08938DED0E7B94ED087B67
:10460000194B109A0A908DED0C7BCDE90653099257
:10461000CDE904ABCDE90289CDE90067134A4FF437
:10462000807112A804F0C6F800238DF80030104BFA
:1046300010491B78104812AAFFF75EFE0F4B0122AB
:104640001A7003F093FD0E4B186005F031FC0D4B12
:10465000186005F039FC0C4B186053B0BDE8F08FC2
:1046600074E30320A8E203207CE2032041B10D00A3
:1046700058E20320D1B10D0030E30320EEE2032025
:10468000B4E50320DCE20320E0E2032000000000A8
:1046900037B50546002412480022294602F0FCFCEA
:1046A0000F488DED010A02F0D5FD9DED010A28B9F4
:1046B0000134042CEFD19FED080B0AE0032CFAD053
:1046C000074802F0ADFD10EE100A06F017F841ECB5
:1046D000100B03B030BD00BF000000000000F87FE9
:1046E000F0E2032030B5194D0FCD99B004AC0FC4E2
:1046F0000FCD0FC495E8030084E8030014490EA809
:1047000004F00EF90EA804F05EF904460EA804F0B9
:1047100063F90EA810EE105A04F08EF918AB10EEE3
:10472000100A03EB840405F0E9FFCDE902012846F5
:1047300005F0E4FFCDE90001064A54F8503C064874
:10474000402104F037F819B030BD00BF4CB40D0063
:10475000ECE50320ECB10D0008E2032010B52024A5
:1047600090B022460021684606F04CFB224600210C
:104770000DEB04008DF8054006F044FB00210DEB25
:1047800004008DF8254003F017FF41F27003ADF8E7
:104790000630084B029341F21003ADF80C30009B39
:1047A000002143F400736846009303F005FF10B046
:1047B00010BD00BF840384032DE9F84F1D48DFF8C6
:1047C00080A0406800231A46194603F0A3FF03F0B7
:1047D00029FF4FF496744FF0000B40F2E7384FF08A
:1047E0000009FFF76FFD0546FFF76CFD461B61EB07
:1047F0000B07B94508BFB04505D303F01BFF10B93F
:1048000003F008FFF0E703F015FF20B103F012FFFB
:1048100050B9BDE8F88F03F0A9FCCAF8000003F016
:10482000F9FE013CDDD1F1E7034A0123D370034ACD
:104830001370EEE7ECE5032074E3032094E3032018
:10484000D8E7032008B503F0F5FE80F00100C0B200
:1048500008BD00002DE9F04385B0002601A8CDE990
:1048600001668DF80C6004F0B8F9FFF72BFDB14636
:10487000804643F697260027FFF724FDB0EB080497
:1048800061EB0905AF4208BFA64205D3FFF7DAFF87
:1048900010B903F0BFFEEFE7FFF7D4FF0A4800238B
:1048A00019461A46406803F03DFF084B0022DA70B3
:1048B000074B01244FF4FA601C7003F0C3FF20463D
:1048C00005B0BDE8F08300BFECE5032074E30320EE
:1048D00094E3032030B5114D114C12492A78207809
:1048E0008DB00E2303FB0212009203FB00130E4A4D
:1048F000282102A803F05EFF2B78237003F09AFEB4
:1049000048B100238DF80030084B09491B7809484D
:1049100002AAFFF7F1FC0DB030BD00BF70E3032029
:104920002CE3032008E1032005B20D0058E2032028
:1049300013B20D0030E3032030B585B0002301A889
:10494000CDE901338DF80C3004F047F903F00EFC8B
:1049500043F69725044603F06DFE40B103F006FCD4
:10496000001BA84203D8642003F06CFFF3E700218A
:10497000094B47F23052084603F078FB4FF47A7047
:1049800003F060FF054B0A221B68012101A805F016
:1049900079F805B030BD00BF24B20D0054E2032009
:1049A0002DE9F347174B184D184A194919480024A7
:1049B0008DF800401B78FFF79FFC2C71FFF7DAFBA6
:1049C000FFF780FC47F22F5882464FF00009FFF7AF
:1049D00079FCB0EB0A0661EB0407B94508BFB045A6
:1049E00005D3FFF7D1FB10B903F014FEEFE7FFF793
:1049F000CBFB00232B61084B01221A7002B0BDE8EB
:104A0000F08700BF58E2032074E3032031B20D00A9
:104A100039B20D0030E3032094E3032038B505F0EC
:104A20005FFA054605F070FA044605F065FA231FA3
:104A3000062B0ED9E31E082B0DD801382D1A04D5EC
:104A40000B2C14BF0020012038BD072D03DD032CE3
:104A5000F7E70120F8E70020F6E70000000000007B
:104A600070B52DED028BC8B0054605F010FA0A228C
:104A7000044603A9286806F0B5FAC3B2022B59D838
:104A800043B208EE103AB8EEC88AB0EE480A05F014
:104A9000B5F82D4B83ED068A2C4B01221A7018EEC7
:104AA000100A05F02BFE2A4ACDE900014FF480716F
:104AB00008A803F07FFE05F0CDF928B1FFF7AEFF9F
:104AC000002834D005F0B8F805F026FA054605F0C0
:104AD000DEF9281A05F000FE19A3D3E9002305F03A
:104AE0008FFF1C4ACDE900010A211B4803F062FE3A
:104AF00003F0A0FDC8B1194D19491A4800268DF8D8
:104B000000602B7808AAFFF7F7FB2246E31704A8FA
:104B100005F0BAF88DF800602B78049A1049114816
:104B2000FFF7EAFB04A804F013FE012003E005F000
:104B30008FF8C9E7002048B0BDEC028B70BD00BF04
:104B4000000000000020AC4074E3032094E3032045
:104B500047B20D00FCB00D00E4E2032058E2032050
:104B60001AB10D0030E3032030B585B00D460022A8
:104B70006946009203F0B2FCB0B9009C0CB1236905
:104B800023B90A4A00210A2003F090FC0023ADF863
:104B900006300C23ADF804300423039302952369F7
:104BA00001AA01212046984705B030BD5D810D0066
:104BB00007B5072001A9FFF7D7FF0028A8BF019874
:104BC00003B05DF804FB0000F0B589B001A9032033
:104BD000FFF7CAFF002839D1BDF8043007EE903A3C
:104BE000FBEECC7A234D244E0FCD01AC0FC495E8DB
:104BF0000700FDEEE77A84E80700C6ED027AFFF7CA
:104C0000D7FF08AB03EB80001C4D50F81C3C1C4A3E
:104C10001C48102103F0CEFD2B7834462F461A4E47
:104C2000BBB9FFF7C5FF042813D101232B7003F094
:104C30009DFA3368C01A154B984219D8A368322BD5
:104C4000CCBF00230123637109B0F0BDFFEE007AF1
:104C5000C8E7FFF7ADFF022805D100233B7003F042
:104C600085FA3060E3E7FFF7A3FF0328DFD1F4E71D
:104C70000123E8E774B40D0074E3032059E2032034
:104C8000CAB50D007CE2032028E3032000BADB0054
:104C900038B5046805467CB16368013B63605BB965
:104CA000236820469B689847A368013BA3601BB913
:104CB00023682046DB689847284638BD2DE9F04335
:104CC0005E4CABB003F052FA2368C01A41F287334E
:104CD000984240F2B08003F049FA2060584C00211D
:104CE0006568084603F0DAF995F800806E6B554D5B
:104CF0000021012003F0D2F92746B8F1000F12D1AC
:104D00007868FFF752FA504A034680210AA803F058
:104D100051FD2B78002B6FD101232B7003F026FA65
:104D20004A4B186068E003F021FA42F20F73801BCF
:104D30009842E5D86068464EFFF76EFA10EE100A0A
:104D400005F0DCFCC6E908016068FFF744FA10EEE4
:104D5000100A05F0D3FCC6E90A016068FFF75CFAA7
:104D6000606810EE106AFFF736FA0021D4F804806C
:104D7000084610EE107A03F091F900210120D8F8CE
:104D8000809003F08BF96068FFF70FFA00218046EE
:104D9000084603F083F9D4F8B8400021012003F05D
:104DA0007DF94846CDE9068405F096FC294B0022A2
:104DB00005F026FE05F02CFF05F0A0FCCDE904016E
:104DC000384605F09BFCCDE90201304605F096FC23
:104DD000214ACDE9000180210AA803F0EBFC2B78E1
:104DE00053B100232B7003F0C1F9184B1B491A680B
:104DF000821A1B48FFF769FA19480AA9FFF765FAF2
:104E000003F018FCB8B1174C03F0B0F92368C01ACE
:104E1000154B98420FD903F0A9F9144B20601B7869
:104E20008DF8003008A812493C230AAA03F0DEFFDF
:104E300009A8FFF72DFF2BB0BDE8F08324E3032082
:104E400098E303201CE3032058B20D006CE3032019
:104E5000A8E203200000594072B20D00A3B20D0079
:104E600024E6032020E30320BFD4010058E20320FE
:104E7000C3B20D00F7B5FFF721FF244B002258689D
:104E8000114603F03FFC08B1FFF72CFC204D214FE9
:104E900000242E463819FFF7FBFB51EC100B05F0F0
:104EA000B7FE07EE900AF4EE677AF1EE10FA03D639
:104EB00005F024FCC5E900010834182C05F10805AB
:104EC000E8D1D6E900230C21CDE900231248134A8A
:104ED00003F070FCD6E902230C21CDE90023104831
:104EE0000E4A03F067FCD6E904230C21CDE9002328
:104EF0000C480A4A03F05EFCFFF766FE0A4A0123EB
:104F000013700A4A137003B0F0BD00BFECE5032034
:104F1000A8E2032000F40320D8E00320C7B20D006C
:104F200078E10320F0E0032094E30320D8E203209B
:104F300010B5244CFFF79EFFE378012B05D903F051
:104F400079FB00283BD00123E3702379D4ED057A67
:104F5000012B84BF00232371A3681D2BCCBF00232A
:104F6000012363712369BAEE087AFF2B88BF0023FF
:104F7000F4EEC77A88BF2361F1EE10FA06D4B2EEE0
:104F8000087AF4EEC77AF1EE10FA01DD0E4B636198
:104F9000D4ED067AF5EEC07AF1EE10FA06D4B0EE52
:104FA000007AF4EEC77AF1EE10FA02DD4FF07E538C
:104FB000A3610A23A371054B01221A7010BDE07092
:104FC000C3E700BF74E303200000A0C094E3032004
:104FD00038B503681446DD682023A847204638BD4D
:104FE00070B5904C2378013B86B0052B2ED8DFE8B6
:104FF00013F043010600CA004700CD00F1008A4DBE
:105000002B792BB1894B1B78022B01D0FFF762FC67
:105010006B790BB10423237004F056FFAB7990FB3E
:10502000F3F202FB130343B904F04EFF804B1B68FD
:10503000984202D00323237008E004F045FF28B90A
:1050400004F042FF7A4B1B689842F3D1794C7A48BE
:1050500001F094F9237833B1734A78480121FFF7BE
:10506000B7FF00232370764C23783BB13023754A79
:105070007248502102F025FA0023237006B070BD5B
:10508000694D2B792BB1694B1B78042B01D0FFF7AD
:1050900021FCFFF799FD6B790BB90223CBE704F0F4
:1050A000F6FEEB69C01AB0F5E15F10D9FFF784FB9B
:1050B000654B664A1B788DF8003003A864493C2391
:1050C00003F094FE04A8FFF7E3FD0523B3E704F023
:1050D000FBFE012803DDEB780BB1FFF7BBFB0021E2
:1050E000072005F02CF90021534800F04FFD04F093
:1050F000EBFE584B1A7D04460AB102221A7255483B
:1051000000220421FFF7AAF8037D05465BB33C2388
:10511000C4F13C005843B0F5616FA8BF4FF4616023
:105120002B680128B8BF01204FF47A76DB6846432C
:105130002BB19A88042A00F00A819B68F8E7464957
:10514000102005F070F90446002800F0FE801022BF
:10515000002105F057FE414B23600423A3802B69F7
:10516000C4E902362C613B4903A804F027FC32480D
:105170004FF0FF3100F00AFD039800283FF466AFBE
:1051800003F000FB62E7FFF775FE9EE7264D2A79E4
:105190002AB1264B1B78052B01D0FFF79BFBEB7840
:1051A0000BB9FFF709FB03F045FA08B9FFF704FB59
:1051B00003F040FA40B104F07BFE08B9FFF7F0FBC2
:1051C000FFF704FA062336E702F0D0FF244B1860FD
:1051D000012330E7144B1B792BB1144B1B78062BA2
:1051E00001D0FFF777FB1F4B1B78002B3FF455AF27
:1051F00002F0BCFF1C4B1B68C01A4AF6C8739842E9
:105200007FF624AF02F0B2FF154B184A1860002356
:105210008DF800300C4B16491B781648FFF76CF8D8
:10522000D6E700BF70E3032074E303202CE30320E0
:10523000E0E2032094E303205CE203200CE303207C
:10524000D8E20320A8E2032058E20320CFB20D00E9
:10525000E4B20D008CE2032040BB0D0010000300FF
:1052600068E30320EEE20320B4E5032030B20D0032
:10527000EAB20D0030E30320364C23792BB1364BD4
:105280001B78012B01D0FFF725FB02F06FFF334B9A
:105290001B6803F5EA4330338342BFF4D7AE23697A
:1052A000032B13DC03F0C6F948B100238DF800305E
:1052B0002B4B2C4A1B782C492C48FFF71DF84FF438
:1052C000FA6003F0BFFA04F075FBBFE604F0DFFDFF
:1052D000E369C01AB0F5E15F1CD903F0ABF948B13E
:1052E00000238DF800301E4B214A1B781E491F48B1
:1052F000FFF702F84FF4FA6003F0A4FA0023154A0E
:105300001C4823610121FFF763FE0A211A4800F0BF
:1053100097FD9BE603F08EF948B100238DF800302D
:105320000F4B134A1B7810491048FEF7E5FF4FF466
:10533000FA6003F087FA0023064A0E482361012130
:10534000FFF746FEFFF7F8FA80E628750BE7DE6008
:1053500009E700BF74E303202CE3032068E3032084
:1053600058E2032003B30D00E4B20D0030E3032044
:1053700017B30D000CE303205CE2032007B5FFF731
:105380001BFAFFF777FD03F055F948B100238DF8BC
:1053900000300F4B0F4A1B780F491048FEF7ACFF47
:1053A0000F4A104893681D2BCCBF00230123537173
:1053B0000A2393710C4B536101214FF07E531170FE
:1053C00011719361FFF704FE03B05DF804FB00BFA9
:1053D00058E2032031B30D00F7B00D0030E3032095
:1053E00074E303200CE303200000A0C000000000D1
:1053F000F0B50021ABB0082004F090FF002104209C
:1054000004F08CFF0121072004F088FF0121072010
:1054100004F095FF06A8002403F014F900237D2270
:105420000AA906A804F01FFA23462246AC49AD4D4E
:10543000AD4FCDE900440AA803F014F9AB49AC48DC
:10544000FEF7AFFEAB49AC48FEF7ABFE23460222A7
:10545000AA49AB4803F0CEF8AA49AB48FEF7A1FE33
:10546000AA49AB48FEF79DFEAA49AB48FEF799FE54
:10547000AA49AB48FEF795FEAA49AB48234602224B
:1054800003F0B8F823460222A849A94803F0B2F86D
:10549000A849A948FEF785FEA849A948FEF781FE5C
:1054A000A84AA949A94803F087FBA94AA949A748DE
:1054B00003F082FBA84AA949A44803F07DFBA84A4F
:1054C000A849A24803F078FBA74AA8499F4803F0DF
:1054D00073FBA749884A9D4803F06EFB012603230E
:1054E00041F2883203A8CDE903328DF8146003F04D
:1054F00087FBFFF761F99F4801F056FF21469D4861
:1055000033460DF10B0201F091FF9DF80B10B142F3
:1055100000F0CB80974801F051FF974A954804234B
:10552000214601F0CEFF334692480DF10B02214691
:1055300001F07CFF9DF80B30B34200F0B3803E7069
:105540008E4CFFF7F5FCFFF73FFB8D4A002300214F
:105550004FF4802002F0ECFF0823012120466381F4
:1055600000F02CFE01231A461021204600F091FB8A
:105570007C21A870204600F009FBAB79814A5D4888
:105580000C2103F017F995ED060A04F037FB04F03F
:1055900061FC002840F08F80AB78002B00F08B80FE
:1055A000794E2046314600F0F9FDD6E9000104F0BD
:1055B00057FBFFF733FA002800F0828004F03CFB31
:1055C00095ED050A04F0FAFA04F0A6FC044604F08E
:1055D0005EFC201A05F080F83FA3D3E9002305F014
:1055E0000FFA6A4ACDE900010A21524803F0E2F8B5
:1055F0000022114603A8039202F098FD039B142B8E
:105600004FF000025FD12B6901332B61604B012207
:105610001A70604A57483023502101F007FF04F008
:1056200047FC5D4B1860FFF799F8042004F0A0FEDA
:1056300008B9FFF7A3FE594801F02BFD5849574818
:1056400001F00BFD5749554801F007FD56495348F5
:1056500001F003FD04F0B8FE42220146534800F079
:10566000ADFF524800F060FF02F080FD504B514901
:105670001860514B514801221A7000238DF80030F8
:105680004F4B504A1B78FEF737FE3B780BB902238D
:105690003B700021072004F052FE06A804F058F8E1
:1056A0002BB0F0BDFFF76AFE4AE720232A463148B7
:1056B00001F0BCFE44E7FFF77FF8FEF75BFD78E7FB
:1056C00004F0C6FA7CE7114603A8039202F02EFD0F
:1056D000039B8C2B9DD196E7000000000020AC407E
:1056E00015430D0074E3032070E3032008E2032058
:1056F00049B30D00FCE0032050B30D0084E3032008
:105700005FB30D00D8E003206AB30D0078E10320F9
:1057100074B30D00F0E003207DB30D00E4E003203E
:1057200089B30D007CE3032091B30D00C0E2032098
:105730009CB30D00E4E20320A3B30D007CE2032040
:10574000AEB30D00BDB30D00ED400D008D8B0D000F
:10575000C7B30D0009410D00CFB30D00A9430D00E3
:10576000DCB30D0039440D00E9B30D00614A0D00B2
:1057700051450D000CE3032090B40D005CE20320C2
:10578000C9400D0036B10D0000E20320FCB00D0051
:1057900094E30320A8E20320DCE20320F0E20320EC
:1057A00000F4032008F4032010F4032098E30320FE
:1057B0006CE30320E4B20D001CE3032030E303207C
:1057C00058E20320F7B30D00F8B5404B404E414D71
:1057D00000241C60404B01271F7004F049FD234644
:1057E000224642F6DF5104F04BFD04F041FD224613
:1057F00023460A2104F04CFD384BB3603460B4807A
:10580000B471022002F07CFE2A463549304604F08D
:1058100003FE2146384602F093FE3946042002F08A
:105820007DFC30483049A0F809400346021D43F88A
:10583000092B9C702D4B43602A46C0E90344077531
:10584000047204F0E9FD04F0BFFD294E0146234631
:105850004FF40052304601F09DFD264B3360304638
:10586000254E26492A4604F0D7FD25494FF400620B
:10587000304602F0CFFA234B33603046224E2349A4
:105880002A4604F0C9FD22461021214C304601F081
:10589000CDFB2A461F49304604F0BEFD204600F0ED
:1058A00013FF2A461C49204604F0B6FD04F08CFD87
:1058B0001A4C01466922204600F06AF82A46204622
:1058C0001749BDE8F84004F0A7BD00BF54E203202B
:1058D00048E20320F8E1032058E203200000FFFF24
:1058E000C7410D008CE20320D5400D0010000300DD
:1058F0000CE3032010B40D0030E303204D410D00F4
:1059000018F403202CB40D00F0E2032025410D0013
:1059100098E3032081700D0015680D005CE2032000
:1059200025590D00704710B52021044604F079FD7B
:10593000204610BD0EB410B58DB00FAA016852F804
:10594000044B039200232020CDE90403CDE900425B
:10595000012004AA02F0BAFD0DB0BDE8104003B06A
:1059600070470EB410B58DB00FAA016852F8044B01
:10597000039200232020CDE90403CDE90042322028
:1059800004AA02F0A3FD0DB0BDE8104003B07047BB
:1059900010B50272FF2242810022C0E90322426157
:1059A0000276C261024A034C1060C0E9004110BD9A
:1059B000BCE50320E4B60D002DE9F8439DF82080F6
:1059C0000446894616461F46B8F1000F02D04068CB
:1059D00003F038FC217A606803F029FC60680368F2
:1059E00049469B6898476068002103F027FC0546FC
:1059F00000BB0123217A60683A4603F006FC874227
:105A0000034609D13744BE421CD0606803685B6915
:105A1000984706F8010BF6E70B490C484A46FFF792
:105A2000A0FFB8F1000F02D0606803F014FC284614
:105A3000BDE8F8830346064904484A46FFF791FF4C
:105A40000025EEE70125ECE794B40D00B8E503204E
:105A5000B9B40D0007B500930123FFF7ADFF03B004
:105A60005DF804FB73B54389FF2B044610D0194E33
:105A7000194D02F07BFBB0F57A7F09D2608904F002
:105A800077FC012804D031462846FEF71EFCF0E7DB
:105A900001230DF1070228212046FFF7DBFF30B973
:105AA0000D480E49FEF711FC002002B070BD9DF8B4
:105AB0000730182BF4D101230DF1070229212046CC
:105AC000FFF7C8FF0028EBD09DF80730052BE7D182
:105AD000EBE700BFDDB40D00B8E50320F2B40D0024
:105AE00007B5134600228DF807200DF10702FFF7D6
:105AF000B1FF9DF8070003B05DF804FB2DE9F0410C
:105B00009DF8188004460F4615461E46B8F1000F52
:105B100002D0406803F096FB217A606803F087FBAF
:105B20006068036839469B6898472E44B5426068B0
:105B300005D0036815F8011B9B689847F6E701211B
:105B400003F07CFB034670B1084909483A46FFF769
:105B500008FF0025B8F1000F02D0606803F07BFB5E
:105B60002846BDE8F0810125F4E700BFFFB40D0031
:105B7000B8E503201FB58DF80F2000930DF10F023B
:105B80000123FFF7BBFF05B05DF804FBF8B50A463B
:105B90000C4605461A491B48FEF797FB002CB8BF78
:105BA000EC687CB9012322461B212846FFF7E2FF5F
:105BB0001549024606461348FFF7BCFEEC606C61CF
:105BC0003046F8BD032C19DDA7101F2FA8BF1F27D3
:105BD000BA0062F07C020123D2B21B212846FFF7F3
:105BE000C9FF3A460346094906460648FFF7A2FEA2
:105BF0004FF4FA635F43EC606F61E1E70127E7E789
:105C000024B50D00B8E503202EB50D004AB50D00F2
:105C10000B4607490246086848B1002B08BFB2F599
:105C2000006F04D1C36813B10021FFF7AFBF704705
:105C3000BCE503202DE9FF419DF828800546164666
:105C40001F46B8F1000F04D04068019103F0FAFA42
:105C50000199019100230DF10F022846FFF7FAFE8A
:105C6000044660B19DF80F3003EA06023A439342BE
:105C700005D0019900232846FFF77CFF0446B8F1C0
:105C8000000F02D0686803F0E6FA204604B0BDE8D1
:105C9000F08113B514460DF10702FFF7DBFE28B1C2
:105CA0009DF807301C420CBF0120002002B010BD3F
:105CB00013B514460DF10702FFF7CCFE28B19DF88D
:105CC00007301C4214BF0120002002B010BD07B5F0
:105CD000D2430093D2B20023FFF7ACFF03B05DF8CC
:105CE00004FB000037B501230DF107020F21044624
:105CF000FFF7B0FE054638B91E491F48AD22FFF731
:105D000030FE284603B030BD9DF8073013F0200F59
:105D10004FF001030BD02022E3610F212046FFF753
:105D2000D6FF164A16491448FEF7CFFAE9E70822CB
:105D300017212046FFF7BCFF18B10223114AE36187
:105D4000F0E79DF807301A0709D50323E36108221D
:105D500001230F212046FFF7BAFF0B4AE2E75B075A
:105D6000CFD50422E26101230F212046FFF7AFFFC8
:105D7000064AD7E79DB50D00B8E503206EB50D00C6
:105D8000BCB50D0077B50D0087B50D0097B50D00BA
:105D900007B500931346FF22FFF74CFF03B05DF8F1
:105DA00004FB0000F8B50F461646012300220F2120
:105DB0000546FFF7DFFE044638B94FF425721E4949
:105DC0001E48FFF7CEFD2046F8BD012323221821EF
:105DD0002846FFF7CFFE044610B940F29B22EEE7BB
:105DE000FF2FA8BFFF27012FB8BF01270123FAB259
:105DF00019212846FFF7BEFE044610B94FF42A7257
:105E0000DDE70123082212212846FFF7C1FF0446DF
:105E100010B940F2AF22D2E7002E4FF0010314BFB9
:105E20008322822218212846FFF7A4FE0446002878
:105E3000C9D140F2B922C2E7CDB50D00B8E50320C3
:105E40002DE9F7430A4605460F464F484F49FEF7EE
:105E50003CFA00212846FFF799FE044648B940F273
:105E6000F7124B494848FFF77CFD204603B0BDE8D8
:105E7000F08301231A4630212846FFF789FF0446A4
:105E800010B940F20522ECE7102201231146284602
:105E9000FFF71DFF044610B94FF40372E1E7012339
:105EA000262213212846FFF765FE044610B940F26A
:105EB0001322D6E7012600963346FC2211212846FC
:105EC000FFF7B8FE044610B940F21B22C9E70022D2
:105ED00039462846FFF766FF044610B940F22222F1
:105EE000BFE700960223772210212846FFF7A2FE83
:105EF000044610B940F22B22B3E7334604221C219A
:105F00002846FFF745FF044610B940F23222A8E7C1
:105F100000961823E32211212846FFF78BFE044642
:105F200010B940F239229CE73346C0221721284697
:105F3000FFF720FE044610B94FF4107291E702F00B
:105F400015F9DFF85490DFF840804FF47A71064677
:105F50004F4302F00BF9801BB8420ED201221721E9
:105F60002846FFF7BDFD494602464046FEF7ADF91B
:105F70004FF47A7002F066FCEBE706490248FFF73F
:105F8000F0FC03F017FD70E7B8E50320F8B50D004D
:105F9000EDB50D001EB60D0009B60D002DE9F34755
:105FA0009DF828A005460C4691461F46BAF1000F01
:105FB00002D0406803F046F907B3202F3E4628BFC1
:105FC00020267F2C26D83319802B01D9C4F18006D6
:105FD000012304223F212846FFF779FE002364F0C5
:105FE0007F0100934A463346C9B22846FFF7E4FCD6
:105FF000804628B13444BF1BB144DDE74FF00108AF
:10600000BAF1000F02D0686803F025F9404602B0EB
:10601000BDE8F087012304223F212846FFF7B8FEA0
:10602000DCE72DE9F3479DF828A005460C4691468C
:106030001F46BAF1000F02D0406803F003F907B31E
:106040001F2F3E4628BF1F267F2C26D83319802BB2
:1060500001D9C4F18006012304223F212846FFF71D
:1060600036FE002364F07F0100934A463346C9B2EE
:106070002846FFF743FD804628B13444BF1BB14496
:10608000DDE74FF00108BAF1000F02D0686803F0B5
:10609000E2F8404602B0BDE8F087012304223F2128
:1060A0002846FFF775FEDCE730B585B00D68D1E90D
:1060B000043203954D6802958D680195C968009179
:1060C0000133044902F26C72044603F0E5FB2046FA
:1060D00005B030BD30B60D0003110A2200F00F00EC
:1060E00002FB0300704738B5044600781546FFF7F9
:1060F000F3FF08606078FFF7EFFF4860A078FFF7D4
:10610000EBFF8860E078FFF7E7FFC8602079FFF7D2
:10611000E3FF013808612DB9651D2878FFF7DCFF22
:10612000886138BD6079FFF7D7FF6430A51D4861ED
:10613000F3E7000070B5012388B00D461A46102120
:106140000446FFF7A6FDF0B108230126204600967D
:106150000DEB03020021FFF72FFC044698B13246F5
:1061600029460DF10900FFF7BEFF04A8FFF79CFFC9
:106170000848049A0849FEF7A8F804A803F0E8FACA
:10618000204608B070BD24220021284604F03AFEC3
:106190000024F5E7B8E503204EB60D0030B58BB00E
:1061A0000D4601A9FFF7C6FF044620B101A802F081
:1061B00041FBC5E9000120460BB030BD10B50446D7
:1061C00088B011B1406803F003F82046FFF74AFC9D
:1061D00070B32046FFF786FD01231A4610212046A2
:1061E000FFF757FDD8B103F035FEC0B902A920462C
:1061F000FFF7D4FFDDE9020103F032FD0F4B104938
:106200001B68009304A8DDE9022303F0E1FD0D48BB
:10621000049A0D49FEF759F804A803F099FA0B4ABD
:10622000002300214FF4006002F082F908B010BD95
:1062300007490448FFF795FBF1E700BF84E103201D
:1062400050E60320B8E503205CB60D00115C0D009C
:1062500079B60D000A2290FBF2F302FB130093FBC8
:10626000F2F102FB113140EA0110C0B2704770B583
:10627000054600680C461646FFF7ECFF207068687C
:10628000FFF7E8FF6070A868FFF7E4FFA070E86818
:10629000FFF7E0FFE07028690130FFF7DBFF2071B6
:1062A0002EB9661DA869FFF7D5FF307070BD6A6909
:1062B000642392FBF3F003FB1020FFF7CBFFA61D36
:1062C0006071EFE7F0B587B0054602A816460C46A8
:1062D000FFF7EAFE1E48029A1E49FDF7F6FF02A8E4
:1062E00003F036FA16B1686802F0ACFF20460122CE
:1062F0000DF1090100278DF80870FFF7B8FF0123A1
:106300001A4610212846FFF743FD0446E8B108234A
:1063100000970DEB030239462846FFF7EFFB0446D2
:1063200060B101231A4610212846FFF7D0FC16B1B0
:10633000686802F090FF204607B0F0BD4FF48D7200
:1063400005490348FFF70DFBF1E74FF48F72F7E7BC
:10635000B8E5032091B60D009FB60D0013B50446B5
:106360006846CDE9002304F013FD9DF81020014696
:106370002046FFF7A7FF02B010BD0000F0B5057E74
:1063800089B0044675BB03F065FD58B300260027AD
:1063900004A92846CDE9046702F07CF910B3012571
:1063A000257603F074FD00950246C3172046CDE91B
:1063B0000223FFF7D3FF02A92046CDE90267FFF7CA
:1063C000EDFE124B12491B68009304A8DDE902237D
:1063D00003F0FEFC0F48049A0F49FDF776FF04A86E
:1063E00003F0B6F9636973B101F0C0FE2369C01A06
:1063F0006369984207D301F0B9FE4FF0FF31206185
:106400002046FFF7C3FB09B0F0BD00BF84E10320C5
:1064100050E60320B8E50320BAB60D00014B024A4E
:106420001A607047B8E50320D0B60D00704710B56C
:106430001021044603F0F5FF204610BD0EB403B54D
:1064400003AB002153F8042B019303F08CF802B046
:106450005DF804EB03B0704773B504460846227933
:10646000A36832B1A3B90B4902B0BDE8704003F094
:1064700049B8094A267B094D0949647B012E18BF9A
:106480002946CDE900140749FFF7D8FF02B070BDD7
:10649000054AEFE705B70D0030B20D0001B70D005A
:1064A000FDB60D001BB70D00F4B60D0010B58368E6
:1064B000044613B1032201469847204610BD0368E5
:1064C000C9B29B681847000038B500F108050446BA
:1064D000294600F059FA124B23602846002500F0A7
:1064E00096FA84F8A85103F06FFF422384F8B03184
:1064F000C4F8AC0103F07CFDFF23A4F8E431094BA0
:10650000C4F8C4511C60C4E96D05C4E97355C4E9FD
:106510007555C4E97755C4F8E851204638BD00BF29
:1065200084B70D00CCE50320F7B5D0F8B861074675
:10653000002E39D10420FDF7AEFD054690B31B496E
:10654000142003F070FF28B1C0E90066C0E90266BC
:10655000067446742860A0B1154B1649C0E902378D
:106560004FF40063CDE900030222134B043001F025
:1065700085FD30B92B681B7CA3B9012001F0E6FD35
:10658000F8E72C6800232B6064B1266836B13046EA
:10659000FFF78CFF1021304603F043FF1421204603
:1065A00003F03FFFC7F8B85103B0F0BD40BB0D008A
:1065B00073690D0038B70D006F670D0010B501232A
:1065C00080F8A831D0F8AC31044648685860886833
:1065D0009860C868D860087C1874084684F8B021B0
:1065E00002F0F6FD204610BD38B5044690F8B01113
:1065F000D0F8AC0102F01BFEFD21D4F8AC01FFF78E
:106600005EFFD4F8AC01002102F018FE08B10020B2
:1066100038BD94F8B011D4F8AC010123022202F085
:10662000F4FDC0B20228F2D1D4F8AC0103685B6972
:1066300098470546D4F8AC0103685B69984740EA7F
:10664000052080B2E4E72DE9F8430746884690F834
:10665000B011D0F8AC01154602F0E9FDFF21D7F8E2
:10666000AC01FFF72CFFD7F8AC01002102F0E6FDEA
:1066700018B14FF0FF30BDE8F8830446A54220D999
:106680002E1B202E28BF202604EB0609A5EB0902AD
:106690005342534197F8B011D7F8AC01324602F09B
:1066A000B4FDC0B28642E4D144442644D7F8AC01DC
:1066B00003685B69984704F8010BA642F6D14C4683
:1066C000DCE72846D7E7000037B50446FFF7FCFEB5
:1066D0001C4B236004F5FA701033C4F8EC31082128
:1066E000C4F8F00100F01CFE174D184BC4F8F4314B
:1066F0002978BFF35B8F11F001010BD1284601917E
:10670000FDF7DAFC019928B1114802F077FF28461D
:10671000FDF7D7FC0E4BC4F800321123C4F8043245
:1067200000230C4A84F8083284F810320A4BC4F86B
:10673000143220460123C4F80C22A4F8183203B006
:1067400030BD00BF64B70D00C0E50320E4B70D0005
:10675000C4E5032050B70D0080969800826810B5FC
:106760000AB903F064FEBDE81040C368184710B5CD
:10677000012303748368044643B1C068984701232A
:1067800063740020BDE8104001F0C0BC0068002820
:10679000F5D0FFF7E3FFF2E770B5D0E90056044605
:1067A000AE4204D02846FFF781FE1035F8E7206896
:1067B00008B1FDF774FC204670BD000010B50E4B0B
:1067C00003600446D0F8E80120B101F077FC002313
:1067D000C4F8E83104F5EC70FFF7DEFF04F5E6706D
:1067E000FFF7DAFF04F5DE70FFF760FE204600F0E9
:1067F000C3F8204610BD00BF84B70D0010B5044695
:10680000FFF7DCFF20464FF4F67103F00AFE204646
:1068100010BD000010B5084B03F108021833044600
:106820000260C0F8EC3100F5FA7000F019FD204666
:10683000FFF7C4FF204610BD5CB70D00A0F5F67051
:10684000FFF7E8BF10B50446FFF7E4FF20464FF41A
:10685000077103F0E6FD204610BDA0F5F670FFF7C6
:10686000F1BF07B582688DF807100AB903F0DFFDA4
:10687000C3680DF10701984703B05DF804FB2DE9EB
:10688000F04790F8A8718AB00446FFB900F10806F5
:1068900000F5DE75D4F8B40103681B699847002839
:1068A00045DDD4F8B40103685B699847C1B230464E
:1068B000019100F047FBD4F8C4313843C7B2002B34
:1068C000E8D001992846FFF7CCFFE3E7D0F8AC8188
:1068D000404602F0B7FC2046FFF786FE2028064619
:1068E00002D810B900271FE02026324602A9204610
:1068F000FFF7A9FEB042F5D102AD2E44002704F106
:10690000080904F5DE7A15F8011B484600F01AFB69
:10691000D4F8C4313843C7B223B115F8011C50462E
:10692000FFF79FFFB542EED1404602F094FC57B10D
:10693000D4F8D851D4F8DC319D4204D02846FFF772
:106940000DFF1035F6E70AB0BDE8F08738B504460C
:106950002046FFF794FFD4F8CC51D4F8D0319D42B3
:1069600004D02846FFF7FAFE1035F6E701F08EFB5B
:10697000EEE708B5FFF7EAFF704710B508210446B7
:1069800003F04FFD204610BD014AC0E900217047C9
:1069900094B70D000022C0E90F22C0E91322C0E91C
:1069A0001722C0E91B220280828082600273028269
:1069B000426102768283026280F824200285C262EC
:1069C00080F83020426302874264A0F84820426584
:1069D000A0F858204266A0F868204267A0F8782006
:1069E000C0E91F22C0E92322C0E92722C0E92B22E7
:1069F000C0F88420A0F88820C0F89420A0F898203F
:106A0000C0F8A420A0F8A820C0F8B420704710B5A2
:106A10000446FFF7BFFF04F1B800FFF7BBFF0223F6
:106A200084F881310023C4E96233C4E96433C4E9E2
:106A30006633A4F8823184F88431A4F8703184F884
:106A40007231204610BDA1F14103052B02D8A1F1FE
:106A500037007047A1F16103052B94BFA1F15700E6
:106A6000A1F13000704738B5057804462D2D08BFD8
:106A70000134204604F07AF964235843224614F87E
:106A8000013BA3F130010929F8D92E2B0BD1537802
:106A9000303B092B07D80A2101FB03009378303BD8
:106AA000092B98BFC0182D2D08BF404238BD0000EB
:106AB00038B50D46044604F059F96422134BB0FB77
:106AC000F2F102FB11004343298020460278A2F133
:106AD0003004092C014600F10100F7D92E2A0BD110
:106AE0000A480A2411F8012F303A092A04D8B0FBC9
:106AF000F4F000FB0233F5E703EB830301330322D9
:106B0000B3FBF2F36B6000232B7238BD80969800C4
:106B100010B50346044653F81C2F42605A68826041
:106B20001B7A0373034653F8282F02615A684261A7
:106B30001B7A037601F01AFB40F201136063238095
:106B400010BD000000000000D0B5002304464370D3
:106B5000806803F0B1FD0CA3D3E9002303F050FFDC
:106B60000646A0880F4603F0B7FD0B46024639469D
:106B7000304603F065FC237B13B101F10043194655
:106B800041EC100BD0BD00BF0000000065CDCD4131
:106B9000D0B5002304464370406903F08DFD0CA37B
:106BA000D3E9002303F02CFF0646208A0F4603F0AA
:106BB00093FD0B4602463946304603F041FC237EE6
:106BC00013B101F10043194641EC100BD0BD00BFD9
:106BD0000000000065CDCD4110B5836843600446D8
:106BE00001F0C4FA40F20113E060238010BD10B53B
:106BF00083684360044601F0B9FA40F20113E06093
:106C0000238010BD10B504460846FFF72CFFA06096
:106C100010BD10B50446084604F0A8F8A06010BDE9
:106C200010B5C3688360044601F0A0FA40F2011376
:106C30006060238010BD10B504460846FFF713FFBF
:106C4000E06010BD10B5C3688360044601F08EFAA1
:106C500040F201136060238010BD10B50446084661
:106C600004F084F8E06010BD10B501460446103011
:106C700004F0FEF801F07AFA40F201132062A384D6
:106C800010BD102204F021B9F8B590F871510446F6
:106C9000002D00F0888090F87211FFF7D4FE94F870
:106CA000731102462046FFF7CEFE94F8703100EBD8
:106CB0000210C0B283426ED1D4F89C310133C4F8C3
:106CC0009C3194F8843123B1D4F894310133C4F861
:106CD000943194F88131E3B3012B2BD104F1F0000E
:106CE000FFF77AFF04F58070FFF781FF94F8843195
:106CF00004F1B8065BB13046FFF70AFF04F588706F
:106D0000FFF78EFF04F59070FFF78AFF05E084F827
:106D1000B83084F8103184F820310021084601F0A1
:106D2000BDF93146B822204604F044F80021012084
:106D300001F0B4F9D4F88C619EB3D4F88C31B06A08
:106D4000996A04F08BF860BB3046FFF78DFF366B15
:106D5000F2E704F58070FFF74AFF94F8843104F1FC
:106D6000B8068BB13046FFF7D3FE04F59870FFF7F5
:106D700057FF04F5A070FFF753FF04F5A870FFF765
:106D800061FF04F5B070BFE784F8B83084F83031A3
:106D900084F84031F1E7D4F898310133C4F89831E0
:106DA00000252846F8BD90F882216ABB00F5B97627
:106DB0006049304604F052F820B15F49304604F093
:106DC0004DF898B9012384F88131D4F88831C4F89A
:106DD0008C31D4F88C71002FE3D0B86A314604F0BE
:106DE0003DF8002880F29F803B6BF0E75349304626
:106DF00004F034F820B15249304604F02FF808B9B5
:106E00000023E0E70223DEE790F88111022924D075
:106E100090F872310BB342EA4112013A282A1CD889
:106E2000DFE802F0153C434A4D666B72771B7C1B12
:106E30001B1B1B1B1B1B1B1B1B1B1B1B1B1B1B1BA2
:106E40001B1B1B1B15353C434A4D545B600000F572
:106E5000B97100F58070FFF7D5FED4F88C6104F5A8
:106E6000B977002E9DD0D4F88C31B06A996A03F0BE
:106E7000F5FF002895D1F26A94F882319A4290DCAD
:106E800003D139463046FFF7FCFE366BE9E7A3F144
:106E900041004342434184F88431DEE700F1D401EC
:106EA00004F5B970FFF704FED7E7A3F153014B4295
:106EB0004B4180F8DC30D0E700F1E001F0E7A3F1CE
:106EC00057025342534180F8E830C6E700F5B971E4
:106ED00000F58870FFF7AFFEBFE700F5B97100F568
:106EE0009070F7E700F5B971F030FFF792FEB4E764
:106EF000302B94BF00230123CDE700F5B97100F5D5
:106F0000A870FFF7AAFEA8E700F5B97100F5B07008
:106F1000E0E700F5B97100F59870DBE700F5B971AD
:106F200000F5A070D6E73FF43CAF0023C4F88C31E5
:106F300037E700BF9CB70D00A2B70D00A8B70D0042
:106F4000AEB70D0038B5D0F89031242903F1010314
:106F500004460D46C0F890313AD090F8833114D8E9
:106F60000A291CD00D291AD00D2B9FBF5A1C1B19A2
:106F700084F8832183F8725194F8710198BB94F8D6
:106F800070114D4084F8705121E02A2907D02C2936
:106F9000EAD190F8702182F02C0280F870210E2B3B
:106FA0004FF0000005D8234483F872012046FFF714
:106FB0006BFE94F88231013384F88231002384F827
:106FC0008331A5F12A035D425D4184F8715138BDDA
:106FD00000200223A4F8700184F88131A4F8820112
:106FE00084F88401F3E70020F1E713B50B4602466D
:106FF000D0E900016C4684E8030093E8030082E8CE
:10700000030094E8030083E8030002B010BD000011
:10701000034B01221A70034B034A1A60704700BFEA
:10702000D4E50320D0E50320B4B70D0037B5002325
:1070300043608360C36003614361038382760446D7
:107040000E200191FDF727F8054610B1019900F0D7
:10705000A9FB2046256003B030BD38B500F110050E
:107060000C460068294600F08DFC031E1DBF2B68EE
:1070700023606B68236014BF01200020636038BD6B
:1070800010B50446006810B10E2103F0CAF920467D
:1070900010BD006800F06EBC2DE9F041837E04460F
:1070A0000D4616462BB90B781BB99FED570ABDE864
:1070B000F081206800F080FBA37E002B5DD0002EC5
:1070C0005BD1206800F052FC00224421206800F0CF
:1070D00008FC40F2EE2001F0B5FB206800F06CFBEC
:1070E000A37E002B4ED0002E4CD1206800F03EFC39
:1070F00020680022BE2100F0F4FB2B78262B04D15F
:1071000000222068114600F0ECFB261D04F10D085A
:107110003746206800F008FC06F8010B4645F8D118
:107120000821384600F0A2FC237B20769842637643
:10713000BBD12B78262B47D029D8102B29D0222B36
:10714000B3D1227A237902F06002202A36D0402A75
:1071500037D012B923F0070323716379207940EA0D
:10716000032000B203F0B8FA284B002203F01EFB04
:1071700003F04EFD00EE100A99E72068294600F062
:10718000E3FBA1E72068294600F0DEFBB0E7282BEF
:10719000D6E7E37AA288102B08BFA37A4FEAC2028F
:1071A00003BFC3F10C0322F00F029B1813B208BFF8
:1071B0001BB200EE103ABAEECE0A78E723F00303D2
:1071C000CAE723F00103C7E7A579284603F084FA4C
:1071D00006466079C01007EE900AF8EEE77A0F468F
:1071E00017EE900A03F08AFA094B002203F0DEFA48
:1071F0002B0654BF074B084B002203F0D7FA324648
:107200003B4603F01DF9B3E70000C07F0000B03F2C
:107210000000A03F0000F03F0000F0BF00000000B1
:1072200008B510EE100A03F069FA08A3D3E90023A9
:1072300003F0BCFA044B002203F002F903F0E8FC6F
:1072400000EE100A08BD00BF00004040CDCCCCCC01
:10725000CCCCFC3F027E407E131A58425841704706
:10726000704710B52821044603F0DBF8204610BD16
:1072700010B5044600F11801C06802F0F5F9208A43
:107280000021BDE8104003F05AB810B504460121B2
:10729000008A03F054F8E068BDE8104002F0CBB972
:1072A000F8B51E4603685B690F46144605469847C5
:1072B000012E88BF47F04007E86847F0800102F0E0
:1072C00041FA2644B44206D0E868002102F03AFAB6
:1072D00004F8010BF6E72B6828469B6998470120C4
:1072E000F8BDF8B51E4603685B690F4614460546AF
:1072F0009847012E88BF47F04007E868394602F0FA
:1073000021FA2644B44205D014F8011BE86802F0C3
:1073100019FAF7E72B6828469B6998470120F8BDC2
:10732000024AC0E90021002202727047C8B70D006E
:1073300013B5036801AADC680123A0479DF8040087
:1073400002B010BD38B505460A240F212846FFF7C4
:10735000EFFF33284FF0010004D001F073FA013C35
:10736000F3D1204638BD10B50446018AC06802F04A
:107370004FF92046BDE81040FFF7E4BF704710B555
:107380001021044603F04DF8204610BD0368C9B231
:107390009B68184730B5034DC0E90223C0E900518E
:1073A00030BD00BF34B80D00406801F011BF10B50A
:1073B0000446006801F04FFF204610BD2DE9F04162
:1073C0008AB004464068019001F03CFF1E22002173
:1073D00002A8A76803F016FD0026EFB123681E2F50
:1073E000B84628BF4FF01E08DD6802AA4346314662
:1073F0002046A847054658B90A480B493246FCF7CB
:1074000064FF01A8FFF7D3FF28460AB0BDE8F0816A
:10741000A7EB08074644E0E701A8FFF7C8FF0125EE
:10742000F2E700BF24E6032000B80D002DE9F74382
:107430000446406801900D4616461F4601F002FFC3
:10744000A7B1E168606841F0500101F0F4FE290A3B
:107450006068FFF79BFF29466068FFF797FF606849
:10746000002101F0EBFE48B1002400E0012401A856
:10747000FFF79DFF204603B0BDE8F083202F217B5E
:107480006068B84628BF4FF020080123424641F00B
:10749000500101F0BAFE02F097FF03681B6998479C
:1074A0004045E1DB06EB080902F08EFF03685B69EB
:1074B000984706F8010B4E45F6D14544A7EB08075F
:1074C000BEE72DE9F74F0446406801900E4690460E
:1074D0001D4601F0B7FE4FF00109B9F1000F2AD0A7
:1074E0004DB3E168606841F0500101F0A4FE310A3B
:1074F0006068FFF74BFF60683146FFF747FFA5F173
:107500001E0A4746A6EB080B606817F8011B0368C4
:10751000013D9B68984755450BEB0706B84601D0DF
:10752000002DF1D16068012101F088FE0028D7D03C
:107530004FF00009D1E701A8FFF739FF484603B033
:10754000BDE8F08F2DE9F0438BB00E46154680461E
:10755000406801901C4601F075FEAE4229D22644D7
:1075600025448CB11E2C2746D8F8003028BF1E2792
:10757000F61BD3F8089002AA3B4631464046ED1B65
:10758000C84748B9002400E0012401A8FFF70FFF15
:1075900020460BB0BDE8F083D8F8003002AAD3F83B
:1075A0000C9029463B464046C8470028EAD0E41BD9
:1075B000D7E7E9D9002CE7D0D8F800301E2C2746B1
:1075C00028BF1E27D3F8089002AA3B463146404602
:1075D000C8470028D6D0D8F8003002AAD3F80C90BB
:1075E00029463B464046C8470028CBD03E443D4450
:1075F000E41BDFE710B503682F2B044604D9074AC4
:1076000000210A2000F052FF23681F2B83BF03F0E4
:107610001F03034823604FF0A04010BD5D810D00A3
:1076200000030050F7B51B4C058823781A4EBFF3B2
:107630005B8F13F0010F09D12046FCF73DFD28B107
:1076400000F0CCFD30602046FCF73BFD33682D0197
:107650005B5D5F012378BFF35B8FDB0709D40D48C7
:10766000FCF72AFD28B100F0B9FD30600948FCF7AD
:1076700028FD33682B4401A85B7803F01F033B43CC
:107680000193FFF7B7FF019A01239340C0F80C352F
:1076900003B0F0BDD8E50320DCE50320F7B51B4CB3
:1076A000058823781A4EBFF35B8F13F0010F09D1C1
:1076B0002046FCF701FD28B100F090FD3060204627
:1076C000FCF7FFFC33682D015B5D5F012378BFF39E
:1076D0005B8FDB0709D40D48FCF7EEFC28B100F006
:1076E0007DFD30600948FCF7ECFC33682B4401A8B1
:1076F0005B7803F01F033B430193FFF77BFF019A85
:1077000001239340C0F8083503B0F0BDD8E503204D
:10771000DCE503202DE9F341204D06882B78204F2E
:10772000BFF35B8F13F0010F09D12846FCF7C4FCAF
:1077300028B100F053FD38602846FCF7C2FC3B68D6
:1077400036019C5D2B78BFF35B8FDB074FEA441853
:1077500009D41248FCF7B0FC28B100F03FFD3860B6
:107760000E48FCF7AEFC3B68334401A85C7804F09B
:107770001F0444EA08040194FFF73CFFD0F81035D9
:10778000019401A8FFF736FF019BD0F81005D840FF
:1077900000F0010002B0BDE8F08100BFD8E5032091
:1077A000DCE5032038B504460D462846002102F0EA
:1077B000B5FD2580204638BD70B5054601F054FD65
:1077C0002888002100F012FD01F050FD7D24013CCD
:1077D00014F0FF042DD0022000F0C0FC2846FFF773
:1077E00099FF0028F3D001F03FFD2846FFF71AFF6C
:1077F0000121288800F0FAFC01F038FD4FF4F07008
:1078000000F0ACFC00F0BAFC00210646288800F02D
:10781000EDFC462000F0A2FC2846FFF77BFFB0FA03
:1078200080F4304600F0B2FC4FF4CD70640900F0F3
:1078300095FC204670BD70B511F00105044618D0C6
:1078400000F09CFC05462046FFF7ECFE0121208855
:1078500000F0CCFC012000F081FC2088002100F029
:10786000C5FC284600F092FC3B20BDE8704000F0CB
:1078700075BC00F083FC06462046FFF7D3FE0121CD
:10788000208800F0B3FC412000F068FC20882946E5
:1078900000F0ACFC304600F079FC0520E5E738B597
:1078A000044600F06BFC05462046FFF7BBFE20882F
:1078B000012100F09BFC012000F050FC00212088F9
:1078C00000F094FC0D2000F049FC2046FFF722FF59
:1078D0000446284600F05AFC2E2000F03FFC2046CB
:1078E00038BD2DE9F0410446884616460827012593
:1078F00018EA050F14BF012100212046FFF79BFF66
:107900006D00013FEDB2F3D166B101F0ADFC204650
:10791000FFF7C4FE2088012100F068FCBDE8F041BB
:1079200001F0A4BCBDE8F081F8B5074608260025A3
:1079300001243846FFF7B3FF00B125436400013E40
:10794000E4B2F6D12846F8BD70B500220C465521A8
:107950000646FFF7C6FF651E073415F8011F002213
:107960003046FFF7BEFFA542F7D170BD0022CC2103
:10797000FFF7B7BF002343808380C3800381438127
:10798000037370472DE9F04790F80C900446884641
:10799000B9F1000F0DD0002060812073A31C08F105
:1079A000FF380A3413F8012B08F8012FA342F9D14C
:1079B00004E0FFF701FF18B960812073BDE8F0878C
:1079C0004A46F0212046FFF78CFF0126CA4635467D
:1079D0002046FFF764FF07462046FFF760FF012FB0
:1079E0000FD1012827D1402DD5D984F80A90B9F1BB
:1079F000000F01D101232373A378002BCBD00120EA
:107A0000CCE7874204EB0A030CD1A27AAA420ED932
:107A10009A78164214BF0127002767B9082D00D8AD
:107A2000E572A9469A7822EA06029A7009E00CBF2C
:107A300001270027F1E704EB0A020127937833437B
:107A40009370394620467600FFF7F5FE16F0FF06E4
:107A500004BF0AF1010A5FFA8AFA05F1010508BFBD
:107A60000126BAF1070FEDB2B2D9BCE730B5024634
:107A7000014400208A4213D012F8015B082480EAF6
:107A8000050313F0010F4FEA50001CBF80F08C0378
:107A9000D8B2631E13F0FF044FEA5505EFD1E9E7B2
:107AA00030BD012A034602D1016000207047022A3E
:107AB00004BFD1E90001C3E90001F6E710B4426850
:107AC0000346541001EB6200D20748BF0A591B68F5
:107AD0005DF8044B48BFD358184700000123F7B5A1
:107AE00080F829300646083000F0E0FA0420FCF760
:107AF000D2FA054698B31B49142002F094FC30B129
:107B00000023C0E90033C0E90233037443742860E2
:107B1000A0B1154B1549C0E902364FF40063CDE919
:107B200000030222124B043000F0A8FA30B92B688F
:107B30001B7CA3B9012000F009FBF8E72C680023A7
:107B40002B6064B1276837B13846FEF7AFFC1021CF
:107B5000384602F066FC1421204602F062FC756093
:107B600003B0F0BD40BB0D007B7D0D0048B80D009B
:107B70006F670D0047F23051084AC1600849026042
:107B80000022C0E904120749C16107494260C0E907
:107B900008228161028580F82A2070470CB90D0007
:107BA000E57E0D00BD7A0D00A37A0D0010B5044BE3
:107BB000044640F8103BFEF779FC204610BD00BF9C
:107BC0000CB90D0010B5034B03600446FFF7EEFF40
:107BD000204610BD34B90D0010B50446FFF7F2FF82
:107BE0002046382102F01DFC204610BD806800F0C0
:107BF0006DBA806800F072BA10B504460068FFF7ED
:107C0000F8FF204610BD13B504460190FFF7EEFFC4
:107C1000E36ADC88A4B20CB103F1080401A8FFF701
:107C2000EBFF204602B010BD13B504460190FFF7EC
:107C3000DDFF94F8283043B9E26A0124D38001A81B
:107C4000FFF7DAFF204602B010BD0024F7E713B5B6
:107C500004460190FFF7CAFFE36A01A8DC88FFF73A
:107C6000CBFF204602B010BD2DE9F047994686B003
:107C700090F829309DF838A09DF83C8004460F46C6
:107C8000164613B903689B689847314B3846002E57
:107C900008BF1E4603F011F90546304603F00DF902
:107CA000284400F10A05AB071CBF25F00305043585
:107CB0003346CDE90285CDE9009A264926483A4661
:107CC000FCF703FB238E083BAB4212D20024204674
:107CD00006B0BDE8F087CB88012B36D005A8FFF7AA
:107CE0008BFF236894F828109B692046984700284A
:107CF000ECD020460594FFF779FFE16A228E636B92
:107D00000A44D21AAA42E6D348EA0A0883F8048051
:107D1000C3F80090636B03F108083946404603F04E
:107D2000A7F8404603F0C9F801303146404403F05B
:107D30009FF8636BE26A1D446563D3880133D38087
:107D4000012405A8FFF758FFC1E70024F9E700BFA9
:107D500030B20D005AB80D00E0E5032008B5044626
:107D600000F11005A3690BB902F061FBE36921463C
:107D70002846984700F08AF9F4E708B5FFF7EEFFC8
:107D800068B501F108050646284603F096F801306B
:107D90000544284603F091F8F36A01302844C31AD9
:107DA00013F003031CBFC3F10403C01868BDF7B58B
:107DB00004460E460190FFF719FFE76AFB8807F1BA
:107DC0000805E6B1012B22D929462046FFF7D8FF46
:107DD000054629462046FFF7D3FF228E3A44121A61
:107DE0000146A0EB050602D0284602F0F1FF636BC6
:107DF0009B1B6363FB88013BFB80012601E0002B9A
:107E0000E7D101A8FFF7F8FE304603B0F0BD002629
:107E1000F7E700002DE9F0470D4604462F461646C9
:107E2000FFF7A8FE154B57F8082B2360144BE562AB
:107E30009A422686984617D1AB889BB2B34213D19B
:107E400005EB060A67634FF00009EB881FFA89F219
:107E50009BB29A420ED2616B2046FFF791FF5045CC
:107E6000606309F10109F0D90023C5F80080676358
:107E7000AE80EB802046BDE8F08700BF34B90D002E
:107E800061AB9CD110B5D1E9002386B00021044636
:107E900004910AB9D90705D5CDE902230F4B059303
:107EA0000F4B049302AB93E803006A4682E8030099
:107EB00094E8030083E8030092E80300049A84E84E
:107EC0000300A168A260059A04911846E168E26087
:107ED0000591FEF7EBFA204606B010BDBD7A0D0005
:107EE000A37A0D0007B5054B0093694600231030B7
:107EF0000193FFF7C7FF03B05DF804FB2D7F0D0072
:107F000013B5044600F032F9636AC01AE368984278
:107F100008D3054B00936946002304F11000019338
:107F2000FFF7B0FF02B010BD2D7F0D002DE9F0412D
:107F300090F82A3086B00446002B64D100F07AFB1A
:107F4000002860D000F012F9636AC01A40F2F133E1
:107F5000984258D9236820465B699847054600280F
:107F600051D000F10807012384F82830384602F088
:107F7000A4FF95F80480CDF8048001302B682B49CC
:107F800000933E1833462A483A46FCF79EF92B6880
:107F90008DF800803246394602A800F027FF029D86
:107FA0006B781BB9012000F04DFCF8E7002000F0D1
:107FB000CFFA20B16B7813B900F02CFBFAE72B78DD
:107FC000012B23D11B491A48FCF77FF923680021B4
:107FD0009B6920469847002384F8283000F0C6F8B3
:107FE0006062039C7CB16368013B63605BB923689A
:107FF00020469B689847A368013BA3601BB9236890
:108000002046DB68984706B0BDE8F081E2680A497F
:108010000748FCF75AF9094B049304A9002304F11B
:1080200010000593FFF72EFFD5E700BF9BB80D00AA
:10803000E0E50320BCB80D00D3B80D00017F0D00B2
:10804000014B024A1A607047E0E50320FAB80D00C0
:10805000014B01221A707047E4E5032008B5024B7A
:108060001B685B6C019308BD7402030008B5024BEA
:108070001B689B6C019308BD7402030008B5024B9A
:108080001B685B68019308BD4802030008B5024BFA
:108090001B68DB68019308BD4802030008B5024B6A
:1080A0001B68DB69019308BD4802030008B5024B59
:1080B0001B681B6B019308BD4802030008B5024B07
:1080C0001B685B6B019308BD4802030008B5024BB7
:1080D0001B689B6B019308BD4802030008B5024B67
:1080E0001B681B6C019308BD4802030008B5024BD6
:1080F0001B685B6C019308BD4802030008B5024B86
:108100001B689B6C019308BD4802030008B5024B35
:108110001B68DB6E019308BD4802030008B5024BE3
:108120001B685B6E019308BD3402030008B5024B67
:108130001B68DB6E019308BD3402030008B5024BD7
:108140001B685B68019308BD1802030008B5024B69
:108150001B689B68019308BD1802030008B5024B19
:108160001B68DB68019308BD1802030008B5024BC9
:108170001B685B69019308BD1802030008B5024B38
:108180001B689B6B019308BD1802030008B5024BE6
:108190001B68DB6B019308BD1802030008B5024B96
:1081A0001B689B6D019308BD1802030008B5024BC4
:1081B0001B68DB6D019308BD1802030008B5024B74
:1081C0001B685B6E019308BD1802030008B5024BE3
:1081D0001B689B6E019308BD1802030008B5024B93
:1081E0001B681B68019308BD2C02030008B5024BF5
:1081F0001B689B68019308BD2C02030008B5024B65
:108200001B68DB68019308BD2C02030008B5024B14
:108210001B681B69019308BD2C02030008B5024BC3
:108220001B685B69019308BD2C02030008B5024B73
:108230001B681B6A019308BD2C02030008B5024BA2
:108240001B685B6A019308BD2C02030008B5024B52
:108250001B68DB68019308BD2802030008B5024BC8
:108260001B689B69019308BD2802030008B5024BF7
:108270001B68DB69019308BD2802030008B5024BA7
:108280001B681B6A019308BD2802030008B5024B56
:108290001B685B6A019308BD2802030008B5024B06
:1082A0001B689B6A019308BD2802030008B5024BB6
:1082B0001B68DB6A019308BD2802030008B5024B66
:1082C0001B681B6B019308BD2802030008B5024B15
:1082D0001B685B6B019308BD2802030008B5024BC5
:1082E0001B681B6C019308BD2802030008B5024BF4
:1082F0001B689B6C019308BD2802030008B5024B64
:108300001B68DB6C019308BD2802030008B5024B13
:108310001B681B6D019308BD2802030008B5024BC2
:108320001B685B69019308BD6402030008B5024B3A
:108330001B689B68019308BD6802030008B5024BE7
:108340001B68DB68019308BD6802030008B5024B97
:108350001B681B68019308BD3002030008B5024B7F
:108360001B685B69019308BD3002030008B5024B2E
:108370001B68DB69019308BD3002030008B5024B9E
:108380001B681B6A019308BD3002030008B5024B4D
:108390001B685B6A019308BD3002030008B5024BFD
:1083A0001B68DB6B019308BD3002030008B5024B6C
:1083B0001B681B6C019308BD3002030008B5024B1B
:1083C0001B685B6C019308BD3002030008B5024BCB
:1083D0001B681B68019308BD3C02030008B5024BF3
:1083E0001B68DB68019308BD3C02030008B5024B23
:1083F0001B681B69019308BD3C02030008B5024BD2
:108400001B685B69019308BD3C02030008B5024B81
:108410001B689B69019308BD3C02030008B5024B31
:108420001B68DB69019308BD3C02030008B5024BE1
:108430001B681B6A019308BD3C02030008B5024B90
:108440001B689B6A019308BD3C02030008B5024B00
:108450001B681B68019308BD4C02030008B5024B62
:108460001B681B69019308BD4C02030008B5024B51
:108470001B685B69019308BD4C02030008B5024B01
:108480001B689B69019308BD4C02030008B5024BB1
:108490001B68DB69019308BD4C02030008B5024B61
:1084A0001B681B6A019308BD4C02030008B5024B10
:1084B0001B685B6B019308BD6002030008B5024BAB
:1084C0001B681B6D019308BD6002030008B5024BD9
:1084D0001B685B6D019308BD6002030008B5034B88
:1084E0001B68D3F89830019308BD000060020300B8
:1084F00008B5024B1B681B68019308BD20020300EE
:1085000008B5024B1B685B68019308BD200203009D
:1085100008B5024B1B685B69019308BD200203008C
:1085200008B5024B1B689B69019308BD200203003C
:1085300008B5024B1B681B6A019308BD20020300AB
:1085400008B5024B1B68DB6A019308BD20020300DB
:1085500008B5024B1B68DB6C019308BD20020300C9
:1085600008B5024B1B685B6D019308BD2002030038
:1085700008B5024B1B689B6D019308BD20020300E8
:1085800008B5024B1B68DB6D019308BD2002030098
:1085900008B5034B1B68D3F88830019308BD000071
:1085A0002002030008B5034B1B68D3F894300193F5
:1085B00008BD00002002030008B5034B1B68D3F878
:1085C000A830019308BD00002002030008B5034B4A
:1085D0001B68D3F8AC30019308BD000020020300F3
:1085E00008B5034B1B68D3F8B030019308BD0000F9
:1085F0002002030008B5024B1B681B68019308BDED
:108600004402030008B5024B1B685B68019308BD78
:108610004402030008B5024B1B689B68019308BD28
:108620004402030008B5024B1B68DB68019308BDD8
:108630004402030008B5024B1B685B69019308BD47
:108640004402030008B5024B1B68DB69019308BDB7
:108650004402030008B5024B1B681B6A019308BD66
:108660004402030008B5024B1B685B6A019308BD16
:108670004402030008B5024B1B68DB6A019308BD86
:108680004402030008B5024B1B681B6B019308BD35
:108690004402030008B5024B1B685B6B019308BDE5
:1086A0004402030008B5024B1B689B6B019308BD95
:1086B0004402030008B5024B1B68DB6B019308BD45
:1086C0004402030008B5024B1B685B6C019308BDB4
:1086D0004402030008B5024B1B685B68019308BDA8
:1086E0004002030008B5024B1B689B68019308BD5C
:1086F0004002030008B5024B1B68DB68019308BD0C
:108700004002030008B5024B1B681B69019308BDBA
:108710004002030008B5024B1B685B69019308BD6A
:108720004002030008B5024B1B689B69019308BD1A
:108730004002030008B5024B1B68DB69019308BDCA
:108740004002030008B5024B1B681B6A019308BD79
:108750004002030008B5024B1B681B6B019308BD68
:108760004002030008B5024B1B685B6B019308BD18
:108770004002030008B5024B1B681B68019308BD4B
:108780001C02030008B5024B1B685B68019308BD1F
:108790001C02030008B5024B1B689B68019308BDCF
:1087A0001C02030008B5024B1B681B69019308BD3E
:1087B0001C02030008B5024B1B68DB69019308BD6E
:1087C0001C02030008B5024B1B685B6A019308BDDD
:1087D0001C02030008B5024B1B68DB6A019308BD4D
:1087E0001C02030008B5024B1B681B6B019308BDFC
:1087F0001C02030008B5024B1B685B6C019308BDAB
:108800001C02030008B5024B1B689B6C019308BD5A
:108810001C02030008B5024B1B68DB6C019308BD0A
:108820001C02030008B5024B1B681B6D019308BDB9
:108830001C02030008B5024B1B685B6D019308BD69
:108840001C0203000021FFF763BE10B583680446D5
:108850000BB901F0ECFDC3689847A3681BB1032274
:1088600021462046984720461021BDE8104001F0DF
:10887000D8BD10B50446006808B1FFF73FFC20469C
:1088800010BD0B68036013B15A6801325A6070471B
:1088900010B5064C002320462360FFF727FC204636
:1088A000034A0449BDE8104001F0B6BDE8E50320E5
:1088B000F8E1032073880D00002240681146FFF79D
:1088C00021BF002240681146FFF73CBF00224068EC
:1088D0001146FFF747BF40680022FFF73BBF4068E3
:1088E000002281F00101FFF725BF002340681A46EE
:1088F0001946FFF717BF002340681A461946FFF7CD
:1089000009BF002240681146FFF7ECBE4068002214
:108910000221FFF7EFBE002340681A46FFF7DABED8
:10892000F0B51B4B036000250F4628331826C0E91D
:10893000025589B04360324629460446103002F0A1
:1089400061FA78682A462946FFF7DCFE18B9A0606C
:10895000204609B0F0BD2946324602A8CDE90055AF
:1089600002F050FA02A96846ADF80860FFF776FBFE
:1089700010B10123A360EBE7009B019AA360E260C2
:108980000BB90223A36002A9204600F0AEF8DFE78E
:1089900090B90D00084B10B5282422461846002136
:1089A00002F030FA054B04804FF0FF32426004229F
:1089B0005A60034A1A6010BDF4E50320ECE5032079
:1089C0005CB90D007047007D704710B52821044642
:1089D00001F027FD204610BD037D7BB1C369002B4C
:1089E0000CDB07EE903A9FED077AF8EEE77A87EE18
:1089F000870ADFED057A20EE270A7047BFEE000AEE
:108A0000704700BF00FF7F470000C842037D63B18D
:108A10008369B3F1004F08D007EE903A9FED047AD6
:108A2000F8EEE77A87EE870A70479FED020A7047F3
:108A30000000C84200000000037D7BB1436A002BA8
:108A40000CDB07EE903A9FED077AF8EEE77A87EEB7
:108A5000870ADFED057A20EE270A7047BFEE000A8D
:108A6000704700BF00FF7F470000C842037D63B12D
:108A7000036AB3F1004F08D007EE903A9FED047AF5
:108A8000F8EEE77A87EE870A70479FED020A704793
:108A90000000C8420000000070B50C1E06460ADA4D
:108AA0002D2100F033FD614205460A22304600F0D8
:108AB0003CFD284470BD21460025F6E770B50C4604
:108AC000054681682046FFF7E7FF2C210646204631
:108AD00000F01CFDE96806442046FFF7DDFF304446
:108AE00070BDA0F10400FFF7E9BF30B50D4600F1FD
:108AF00010040FCD0FC495E8030084E803000120A3
:108B000030BD70470020704710B51021044601F0B9
:108B100088FC204610BD08B5FFF7F6FF08BD30B54C
:108B200000224FF69C74026084808D888C800C68D3
:108B3000858004600A6030BD10B504460068FFF708
:108B400021FE204610BD38B5C468F4B12378022B4D
:108B500003D104F10C00FFF7EFFF656835B128463B
:108B6000FDF7A4FC1021284601F05BFCA56835B197
:108B70002846FDF79BFC1021284601F052FC2046B8
:108B80001421BDE8384001F04CBC38BD10B588B0A8
:108B90000446684600F027FE694604A800F046FE39
:108BA00004A8A047044604A800F0D2FD684600F0DF
:108BB000CFFD204608B010BD1FB50023CDE902014E
:108BC000019210241A4669461846ADF80230ADF8F5
:108BD0000040FFF717FD04B010BD07B50823ADF83E
:108BE000003003688DF80230037A8DF803300021DD
:108BF000436801936846FFF765FD03B05DF804FB29
:108C000007B50823ADF8003003688DF80230037A09
:108C10008DF803304368019300236A461946022009
:108C2000FFF740FD03B05DF804FB73B50E46044644
:108C300056F8043B00930D4601A83146FFF721FE8C
:108C4000019A009B6260236001A8002301930093B6
:108C5000FCF71EF83046FCF71BF82846082101F007
:108C6000E0FB204602B070BD826810B50AB901F081
:108C7000DEFBBDE81040C368184708B5006800F186
:108C80001001FFF7F1FF08BD826810B50AB901F0C5
:108C9000CEFBBDE81040C368184708B5006800F176
:108CA0001001FFF7F1FF08BD38B50023044603604B
:108CB00010200D46FBF7EFF928B10123C0E901337D
:108CC000024B0360C5602060204638BDC4B90D006A
:108CD00038B5002383608B6804460D462BB1022211
:108CE0009847EB68E360AB68A360204638BD00009E
:108CF000F0B589B004686846FFF711FF4FF0020332
:108D0000D4E84F2F002A03D1C4E8413F0029F7D10E
:108D100025D104F10C0569462846FFF700FFBFF393
:108D20005B8F01236370002004F10803BFF35B8FA6
:108D300053E8006F43E80002002AF9D1BFF35B8FCC
:108D40006EB1FFF705FC78B129463046FFF78CFF7E
:108D50003046FDF7ABFB1021304601F062FB684660
:108D6000FFF7EAFE09B0F0BD314602A8FFF7B0FFF9
:108D7000E068B4F9105008B102F082F806901020B3
:108D8000ADF81C50FBF787F90546E8B1002787606E
:108D90001820FBF780F9044688B10146876002A8D5
:108DA000FEF723F9049BA268A360059B049206A921
:108DB000E268E36004F110000592FFF7B0FE084B93
:108DC000EB60084B2C60AB6006A8FFF7B5FE02A86D
:108DD000FDF76CFB002229460348FFF7C1FBB7E70C
:108DE0007B8C0D00118F0D004B880D002DE9F04795
:108DF0008AB005469DF848900C4617469846FFF7FE
:108E000019FC07AE824638BB4FF62E73059005A9B4
:108E10003046ADF81830FFF782FE1420FBF73BF91F
:108E2000044648B1022303700123C0E901AA43703C
:108E300031460C30FFF773FE2846214640F8044BBC
:108E4000FFF732FF3046FFF777FE05A8FFF774FE05
:108E500028460AB0BDE8F0870C234FF0000A142022
:108E6000CDE908AA0793FBF716F9014628B1C0E936
:108E700001AA80F800A080F801A004A80391FFF7E0
:108E800013FF224B08930820FBF705F9824628B10F
:108E9000039B40F8043B04A9FFF7F3FC00965FFA3C
:108EA00089F3424639462046CDF824A0FFF7D2FB8D
:108EB000B8B9039B5B7803F0FF0293B94FF69C733C
:108EC00005A903A80592ADF81830FFF711FF05A812
:108ED000FFF732FE05A80999FFF7A7FE06A8FBF7E2
:108EE000D7FE039B059304A906A8FFF7CAFC059BC0
:108EF000069A2B606A60002306A806930593FBF789
:108F0000C7FE04A8FBF7C4FEA2E700BFD58F0D0083
:108F1000022AF8B5054607D0032A18D0012A01D144
:108F20000B6803600020F8BD18200E68FBF7B3F84B
:108F3000044650B13146FFF7CBFE3069B6F91470E4
:108F400008B101F09DFF2061A7822C60EAE7046868
:108F5000002CE7D004F11000FFF7EEFD2046FDF7EE
:108F6000A5FA1821204601F05CFADBE738B50023AA
:108F700083608B6804460D462BB102229847EB684C
:108F8000E360AB68A360204638BD022A70B5044692
:108F900007D0032A12D0012A01D10B6803600020F8
:108FA00070BD14200E68FBF776F8054620B13146F7
:108FB000FFF7DCFF337C2B742560F0E70468002C9E
:108FC000EDD02046FDF772FA1421204601F029FA6F
:108FD000E5E70000F0B589B004460D4601A811464A
:108FE000FFF723FEA4B124B21DB1284601F048FFCB
:108FF000054601A803A90395ADF81040FFF778FED8
:1090000003A8FFF799FD02A8FBF742FE09B0F0BDE7
:10901000019D0123D5E84F2F002A03D1C5E8413F28
:109020000029F7D1EFD12B73BFF35B8F6B702B1D32
:10903000BFF35B8F53E8006F43E80042002AF9D189
:10904000BFF35B8F002EDED02046FFF781FA074684
:1090500060B105F10C013046FFF716FE3046FDF712
:1090600025FA1021304601F0DCF9CCE7314603A89F
:10907000FFF77CFF2B7B8DF81C301020FBF70BF8E3
:109080000546D0B187601420FBF705F8044678B197
:109090008760014603A8FDF7A8FF059BA268A360AF
:1090A000069B0592E268E3609DF81C3006922374EB
:1090B000064BEB60064B2C60AB6003A8FDF7F6F99E
:1090C000002229460348FFF74BFAC7E79B8C0D00A7
:1090D0008B8F0D004B880D00002240681146FFF772
:1090E00031BB002240681146FFF73CBB40680022BC
:1090F000FFF730BB4068002281F00101FFF71ABB87
:10910000002340681A461946FFF70CBB002340684D
:109110001A461946FFF7FEBA002240681146FFF7CB
:10912000F1BA002240681146FFF7DCBA406800221D
:109130000221FFF7DFBA002340681A46FFF7CABAD8
:10914000024B03225A60024A1A6070471CE6032051
:10915000E0B90D007047F8B5064615460C468F1865
:10916000BC4206D0336814F8011B9B683046984710
:10917000F6E72846F8BD007C0022FFF77FB8007CA8
:109180000021FFF783B8007C0021FFF787B8007C3F
:109190000021FFF78BB8007C0021FFF78FB810B5D6
:1091A0001421044601F03DF9204610BD10B54FF4DE
:1091B0007A73044608460021C4E90113034B236077
:1091C00020741146FFF78AF8204610BD14BA0D002E
:1091D0000023007C1A461946FFF738B87FB50022F5
:1091E0001423CDE90122ADF804300B788DF8083056
:1091F0004B680393CB680493007C0B7A059301A919
:10920000FFF784F807B05DF804FB1FB5003B8DF84D
:1092100000104FF06401039118BF012369460192C9
:109220008DF80830FFF7DAFF05B05DF804FB007C2D
:109230000022FFF713B8C9B2FFF7F9BF007C002284
:10924000FFF714B808B50021007CFFF74FF8B0FA1B
:1092500080F0400908BD08B50021007CFFF74EF8FA
:10926000B0FA80F0400908BDFEF7E8BFFEF7DEBFA8
:10927000704710B51821044601F0D3F8204610BD00
:10928000F0B5037D062B8DB00E4600F104074FF0BC
:10929000000412D000F1080515F8011D0A2230461D
:1092A00000F043F9AF42044419D0002CF4D02E2131
:1092B000304600F02BF90444EEE72F236A46394686
:1092C0000A208DF80040FFF729F8684601F0F5FD07
:1092D00033680246DB6869463046984704462046B4
:1092E0000DB0F0BD10B5054B0446112240F8043B0B
:1092F000002101F087FD204610BD00BF3CBA0D00E3
:109300000346074A10B543F8042B01F1100251F847
:10931000044B43F8044B9142F9D10A781A7010BDFE
:109320003CBA0D0010B59DF8084044EA032343EA17
:10933000024242EA016104234160037510BD13B586
:10934000CB7800938B784A780978FFF7EBFF02B06F
:1093500010BD0000014B024A1A60704724E603204A
:1093600048BA0D00002340681A46FFF7B3B94068B9
:1093700000220221FFF7BEB9002240681146FFF724
:10938000B1B9002240681146FFF7BCB9002340681C
:109390001A461946FFF7BEB9002340681A46194617
:1093A000FFF7C0B94068002281F00101FFF7C2B9A0
:1093B00040680022FFF7CEB9002240681146FFF74F
:1093C000D1B9002240681146FFF7BCB92DE9F0433E
:1093D000002495B016460D460746FFF783FF214649
:1093E00018220EA8009401F00DFD4023CDE90C34A5
:1093F00021466B460CAA3046FEF7A0FF0446002823
:1094000046D1024601216868FFF77CF902218046B7
:1094100022466868FFF776F9009E81462146002EB5
:1094200036D0002934D17368022B03D00A2B0BD01D
:10943000F669F4E7B8F1000F04D0716938460431D9
:10944000FFF77DFF4146F3E7B9F1000F01D149462F
:10945000EEE77469102201A801F0D4FC06238DF810
:10946000143001AD04F108031834186859682A460D
:1094700003C20833A3421546F7D101A906A807ADD8
:10948000FFF73EFF0FCD3C1D0FC42B682370DEE7B6
:109490000098FEF74BFF384615B0BDE8F08300009A
:1094A000024B034A1A6000225A60704728E60320E4
:1094B00054BA0D00F8B506460D468F180024BD427B
:1094C0000CD0336815F8011B9B6830469847031E83
:1094D00001DB1C44F3E7002C08BF1C462046F8BD06
:1094E00013B50446084659B1019101F0E6FC236822
:1094F0000199DB680246204602B0BDE810401847DB
:1095000002B010BD08B5FFF7EBFF08BD03689B680C
:10951000184738B50D210546FFF7F8FF0A21044624
:109520002846FFF7F3FF204438BD30B58BB0002349
:109530008DF82430012A98BF0A2209AC0D46B1FBF0
:10954000F2F101FB125303F0FF03092B94BF3033F8
:109550003733DBB2AA4204F8013DEFD92146FFF7C9
:10956000BFFF0BB030BD2DE9F04186B000AF05461E
:109570000E46381D142114463B60FFF723F91328CB
:109580000ED8391D2846FFF7ABFF04461EB128460A
:10959000FFF7BFFF044420461837BD46BDE8F08101
:1095A00000F1080323F00703E846ADEB030D224664
:1095B000411C3B686846FFF705F969462846FFF7F6
:1095C0008FFF0446C546E1E710B50446FCF76EFF81
:1095D000204610BD0348044A04490023836000F07C
:1095E0001BBF00BF30E60320F8E10320C9950D0042
:1095F0000021FEF7DBBE0021FEF7E0BE10B50446F9
:1096000008462170FEF7B2FE00236360204610BDBD
:1096100013B5044600780191FFF7EAFF019940B9BC
:109620002078FEF793FE207802B0BDE81040FFF7E7
:10963000E2BF02B010BD0078FFF7DDBF400830B5D3
:109640001860002418688842E5B206D90134082C55
:1096500002D040081860F5E70725024B5B5D1370E8
:1096600030BD00BF80BA0D002DE9F04306468FB033
:1096700000780D46FFF7BCFF00281BDB347814226E
:10968000002109A801F0BEFB0B23002209A92046F6
:10969000ADF82430FEF77AFE9DF82D3013B19DF819
:1096A0002C4054B10027B946B84601242B795CB14F
:1096B000C3B100200FB0BDE8F083DDF830809DF825
:1096C00034909DF83570F1E7002B35D1AB684345F8
:1096D00008D18DF820908DF82170BDF82020AB893D
:1096E0009A42E6D00023A9688DF80F300A9804AB9F
:1096F0000DF10F02FFF7A2FF297984B989B9AB6890
:1097000043450ED38DF820908DF82170BDF82020B0
:10971000AB899A4205D1049B434502D1C9E7002990
:10972000F9D1002301936B7B00939DF80F202B7BD5
:109730003078FEF733FEBCE7CDE9004423462246ED
:109740000121F5E708B50078FEF708FEC0B208BDB4
:1097500010B504460068FFF715F8204610BD10B597
:109760000446006808B1FFF70DF80023C4E901338F
:10977000236010BD38B504460D4600680131FFF77F
:1097800009F810B1C4E90005012038BD10B503681F
:10979000044623B143688B4201D3012010BD20460B
:1097A000FFF7E8FF0028F9D0A368002BF5D1226865
:1097B0001370F2E737B50D46114601920446FFF7E4
:1097C000E5FF019A28B92046FFF7C9FF204603B0FC
:1097D00030BDA2602946206801F0ECFA2268A36837
:1097E0000021D154F2E7002313B5C0E90033044649
:1097F0008360037341B10846019101F05EFB01995A
:1098000002462046FFF7D6FF204602B010BD884230
:1098100010B5044605D00B682BB18A681946FFF7CE
:10982000C9FF204610BDFFF79AFFFAE710B50023E5
:109830000446C0E9003383600373FFF7E8FF204666
:1098400010BD08B582683AB921B10878B0FA80F045
:10985000400900E0012008BD006809B90078F5E77B
:1098600001F0FCFAF2E758B50E462AB121B184683E
:109870009C4202D800230B7058BDE41A013A0168DB
:10988000944228BF144619442246304601F01DFB7D
:1098900000233355F0E700000EB470B587B00BAD70
:1098A000044655F8042B01922B46052104A8039584
:1098B000FEF788FF0B4906462046FFF794FF314626
:1098C0002046FFF763FF206830B1019A03952B46CD
:1098D000711CFEF777FFA060204607B0BDE870401E
:1098E00003B0704730B20D0010B50446006818B1DF
:1098F000FEF748FF0023236010BD38B5B1F90430EE
:1099000083800B460D4653F8062FC0F806209B882F
:1099100043810446FFF7E8FF2B6813B1236000235F
:109920002B60204638BDB1F904300A6810B533B950
:1099300032B951F8063F03608B88838010BD22B195
:109940009488012C03D0042C06D0042205E09289CF
:109950004A818C710B81ECE702220B814FF6FF7379
:109960008A714B81E5E7000038B50C460546FFF7E4
:10997000BBFF44B12088FEF7FDFE286028B1228895
:10998000214601F017FA002038BD0148FCE700BF6E
:10999000FCFEFFFF07B50B460021024600910120A7
:1099A0008C21FEF71DFE03B05DF804FB014600208C
:1099B000FFF7F0BF0020FFF7F9BF0000F0B52D4D15
:1099C0000B7D04468BB00846AF1D002B38D00B68CA
:1099D0001B79002B34D00022274B049302A90430BA
:1099E0000292ADF80C208DF80E20FEF7EFFDDDF8A9
:1099F0000E30C5F8063000B2BDF81230ADF80C00DC
:109A0000A8800299BB802846FFF7AEFF02A8FFF7A7
:109A10006BFF00232360A380A37123814FF6FF73A4
:109A20006381B5F90430A3803B68C4F80630BB8875
:109A3000296863812046FFF797FF20460BB0F0BDF1
:109A400000262023CDE902360C4B00930C49334607
:109A500002AA3220FEF732FD074B049302A94FF60B
:109A6000F263044802968DF80E60ADF80C30FFF7F3
:109A700044FFCBE740E603200000FFFF8FBA0D0054
:109A800088BA0D0030B5044685B0084611461A461E
:109A90000023FEF745FD0D4DADF80C00002301A994
:109AA0000193ADF808308DF80A3028464FF6FF7361
:109AB000ADF80E30FFF721FF01A8FFF715FF204694
:109AC0002946FFF730FF204605B030BD40E60320B1
:109AD00010B5094B094C022200201A60084B206087
