:02000002D0002C
:1040000000400D00B4C60D00000006000D000501C3
:084010000401DB0700000000C1
:0440180048B00D009F
:1040200009480A49884208B505D0094A824202D0A7
:10403000121A06F0E7FE0748074A0021121A06F096
:1040400009FF014808BD00BFC0E003204CC50D00BA
:10405000FCE1032000E20320F4E7032070B5074EE3
:10406000074C06F0FBF8A41BA4080025A54200D1CC
:1040700070BD56F8043B98470135F7E7FCBC0D00CE
:1040800030BD0D0000F08CBF08B501F081F9BDE82E
:10409000084006F0A5B804F095BB04F093BB04F00B
:1040A00099BB000008B5034A00210C2004F026FA51
:1040B000FEE700BFAD810D000078B0FA80F0400946
:1040C0007047012303707047014B1A60704700BFAF
:1040D000F4E0032038B50446006928B185680C2156
:1040E00006F0C7F92846F8E7204638BD08B5044968
:1040F00005F0CFFB18B1034803F088F9012008BD93
:10410000A0B00D001CE3032008B5044905F0C1FB75
:1041100018B1034B03221A70012008BDA0B00D0096
:1041200088E5032010B5034B0360044603F072FDDD
:10413000204610BD90B40D0010B50446FFF7F2FF05
:104140002046382106F095F9204610BD10B5034BE6
:104150000360044603F03AF9204610BD74B40D0024
:1041600010B50446FFF7F2FF2046102106F081F952
:10417000204610BD08B504F085FA20B1BDE808401E
:10418000002004F09FBA08BD08B5002004F0A2FA90
:1041900028B104F077FA80F00100C0B208BD012018
:1041A000FCE70023042204F04DBA10B500210446B8
:1041B000084603F09BFFD4F8A0400021012003F043
:1041C00095FFE0B210BD10B50446006808B104F0D8
:1041D00001FB204610BD0000F8B5037D05460F46E3
:1041E00016468BB10368DB6883B19A88012A06D032
:1041F0009B68F9E79B684BB19A88012AFAD12BB1E9
:104200009A89BA42F6D19E732846F8BD0A49102011
:1042100006F031F9044668B11022002106F01AFEBA
:10422000064B23600123A3802B69A360A781A6739B
:104230002C61E9E72875E7E7A0BB0D00100003003B
:10424000002003F0DBBF0EB410B58DB00FAA0168DB
:1042500052F8044B039200232020CDE90403CDE95A
:1042600000421E2004AA04F059F90DB0BDE8104028
:1042700003B0704737B504689DF818508DF80030CA
:104280008DF80450E4683C23A04703B030BD000023
:1042900030B50B781B4D93B00C468BB91A4902A868
:1042A00006F00EFE2B794BB100238DF80030174B32
:1042B00017491B78174802AAFFF7DCFF13B030BD7F
:1042C000084606F077FDC8280DD1134902A806F06C
:1042D000F7FD05F004FE114BE86101221A70104B46
:1042E00000221A70DEE7204606F064FDC928ECD0F3
:1042F000204606F05FFD0B4A0346402102A804F069
:1043000081FACFE78CE50320E0B00D0060E20320E6
:1043100017B10D004CE50320E8B00D00B0E5032017
:10432000FEE20320FAB00D0037B51949044605F046
:10433000B0FA0546B0B1174B01241C71164B1C7026
:1043400004F0A0F910B9012003B030BD00238DF8AE
:104350000030124B124A1B7812491348FFF78AFFAC
:104360002046F1E71149204605F093FA0028EBD0EA
:10437000084B1D71084B01241C7004F083F90028C0
:10438000E1D0064B8DF800501B78094AE4E700BFE6
:10439000A0B00D008CE50320B0E5032060E203200F
:1043A00024B10D0047B10D004CE5032035B10D00DF
:1043B00037B10D00000000002DE9F047C8B080467D
:1043C000FFF7D8FEFFF73CFF4FF0000A814647F2A7
:1043D0002F560027FFF734FFB0EB090461EB0A0505
:1043E000AF4208BFA64205D3FFF7CEFE10B904F0D6
:1043F00039F9EFE7FFF7C8FED8F800000A2203A951
:1044000006F018FE00F10C03DBB2182B48D845B2B9
:1044100007EE905A264BB8EEE70A012483ED050A11
:1044200005F0F4FB234B1C7005F09EFD064605F0DD
:1044300056FD301A06F078F91BA3D3E9002306F0E5
:1044400007FB1D4ACDE900010A211C4804F0DAF9F6
:1044500004F018F910B32B46194A1A4D4FF4807125
:10446000002608A804F0CEF98DF8006016492B78D4
:10447000164808AAFFF7FEFE05F031FD0246C317F5
:1044800004A805F029FC8DF800602B78049A0E49E9
:104490000E48FFF7EFFE04A805F082F9204600E081
:1044A000002048B0BDE8F087000000000020AC40CC
:1044B0008CE50320B0E503204CB10D00F4E20320AD
:1044C00056B10D0060E203206AB10D004CE50320F7
:1044D00030B5C5B00A22006803A906F0ABFDC3B22F
:1044E0005A1E3B2A1FD8114A114D1248AB710124A4
:1044F00014700C21104A04F085F9AB790F4A4FF47F
:10450000807104A804F07EF904F0BCF848B10023DF
:104510008DF800300A4B0B491B780B4804AAFFF7B3
:10452000A9FE204600E0002045B030BDB0E50320E4
:104530008CE5032004E1032086B10D006FB10D006E
:1045400060E2032023B30D004CE503202DE9F04F7A
:10455000234B244C9D68A2691B69D3B0D4E9006742
:10456000D4E90289D4E904AB1193109205F0B7FCA9
:1045700094ED0A7B119B08938DED0E7B94ED087BE7
:10458000194B109A0A908DED0C7BCDE906530992D8
:10459000CDE904ABCDE90289CDE90067134A4FF4B8
:1045A000807112A804F02EF900238DF80030104B12
:1045B00010491B78104812AAFFF75CFE0F4B01222E
:1045C0001A7003F0FBFD0E4B186005F099FC0D4BC3
:1045D000186005F0A1FC0C4B186053B0BDE8F08FDB
:1045E0008CE50320B8E2032090E2032091B10D0096
:1045F00060E2032021B20D004CE50320FEE203201F
:10460000B4E50320ECE20320F0E203202DE9F043BF
:10461000534CA9B003F0D2FD2368C01AB0F57A7FDD
:104620002AD303F0CBFD4F4F206000217C68084661
:1046300003F05CFD2678646B0021012003F056FD39
:104640003D46E6B96868FFF7B0FD474A034680215A
:1046500008A804F0D7F8454808A9FFF7F4FD444B33
:104660001B794BB100238DF80030424B42491B7837
:10467000424808AAFFF7FEFD29B0BDE8F08303F029
:104680009DFD42F20F73001B9842DBD87D68DFF876
:10469000F8800021084603F029FD0FCD08AC0FC4B7
:1046A0000FCD0FC40FCD0FC495E8030084E80300BD
:1046B0000021012003F01AFD08A802F059FA51EC7C
:1046C000100B06F0CDFA06F041F87D68C8E9080144
:1046D0000021084603F00AFD0FCD08AE0FC60FCD2E
:1046E0000FC60FCD0FC695E8030084E80300002134
:1046F000012003F0FBFC08A802F05EFA51EC100B5D
:1047000006F0AEFA06F022F80D46002104467E6857
:104710000846C8E90A45D8E9088903F0E7FC002102
:104720000120D6F8806003F0E1FC7868FFF73DFDDA
:104730000690304605F0F8FF114B002206F088F98C
:1047400006F08EFA06F002F8CDE90245CDE9040143
:10475000CDE900890B4A802108A804F053F87AE7D4
:1047600064E203202CE303203CB20D0024E6032086
:104770008CE5032060E2032086B20D004CE50320A7
:104780000000594056B20D00B8E2032000000000BE
:1047900037B50546002412480022294602F0A6FC3F
:1047A0000F488DED010A02F07DFD9DED010A28B94B
:1047B0000134042CEFD19FED080B0AE0032CFAD052
:1047C000074802F055FD10EE100A05F0BFFF41EC5E
:1047D000100B03B030BD00BF000000000000F87FE8
:1047E00000E3032030B5194D0FCD99B004AC0FC4D0
:1047F0000FCD0FC495E8030084E8030014490EA808
:1048000004F0B6F80EA804F006F904460EA804F069
:104810000BF90EA810EE105A04F036F918AB10EE92
:10482000100A03EB840405F091FFCDE9020128464C
:1048300005F08CFFCDE90001064A54F8503C0648CB
:10484000402103F0DFFF19B030BD00BFB0B40D0050
:10485000ECE503208AB20D0010E2032010B52024FD
:1048600090B022460021684606F0F4FA2246002164
:104870000DEB04008DF8054006F0ECFA00210DEB7D
:1048800004008DF8254003F0BFFE41F27003ADF83F
:104890000630084B029341F21003ADF80C30009B38
:1048A000002143F400736846009303F0ADFE10B09E
:1048B00010BD00BF840384032DE9F84F1D48DFF8C5
:1048C00080A0406800231A46194603F04BFF03F00E
:1048D000D1FE4FF496744FF0000B40F2E7384FF0E2
:1048E0000009FFF7ADFC0546FFF7AAFC461B61EB8C
:1048F0000B07B94508BFB04505D303F0C3FE10B997
:1049000003F0B0FEF0E703F0BDFE20B103F0BAFE05
:1049100050B9BDE8F88F03F051FCCAF8000003F06D
:10492000A1FE013CDDD1F1E7034A0123D370034A24
:104930001370EEE7ECE503208CE50320B0E50320DF
:10494000D8E7032008B503F09DFE80F00100C0B257
:1049500008BD00002DE9F04385B0002601A8CDE98F
:1049600001668DF80C6004F060F9FFF769FCB14650
:10497000804643F697260027FFF762FCB0EB080459
:1049800061EB0905AF4208BFA64205D3FFF7DAFF86
:1049900010B903F067FEEFE7FFF7D4FF0A480023E2
:1049A00019461A46406803F0E5FE084B0022DA700B
:1049B000074B01244FF4FA601C7003F06BFF204694
:1049C00005B0BDE8F08300BFECE503208CE50320D3
:1049D000B0E5032030B5114D114C12492A782078EA
:1049E0008DB00E2303FB0212009203FB00130E4A4C
:1049F000282102A803F006FF2B78237003F042FE63
:104A000048B100238DF80030084B09491B7809484C
:104A100002AAFFF72FFC0DB030BD00BF88E50320D0
:104A200048E5032010E10320A3B20D0060E203205B
:104A3000B1B20D004CE5032030B585B0002301A8CC
:104A4000CDE901338DF80C3004F0EFF803F0B6FB3C
:104A500043F69725044603F015FE40B103F0AEFB84
:104A6000001BA84203D8642003F014FFF3E70021E1
:104A7000094B47F23052084603F020FB4FF47A709E
:104A800003F008FF054B0A221B68012101A805F06D
:104A900021F805B030BD00BFC2B20D005CE20320BA
:104AA0002DE9F347174B184D184A194919480024A6
:104AB0008DF800401B78FFF7DDFB2C71FFF75AFBE8
:104AC000FFF7BEFB47F22F5882464FF00009FFF771
:104AD000B7FBB0EB0A0661EB0407B94508BFB04568
:104AE00005D3FFF751FB10B903F0BCFDEFE7FFF76B
:104AF0004BFB00232B61084B01221A7002B0BDE86A
:104B0000F08700BF60E203208CE50320CFB20D00E8
:104B1000D7B20D004CE50320B0E5032038B505F011
:104B200007FA054605F018FA044605F00DFA231FAA
:104B3000062B0ED9E31E082B0DD801382D1A04D5EB
:104B40000B2C14BF0020012038BD072D03DD032CE2
:104B5000F7E70120F8E70020F6E70000000000007A
:104B600070B52DED028BC8B0054605F0B8F90A22E4
:104B7000044603A9286806F05DFAC3B2022B59D88F
:104B800043B208EE103AB8EEC88AB0EE480A05F013
:104B90005DF82D4B83ED068A2C4B01221A7018EE1E
:104BA000100A05F0D3FD2A4ACDE900014FF48071C7
:104BB00008A803F027FE05F075F928B1FFF7AEFF4E
:104BC000002834D005F060F805F0CEF9054605F070
:104BD00086F9281A05F0A8FD19A3D3E9002305F0EA
:104BE00037FF1C4ACDE900010A211B4803F00AFEE9
:104BF00003F048FDC8B1194D19491A4800268DF82F
:104C000000602B7808AAFFF735FB2246E31704A8BB
:104C100005F062F88DF800602B78049A104911486D
:104C2000FFF728FB04A804F0BBFD012003E005F01A
:104C300037F8C9E7002048B0BDEC028B70BD00BF5B
:104C4000000000000020AC408CE50320B0E503200C
:104C5000E5B20D004CB10D00F4E2032060E2032048
:104C60006AB10D004CE5032030B585B00D46002239
:104C70006946009203F05AFCB0B9009C0CB123695C
:104C800023B90A4A00210A2003F038FC0023ADF8BA
:104C900006300C23ADF804300423039302952369F6
:104CA00001AA01212046984705B030BDAD810D0015
:104CB00007B5072001A9FFF7D7FF0028A8BF019873
:104CC00003B05DF804FB000070B58CB005A90320AB
:104CD000FFF7CAFF002838D1BDF8143007EE903A2C
:104CE000FBEECC7A2A4D2B4E0FCD05AC0FC495E8C8
:104CF0000700FDEEE77A84E80700C6ED027AFFF7C9
:104D0000D7FF0CAB03EB8000234D50F81C3C234A2B
:104D10002348102103F076FD2B7834462E46BBB98C
:104D2000FFF7C6FF042813D101232B7005F0D7F835
:104D3000236AC01AB0F5615F28D8A368322BCCBFB4
:104D40000023012363710CB070BDFFEE007AC9E748
:104D5000FFF7AEFF022814D10023337005F0BFF82F
:104D6000206205F0BCF8C317024601A804F0B4FFA6
:104D7000019A0C48202103F045FD01A804F010FD24
:104D8000D4E7FFF795FF0328D0D1E5E70123D9E762
:104D9000D8B40D008CE5032068E203202BB60D008B
:104DA00090E20320D4E00320F7B5FFF72FFC244B5B
:104DB00000225868114603F0CDFC08B1FFF712FD40
:104DC000204D214F00242E463819FFF7E1FC51EC0D
:104DD000100B05F045FF07EE900AF4EE677AF1EE4E
:104DE00010FA03D605F0B2FCC5E900010834182C0E
:104DF00005F10805E8D1D6E900230C21CDE900230F
:104E00001248134A03F0FEFCD6E902230C21CDE937
:104E1000002310480E4A03F0F5FCD6E904230C21C8
:104E2000CDE900230C480A4A03F0ECFCFFF74CFFE5
:104E30000A4A012313700A4A137003B0F0BD00BF81
:104E4000ECE50320B8E2032000F40320C0E00320D7
:104E5000F6B20D0080E10320F8E00320B0E5032066
:104E6000E8E2032010B5274CFFF79EFFE378012B03
:104E700005D903F007FC002842D00123E370237911
:104E8000D4ED057A012B84BF00232371A3681D2B69
:104E9000CCBF0023012363712369BAEE087AFF2B8C
:104EA00088BF0023F4EEC77A88BF2361F1EE10FAC1
:104EB00006D4B2EE087AF4EEC77AF1EE10FA01DD0C
:104EC000114B6361D4ED067AF5EEC07AF1EE10FA7B
:104ED00006D4B0EE007AF4EEC77AF1EE10FA02DDF5
:104EE0004FF07E53A36104F0FAFF236A98423CBF5F
:104EF000002323620A23A371044B01221A7010BD00
:104F0000E070BCE78CE503200000A0C0B0E5032002
:104F100038B503681446DD682423A847204638BD09
:104F200037B5FFF7C9FCFFF73FFF03F0ABFB48B114
:104F300000238DF80030124B124A1B781249134897
:104F4000FFF798F9124CA3681D2BCCBF0023012357
:104F500063710A23A3710F4B63614FF07E530125E8
:104F6000A3610023E3612570257104F0B8FF224698
:104F7000206229460848FFF7CBFF03B030BD00BFD1
:104F800060E20320FEB20D0047B10D004CE50320A6
:104F90008CE503200000A0C01CE3032000000000FB
:104FA000F0B50021ADB0082005F0E0F900210420A3
:104FB00005F0DCF90121072005F0D8F901210720CF
:104FC00005F0E5F904A8002403F064FB00237D222A
:104FD0000CA904A804F06FFC23462246B249B34D45
:104FE000B34FCDE900440CA803F064FBB149B248CB
:104FF000FFF7D7F8B149B248FFF7D3F823460222AA
:10500000B049B14803F01EFBB049B148FFF7C9F8F9
:10501000B049B148FFF7C5F8B049B148FFF7C1F84A
:10502000B049B148FFF7BDF8B049B1482346022264
:1050300003F008FB23460222AE49AF4803F002FB0F
:10504000AE49AF48FFF7ADF8AE49AF48FFF7A9F852
:10505000AE49AF48FFF7A5F8AE4AAF49AF4803F0F5
:10506000D3FDAF4AAF49AD4803F0CEFDAE4AAF49DC
:10507000AA4803F0C9FDAE4AAE49A84803F0C4FDF2
:10508000AD4AAE49A54803F0BFFDAD498C4AA348DF
:1050900003F0BAFD0126032341F2883208A8CDE9C6
:1050A00008328DF8286003F0D3FDFFF705FCA54812
:1050B00002F0A2F93346A3480DF10F02214602F097
:1050C000DDF99DF80F30022B00F0D1809D4802F0F1
:1050D0009DF99D4A9B483346214602F01AFA334611
:1050E00098480DF10F02214602F0C8F99DF80F30E3
:1050F000022B00F0B9803E70944CFFF7B3FE944A47
:10510000002300214FF4802003F03AFA0823012104
:105110002046638101F068F801231A4610212046D9
:1051200000F0CDFD7C21A870204600F045FDAB7954
:10513000884A62480C2103F065FB95ED060A04F0ED
:1051400085FD04F0AFFE002840F09880AB78002B7E
:1051500000F09480804E2046314601F035F8D6E9C3
:10516000000104F0A5FDFFF7D9FC002800F08B80BA
:1051700004F08AFD95ED050A04F048FD04F0F4FE04
:10518000044604F0ACFE201A05F0CEFA44A3D3E99D
:10519000002305F05DFC714ACDE900010A21574862
:1051A00003F030FB0022114608A8089202F0E6FF47
:1051B000089B142B4FF0000268D12B6901332B613F
:1051C000674B01221A7000232A6A08A804F084FDA4
:1051D000089A4E48202103F015FB08A804F0E0FAD5
:1051E000FFF772FD5F4A57483023502102F046F91D
:1051F00004F086FE5C4B1860FFF730FB042005F0DE
:10520000DFF808B9FFF78CFE584801F06CFF5849E9
:10521000564801F04CFF5749544801F048FF5649A1
:10522000524801F044FF05F0F7F842220146534886
:1052300001F0DAF9514801F08DF900238DF80030C2
:105240004F4B504A1B7850495048FFF713F83B78B2
:105250000BB902233B700021072005F098F804A841
:1052600004F09EFA2DB0F0BDFFF75AFE44E7242368
:105270002A463146334802F001F93DE7FFF71CFBAF
:10528000FEF778FF6FE704F00BFD73E7114608A8FF
:10529000089202F073FF089B8C2B94D18DE700BF1E
:1052A000000000000020AC4091420D008CE503207E
:1052B00088E5032010E2032016B30D0004E103206B
:1052C0001DB30D009CE503202CB30D00C0E00320AE
:1052D00037B30D0080E1032041B30D00F8E0032057
:1052E0004AB30D00CCE0032056B30D0094E5032033
:1052F0005EB30D00D0E2032069B30D00F4E2032099
:1053000070B30D0090E203207BB30D00D4E00320C6
:105310008AB30D0097B30D00ED400D00DD8B0D003D
:10532000A1B30D0009410D00A9B30D0029430D00E3
:10533000B6B30D00B9430D00C3B30D00614B0D00B2
:10534000D1440D001CE30320F4B40D0070E20320EF
:10535000C9400D0086B10D0008E203204CB10D00DC
:10536000B0E50320B8E20320ECE2032000E30320D1
:1053700000F4032008F4032010F403202CE303209E
:1053800060E20320D1B30D00E2B30D004CE5032031
:10539000F0B5934C2378013B93B0052B30D8DFE870
:1053A00013F09D0106001201740049016D018D4D3D
:1053B0002B792BB18C4B1B78022B01D0FFF70AFB0A
:1053C0006B790BB104232370884E02F0F7FE32682C
:1053D000801AB0F57A7F13D904F09EFDAB7990FB6B
:1053E000F3F202FB1303002B44D104F095FD804B34
:1053F0001B6898423ED00323237002F0DFFE30602A
:105400007C4C7D4800F0D0FF237833B1754A7B484F
:105410000121FFF77DFD00232370794C23783BB1F8
:105420003023784A7548502102F073F80023237026
:10543000754B1B68002B1BDB744A402102A803F04C
:10544000E1F902A97248FEF7FEFE642003F022FA99
:1054500000238DF800306F4B6F491B786F4802AA0C
:10546000FEF708FF4FF4FA6003F014FA04F0CAFAEA
:1054700013B0F0BD04F050FD0028BED104F04CFD87
:105480005B4B1B689842B6D1B7E7564D2B792BB1D1
:10549000554B1B78042B01D0FFF79CFAFFF714FC47
:1054A0006B790BB9022325E004F019FDEB69C01AF2
:1054B000B0F5E15F20D9FFF7FFF9564B584A1B784A
:1054C0008DF8003057493C2302A803F0B7FC039D38
:1054D0007DB16B68013B6B605BB92B6828469B68AC
:1054E0009847AB68013BAB601BB92B682846DB686B
:1054F00098470523237083E704F00EFD012803DDA0
:10550000EB780BB1FFF726FA0021072004F03FFFEC
:105510000021394800F050FB04F0FEFC424B1A7D9C
:1055200004460AB102221A723F4800220421FEF703
:1055300053FE037D06465BB33C23C4F13C00584355
:10554000B0F5616FA8BF4FF4616033680128B8BF40
:1055500001204FF47A77DB6847432BB19A88042AFD
:1055600000F027819B68F8E73049102004F083FFA2
:105570000446002800F01B811022002105F06AFC7F
:105580002B4B23600423A3803369C4E902373461C1
:10559000254902A804F03AFA17484FF0FF3100F00D
:1055A0000BFB029B43B19A88012A05D19B89042BEE
:1055B00002D104F094FC2862029800283FF420AF46
:1055C00003F008F91CE7074B1B792BB1064B1B783E
:1055D000032B01D0FFF7FEF9FFF7E6FB89E700BFD9
:1055E00088E503208CE5032048E503206CE20320D6
:1055F000F0E20320B0E5032070E203201CE3032067
:10560000E8E20320B8E20320F4E0032044B40D00F4
:1056100024E6032060E2032063B40D004CE5032080
:10562000E8B30D00E2B30D00A0E20320A0BB0D0023
:1056300010000300604D2A792AB1604B1B78052BBE
:1056400001D0FFF7C7F9EB780BB9FFF735F903F095
:1056500019F808B9FFF730F903F014F840B104F075
:105660004FFC08B9FFF71CFAFEF770FF062341E76D
:1056700002F0A4FD524B186001233BE74E4B1B790F
:105680002BB14E4B1B78062B01D0FFF7A3F94D4DE4
:105690002B7853B904F040FC4B4B1B6898427FF4C5
:1056A00001AF2B78002B3FF4ABAE02F087FD474BE8
:1056B0001B68C01A4AF6C87398427FF6A1AE02F082
:1056C0007DFD3F4B424A186000238DF80030414B6E
:1056D00041491B784148FEF7CDFDCDE7364C237993
:1056E0002BB1364B1B78012B01D0FFF773F902F079
:1056F00065FD334B1B6803F5EA4330338342BFF447
:105700007FAE2369032B13DC02F0BCFF48B10023FA
:105710008DF800302F4B324A1B7832492F48FEF764
:10572000A9FD4FF4FA6003F0B5F804F06BF967E6F1
:1057300004F0D5FBE369C01AB0F5E15F1CD902F0B3
:10574000A1FF48B100238DF80030224B264A1B7878
:1057500024492248FEF78EFD4FF4FA6003F09AF8D0
:105760000023154A214823610121FFF7D1FB0A21BB
:105770001F4800F07BFB43E602F084FF48B10023A2
:105780008DF80030134B184A1B7816491348FEF762
:1057900071FD4FF4FA6003F07DF80023064A1348C8
:1057A00023610121FFF7B4FBFFF746F928E63075C6
:1057B000EEE6DF60ECE600BF8CE5032048E5032061
:1057C00084E50320FEE20320F0E20320B4E5032099
:1057D000CEB20D0060E20320FDB30D004CE50320C6
:1057E00016B40D00E2B30D002AB40D001CE3032033
:1057F00070E20320F8B5404B404E414D00241C6040
:10580000404B01271F7004F05BFD2346224642F601
:10581000DF5104F05DFD04F053FD224623460C21C8
:1058200004F05EFD384BB3603460B480B471022084
:1058300002F08EFE2A463549304604F015FE214618
:10584000384602F0A5FE3946042002F08FFC3048AD
:105850003049A0F809400346021D43F8092B9C700B
:105860002D4B43602A46C0E903440775047204F0D7
:10587000FBFD04F0D1FD294E014623464FF40052B2
:10588000304601F0AFFD264B33603046254E2649A9
:105890002A4604F0E9FD25494FF40062304602F043
:1058A000E1FA234B33603046224E23492A4604F066
:1058B000DBFD22461021214C304601F0E1FB2A4657
:1058C0001F49304604F0D0FD204600F013FF2A4661
:1058D0001C49204604F0C8FD04F09EFD1A4C014608
:1058E0006922204600F06AF82A4620461749BDE89A
:1058F000F84004F0B9BD00BF5CE2032050E2032091
:1059000000E2032060E203200000FFFFC7410D001A
:10591000A0E20320D5400D00100003001CE303208B
:1059200074B40D004CE503204D410D0018F4032024
:1059300090B40D0000E3032025410D002CE303206B
:10594000D5700D0041680D0070E2032051590D0023
:10595000704710B52021044604F08BFD204610BD91
:105960000EB410B58DB00FAA016852F8044B039223
:1059700000232020CDE90403CDE90042012004AA40
:1059800002F0CCFD0DB0BDE8104003B070470EB47E
:1059900010B58DB00FAA016852F8044B0392002392
:1059A0002020CDE90403CDE90042322004AA02F010
:1059B000B5FD0DB0BDE8104003B0704710B50272E0
:1059C000FF2242810022C0E9032242610276C261C5
:1059D000024A034C1060C0E9004110BDBCE5032041
:1059E00044B70D002DE9F8439DF820800446894610
:1059F00016461F46B8F1000F02D0406803F04AFC7B
:105A0000217A606803F03BFC6068036849469B6844
:105A100098476068002103F039FC054600BB01236C
:105A2000217A60683A4603F018FC8742034609D1A0
:105A30003744BE421CD0606803685B69984706F82B
:105A4000010BF6E70B490C484A46FFF7A0FFB8F1F7
:105A5000000F02D0606803F026FC2846BDE8F883FA
:105A60000346064904484A46FFF791FF0025EEE742
:105A70000125ECE7F5B40D00B8E503201AB50D00DB
:105A800007B500930123FFF7ADFF03B05DF804FBFA
:105A900073B54389FF2B044610D0194E194D02F0FF
:105AA0008DFBB0F57A7F09D2608904F089FC01286A
:105AB00004D031462846FEF7C6FBF0E701230DF17E
:105AC000070228212046FFF7DBFF30B90D480E49B9
:105AD000FEF7B9FB002002B070BD9DF80730182B0F
:105AE000F4D101230DF1070229212046FFF7C8FF59
:105AF0000028EBD09DF80730052BE7D1EBE700BF7E
:105B00003EB50D00B8E5032053B50D0007B51346AB
:105B100000228DF807200DF10702FFF7B1FF9DF875
:105B2000070003B05DF804FB2DE9F0419DF81880F3
:105B300004460F4615461E46B8F1000F02D04068D5
:105B400003F0A8FB217A606803F099FB60680368A2
:105B500039469B6898472E44B542606805D0036873
:105B600015F8011B9B689847F6E7012103F08EFBAF
:105B7000034670B1084909483A46FFF708FF002577
:105B8000B8F1000F02D0606803F08DFB2846BDE835
:105B9000F0810125F4E700BF60B50D00B8E50320F2
:105BA0001FB58DF80F2000930DF10F020123FFF7B1
:105BB000BBFF05B05DF804FBF8B50A460C46054688
:105BC0001A491B48FEF73FFB002CB8BFEC687CB9B4
:105BD000012322461B212846FFF7E2FF1549024612
:105BE00006461348FFF7BCFEEC606C613046F8BD1A
:105BF000032C19DDA7101F2FA8BF1F27BA0062F0C2
:105C00007C020123D2B21B212846FFF7C9FF3A4686
:105C10000346094906460648FFF7A2FE4FF4FA6319
:105C20005F43EC606F61E1E70127E7E785B50D00B1
:105C3000B8E503208FB50D00ABB50D000B46074945
:105C40000246086848B1002B08BFB2F5006F04D1C6
:105C5000C36813B10021FFF7AFBF7047BCE5032055
:105C60002DE9FF419DF82880054616461F46B8F1EC
:105C7000000F04D04068019103F00CFB01990191E1
:105C800000230DF10F022846FFF7FAFE044660B12B
:105C90009DF80F3003EA06023A43934205D001997A
:105CA00000232846FFF77CFF0446B8F1000F02D01E
:105CB000686803F0F8FA204604B0BDE8F08113B537
:105CC00014460DF10702FFF7DBFE28B19DF80730FF
:105CD0001C420CBF0120002002B010BD13B51446B9
:105CE0000DF10702FFF7CCFE28B19DF807301C42EA
:105CF00014BF0120002002B010BD07B5D2430093AD
:105D0000D2B20023FFF7ACFF03B05DF804FB000044
:105D100037B501230DF107020F210446FFF7B0FE4E
:105D2000054638B91E491F48AD22FFF730FE284608
:105D300003B030BD9DF8073013F0200F4FF0010382
:105D40000BD02022E3610F212046FFF7D6FF164A31
:105D500016491448FEF777FAE9E70822172120468A
:105D6000FFF7BCFF18B10223114AE361F0E79DF889
:105D700007301A0709D50323E361082201230F2105
:105D80002046FFF7BAFF0B4AE2E75B07CFD50422B4
:105D9000E26101230F212046FFF7AFFF064AD7E754
:105DA000FEB50D00B8E50320CFB50D001DB60D0002
:105DB000D8B50D00E8B50D00F8B50D0007B5009396
:105DC0001346FF22FFF74CFF03B05DF804FB000011
:105DD000F8B50F461646012300220F210546FFF7AE
:105DE000DFFE044638B94FF425721E491E48FFF7FE
:105DF000CEFD2046F8BD0123232218212846FFF7B7
:105E0000CFFE044610B940F29B22EEE7FF2FA8BF59
:105E1000FF27012FB8BF01270123FAB21921284615
:105E2000FFF7BEFE044610B94FF42A72DDE70123E6
:105E3000082212212846FFF7C1FF044610B940F29C
:105E4000AF22D2E7002E4FF0010314BF832282223B
:105E500018212846FFF7A4FE04460028C9D140F2C5
:105E6000B922C2E72EB60D00B8E503202DE9F743AD
:105E70000A4605460F464F484F49FEF7E4F9002110
:105E80002846FFF799FE044648B940F2F7124B49FD
:105E90004848FFF77CFD204603B0BDE8F0830123AE
:105EA0001A4630212846FFF789FF044610B940F210
:105EB0000522ECE71022012311462846FFF71DFFBB
:105EC000044610B94FF40372E1E70123262213219F
:105ED0002846FFF765FE044610B940F21322D6E7C4
:105EE000012600963346FC2211212846FFF7B8FE12
:105EF000044610B940F21B22C9E700223946284661
:105F0000FFF766FF044610B940F22222BFE7009671
:105F10000223772210212846FFF7A2FE044610B97B
:105F200040F22B22B3E7334604221C212846FFF718
:105F300045FF044610B940F23222A8E70096182324
:105F4000E32211212846FFF78BFE044610B940F2E8
:105F500039229CE73346C02217212846FFF720FE4E
:105F6000044610B94FF4107291E702F027F9DFF8F8
:105F70005490DFF840804FF47A7106464F4302F0A8
:105F80001DF9801BB8420ED2012217212846FFF7C7
:105F9000BDFD494602464046FEF755F94FF47A707A
:105FA00002F078FCEBE706490248FFF7F0FC03F04B
:105FB00029FD70E7B8E5032059B60D004EB60D0077
:105FC0007FB60D006AB60D002DE9F3479DF828A0B5
:105FD00005460C4691461F46BAF1000F02D04068B4
:105FE00003F058F907B3202F3E4628BF20267F2C08
:105FF00026D83319802B01D9C4F18006012304224D
:106000003F212846FFF779FE002364F07F010093CB
:106010004A463346C9B22846FFF7E4FC804628B119
:106020003444BF1BB144DDE74FF00108BAF1000F63
:1060300002D0686803F037F9404602B0BDE8F08747
:10604000012304223F212846FFF7B8FEDCE72DE9B3
:10605000F3479DF828A005460C4691461F46BAF125
:10606000000F02D0406803F015F907B31F2F3E461A
:1060700028BF1F267F2C26D83319802B01D9C4F1C5
:106080008006012304223F212846FFF736FE002325
:1060900064F07F0100934A463346C9B22846FFF7B1
:1060A00043FD804628B13444BF1BB144DDE74FF0C7
:1060B0000108BAF1000F02D0686803F0F4F8404616
:1060C00002B0BDE8F087012304223F212846FFF7F4
:1060D00075FEDCE730B585B00D68D1E90432039573
:1060E0004D6802958D680195C96800910133044996
:1060F00002F26C72044603F0F7FB204605B030BD97
:1061000091B60D0003110A2200F00F0002FB0300FC
:10611000704738B5044600781546FFF7F3FF08606E
:106120006078FFF7EFFF4860A078FFF7EBFF88602B
:10613000E078FFF7E7FFC8602079FFF7E3FF013859
:1061400008612DB9651D2878FFF7DCFF886138BD2F
:106150006079FFF7D7FF6430A51D4861F3E70000C1
:1061600070B5012388B00D461A4610210446FFF78A
:10617000A6FDF0B108230126204600960DEB030290
:106180000021FFF72FFC044698B1324629460DF155
:106190000900FFF7BEFF04A8FFF79CFF0848049A18
:1061A0000849FEF750F804A803F0FAFA204608B0B0
:1061B00070BD24220021284604F04CFE0024F5E79F
:1061C000B8E50320AFB60D0030B58BB00D4601A980
:1061D000FFF7C6FF044620B101A802F053FBC5E952
:1061E000000120460BB030BD10B5044688B011B197
:1061F000406803F015F82046FFF74AFC70B32046CC
:10620000FFF786FD01231A4610212046FFF757FDB0
:10621000D8B103F047FEC0B902A92046FFF7D4FF6A
:10622000DDE9020103F044FD0F4B10491B680093A8
:1062300004A8DDE9022303F0F3FD0D48049A0D499B
:10624000FEF701F804A803F0ABFA0B4A0023002183
:106250004FF4006002F094F908B010BD07490448FB
:10626000FFF795FBF1E700BF8CE1032050E6032028
:10627000B8E50320BDB60D003D5C0D00DAB60D009B
:106280000A2290FBF2F302FB130093FBF2F102FBF4
:10629000113140EA0110C0B2704770B50546006880
:1062A0000C461646FFF7ECFF20706868FFF7E8FF22
:1062B0006070A868FFF7E4FFA070E868FFF7E0FFF0
:1062C000E07028690130FFF7DBFF20712EB9661DF1
:1062D000A869FFF7D5FF307070BD6A69642392FB2F
:1062E000F3F003FB1020FFF7CBFFA61D6071EFE773
:1062F000F0B587B0054602A816460C46FFF7EAFE41
:106300001E48029A1E49FDF79EFF02A803F048FAB4
:1063100016B1686802F0BEFF204601220DF10901A6
:1063200000278DF80870FFF7B8FF01231A461021E7
:106330002846FFF743FD0446E8B1082300970DEB1C
:10634000030239462846FFF7EFFB044660B10123FC
:106350001A4610212846FFF7D0FC16B1686802F0F3
:10636000A2FF204607B0F0BD4FF48D7205490348E7
:10637000FFF70DFBF1E74FF48F72F7E7B8E5032065
:10638000F2B60D0000B70D0013B504466846CDE91E
:10639000002304F025FD9DF8102001462046FFF75C
:1063A000A7FF02B010BD0000F0B5057E89B004461D
:1063B00075BB03F077FD58B30026002704A92846D3
:1063C000CDE9046702F08EF910B30125257603F0BC
:1063D00086FD00950246C3172046CDE90223FFF74C
:1063E000D3FF02A92046CDE90267FFF7EDFE124B6D
:1063F00012491B68009304A8DDE9022303F010FD95
:106400000F48049A0F49FDF71EFF04A803F0C8F9CE
:10641000636973B101F0D2FE2369C01A63699842BF
:1064200007D301F0CBFE4FF0FF3120612046FFF78C
:10643000C3FB09B0F0BD00BF8CE1032050E6032090
:10644000B8E503201BB70D00014B024A1A607047E4
:10645000B8E5032031B70D00704710B51021044690
:1064600004F007F8204610BD0EB403B503AB0021BD
:1064700053F8042B019303F09EF802B05DF804EB8F
:1064800003B0704773B5044608462279A36832B159
:10649000A3B90B4902B0BDE8704003F05BB8094AEC
:1064A000267B094D0949647B012E18BF2946CDE999
:1064B00000140749FFF7D8FF02B070BD054AEFE7A7
:1064C00065B70D00CEB20D0061B70D005DB70D00D0
:1064D0007BB70D0054B70D0010B58368044613B1A7
:1064E000032201469847204610BD0368C9B29B6845
:1064F0001847000038B500F108050446294600F0A9
:1065000059FA124B23602846002500F096FA84F8C9
:10651000A85103F081FF422384F8B031C4F8AC01E4
:1065200003F08EFDFF23A4F8E431094BC4F8C451F5
:106530001C60C4E96D05C4E97355C4E97555C4E927
:106540007755C4F8E851204638BD00BFE4B70D00C8
:10655000CCE50320F7B5D0F8B8610746002E39D155
:106560000420FDF798FD054690B31B49142003F065
:1065700082FF28B1C0E90066C0E90266067446746D
:106580002860A0B1154B1649C0E902374FF40063EB
:10659000CDE900030222134B043001F097FD30B91E
:1065A0002B681B7CA3B9012001F0F8FDF8E72C68EB
:1065B00000232B6064B1266836B13046FFF78CFFAC
:1065C0001021304603F055FF1421204603F051FFFF
:1065D000C7F8B85103B0F0BDA0BB0D009F690D0016
:1065E00098B70D009B670D0010B5012380F8A83106
:1065F000D0F8AC3104464868586088689860C8682C
:10660000D860087C1874084684F8B02102F008FEAF
:10661000204610BD38B5044690F8B011D0F8AC0152
:1066200002F02DFEFD21D4F8AC01FFF75EFFD4F897
:10663000AC01002102F02AFE08B1002038BD94F818
:10664000B011D4F8AC010123022202F006FEC0B260
:106650000228F2D1D4F8AC0103685B69984705467B
:10666000D4F8AC0103685B69984740EA052080B222
:10667000E4E72DE9F8430746884690F8B011D0F8D2
:10668000AC01154602F0FBFDFF21D7F8AC01FFF786
:106690002CFFD7F8AC01002102F0F8FD18B14FF043
:1066A000FF30BDE8F8830446A54220D92E1B202EDA
:1066B00028BF202604EB0609A5EB090253425341EB
:1066C00097F8B011D7F8AC01324602F0C6FDC0B25F
:1066D0008642E4D144442644D7F8AC0103685B69A0
:1066E000984704F8010BA642F6D14C46DCE7284651
:1066F000D7E7000037B50446FFF7FCFE1C4B2360CC
:1067000004F5FA701033C4F8EC310821C4F8F00134
:1067100000F02EFE174D184BC4F8F4312978BFF362
:106720005B8F11F001010BD128460191FDF7C4FCEC
:10673000019928B1114802F089FF2846FDF7C1FCF4
:106740000E4BC4F800321123C4F8043200230C4A63
:1067500084F8083284F810320A4BC4F81432204608
:106760000123C4F80C22A4F8183203B030BD00BFD6
:10677000C4B70D00C0E5032044B80D00C4E50320F4
:10678000B0B70D0080969800826810B50AB903F082
:1067900076FEBDE81040C368184710B501230374A6
:1067A0008368044643B1C06898470123637400209E
:1067B000BDE8104001F0D2BC00680028F5D0FFF71A
:1067C000E3FFF2E770B5D0E900560446AE4204D0CC
:1067D0002846FFF781FE1035F8E7206808B1FDF77D
:1067E0005EFC204670BD000010B50E4B03600446F1
:1067F000D0F8E80120B101F089FC0023C4F8E831A9
:1068000004F5EC70FFF7DEFF04F5E670FFF7DAFF42
:1068100004F5DE70FFF760FE204600F0C3F8204666
:1068200010BD00BFE4B70D0010B50446FFF7DCFF54
:1068300020464FF4F67103F01CFE204610BD000008
:1068400010B5084B03F10802183304460260C0F883
:10685000EC3100F5FA7000F02BFD2046FFF7C4FF85
:10686000204610BDBCB70D00A0F5F670FFF7E8BFDD
:1068700010B50446FFF7E4FF20464FF4077103F01C
:10688000F8FD204610BDA0F5F670FFF7F1BF07B583
:1068900082688DF807100AB903F0F1FDC3680DF1A5
:1068A0000701984703B05DF804FB2DE9F04790F825
:1068B000A8718AB00446FFB900F1080600F5DE753C
:1068C000D4F8B40103681B699847002845DDD4F863
:1068D000B40103685B699847C1B23046019100F08A
:1068E00045FBD4F8C4313843C7B2002BE8D0019936
:1068F0002846FFF7CCFFE3E7D0F8AC81404602F032
:10690000C9FC2046FFF786FE2028064602D810B9AB
:1069100000271FE02026324602A92046FFF7A9FEE5
:10692000B042F5D102AD2E44002704F1080904F568
:10693000DE7A15F8011B484600F018FBD4F8C43184
:106940003843C7B223B115F8011C5046FFF79FFF2B
:10695000B542EED1404602F0A6FC57B1D4F8D8516A
:10696000D4F8DC319D4204D02846FFF70DFF1035E6
:10697000F6E70AB0BDE8F08738B504462046FFF7D1
:1069800094FFD4F8CC51D4F8D0319D4204D028469D
:10699000FFF7FAFE1035F6E701F0A0FBEEE708B5C9
:1069A000FFF7EAFF704710B50821044603F061FDC8
:1069B000204610BD014AC0E900217047F4B70D0020
:1069C0000022C0E90F22C0E91322C0E91722C0E962
:1069D0001B22028082808260027302824261027600
:1069E0008283026280F824200285C26280F830200F
:1069F000426302874264A0F848204265A0F858200C
:106A00004266A0F868204267A0F87820C0E91F22FB
:106A1000C0E92322C0E92722C0E92B22C0F8842044
:106A2000A0F88820C0F89420A0F89820C0F8A420EE
:106A3000A0F8A820C0F8B420704710B50446FFF7AE
:106A4000BFFF04F1B800FFF7BBFF022384F88131D8
:106A50000023C4E96233C4E96433C4E96633A4F8AB
:106A6000823184F88431A4F8703184F87231204680
:106A700010BDA1F14103052B02D8A1F137007047E9
:106A8000A1F16103052B94BFA1F15700A1F13000E2
:106A9000704738B5057804462D2D08BF01342046CF
:106AA00004F08CF964235843224614F8013BA3F107
:106AB00030010929F8D92E2B0BD15378303B092B03
:106AC00007D80A2101FB03009378303B092B98BFBC
:106AD000C0182D2D08BF404238BD000038B50D4606
:106AE000044604F06BF96422134BB0FBF2F102FB95
:106AF00011004343298020460278A2F13004092C7A
:106B0000014600F10100F7D92E2A0BD10A480A24C8
:106B100011F8012F303A092A04D8B0FBF4F000FB39
:106B20000233F5E703EB830301330322B3FBF2F3F4
:106B30006B6000232B7238BD8096980010B5034619
:106B4000044653F81C2F42605A6882601B7A037314
:106B5000034653F8282F02615A6842611B7A037674
:106B600001F02CFB40F201136063238010BD000094
:106B7000D0B5002304464370806803F0C5FD0CA324
:106B8000D3E9002303F064FF0646A0880F4603F014
:106B9000CBFD0B4602463946304603F079FC237B99
:106BA00013B101F10043194641EC100BD0BD00BFF9
:106BB0000000000065CDCD41D0B5002304464370F0
:106BC000406903F0A1FD0CA3D3E9002303F040FFCB
:106BD0000646208A0F4603F0A7FD0B4602463946BB
:106BE000304603F055FC237E13B101F100431946F2
:106BF00041EC100BD0BD00BF0000000065CDCD41C1
:106C000010B583684360044601F0D8FA40F20113DE
:106C1000E060238010BD10B583684360044601F036
:106C2000CDFA40F20113E060238010BD10B5044698
:106C30000846FFF72EFFA06010BD10B504460846B9
:106C400004F0BCF8A06010BD10B5C36883600446B2
:106C500001F0B4FA40F201136060238010BD10B55A
:106C600004460846FFF715FFE06010BD10B5C36885
:106C70008360044601F0A2FA40F2011360602380B1
:106C800010BD10B50446084604F098F8E06010BD49
:106C900010B501460446103004F012F901F08EFAE6
:106CA00040F201132062A38410BD102204F035B914
:106CB000F8B590F871510446002D00F0888090F8E6
:106CC0007211FFF7D6FE94F8731102462046FFF7C3
:106CD000D0FE94F8703100EB0210C0B283426ED146
:106CE000D4F89C310133C4F89C3194F8843123B139
:106CF000D4F894310133C4F8943194F88131E3B37A
:106D0000012B2BD104F1F000FFF77AFF04F580701E
:106D1000FFF781FF94F8843104F1B8065BB1304687
:106D2000FFF70CFF04F58870FFF78EFF04F59070F5
:106D3000FFF78AFF05E084F8B83084F8103184F852
:106D400020310021084601F0D1F93146B822204611
:106D500004F058F80021012001F0C8F9D4F88C6142
:106D60009EB3D4F88C31B06A996A04F09FF860BB86
:106D70003046FFF78DFF366BF2E704F58070FFF7C2
:106D80004AFF94F8843104F1B8068BB13046FFF71E
:106D9000D5FE04F59870FFF757FF04F5A070FFF7D4
:106DA00053FF04F5A870FFF761FF04F5B070BFE76B
:106DB00084F8B83084F8303184F84031F1E7D4F801
:106DC00098310133C4F8983100252846F8BD90F871
:106DD00082216ABB00F5B9766049304604F066F856
:106DE00020B15F49304604F061F898B9012384F876
:106DF0008131D4F88831C4F88C31D4F88C71002FEB
:106E0000E3D0B86A314604F051F8002880F29F8040
:106E10003B6BF0E75349304604F048F820B1524943
:106E2000304604F043F808B90023E0E70223DEE728
:106E300090F88111022924D090F872310BB342EA04
:106E40004112013A282A1CD8DFE802F0153C434AD7
:106E50004D666B72771B7C1B1B1B1B1B1B1B1B1BA1
:106E60001B1B1B1B1B1B1B1B1B1B1B1B15353C4315
:106E70004A4D545B600000F5B97100F58070FFF772
:106E8000D5FED4F88C6104F5B977002E9DD0D4F8E6
:106E90008C31B06A996A04F009F8002895D1F26A39
:106EA00094F882319A4290DC03D139463046FFF79C
:106EB000FCFE366BE9E7A3F141004342434184F80D
:106EC0008431DEE700F1D40104F5B970FFF706FE66
:106ED000D7E7A3F153014B424B4180F8DC30D0E7B8
:106EE00000F1E001F0E7A3F157025342534180F86B
:106EF000E830C6E700F5B97100F58870FFF7AFFE1E
:106F0000BFE700F5B97100F59070F7E700F5B971CA
:106F1000F030FFF792FEB4E7302B94BF002301233B
:106F2000CDE700F5B97100F5A870FFF7AAFEA8E754
:106F300000F5B97100F5B070E0E700F5B97100F542
:106F40009870DBE700F5B97100F5A070D6E73FF463
:106F50003CAF0023C4F88C3137E700BFFCB70D000D
:106F600002B80D0008B80D000EB80D0038B5D0F805
:106F70009031242903F1010304460D46C0F89031F5
:106F80003AD090F8833114D80A291CD00D291AD090
:106F90000D2B9FBF5A1C1B1984F8832183F8725153
:106FA00094F8710198BB94F870114D4084F87051B9
:106FB00021E02A2907D02C29EAD190F8702182F00B
:106FC0002C0280F870210E2B4FF0000005D82344CE
:106FD00083F872012046FFF76BFE94F8823101338B
:106FE00084F88231002384F88331A5F12A035D42BD
:106FF0005D4184F8715138BD00200223A4F870016E
:1070000084F88131A4F8820184F88401F3E7002038
:10701000F1E738B5046805467CB16368013B6360FD
:107020005BB9236820469B689847A368013BA3602F
:107030001BB923682046DB689847284638BD13B53E
:107040000B460246D0E900016C4684E8030093E851
:10705000030082E8030094E8030083E8030002B021
:1070600010BD0000034B01221A70034B034A1A6043
:10707000704700BFD4E50320D0E5032014B80D000D
:1070800037B5002343608360C360036143610383BA
:10709000827604460E200191FCF7FDFF054610B1F3
:1070A000019900F0A7FB2046256003B030BD38B53C
:1070B00000F110050C460068294600F08BFC031E09
:1070C0001DBF2B6823606B68236014BF0120002064
:1070D000636038BD10B50446006810B10E2103F09E
:1070E000C8F9204610BD006800F06CBC2DE9F041E5
:1070F000837E04460D4616462BB90B781BB99FEDCF
:10710000570ABDE8F081206800F07EFBA37E002BCB
:107110005DD0002E5BD1206800F050FC002244219D
:10712000206800F006FC40F2EE2001F0B3FB20687E
:1071300000F06AFBA37E002B4ED0002E4CD12068BD
:1071400000F03CFC20680022BE2100F0F2FB2B780E
:10715000262B04D100222068114600F0EAFB261DF0
:1071600004F10D083746206800F006FC06F8010B14
:107170004645F8D10821384600F0A0FC237B207654
:1071800098426376BBD12B78262B47D029D8102B79
:1071900029D0222BB3D1227A237902F06002202A4F
:1071A00036D0402A37D012B923F007032371637910
:1071B000207940EA032000B203F0B6FA284B0022FF
:1071C00003F01CFB03F04CFD00EE100A99E7206869
:1071D000294600F0E1FBA1E72068294600F0DCFB2E
:1071E000B0E7282BD6E7E37AA288102B08BFA37A52
:1071F0004FEAC20203BFC3F10C0322F00F029B1837
:1072000013B208BF1BB200EE103ABAEECE0A78E70E
:1072100023F00303CAE723F00103C7E7A579284653
:1072200003F082FA06466079C01007EE900AF8EE85
:10723000E77A0F4617EE900A03F088FA094B00220E
:1072400003F0DCFA2B0654BF074B084B002203F077
:10725000D5FA32463B4603F01BF9B3E70000C07F86
:107260000000B03F0000A03F0000F03F0000F0BF72
:1072700008B510EE100A03F069FA08A3D3E9002359
:1072800003F0BCFA044B002203F002F903F0E8FC1F
:1072900000EE100A08BD00BF00004040CDCCCCCCB1
:1072A000CCCCFC3F027E407E131A584258417047B6
:1072B000704710B52821044603F0DBF8204610BDC6
:1072C00010B5044600F11801C06802F0F5F9208AF3
:1072D0000021BDE8104003F05AB810B50446012162
:1072E000008A03F054F8E068BDE8104002F0CBB922
:1072F000F8B51E4603685B690F4614460546984775
:10730000012E88BF47F04007E86847F0800102F08F
:1073100041FA2644B44206D0E868002102F03AFA65
:1073200004F8010BF6E72B6828469B699847012073
:10733000F8BDF8B51E4603685B690F46144605465E
:107340009847012E88BF47F04007E868394602F0A9
:1073500021FA2644B44205D014F8011BE86802F073
:1073600019FAF7E72B6828469B6998470120F8BD72
:10737000024AC0E9002100220272704728B80D00BD
:1073800013B5036801AADC680123A0479DF8040037
:1073900002B010BD38B505460A240F212846FFF774
:1073A000EFFF33284FF0010004D001F073FA013CE5
:1073B000F3D1204638BD10B50446018AC06802F0FA
:1073C0004FF92046BDE81040FFF7E4BF704710B505
:1073D0001021044603F04DF8204610BD0368C9B2E1
:1073E0009B68184730B5034DC0E90223C0E900513E
:1073F00030BD00BF94B80D00406801F011BF10B55A
:107400000446006801F04FFF204610BD2DE9F04111
:107410008AB004464068019001F03CFF1E22002122
:1074200002A8A76803F016FD0026EFB123681E2FFF
:10743000B84628BF4FF01E08DD6802AA4346314611
:107440002046A847054658B90A480B493246FCF77A
:10745000FAFE01A8FFF7D3FF28460AB0BDE8F08185
:10746000A7EB08074644E0E701A8FFF7C8FF01259E
:10747000F2E700BF24E6032060B80D002DE9F743D2
:107480000446406801900D4616461F4601F002FF73
:10749000A7B1E168606841F0500101F0F4FE290AEB
:1074A0006068FFF79BFF29466068FFF797FF6068F9
:1074B000002101F0EBFE48B1002400E0012401A806
:1074C000FFF79DFF204603B0BDE8F083202F217B0E
:1074D0006068B84628BF4FF020080123424641F0BB
:1074E000500101F0BAFE02F097FF03681B6998474C
:1074F0004045E1DB06EB080902F08EFF03685B699B
:10750000984706F8010B4E45F6D14544A7EB08070E
:10751000BEE72DE9F74F0446406801900E469046BD
:107520001D4601F0B7FE4FF00109B9F1000F2AD056
:107530004DB3E168606841F0500101F0A4FE310AEA
:107540006068FFF74BFF60683146FFF747FFA5F122
:107550001E0A4746A6EB080B606817F8011B036874
:10756000013D9B68984755450BEB0706B84601D08F
:10757000002DF1D16068012101F088FE0028D7D0EC
:107580004FF00009D1E701A8FFF739FF484603B0E3
:10759000BDE8F08F2DE9F0438BB00E4615468046CE
:1075A000406801901C4601F075FEAE4229D2264487
:1075B00025448CB11E2C2746D8F8003028BF1E2742
:1075C000F61BD3F8089002AA3B4631464046ED1B15
:1075D000C84748B9002400E0012401A8FFF70FFFC5
:1075E00020460BB0BDE8F083D8F8003002AAD3F8EB
:1075F0000C9029463B464046C8470028EAD0E41B89
:10760000D7E7E9D9002CE7D0D8F800301E2C274660
:1076100028BF1E27D3F8089002AA3B4631464046B1
:10762000C8470028D6D0D8F8003002AAD3F80C906A
:1076300029463B464046C8470028CBD03E443D44FF
:10764000E41BDFE710B503682F2B044604D9074A73
:1076500000210A2000F052FF23681F2B83BF03F094
:107660001F03034823604FF0A04010BDAD810D0003
:1076700000030050F7B51B4C058823781A4EBFF362
:107680005B8F13F0010F09D12046FCF715FD28B1DF
:1076900000F0CCFD30602046FCF713FD33682D016F
:1076A0005B5D5F012378BFF35B8FDB0709D40D4877
:1076B000FCF702FD28B100F0B9FD30600948FCF785
:1076C00000FD33682B4401A85B7803F01F033B43A4
:1076D0000193FFF7B7FF019A01239340C0F80C35DF
:1076E00003B0F0BDD8E50320DCE50320F7B51B4C63
:1076F000058823781A4EBFF35B8F13F0010F09D171
:107700002046FCF7D9FC28B100F090FD30602046FF
:10771000FCF7D7FC33682D015B5D5F012378BFF375
:107720005B8FDB0709D40D48FCF7C6FC28B100F0DD
:107730007DFD30600948FCF7C4FC33682B4401A888
:107740005B7803F01F033B430193FFF77BFF019A34
:1077500001239340C0F8083503B0F0BDD8E50320FD
:10776000DCE503202DE9F341204D06882B78204FDE
:10777000BFF35B8F13F0010F09D12846FCF79CFC87
:1077800028B100F053FD38602846FCF79AFC3B68AE
:1077900036019C5D2B78BFF35B8FDB074FEA441803
:1077A00009D41248FCF788FC28B100F03FFD38608E
:1077B0000E48FCF786FC3B68334401A85C7804F073
:1077C0001F0444EA08040194FFF73CFFD0F8103589
:1077D000019401A8FFF736FF019BD0F81005D840AF
:1077E00000F0010002B0BDE8F08100BFD8E5032041
:1077F000DCE5032038B504460D462846002102F09A
:10780000B5FD2580204638BD70B5054601F054FD14
:107810002888002100F012FD01F050FD7D24013C7C
:1078200014F0FF042DD0022000F0C0FC2846FFF722
:1078300099FF0028F3D001F03FFD2846FFF71AFF1B
:107840000121288800F0FAFC01F038FD4FF4F070B7
:1078500000F0ACFC00F0BAFC00210646288800F0DD
:10786000EDFC462000F0A2FC2846FFF77BFFB0FAB3
:1078700080F4304600F0B2FC4FF4CD70640900F0A3
:1078800095FC204670BD70B511F00105044618D076
:1078900000F09CFC05462046FFF7ECFE0121208805
:1078A00000F0CCFC012000F081FC2088002100F0D9
:1078B000C5FC284600F092FC3B20BDE8704000F07B
:1078C00075BC00F083FC06462046FFF7D3FE01217D
:1078D000208800F0B3FC412000F068FC2088294695
:1078E00000F0ACFC304600F079FC0520E5E738B547
:1078F000044600F06BFC05462046FFF7BBFE2088DF
:10790000012100F09BFC012000F050FC00212088A8
:1079100000F094FC0D2000F049FC2046FFF722FF08
:107920000446284600F05AFC2E2000F03FFC20467A
:1079300038BD2DE9F0410446884616460827012542
:1079400018EA050F14BF012100212046FFF79BFF15
:107950006D00013FEDB2F3D166B101F0ADFC204600
:10796000FFF7C4FE2088012100F068FCBDE8F0416B
:1079700001F0A4BCBDE8F081F8B507460826002553
:1079800001243846FFF7B3FF00B125436400013EF0
:10799000E4B2F6D12846F8BD70B500220C46552158
:1079A0000646FFF7C6FF651E073415F8011F0022C3
:1079B0003046FFF7BEFFA542F7D170BD0022CC21B3
:1079C000FFF7B7BF002343808380C38003814381D7
:1079D000037370472DE9F04790F80C9004468846F1
:1079E000B9F1000F0DD0002060812073A31C08F1B5
:1079F000FF380A3413F8012B08F8012FA342F9D1FC
:107A000004E0FFF701FF18B960812073BDE8F0873B
:107A10004A46F0212046FFF78CFF0126CA4635462C
:107A20002046FFF764FF07462046FFF760FF012F5F
:107A30000FD1012827D1402DD5D984F80A90B9F16A
:107A4000000F01D101232373A378002BCBD0012099
:107A5000CCE7874204EB0A030CD1A27AAA420ED9E2
:107A60009A78164214BF0127002767B9082D00D85D
:107A7000E572A9469A7822EA06029A7009E00CBFDC
:107A800001270027F1E704EB0A020127937833432B
:107A90009370394620467600FFF7F5FE16F0FF0694
:107AA00004BF0AF1010A5FFA8AFA05F1010508BF6D
:107AB0000126BAF1070FEDB2B2D9BCE730B50246E4
:107AC000014400208A4213D012F8015B082480EAA6
:107AD000050313F0010F4FEA50001CBF80F08C0328
:107AE000D8B2631E13F0FF044FEA5505EFD1E9E762
:107AF00030BD012A034602D1016000207047022AEE
:107B000004BFD1E90001C3E90001F6E710B44268FF
:107B10000346541001EB6200D20748BF0A591B68A4
:107B20005DF8044B48BFD358184700000123F7B550
:107B300080F829300646083000F0E0FA0420FCF70F
:107B4000AAFA054698B31B49142002F094FC30B100
:107B50000023C0E90033C0E9023303744374286092
:107B6000A0B1154B1549C0E902364FF40063CDE9C9
:107B700000030222124B043000F0A8FA30B92B683F
:107B80001B7CA3B9012000F009FBF8E72C68002357
:107B90002B6064B1276837B13846FEF79DFC102191
:107BA000384602F066FC1421204602F062FC756043
:107BB00003B0F0BDA0BB0D00CB7D0D00A8B80D003B
:107BC0009B670D0047F23051084AC16008490260C6
:107BD0000022C0E904120749C16107494260C0E9B7
:107BE00008228161028580F82A2070476CB90D0057
:107BF000357F0D000D7B0D00F37A0D0010B5044BA1
:107C0000044640F8103BFEF767FC204610BD00BF5D
:107C10006CB90D0010B5034B03600446FFF7EEFF8F
:107C2000204610BD94B90D0010B50446FFF7F2FFD1
:107C30002046382102F01DFC204610BD806800F06F
:107C40006DBA806800F072BA10B504460068FFF79C
:107C5000F8FF204610BD13B504460190FFF7EEFF74
:107C6000E36ADC88A4B20CB103F1080401A8FFF7B1
:107C7000EBFF204602B010BD13B504460190FFF79C
:107C8000DDFF94F8283043B9E26A0124D38001A8CB
:107C9000FFF7DAFF204602B010BD0024F7E713B566
:107CA00004460190FFF7CAFFE36A01A8DC88FFF7EA
:107CB000CBFF204602B010BD2DE9F047994686B0B3
:107CC00090F829309DF838A09DF83C8004460F4676
:107CD000164613B903689B689847314B3846002E07
:107CE00008BF1E4603F011F90546304603F00DF9B2
:107CF000284400F10A05AB071CBF25F00305043535
:107D00003346CDE90285CDE9009A264926483A4610
:107D1000FCF799FA238E083BAB4212D2002420468E
:107D200006B0BDE8F087CB88012B36D005A8FFF759
:107D30008BFF236894F828109B69204698470028F9
:107D4000ECD020460594FFF779FFE16A228E636B41
:107D50000A44D21AAA42E6D348EA0A0883F8048001
:107D6000C3F80090636B03F108083946404603F0FE
:107D7000A7F8404603F0C9F801303146404403F00B
:107D80009FF8636BE26A1D446563D3880133D38037
:107D9000012405A8FFF758FFC1E70024F9E700BF59
:107DA000CEB20D00BAB80D00E0E5032008B50446D8
:107DB00000F11005A3690BB902F061FBE3692146EC
:107DC0002846984700F08AF9F4E708B5FFF7EEFF78
:107DD00068B501F108050646284603F096F801301B
:107DE0000544284603F091F8F36A01302844C31A89
:107DF00013F003031CBFC3F10403C01868BDF7B53B
:107E000004460E460190FFF719FFE76AFB8807F169
:107E10000805E6B1012B22D929462046FFF7D8FFF5
:107E2000054629462046FFF7D3FF228E3A44121A10
:107E30000146A0EB050602D0284602F0F1FF636B75
:107E40009B1B6363FB88013BFB80012601E0002B49
:107E5000E7D101A8FFF7F8FE304603B0F0BD0026D9
:107E6000F7E700002DE9F0470D4604462F46164679
:107E7000FFF7A8FE154B57F8082B2360144BE5625B
:107E80009A422686984617D1AB889BB2B34213D14B
:107E900005EB060A67634FF00009EB881FFA89F2C9
:107EA0009BB29A420ED2616B2046FFF791FF50457C
:107EB000606309F10109F0D90023C5F80080676308
:107EC000AE80EB802046BDE8F08700BF94B90D007E
:107ED00061AB9CD110B5D1E9002386B000210446E6
:107EE00004910AB9D90705D5CDE902230F4B0593B3
:107EF0000F4B049302AB93E803006A4682E8030049
:107F000094E8030083E8030092E80300049A84E8FD
:107F10000300A168A260059A04911846E168E26036
:107F20000591FEF7D9FA204606B010BD0D7B0D0075
:107F3000F37A0D0007B5054B009369460023103016
:107F40000193FFF7C7FF03B05DF804FB7D7F0D00D1
:107F500013B5044600F032F9636AC01AE368984228
:107F600008D3054B00936946002304F110000193E8
:107F7000FFF7B0FF02B010BD7D7F0D002DE9F0418D
:107F800090F82A3086B00446002B64D100F07AFBCA
:107F9000002860D000F012F9636AC01A40F2F13391
:107FA000984258D9236820465B69984705460028BF
:107FB00051D000F10807012384F82830384602F038
:107FC000A4FF95F80480CDF8048001302B682B497C
:107FD00000933E1833462A483A46FCF734F92B689A
:107FE0008DF800803246394602A800F027FF029D36
:107FF0006B781BB9012000F04DFCF8E7002000F081
:10800000CFFA20B16B7813B900F02CFBFAE72B788C
:10801000012B23D11B491A48FCF715F923680021CD
:108020009B6920469847002384F8283000F0C6F862
:108030006062039C7CB16368013B63605BB9236849
:1080400020469B689847A368013BA3601BB923683F
:108050002046DB68984706B0BDE8F081E2680A492F
:108060000748FCF7F0F8094B049304A9002304F136
:1080700010000593FFF72EFFD5E700BFFBB80D00FA
:10808000E0E503201CB90D0033B90D00517F0D0050
:10809000014B024A1A607047E0E503205AB90D000F
:1080A000014B01221A707047E4E5032008B5024B2A
:1080B0001B685B6C019308BD7402030008B5024B9A
:1080C0001B689B6C019308BD7402030008B5024B4A
:1080D0001B685B68019308BD4802030008B5024BAA
:1080E0001B68DB68019308BD4802030008B5024B1A
:1080F0001B68DB69019308BD4802030008B5024B09
:108100001B681B6B019308BD4802030008B5024BB6
:108110001B685B6B019308BD4802030008B5024B66
:108120001B689B6B019308BD4802030008B5024B16
:108130001B681B6C019308BD4802030008B5024B85
:108140001B685B6C019308BD4802030008B5024B35
:108150001B689B6C019308BD4802030008B5024BE5
:108160001B68DB6E019308BD4802030008B5024B93
:108170001B685B6E019308BD3402030008B5024B17
:108180001B68DB6E019308BD3402030008B5024B87
:108190001B685B68019308BD1802030008B5024B19
:1081A0001B689B68019308BD1802030008B5024BC9
:1081B0001B68DB68019308BD1802030008B5024B79
:1081C0001B685B69019308BD1802030008B5024BE8
:1081D0001B689B6B019308BD1802030008B5024B96
:1081E0001B68DB6B019308BD1802030008B5024B46
:1081F0001B689B6D019308BD1802030008B5024B74
:108200001B68DB6D019308BD1802030008B5024B23
:108210001B685B6E019308BD1802030008B5024B92
:108220001B689B6E019308BD1802030008B5024B42
:108230001B681B68019308BD2C02030008B5024BA4
:108240001B689B68019308BD2C02030008B5024B14
:108250001B68DB68019308BD2C02030008B5024BC4
:108260001B681B69019308BD2C02030008B5024B73
:108270001B685B69019308BD2C02030008B5024B23
:108280001B681B6A019308BD2C02030008B5024B52
:108290001B685B6A019308BD2C02030008B5024B02
:1082A0001B68DB68019308BD2802030008B5024B78
:1082B0001B689B69019308BD2802030008B5024BA7
:1082C0001B68DB69019308BD2802030008B5024B57
:1082D0001B681B6A019308BD2802030008B5024B06
:1082E0001B685B6A019308BD2802030008B5024BB6
:1082F0001B689B6A019308BD2802030008B5024B66
:108300001B68DB6A019308BD2802030008B5024B15
:108310001B681B6B019308BD2802030008B5024BC4
:108320001B685B6B019308BD2802030008B5024B74
:108330001B681B6C019308BD2802030008B5024BA3
:108340001B689B6C019308BD2802030008B5024B13
:108350001B68DB6C019308BD2802030008B5024BC3
:108360001B681B6D019308BD2802030008B5024B72
:108370001B685B69019308BD6402030008B5024BEA
:108380001B689B68019308BD6802030008B5024B97
:108390001B68DB68019308BD6802030008B5024B47
:1083A0001B681B68019308BD3002030008B5024B2F
:1083B0001B685B69019308BD3002030008B5024BDE
:1083C0001B68DB69019308BD3002030008B5024B4E
:1083D0001B681B6A019308BD3002030008B5024BFD
:1083E0001B685B6A019308BD3002030008B5024BAD
:1083F0001B68DB6B019308BD3002030008B5024B1C
:108400001B681B6C019308BD3002030008B5024BCA
:108410001B685B6C019308BD3002030008B5024B7A
:108420001B681B68019308BD3C02030008B5024BA2
:108430001B68DB68019308BD3C02030008B5024BD2
:108440001B681B69019308BD3C02030008B5024B81
:108450001B685B69019308BD3C02030008B5024B31
:108460001B689B69019308BD3C02030008B5024BE1
:108470001B68DB69019308BD3C02030008B5024B91
:108480001B681B6A019308BD3C02030008B5024B40
:108490001B689B6A019308BD3C02030008B5024BB0
:1084A0001B681B68019308BD4C02030008B5024B12
:1084B0001B681B69019308BD4C02030008B5024B01
:1084C0001B685B69019308BD4C02030008B5024BB1
:1084D0001B689B69019308BD4C02030008B5024B61
:1084E0001B68DB69019308BD4C02030008B5024B11
:1084F0001B681B6A019308BD4C02030008B5024BC0
:108500001B685B6B019308BD6002030008B5024B5A
:108510001B681B6D019308BD6002030008B5024B88
:108520001B685B6D019308BD6002030008B5034B37
:108530001B68D3F89830019308BD00006002030067
:1085400008B5024B1B681B68019308BD200203009D
:1085500008B5024B1B685B68019308BD200203004D
:1085600008B5024B1B685B69019308BD200203003C
:1085700008B5024B1B689B69019308BD20020300EC
:1085800008B5024B1B681B6A019308BD200203005B
:1085900008B5024B1B68DB6A019308BD200203008B
:1085A00008B5024B1B68DB6C019308BD2002030079
:1085B00008B5024B1B685B6D019308BD20020300E8
:1085C00008B5024B1B689B6D019308BD2002030098
:1085D00008B5024B1B68DB6D019308BD2002030048
:1085E00008B5034B1B68D3F88830019308BD000021
:1085F0002002030008B5034B1B68D3F894300193A5
:1086000008BD00002002030008B5034B1B68D3F827
:10861000A830019308BD00002002030008B5034BF9
:108620001B68D3F8AC30019308BD000020020300A2
:1086300008B5034B1B68D3F8B030019308BD0000A8
:108640002002030008B5024B1B681B68019308BD9C
:108650004402030008B5024B1B685B68019308BD28
:108660004402030008B5024B1B689B68019308BDD8
:108670004402030008B5024B1B68DB68019308BD88
:108680004402030008B5024B1B685B69019308BDF7
:108690004402030008B5024B1B68DB69019308BD67
:1086A0004402030008B5024B1B681B6A019308BD16
:1086B0004402030008B5024B1B685B6A019308BDC6
:1086C0004402030008B5024B1B68DB6A019308BD36
:1086D0004402030008B5024B1B681B6B019308BDE5
:1086E0004402030008B5024B1B685B6B019308BD95
:1086F0004402030008B5024B1B689B6B019308BD45
:108700004402030008B5024B1B68DB6B019308BDF4
:108710004402030008B5024B1B685B6C019308BD63
:108720004402030008B5024B1B685B68019308BD57
:108730004002030008B5024B1B689B68019308BD0B
:108740004002030008B5024B1B68DB68019308BDBB
:108750004002030008B5024B1B681B69019308BD6A
:108760004002030008B5024B1B685B69019308BD1A
:108770004002030008B5024B1B689B69019308BDCA
:108780004002030008B5024B1B68DB69019308BD7A
:108790004002030008B5024B1B681B6A019308BD29
:1087A0004002030008B5024B1B681B6B019308BD18
:1087B0004002030008B5024B1B685B6B019308BDC8
:1087C0004002030008B5024B1B681B68019308BDFB
:1087D0001C02030008B5024B1B685B68019308BDCF
:1087E0001C02030008B5024B1B689B68019308BD7F
:1087F0001C02030008B5024B1B681B69019308BDEE
:108800001C02030008B5024B1B68DB69019308BD1D
:108810001C02030008B5024B1B685B6A019308BD8C
:108820001C02030008B5024B1B68DB6A019308BDFC
:108830001C02030008B5024B1B681B6B019308BDAB
:108840001C02030008B5024B1B685B6C019308BD5A
:108850001C02030008B5024B1B689B6C019308BD0A
:108860001C02030008B5024B1B68DB6C019308BDBA
:108870001C02030008B5024B1B681B6D019308BD69
:108880001C02030008B5024B1B685B6D019308BD19
:108890001C0203000021FFF763BE10B58368044685
:1088A0000BB901F0ECFDC3689847A3681BB1032224
:1088B00021462046984720461021BDE8104001F08F
:1088C000D8BD10B50446006808B1FFF73FFC20464C
:1088D00010BD0B68036013B15A6801325A607047CB
:1088E00010B5064C002320462360FFF727FC2046E6
:1088F000034A0449BDE8104001F0B6BDE8E5032095
:1089000000E20320C3880D00002240681146FFF7F3
:1089100021BF002240681146FFF73CBF002240689B
:108920001146FFF747BF40680022FFF73BBF406892
:10893000002281F00101FFF725BF002340681A469D
:108940001946FFF717BF002340681A461946FFF77C
:1089500009BF002240681146FFF7ECBE40680022C4
:108960000221FFF7EFBE002340681A46FFF7DABE88
:10897000F0B51B4B036000250F4628331826C0E9CD
:10898000025589B04360324629460446103002F051
:1089900061FA78682A462946FFF7DCFE18B9A0601C
:1089A000204609B0F0BD2946324602A8CDE900555F
:1089B00002F050FA02A96846ADF80860FFF776FBAE
:1089C00010B10123A360EBE7009B019AA360E26072
:1089D0000BB90223A36002A9204600F0AEF8DFE73E
:1089E000F0B90D00084B10B5282422461846002186
:1089F00002F030FA054B04804FF0FF32426004224F
:108A00005A60034A1A6010BDF4E50320ECE5032028
:108A1000BCB90D007047007D704710B52821044691
:108A200001F027FD204610BD037D7BB1C369002BFB
:108A30000CDB07EE903A9FED077AF8EEE77A87EEC7
:108A4000870ADFED057A20EE270A7047BFEE000A9D
:108A5000704700BF00FF7F470000C842037D63B13D
:108A60008369B3F1004F08D007EE903A9FED047A86
:108A7000F8EEE77A87EE870A70479FED020A7047A3
:108A80000000C84200000000037D7BB1436A002B58
:108A90000CDB07EE903A9FED077AF8EEE77A87EE67
:108AA000870ADFED057A20EE270A7047BFEE000A3D
:108AB000704700BF00FF7F470000C842037D63B1DD
:108AC000036AB3F1004F08D007EE903A9FED047AA5
:108AD000F8EEE77A87EE870A70479FED020A704743
:108AE0000000C8420000000070B50C1E06460ADAFD
:108AF0002D2100F033FD614205460A22304600F088
:108B00003CFD284470BD21460025F6E770B50C46B3
:108B1000054681682046FFF7E7FF2C2106462046E0
:108B200000F01CFDE96806442046FFF7DDFF3044F5
:108B300070BDA0F10400FFF7E9BF30B50D4600F1AC
:108B400010040FCD0FC495E8030084E80300012052
:108B500030BD70470020704710B51021044601F069
:108B600088FC204610BD08B5FFF7F6FF08BD30B5FC
:108B700000224FF69C74026084808D888C800C6883
:108B8000858004600A6030BD10B504460068FFF7B8
:108B900021FE204610BD38B5C468F4B12378022BFD
:108BA00003D104F10C00FFF7EFFF656835B12846EB
:108BB000FDF792FC1021284601F05BFCA56835B159
:108BC0002846FDF789FC1021284601F052FC20467A
:108BD0001421BDE8384001F04CBC38BD10B588B058
:108BE0000446684600F027FE694604A800F046FEE9
:108BF00004A8A047044604A800F0D2FD684600F08F
:108C0000CFFD204608B010BD1FB50023CDE90201FD
:108C1000019210241A4669461846ADF80230ADF8A4
:108C20000040FFF717FD04B010BD07B50823ADF8ED
:108C3000003003688DF80230037A8DF8033000218C
:108C4000436801936846FFF765FD03B05DF804FBD8
:108C500007B50823ADF8003003688DF80230037AB9
:108C60008DF803304368019300236A4619460220B9
:108C7000FFF740FD03B05DF804FB73B50E460446F4
:108C800056F8043B00930D4601A83146FFF721FE3C
:108C9000019A009B6260236001A800230193009366
:108CA000FEF7B7F93046FEF7B4F92846082101F07F
:108CB000E0FB204602B070BD826810B50AB901F031
:108CC000DEFBBDE81040C368184708B5006800F136
:108CD0001001FFF7F1FF08BD826810B50AB901F075
:108CE000CEFBBDE81040C368184708B5006800F126
:108CF0001001FFF7F1FF08BD38B5002304460360FB
:108D000010200D46FBF7C7F928B10123C0E9013354
:108D1000024B0360C5602060204638BD24BA0D00B8
:108D200038B5002383608B6804460D462BB10222C0
:108D30009847EB68E360AB68A360204638BD00004D
:108D4000F0B589B004686846FFF711FF4FF00203E1
:108D5000D4E84F2F002A03D1C4E8413F0029F7D1BE
:108D600025D104F10C0569462846FFF700FFBFF343
:108D70005B8F01236370002004F10803BFF35B8F56
:108D800053E8006F43E80002002AF9D1BFF35B8F7C
:108D90006EB1FFF705FC78B129463046FFF78CFF2E
:108DA0003046FDF799FB1021304601F062FB684622
:108DB000FFF7EAFE09B0F0BD314602A8FFF7B0FFA9
:108DC000E068B4F9105008B102F082F80690102063
:108DD000ADF81C50FBF75FF90546E8B10027876046
:108DE0001820FBF758F9044688B10146876002A8AD
:108DF000FEF725F9049BA268A360059B049206A9CF
:108E0000E268E36004F110000592FFF7B0FE084B42
:108E1000EB60084B2C60AB6006A8FFF7B5FE02A81C
:108E2000FDF75AFB002229460348FFF7C1FBB7E7CD
:108E3000CB8C0D00618F0D009B880D002DE9F04754
:108E40008AB005469DF848900C4617469846FFF7AD
:108E500019FC07AE824638BB4FF62E73059005A964
:108E60003046ADF81830FFF782FE1420FBF713F9F7
:108E7000044648B1022303700123C0E901AA4370EC
:108E800031460C30FFF773FE2846214640F8044B6C
:108E9000FFF732FF3046FFF777FE05A8FFF774FEB5
:108EA00028460AB0BDE8F0870C234FF0000A1420D2
:108EB000CDE908AA0793FBF7EEF8014628B1C0E90F
:108EC00001AA80F800A080F801A004A80391FFF790
:108ED00013FF224B08930820FBF7DDF8824628B1E8
:108EE000039B40F8043B04A9FFF7F3FC00965FFAEC
:108EF00089F3424639462046CDF824A0FFF7D2FB3D
:108F0000B8B9039B5B7803F0FF0293B94FF69C73EB
:108F100005A903A80592ADF81830FFF711FF05A8C1
:108F2000FFF732FE05A80999FFF7A7FE06A8FEF78E
:108F300070F8039B059304A906A8FFF7CAFC059BDC
:108F4000069A2B606A60002306A806930593FEF735
:108F500060F804A8FEF75DF8A2E700BF25900D00B9
:108F6000022AF8B5054607D0032A18D0012A01D1F4
:108F70000B6803600020F8BD18200E68FBF78BF823
:108F8000044650B13146FFF7CBFE3069B6F9147094
:108F900008B101F09DFF2061A7822C60EAE7046818
:108FA000002CE7D004F11000FFF7EEFD2046FDF79E
:108FB00093FA1821204601F05CFADBE738B500236C
:108FC00083608B6804460D462BB102229847EB68FC
:108FD000E360AB68A360204638BD022A70B5044642
:108FE00007D0032A12D0012A01D10B6803600020A8
:108FF00070BD14200E68FBF74EF8054620B13146CF
:10900000FFF7DCFF337C2B742560F0E70468002C4D
:10901000EDD02046FDF760FA1421204601F029FA30
:10902000E5E70000F0B589B004460D4601A81146F9
:10903000FFF723FEA4B124B21DB1284601F048FF7A
:10904000054601A803A90395ADF81040FFF778FE87
:1090500003A8FFF799FD02A8FDF7DBFF09B0F0BDFB
:10906000019D0123D5E84F2F002A03D1C5E8413FD8
:109070000029F7D1EFD12B73BFF35B8F6B702B1DE2
:10908000BFF35B8F53E8006F43E80042002AF9D139
:10909000BFF35B8F002EDED02046FFF781FA074634
:1090A00060B105F10C013046FFF716FE3046FDF7C2
:1090B00013FA1021304601F0DCF9CCE7314603A861
:1090C000FFF77CFF2B7B8DF81C301020FAF7E3FFB5
:1090D0000546D0B187601420FAF7DDFF044678B169
:1090E0008760014603A8FDF7AAFF059BA268A3605D
:1090F000069B0592E268E3609DF81C30069223749B
:10910000064BEB60064B2C60AB6003A8FDF7E4F95F
:10911000002229460348FFF74BFAC7E7EB8C0D0006
:10912000DB8F0D009B880D00002240681146FFF781
:1091300031BB002240681146FFF73CBB406800226B
:10914000FFF730BB4068002281F00101FFF71ABB36
:10915000002340681A461946FFF70CBB00234068FD
:109160001A461946FFF7FEBA002240681146FFF77B
:10917000F1BA002240681146FFF7DCBA40680022CD
:109180000221FFF7DFBA002340681A46FFF7CABA88
:10919000024B03225A60024A1A6070471CE6032001
:1091A00040BA0D007047F8B5064615460C468F18B4
:1091B000BC4206D0336814F8011B9B6830469847C0
:1091C000F6E72846F8BD007C0022FFF77FB8007C58
:1091D0000021FFF783B8007C0021FFF787B8007CEF
:1091E0000021FFF78BB8007C0021FFF78FB810B586
:1091F0001421044601F03DF9204610BD10B54FF48E
:109200007A73044608460021C4E90113034B236026
:1092100020741146FFF78AF8204610BD74BA0D007D
:109220000023007C1A461946FFF738B87FB50022A4
:109230001423CDE90122ADF804300B788DF8083005
:109240004B680393CB680493007C0B7A059301A9C8
:10925000FFF784F807B05DF804FB1FB5003B8DF8FD
:1092600000104FF06401039118BF01236946019279
:109270008DF80830FFF7DAFF05B05DF804FB007CDD
:109280000022FFF713B8C9B2FFF7F9BF007C002234
:10929000FFF714B808B50021007CFFF74FF8B0FACB
:1092A00080F0400908BD08B50021007CFFF74EF8AA
:1092B000B0FA80F0400908BDFEF7E8BFFEF7DEBF58
:1092C000704710B51821044601F0D3F8204610BDB0
:1092D000F0B5037D062B8DB00E4600F104074FF06C
:1092E000000412D000F1080515F8011D0A223046CD
:1092F00000F043F9AF42044419D0002CF4D02E21E1
:10930000304600F02BF90444EEE72F236A46394635
:109310000A208DF80040FFF729F8684601F0F5FDB6
:1093200033680246DB686946304698470446204663
:109330000DB0F0BD10B5054B0446112240F8043BBA
:10934000002101F087FD204610BD00BF9CBA0D0032
:109350000346074A10B543F8042B01F1100251F8F7
:10936000044B43F8044B9142F9D10A781A7010BDAE
:109370009CBA0D0010B59DF8084044EA032343EA67
:10938000024242EA016104234160037510BD13B536
:10939000CB7800938B784A780978FFF7EBFF02B01F
:1093A00010BD0000014B024A1A60704724E60320FA
:1093B000A8BA0D00002340681A46FFF7B3B9406809
:1093C00000220221FFF7BEB9002240681146FFF7D4
:1093D000B1B9002240681146FFF7BCB900234068CC
:1093E0001A461946FFF7BEB9002340681A461946C7
:1093F000FFF7C0B94068002281F00101FFF7C2B950
:1094000040680022FFF7CEB9002240681146FFF7FE
:10941000D1B9002240681146FFF7BCB92DE9F043ED
:10942000002495B016460D460746FFF783FF2146F8
:1094300018220EA8009401F00DFD4023CDE90C3454
:1094400021466B460CAA3046FEF7A0FF04460028D2
:1094500046D1024601216868FFF77CF90221804667
:1094600022466868FFF776F9009E81462146002E65
:1094700036D0002934D17368022B03D00A2B0BD0CD
:10948000F669F4E7B8F1000F04D071693846043189
:10949000FFF77DFF4146F3E7B9F1000F01D14946DF
:1094A000EEE77469102201A801F0D4FC06238DF8C0
:1094B000143001AD04F108031834186859682A46BD
:1094C00003C20833A3421546F7D101A906A807AD88
:1094D000FFF73EFF0FCD3C1D0FC42B682370DEE766
:1094E0000098FEF74BFF384615B0BDE8F08300004A
:1094F000024B034A1A6000225A60704728E6032094
:10950000B4BA0D00F8B506460D468F180024BD42CA
:109510000CD0336815F8011B9B6830469847031E32
:1095200001DB1C44F3E7002C08BF1C462046F8BDB5
:1095300013B50446084659B1019101F0E6FC2368D1
:109540000199DB680246204602B0BDE8104018478A
:1095500002B010BD08B5FFF7EBFF08BD03689B68BC
:10956000184738B50D210546FFF7F8FF0A210446D4
:109570002846FFF7F3FF204438BD30B58BB00023F9
:109580008DF82430012A98BF0A2209AC0D46B1FBA0
:10959000F2F101FB125303F0FF03092B94BF3033A8
:1095A0003733DBB2AA4204F8013DEFD92146FFF779
:1095B000BFFF0BB030BD2DE9F04186B000AF0546CE
:1095C0000E46381D142114463B60FFF723F913287B
:1095D0000ED8391D2846FFF7ABFF04461EB12846BA
:1095E000FFF7BFFF044420461837BD46BDE8F081B1
:1095F00000F1080323F00703E846ADEB030D224614
:10960000411C3B686846FFF705F969462846FFF7A5
:109610008FFF0446C546E1E710B50446FCF75CFF42
:10962000204610BD0348044A04490023836000F02B
:109630001BBF00BF30E6032000E2032019960D0097
:109640000021FEF7DBBE0021FEF7E0BE10B50446A8
:1096500008462170FEF7B2FE00236360204610BD6D
:1096600013B5044600780191FFF7EAFF019940B96C
:109670002078FEF793FE207802B0BDE81040FFF797
:10968000E2BF02B010BD0078FFF7DDBF400830B583
:109690001860002418688842E5B206D90134082C05
:1096A00002D040081860F5E70725024B5B5D137098
:1096B00030BD00BFE0BA0D002DE9F04306468FB083
:1096C00000780D46FFF7BCFF00281BDB347814221E
:1096D000002109A801F0BEFB0B23002209A92046A6
:1096E000ADF82430FEF77AFE9DF82D3013B19DF8C9
:1096F0002C4054B10027B946B84601242B795CB1FF
:10970000C3B100200FB0BDE8F083DDF830809DF8D4
:1097100034909DF83570F1E7002B35D1AB684345A7
:1097200008D18DF820908DF82170BDF82020AB89EC
:109730009A42E6D00023A9688DF80F300A9804AB4E
:109740000DF10F02FFF7A2FF297984B989B9AB683F
:1097500043450ED38DF820908DF82170BDF8202060
:10976000AB899A4205D1049B434502D1C9E7002940
:10977000F9D1002301936B7B00939DF80F202B7B85
:109780003078FEF733FEBCE7CDE90044234622469D
:109790000121F5E708B50078FEF708FEC0B208BD64
:1097A00010B504460068FFF715F8204610BD10B547
:1097B0000446006808B1FFF70DF80023C4E901333F
:1097C000236010BD38B504460D4600680131FFF72F
:1097D00009F810B1C4E90005012038BD10B50368CF
:1097E000044623B143688B4201D3012010BD2046BB
:1097F000FFF7E8FF0028F9D0A368002BF5D1226815
:109800001370F2E737B50D46114601920446FFF793
:10981000E5FF019A28B92046FFF7C9FF204603B0AB
:1098200030BDA2602946206801F0ECFA2268A368E6
:109830000021D154F2E7002313B5C0E900330446F8
:109840008360037341B10846019101F05EFB019909
:1098500002462046FFF7D6FF204602B010BD8842E0
:1098600010B5044605D00B682BB18A681946FFF77E
:10987000C9FF204610BDFFF79AFFFAE710B5002395
:109880000446C0E9003383600373FFF7E8FF204616
:1098900010BD08B582683AB921B10878B0FA80F0F5
:1098A000400900E0012008BD006809B90078F5E72B
:1098B00001F0FCFAF2E758B50E462AB121B18468EE
:1098C0009C4202D800230B7058BDE41A013A01688B
:1098D000944228BF144619442246304601F01DFB2D
:1098E00000233355F0E700000EB470B587B00BAD20
:1098F000044655F8042B01922B46052104A8039534
:10990000FEF788FF0B4906462046FFF794FF3146D5
:109910002046FFF763FF206830B1019A03952B467C
:10992000711CFEF777FFA060204607B0BDE87040CD
:1099300003B07047CEB20D0010B50446006818B1F0
:10994000FEF748FF0023236010BD38B5B1F904309D
:1099500083800B460D4653F8062FC0F806209B88DF
:1099600043810446FFF7E8FF2B6813B1236000230F
:109970002B60204638BDB1F904300A6810B533B900
:1099800032B951F8063F03608B88838010BD22B145
:109990009488012C03D0042C06D0042205E092897F
:1099A0004A818C710B81ECE702220B814FF6FF7329
:1099B0008A714B81E5E7000038B50C460546FFF794
:1099C000BBFF44B12088FEF7FDFE286028B1228845
:1099D000214601F017FA002038BD0148FCE700BF1E
:1099E000FCFEFFFF07B50B46002102460091012057
:1099F0008C21FEF71DFE03B05DF804FB014600203C
:109A0000FFF7F0BF0020FFF7F9BF0000F0B52D4DC4
:109A10000B7D04468BB00846AF1D002B38D00B6879
:109A20001B79002B34D00022274B049302A9043069
:109A30000292ADF80C208DF80E20FEF7EFFDDDF858
:109A40000E30C5F8063000B2BDF81230ADF80C008B
:109A5000A8800299BB802846FFF7AEFF02A8FFF757
:109A60006BFF00232360A380A37123814FF6FF7354
:109A70006381B5F90430A3803B68C4F80630BB8825
:109A8000296863812046FFF797FF20460BB0F0BDA1
:109A900000262023CDE902360C4B00930C493346B7
:109AA00002AA3220FEF732FD074B049302A94FF6BB
:109AB000F263044802968DF80E60ADF80C30FFF7A3
:109AC00044FFCBE740E603200000FFFFEFBA0D00A4
:109AD000E8BA0D0030B5044685B0084611461A466E
