:02000002D0002C
:1040000000400D00D4E10D00000006000D00050188
:084010000401DE0500000000C0
:0440180080CF0D0048
:1040200009480A49884208B505D0094A824202D0A7
:10403000121A05F08DFE0748074A0021121A05F0F2
:1040400092FE014808BD00BF04DF032034E00D00EC
:1040500078E0032078E00320F0E7032070B504F057
:10406000FDFC074C074BE41AA40800251E46A54298
:1040700004D056F8253098470135F8E770BD00BFE9
:1040800024E00D00E4DF0D0001F0EEBB08B501F007
:10409000F7F8BDE8084004F0A3BC02F0BBBF02F093
:1040A000C1BF02F0BFBF0078B0FA80F0400970478E
:1040B0000123037070470000014B01221A70704702
:1040C0007CE00320014B01221A707047DCE00320E2
:1040D00010B503682F2B044604D9074A00210A2093
:1040E00002F04EFE23681F2B83BF03F01F032360E3
:1040F00002484FF0A04010BD916A0D00000300502F
:1041000007B502AB43F8040D1846FFF7E1FF019A2B
:1041100001239340C0F8083503B05DF804FB07B5F0
:1041200002AB43F8040D1846FFF7D2FF019A0123B2
:104130009340C0F80C3503B05DF804FB38B5044675
:10414000006928B185680C2104F0A7FD2846F8E72E
:10415000204638BD08B5044904F00FF818B10348EB
:1041600001F0A0FE012008BD4CD40D0088E0032022
:1041700008B5044904F001F818B1034B05221A7080
:10418000012008BD4CD40D00D4E0032010B5034B32
:104190000360044601F04EFE204610BD9CCF0D008A
:1041A00010B50446FFF7F2FF2046102104F075FD1C
:1041B000204610BD08B50A4903F0DFFF002368B1AF
:1041C000084A09491360936053615360074A4B6181
:1041D0001370074B01201870064B187008BD00BF04
:1041E0004CD40D0064E1032088E1032084E1032026
:1041F0005CE1032085E1032008B502F07BFE20B1DD
:104200000020BDE8084002F095BE08BD08B50020BA
:1042100002F098FE28B102F06DFE80F00100C0B2FD
:1042200008BD012008BD37B59DF8184023438DF81F
:1042300000303C23054603F02DFA284603B030BD7C
:1042400010B50446006808B102F0ECFE204610BD2F
:1042500030B585B00D4604A9002241F8102D02F0BA
:10426000A7FDD8B9009CE388012B04D001460C4A75
:104270000A2002F085FD216919B9094A0A2002F0D5
:104280007FFD002301930C23ADF804300423039336
:104290000295236901AA01212046984705B030BD47
:1042A000916A0D000368D86820B183888B4201D0E1
:1042B0008068F9E7704700002DE9F041037D05466D
:1042C0000F4616463BB30121FFF7ECFF50B183893F
:1042D000BB4204D186731EE08388012BF6D0806830
:1042E0000028F9D10D49102004F0E2FC044688B101
:1042F0004FF010084246002105F035FD022363808F
:104300000123A4F80080A3802B69A360A781A67372
:104310002C6100E028752846BDE8F08140D90D00E9
:10432000002002F0DDBB08B52DED028BB0EE408A17
:1043300028B10138FFF7F7FF28EE000A01E0B7EED9
:10434000000ABDEC028B08BD30B5194D0FCD99B0F8
:1043500004AC0FC40FCD0FC495E8030084E803003C
:1043600014490EA802F00CFF0EA802F05CFF0446F0
:104370000EA802F0A9FF0EA810EE105A02F08AFF54
:1043800018AB10EE100A03EB840404F051FFCDE9E2
:104390000201284604F04CFFCDE90001064A54F81A
:1043A000503C0648402102F05DFE19B030BD00BF10
:1043B000B0CF0D00BCE10320F8CF0D0010E10320C9
:1043C00030B50E4D0FCD89B001AC0FC495E8070094
:1043D00084E8070069460720FFF73AFF0028A8BFD6
:1043E0000098074A08AB03EB8000102150F81C3CF2
:1043F000044802F037FE09B030BD00BFD8CF0D0031
:10440000B6D50D00BDE0032008B50F2004F0C9FBB0
:1044100004F0FCFE20A3D3E9002304F05DFF05F0C7
:1044200053FADFED157A07EE100A67EE277A17EEDA
:10443000900A04F0FDFE0022104B04F099FD0022CA
:104440000F4B04F049FF05F0F7F904F0DFFE0022FE
:104450000C4B04F041FF00220B4B05F067F80022E3
:104460000A4B04F087FD05F0E7F9094B1861094B89
:1044700001221A7008BD00BF000080390000E03F33
:10448000000059400000224000001440000040405D
:1044900064E103205CE103206666666666660A40A6
:1044A00007B5184B00221146586802F07BFD08B191
:1044B000FFF74AFFFFF7A8FFFFF782FF01A90320DC
:1044C000FFF7C6FE88B90620B0EE000AFFF72BFF03
:1044D000BDF8043030EE000A07EE103A30EE000A64
:1044E000B8EE477AC7EE007A01E0FFEE007AFDEE03
:1044F000E77A054BC3ED027A044B01221A7003B030
:104500005DF804FBBCE1032088E1032085E1032082
:1045100010B50D4C236893F8500093F8513003F018
:104520001F0343EA4010FFF7EBFD236893F85000A8
:1045300093F8513003F01F0343EA4010FFF7EFFDFB
:10454000024B00221A7010BD08E10320DCE00320BA
:1045500010B5202490B022460021684605F003FCE7
:10456000224600210DEB04008DF8054005F0FBFB11
:1045700000210DEB04008DF8254002F07FFC184B64
:104580005979009BA1B140F22622ADF8082041F2F2
:10459000D832ADF806204FF40072ADF80A2043F48B
:1045A000007341F27202ADF80C200093002112E07A
:1045B0004FF46172ADF8082041F27002ADF80620A8
:1045C0004FF48062ADF80A2043F4007341F2100208
:1045D000ADF80C200093684602F050FC10B010BDFE
:1045E00088E1032008B502F085FC80F00100C0B22C
:1045F00008BD0000F8B502F075FCFFF791FE00253C
:10460000044643F697260027FFF78AFE001B61EB5E
:1046100005018F4208BF864205D3FFF7E3FF10B9BB
:1046200002F050FCF0E7FFF7DDFF094800231946D0
:104630001A46406802F0C6FC064B0022DA70064BB0
:1046400001244FF4FA601C7002F02CFD2046F8BDE6
:10465000BCE1032088E1032085E1032038B5084D43
:104660000024AC602C606C6004F04FF8054B064AE7
:104670005C6101231370054AE8606C61137038BDFA
:1046800064E1032088E103205CE1032085E103204D
:1046900010B5074C02F004FA2368C01AB0F57A7F0F
:1046A00004D302F0FDF92060012010BD002010BDF0
:1046B00080E1032008B5FFF7EBFF18B1BDE8084023
:1046C000FFF7E6BF02F0FEFBF5E7000037B502F0AA
:1046D00009FC02F0E5F943F69725044602F00AFCCE
:1046E00040B102F0DDF9001BA84203D8642002F0BB
:1046F000D9FCF3E70021094B47F23052084602F09B
:1047000077F94FF47A7002F0CDFC054B0A221B6852
:104710000121684603F020FE03B030BD11D00D002A
:10472000F8E0032038B504F00BF8054604F019F85A
:10473000044604F00FF8231F062B0ED9E31E082BA6
:104740000DD801382D1A01D50B2C02E0072D06DDFE
:10475000032C14BF0020012038BD012038BD0020EB
:1047600038BD38B5046805467CB16368013B6360B9
:104770005BB9236820469B689847A368013BA36008
:104780001BB923682046DB689847284638BD0000DF
:104790002DE9F041414DDFF834812B6893F870002A
:1047A00093F8713003F01F0343EA4010C4B0FFF7E1
:1047B000A7FC02F075F93A4B1A68801A394A116958
:1047C00088421C4616461CD298F80070CFB913795F
:1047D0001BB102F08FFB002850D1334B01221A701D
:1047E0002B6893F8700093F8713003F01F0343EACD
:1047F0004010FFF794FC2D4B00221A7044B0BDE826
:10480000F08102F04DF92A4F206000233C7888F8AF
:10481000003003F08BFF8442264C04D003F086FF67
:1048200001233870A361A369224F0133A36103F010
:104830006CFF2368E06001332360A3680133A36049
:104840003379002BC9D002F055FB0028C5D0BB68D6
:1048500000933B68184A4FF4807104A802F002FCF0
:10486000FFF728FF154B16491B7800228DF8002012
:1048700002A804AAFFF7D7FC03A80BE0FFF71AFF72
:104880000E4B104A1B7810498DF8007004A8FFF7F2
:10489000CAFC05A8FFF765FF9FE700BF08E10320FA
:1048A00054E1032088E103205CE103207CE0032045
:1048B000D5E0032064E103201ED00D00B4E0032006
:1048C000ECD20D003BD00D0045D00D0050E103208F
:1048D0002DE9F8431F48204D406800231A46194629
:1048E00002F068FB02F0F6FA4FF4967440F2E736F5
:1048F0000027FFF715FD4FF000098046FFF710FD78
:10490000B0EB080061EB09018F4208BF864205D376
:1049100002F0F0FA10B902F0D5FAEFE702F0EAFA85
:1049200048B102F0E7FA98B10C4A0123D3700C4A5F
:104930001370BDE8F8832B780BB1FFF729FF02F065
:10494000AFF8084B186002F0BDFA013CE9D0D0E79F
:10495000BDE8F883BCE103207CE0032088E103206C
:1049600085E10320F8E5032010B51A4CCAB0A3690D
:10497000069363690593184B5A690492226903925E
:10498000164A02929B680193A3680093144A236815
:104990004FF480710AA802F065FB124B12491B7894
:1049A00000228DF8002008A80AAAFFF73CFC09A8FD
:1049B000FFF7D7FE0D4B01221A7002F071F80C4B75
:1049C000186003F0A9FE0B4B1860236863604AB0BF
:1049D00010BD00BF64E1032088E10320BDE0032097
:1049E0004BD00D00B4E00320B2D00D0084E10320D1
:1049F000D0E00320D8E0032010B50B7894B00C462B
:104A000023B91C4904A805F037FC17E0084604F058
:104A1000E7FFC82804D0204604F0E2FFC9281ED1D1
:104A2000154904A805F028FC03F06FFE134B9862AB
:104A3000134B01221A70134B00221A70FFF73AFE33
:104A4000114B12491B7800228DF8002002A804AAFD
:104A5000FFF7E9FB03A8FFF784FE14B010BD204662
:104A600004F0BEFF0A4A0346402104A802F0FAFA05
:104A7000E4E700BFCAD00D00DFD00D0088E10320BD
:104A800085E1032084E10320B4E00320D2D00D00AF
:104A9000F1D00D001FB50D4903F06FFB002490B15C
:104AA0000B4B0C4A1B780C498DF8004002A8FFF70D
:104AB000BAFB03A8FFF755FE234601220A21074847
:104AC00001F009FF012004B010BD00BF4CD40D005F
:104AD000B4E003200ED10D0073D20D0098E0032046
:104AE00070B586B003A9006806F04AFFB5EEC00AAB
:104AF000F1EE10FA35D4F1EE047AB4EEE70AF1EEF5
:104B000010FACCBF012500255DBBDFED187A184BEC
:104B1000184E60EE277A0124FDEEE77A1C7010EE45
:104B2000100AC6ED047A04F083FB134ACDE90001B4
:104B30000821124802F096FA3379A3B102F0DAF9AB
:104B400088B1FFF7B7FD0E4B0C4A1B780D498DF865
:104B5000005004A8FFF767FB05A8FFF702FE2046F8
:104B600002E0002000E0012006B070BD00007A44A1
:104B700085E1032088E1032026D10D0079DF0320A1
:104B8000B4E00320CCD30D0030B5224985B00446F3
:104B900003F0F3FA0546D8B11F4B01245C71FFF70F
:104BA000D7FC1E4B1C70FFF785FD02F0A3F908B976
:104BB00001202CE01A4B1B491B7800228DF80020A5
:104BC00002A8194AFFF72FFB03A8FFF7CAFDEFE77A
:104BD0001649204603F0D1FAC8B10F4B5D710F4B57
:104BE00001241C70FFF7B4FCFFF764FD02F082F9AA
:104BF0000028DDD00A4B0E4A1B780A498DF8005078
:104C000002A8FFF710FB03A8FFF7ABFD204605B095
:104C100030BD00BF4CD40D0088E1032085E10320A6
:104C2000B4E003205FD10D0030D10D0047D10D005D
:104C300049D10D0030B5204985B0044603F09DFAF6
:104C40000546C8B11D4B01241C711D4B1C70FFF79C
:104C500031FD02F04FF908B901202AE0194B1A4939
:104C60001B7800228DF8002002A8184AFFF7DBFA13
:104C700003A8FFF776FDEFE71549204603F07DFA1C
:104C8000B8B10E4B1D710E4B01241C70FFF712FDC5
:104C900002F030F90028DFD00A4B0E4A1B780A498F
:104CA0008DF8005002A8FFF7BEFA03A8FFF759FDE0
:104CB000204605B030BD00BF4CD40D0088E1032074
:104CC00085E10320B4E003205FD10D0064D10D0025
:104CD00047D10D0075D10D002DE9F043CDB004464C
:104CE000FFF78AFAFFF71CFB0027064647F22F580A
:104CF0004FF00009FFF714FB801B61EB07018945AA
:104D000008BF804505D3FFF781FA10B902F0DAF841
:104D1000F0E7FFF77BFA0A2205A9206806F0D6FE25
:104D200000F10C03DBB2182B58D844B207EE904ABE
:104D30002F4BB8EEE70A83ED060A03F0BFFB2D4BBD
:104D400001221A7003F0ACFB054603F0DEFC281AC2
:104D500004F05CFA24A3D3E9002304F0E7FB264A1D
:104D6000CDE900010A21254802F07CF92346244AB6
:104D70004FF480710CA802F075F9FFF79BFC02F06C
:104D8000B9F860B11F4B20491B7800228DF8002034
:104D900008A80CAAFFF747FA09A8FFF7E2FCFFF7FB
:104DA00089FC02F0A7F8B8B103F0AFFC014608A8EF
:104DB00003F0D4FB089B0393124B13491B7800228A
:104DC0008DF8002006A8039AFFF72DFA07A8FFF731
:104DD000C8FC08A803F05DF9012000E000204DB0F8
:104DE000BDE8F083AFF30080000000000020AC407D
:104DF00088E1032085E103208AD10D007DE00320B6
:104E000094D10D00B4E0032023D30D0010B5C6B03B
:104E10000A2203A9006806F059FE172803461DD888
:104E2000114A1062114A01244FF48071147006A8CF
:104E30000F4A02F017F9FFF73DFC02F05BF878B17A
:104E40000C4B0D491B7800228DF8002004A806AAFF
:104E5000FFF7E9F905A8FFF784FC01E0002000E076
:104E6000204646B010BD00BF88E1032085E1032045
:104E7000A8D10D00B4E0032023D30D0010B5C6B0B7
:104E80000A2203A9006806F021FE182803461DD84F
:104E9000114A5062114A01244FF48071147006A81F
:104EA0000F4A02F0DFF8FFF705FC02F023F878B1B3
:104EB0000C4B0D491B7800228DF8002004A806AA8F
:104EC000FFF7B1F905A8FFF74CFC01E0002000E076
:104ED000204646B010BD00BF88E1032085E10320D5
:104EE000BCD10D00B4E0032023D30D0030B5294917
:104EF00085B0044603F041F928B92749204603F05C
:104F00003CF9002843D02349204603F036F9B0B1DC
:104F100001F0F0FF70B1FFF7CDFB204B20491B786B
:104F200000228DF8002002A81E4AFFF77CF903A892
:104F3000FFF717FC1C4B1D4901229A7121E016490D
:104F4000204603F01AF9F8B101F0D4FF164C18B955
:104F5000FFF7BEFC0123E370FFF7ACFB0F4B1049DA
:104F60001B78134A002502A88DF80050FFF75BF963
:104F700003A8FFF7F6FB4FF47A7002F093F80D499F
:104F8000A5710D4805F078F90C4B0120187005B09B
:104F900030BD00BF4CD40D0047D10D00B4E003205C
:104FA0005FD10D00D3D10D0088E10320E2D10D00C7
:104FB000E7D10D00F9D10D005DE1032085E103206B
:104FC00030B53D4C3C4D85B0FFF76AFAA378012B14
:104FD00084BF0023A370E378012B06D901F08AFF78
:104FE00010B10123EB7000E0E8702379012B82BF40
:104FF000314B00221A716379012B82BF2E4B0022A4
:105000005A71A379012B09D92C49684603F088F815
:105010006846FFF76BFF684603F03BF8A268264B33
:10502000D4ED067A1D2AD4BF01220022DA7122694A
:1050300041F270739A4282BF1F4B4FF47A721A6129
:105040006369FF2B88BF1C4BBAEE087A88BF002229
:10505000F4EEC77A88BF5A61F1EE10FA06D4B2EEC8
:10506000087AF4EEC77AF1EE10FA01DD144BA36171
:10507000D4ED077AF5EEC07AF1EE10FA06D4B0EE70
:10508000007AF4EEC77AF1EE10FA02DD4FF07E53AB
:10509000E361236A0C2B82BF074B00221A62636A0A
:1050A0000C3B0C2B82BF044B18225A62054B012289
:1050B0001A7005B030BD00BF88E103204CD40D004C
:1050C0000000A0C085E1032070B586B0FFF700FCAA
:1050D000FFF7E6F9FFF7EEFA01F00CFF60B11B4BAA
:1050E0001B491B7800228DF8002002A8194AFFF7FF
:1050F0009AF803A8FFF735FB174C1849A3681D2B36
:10510000CCBF002301230125002602A8E3712570EE
:10511000A670257103F004F802A8FFF7E7FE02A8C5
:1051200002F0B7FF4FF47A7323610D4BA3614FF088
:105130007E53E3611823636222462C2329460948E3
:10514000266200F03DFF06B070BD00BFB4E0032052
:105150005FD10D00FFD10D0088E1032047D10D0084
:105160000000A0C088E0032030B5164D164C17494A
:105170002A7820788FB00E2303FB0212009203FBE3
:105180000013134A282104A801F06CFF2B78237028
:1051900001F0B0FE70B1FFF78DFA0E4B0E491B788F
:1051A00000228DF8002002A804AAFFF73CF803A80B
:1051B000FFF7D7FA03F0D0FB04A902F012FF0FB0FB
:1051C00030BD00BFD4E00320BCE0032004DF032097
:1051D00017D20D00B4E0032025D20D002DE9F043D5
:1051E00087B0FFF767FA204B204A1B782049214CF3
:1051F000002502A88DF80050FFF715F803A8FFF767
:10520000B0FA2571FEF7F8FFFFF78AF80027064687
:1052100047F22F584FF00009FFF782F8801B61EB2F
:105220000701894508BF804505D3FEF7EFFF10B998
:1052300001F048FEF0E7FEF7E9FF63791BB90D4B7B
:105240009B68462B09DC0C4902A802F069FF02A802
:10525000FFF74CFE02A802F01CFF084B01221A7057
:1052600007B0BDE8F08300BFB4E0032036D20D00E4
:105270003ED20D0088E103204CD40D0085E10320CF
:105280002DE9F043954C2378013B8BB0052B00F2C0
:105290001B82DFE813F0A701060063009E004501B2
:1052A00072018F4D2B792BB18E4B1B78022B01D0C5
:1052B000FFF75AFF8C4B1B780BB1FFF729F98B4B8B
:1052C0001B780BB1FFF764FA894B8A4E596869B1B4
:1052D0001A68521A1A6000225A619A615A600123B0
:1052E000337003F019FA08B9FFF7B8F9824F3B7829
:1052F0003BB12C237A4A8148012100F061FE002352
:105300003B70337843B11C23794A7C48502100F02C
:1053100057FE784B00221A70AB794BB101F0C0FBFD
:10532000774B1B68C01A774B1B68984200F2D281FA
:1053300003F0F2F9744B1B6898421CBF05232370DD
:1053400003F0EAF96B6A984280F2C78103F0E4F94E
:10535000634B1B6A9842C0F2C081B5E1604B1A7979
:105360001D462AB15F4B1B78032B01D0FFF7FCFED3
:105370000D2002F00BFC654B1B6893F8C00093F8FE
:10538000C13003F01F0343EA4010FEF7B9FE584B4B
:105390001B680BB1052323E1EB780BB1FFF72AF96A
:1053A0000021072003F0D1FBFFF7B2F803F0ADF9BD
:1053B0004FF4616390FBF3F101FB1300191AB1F58F
:1053C000616F4FF000034FF00102A8BF4FF461611D
:1053D0005AE1434D2B792BB1424B1B78042B01D062
:1053E000FFF7C2FE414B1B78002B40F06D81EB783C
:1053F0000BB1FFF7FFF8434B2A691A6003F085F9F8
:105400000646FFF785F8424B1A7D0AB101221A724F
:10541000002204213E48FEF74FFF01220D21FEF736
:105420004BFF037D05465BB34FF4616296FBF2F3DD
:1054300002FB1363D31A9342A8BF13464FF47A7743
:1054400004215F43FEF72EFF804608B1C76017E0D6
:105450003049102003F02CFC0646002800F03F8164
:105460004FF010094A46414604F07DFC0223738048
:105470000423A6F80090B3802B69B360F7602E6117
:105480002B7D1BB1EB6843F00103EB60204903A8BF
:1054900002F0FAFE039BC3B19A88012A15D19B89B9
:1054A0000D2B06D11C4B1A7001F0FAFA144B186040
:1054B0000BE0042B09D1194906A802F031FE06A819
:1054C000FFF714FD06A802F0E4FD03980223237001
:1054D000002800F0F98001F0A5FDF5E0D4E00320FC
:1054E00088E10320BCE00320DCE003207CE0032013
:1054F00064E103205CE1032085E1032088E00320D0
:105500000CE10320B8E00320D8E0032008E10320E9
:10551000E0E0032040D90D0050E1032047D10D0009
:10552000704D2B792BB1704B1B78052B01D0FFF7F9
:105530001BFEEB780BB9FFF7CBF901F0DBFC60B198
:1055400003F0EAF82B6A984201D1FFF747FEFEF715
:10555000A7FFFFF709FA062304E001F0A1FA634B65
:10556000186001232370AB79002B00F0AD806048F8
:1055700000F0C2FF02F0E8FFA6E05A4B1B792BB106
:10558000594B1B78062B01D0FFF7EEFD594B1B78CA
:1055900043B9594B594A1A6001F082FA584B1860C6
:1055A00002231DE001F07CFA564B1B68C01A4AF634
:1055B000C873984240F2888001F072FA4B4B186031
:1055C000FFF778F8504B51491B7800228DF80020E6
:1055D00006A84F4AFEF727FE07A8FFF7C2F80123E7
:1055E000237071E03F4C23792BB13F4B1B78012B8B
:1055F00001D0FFF7B9FD01F053FA3C4B1B6803F5EE
:10560000EA43303398425FD96369032B18DCFFF714
:1056100051F801F06FFC60B13B4B3E491B78002212
:105620008DF8002006A83C4AFEF7FDFD07A8FFF70D
:1056300098F84FF4FA6001F035FD02F022FE43E0E5
:1056400003F063F8274B354D9B6AC01AB0F5E15F54
:105650001ED9FFF72FF801F04DFC60B12A4B2D4900
:105660001B7800228DF8002006A82D4AFEF7DBFDEE
:1056700007A8FFF776F84FF4FA6001F013FD002356
:10568000012263612A700A21194801F024F91BE004
:10569000FFF710F801F02EFC60B11B4B1D491B7881
:1056A00000228DF8002006A81E4AFEF7BCFD07A8C0
:1056B000FFF757F84FF4FA6001F0F4FC0023636140
:1056C00001232B70FFF702F8094801F03DF80BB0F9
:1056D000BDE8F083042323702AE6032380E72875BE
:1056E000CEE600BF88E10320BCE0032058E10320A0
:1056F00098E0032084E10320B8E00320905F0100DC
:105700000CE10320D0E00320B4E003204CD20D00D4
:105710001DD00D0079D20D0065D20D0085E103206A
:105720007FD20D0099D20D0030B52DED028BCDB09A
:10573000054602F0EAFF0A22044605A9286806F099
:10574000C5F9C3B2022B67D840B207EE900AB8EE93
:10575000E78AB0EE480A02F0CDFE354B83ED078AAA
:10576000344B01221A7018EE100A03F061FD324A20
:10577000CDE900014FF480710CA801F073FCFEF735
:1057800099FF02F0A1FF38B1FEF7CCFF10B102F093
:10579000CBFE01E002F0D2FE02F082FE054602F0EE
:1057A000B4FF281A03F032FD1FA3D3E9002303F04E
:1057B000BDFE224ACDE900010A21214801F052FC38
:1057C00001F098FB60B11F4B1F491B7800228DF838
:1057D000002008A80CAAFEF726FD09A8FEF7C1FFC5
:1057E000FEF768FF01F086FBC0B1214608A802F071
:1057F000B5FE089B0393134B13491B7800228DF8C9
:10580000002006A8039AFEF70EFD07A8FEF7A9FFE1
:1058100008A802F03EFC01E0002000E001204DB0AD
:10582000BDEC028B30BD00BF000000000020AC408A
:1058300088E1032085E10320B8D20D008AD10D0054
:105840007DE00320B4E0032023D30D0000230222D7
:1058500001F028BB0023042201F024BB02460148CA
:1058600001F0F7BD27740D002DE9F0430021ADB024
:10587000082003F059F90021042003F055F9012113
:10588000072003F051F90121052003F04DF9AC4F39
:10589000AC4CDFF8AC8303210D2003F045F9012166
:1058A0000C2003F041F93B6893F8C00093F8C13035
:1058B00003F01F0343EA4010FEF731FC01210B20E7
:1058C00003F032F93B6893F8B00093F8B13003F07D
:1058D0001F0343EA40100025FEF712FC01210720B8
:1058E00003F033F9FEF714FE4FF0FF33012296491F
:1058F0000095082002F022F904A801F003FB2B46D2
:105900007D220CA904A802F04AFC2B462A468F49A6
:10591000019500950CA801F005FB8D498D48FFF716
:1059200095FF8D498D48FFF791FF8D498D48FFF711
:1059300091FF8D498D48FFF789FF8D498D48FFF70D
:1059400085FF8D498D48FFF785FF8D498D48FFF70D
:105950007DFF8D498D48FFF77DFF8D498D48FFF70D
:1059600075FF8D498D48FFF771FF8D498D48FFF711
:1059700071FF8D498D48FFF769FF8D498D48FFF70D
:1059800069FF8D498D48FFF765FF8D498D48FFF709
:1059900065FF8D498D48FFF761FF8D498D48FFF701
:1059A0005DFF8D498D48FFF759FF8D498D48FFF701
:1059B00055FF8D498D48FFF751FF8D498D48FFF701
:1059C0004DFF8D498D48FFF749FF8D498D48FFF701
:1059D00045FF8D498D48FFF741FF8D498D48FFF701
:1059E0003DFF8D498D48FFF739FF8D4800F050FA93
:1059F00001230DF10F022946894800F08BFA9DF82A
:105A00000F30022B1AD0864800F04CFA0423854A46
:105A10008348294600F0D4FA01230DF10F022946EC
:105A20007F4800F077FA9DF80F30022B03D0012356
:105A300088F8003008E0FFF747FB05E02C232246FA
:105A40000121774800F066FA2CAD0026FFF7B8FA7E
:105A500045F8906D32463146284601F009F8089B1A
:105A6000142B00F04F81324631462846089600F04C
:105A7000FFFF089B8C2B00F04581D4ED047AF8EEF3
:105A8000E77A17EE900A03F0D3FB674B002203F08E
:105A90004DFD664ACDE900010821414801F0E2FAD6
:105AA000A3790BB1624900E06249374804F0E4FB96
:105AB000614800F031FD00215F4800F082FE94ED66
:105AC000070A02F017FD02F0FFFD20B95A4800F066
:105AD00013FD02F039FDFEF725FE10B102F024FDA2
:105AE00001E002F02BFD94ED060ADFF8589102F078
:105AF000E5FC02F0D5FC064602F007FE301A03F082
:105B000085FB0DA3D3E9002303F010FD104E4B4A93
:105B1000CDE900010A21264801F0A4FA1C233246EF
:105B200050213F4800F0F6F93368002B00F08C80DC
:105B3000F06802F091FC89E0000000000020AC4019
:105B400008E1032088E10320C5400D00F9490D005C
:105B500064E10320C9D20D006CE10320D5D20D0011
:105B600010E10320E0D20D009CE10320E7D20D00FC
:105B700074E10320F2D20D0074DF0320FED20D0089
:105B800090E1032006D30D005DE1032011D30D0049
:105B9000A8E10320B5D30D00ACE103201ED30D0016
:105BA00079DF0320CCD30D0078E1032028D30D004A
:105BB0007DE003202FD30D00BDE003203AD30D007C
:105BC00055410D0049D30D00B5410D0053D30D00D3
:105BD000954A0D005FD30D0071410D0069D30D0092
:105BE000ED4E0D0071D30D00894B0D007ED30D00DD
:105BF000354C0D0089D30D00D94C0D0096D30D0006
:105C000029570D00A3D30D000D4E0D00B1D30D008B
:105C10007D4E0D00BED30D00E14A0D00C8D30D002E
:105C200088E00320F4CF0D0000408F4026D10D0006
:105C3000E2D10D00F9D10D0098E003208AD10D00CA
:105C4000D4E00320D8E0032002F066FDC9F800008C
:105C5000FEF77EFC042002F091FF08B9FFF734FA4A
:105C600002F06EFD8146F06802F0FEFB814510D027
:105C7000FEF7F4FC637963B1274B9B794BB9274955
:105C8000284602F04DFA2846FFF730F9284602F080
:105C900000FA02F041FD636A1F4D984217DA02F0E4
:105CA0003BFD2B6A984212DB0023009301224FF048
:105CB000FF331B490D2001F041FFEB7813B101F0D8
:105CC00019F930B3FEF7ECFB164B174A1A603B6824
:105CD00093F8B00093F8B13003F01F0343EA40108B
:105CE000FEF71DFA98F8003013B9104B02221A7013
:105CF0000021072002F029FF04A802F0CAF92DB004
:105D0000BDE8F083636901336361094B01221A70B6
:105D1000B3E6FEF7DDFDD5E788E103204CD40D00A6
:105D2000B9400D00B8E00320905F0100D4E00320EB
:105D300085E10320324B2DE9F04100241C60314BFA
:105D4000314D324E01271F7000F0D2FE304B1860EB
:105D500002F0B0FE2346224642F6702102F0B2FE67
:105D600002F0A8FE22462346032102F0B3FE4FF6BE
:105D7000FF736B812C60AC80AC712C81022001F030
:105D800029F832462349284602F082FF224D214657
:105D9000384601F037F83946042000F059FE4FF03C
:105DA0001008281D42462146286003F0DCFF02232C
:105DB00032461A49EB8028462F75A5F8048002F078
:105DC00067FF02F01FFF164D0146284600F0E2FA79
:105DD00032461449284602F05BFF02F013FF124DD1
:105DE000234601464FF40052284600F047F80F4B77
:105DF0002B60324628460E49BDE8F04102F048BF0C
:105E0000F8E00320B4E00320FCE0032078E0032066
:105E100008E1032041420D00E0E003203D410D0078
:105E200098E0032007610D0088E003209CCF0D005F
:105E30008D410D00704710B51021044602F02DFF72
:105E4000204610BD0368C9B29B6818470EB400B560
:105E50008CB00DAA202352F8041B03928DE8060093
:105E600004930168002304AA1E20059300F098FF04
:105E70000CB05DF804EB03B07047000030B5034D83
:105E8000056041608260C36030BD00BFD0D40D00AA
:105E9000406801F0FDBD10B50446006801F044FE05
:105EA000204610BD2DE9F0418AB0074640680190B8
:105EB00001F031FE1E22002102A8BE6803F053FF4C
:105EC0000025DEB13B681E2EB04628BF4FF01E08ED
:105ED000DC6802AA434629463846A047044648B92A
:105EE0002A460A490A48FFF7B1FF01A8FFF7D3FF86
:105EF000204607E0C8EB06064544E2E701A8FFF7A5
:105F0000CAFF01200AB0BDE8F08100BF4ED40D00E9
:105F100084E203202DE9F3470446406801900E46D1
:105F20001746984601F0F7FDB8F1000F01D10124A2
:105F30003FE0E168606841F0500101F0E1FD310AA5
:105F40006068FFF77FFF31466068FFF77BFF002145
:105F5000606801F0D8FD08B100242AE0E1686068BB
:105F6000B8F1200FC14641F0500128BF4FF0200981
:105F700001234A46C9B201F0ADFD02F043FE0368B9
:105F80001B6998474845E7DB3D46C7EB060A02F028
:105F900039FE03685B69984705F8010BEA1BC5EBFE
:105FA0000803914505EB0A063B44F0D898462F4676
:105FB000BAE701A8FFF76FFF204602B0BDE8F087FF
:105FC0002DE9F3470446406801900D4690461F4670
:105FD00001F0A1FD4FB3E168606841F0500101F0AC
:105FE0008FFD290A6068FFF72DFF29466068FFF7DB
:105FF00029FF08F11E094646C8EB050A606816F835
:10600000011B03689B689847B14506EB0A05B0463B
:1060100007F1FF3701D0002FF0D10121606801F0B6
:1060200072FD0028D6D0002400E0012401A8FFF76B
:1060300032FF204602B0BDE8F0872DE9F0438BB077
:106040000E4615468046406801901C4601F063FDEF
:10605000AE4223D2264425440CB901243FE01E2C35
:106060002746D8F8003028BF1E27F61BD3F8089023
:1060700002AA3B4631464046ED1BC84708B90024FA
:106080002DE0D8F8003002AAD3F80C9029463B4600
:106090004046C8470028F2D0E41BDDE7DDD9002CDC
:1060A000DBD01E2CD8F80030274628BF1E27D3F897
:1060B000089002AA3B4631464046C8470028DED039
:1060C000D8F8003002AAD3F80C9029463B46404647
:1060D000C8470028D3D03E443D44E41BDFE701A875
:1060E000FFF7D9FE20460BB0BDE8F08300F000BDFD
:1060F000402070470020704780207047FF20704785
:10610000704770477047704710B51421044602F07D
:10611000C4FD204610BD10B50821044602F0BDFDA7
:10612000204610BD10B50821044602F0B6FD2046F9
:1061300010BD10B51C21044602F0AFFD204610BD75
:106140002DE9FF410368DB680546984710220146A8
:10615000684603F008FE2B6828469B689847002491
:1061600007462046BC420ED23E1B102E2B6828BF8D
:106170001026D3F818806A46334621462846C04781
:1061800008B13444EEE704B0BDE8F08100230122F9
:106190008372C272027342738373C3730374437452
:1061A00070470000012208B5427102228271032269
:1061B000064BC2710422036002720023072203719E
:1061C00042724374FFF7E2FF08BD00BF30D60D00F6
:1061D00003090A2200F00F0002FB0300704708B514
:1061E000807AFFF7F5FF00F5FA6008BDC07A00F08D
:1061F0001F00FFF7EDBF007B00F03F00FFF7E8BF97
:1062000008B5817B4A060DD501F01F00FFF7E0FFBE
:106210008B0603D50C280BD00C3008BD0C2808BF0A
:10622000002008BD01F03F00BDE80840FFF7D0BFE7
:1062300008BDC07B00F07F00FFF7CABF007C00F004
:106240007F00FFF7C5BF10B58AB0242200210446A5
:1062500001A803F088FD2046FFF7C1FFA0F26C7093
:1062600006902046FFF7C2FF013805902046FFF751
:10627000C2FF04902046FFF7C3FF03902046FFF7BC
:10628000D8FF02902046FFF7D9FF019001A803F044
:106290004FFE0AB010BD0A2290FBF2F393FBF2F11D
:1062A00002FB113102FB130343EA0110C0B2704735
:1062B000642310B5044691FBF3F000FB1310FFF7C5
:1062C000EAFFA07210BD10B504460846FFF7E3FFD1
:1062D000E07210BD10B504460846FFF7DCFF237BD3
:1062E00023F03F031843207310BD10B50446481C2B
:1062F000FFF7D1FF637B23F007031843607310BDE2
:1063000010B504460846FFF7C6FFA07310BD10B5D0
:1063100004460846FFF7BFFFE07310BD10B5044602
:106320000846FFF7B8FF237C23F07F03184320744F
:1063300010BD37B5044602A840F8041D03F062FB07
:10634000054641692046FFF7B3FF29692046013120
:10635000FFF7B9FFE9682046FFF7BCFFA9692046AF
:10636000FFF7C3FFA9682046FFF7CAFF6968204608
:10637000FFF7CDFF29683B29A8BF3B212046FFF747
:10638000CDFF03B030BD10B50446FFF7D2FF637AEE
:10639000637410BD084A0260002202724272012238
:1063A000827203460322C272044A41601861C260CD
:1063B000034A98614261704740D60D0010D50D0028
:1063C000ECD40D002DE9F84F05460F4691469A464C
:1063D00000240A9B9C4230D23946686801F08CFB4D
:1063E00009EB04016868FFF72DFD0021686801F0E2
:1063F0008AFB0646D8B90A9B68681A1B202A4FF008
:10640000010328BF2022394601F064FB0AEB04088F
:1064100083464646C8EB06039B4506D96868036871
:106420005B69984706F8010BF4E75C44D1E7024644
:1064300004490548FFF70AFD00E000263046BDE8A4
:10644000F88F00BF8AD50D00B4E103201FB50123EA
:1064500000930A4603AB6F21FFF7B4FF10B99DF814
:106460000C0000E0002005B05DF804FB08B5032136
:10647000FFF7ECFFC0F3401008BD7FB51E46002BB0
:106480000CBF072306230093144602AB0A466F2174
:10649000FFF798FF0546D8B99DF8083023749DF89A
:1064A0000930E3739DF80A30A3739DF80B306373D2
:1064B0009DF80C3023739DF80D30E3721EB99DF8E2
:1064C0000E30A37204E002F053F9FFF7E4FEA0726D
:1064D000284604B070BD38B500230C460A4619465C
:1064E0000546FFF7CAFF28B9A37A1BB12846FFF774
:1064F000BDFF00B9002038BD10B586B0044601A824
:10650000FFF750FE01A92046FFF7E5FF10B101A8F3
:10651000FFF799FE06B010BD30B5044685B040685F
:1065200001F0B6FA02F0D0F8C0B9E37A9B0715D5AE
:106530002046FFF7E1FF054680B102F005F8094B60
:1065400009491B682A46684602F08CF80748009AF9
:106550000749FFF77BFC684601F09BFD012323728E
:1065600005B030BD88DF0320B4E40320B4E103208C
:10657000A4D50D002DE9F34101EB03081E46036885
:106580009B6804460D461746984780450AD80096F2
:106590003B46EAB257216068FFF714FFB0FA80F07B
:1065A000400900E0002002B0BDE8F0812DE9F34190
:1065B00001EB03081E4603689B6805460C46174618
:1065C000984780450CD804F1200200963B46D2B291
:1065D0006F216868FFF7F6FEB0FA80F0400900E02E
:1065E000002002B0BDE8F0812DE9F84F074689464A
:1065F00092469B4600240A9B9C4228D249467868D2
:1066000001F07AFA0AEB04017868FFF71BFC0A9B99
:106610001E1B1F2E0BEB040828BF1F26454678685B
:1066200015F8011B026892689047C8EB0502B24258
:10663000F5D30121786801F066FA054628B10246D3
:1066400005490648FFF702FC02E03444D3E7002581
:106650002846BDE8F88F00BFB9D50D00B4E103208E
:106660001FB5137C8DF80830D37B8DF80930937BF0
:106670008DF80A30537B8DF80B30137B8DF80C307E
:10668000D37A8DF80D30937A8DF80E30072300936E
:106690000A4602AB6F21FFF7A7FF05B05DF804FBC8
:1066A00010B586B0044601A8FFF77CFD01A8FFF7EE
:1066B00040FE9DF81430A27A63F07F038DF8143009
:1066C0009DF8113012B143F0080301E023F00803F4
:1066D00001AA002120468DF81130FFF7C1FFB0FA62
:1066E00080F0400906B010BD7FB5064601F0ECFF12
:1066F0000446B8B102F009F8054601463046FFF7F6
:10670000CFFF0C4B0C491B682A460446684601F033
:10671000A9FF009A09490A48FFF798FB684601F06B
:10672000B8FC03E007490648FFF790FB204604B099
:1067300070BD00BF88DF0320B4E40320D4D50D0072
:10674000B4E10320EAD50D0037B5457A04468DB98A
:1067500001F0BAFF70B102A8294640F8045D00F0CC
:10676000F9FB38B1E37ADB0702D52046FFF7BCFF1F
:106770000123637203B030BD1FB504AB03F8042DD1
:10678000012200920A466F21FFF72EFF05B05DF847
:1067900004FBF8B5144605460E461F46FFF756FEA5
:1067A000204040EA070231462846BDE8F840FFF79E
:1067B000E3BF13B11346FF2201E0D243D2B2FFF789
:1067C000E8BF012908B50CD800294FF000030CBF21
:1067D000102220220721FFF7ECFFB0FA80F04009D9
:1067E00008BD002008BD00294FF000034FF008024B
:1067F00014BF14210D21FFF7DCBF2DE9F34101EB9C
:1068000003081E4603689B6805460C4617469847D2
:1068100080450CD804F1200200963B46D2B26F218D
:106820006868FFF7E1FEB0FA80F0400900E0002060
:1068300002B0BDE8F081F0B5012B85B006460C46EC
:1068400017461D4601D9002043E0FFF70FFE002840
:10685000F9D029463046FFF7C6FF237C227B8DF80E
:106860000830E37B8DF809308DF80C20A37BE27AA9
:106870008DF80A308DF80D20637B17B163F07F032C
:1068800001E003F07F038DF80B30637C9DF80B2053
:106890001B0103F070031343002D8DF80B304FF0F4
:1068A0000603009308BF0A2202AB18BF11226F2112
:1068B0003046FFF799FE044640B9002D0CBF102367
:1068C0002023FF2207213046FFF763FFB4FA84F04C
:1068D000400905B0F0BDF0B5012B87B006460C4667
:1068E00017461D4601D9002010E0FFF705FE0028DD
:1068F000F9D0011901A8FFF755FC01A8FFF743FDE6
:106900002B463A4601A93046FFF795FF07B0F0BD88
:1069100038B5054632245721686801F0EDF80121A9
:10692000686801F0F0F808B1013CF4D138BD00000E
:106930002DE9F0410546D7181446C2EB0108BC42C8
:106940001ED05721686801F0D7F808EB0401686889
:10695000FFF778FA686814F8011B03689B6898478A
:106960000121686801F0CFF8064628B102460649C1
:106970000648FFF76BFA04E02846FFF7C9FFDEE799
:1069800000263046BDE8F081FFD50D00B4E10320BC
:106990002DE9F04101EB03081E4603689B6804469D
:1069A0000D461746984780450AD833463A46E9B21D
:1069B0006068FFF7BDFFB0FA80F04009BDE8F081E4
:1069C0000020BDE8F081000008B500F091F8024B0E
:1069D000024A1A6008BD00BFB4E1032020D60D00B2
:1069E00008B5024B1B685B6C019308BD7402030081
:1069F00008B5024B1B689B6C019308BD7402030031
:106A000008B5024B1B689B68019308BD4802030050
:106A100008B5024B1B681B69019308BD48020300BF
:106A200008B5024B1B685B69019308BD480203006F
:106A300008B5024B1B685B6C019308BD480203005C
:106A400008B5024B1B689B6C019308BD480203000C
:106A500008B5024B1B685B6E019308BD340203004E
:106A600008B5024B1B689B6E019308BD34020300FE
:106A700008B5024B1B68DB6E019308BD34020300AE
:106A800008B5024B1B685B68019308BD1802030040
:106A900008B5024B1B68DB68019308BD18020300B0
:106AA00008B5024B1B685B69019308BD180203001F
:106AB00008B5024B1B68DB69019308BD180203008F
:106AC00008B5024B1B681B6A019308BD180203003E
:106AD00008B5024B1B689B6D019308BD18020300AB
:106AE00008B5024B1B68DB6D019308BD180203005B
:106AF00008B5024B1B681B68019308BD2C020300FC
:106B000008B5024B1B685B68019308BD2C020300AB
:106B100008B5024B1B689B68019308BD2C0203005B
:106B200008B5024B1B68DB68019308BD2C0203000B
:106B300008B5024B1B681B69019308BD2C020300BA
:106B400008B5024B1B685B69019308BD2C0203006A
:106B500008B5024B1B689B69019308BD2C0203001A
:106B600008B5024B1B68DB69019308BD2C020300CA
:106B700008B5024B1B681B6B019308BD2C02030078
:106B800008B5024B1B68DB68019308BD28020300AF
:106B900008B5024B1B689B69019308BD28020300DE
:106BA00008B5024B1B68DB69019308BD280203008E
:106BB00008B5024B1B681B6A019308BD280203003D
:106BC00008B5024B1B685B6A019308BD28020300ED
:106BD00008B5024B1B689B6A019308BD280203009D
:106BE00008B5024B1B68DB6A019308BD280203004D
:106BF00008B5024B1B681B6B019308BD28020300FC
:106C000008B5024B1B685B6B019308BD28020300AB
:106C100008B5024B1B681B6C019308BD28020300DA
:106C200008B5024B1B689B6C019308BD280203004A
:106C300008B5024B1B68DB6C019308BD28020300FA
:106C400008B5024B1B681B6D019308BD28020300A9
:106C500008B5024B1B685B69019308BD6402030021
:106C600008B5024B1B689B68019308BD68020300CE
:106C700008B5024B1B68DB68019308BD680203007E
:106C800008B5024B1B68DB69019308BD30020300A5
:106C900008B5024B1B681B6A019308BD3002030054
:106CA00008B5024B1B681B68019308BD3C0203003A
:106CB00008B5024B1B68DB68019308BD3C0203006A
:106CC00008B5024B1B681B69019308BD3C02030019
:106CD00008B5024B1B685B69019308BD3C020300C9
:106CE00008B5024B1B689B69019308BD3C02030079
:106CF00008B5024B1B68DB69019308BD3C02030029
:106D000008B5024B1B681B6A019308BD3C020300D7
:106D100008B5024B1B689B6A019308BD3C02030047
:106D200008B5024B1B681B68019308BD4C020300A9
:106D300008B5024B1B681B69019308BD4C02030098
:106D400008B5024B1B685B69019308BD4C02030048
:106D500008B5024B1B689B69019308BD4C020300F8
:106D600008B5024B1B68DB69019308BD4C020300A8
:106D700008B5024B1B681B6A019308BD4C02030057
:106D800008B5024B1B685B6B019308BD60020300F2
:106D900008B5024B1B681B6D019308BD6002030020
:106DA00008B5024B1B685B6D019308BD60020300D0
:106DB00008B5034B1B68D3F89830019308BD000059
:106DC0006002030008B5024B1B681B68019308BDF5
:106DD0002002030008B5024B1B685B68019308BDE5
:106DE0002002030008B5024B1B685B69019308BDD4
:106DF0002002030008B5024B1B689B69019308BD84
:106E00002002030008B5024B1B68DB6A019308BD32
:106E10002002030008B5024B1B68DB6C019308BD20
:106E20002002030008B5024B1B685B6D019308BD8F
:106E30002002030008B5024B1B689B6D019308BD3F
:106E40002002030008B5024B1B68DB6D019308BDEF
:106E50002002030008B5034B1B68D3F88830019368
:106E600008BD00002002030008B5034B1B68D3F8DF
:106E70009430019308BD00002002030008B5034BC5
:106E80001B68D3F8A830019308BD0000200203005E
:106E900008B5034B1B68D3F8AC30019308BD000064
:106EA0002002030008B5024B1B681B68019308BD54
:106EB0004402030008B5024B1B685B68019308BDE0
:106EC0004402030008B5024B1B689B68019308BD90
:106ED0004402030008B5024B1B68DB68019308BD40
:106EE0004402030008B5024B1B681B69019308BDEF
:106EF0004402030008B5024B1B685B69019308BD9F
:106F00004402030008B5024B1B68DB69019308BD0E
:106F10004402030008B5024B1B681B6A019308BDBD
:106F20004402030008B5024B1B685B6A019308BD6D
:106F30004402030008B5024B1B68DB6A019308BDDD
:106F40004402030008B5024B1B681B6B019308BD8C
:106F50004402030008B5024B1B685B6B019308BD3C
:106F60004402030008B5024B1B68DB6B019308BDAC
:106F70004402030008B5024B1B685B68019308BD1F
:106F80004002030008B5024B1B689B68019308BDD3
:106F90004002030008B5024B1B68DB68019308BD83
:106FA0004002030008B5024B1B681B69019308BD32
:106FB0004002030008B5024B1B685B69019308BDE2
:106FC0004002030008B5024B1B689B69019308BD92
:106FD0004002030008B5024B1B68DB69019308BD42
:106FE0004002030008B5024B1B681B6A019308BDF1
:106FF0004002030008B5024B1B681B6B019308BDE0
:107000004002030008B5024B1B685B6B019308BD8F
:107010004002030008B5024B1B681B68019308BDC2
:107020001C02030008B5024B1B685B68019308BD96
:107030001C02030008B5024B1B689B68019308BD46
:107040001C02030008B5024B1B681B69019308BDB5
:107050001C02030008B5024B1B689B69019308BD25
:107060001C02030008B5024B1B68DB69019308BDD5
:107070001C02030008B5024B1B681B6A019308BD84
:107080001C02030008B5024B1B68DB6A019308BDB4
:107090001C02030008B5024B1B681B6B019308BD63
:1070A0001C0203000021FFF79DBE10B58368044653
:1070B0000BB901F00EFEC3689847A3681BB1032209
:1070C00021462046984720461021BDE8104001F097
:1070D000E4BD10B50446006808B1FFF7B1FC2046D6
:1070E00010BD0B68036013B15A6801325A607047D3
:1070F00010B5064C002320462360FFF799FC20467C
:10710000034A0449BDE8104001F0C2BDB8E10320C4
:1071100078E00320D3700D00002211464068FFF78D
:1071200041BF002211464068FFF75CBF00221146B4
:107130004068FFF767BF00224068FFF75BBF00228F
:1071400081F001014068FFF745BF00231A46194648
:107150004068FFF737BF00231A4619464068FFF71B
:1071600029BF002211464068FFF70CBF0022022110
:107170004068FFF70FBF00231A464068FFF7FABECA
:10718000F0B51B4B036000250F462833182689B045
:1071900043608560C560324629460446103002F0DF
:1071A000E2FD2A4629467868FFF7FCFE08B9A06090
:1071B0001BE02946324602A80095019502F0D3FD56
:1071C00002A96846ADF80860FFF70AFC10B1012378
:1071D000A3600AE0009B019AA360E2600BB902235E
:1071E000A36002A9204600F089F8204609B0F0BD4E
:1071F00084D60D0038B5084C28252A4600212046A3
:1072000002F0B1FD4FF0FF336360044B2580042290
:107210005A60034A1A6038BDC4E10320BCE1032070
:1072200050D60D007047007D70470000037D1BB1F4
:107230008369B3F1004F02D19FED050A704707EE55
:10724000903A9FED047AF8EEE77A87EE870A704766
:10725000000000000000C842037D1BB1036AB3F1C7
:10726000004F02D19FED050A704707EE903A9FED5F
:10727000047AF8EEE77A87EE870A7047000000008C
:107280000000C84210B52821044601F006FD204642
:1072900010BD0000037D7BB1436A002B0CDB07EEC1
:1072A000903ADFED076A9FED070AB8EEE77AC7EE7E
:1072B000267A27EE800A7047BFEE000A704700BFAB
:1072C00000FF7F470000C842037D7BB1C369002BEC
:1072D0000CDB07EE903ADFED076A9FED070AB8EE88
:1072E000E77AC7EE267A27EE800A7047BFEE000ADB
:1072F000704700BF00FF7F470000C84230B50D4611
:1073000000F110040FCD0FC495E8030084E80300DA
:10731000012030BD2DE9F04107460C4615462AB93B
:107320000368C9B29B68BDE8F0411847002907DA35
:107330000A2A05D12D2100F045FE6142064601E0F2
:1073400021460026EAB2384600F055FE3044BDE83A
:10735000F08170B50D4606460A2281682846FFF77F
:10736000D9FF2C210446284600F02CFE0A220444B2
:10737000F1682846FFF7CEFF204470BDA0F104005D
:10738000FFF7E7BF70470020704710B51021044693
:1073900001F083FC204610BD08B508B1FFF7F5FFEA
:1073A00008BD10B58368044613B10322014698470F
:1073B000204610BD0022026010B54FF69C728280FC
:1073C000B1F9044084808A8002680C6804600A6015
:1073D00010BD10B504460068FFF724FE204610BD1E
:1073E00038B5C468F4B12378022B03D104F10C0042
:1073F000FFF7EFFF656835B12846FFF7D2FF102190
:10740000284601F04AFCA56835B12846FFF7C9FFB8
:107410001021284601F041FC20461421BDE83840E7
:1074200001F03BBC38BD10B588B00446684600F09A
:1074300077FE694604A800F095FE04A8A04704461C
:1074400004A800F026FE684600F023FE204608B09F
:1074500010BDF0B5102485B007460E461546002134
:107460002246684602F07FFC002269461046ADF8CD
:107470000040029703960195FFF71CFD05B0F0BD93
:1074800013B5044691E8050000234B600B602060B3
:10749000626001A801930093FDF763F9204602B0F2
:1074A00010BDF7B50C4602AD54F8043B45F8083D55
:1074B00006460F4601A82146FFF713FE294630462F
:1074C000FFF7DEFF01A8FDF74CF92046FDF749F96B
:1074D0003846082101F0E1FB304603B0F0BD13B59A
:1074E0000B46044603C88DE8030093E8030084E8D4
:1074F00003009DE8030083E8030002B010BD000014
:1075000038B500230446036010200D46FCF7C5FD86
:1075100028B1012343608360024B0360C560206093
:10752000204638BDB8D60D00826810B50AB901F002
:10753000D0FBC368BDE81040184708B5006800F1EB
:107540001001FFF7F1FF08BD826810B50AB901F01C
:10755000C0FBC368BDE81040184708B5006800F1DB
:107560001001FFF7F1FF08BD38B5002383608B6879
:1075700004460D462BB102229847EB68E360AB68E6
:10758000A360204638BD0000F0B589B004686846A5
:10759000FFF710FF00238DF808304FF00202D4E807
:1075A0004F3F002B03D1C4E8412F0029F7D102D06F
:1075B0008DF8083063E014F10C0503D069462846C5
:1075C000FFF7F8FEBFF35F8F01236370002004F123
:1075D0000803BFF35F8F53E8006F43E80002002AFF
:1075E000F9D1BFF35F8F002E49D0FFF713FC20B114
:1075F00029463046FFF798FF3AE0314602A8FFF7E8
:10760000B3FFE068B4F9105008B102F03DFE0690F7
:107610001020ADF81C50FCF740FD0546E8B10027EE
:1076200087601820FCF739FD044688B10146876061
:1076300002A8FFF754FF049BA268A360059B049275
:1076400006A9E268E36004F110000592FFF7B2FEBC
:107650000D4BEB600D4B2C60AB6006A8FFF7B9FE3D
:1076600002A8FFF79EFE002229460948FFF7DAFB31
:107670003046FFF796FE1021304601F00EFB6846BB
:10768000FFF7A7FE09B0F0BD3B750D00B1770D0007
:10769000AB700D002DE9F04F8BB006460F469046BB
:1076A00099469DF850A0FFF725FC07AD834630BBF7
:1076B0004FF62E73059005A92846ADF81830FFF750
:1076C00079FE1420FCF7E9FC044658B1022303704C
:1076D00001234370C0F804B0C0F808B029460C304C
:1076E000FFF768FE3046214640F8044BFFF708FFDD
:1076F0002846FFF76EFE05A8FFF76BFE52E0002458
:107700000C2314206C60AC600793FCF7C6FC0146A8
:1077100018B1047044704460846004A80391FFF7BA
:10772000EFFE224B08930820FCF7B7FC044628B173
:10773000039B40F8043B04A9FFF7D3FC00955FFAD4
:107740008AF34A46414638460994FFF7E3FB20B9DD
:10775000039B5B7803F0FF0283B1039B059304A9AD
:1077600006A8FFF7BEFC05A93046FFF789FE06A86C
:10777000FCF7F7FF04A8FCF7F4FF13E04FF69C7347
:1077800005A903A80592ADF81830FFF7FDFE05A87E
:10779000FFF71FFE05A80999FFF783FE06A8FCF76F
:1077A000E0FFDAE730460BB0BDE8F08F21790D003D
:1077B000022AF8B5044606D0032A17D0012A22D19E
:1077C0000B6803601FE018200E68FCF766FC054696
:1077D00050B13146FFF7C8FE3069B6F9147008B1F0
:1077E00002F052FD2861AF8225600CE0046854B1BC
:1077F00004F11000FFF7EDFD2046FFF7D2FD182140
:10780000204601F04AFA0020F8BD38B50023836015
:107810008B6804460D462BB102229847EB68E36063
:10782000AB68A360204638BD022A70B5044606D076
:10783000032A11D0012A18D10B68036015E0142027
:107840000E68FCF72AFC054620B13146FFF7DDFF44
:10785000337C2B74256008E0046834B12046FFF7C0
:10786000A0FD1421204601F018FA002070BD000090
:10787000F0B5002387B00C46BFF35F8F50E8006F70
:1078800040E80032002AF9D1BFF35F8F002E3FD0CD
:107890001846FFF7BFFA074620B121463046FFF7EA
:1078A00053FE2EE0314601A8FFF7AFFF23788DF895
:1078B00014301020FCF7F1FB0546D0B1876014208E
:1078C000FCF7EBFB044678B18760014601A8FFF79F
:1078D00006FE039BA268A360049B0392E268E36038
:1078E0009DF81430049223740A4BEB600A4B2C6011
:1078F000AB6001A8FFF755FD002229460748FFF7B6
:1079000091FA3046FFF74DFD1021304601F0C5F9E0
:1079100007B0F0BD5B750D0029780D00AB700D0050
:1079200030B585B004460D4668461146FFF7B9FDEF
:107930007CB124B228460DB102F0A6FC029002A947
:107940006846ADF80C40FFF71FFE02A8FFF741FDA7
:107950001DE000988DF808404FF00102D0E84F3F3D
:10796000A34203D1C0E8412F0029F7D102D08DF8FE
:1079700008300CE010F10C014FF0010318BF037345
:10798000BFF35F8F043000F8033CFFF771FF01A8DD
:10799000FCF7E7FE05B030BD002211464068FFF756
:1079A00021BB002211464068FFF72CBB0022406833
:1079B000FFF720BB002281F001014068FFF70ABBFE
:1079C00000231A4619464068FFF7FCBA00231A46FE
:1079D00019464068FFF7EEBA002211464068FFF7EB
:1079E000E1BA002211464068FFF7CCBA002202211A
:1079F0004068FFF7CFBA00231A464068FFF7BABACB
:107A0000024B03225A60024A1A607047ECE10320DD
:107A1000D4D60D007047F8B5064615460C468F18AB
:107A2000BC4206D0336814F8011B9B683046984767
:107A3000F6E72846F8BD0022007CFFF7B9B8002120
:107A4000007CFFF7BDB80021007CFFF7C1B8002122
:107A5000007CFFF7C5B80021007CFFF7C9B810B55E
:107A60001421044601F019F9204610BD10B5044652
:107A7000002363604FF47A73A360044B21740846BB
:107A800023601146FFF7C4F8204610BD08D70D004B
:107A900000231A461946007CFFF772B870B50C46F1
:107AA00086B0142506462A46002101A802F05BF99B
:107AB00023788DF8083063680393E3680493002209
:107AC000237A307CADF8045001A90593FFF7B8F88C
:107AD00006B070BD1FB500338DF800104FF0640183
:107AE000039118BF0123694601928DF80830FFF712
:107AF000D5FF05B05DF804FB0022007CFFF748B815
:107B0000C9B2FFF7F9BF0022007CFFF749B8002196
:107B1000007CFFF775B808B50021007CFFF780F8FE
:107B2000B0FA80F0400908BD08B50021007CFFF7DD
:107B30007FF8B0FA80F0400908BD0047F0B585B085
:107B40001C460E4617460546FFF70AF800208442F9
:107B50004FF0040303908DF80C30A5BF9DF828303A
:107B60008DF80E30034603AB009332463B46064980
:107B7000A8BF8DF80D402846FEF7EAFFB0FA80F066
:107B8000400905B0F0BD00BF3B7B0D00F8B50646CF
:107B9000FEF7E6FF074668B9084D55F826405CB188
:107BA0002046FFF7FEFB1021204601F076F845F84D
:107BB000267001E00020F8BD0120F8BDF4E10320AB
:107BC000704710B51821044601F067F8204610BD33
:107BD000F0B5037D062B8DB00E4600F104074FF083
:107BE000000402D000F1080518E00CAD394605F894
:107BF000304D2F232A460A20FFF72AF8284603F0A3
:107C000073F833680246DB682946304698470FE030
:107C100024B12E21304600F0D5F9044415F8011D99
:107C20000A22304600F0E7F9BD420444F0D1204674
:107C30000DB0F0BD10B5054B0446112240F8043BD1
:107C4000002102F090F8204610BD00BF30D70D0093
:107C50000346074A10B543F8042B01F1100251F80E
:107C6000044B43F8044B9142F9D10A781A7010BDC5
:107C700030D70D0010B59DF8084044EA032343EACD
:107C8000024242EA016104234160037510BD37B529
:107C90000D788B784A78C97800912946FFF7EAFF7A
:107CA00003B030BD014B024A1A60704784E20320E2
:107CB000ACD70D00002211464068FFF793B90022AF
:107CC00011464068FFF79EB900224068FFF792B95D
:107CD000002281F001014068FFF77CB900231A46B9
:107CE00001214068FFF76EB900231A461946406823
:107CF000FFF760B9002211464068FFF753B9002230
:107D000011464068FFF73EB9002202214068FFF7A4
:107D100041B900231A464068FFF72CB938B505462B
:107D200088B104684CB1A3681BB1032221462046E8
:107D300098471021204600F0B0FF28461421BDE8E6
:107D4000384000F0AABF38BD10B103685B6818471F
:107D5000704710B503680446BBB15868FEF750FE83
:107D600078B923685A7C12B95868FEF751FE236827
:107D70005868FEF755FE20680023236028B1FFF7FE
:107D8000CDFF206808B1FFF7C9FF204610BD38B508
:107D90000446D0F8C40108B1FCF783F9D4F8C00157
:107DA00008B1FEF74DFED4F8BC5135B12846FFF7B7
:107DB000D0FF0421284600F070FF206808B1FFF7CB
:107DC000C3FF204638BD000010B5044B044640F800
:107DD000083BFFF7DCFF204610BD00BF18D80D00A0
:107DE00038B50E4C0E4B23600025022304F5E470D9
:107DF0006360A560C4F8C451C4F8C851FEF718FE0A
:107E0000084BC4F8CC5184F8D05123602046064A70
:107E10000649BDE8384000F03BBF00BF88E20320C0
:107E20004CD80D0018D80D0078E00320C97D0D0056
:107E300000231A464068FFF79DB8002202214068DF
:107E4000FFF7A8B8002211464068FFF79BB8002250
:107E500011464068FFF7A6B800231A461946406845
:107E6000FFF7A8B800231A4619464068FFF7AAB8DA
:107E7000002281F001014068FFF7ACB800224068A1
:107E8000FFF7B8B8002211464068FFF7BBB80022E0
:107E900011464068FFF7A6B82DE9F043002495B0DD
:107EA00016460D460746FFF7C5FE214620220CA8C0
:107EB000009401F058FF40230C9321466B460CAA16
:107EC0003046FEF7D5FE0446002844D10246012183
:107ED0006868FFF767F80221804622466868FFF766
:107EE00061F8009E81462146002E34D0002932D10F
:107EF0007368022B02D00A2B09D02AE0B8F1000FD8
:107F000027D0716938460431FFF7C1FE20E0B9F18E
:107F1000000F1ED07469112201A801F024FF06236E
:107F20008DF8143001AD04F108031834186859684D
:107F30002A4603C20833A3421546F7D101A906A871
:107F400007ADFFF785FE0FCD3C1D0FC42B682370D6
:107F50000121F669C8E70098FEF782FE384615B0A1
:107F6000BDE8F083024B034A1A6000225A60704752
:107F70005CE403204CD80D00F8B506460D468F187A
:107F80000024BD420CD0336815F8011B9B683046B5
:107F90009847002801DB0444F3E7002C08BF04469F
:107FA0002046F8BD70B505460C46084649B102F0BA
:107FB0009BFE2B68024621462846DB68BDE87040E0
:107FC000184770BD03689B68184738B50D210546F2
:107FD000FFF7F8FF0A2104462846FFF7F3FF204485
:107FE00038BD38B50546FFF7DDFF04462846FFF7E4
:107FF000ECFF204438BD30B58BB00B4600218DF826
:108000002410012A98BF0A220DF12304B3FBF2F5D4
:1080100005FB123303F0FF03092B94BF30333733D2
:10802000DBB2214604F801392B46002DEED1FFF7D3
:10803000B9FF0BB030BD10B50446FFF7B2F92046CA
:1080400010BD00000348044A04490023836000F087
:108050001FBE00BF64E4032078E0032037800D00DA
:10806000704710B50C21044600F017FE204610BDE5
:1080700010B5054B0360044601710846FEF700FE8B
:108080000023A360204610BD80D80D000079FEF7C4
:10809000FFBD10B504460068FEF7C4FF204610BDC2
:1080A00010B50446006808B1FEF7BCFF002323604A
:1080B000A360636010BD38B504460D460068013109
:1080C000FEF7B8FF10B184E82100012038BD10B5DB
:1080D0000368044613B143688B4207D22046FFF77A
:1080E000EAFF20B1A3680BB922681370012010BD0C
:1080F00070B50E46114604461546FFF7E8FF18B95D
:108100002046FFF7CDFF09E02A463146A5602068EA
:1081100001F01EFE2268A3680021D154204670BDE4
:1081200038B50023044603604360836003730D4643
:1081300039B1084602F0D8FD294602462046FFF72D
:10814000D7FF204638BD884210B50B46044607D0FD
:10815000096819B19A68FFF7CBFF01E0FFF7A0FFAC
:10816000204610BD10B500230446036043608360C1
:108170000373FFF7E8FF204610BD08B582680B4681
:1081800012B919B9012008BD11B90368187802E0C5
:10819000006802F067F8B0FA80F0400908BD70B5D9
:1081A0000E469AB191B185689D4202D800230B70AA
:1081B00070BD541EED1A0168AC4228BF2C4619440C
:1081C0002246304602F0ADFD0023335570BD10B598
:1081D0000446006818B1FEF725FF0023236010BD98
:1081E00038B5B1F9043083800B460D4653F8062F9D
:1081F000C0F806209B8843810446FFF7E8FF2B6800
:1082000013B1236000232B60204638BDB1F9043040
:1082100010B50BB90A689AB10C685CB1A288012A42
:1082200003D0042A06D1022205E0A4894C818A7178
:108230000B8105E004220B814FF6FF738A714B819D
:1082400051F8063F03608B88838010BD38B50C461B
:108250000546FFF7BCFF44B12088FEF7DBFE28602F
:1082600028B12288214601F073FD002038BD014865
:1082700038BD00BFFCFEFFFF014600228C20FEF748
:10828000EFBB0020FFF7F8BFF0B5304D0B7D044683
:108290008BB00846AF1D13B30B681B79FBB10022EE
:1082A0004FF6FF7302A904300292ADF80C208DF84E
:1082B0000E20ADF81020ADF81230FEF7E9FD0AAB44
:1082C00000B253F81A2DADF80C009B88A880C5F8B1
:1082D00006200299BB802846FFF7B8FF1CE0202348
:1082E000002602931A4B00931A4903963346322014
:1082F00002AAFEF74DFD4FF6FF73ADF8123002A94A
:108300004FF6F263114802968DF80E60ADF81060DA
:10831000ADF80C30FFF764FF02A8FFF758FF002309
:108320002360A380A37123814FF6FF736381B5F9A6
:108330000430A3803B68C4F80630BB886381296899
:108340002046FFF783FF20460BB0F0BD74E4032006
:108350008FD80D0088D80D0030B5044685B008468A
:1083600011461A460023FEF745FD0D4DADF80C00F1
:10837000002301A90193ADF808308DF80A30284692
:108380004FF6FF73ADF80E30FFF72AFF01A8FFF795
:108390001EFF20462946FFF739FF204605B030BDB5
:1083A00074E4032010B5094C00204FF6FF732060E1
:1083B000A080A07120816381FEF70CFD2046044A55
:1083C0000449BDE8104000F063BC00BF74E4032022
:1083D00078E0032041420D00F0B5144B144F1E68A5
:1083E000144B064418683B6806449E428BB01BD071
:1083F0000AA801AD40F8286D01F0AEFB436903F215
:108400006C73436104460FCC0FC50FCC0FC5D4F875
:1084100000E0C5F800E001AD0FCD074C0FC40FCD53
:108420000FC43E60C4F800E00BB0F0BDB0E4032020
:10843000ACE40320A8E4032080E4032008B5002076
:10844000FEF780FD28B1FEF755FD80F00100C0B2B7
:1084500008BD012008BD000008B5FFF7BDFF014BB6
:10846000986808BD80E4032008B5FFF7B5FF014B0D
:10847000D86808BD80E4032008B5FFF7ADFF024BC4
:108480009869013008BD00BF80E4032008B5FFF7FC
:10849000A3FF024B1869013008BD00BF80E4032030
:1084A00008B5FEF705FB034B1B681844024B1B681D
:1084B000184408BDB0E40320A8E40320FAEE087ACB
:1084C000B4EEE70AF1EE10FA0FD4F2EE0C7AB4EE45
:1084D000E70AF1EE10FA08DCDFED047A044B20EE37
:1084E000270ABDEEC00A83ED000A7047000061450F
:1084F000B0E40320B5EEC00AF1EE10FA0FD4F0EEAE
:10850000007AB4EEE70AF1EE10FA08DCDFED047A47
:10851000044B20EE270ABDEEC00A83ED000A704727
:108520000000614584DF0320024B1A68024B1A6089
:10853000704700BF84DF0320A8E40320014B002222
:108540001A607047A8E4032008B5FEF7B9FA0022C4
:1085500011461046BDE80840FEF774BC37B50E4B17
:108560001B6819440D4B1B68044602A8194440F8C7
:10857000041D01F0F1FA01F0F7F9054602F0B4FB31
:108580002844002300F8013C29462046FFF7C8FD97
:10859000204603B030BD00BFB0E40320A8E40320B0
:1085A0002DE9F047A4B014AC074689462046114691
:1085B0003F221D4602F0B5FB002320468DF88F3088
:1085C00002F092FB804625B9244903A801F054FE2D
:1085D00013E03C2195FBF1F2002AB8BF524292FB16
:1085E000F1F301FB132200924FF461631C4A95FBE7
:1085F000F3F3102103A8FEF735FD25462E1B08F1E5
:10860000FF3AB2451BD92B78252B16D16B787A2BE4
:1086100013D103A802F068FB80463044C6EB0A027F
:10862000A91C204401F094FB424603A9284601F00E
:108630008FFB204602F058FB80460135DEE74B46B3
:108640002246322107A801F09BFE07A93846FFF712
:1086500067FD384624B0BDE8F08700BFADDE0D00F1
:10866000B6D80D00F7B5054601921C4613B9124B5A
:108670001C682CB1114B2046196801F0F3FD20B99C
:1086800001992846FFF76AFF13E00D4F019A3B68F6
:108690000C4E1A44336802A8134440F8043D01F01C
:1086A0005BFA3A6833680146134428462246FFF7CE
:1086B00077FF284603B0F0BDA4E4032088DF032041
:1086C000B0E40320A8E4032010B50020FEF700FA70
:1086D000044668B9FEF776FB01280BD12046FEF769
:1086E000A9FB38B9FFF7AAFE30B9FEF7EBFBF9E7B3
:1086F000012010BD002010BDFFF7A0FE0020FEF7F6
:10870000E7F9003018BF012010BD08B5FFF7DCFF06
:10871000BDE80840FEF7CCB908B5FFF7F6FFFFF754
:108720005BFE014B986808BD80E4032008B5FFF7A5
:10873000ECFFFFF751FE014B586808BD80E40320B1
:1087400008B5FFF7E2FFFFF747FE014BD86808BD09
:1087500080E4032008B5FFF7D8FFBDE80840FFF725
:108760008BBE08B5FFF7D1FFBDE80840FFF78EBE0E
:1087700008B5FFF7CAFFFFF72FFE014B586908BD88
:1087800080E40320024B1A68024B1A60704700BF56
:1087900088DF0320A4E4032070474174704708B5C4
:1087A000007CFEF7B5FA20EAE07008BD08B5007C51
:1087B000FEF786FA20EAE07008BD08B5007CFEF7F7
:1087C0008FFA30EA200028BF4FF0FF3008BD08B50F
:1087D000007CFEF77DFA30EA200028BF4FF0FF3022
:1087E00008BD007CFEF784BA10B51421044600F0E1
:1087F00054FA204610BD70B5457C04460E4625B996
:10880000007CFEF785FA002805DD3146207CBDE8B6
:108810007040FEF74DBA284670BD000010B5044602
:1088200008461146002262604FF47A72A260054A3F
:1088300022600122207462741A46FEF731FA204643
:1088400010BD00BFE8D80D00007CFEF759BA00004B
:1088500038B50C4D296811F0010411D12846FBF7F9
:1088600022FC68B1084A094B09482146FFF7D6FFA8
:108870002846FBF71DFC074A0749054800F008FA9F
:10888000034838BD50E5032054E50320CCE4032021
:10889000B8E4032078E0032099870D004174704705
:1088A000704708B50021007CFEF752FA30EA20003C
:1088B00028BF4FF0FF3008BD08B50121007CFEF74E
:1088C00047FA30EA200028BF4FF0FF3008BD08B556
:1088D000007CFEF735FA20EAE07008BD08B5007CA0
:1088E000FEF726FA20EAE07008BD007CFEF740BAE9
:1088F00010B51421044600F0D0F9204610BD38B55B
:108900000446007C0D46FEF71BFA002801DC607C63
:1089100028B12946207CFEF723FA20EAE07038BD12
:1089200010B50446002363604FF47A73A360054BCF
:10893000236001230846217463741146FEF7F0F9A1
:10894000204610BD18D90D0010B514220446002190
:1089500001F009FA204610BD30B50E4D87B001A8D0
:10896000FFF7F2FF296811F0010410D12846FBF748
:108970009AFB60B101AA21460748FFF7D1FF2846BC
:10898000FBF796FB054A0649034800F081F90248C7
:1089900007B030BDD8E50320DCE5032078E00320F4
:1089A000A1880D0008B50C4B33B1FFF7D5FF036864
:1089B0001B699847002809DC084B63B1FFF748FFA3
:1089C00003681B699847002803DC08BDAFF30080EB
:1089D000F2E7AFF3008008BD0000000000000000D7
:1089E00008B5FFF7DFFFFEF75BF8014B186008BD25
:1089F000F8E503200248034A0349121A01F0A8B916
:108A000000F4032004F4032030E00D0007B5002338
:108A100000931A466FF07701FEF726FA03B05DF86F
:108A200004FB000007B543880A2B08D0502B09D15E
:108A3000094B1B683BB103B05DF804EB1847FFF727
:108A4000E5FF06E0002300931A466FF07701FEF77A
:108A50000BFA03B05DF804FBF0E5032038B5104CC9
:108A6000104D2368AB42104B0CBF012200221A703C
:108A700002D0FFF7BFFF2560FEF702F8044601F0C1
:108A8000C9FB0A4B13B12046AFF300800021074811
:108A9000FEF768FA00210648BDE83840FEF7DAB96B
:108AA00000F403201E1C279AF4E5032000000000B8
:108AB000258A0D0008B5024B1B681B68019308BD91
:108AC0005C02030008B5024B1B685B68019308BD9C
:108AD0005C02030008B5024B1B689B68019308BD4C
:108AE0005C02030010B5044600F0B2F8FFF7CEFABE
:108AF00028B1A4F10B03022B01D8002010BD00F017
:108B000081F8FFF704F808B1012CF6D9FFF7A0FEB1
:108B1000FFF79AFE18B1A4F10903012BEDD9232C1C
:108B20008CBF0020012010BD232838B504460D4617
:108B30000AD8FF2908D0FFF7D5FF28B129462046DB
:108B4000BDE83840FDF7E4BF38BD38B504460D46F2
:108B5000FDF7E6FFFF2810D0062804D84D2323FA9E
:108B600000F0C30709D42046FFF7BCFF28B129460F
:108B70002046BDE83840FDF7DBBF38BD10B50446E0
:108B8000FDF7CEFF0438C0B2012808D92046FFF710
:108B9000A9FF20B12046BDE81040FDF7D1BF00205D
:108BA00010BD0D2810B504469CBF0E34A4B220465B
:108BB000FFF798FF50B103212046FDF7A1FF0328DE
:108BC00004D12046BDE81040FDF7D2BF002010BD03
:108BD00070B5044614252A46094E002101F0C3F859
:108BE000258020253146A5602561284600F06FF8D4
:108BF00031466060284600F06AF8E060204670BDAB
:108C000040D90D0030B50E4D296811F0010487B030
:108C100013D12846FBF747FA78B101A8FFF7D8FF30
:108C200001AA21460748FEF721FF2846FBF740FA34
:108C3000054A0649034800F02BF8024807B030BD4A
:108C4000FCE5032000E6032078E00320157A0D0000
:108C500038B50B4D296811F001040FD12846FBF7F8
:108C600022FA58B121460748FFF702FA2846FBF7D7
:108C70001FFA054A0549034800F00AF8014838BDC3
:108C800020E6032014E6032078E0032061800D0035
:108C90000B460146184600F0A7BEFBF700BA0000DD
:108CA000024B1868BFF35F8F704700BF24E60320B4
:108CB00010B5002814BF044601242046FEF7AAF987
:108CC00020B9FFF7EDFF08B18047F6E710BDFFF7C9
:108CD000EFBF08B5FEF7D6F9244B1A68D0075CBF82
:108CE00001221A60224B1A68D1075CBF01221A6068
:108CF000204B1A68D2075CBF01221A601E4B1A680B
:108D0000D0075CBF01221A601C4B1A68D1075CBFF8
:108D100001221A601A4B1A68D2075CBF01221A603E
:108D2000184B1A68D0075CBF01221A60164B1A68EC
:108D3000D1075CBF01221A60144B1A68D2075CBFCE
:108D400001221A60124B1A68D0075CBF01221A6018
:108D5000104B1A68D1075CBF01221A600E4B1A68CB
:108D6000D2075CBF01221A60704700BF54E603209F
:108D700050E603204CE6032048E6032044E60320A7
:108D800040E603203CE6032038E6032034E60320D7
:108D900030E603202CE6032028E60320184B1A684F
:108DA000D1075CBF01221A60164B1A68D2075CBF5C
:108DB00001221A60144B1A68D0075CBF01221A60A6
:108DC000124B1A68D1075CBF01221A60104B1A6857
:108DD000D2075CBF01221A600E4B1A68D0075CBF35
:108DE00001221A600C4B1A68D1075CBF01221A607D
:108DF0000A4B1A68D2075CBF01221A60704700BF95
:108E000074E6032070E603206CE6032068E6032086
:108E100064E6032060E603205CE6032058E60320B6
:108E2000184B1A68D1075CBF01221A60164B1A68EA
:108E3000D2075CBF01221A60144B1A68D0075CBFCE
:108E400001221A60124B1A68D1075CBF01221A6016
:108E5000104B1A68D2075CBF01221A600E4B1A68C9
:108E6000D0075CBF01221A600C4B1A68D1075CBFA7
:108E700001221A600A4B1A68D2075CBF01221A60ED
:108E8000704700BF94E6032090E603208CE60320A1
:108E900088E6032084E6032080E603207CE60320A6
:108EA00078E60320244B1A68D0075CBF01221A60C1
:108EB000224B1A68D1075CBF01221A60204B1A6846
:108EC000D2075CBF01221A601E4B1A68D0075CBF34
:108ED00001221A601C4B1A68D1075CBF01221A607C
:108EE0001A4B1A68D2075CBF01221A60184B1A6825
:108EF000D0075CBF01221A60164B1A68D1075CBF0D
:108F000001221A60144B1A68D2075CBF01221A6052
:108F1000124B1A68D0075CBF01221A60104B1A6806
:108F2000D1075CBF01221A600E4B1A68D2075CBFE2
:108F300001221A60704700BFC4E60320C0E6032088
:108F4000BCE60320B8E60320B4E60320B0E6032025
:108F5000ACE60320A8E60320A4E60320A0E6032055
:108F60009CE6032098E6032081F0004102E000BF68
:108F700083F0004330B54FEA41044FEA430594EAD9
:108F8000050F08BF90EA020F1FBF54EA000C55EA14
:108F9000020C7FEA645C7FEA655C00F0E2804FEAE5
:108FA0005454D4EB5555B8BF6D420CDD2C4480EAC7
:108FB000020281EA030382EA000083EA010180EAF7
:108FC000020281EA0303362D88BF30BD11F0004F45
:108FD0004FEA01314FF4801C4CEA113102D040427B
:108FE00061EB410113F0004F4FEA03334CEA1333B6
:108FF00002D0524263EB430394EA050F00F0A780CE
:10900000A4F10104D5F1200E0DDB02FA0EFC22FAC8
:1090100005F2801841F1000103FA0EF2801843FABC
:1090200005F359410EE0A5F120050EF1200E012AAD
:1090300003FA0EFC28BF4CF0020C43FA05F3C018EB
:1090400051EBE37101F0004507D54FF0000EDCF164
:10905000000C7EEB00006EEB0101B1F5801F1BD30D
:10906000B1F5001F0CD349085FEA30004FEA3C0C11
:1090700004F101044FEA445212F5800F80F09A8007
:10908000BCF1004F08BF5FEA500C50F1000041EB0B
:10909000045141EA050130BD5FEA4C0C404141EB0F
:1090A000010111F4801FA4F10104E9D191F0000F36
:1090B00004BF01460020B1FA81F308BF2033A3F1B9
:1090C0000B03B3F120020CDA0C3208DD02F1140CB0
:1090D000C2F10C0201FA0CF021FA02F10CE002F1EB
:1090E0001402D8BFC2F1200C01FA02F120FA0CFCE4
:1090F000DCBF41EA0C019040E41AA2BF01EB04512D
:10910000294330BD6FEA04041F3C1CDA0C340EDC2A
:1091100004F11404C4F1200220FA04F001FA02F36D
:1091200040EA030021FA04F345EA030130BDC4F12B
:109130000C04C4F1200220FA02F001FA04F340EA20
:109140000300294630BD21FA04F0294630BD94F0D1
:10915000000F83F4801306BF81F480110134013DB8
:109160004EE77FEA645C18BF7FEA655C29D094EA29
:10917000050F08BF90EA020F05D054EA000C04BFA7
:109180001946104630BD91EA030F1EBF0021002092
:1091900030BD5FEA545C05D14000494128BF41F031
:1091A000004130BD14F580043CBF01F5801130BD95
:1091B00001F0004545F0FE4141F470014FF0000020
:1091C00030BD7FEA645C1ABF194610467FEA655CD1
:1091D0001CBF0B46024650EA013406BF52EA033573
:1091E00091EA030F41F4002130BD00BF90F0000F61
:1091F00004BF0021704730B54FF4806404F132049D
:109200004FF000054FF0000150E700BF90F0000F55
:1092100004BF0021704730B54FF4806404F132047C
:1092200010F0004548BF40424FF000013EE700BF4C
:1092300042004FEAE2014FEA31014FEA02701FBFDC
:1092400012F07F4393F07F4F81F06051704792F0AE
:10925000000F14BF93F07F4F704730B54FF4607428
:1092600001F0004521F0004120E700BF50EA010273
:1092700008BF704730B54FF000050AE050EA010220
:1092800008BF704730B511F0004502D5404261EB90
:1092900041014FF4806404F132045FEA915C3FF4D1
:1092A000DCAE4FF003025FEADC0C18BF03325FEA6A
:1092B000DC0C18BF033202EBDC02C2F1200300FA1F
:1092C00003FC20FA02F001FA03FE40EA0E0021FA44
:1092D00002F11444C1E600BF70B54FF0FF0C4CF42E
:1092E000E06C1CEA11541DBF1CEA135594EA0C0FE4
:1092F00095EA0C0F00F0DEF82C4481EA030621EA1F
:109300004C5123EA4C5350EA013518BF52EA033559
:1093100041F4801143F4801338D0A0FB02CE4FF00B
:109320000005E1FB02E506F00042E0FB03E54FF03B
:109330000006E1FB03569CF0000F18BF4EF0010E33
:10934000A4F1FF04B6F5007F64F5407404D25FEA2F
:109350004E0E6D4146EB060642EAC62141EA5551E2
:109360004FEAC52040EA5E504FEACE2EB4F1FD0C24
:1093700088BFBCF5E06F1ED8BEF1004F08BF5FEAA2
:10938000500E50F1000041EB045170BD06F0004654
:1093900046EA010140EA020081EA0301B4EB5C0401
:1093A000C2BFD4EB0C0541EA045170BD41F48011F9
:1093B0004FF0000E013C00F3AB8014F1360FDEBF1E
:1093C000002001F0004170BDC4F10004203C35DAFA
:1093D0000C341BDC04F11404C4F1200500FA05F37D
:1093E00020FA04F001FA05F240EA020001F000421E
:1093F00021F0004110EBD37021FA04F642EB060194
:109400005EEA430E08BF20EAD37070BDC4F10C04BD
:10941000C4F1200500FA04F320FA05F001FA04F281
:1094200040EA020001F0004110EBD37041F100016D
:109430005EEA430E08BF20EAD37070BDC4F1200578
:1094400000FA05F24EEA020E20FA04F301FA05F2E0
:1094500043EA020321FA04F001F0004121FA04F288
:1094600020EA020000EBD3705EEA430E08BF20EA58
:10947000D37070BD94F0000F0FD101F00046400092
:1094800041EB010111F4801F08BF013CF7D041EA14
:10949000060195F0000F18BF704703F00046520018
:1094A00043EB030313F4801F08BF013DF7D043EAE9
:1094B0000603704794EA0C0F0CEA135518BF95EA9F
:1094C0000C0F0CD050EA410618BF52EA4306D1D126
:1094D00081EA030101F000414FF0000070BD50EA45
:1094E000410606BF1046194652EA430619D094EACF
:1094F0000C0F02D150EA013613D195EA0C0F05D1B9
:1095000052EA03361CBF104619460AD181EA03010C
:1095100001F0004141F0FE4141F470014FF00000C4
:1095200070BD41F0FE4141F4780170BD70B54FF05F
:10953000FF0C4CF4E06C1CEA11541DBF1CEA1355DF
:1095400094EA0C0F95EA0C0F00F0A7F8A4EB0504C1
:1095500081EA030E52EA03354FEA013100F08880B8
:109560004FEA03334FF0805545EA131343EA126381
:109570004FEA022245EA111545EA10654FEA002636
:109580000EF000419D4208BF964244F1FD0404F5EF
:10959000407402D25B084FEA3202B61A65EB03054B
:1095A0005B084FEA32024FF480104FF4002CB6EB08
:1095B000020E75EB030E22BFB61A754640EA0C0088
:1095C0005B084FEA3202B6EB020E75EB030E22BFC8
:1095D000B61A754640EA5C005B084FEA3202B6EB09
:1095E000020E75EB030E22BFB61A754640EA9C00C8
:1095F0005B084FEA3202B6EB020E75EB030E22BF98
:10960000B61A754640EADC0055EA060E18D04FEA55
:10961000051545EA16754FEA06164FEAC30343EAF5
:1096200052734FEAC2025FEA1C1CC0D111F4801FC2
:109630000BD141EA00014FF000004FF0004CB6E7BB
:1096400011F4801F04BF01430020B4F1FD0C88BF5A
:10965000BCF5E06F3FF6AFAEB5EB030C04BFB6EB65
:10966000020C5FEA500C50F1000041EB045170BD58
:109670000EF0004E4EEA113114EB5C04C2BFD4EB85
:109680000C0541EA045170BD41F480114FF0000E09
:10969000013C90E645EA060E8DE60CEA135594EA85
:1096A0000C0F08BF95EA0C0F3FF43BAF94EA0C0F88
:1096B0000AD150EA01347FF434AF95EA0C0F7FF4FD
:1096C00025AF104619462CE795EA0C0F06D152EA51
:1096D00003353FF4FDAE1046194622E750EA410635
:1096E00018BF52EA43067FF4C5AE50EA41047FF446
:1096F0000DAF52EA43057FF4EBAE12E74FF0FF3CAB
:1097000006E000BF4FF0010C02E000BF4FF0010C7B
:109710004DF804CD4FEA410C7FEA6C5C4FEA430CF4
:1097200018BF7FEA6C5C1BD001B050EA410C0CBF43
:1097300052EA430C91EA030F02BF90EA020F0020A5
:10974000704710F1000F91EA030F58BF994208BF0C
:1097500090422CBFD8176FEAE37040F001007047C9
:109760004FEA410C7FEA6C5C02D150EA013C07D120
:109770004FEA430C7FEA6C5CD6D152EA033CD3D06B
:109780005DF8040B704700BF8446104662468C4665
:109790001946634600E000BF01B5FFF7B7FF002898
:1097A00048BF10F1000F01BD4DF808EDFFF7F4FFC1
:1097B0000CBF012000205DF808FB00BF4DF808ED4C
:1097C000FFF7EAFF34BF012000205DF808FB00BF6F
:1097D0004DF808EDFFF7E0FF94BF012000205DF891
:1097E00008FB00BF4DF808EDFFF7CEFF94BF012046
:1097F00000205DF808FB00BF4DF808EDFFF7C4FF3F
:1098000034BF012000205DF808FB00BF4FEA410C87
:109810007FEA6C5C02D150EA013C0AD14FEA430C6A
:109820007FEA6C5C02D152EA033C02D14FF00000A7
:1098300070474FF0010070474FEA410212F50012E5
:1098400015D211D56FF47873B3EB625212D94FEA87
:10985000C12343F0004343EA505311F0004F23FA71
:1098600002F018BF404270474FF00000704750EAC6
:10987000013005D111F0004008BF6FF00040704783
:109880004FF00000704700BF4A0011D212F50012DD
:1098900011D20DD56FF47873B3EB62520ED44FEA48
:1098A000C12343F0004343EA505323FA02F07047C8
:1098B0004FF00000704750EA013002D14FF0FF3006
:1098C00070474FF0000070474FEA4102B2F1E043A9
:1098D00024BFB3F5001CDCF1FE5C0DD901F0004C97
:1098E0004FEAC0024CEA5070B2F1004F40EB8300E7
:1098F00008BF20F00100704711F0804F21D113F113
:109900003872BCBF01F00040704741F480114FEA4B
:109910005252C2F11802C2F1200C10FA0CF320FAD4
:1099200002F018BF40F001004FEAC1234FEAD323F1
:1099300003FA0CFC40EA0C0023FA02F34FEA43035B
:10994000CCE77FEA625307D150EA01331EBF4FF0E4
:10995000FE4040F44000704701F0004040F0FE40FF
:1099600040F40000704700BF094B70B51C68256CBF
:1099700006463DB91A20FDF74DFB1A222064294600
:1099800000F0F1F9216C3046BDE8704000F002B8FB
:10999000F0DF032010B50C4641690369826986B087
:1099A00001F26C7104910168039141680291816830
:1099B0000191C1680091074903EB43030B44064939
:1099C00002EB42020A4420460449FDF73BFB2046D5
:1099D00006B010BD56D90D0041D90D007AD90D0041
:1099E0000A22002102F072B810B5054C13462CB1C2
:1099F0000A4601460220AFF3008010BD204610BD8C
:109A00000000000038B5074B1C68E36B05461BB926
:109A10002420FDF7FFFAE063E16B2846BDE83840FB
:109A200000F002B8F0DF03200268474BF0B592FB6C
:109A3000F3F403FB1422002ABCBF02F5A83202F59E
:109A4000C0724FF4616004F52F2492FBF0F300FB29
:109A500013224FF03C00ACBF04F66C2404F66B24D8
:109A60008B6092FBF0F300FB13224B600A6007232C
:109A7000E21C92FBF3F3C3EBC303D31A8B61334BAA
:109A8000334D94FBF5F503FB054448F6AC62B4FB9B
:109A9000F2F2224440F2B457B4FBF7F3D21A2D4845
:109AA000B4FBF0F048F69466131AB3FBF6F63444B0
:109AB00040F26D12B3FBF2F0B3FBF7F3E31A02FBD3
:109AC0001033992403EB83020232B2FBF4F20A2A28
:109AD00004FB02F404F102064FF00504B6FBF4F4B3
