:02000002D0002C
:1040000000400D0084E30D00000006000D000501D6
:084010000401E80500000000B6
:0440180040D10D0086
:1040200009480A49884208B505D0094A824202D0A7
:10403000121A05F06DFF0748074A0021121A05F011
:1040400072FF014808BD00BFF0DE0320E4E10D006F
:1040500064E0032064E00320F0E7032070B504F07F
:10406000A9FD074C074BE41AA40800251E46A542EB
:1040700004D056F8253098470135F8E770BD00BFE9
:10408000D4E10D0094E10D0001F002BC08B501F08F
:104090000BF9BDE8084004F04FBD02F0CFBF02F0BD
:1040A000D5BF02F0D3BF0078B0FA80F04009704766
:1040B0000123037070470000014B01221A70704702
:1040C00068E00320014B01221A707047C8E003200A
:1040D00010B503682F2B044604D9074A00210A2093
:1040E00002F062FE23681F2B83BF03F01F032360CF
:1040F00002484FF0A04010BDB96A0D000003005007
:1041000007B502AB43F8040D1846FFF7E1FF019A2B
:1041100001239340C0F8083503B05DF804FB07B5F0
:1041200002AB43F8040D1846FFF7D2FF019A0123B2
:104130009340C0F80C3503B05DF804FB38B5044675
:10414000006928B185680C2104F087FE2846F8E74D
:10415000204638BD08B5044904F0BBF818B103483F
:1041600001F0B4FE012008BD0CD60D0074E0032060
:1041700008B5044904F0ADF818B1034B05221A70D4
:10418000012008BD0CD60D00C0E0032010B5034B84
:104190000360044601F062FE204610BD5CD10D00B4
:1041A00010B50446FFF7F2FF2046102104F055FE3B
:1041B000204610BD08B50A4904F08BF8002368B109
:1041C000084A09491360936053615360074A4B6181
:1041D0001370074B01201870064B187008BD00BF04
:1041E0000CD60D0050E1032074E1032070E10320A0
:1041F00048E1032071E1032008B502F08FFE20B1F1
:104200000020BDE8084002F0A9BE08BD08B50020A6
:1042100002F0ACFE28B102F081FE80F00100C0B2D5
:1042200008BD012008BD37B59DF8184023438DF81F
:1042300000303C23054603F041FA284603B030BD68
:1042400010B50446006808B102F000FF204610BD1A
:104250000368D86820B183888B4201D08068F9E771
:10426000704700002DE9F041037D05460F461646D4
:104270003BB30121FFF7ECFF50B18389BB4204D16E
:1042800086731EE08388012BF6D080680028F9D160
:104290000D49102004F0ECFD044688B14FF01008E1
:1042A0004246002105F03FFE022363800123A4F86B
:1042B0000080A3802B69A360A781A6732C6100E016
:1042C00028752846BDE8F081F0DA0D00002002F0E4
:1042D0001BBC08B52DED028BB0EE408A28B1013829
:1042E000FFF7F7FF28EE000A01E0B7EE000ABDEC89
:1042F000028B08BD30B5194D0FCD99B004AC0FC479
:104300000FCD0FC495E8030084E8030014490EA8FC
:1043100002F04AFF0EA802F09AFF04460EA802F02F
:10432000E7FF0EA810EE105A02F0C8FF18AB10EE0F
:10433000100A03EB840405F05BF8CDE9020128467E
:1043400005F056F8CDE90001064A54F8503C0648FD
:10435000402102F09BFE19B030BD00BF70D10D00AE
:10436000A8E10320B8D10D00FCE00320000000000C
:1043700008B50F2004F0D5FC05F028F820A3D3E9F8
:10438000002305F089F805F07FFBDFED157A07EED5
:10439000100A67EE277A17EE900A05F029F8002236
:1043A000104B04F0C5FE00220F4B05F075F805F028
:1043B00023FB05F00BF800220C4B05F06DF80022F2
:1043C0000B4B05F093F900220A4B04F0B3FE05F005
:1043D00013FB094B1861094B01221A7008BD00BF7D
:1043E000000080390000E03F0000594000002240FA
:1043F000000014400000404050E1032048E1032049
:104400006666666666660A4010B50D4C236893F8CA
:10441000500093F8513003F01F0343EA4010FFF7B8
:104420006FFE236893F8500093F8513003F01F0398
:1044300043EA4010FFF773FE024B00221A7010BDD2
:10444000F4E00320C8E0032013B50446012101A8CD
:1044500003F0ADFD01A81CB103F044FE012401E00E
:1044600003F010FE01A803F0B1FD204602B010BD1C
:1044700010B5202490B022460021684605F053FD77
:10448000224600210DEB04008DF8054005F04BFDA0
:1044900000210DEB04008DF8254002F003FD194BBF
:1044A0005979009B41F2700091B140F22622ADF89B
:1044B00008204FF40072ADF80A2043F4007341F273
:1044C0007202ADF80600ADF80C20009300210EE05A
:1044D0004FF46172ADF80820ADF80A2043F4007380
:1044E00041F21002ADF80600ADF80C2000936846CA
:1044F00002F0D8FC04460120FFF7A6FF204610B0CA
:1045000010BD00BF74E1032008B502F007FD80F084
:104510000100C0B208BD0000F8B502F0F7FCFFF7DB
:10452000D5FE0025044643F697260027FFF7CEFE6A
:10453000001B61EB05018F4208BF864205D3FFF7E0
:10454000E3FF10B902F0D2FCF0E7FFF7DDFF094806
:10455000002319461A46406802F048FD064B002227
:10456000DA70064B01244FF4FA601C7002F0AEFDC5
:104570002046F8BDA8E1032074E1032071E1032087
:1045800038B5084D0024AC602C606C6004F069F90B
:10459000054B064A5C6101231370054AE8606C61B3
:1045A000137038BD50E1032074E1032048E103207B
:1045B00071E1032010B5074C02F086FA2368C01A97
:1045C000B0F57A7F04D302F07FFA2060012010BD9D
:1045D000002010BD6CE1032008B5FFF7EBFF18B118
:1045E000BDE80840FFF7E6BF02F080FCF5E70000F9
:1045F00037B502F08BFC02F067FA43F697250446C4
:1046000002F08CFC40B102F05FFA001BA84203D814
:10461000642002F05BFDF3E70021094B47F23052C2
:10462000084602F0F9F94FF47A7002F04FFD054B9D
:104630000A221B680121684603F03AFF03B030BD2F
:10464000D1D10D00E4E0032038B504F025F905468A
:1046500004F033F9044604F029F9231F062B0ED980
:10466000E31E082B0DD801382D1A01D50B2C02E0C2
:10467000072D06DD032C14BF0020012038BD0120CA
:1046800038BD002038BD000030B585B00D4604A906
:10469000002241F8102D02F09FFBA8B9009C0CB13C
:1046A000236923B9094A00210A2002F07DFB002377
:1046B00001930C23ADF8043004230393029523697E
:1046C00001AA01212046984705B030BDB96A0D0006
:1046D00030B50E4D0FCD89B001AC0FC495E8070081
:1046E00084E8070069460720FFF7CEFF0028A8BF2F
:1046F0000098074A08AB03EB8000102150F81C3CDF
:10470000044802F0C3FC09B030BD00BF98D10D00D1
:1047100076D70D00A9E0032007B5184B00221146FB
:10472000586802F053FC08B1FFF7E4FDFFF720FEE4
:10473000FFF7CEFF01A90320FFF7A6FF88B90620E7
:10474000B0EE000AFFF7C5FDBDF8043030EE000AF8
:1047500007EE103A30EE000AB8EE477AC7EE007A5C
:1047600001E0FFEE007AFDEEE77A054BC3ED027A39
:10477000044B01221A7003B05DF804FBA8E103208A
:1047800074E1032071E1032038B5046805467CB16B
:104790006368013B63605BB9236820469B68984768
:1047A000A368013BA3601BB923682046DB689847D8
:1047B000284638BD2DE9F041414DDFF834812B68A2
:1047C00093F8700093F8713003F01F0343EA401030
:1047D000C4B0FFF795FC02F077F93A4B1A68801ADB
:1047E000394A116988421C4616461CD298F8007056
:1047F000CFB913791BB102F091FB002850D1334B94
:1048000001221A702B6893F8700093F8713003F04E
:104810001F0343EA4010FFF782FC2D4B00221A7061
:1048200044B0BDE8F08102F04FF92A4F2060002328
:104830003C7888F8003004F025F88442264C04D0F7
:1048400004F020F801233870A361A369224F0133DB
:10485000A36104F006F82368E06001332360A368D5
:104860000133A3603379002BC9D002F057FB002835
:10487000C5D0BB6800933B68184A4FF4807104A808
:1048800002F004FCFFF7A8FE154B16491B78002226
:104890008DF8002002A804AAFFF7C5FC03A80BE0CE
:1048A000FFF79AFE0E4B104A1B7810498DF80070E6
:1048B00004A8FFF7B8FC05A8FFF766FF9FE700BF55
:1048C000F4E0032040E1032074E1032048E10320E9
:1048D00068E00320C1E0032050E10320DED10D0099
:1048E000A0E00320ACD40D00FBD10D0005D20D00DB
:1048F0003CE103202DE9F8431F48204D4068002388
:104900001A46194602F06AFB02F0F8FA4FF4967460
:1049100040F2E7360027FFF7D9FC4FF00009804648
:10492000FFF7D4FCB0EB080061EB09018F4208BF30
:10493000864205D302F0F2FA10B902F0D7FAEFE797
:1049400002F0ECFA48B102F0E9FA98B10C4A0123FE
:10495000D3700C4A1370BDE8F8832B780BB1FFF7C6
:1049600029FF02F0B1F8084B186002F0BFFA013CD1
:10497000E9D0D0E7BDE8F883A8E1032068E0032090
:1049800074E1032071E10320F0E5032010B51A4C17
:10499000CAB0A369069363690593184B5A690492D8
:1049A00022690392164A02929B680193A3680093BE
:1049B000144A23684FF480710AA802F067FB124B77
:1049C00012491B7800228DF8002008A80AAAFFF7D8
:1049D0002AFC09A8FFF7D8FE0D4B01221A7002F03D
:1049E00073F80C4B186003F043FF0B4B18602368FF
:1049F00063604AB010BD00BF50E1032074E10320A2
:104A0000A9E003200BD20D00A0E0032072D20D001C
:104A100070E10320BCE00320C4E0032010B50B7854
:104A200094B00C4623B91C4904A805F005FD17E015
:104A3000084605F0B5F8C82804D0204605F0B0F8BF
:104A4000C9281ED1154904A805F0F6FC03F009FF9A
:104A5000134B9862134B01221A70134B00221A70E9
:104A6000FFF7BAFD114B12491B7800228DF8002088
:104A700002A804AAFFF7D7FB03A8FFF785FE14B02E
:104A800010BD204605F08CF80A4A0346402104A8D0
:104A900002F0FCFAE4E700BF8AD20D009FD20D00BD
:104AA00074E1032071E1032070E10320A0E0032002
:104AB00092D20D00B1D20D001FB50D4903F009FCD3
:104AC000002490B10B4B0C4A1B780C498DF8004028
:104AD00002A8FFF7A8FB03A8FFF756FE2346012212
:104AE0000A21074801F00BFF012004B010BD00BFF0
:104AF0000CD60D00A0E00320CED20D0033D40D0063
:104B000084E0032070B586B003A9006807F018F8A8
:104B1000B5EEC00AF1EE10FA35D4F1EE047AB4EE37
:104B2000E70AF1EE10FACCBF012500255DBBDFEDF1
:104B3000187A184B184E60EE277A0124FDEEE77ABA
:104B40001C7010EE100AC6ED047A04F051FC134AF2
:104B5000CDE900010821124802F098FA3379A3B197
:104B600002F0DCF988B1FFF737FD0E4B0C4A1B78D9
:104B70000D498DF8005004A8FFF755FB05A8FFF775
:104B800003FE204602E0002000E0012006B070BDD8
:104B900000007A4471E1032074E10320E6D20D00A5
:104BA00065DF0320A0E003208CD50D0030B522493D
:104BB00085B0044603F08DFB0546D8B11F4B012498
:104BC0005C71FFF755FC1E4B1C70FFF705FD02F0F2
:104BD000A5F908B901202CE01A4B1B491B780022CB
:104BE0008DF8002002A8194AFFF71DFB03A8FFF764
:104BF000CBFDEFE71649204603F06BFBC8B10F4B26
:104C00005D710F4B01241C70FFF732FCFFF7E4FCD1
:104C100002F084F90028DDD00A4B0E4A1B780A49BD
:104C20008DF8005002A8FFF7FEFA03A8FFF7ACFDCD
:104C3000204605B030BD00BF0CD60D0074E1032046
:104C400071E10320A0E003201FD30D00F0D20D007E
:104C500007D30D0009D30D0030B5204985B00446B7
:104C600003F037FB0546C8B11D4B01241C711D4BD9
:104C70001C70FFF7B1FC02F051F908B901202AE0DD
:104C8000194B1A491B7800228DF8002002A8184AF7
:104C9000FFF7C9FA03A8FFF777FDEFE715492046AC
:104CA00003F017FBB8B10E4B1D710E4B01241C70A5
:104CB000FFF792FC02F032F90028DFD00A4B0E4ACF
:104CC0001B780A498DF8005002A8FFF7ACFA03A838
:104CD000FFF75AFD204605B030BD00BF0CD60D00D1
:104CE00074E1032071E10320A0E003201FD30D0035
:104CF00024D30D0007D30D0035D30D0000000000B4
:104D00002DE9F043CDB00446FFF776FAFFF7DEFA5F
:104D10000027064647F22F584FF00009FFF7D6FA52
:104D2000801B61EB0701894508BF804505D3FFF76C
:104D30006DFA10B902F0DAF8F0E7FFF767FA0A2225
:104D400005A9206806F0A2FF00F10C03DBB2182BC6
:104D500058D844B207EE904A2F4BB8EEE70A83EDDD
:104D6000060A03F057FC2D4B01221A7003F044FC95
:104D7000054603F076FD281A04F028FB24A3D3E9A6
:104D8000002304F0B3FC264ACDE900010A2125489E
:104D900002F07CF92346244A4FF480710CA802F0FB
:104DA00075F9FFF719FC02F0B9F860B11F4B204903
:104DB0001B7800228DF8002008A80CAAFFF733FA10
:104DC00009A8FFF7E1FCFFF707FC02F0A7F8B8B16C
:104DD00003F047FD014608A803F06CFC089B039311
:104DE000124B13491B7800228DF8002006A8039A65
:104DF000FFF719FA07A8FFF7C7FC08A803F0F5F9B1
:104E0000012000E000204DB0BDE8F083AFF300804A
:104E1000000000000020AC4074E1032071E1032099
:104E20004AD30D0069E0032054D30D00A0E0032015
:104E3000E3D40D0010B5C6B00A2203A9006806F03D
:104E400025FF172803461DD8114A1062114A012474
:104E50004FF48071147006A80F4A02F017F9FFF79B
:104E6000BBFB02F05BF878B10C4B0D491B780022BC
:104E70008DF8002004A806AAFFF7D5F905A8FFF7CA
:104E800083FC01E0002000E0204646B010BD00BFDA
:104E900074E1032071E1032068D30D00A0E003203A
:104EA000E3D40D0010B5C6B00A2203A9006806F0CD
:104EB000EDFE182803461DD8114A5062114A0124FC
:104EC0004FF48071147006A80F4A02F0DFF8FFF764
:104ED00083FB02F023F878B10C4B0D491B780022BC
:104EE0008DF8002004A806AAFFF79DF905A8FFF792
:104EF0004BFC01E0002000E0204646B010BD00BFA2
:104F000074E1032071E103207CD30D00A0E00320B5
:104F1000E3D40D0030B5294985B0044603F0D9F932
:104F200028B92749204603F0D4F9002843D0234963
:104F3000204603F0CEF9B0B101F0F0FF70B1FFF7F9
:104F40004BFB204B20491B7800228DF8002002A843
:104F50001E4AFFF768F903A8FFF716FC1C4B1D4912
:104F600001229A7121E01649204603F0B2F9F8B106
:104F700001F0D4FF164C18B9FFF7BCFC0123E37015
:104F8000FFF72AFB0F4B10491B78134A002502A894
:104F90008DF80050FFF747F903A8FFF7F5FB4FF432
:104FA0007A7002F093F80D49A5710D4805F044FAA6
:104FB0000C4B0120187005B030BD00BF0CD60D00A1
:104FC00007D30D00A0E003201FD30D0093D30D00E5
:104FD00074E10320A2D30D00A7D30D00B9D30D00B7
:104FE00049E1032071E1032030B53D4C3C4D85B0D3
:104FF000FFF792FBA378012B84BF0023A370E37813
:10500000012B06D901F08AFF10B10123EB7000E0FB
:10501000E8702379012B82BF314B00221A7163792A
:10502000012B82BF2E4B00225A71A379012B09D983
:105030002C49684603F020F96846FFF76BFF684685
:1050400003F0D3F8A268264BD4ED067A1D2AD4BF0C
:1050500001220022DA71226941F270739A4282BF02
:105060001F4B4FF47A721A616369FF2B88BF1C4B88
:10507000BAEE087A88BF0022F4EEC77A88BF5A6178
:10508000F1EE10FA06D4B2EE087AF4EEC77AF1EE39
:1050900010FA01DD144BA361D4ED077AF5EEC07A66
:1050A000F1EE10FA06D4B0EE007AF4EEC77AF1EE23
:1050B00010FA02DD4FF07E53E361236A0C2B82BFAE
:1050C000074B00221A62636A0C3B0C2B82BF044B15
:1050D00018225A62054B01221A7005B030BD00BF7C
:1050E00074E103200CD60D000000A0C071E1032084
:1050F00070B586B0FFF7FEFBFFF70EFBFFF76CFA0B
:1051000001F00CFF60B11B4B1B491B7800228DF88E
:10511000002002A8194AFFF786F803A8FFF734FB1E
:10512000174C1849A3681D2BCCBF00230123012570
:10513000002602A8E3712570A670257103F09CF883
:1051400002A8FFF7E7FE02A803F04FF84FF47A73C6
:1051500023610D4BA3614FF07E53E361182363621B
:1051600022462C2329460948266200F03DFF06B05E
:1051700070BD00BFA0E003201FD30D00BFD30D0002
:1051800074E1032007D30D000000A0C074E00320E9
:1051900030B5164D164C17492A7820788FB00E235B
:1051A00003FB0212009203FB0013134A282104A8F8
:1051B00001F06CFF2B78237001F0B0FE70B1FFF7A7
:1051C0000BFA0E4B0E491B7800228DF8002002A826
:1051D00004AAFFF728F803A8FFF7D6FA03F068FC43
:1051E00004A902F0B6FF0FB030BD00BFC0E003203D
:1051F000A8E00320F0DE0320D7D30D00A0E00320B9
:10520000E5D30D002DE9F04387B0FFF7E5F9204B1A
:10521000204A1B782049214C002502A88DF8005017
:10522000FFF701F803A8FFF7AFFA2571FEF7E4FFD7
:10523000FFF74CF80027064647F22F584FF00009B9
:10524000FFF744F8801B61EB0701894508BF8045E3
:1052500005D3FEF7DBFF10B901F048FEF0E7FEF7DB
:10526000D5FF63791BB90D4B9B68462B09DC0C49B4
:1052700002A803F001F802A8FFF74CFE02A802F012
:10528000B4FF084B01221A7007B0BDE8F08300BFDD
:10529000A0E00320F6D30D00FED30D0074E103203F
:1052A0000CD60D0071E103202DE9F043A14C2378C9
:1052B000013B8BB0052B00F21B82DFE813F0A70146
:1052C00006005E0099001E016D019B4D2B792BB1EC
:1052D0009A4B1B78022B01D0FFF75AFF984B1B7893
:1052E0000BB1FFF791F8974B1B780BB1FFF762FA00
:1052F000954B964E596841B11A68521A1A600022AD
:105300005A619A615A6001233370914F3B783BB1E7
:105310002C23894A8F48012100F066FE00233B7050
:10532000337843B11C23884A8A48502100F05CFE40
:10533000864B00221A70AB794BB101F0C5FB864B4E
:105340001B68C01A854B1B68984200F2D78103F096
:105350008FFA834B1B6898421CBF0523237003F010
:1053600087FA6B6A984280F2CC8103F081FA724B23
:105370001B6A9842C0F2C581BAE16F4B1A791D468B
:105380002AB16E4B1B78032B01D0FFF701FF0D20D4
:1053900002F010FC734B1B6893F8C00093F8C13007
:1053A00003F01F0343EA4010FEF7AAFE664B1B689A
:1053B0000BB1052328E1EB780BB1FFF7ADF8002125
:1053C000072003F082FCFFF71FF803F04AFA4FF4BE
:1053D000616390FBF3F101FB1300191AB1F5616FE2
:1053E0004FF000034FF00102A8BF4FF461615FE18D
:1053F000514D2B792BB1514B1B78042B01D0FFF76A
:10540000C7FE504B1B78002B40F07281EB780BB13C
:10541000FFF782F8514B2A691A6003F022FA064618
:10542000FEF7F2FF504B1A7D0AB101221A720022D8
:1054300004214D48FEF716FF01220D21FEF712FF51
:10544000037D05465BB34FF4616296FBF2F302FB0A
:105450001363D31A9342A8BF13464FF47A770421FB
:105460005F43FEF7F5FE804608B1C76017E03F498D
:10547000102003F0FDFC0646002800F044814FF0A8
:1054800010094A46414604F04EFD0223738004236E
:10549000A6F80090B3802B69B360F7602E612B7D76
:1054A0001BB1EB6843F00103EB602F4903A802F046
:1054B00097FF039BC3B19A88012A15D19B890D2BB5
:1054C00006D12B4B1A7001F0FFFA234B18600BE04A
:1054D000042B09D1274906A802F0CEFE06A8FFF743
:1054E00019FD06A802F081FE03980223237000280C
:1054F00000F0FE8001F0AAFDFAE00F4D2B792BB1F0
:105500000E4B1B78052B01D0FFF742FEEB780BB951
:10551000FFF7F0F901F002FD70B303F0A9F92B6A6F
:10552000984201D1FFF76EFEFFF7F6F8FFF72EFA6B
:10553000062326E0C0E0032074E10320A8E0032056
:10554000C8E0032068E0032050E1032048E1032085
:1055500071E1032074E00320F8E00320A4E00320BD
:10556000C4E00320F4E00320CCE00320F0DA0D00D7
:105570003CE1032007D30D0001F0A6FA634B18604D
:1055800001232370AB79002B00F0B280604800F05B
:10559000C7FF03F085F8ABE05E4B1B792BB15E4B88
:1055A0001B78062B01D0FFF7F3FD5C4B1B786BB922
:1055B0005B4B5C4A1A6001F087FA5B4B186003F0A2
:1055C00057F908B9FEF7DCFF02231DE001F07CFA71
:1055D000564B1B68C01A4AF6C873984240F288803E
:1055E00001F072FA494B1860FEF7F6FF504B514933
:1055F0001B7800228DF8002006A84F4AFEF713FE04
:1056000007A8FFF7C1F80123237071E0414C23790B
:105610002BB1414B1B78012B01D0FFF7B9FD01F0F5
:1056200053FA3A4B1B6803F5EA43303398425FD98B
:105630006369032B18DCFEF7CFFF01F06FFC60B14C
:105640003B4B3E491B7800228DF8002006A83C4ABF
:10565000FEF7E9FD07A8FFF797F84FF4FA6001F0AD
:1056600035FD02F0BAFE43E003F0FBF8294B354D5F
:105670009B6AC01AB0F5E15F1ED9FEF7ADFF01F0DD
:105680004DFC60B12A4B2D491B7800228DF800207B
:1056900006A82D4AFEF7C7FD07A8FFF775F84FF4D7
:1056A000FA6001F013FD0023012263612A700A21D0
:1056B000174801F024F91BE0FEF78EFF01F02EFCE5
:1056C00060B11B4B1D491B7800228DF8002006A8F5
:1056D0001E4AFEF7A8FD07A8FFF756F84FF4FA6038
:1056E00001F0F4FC0023636101232B70FEF780FFBF
:1056F000074801F03DF80BB0BDE8F08304232370A8
:1057000025E6032380E72875C9E600BF44E10320AE
:1057100084E0032074E10320A8E0032070E103206B
:10572000A4E00320905F0100F8E00320BCE0032028
:10573000A0E003200CD40D00DDD10D0039D40D0004
:1057400025D40D0071E103203FD40D0059D40D0084
:1057500030B52DED028BCDB0054603F082F80A225C
:10576000044605A9286806F091FAC3B2022B67D84F
:1057700040B207EE900AB8EEE78AB0EE480A02F0AF
:1057800065FF354B83ED078A344B01221A7018EE02
:10579000100A03F02DFE324ACDE900014FF480716A
:1057A0000CA801F073FCFEF717FF03F039F838B1CD
:1057B000FEF74AFF10B102F063FF01E002F06AFF5A
:1057C00002F01AFF054603F04CF8281A03F0FEFD1C
:1057D0001FA3D3E9002303F089FF224ACDE900018A
:1057E0000A21214801F052FC01F098FB60B11F4BE7
:1057F0001F491B7800228DF8002008A80CAAFEF78C
:1058000012FD09A8FEF7C0FFFEF7E6FE01F086FBD9
:10581000C0B1214608A802F04DFF089B0393134B2B
:1058200013491B7800228DF8002006A8039AFEF782
:10583000FAFC07A8FEF7A8FF08A802F0D6FC01E0D2
:10584000002000E001204DB0BDEC028B30BD00BF58
:10585000000000000020AC4074E1032071E103204F
:1058600078D40D004AD30D0069E00320A0E00320A6
:10587000E3D40D000023022201F028BB0023042200
:1058800001F024BB0246014801F0F7BD4F740D0042
:105890002DE9F0430021ADB0082003F005FA002106
:1058A000042003F001FA0121072003F0FDF9012192
:1058B000052003F0F9F9AC4FAC4CDFF8AC830321C1
:1058C0000D2003F0F1F901210C2003F0EDF93B6804
:1058D00093F8C00093F8C13003F01F0343EA40106F
:1058E000FEF71DFC01210B2003F0DEF93B6893F865
:1058F000B00093F8B13003F01F0343EA40100025D5
:10590000FEF7FEFB0121072003F0DFF9FEF77CFD27
:105910004FF0FF33012296490095082002F022F94A
:1059200004A801F003FB2B467D220CA904A802F079
:10593000E2FC2B462A468F49019500950CA801F000
:1059400005FB8D498D48FFF795FF8D498D48FFF781
:1059500091FF8D498D48FFF791FF8D498D48FFF7E5
:1059600089FF8D498D48FFF785FF8D498D48FFF7E9
:1059700085FF8D498D48FFF77DFF8D498D48FFF7E5
:105980007DFF8D498D48FFF775FF8D498D48FFF7E5
:1059900071FF8D498D48FFF771FF8D498D48FFF7E5
:1059A00069FF8D498D48FFF769FF8D498D48FFF7E5
:1059B00065FF8D498D48FFF765FF8D498D48FFF7DD
:1059C00061FF8D498D48FFF75DFF8D498D48FFF7D9
:1059D00059FF8D498D48FFF755FF8D498D48FFF7D9
:1059E00051FF8D498D48FFF74DFF8D498D48FFF7D9
:1059F00049FF8D498D48FFF745FF8D498D48FFF7D9
:105A000041FF8D498D48FFF73DFF8D498D48FFF7D8
:105A100039FF8D4800F050FA01230DF10F0229469D
:105A2000894800F08BFA9DF80F30022B1AD0864877
:105A300000F04CFA0423854A8348294600F0D4FA42
:105A400001230DF10F0229467F4800F077FA9DF8F7
:105A50000F30022B03D0012388F8003008E0FFF755
:105A600047FB05E02C2322460121774800F066FA27
:105A70002CAD0026FFF7B8FA45F8906D3246314656
:105A8000284601F009F8089B142B00F04F8132469C
:105A900031462846089600F0FFFF089B8C2B00F04B
:105AA0004581D4ED047AF8EEE77A17EE900A03F018
:105AB0009FFC674B002203F019FE664ACDE9000106
:105AC0000821414801F0E2FAA3790BB1624900E0F4
:105AD0006249374804F0B0FC614800F031FD002114
:105AE0005F4800F082FE94ED070A02F0AFFD02F07D
:105AF00097FE20B95A4800F013FD02F0D1FDFEF7E1
:105B0000A3FD10B102F0BCFD01E002F0C3FD94ED75
:105B1000060ADFF8589102F07DFD02F06DFD0646A1
:105B200002F09FFE301A03F051FC0DA3D3E90023CD
:105B300003F0DCFD104E4B4ACDE900010A21264856
:105B400001F0A4FA1C23324650213F4800F0F6F938
:105B50003368002B00F08C80F06802F029FD89E0AA
:105B6000000000000020AC40F4E0032074E10320BA
:105B7000C5400D001D4A0D0050E1032089D40D00E1
:105B800058E1032095D40D00FCE00320A0D40D00C3
:105B900088E10320A7D40D0060E10320B2D40D00FA
:105BA00060DF0320BED40D007CE10320C6D40D00CD
:105BB00049E10320D1D40D0094E1032075D50D00F7
:105BC00098E10320DED40D0065DF03208CD50D00A5
:105BD00064E10320E8D40D0069E00320EFD40D0058
:105BE000A9E00320FAD40D0055410D0009D50D00A0
:105BF000B5410D0013D50D00B94A0D001FD50D009C
:105C000071410D0029D50D00154F0D0031D50D0046
:105C1000AD4B0D003ED50D00594C0D0049D50D0082
:105C2000014D0D0056D50D0051570D0063D50D00E7
:105C3000354E0D0071D50D00A54E0D007ED50D0021
:105C4000054B0D0088D50D0074E00320B4D10D0084
:105C500000408F40E6D20D00A2D30D00B9D30D0055
:105C600084E003204AD30D00C0E00320C4E00320F9
:105C700002F0FEFDC9F80000FEF7FAFB042003F075
:105C80003DF808B9FFF734FA02F006FE8146F068E5
:105C900002F096FC814510D0FEF772FC637963B187
:105CA000274B9B794BB92749284602F0E5FA28464D
:105CB000FFF730F9284602F098FA02F0D9FD636A3E
:105CC0001F4D984217DA02F0D3FD2B6A984212DB7F
:105CD0000023009301224FF0FF331B490D2001F0F8
:105CE00041FFEB7813B101F019F930B3FEF714FD61
:105CF000164B174A1A603B6893F8B00093F8B1301E
:105D000003F01F0343EA4010FEF709FA98F8003049
:105D100013B9104B02221A700021072002F0D5FFA0
:105D200004A802F062FA2DB0BDE8F0836369013384
:105D30006361094B01221A70B3E6FEF7DBFDD5E77C
:105D400074E103200CD60D00B9400D00A4E003203F
:105D5000905F0100C0E0032071E10320324B2DE988
:105D6000F04100241C60314B314D324E01271F7031
:105D700000F0D2FE304B186002F048FF2346224666
:105D800042F6702102F04AFF02F040FF224623460D
:105D9000052102F04BFF4FF6FF736B812C60AC8046
:105DA000AC712C81022001F029F8324623492846A3
:105DB00003F04EF8224D2146384601F037F83946B7
:105DC000042000F059FE4FF01008281D42462146DD
:105DD000286004F0A8F8022332461A49EB802846CE
:105DE0002F75A5F8048003F033F802F0E5FF164D97
:105DF0000146284600F0E2FA32461449284603F0EC
:105E000027F802F0D9FF124D234601464FF4005205
:105E1000284600F047F80F4B2B60324628460E49C3
:105E2000BDE8F04103F014B8E4E00320A0E0032053
:105E3000E8E0032064E00320F4E0032041420D0089
:105E4000CCE003203D410D0084E003202F610D00D4
:105E500074E003205CD10D008D410D00704710B53A
:105E60001021044602F0F9FF204610BD0368C9B2B4
:105E70009B6818470EB400B58CB00DAA202352F8C9
:105E8000041B03928DE8060004930168002304AA12
:105E90001E20059300F098FF0CB05DF804EB03B0F2
:105EA0007047000030B5034D056041608260C360FB
:105EB00030BD00BF90D60D00406801F0FDBD10B5AB
:105EC0000446006801F044FE204610BD2DE9F04173
:105ED0008AB007464068019001F031FE1E22002181
:105EE00002A8BE6804F01FF80025DEB13B681E2E34
:105EF000B04628BF4FF01E08DC6802AA4346294678
:105F00003846A047044648B92A460A490A48FFF7D6
:105F1000B1FF01A8FFF7D3FF204607E0C8EB060654
:105F20004544E2E701A8FFF7CAFF01200AB0BDE837
:105F3000F08100BF0ED60D0070E203202DE9F3477B
:105F40000446406801900E461746984601F0F7FD5A
:105F5000B8F1000F01D101243FE0E168606841F031
:105F6000500101F0E1FD310A6068FFF77FFF314623
:105F70006068FFF77BFF0021606801F0D8FD08B181
:105F800000242AE0E1686068B8F1200FC14641F0C2
:105F9000500128BF4FF0200901234A46C9B201F041
:105FA000ADFD02F009FF03681B6998474845E7DB30
:105FB0003D46C7EB060A02F0FFFE03685B6998479F
:105FC00005F8010BEA1BC5EB0803914505EB0A0632
:105FD0003B44F0D898462F46BAE701A8FFF76FFF79
:105FE000204602B0BDE8F0872DE9F347044640683B
:105FF00001900D4690461F4601F0A1FD4FB3E168A8
:10600000606841F0500101F08FFD290A6068FFF7D8
:106010002DFF29466068FFF729FF08F11E09464653
:10602000C8EB050A606816F8011B03689B6898476F
:10603000B14506EB0A05B04607F1FF3701D0002F46
:10604000F0D10121606801F072FD0028D6D0002453
:1060500000E0012401A8FFF732FF204602B0BDE8AE
:10606000F0872DE9F0438BB00E4615468046406818
:1060700001901C4601F063FDAE4223D22644254424
:106080000CB901243FE01E2C2746D8F8003028BF69
:106090001E27F61BD3F8089002AA3B46314640461D
:1060A000ED1BC84708B900242DE0D8F8003002AA3B
:1060B000D3F80C9029463B464046C8470028F2D00A
:1060C000E41BDDE7DDD9002CDBD01E2CD8F8003036
:1060D000274628BF1E27D3F8089002AA3B46314620
:1060E0004046C8470028DED0D8F8003002AAD3F8CE
:1060F0000C9029463B464046C8470028D3D03E4432
:106100003D44E41BDFE701A8FFF7D9FE20460BB0B2
:10611000BDE8F08300F000BD4020704700207047CC
:1061200080207047FF207047704770477047704766
:1061300010B51421044602F090FE204610BD10B5A3
:106140000821044602F089FE204610BD10B5082142
:10615000044602F082FE204610BD10B51C21044604
:1061600002F07BFE204610BD2DE9FF410368DB688D
:106170000546984710220146684603F0D4FE2B6876
:1061800028469B689847002407462046BC420ED20A
:106190003E1B102E2B6828BF1026D3F818806A46A5
:1061A000334621462846C04708B13444EEE704B0E0
:1061B000BDE8F081002301228372C2720273427330
:1061C0008373C3730374437470470000012208B5DE
:1061D0004271022282710322064BC27104220360C3
:1061E000027200230722037142724374FFF7E2FF39
:1061F00008BD00BFF0D70D0003090A2200F00F0010
:1062000002FB0300704708B5807AFFF7F5FF00F541
:10621000FA6008BDC07A00F01F00FFF7EDBF007BF9
:1062200000F03F00FFF7E8BF08B5817B4A060DD5B7
:1062300001F01F00FFF7E0FF8B0603D50C280BD001
:106240000C3008BD0C2808BF002008BD01F03F003D
:10625000BDE80840FFF7D0BF08BDC07B00F07F005D
:10626000FFF7CABF007C00F07F00FFF7C5BF10B585
:106270008AB024220021044601A803F054FE2046DF
:10628000FFF7C1FFA0F26C7006902046FFF7C2FF37
:10629000013805902046FFF7C2FF04902046FFF723
:1062A000C3FF03902046FFF7D8FF02902046FFF778
:1062B000D9FF019001A803F01BFF0AB010BD0A220C
:1062C00090FBF2F393FBF2F102FB113102FB13039B
:1062D00043EA0110C0B27047642310B5044691FB35
:1062E000F3F000FB1310FFF7EAFFA07210BD10B52A
:1062F00004460846FFF7E3FFE07210BD10B5044600
:106300000846FFF7DCFF237B23F03F03184320738D
:1063100010BD10B50446481CFFF7D1FF637B23F086
:1063200007031843607310BD10B504460846FFF715
:10633000C6FFA07310BD10B504460846FFF7BFFFA7
:10634000E07310BD10B504460846FFF7B8FF237C84
:1063500023F07F031843207410BD37B5044602A80C
:1063600040F8041D03F02EFC054641692046FFF766
:10637000B3FF296920460131FFF7B9FFE9682046DC
:10638000FFF7BCFFA9692046FFF7C3FFA9682046B5
:10639000FFF7CAFF69682046FFF7CDFF29683B2950
:1063A000A8BF3B212046FFF7CDFF03B030BD10B59D
:1063B0000446FFF7D2FF637A637410BD084A026097
:1063C0000022027242720122827203460322C272CA
:1063D000044A41601861C260034A98614261704793
:1063E00000D80D00D0D60D00ACD60D002DE9F84F29
:1063F00005460F4691469A4600240A9B9C4230D29D
:106400003946686801F08CFB09EB04016868FFF706
:106410002DFD0021686801F08AFB0646D8B90A9B69
:1064200068681A1B202A4FF0010328BF2022394632
:1064300001F064FB0AEB040883464646C8EB0603FA
:106440009B4506D9686803685B69984706F8010BA5
:10645000F4E75C44D1E7024604490548FFF70AFD2A
:1064600000E000263046BDE8F88F00BF4AD70D0097
:10647000A0E103201FB5012300930A4603AB6F215F
:10648000FFF7B4FF10B99DF80C0000E0002005B044
:106490005DF804FB08B50321FFF7ECFFC0F34010E3
:1064A00008BD7FB51E46002B0CBF072306230093B3
:1064B000144602AB0A466F21FFF798FF0546D8B98C
:1064C0009DF8083023749DF80930E3739DF80A3075
:1064D000A3739DF80B3063739DF80C3023739DF804
:1064E0000D30E3721EB99DF80E30A37204E002F085
:1064F000EBF9FFF7E4FEA072284604B070BD38B592
:1065000000230C460A4619460546FFF7CAFF28B97C
:10651000A37A1BB12846FFF7BDFF00B9002038BDA4
:1065200010B586B0044601A8FFF750FE01A9204629
:10653000FFF7E5FF10B101A8FFF799FE06B010BD07
:1065400030B5044685B0406801F0B6FA02F068F94B
:10655000C0B9E37A9B0715D52046FFF7E1FF054652
:1065600080B102F09DF8094B09491B682A4668462C
:1065700002F024F90748009A0749FFF77BFC6846B8
:1065800001F033FE0123237205B030BD74DF032018
:10659000A0E40320A0E1032064D70D002DE9F3411E
:1065A00001EB03081E4603689B6804460D46174628
:1065B000984780450AD800963B46EAB25721606862
:1065C000FFF714FFB0FA80F0400900E0002002B0AD
:1065D000BDE8F0812DE9F34101EB03081E46036895
:1065E0009B6805460C461746984780450CD804F131
:1065F000200200963B46D2B26F216868FFF7F6FE94
:10660000B0FA80F0400900E0002002B0BDE8F0815F
:106610002DE9F84F0746894692469B4600240A9B7F
:106620009C4228D24946786801F07AFA0AEB0401C4
:106630007868FFF71BFC0A9B1E1B1F2E0BEB040840
:1066400028BF1F264546786815F8011B0268926826
:106650009047C8EB0502B242F5D30121786801F0FA
:1066600066FA054628B1024605490648FFF702FCCE
:1066700002E03444D3E700252846BDE8F88F00BF88
:1066800079D70D00A0E103201FB5137C8DF80830E9
:10669000D37B8DF80930937B8DF80A30537B8DF8CE
:1066A0000B30137B8DF80C30D37A8DF80D30937A44
:1066B0008DF80E30072300930A4602AB6F21FFF7D7
:1066C000A7FF05B05DF804FB10B586B0044601A82D
:1066D000FFF77CFD01A8FFF740FE9DF81430A27A79
:1066E00063F07F038DF814309DF8113012B143F040
:1066F000080301E023F0080301AA002120468DF8D9
:106700001130FFF7C1FFB0FA80F0400906B010BDAC
:106710007FB5064602F084F80446B8B102F0A1F84D
:10672000054601463046FFF7CFFF0C4B0C491B686E
:106730002A460446684602F041F8009A09490A4888
:10674000FFF798FB684601F050FD03E00749064853
:10675000FFF790FB204604B070BD00BF74DF03203C
:10676000A0E4032094D70D00A0E10320AAD70D00D8
:1067700037B5457A04468DB902F052F870B102A8D7
:10678000294640F8045D00F0F9FB38B1E37ADB07F5
:1067900002D52046FFF7BCFF0123637203B030BD72
:1067A0001FB504AB03F8042D012200920A466F21A5
:1067B000FFF72EFF05B05DF804FBF8B5144605465B
:1067C0000E461F46FFF756FE204040EA07023146BC
:1067D0002846BDE8F840FFF7E3BF13B11346FF2298
:1067E00001E0D243D2B2FFF7E8BF012908B50CD8C7
:1067F00000294FF000030CBF102220220721FFF7D1
:10680000ECFFB0FA80F0400908BD002008BD002967
:106810004FF000034FF0080214BF14210D21FFF7C1
:10682000DCBF2DE9F34101EB03081E4603689B68BA
:1068300005460C461746984780450CD804F12002BF
:1068400000963B46D2B26F216868FFF7E1FEB0FACE
:1068500080F0400900E0002002B0BDE8F081F0B512
:10686000012B85B006460C4617461D4601D900206F
:1068700043E0FFF70FFE0028F9D029463046FFF726
:10688000C6FF237C227B8DF80830E37B8DF809302E
:106890008DF80C20A37BE27A8DF80A308DF80D205C
:1068A000637B17B163F07F0301E003F07F038DF892
:1068B0000B30637C9DF80B201B0103F07003134326
:1068C000002D8DF80B304FF00603009308BF0A220D
:1068D00002AB18BF11226F213046FFF799FE044624
:1068E00040B9002D0CBF10232023FF220721304682
:1068F000FFF763FFB4FA84F0400905B0F0BDF0B5CE
:10690000012B87B006460C4617461D4601D90020CC
:1069100010E0FFF705FE0028F9D0011901A8FFF7E4
:1069200055FC01A8FFF743FD2B463A4601A9304626
:10693000FFF795FF07B0F0BD38B505463224572163
:10694000686801F0EDF80121686801F0F0F808B11D
:10695000013CF4D138BD00002DE9F0410546D718BF
:106960001446C2EB0108BC421ED05721686801F0F2
:10697000D7F808EB04016868FFF778FA686814F83C
:10698000011B03689B6898470121686801F0CFF8F4
:10699000064628B1024606490648FFF76BFA04E0AE
:1069A0002846FFF7C9FFDEE700263046BDE8F08144
:1069B000BFD70D00A0E103202DE9F04101EB030852
:1069C0001E4603689B6804460D4617469847804557
:1069D0000AD833463A46E9B26068FFF7BDFFB0FA1D
:1069E00080F04009BDE8F0810020BDE8F0810000A2
:1069F00008B500F091F8024B024A1A6008BD00BFCA
:106A0000A0E10320E0D70D0008B5024B1B685B6CCA
:106A1000019308BD7402030008B5024B1B689B6C10
:106A2000019308BD7402030008B5024B1B689B6804
:106A3000019308BD4802030008B5024B1B681B699F
:106A4000019308BD4802030008B5024B1B685B694F
:106A5000019308BD4802030008B5024B1B685B6C3C
:106A6000019308BD4802030008B5024B1B689B6CEC
:106A7000019308BD4802030008B5024B1B685B6E1A
:106A8000019308BD3402030008B5024B1B689B6EDE
:106A9000019308BD3402030008B5024B1B68DB6E8E
:106AA000019308BD3402030008B5024B1B685B6804
:106AB000019308BD1802030008B5024B1B68DB6890
:106AC000019308BD1802030008B5024B1B685B69FF
:106AD000019308BD1802030008B5024B1B68DB696F
:106AE000019308BD1802030008B5024B1B681B6A1E
:106AF000019308BD1802030008B5024B1B689B6D8B
:106B0000019308BD1802030008B5024B1B68DB6D3A
:106B1000019308BD1802030008B5024B1B681B68EF
:106B2000019308BD2C02030008B5024B1B685B688B
:106B3000019308BD2C02030008B5024B1B689B683B
:106B4000019308BD2C02030008B5024B1B68DB68EB
:106B5000019308BD2C02030008B5024B1B681B699A
:106B6000019308BD2C02030008B5024B1B685B694A
:106B7000019308BD2C02030008B5024B1B689B69FA
:106B8000019308BD2C02030008B5024B1B68DB69AA
:106B9000019308BD2C02030008B5024B1B681B6B58
:106BA000019308BD2C02030008B5024B1B68DB688B
:106BB000019308BD2802030008B5024B1B689B69BE
:106BC000019308BD2802030008B5024B1B68DB696E
:106BD000019308BD2802030008B5024B1B681B6A1D
:106BE000019308BD2802030008B5024B1B685B6ACD
:106BF000019308BD2802030008B5024B1B689B6A7D
:106C0000019308BD2802030008B5024B1B68DB6A2C
:106C1000019308BD2802030008B5024B1B681B6BDB
:106C2000019308BD2802030008B5024B1B685B6B8B
:106C3000019308BD2802030008B5024B1B681B6CBA
:106C4000019308BD2802030008B5024B1B689B6C2A
:106C5000019308BD2802030008B5024B1B68DB6CDA
:106C6000019308BD2802030008B5024B1B681B6D89
:106C7000019308BD2802030008B5024B1B685B693D
:106C8000019308BD6402030008B5024B1B689B68B2
:106C9000019308BD6802030008B5024B1B68DB685E
:106CA000019308BD6802030008B5024B1B68DB694D
:106CB000019308BD3002030008B5024B1B681B6A34
:106CC000019308BD3002030008B5024B1B681B6826
:106CD000019308BD3C02030008B5024B1B68DB684A
:106CE000019308BD3C02030008B5024B1B681B69F9
:106CF000019308BD3C02030008B5024B1B685B69A9
:106D0000019308BD3C02030008B5024B1B689B6958
:106D1000019308BD3C02030008B5024B1B68DB6908
:106D2000019308BD3C02030008B5024B1B681B6AB7
:106D3000019308BD3C02030008B5024B1B689B6A27
:106D4000019308BD3C02030008B5024B1B681B6899
:106D5000019308BD4C02030008B5024B1B681B6978
:106D6000019308BD4C02030008B5024B1B685B6928
:106D7000019308BD4C02030008B5024B1B689B69D8
:106D8000019308BD4C02030008B5024B1B68DB6988
:106D9000019308BD4C02030008B5024B1B681B6A37
:106DA000019308BD4C02030008B5024B1B685B6BE6
:106DB000019308BD6002030008B5024B1B681B6D00
:106DC000019308BD6002030008B5024B1B685B6DB0
:106DD000019308BD6002030008B5034B1B68D3F89C
:106DE0009830019308BD00006002030008B5024B13
:106DF0001B681B68019308BD2002030008B5024B05
:106E00001B685B68019308BD2002030008B5024BB4
:106E10001B685B69019308BD2002030008B5024BA3
:106E20001B689B69019308BD2002030008B5024B53
:106E30001B68DB6A019308BD2002030008B5024B02
:106E40001B68DB6C019308BD2002030008B5024BF0
:106E50001B685B6D019308BD2002030008B5024B5F
:106E60001B689B6D019308BD2002030008B5024B0F
:106E70001B68DB6D019308BD2002030008B5034BBE
:106E80001B68D3F88830019308BD0000200203007E
:106E900008B5034B1B68D3F89430019308BD00007C
:106EA0002002030008B5034B1B68D3F8A8300193F8
:106EB00008BD00002002030008B5034B1B68D3F88F
:106EC000AC30019308BD00002002030008B5024B5E
:106ED0001B681B68019308BD4402030008B5024B00
:106EE0001B685B68019308BD4402030008B5024BB0
:106EF0001B689B68019308BD4402030008B5024B60
:106F00001B68DB68019308BD4402030008B5024B0F
:106F10001B681B69019308BD4402030008B5024BBE
:106F20001B685B69019308BD4402030008B5024B6E
:106F30001B68DB69019308BD4402030008B5024BDE
:106F40001B681B6A019308BD4402030008B5024B8D
:106F50001B685B6A019308BD4402030008B5024B3D
:106F60001B68DB6A019308BD4402030008B5024BAD
:106F70001B681B6B019308BD4402030008B5024B5C
:106F80001B685B6B019308BD4402030008B5024B0C
:106F90001B68DB6B019308BD4402030008B5024B7C
:106FA0001B685B68019308BD4002030008B5024BF3
:106FB0001B689B68019308BD4002030008B5024BA3
:106FC0001B68DB68019308BD4002030008B5024B53
:106FD0001B681B69019308BD4002030008B5024B02
:106FE0001B685B69019308BD4002030008B5024BB2
:106FF0001B689B69019308BD4002030008B5024B62
:107000001B68DB69019308BD4002030008B5024B11
:107010001B681B6A019308BD4002030008B5024BC0
:107020001B681B6B019308BD4002030008B5024BAF
:107030001B685B6B019308BD4002030008B5024B5F
:107040001B681B68019308BD1C02030008B5024BB6
:107050001B685B68019308BD1C02030008B5024B66
:107060001B689B68019308BD1C02030008B5024B16
:107070001B681B69019308BD1C02030008B5024B85
:107080001B689B69019308BD1C02030008B5024BF5
:107090001B68DB69019308BD1C02030008B5024BA5
:1070A0001B681B6A019308BD1C02030008B5024B54
:1070B0001B68DB6A019308BD1C02030008B5024B84
:1070C0001B681B6B019308BD1C0203000021FFF726
:1070D0009DBE10B5836804460BB901F0DAFEC368A3
:1070E0009847A3681BB103222146204698472046B3
:1070F0001021BDE8104001F0B0BE10B50446006894
:1071000008B1FFF7B1FC204610BD0B68036013B156
:107110005A6801325A60704710B5064C0023204669
:107120002360FFF799FC2046034A0449BDE810405C
:1071300001F08EBEA4E1032064E00320FB700D008B
:10714000002211464068FFF741BF00221146406807
:10715000FFF75CBF002211464068FFF767BF0022BF
:107160004068FFF75BBF002281F001014068FFF734
:1071700045BF00231A4619464068FFF737BF002372
:107180001A4619464068FFF729BF00221146406899
:10719000FFF70CBF002202214068FFF70FBF00235A
:1071A0001A464068FFF7FABEF0B51B4B0360002596
:1071B0000F462833182689B043608560C560324683
:1071C00029460446103002F0AEFE2A462946786869
:1071D000FFF7FCFE08B9A0601BE02946324602A872
:1071E0000095019502F09FFE02A96846ADF808607F
:1071F000FFF70AFC10B10123A3600AE0009B019A8B
:10720000A360E2600BB90223A36002A9204600F04C
:1072100089F8204609B0F0BD44D80D0038B5084CB7
:1072200028252A460021204602F07DFE4FF0FF333C
:107230006360044B258004225A60034A1A6038BDFB
:10724000B0E10320A8E1032010D80D007047007DB5
:1072500070470000037D1BB18369B3F1004F02D179
:107260009FED050A704707EE903A9FED047AF8EE1D
:10727000E77A87EE870A7047000000000000C842E6
:10728000037D1BB1036AB3F1004F02D19FED050AE4
:10729000704707EE903A9FED047AF8EEE77A87EEB2
:1072A000870A7047000000000000C84210B528217E
:1072B000044601F0D2FD204610BD0000037D7BB1E5
:1072C000436A002B0CDB07EE903ADFED076A9FED77
:1072D000070AB8EEE77AC7EE267A27EE800A7047EB
:1072E000BFEE000A704700BF00FF7F470000C842A2
:1072F000037D7BB1C369002B0CDB07EE903ADFED19
:10730000076A9FED070AB8EEE77AC7EE267A27EEFE
:10731000800A7047BFEE000A704700BF00FF7F473A
:107320000000C84230B50D4600F110040FCD0FC467
:1073300095E8030084E80300012030BD2DE9F04109
:1073400007460C4615462AB90368C9B29B68BDE8D2
:10735000F0411847002907DA0A2A05D12D2100F04B
:10736000E9FE6142064601E021460026EAB23846BF
:1073700000F0F9FE3044BDE8F08170B50D460646D8
:107380000A2281682846FFF7D9FF2C2104462846A7
:1073900000F0D0FE0A220444F1682846FFF7CEFF31
:1073A000204470BDA0F10400FFF7E7BF7047002044
:1073B000704710B51021044601F04FFD204610BD66
:1073C00008B508B1FFF7F5FF08BD10B5836804469E
:1073D00013B1032201469847204610BD00220260E7
:1073E00010B54FF69C728280B1F9044084808A8087
:1073F00002680C6804600A6010BD10B5044600689D
:10740000FFF724FE204610BD38B5C468F4B12378D8
:10741000022B03D104F10C00FFF7EFFF656835B1D3
:107420002846FFF7D2FF1021284601F016FDA56877
:1074300035B12846FFF7C9FF1021284601F00DFDA0
:1074400020461421BDE8384001F007BD38BD10B515
:1074500088B00446684600F00FFF694604A800F0B3
:107460002DFF04A8A047044604A800F0BEFE68460D
:1074700000F0BBFE204608B010BDF0B5102485B06A
:1074800007460E46154600212246684602F04BFD8F
:10749000002269461046ADF8004002970396019518
:1074A000FFF71CFD05B0F0BD13B5044691E80500DB
:1074B00000234B600B602060626001A80193009381
:1074C000FDF762F9204602B010BDF7B50C4602ADDB
:1074D00054F8043B45F8083D06460F4601A82146EE
:1074E000FFF713FE29463046FFF7DEFF01A8FDF740
:1074F0004BF92046FDF748F93846082101F0ADFC6C
:10750000304603B0F0BD13B50B46044603C88DE802
:10751000030093E8030084E803009DE8030083E888
:10752000030002B010BD000038B50023044603601C
:1075300010200D46FCF7B1FD28B1012343608360A4
:10754000024B0360C5602060204638BD78D80D002E
:10755000826810B50AB901F09CFCC368BDE8104010
:10756000184708B5006800F11001FFF7F1FF08BDEA
:10757000826810B50AB901F08CFCC368BDE8104000
:10758000184708B5006800F11001FFF7F1FF08BDCA
:1075900038B5002383608B6804460D462BB1022268
:1075A0009847EB68E360AB68A360204638BD0000F5
:1075B000F0B589B004686846FFF710FF00238DF826
:1075C00008304FF00202D4E84F3F002B03D1C4E84B
:1075D000412F0029F7D102D08DF8083063E014F173
:1075E0000C0503D069462846FFF7F8FEBFF35F8F0E
:1075F00001236370002004F10803BFF35F8F53E899
:10760000006F43E80002002AF9D1BFF35F8F002E1C
:1076100049D0FFF713FC20B129463046FFF798FF09
:107620003AE0314602A8FFF7B3FFE068B4F9105022
:1076300008B102F009FF06901020ADF81C50FCF7CD
:107640002CFD0546E8B1002787601820FCF725FDD2
:10765000044688B10146876002A8FFF754FF049BE7
:10766000A268A360059B049206A9E268E36004F1A6
:1076700010000592FFF7B2FE0D4BEB600D4B2C6036
:10768000AB6006A8FFF7B9FE02A8FFF79EFE002236
:1076900029460948FFF7DAFB3046FFF796FE10212E
:1076A000304601F0DAFB6846FFF7A7FE09B0F0BDEF
:1076B00063750D00D9770D00D3700D002DE9F04FE3
:1076C0008BB006460F46904699469DF850A0FFF7AE
:1076D00025FC07AD834630BB4FF62E73059005A9F8
:1076E0002846ADF81830FFF779FE1420FCF7D5FCDA
:1076F000044658B10223037001234370C0F804B05C
:10770000C0F808B029460C30FFF768FE3046214625
:1077100040F8044BFFF708FF2846FFF76EFE05A868
:10772000FFF76BFE52E000240C2314206C60AC6069
:107730000793FCF7B2FC014618B104704470446032
:10774000846004A80391FFF7EFFE224B0893082002
:10775000FCF7A3FC044628B1039B40F8043B04A9B2
:10776000FFF7D3FC00955FFA8AF34A464146384654
:107770000994FFF7E3FB20B9039B5B7803F0FF025A
:1077800083B1039B059304A906A8FFF7BEFC05A9D6
:107790003046FFF789FE06A8FCF7F6FF04A8FCF7C1
:1077A000F3FF13E04FF69C7305A903A80592ADF80B
:1077B0001830FFF7FDFE05A8FFF71FFE05A8099981
:1077C000FFF783FE06A8FCF7DFFFDAE730460BB0D1
:1077D000BDE8F08F49790D00022AF8B5044606D0BD
:1077E000032A17D0012A22D10B6803601FE018205A
:1077F0000E68FCF752FC054650B13146FFF7C8FE53
:107800003069B6F9147008B102F01EFE2861AF822B
:1078100025600CE0046854B104F11000FFF7EDFDA1
:107820002046FFF7D2FD1821204601F016FB00206C
:10783000F8BD38B5002383608B6804460D462BB134
:1078400002229847EB68E360AB68A360204638BD2E
:10785000022A70B5044606D0032A11D0012A18D195
:107860000B68036015E014200E68FCF716FC054653
:1078700020B13146FFF7DDFF337C2B74256008E033
:10788000046834B12046FFF7A0FD1421204601F022
:10789000E4FA002070BD0000F0B5002387B00C466C
:1078A000BFF35F8F50E8006F40E80032002AF9D143
:1078B000BFF35F8F002E3FD01846FFF7BFFA074691
:1078C00020B121463046FFF753FE2EE0314601A895
:1078D000FFF7AFFF23788DF814301020FCF7DDFBA5
:1078E0000546D0B187601420FCF7D7FB044678B179
:1078F0008760014601A8FFF706FE039BA268A3600C
:10790000049B0392E268E3609DF8143004922374B0
:107910000A4BEB600A4B2C60AB6001A8FFF755FDEA
:10792000002229460748FFF791FA3046FFF74DFD40
:107930001021304601F091FA07B0F0BD83750D00BB
:1079400051780D00D3700D0030B585B004460D465A
:1079500068461146FFF7B9FD7CB124B228460DB147
:1079600002F072FD029002A96846ADF80C40FFF7E4
:107970001FFE02A8FFF741FD1DE000988DF80840AA
:107980004FF00102D0E84F3FA34203D1C0E8412F9E
:107990000029F7D102D08DF808300CE010F10C016D
:1079A0004FF0010318BF0373BFF35F8F043000F87B
:1079B000033CFFF771FF01A8FCF7E6FE05B030BD00
:1079C000002211464068FFF721BB002211464068A3
:1079D000FFF72CBB00224068FFF720BB002281F09C
:1079E00001014068FFF70ABB00231A4619464068A8
:1079F000FFF7FCBA00231A4619464068FFF7EEBAB3
:107A0000002211464068FFF7E1BA002211464068A3
:107A1000FFF7CCBA002202214068FFF7CFBA00235B
:107A20001A464068FFF7BABA024B03225A60024A6C
:107A30001A607047D8E1032094D80D007047F8B55C
:107A4000064615460C468F18BC4206D0336814F81B
:107A5000011B9B6830469847F6E72846F8BD002290
:107A6000007CFFF7B9B80021007CFFF7BDB800210A
:107A7000007CFFF7C1B80021007CFFF7C5B80021EA
:107A8000007CFFF7C9B810B51421044601F0E5F9F0
:107A9000204610BD10B50446002363604FF47A738E
:107AA000A360044B2174084623601146FFF7C4F815
:107AB000204610BDC8D80D0000231A461946007C88
:107AC000FFF772B870B50C4686B0142506462A46F4
:107AD000002101A802F027FA23788DF808306368A6
:107AE0000393E36804930022237A307CADF80450BA
:107AF00001A90593FFF7B8F806B070BD1FB50033B4
:107B00008DF800104FF06401039118BF01236946FE
:107B100001928DF80830FFF7D5FF05B05DF804FB42
:107B20000022007CFFF748B8C9B2FFF7F9BF002276
:107B3000007CFFF749B80021007CFFF775B808B555
:107B40000021007CFFF780F8B0FA80F0400908BD02
:107B500008B50021007CFFF77FF8B0FA80F04009FB
:107B600008BD0047F0B585B01C460E4617460546D1
:107B7000FFF70AF8002084424FF0040303908DF8C9
:107B80000C30A5BF9DF828308DF80E30034603ABAE
:107B9000009332463B460649A8BF8DF80D40284663
:107BA000FEF7EAFFB0FA80F0400905B0F0BD00BF73
:107BB000637B0D00F8B50646FEF7E6FF074668B999
:107BC000084D55F826405CB12046FFF7FEFB10211A
:107BD000204601F042F945F8267001E00020F8BD8A
:107BE0000120F8BDE0E10320704710B518210446DC
:107BF00001F033F9204610BDF0B5037D062B8DB0A2
:107C00000E4600F104074FF0000402D000F1080511
:107C100018E00CAD394605F8304D2F232A460A20CE
:107C2000FFF72AF8284603F03FF933680246DB687D
:107C30002946304698470FE024B12E21304600F007
:107C400079FA044415F8011D0A22304600F08BFA37
:107C5000BD420444F0D120460DB0F0BD10B5054B37
:107C60000446112240F8043B002102F05CF9204652
:107C700010BD00BFF0D80D000346074A10B543F809
:107C8000042B01F1100251F8044B43F8044B9142CC
:107C9000F9D10A781A7010BDF0D80D0010B59DF812
:107CA000084044EA032343EA024242EA0161042312
:107CB0004160037510BD37B50D788B784A78C97867
:107CC00000912946FFF7EAFF03B030BD014B024A9D
:107CD0001A60704770E203206CD90D000022114633
:107CE0004068FFF793B9002211464068FFF79EB93C
:107CF00000224068FFF792B9002281F0010140683C
:107D0000FFF77CB900231A4601214068FFF76EB9DE
:107D100000231A4619464068FFF760B90022114651
:107D20004068FFF753B9002211464068FFF73EB99B
:107D3000002202214068FFF741B900231A4640683B
:107D4000FFF72CB938B5054688B104684CB1A36873
:107D50001BB103222146204698471021204601F0FE
:107D60007CF828461421BDE8384001F076B838BDCB
:107D700010B103685B681847704710B50368044684
:107D8000BBB15868FEF750FE78B923685A7C12B927
:107D90005868FEF751FE23685868FEF755FE2068C4
:107DA0000023236028B1FFF7CDFF206808B1FFF75B
:107DB000C9FF204610BD38B50446D0F8C40108B14B
:107DC000FCF76FF9D4F8C00108B1FEF74DFED4F806
:107DD000BC5135B12846FFF7D0FF0421284601F0F9
:107DE0003CF8206808B1FFF7C3FF204638BD00000B
:107DF00010B5044B044640F8083BFFF7DCFF204673
:107E000010BD00BFD8D90D0038B50E4C0E4B236005
:107E10000025022304F5E4706360A560C4F8C45132
:107E2000C4F8C851FEF718FE084BC4F8CC5184F8CA
:107E3000D05123602046064A0649BDE8384001F08B
:107E400007B800BF74E203200CDA0D00D8D90D008A
:107E500064E00320F17D0D0000231A464068FFF71F
:107E60009DB8002202214068FFF7A8B80022114601
:107E70004068FFF79BB8002211464068FFF7A6B89C
:107E800000231A4619464068FFF7A8B800231A468F
:107E900019464068FFF7AAB8002281F00101406846
:107EA000FFF7ACB800224068FFF7B8B800221146CF
:107EB0004068FFF7BBB8002211464068FFF7A6B83C
:107EC0002DE9F043002495B016460D460746FFF70E
:107ED000C5FE214620220CA8009402F024F840237D
:107EE0000C9321466B460CAA3046FEF7D5FE04469D
:107EF000002844D1024601216868FFF767F8022193
:107F0000804622466868FFF761F8009E8146214658
:107F1000002E34D0002932D17368022B02D00A2BF4
:107F200009D02AE0B8F1000F27D071693846043132
:107F3000FFF7C1FE20E0B9F1000F1ED074691122D5
:107F400001A801F0F0FF06238DF8143001AD04F113
:107F500008031834186859682A4603C20833A34234
:107F60001546F7D101A906A807ADFFF785FE0FCD8D
:107F70003C1D0FC42B6823700121F669C8E70098E7
:107F8000FEF782FE384615B0BDE8F083024B034A87
:107F90001A6000225A60704748E403200CDA0D0092
:107FA00008B500F02FFFBDE80840FFF7C8BD10B5C9
:107FB0000446017009B1FFF7F3FF204610BD08B574
:107FC00000F020FFBDE80840FFF7C2BD10B5037800
:107FD00004460BB1FFF7F3FF204610BD10B5044671
:107FE0000068FFF7ECFF204610BD37B502AC0D4628
:107FF00044F8040DFFF7D4FF00F004FF6B21FFF7F6
:1080000093FD00F0FFFE036829469B68984700F047
:10801000F9FE0121FFF78BFD00F0F4FE01231A4663
:108020006B21FFF76BFD00F0EDFE03685B6998477D
:1080300005462046FFF7D2FFE8B203B030BD73B566
:1080400002AC15460E4644F8040DFFF7A9FF00F0F8
:10805000D9FE6B21FFF768FD00F0D4FE03683146BE
:108060009B68984700F0CEFE036829469B689847B6
:1080700000F0C8FE0121FFF75AFD2046FFF7AEFFD2
:1080800002B070BD37B502AC054644F8040DFFF7E9
:1080900087FF01212846FFF7A8FF012100F0CF024A
:1080A0002846FFF7CCFF2046FFF798FF012003B0DA
:1080B00030BD37B502AC054644F8040DFFF770FF3C
:1080C00001212846FFF791FF00F0CF0242F0100295
:1080D00001212846FFF7B3FF2046FFF77FFF01206D
:1080E00003B030BDFFF7E5BFF8B506460D468F1863
:1080F0000024BD420CD0336815F8011B9B68304644
:108100009847002801DB0444F3E7002C08BF04462D
:108110002046F8BD70B505460C46084649B102F048
:10812000C3FE2B68024621462846DB68BDE8704046
:10813000184770BD03689B68184738B50D21054680
:10814000FFF7F8FF0A2104462846FFF7F3FF204413
:1081500038BD38B50546FFF7DDFF04462846FFF772
:10816000ECFF204438BD30B58BB00B4600218DF8B4
:108170002410012A98BF0A220DF12304B3FBF2F563
:1081800005FB123303F0FF03092B94BF3033373361
:10819000DBB2214604F801392B46002DEED1FFF762
:1081A000B9FF0BB030BD10B50446FFF70EF92046FD
:1081B00010BD00000348044A04490023836000F016
:1081C00047BE00BF50E4032064E00320A7810D00F8
:1081D00010B5044601700846FEF766FD0023636093
:1081E000204610BD0078FEF767BD10B50446006854
:1081F000FEF72CFF204610BD10B50446006808B1FC
:10820000FEF724FF00232360A360636010BD38B530
:1082100004460D4600680131FEF720FF10B184E8E6
:108220002100012038BD10B50368044613B143682E
:108230008B4207D22046FFF7EAFF20B1A3680BB9B3
:1082400022681370012010BD70B50E461146044619
:108250001546FFF7E8FF18B92046FFF7CDFF09E004
:108260002A463146A560206801F052FE2268A368C4
:108270000021D154204670BD38B500230446036068
:108280004360836003730D4639B1084602F00CFE6B
:10829000294602462046FFF7D7FF204638BD8842D0
:1082A00010B50B46044607D0096819B19A68FFF764
:1082B000CBFF01E0FFF7A0FF204610BD10B5002363
:1082C00004460360436083600373FFF7E8FF2046C2
:1082D00010BD08B582680B4612B919B9012008BD56
:1082E00011B90368187802E0006802F09BF8B0FA50
:1082F00080F0400908BD70B50E469AB191B185680D
:108300009D4202D800230B7070BD541EED1A016807
:10831000AC4228BF2C4619442246304602F0E1FD0B
:108320000023335570BD10B50446006818B1FEF740
:108330008DFE0023236010BD38B5B1F90430838071
:108340000B460D4653F8062FC0F806209B88438144
:108350000446FFF7E8FF2B6813B1236000232B606E
:10836000204638BDB1F9043010B50BB90A689AB18E
:108370000C685CB1A288012A03D0042A06D102222B
:1083800005E0A4894C818A710B8105E004220B81F0
:108390004FF6FF738A714B8151F8063F03608B885B
:1083A000838010BD38B50C460546FFF7BCFF44B1CD
:1083B0002088FEF743FE286028B12288214601F07C
:1083C000A7FD002038BD014838BD00BFFCFEFFFFFF
:1083D000014600228C20FEF757BB0020FFF7F8BFB4
:1083E000F0B5304D0B7D04468BB00846AF1D13B37E
:1083F0000B681B79FBB100224FF6FF7302A9043012
:108400000292ADF80C208DF80E20ADF81020ADF8DA
:108410001230FEF751FD0AAB00B253F81A2DADF839
:108420000C009B88A880C5F806200299BB802846CE
:10843000FFF7B8FF1CE02023002602931A4B00939D
:108440001A4903963346322002AAFEF7B5FC4FF6CE
:10845000FF73ADF8123002A94FF6F263114802968D
:108460008DF80E60ADF81060ADF80C30FFF764FFCA
:1084700002A8FFF758FF00232360A380A371238184
:108480004FF6FF736381B5F90430A3803B68C4F8ED
:108490000630BB88638129682046FFF783FF2046AA
:1084A0000BB0F0BD60E403203FDA0D0038DA0D00B8
:1084B00030B5044685B0084611461A460023FEF73B
:1084C000ADFC0D4DADF80C00002301A90193ADF8F2
:1084D00008308DF80A3028464FF6FF73ADF80E309D
:1084E000FFF72AFF01A8FFF71EFF20462946FFF7E6
:1084F00039FF204605B030BD60E4032010B5094CBB
:1085000000204FF6FF732060A080A071208163815E
:10851000FEF774FC2046044A0449BDE8104000F010
:1085200097BC00BF60E4032064E0032041420D00DB
:10853000F0B5144B144F1E68144B064418683B6882
:1085400006449E428BB01BD00AA801AD40F8286DAE
:1085500001F0E2FB436903F26C73436104460FCC04
:108560000FC50FCC0FC5D4F800E0C5F800E001AD91
:108570000FCD074C0FC40FCD0FC43E60C4F800E010
:108580000BB0F0BD9CE4032098E4032094E40320A6
:108590006CE4032008B50020FEF7E8FC28B1FEF7E4
:1085A000BDFC80F00100C0B208BD012008BD000084
:1085B00008B5FFF7BDFF014B986808BD6CE40320C8
:1085C00008B5FFF7B5FF014BD86808BD6CE4032080
:1085D00008B5FFF7ADFF024B9869013008BD00BF39
:1085E0006CE4032008B5FFF7A3FF024B18690130C4
:1085F00008BD00BF6CE4032008B5FEF76DFA034B1D
:108600001B681844024B1B68184408BD9CE40320F7
:1086100094E40320FAEE087AB4EEE70AF1EE10FAD9
:108620000FD4F2EE0C7AB4EEE70AF1EE10FA08DCA1
:10863000DFED047A044B20EE270ABDEEC00A83ED7D
:10864000000A7047000061459CE40320B5EEC00AB3
:10865000F1EE10FA0FD4F0EE007AB4EEE70AF1EE84
:1086600010FA08DCDFED047A044B20EE270ABDEE99
:10867000C00A83ED000A70470000614570DF0320E7
:10868000024B1A68024B1A60704700BF70DF03206C
:1086900094E40320014B00221A60704794E4032005
:1086A00008B5FEF721FA002211461046BDE8084041
:1086B000FEF7DCBB37B50E4B1B6819440D4B1B682E
:1086C000044602A8194440F8041D01F025FB01F0FE
:1086D0002BFA054602F0E8FB2844002300F8013C91
:1086E00029462046FFF7C8FD204603B030BD00BF35
:1086F0009CE4032094E403202DE9F047A4B014ACDB
:1087000007468946204611463F221D4602F0E9FBF6
:10871000002320468DF88F3002F0C6FB804625B935
:10872000244903A801F088FE13E03C2195FBF1F2F7
:10873000002AB8BF524292FBF1F301FB13220092D0
:108740004FF461631C4A95FBF3F3102103A8FEF775
:108750009DFC25462E1B08F1FF3AB2451BD92B780C
:10876000252B16D16B787A2B13D103A802F09CFB32
:1087700080463044C6EB0A02A91C204401F0C8FB25
:10878000424603A9284601F0C3FB204602F08CFBB9
:1087900080460135DEE74B462246322107A801F02C
:1087A000CFFE07A93846FFF767FD384624B0BDE87D
:1087B000F08700BF5DE00D0066DA0D00F7B50546F5
:1087C00001921C4613B9124B1C682CB1114B204668
:1087D000196801F027FE20B901992846FFF76AFFC2
:1087E00013E00D4F019A3B680C4E1A44336802A8FF
:1087F000134440F8043D01F08FFA3A6833680146AB
:10880000134428462246FFF777FF284603B0F0BD01
:1088100090E4032074DF03209CE4032094E403200D
:1088200010B50020FEF768F9044668B9FEF7DEFAD5
:1088300001280BD12046FEF711FB38B9FFF7AAFE3D
:1088400030B9FEF753FBF9E7012010BD002010BD41
:10885000FFF7A0FE0020FEF74FF9003018BF0120FF
:1088600010BD08B5FFF7DCFFBDE80840FEF734B9DE
:1088700008B5FFF7F6FFFFF75BFE014B986808BDF0
:108880006CE4032008B5FFF7ECFFFFF751FE014B46
:10889000586808BD6CE4032008B5FFF7E2FFFFF756
:1088A00047FE014BD86808BD6CE4032008B5FFF70C
:1088B000D8FFBDE80840FFF78BBE08B5FFF7D1FF32
:1088C000BDE80840FFF78EBE08B5FFF7CAFFFFF707
:1088D0002FFE014B586908BD6CE40320024B1A6857
:1088E000024B1A60704700BF74DF032090E403203E
:1088F00070474174704708B5007CFEF71DFA20EA06
:10890000E07008BD08B5007CFEF7EEF920EAE070E3
:1089100008BD08B5007CFEF7F7F930EA200028BF53
:108920004FF0FF3008BD08B5007CFEF7E5F930EAEE
:10893000200028BF4FF0FF3008BD007CFEF7ECB9E7
:1089400010B51421044600F088FA204610BD70B519
:10895000457C04460E4625B9007CFEF7EDF900285B
:1089600005DD3146207CBDE87040FEF7B5B92846EC
:1089700070BD000010B50446084611460022626032
:108980004FF47A72A260054A226001222074627458
:108990001A46FEF799F9204610BD00BF98DA0D007F
:1089A000007CFEF7C1B9000038B50C4D296811F004
:1089B000010411D12846FBF776FB68B1084A094B40
:1089C00009482146FFF7D6FF2846FBF771FB074A07
:1089D0000749054800F03CFA034838BD3CE5032050
:1089E00040E50320B8E40320A4E4032064E003206E
:1089F000F1880D0041747047704708B50021007C74
:108A0000FEF7BAF930EA200028BF4FF0FF3008BD6A
:108A100008B50121007CFEF7AFF930EA200028BF3D
:108A20004FF0FF3008BD08B5007CFEF79DF920EA45
:108A3000E07008BD08B5007CFEF78EF920EAE07012
:108A400008BD007CFEF7A8B910B51421044600F05B
:108A500004FA204610BD38B50446007C0D46FEF7EA
:108A600083F9002801DC607C28B12946207CFEF7D0
:108A70008BF920EAE07038BD10B50446002363602E
:108A80004FF47A73A360054B2360012308462174D9
:108A900063741146FEF758F9204610BDC8DA0D0080
:108AA00010B514220446002101F03DFA204610BD05
:108AB00030B50E4D87B001A8FFF7F2FF296811F01D
:108AC000010410D12846FBF7EEFA60B101AA214655
:108AD0000748FFF7D1FF2846FBF7EAFA054A06499F
:108AE000034800F0B5F9024807B030BDC4E50320E3
:108AF000C8E5032064E00320F9890D0008B50C4B9C
:108B000033B1FFF7D5FF03681B699847002809DCDC
:108B1000084B63B1FFF748FF03681B6998470028BB
:108B200003DC08BDAFF30080F2E7AFF3008008BDBF
:108B3000000000000000000008B5FFF7DFFFFDF7B0
:108B4000C3FF014B186008BDF0E503200248034A4B
:108B50000349121A01F0DCB900F4032004F40320E5
:108B6000E0E10D0007B5002300931A466FF077018E
:108B7000FEF78EF903B05DF804FB000007B54388EB
:108B80000A2B08D0502B09D1094B1B683BB103B00D
:108B90005DF804EB1847FFF7E5FF06E000230093BC
:108BA0001A466FF07701FEF773F903B05DF804FB26
:108BB000DCE5032038B5104C104D2368AB42104B58
:108BC0000CBF012200221A7002D0FFF7BFFF256000
:108BD000FDF76AFF044601F0FDFB0A4B13B1204686
:108BE000AFF3008000210748FEF7D0F900210648C6
:108BF000BDE83840FEF742B900F403201E1C279A56
:108C0000E0E50320000000007D8B0D0008B5024B5D
:108C10001B681B68019308BD5C02030008B5024B8A
:108C20001B685B68019308BD5C02030008B5024B3A
:108C30001B689B68019308BD5C02030070B5184E69
:108C4000316811F0010504460AD13046FBF72BFAD2
:108C500030B129461348FFF7BBFA3046FBF728FA34
:108C60001048FFF7BFFA28B1A4F10B03022B01D87B
:108C7000002070BD00F0A0F8FEF75DFF08B1012CE8
:108C8000F6D9FFF791FEFFF78BFE18B1A4F10903A7
:108C9000012BEDD9232C8CBF0020012070BD00BF1B
:108CA000E4E50320E8E50320232838B504460D4613
:108CB0000AD8FF2908D0FFF7C1FF28B1294620466E
:108CC000BDE83840FDF738BF38BD38B504460D461D
:108CD000FDF73AFFFF2810D0062804D84D2323FAC9
:108CE00000F0C30709D42046FFF7A8FF28B12946A2
:108CF0002046BDE83840FDF72FBF38BD10B504460B
:108D0000FDF722FF0438C0B2012808D92046FFF73A
:108D100095FF20B12046BDE81040FDF725BF00209B
:108D200010BD0D2810B504469CBF0E34A4B22046D9
:108D3000FFF784FF50B103212046FDF7F5FE03281D
:108D400004D12046BDE81040FDF726BF002010BD2D
:108D500070B5044614252A46094E002101F0E3F8B7
:108D6000258020253146A5602561284600F08FF832
:108D700031466060284600F08AF8E060204670BD09
:108D8000F0DA0D0070B5044614252A46094E00217C
:108D900001F0C9F8258020253146A56025612846C7
:108DA00000F075F831466060284600F070F8E06029
:108DB000204670BDF0DA0D0030B50E4D296811F077
:108DC000010487B013D12846FBF76DF978B101A8EB
:108DD000FFF7BEFF01AA21460748FEF75BFE2846C3
:108DE000FBF766F9054A0649034800F031F80248E6
:108DF00007B030BDF4E503200CE6032064E0032057
:108E00003D7A0D0010B50E4C2368DB0786B013D4F5
:108E10002046FBF748F978B101A8FFF7B3FF01AA94
:108E200001210848FEF736FE2046FBF741F9064AC5
:108E30000649044800F00CF8024806B010BD00BF17
:108E400020E60320F8E5032064E003203D7A0D00CE
:108E50000B460146184600F0A7BEFBF720B90000FC
:108E6000024B1868BFF35F8F704700BF24E60320F2
:108E700010B5002814BF044601242046FEF7DEF892
:108E800020B9FFF7EDFF08B18047F6E710BDFFF707
:108E9000EFBF08B5FEF70AF9244B1A68D0075CBF8C
:108EA00001221A60224B1A68D1075CBF01221A60A6
:108EB000204B1A68D2075CBF01221A601E4B1A6849
:108EC000D0075CBF01221A601C4B1A68D1075CBF37
:108ED00001221A601A4B1A68D2075CBF01221A607D
:108EE000184B1A68D0075CBF01221A60164B1A682B
:108EF000D1075CBF01221A60144B1A68D2075CBF0D
:108F000001221A60124B1A68D0075CBF01221A6056
:108F1000104B1A68D1075CBF01221A600E4B1A6809
:108F2000D2075CBF01221A60704700BF54E60320DD
:108F300050E603204CE6032048E6032044E60320E5
:108F400040E603203CE6032038E6032034E6032015
:108F500030E603202CE6032028E60320184B1A688D
:108F6000D1075CBF01221A60164B1A68D2075CBF9A
:108F700001221A60144B1A68D0075CBF01221A60E4
:108F8000124B1A68D1075CBF01221A60104B1A6895
:108F9000D2075CBF01221A600E4B1A68D0075CBF73
:108FA00001221A600C4B1A68D1075CBF01221A60BB
:108FB0000A4B1A68D2075CBF01221A60704700BFD3
:108FC00074E6032070E603206CE6032068E60320C5
:108FD00064E6032060E603205CE6032058E60320F5
:108FE000184B1A68D1075CBF01221A60164B1A6829
:108FF000D2075CBF01221A60144B1A68D0075CBF0D
:1090000001221A60124B1A68D1075CBF01221A6054
:10901000104B1A68D2075CBF01221A600E4B1A6807
:10902000D0075CBF01221A600C4B1A68D1075CBFE5
:1090300001221A600A4B1A68D2075CBF01221A602B
:10904000704700BF94E6032090E603208CE60320DF
:1090500088E6032084E6032080E603207CE60320E4
:1090600078E60320244B1A68D0075CBF01221A60FF
:10907000224B1A68D1075CBF01221A60204B1A6884
:10908000D2075CBF01221A601E4B1A68D0075CBF72
:1090900001221A601C4B1A68D1075CBF01221A60BA
:1090A0001A4B1A68D2075CBF01221A60184B1A6863
:1090B000D0075CBF01221A60164B1A68D1075CBF4B
:1090C00001221A60144B1A68D2075CBF01221A6091
:1090D000124B1A68D0075CBF01221A60104B1A6845
:1090E000D1075CBF01221A600E4B1A68D2075CBF21
:1090F00001221A60704700BFC4E60320C0E60320C7
:10910000BCE60320B8E60320B4E60320B0E6032063
:10911000ACE60320A8E60320A4E60320A0E6032093
:109120009CE6032098E6032081F0004102E000BFA6
:1091300083F0004330B54FEA41044FEA430594EA17
:10914000050F08BF90EA020F1FBF54EA000C55EA52
:10915000020C7FEA645C7FEA655C00F0E2804FEA23
:109160005454D4EB5555B8BF6D420CDD2C4480EA05
:10917000020281EA030382EA000083EA010180EA35
:10918000020281EA0303362D88BF30BD11F0004F83
:109190004FEA01314FF4801C4CEA113102D04042B9
:1091A00061EB410113F0004F4FEA03334CEA1333F4
:1091B00002D0524263EB430394EA050F00F0A7800C
:1091C000A4F10104D5F1200E0DDB02FA0EFC22FA07
:1091D00005F2801841F1000103FA0EF2801843FAFB
:1091E00005F359410EE0A5F120050EF1200E012AEC
:1091F00003FA0EFC28BF4CF0020C43FA05F3C0182A
:1092000051EBE37101F0004507D54FF0000EDCF1A2
:10921000000C7EEB00006EEB0101B1F5801F1BD34B
:10922000B1F5001F0CD349085FEA30004FEA3C0C4F
:1092300004F101044FEA445212F5800F80F09A8045
:10924000BCF1004F08BF5FEA500C50F1000041EB49
:10925000045141EA050130BD5FEA4C0C404141EB4D
:10926000010111F4801FA4F10104E9D191F0000F74
:1092700004BF01460020B1FA81F308BF2033A3F1F7
:109280000B03B3F120020CDA0C3208DD02F1140CEE
:10929000C2F10C0201FA0CF021FA02F10CE002F129
:1092A0001402D8BFC2F1200C01FA02F120FA0CFC22
:1092B000DCBF41EA0C019040E41AA2BF01EB04516B
:1092C000294330BD6FEA04041F3C1CDA0C340EDC69
:1092D00004F11404C4F1200220FA04F001FA02F3AC
:1092E00040EA030021FA04F345EA030130BDC4F16A
:1092F0000C04C4F1200220FA02F001FA04F340EA5F
:109300000300294630BD21FA04F0294630BD94F00F
:10931000000F83F4801306BF81F480110134013DF6
:109320004EE77FEA645C18BF7FEA655C29D094EA67
:10933000050F08BF90EA020F05D054EA000C04BFE5
:109340001946104630BD91EA030F1EBF00210020D0
:1093500030BD5FEA545C05D14000494128BF41F06F
:10936000004130BD14F580043CBF01F5801130BDD3
:1093700001F0004545F0FE4141F470014FF000005E
:1093800030BD7FEA645C1ABF194610467FEA655C0F
:109390001CBF0B46024650EA013406BF52EA0335B1
:1093A00091EA030F41F4002130BD00BF90F0000F9F
:1093B00004BF0021704730B54FF4806404F13204DB
:1093C0004FF000054FF0000150E700BF90F0000F94
:1093D00004BF0021704730B54FF4806404F13204BB
:1093E00010F0004548BF40424FF000013EE700BF8B
:1093F00042004FEAE2014FEA31014FEA02701FBF1B
:1094000012F07F4393F07F4F81F06051704792F0EC
:10941000000F14BF93F07F4F704730B54FF4607466
:1094200001F0004521F0004120E700BF50EA0102B1
:1094300008BF704730B54FF000050AE050EA01025E
:1094400008BF704730B511F0004502D5404261EBCE
:1094500041014FF4806404F132045FEA915C3FF40F
:10946000DCAE4FF003025FEADC0C18BF03325FEAA8
:10947000DC0C18BF033202EBDC02C2F1200300FA5D
:1094800003FC20FA02F001FA03FE40EA0E0021FA82
:1094900002F11444C1E600BF70B54FF0FF0C4CF46C
:1094A000E06C1CEA11541DBF1CEA135594EA0C0F22
:1094B00095EA0C0F00F0DEF82C4481EA030621EA5D
:1094C0004C5123EA4C5350EA013518BF52EA033598
:1094D00041F4801143F4801338D0A0FB02CE4FF04A
:1094E0000005E1FB02E506F00042E0FB03E54FF07A
:1094F0000006E1FB03569CF0000F18BF4EF0010E72
:10950000A4F1FF04B6F5007F64F5407404D25FEA6D
:109510004E0E6D4146EB060642EAC62141EA555120
:109520004FEAC52040EA5E504FEACE2EB4F1FD0C62
:1095300088BFBCF5E06F1ED8BEF1004F08BF5FEAE0
:10954000500E50F1000041EB045170BD06F0004692
:1095500046EA010140EA020081EA0301B4EB5C043F
:10956000C2BFD4EB0C0541EA045170BD41F4801137
:109570004FF0000E013C00F3AB8014F1360FDEBF5C
:10958000002001F0004170BDC4F10004203C35DA38
:109590000C341BDC04F11404C4F1200500FA05F3BB
:1095A00020FA04F001FA05F240EA020001F000425C
:1095B00021F0004110EBD37021FA04F642EB0601D2
:1095C0005EEA430E08BF20EAD37070BDC4F10C04FC
:1095D000C4F1200500FA04F320FA05F001FA04F2C0
:1095E00040EA020001F0004110EBD37041F10001AC
:1095F0005EEA430E08BF20EAD37070BDC4F12005B7
:1096000000FA05F24EEA020E20FA04F301FA05F21E
:1096100043EA020321FA04F001F0004121FA04F2C6
:1096200020EA020000EBD3705EEA430E08BF20EA96
:10963000D37070BD94F0000F0FD101F000464000D0
:1096400041EB010111F4801F08BF013CF7D041EA52
:10965000060195F0000F18BF704703F00046520056
:1096600043EB030313F4801F08BF013DF7D043EA27
:109670000603704794EA0C0F0CEA135518BF95EADD
:109680000C0F0CD050EA410618BF52EA4306D1D164
:1096900081EA030101F000414FF0000070BD50EA83
:1096A000410606BF1046194652EA430619D094EA0D
:1096B0000C0F02D150EA013613D195EA0C0F05D1F7
:1096C00052EA03361CBF104619460AD181EA03014B
:1096D00001F0004141F0FE4141F470014FF0000003
:1096E00070BD41F0FE4141F4780170BD70B54FF09E
:1096F000FF0C4CF4E06C1CEA11541DBF1CEA13551E
:1097000094EA0C0F95EA0C0F00F0A7F8A4EB0504FF
:1097100081EA030E52EA03354FEA013100F08880F6
:109720004FEA03334FF0805545EA131343EA1263BF
:109730004FEA022245EA111545EA10654FEA002674
:109740000EF000419D4208BF964244F1FD0404F52D
:10975000407402D25B084FEA3202B61A65EB030589
:109760005B084FEA32024FF480104FF4002CB6EB46
:10977000020E75EB030E22BFB61A754640EA0C00C6
:109780005B084FEA3202B6EB020E75EB030E22BF06
:10979000B61A754640EA5C005B084FEA3202B6EB47
:1097A000020E75EB030E22BFB61A754640EA9C0006
:1097B0005B084FEA3202B6EB020E75EB030E22BFD6
:1097C000B61A754640EADC0055EA060E18D04FEA94
:1097D000051545EA16754FEA06164FEAC30343EA34
:1097E00052734FEAC2025FEA1C1CC0D111F4801F01
:1097F0000BD141EA00014FF000004FF0004CB6E7FA
:1098000011F4801F04BF01430020B4F1FD0C88BF98
:10981000BCF5E06F3FF6AFAEB5EB030C04BFB6EBA3
:10982000020C5FEA500C50F1000041EB045170BD96
:109830000EF0004E4EEA113114EB5C04C2BFD4EBC3
:109840000C0541EA045170BD41F480114FF0000E47
:10985000013C90E645EA060E8DE60CEA135594EAC3
:109860000C0F08BF95EA0C0F3FF43BAF94EA0C0FC6
:109870000AD150EA01347FF434AF95EA0C0F7FF43B
:1098800025AF104619462CE795EA0C0F06D152EA8F
:1098900003353FF4FDAE1046194622E750EA410673
:1098A00018BF52EA43067FF4C5AE50EA41047FF484
:1098B0000DAF52EA43057FF4EBAE12E74FF0FF3CE9
:1098C00006E000BF4FF0010C02E000BF4FF0010CBA
:1098D0004DF804CD4FEA410C7FEA6C5C4FEA430C33
:1098E00018BF7FEA6C5C1BD001B050EA410C0CBF82
:1098F00052EA430C91EA030F02BF90EA020F0020E4
:10990000704710F1000F91EA030F58BF994208BF4A
:1099100090422CBFD8176FEAE37040F00100704707
:109920004FEA410C7FEA6C5C02D150EA013C07D15E
:109930004FEA430C7FEA6C5CD6D152EA033CD3D0A9
:109940005DF8040B704700BF8446104662468C46A3
:109950001946634600E000BF01B5FFF7B7FF0028D6
:1099600048BF10F1000F01BD4DF808EDFFF7F4FFFF
:109970000CBF012000205DF808FB00BF4DF808ED8A
:10998000FFF7EAFF34BF012000205DF808FB00BFAD
:109990004DF808EDFFF7E0FF94BF012000205DF8CF
:1099A00008FB00BF4DF808EDFFF7CEFF94BF012084
:1099B00000205DF808FB00BF4DF808EDFFF7C4FF7D
:1099C00034BF012000205DF808FB00BF4FEA410CC6
:1099D0007FEA6C5C02D150EA013C0AD14FEA430CA9
:1099E0007FEA6C5C02D152EA033C02D14FF00000E6
:1099F00070474FF0010070474FEA410212F5001224
:109A000015D211D56FF47873B3EB625212D94FEAC5
:109A1000C12343F0004343EA505311F0004F23FAAF
:109A200002F018BF404270474FF00000704750EA04
:109A3000013005D111F0004008BF6FF000407047C1
:109A40004FF00000704700BF4A0011D212F500121B
:109A500011D20DD56FF47873B3EB62520ED44FEA86
:109A6000C12343F0004343EA505323FA02F0704706
:109A70004FF00000704750EA013002D14FF0FF3044
:109A800070474FF0000070474FEA4102B2F1E043E7
:109A900024BFB3F5001CDCF1FE5C0DD901F0004CD5
:109AA0004FEAC0024CEA5070B2F1004F40EB830025
:109AB00008BF20F00100704711F0804F21D113F151
:109AC0003872BCBF01F00040704741F480114FEA8A
:109AD0005252C2F11802C2F1200C10FA0CF320FA13
