:02000002D0002C
:1040000000400D0094BE0D00000006000D000501EB
:084010000401D80700000000C4
:044018004CA90D00A2
:1040200009480A49884208B505D0094A824202D0A7
:10403000121A06F069FB0748074A0021121A06F017
:104040008BFB014808BD00BF10E103204CBD0D00F3
:104050002CE2032030E20320F4E7032070B5074E82
:10406000074C05F07DFDA41BA4080025A54200D146
:1040700070BD56F8043B98470135F7E7ECB40D00E6
:1040800024B50D0001F078B908B500F0D1FFBDE806
:10409000084005F027BD04F0FDB804F0FBB804F0BB
:1040A00001B9000008B5034A00210C2003F0B8FF55
:1040B000FEE700BFB17C0D000078B0FA80F0400947
:1040C0007047012303707047014B01221A7070473B
:1040D000F4E3032038B50446006928B185680C2153
:1040E00005F049FE2846F8E7204638BD10B50368BC
:1040F0002F2B044604D9074A00210A2003F090FF21
:1041000023681F2B83BF03F01F03034823604FF076
:10411000A04010BDB17C0D000003005008B504495B
:1041200005F037F918B1034802F0F8FA012008BD8C
:10413000A4A90D001CE3032008B5044905F029F9E2
:1041400018B1034B03221A70012008BDA4A90D0069
:104150009CE3032010B5034B0360044603F0ECFA24
:10416000204610BD98AD0D0010B50446FFF7F2FFD4
:104170002046382105F0FFFD204610BD10B5034B49
:104180000360044602F0AAFA204610BD7CAD0D0083
:1041900010B50446FFF7F2FF2046102105F0EBFDB5
:1041A000204610BD10B50446006808B104F07AF846
:1041B000204610BD08B503F0D5FF20B1BDE808408A
:1041C000002003F0EFBF08BD08B5002003F0F2FFA8
:1041D00028B103F0C7FF80F00100C0B208BD012084
:1041E000FCE70023042203F09DBF10B50021044624
:1041F000084603F005FDD4F8A0400021012003F09B
:10420000FFFCE0B210BD30B500218FB00446084677
:1042100003F0F6FC0FCC6D460FC50FCC0FC50FCCCD
:104220000FC594E8030085E803000021012003F096
:10423000E7FC684601F038FE51EC100B06F092F9ED
:1042400000EE100A0FB030BD30B500218FB004462B
:10425000084603F0D5FC0FCC6D460FC50FCC0FC53B
:104260000FCC0FC594E8030085E80300002101206E
:1042700003F0C6FC684601F03BFE51EC100B06F063
:1042800071F900EE100A0FB030BD002003F038BD08
:104290000EB410B58DB00FAA016852F8044B03920A
:1042A00000232020CDE90403CDE900421E2004AA0A
:1042B00003F0BEFE0DB0BDE8104003B07047000033
:1042C00038B50A4C0A4D2378BFF35B8F13F0010F0A
:1042D00009D12046FFF7F0FE28B103F029FD286040
:1042E0002046FFF7EEFE286838BD00BF34E2032009
:1042F00038E2032037B504689DF818508DF8003077
:104300008DF80450E4683C23A04703B030BD0000A2
:1043100010B50B7892B00C467BB9194902A806F08B
:1043200051FA00238DF80030164B17491B781748B7
:1043300002AAFFF7DFFF12B010BD084606F0BCF975
:10434000C8280ED1124902A806F03CFA05F03DFA41
:10435000104BD861104B01221A70104B00221A70BA
:10436000DFE7204606F0A8F9C928EBD0204606F082
:10437000A3F90B4A0346402102A803F0ABFFD0E7A4
:10438000E4A90D008CE203201BAA0D0040E30320EA
:10439000ECA90D00A0E30320C0E30320FEE203200C
:1043A000FEA90D0013B50D4904F0F3FF002498B1E8
:1043B0000B4B8DF800401B780A4A0B490B48FFF75E
:1043C00099FF4FF4FA6003F0CDFF0948234601221C
:1043D0000A2102F0B1FE012002B010BDA4A90D0017
:1043E0008CE2032028AA0D0070AC0D0040E30320EE
:1043F0007CE3032037B51949044604F0CAFF05469B
:10440000B0B1174B01241C71164B1C7003F0AAFEAF
:1044100010B9012003B030BD00238DF80030124BDD
:10442000124A1B7812491348FFF764FF2046F1E750
:104430001149204604F0ADFF0028EBD0084B1D7158
:10444000084B01241C7003F08DFE0028E1D0064BC0
:104450008DF800501B78094AE4E700BFA4A90D00BD
:10446000A0E30320C0E303208CE2032040AA0D0058
:1044700063AA0D0040E3032051AA0D0053AA0D00CA
:104480002DE9F047C8B08046FFF794FEFFF7FDFE28
:104490004FF0000A814647F22F560027FFF7F5FE3E
:1044A000B0EB090461EB0A05AF4208BFA64205D391
:1044B000FFF78AFE10B903F045FEEFE7FFF784FE31
:1044C000D8F800000A2203A906F036FA00F10C031E
:1044D000DBB2182B48D845B207EE905A264BB8EEFF
:1044E000E70A012483ED050A05F006F8234B1C704A
:1044F00005F0BCF9064605F068F9301A05F096FD9E
:104500001BA3D3E9002305F025FF1D4ACDE90001D7
:104510000A211C4803F0DEFE03F024FE10B32B46F4
:10452000194A1A4D4FF48071002608A803F0D2FEF4
:104530008DF8006016492B78164808AAFFF7DAFEB6
:1045400005F043F90246C31704A805F03BF88DF8BF
:1045500000602B78049A0E490E48FFF7CBFE04A8A2
:1045600004F09EFE204600E0002048B0BDE8F08741
:10457000000000000020AC40A0E30320C0E30320C3
:1045800068AA0D00F4E2032072AA0D008CE2032059
:1045900086AA0D0040E3032030B5C5B00A220068AA
:1045A00003A906F0C9F9C3B25A1E3B2A1FD8114A03
:1045B000114D1248AB71012414700C21104A03F004
:1045C00089FEAB790F4A4FF4807104A803F082FE94
:1045D00003F0C8FD48B100238DF800300A4B0B49A9
:1045E0001B780B4804AAFFF785FE204600E0002058
:1045F00045B030BDC0E30320A0E303202DE103203C
:10460000A2AA0D008BAA0D008CE20320B5AC0D0010
:1046100040E303202DE9F04F234B244C9D68A26911
:104620001B69D3B0D4E90067D4E90289D4E904ABAB
:104630001193109205F0C9F894ED0A7B119B089331
:104640008DED0E7B94ED087B194B109A0A908DED41
:104650000C7BCDE906530992CDE904ABCDE9028983
:10466000CDE90067134A4FF4807112A803F032FEBF
:1046700000238DF80030104B10491B78104812AA07
:10468000FFF738FE0F4B01221A7003F019FB0E4B97
:10469000186005F0ABF80D4B186005F0B3F80C4B43
:1046A000186053B0BDE8F08FA0E30320B8E2032008
:1046B0008EE20320ADAA0D008CE203203DAB0D007D
:1046C00040E30320FEE20320F8E30320ECE20320B2
:1046D000F0E203200000000037B505460024124830
:1046E0000022294601F088FE0F488DED010A01F0F5
:1046F00061FF9DED010A28B90134042CEFD19FED33
:10470000080B0AE0032CFAD0074801F039FF10EE3D
:10471000100A05F09DFC41EC100B03B030BD00BF4A
:10472000000000000000F87F00E3032030B5194DC1
:104730000FCD99B004AC0FC40FCD0FC495E80300A2
:1047400084E8030014490EA803F07AFE0EA803F0D3
:10475000CAFE04460EA803F0CFFE0EA810EE105AB3
:1047600003F0FAFE18AB10EE100A03EB840405F018
:104770006FFCCDE90201284605F06AFCCDE9000195
:10478000064A54F8503C0648402103F0A3FD19B0F6
:1047900030BD00BFB8AD0D00ECE5032058AB0D00F7
:1047A0003CE2032037B5FFF78BFD90F850305C01F9
:1047B000FFF786FD90F8513003F01F03234301A853
:1047C0000193FFF793FC019B012404FA03F3C0F863
:1047D0000835FFF775FD90F850305D01FFF770FD6B
:1047E00090F8513003F01F032B4301A80193FFF70A
:1047F0007DFC019B9C40034BC0F80C4500221A70C5
:1048000003B030BDF4E3032010B5202490B022465D
:104810000021684605F0A0FF224600210DEB0400B0
:104820008DF8054005F098FF00210DEB04008DF890
:10483000254003F063FC41F27003ADF80630084BED
:10484000029341F21003ADF80C30009B002143F4B9
:1048500000736846009303F051FC10B010BD00BF18
:10486000840384032DE9F84F1D48DFF880A04068D9
:1048700000231A46194603F0DDFC03F06BFC4FF4ED
:1048800096744FF0000B40F2E7384FF00009FFF745
:10489000FCFC0546FFF7F9FC461B61EB0B07B9452D
:1048A00008BFB04505D303F05DFC10B903F04AFC26
:1048B000F0E703F057FC20B103F054FC50B9BDE819
:1048C000F88F03F0FDF9CAF8000003F03BFC013C4F
:1048D000DDD1F1E7034A0123D370034A1370EEE7F9
:1048E000ECE50320A0E30320C0E30320D8E7032086
:1048F00008B503F037FC80F00100C0B208BD00002D
:104900002DE9F04385B0002601A8CDE901668DF8B8
:104910000C6003F0F2FEFFF7B8FCB146804643F6A8
:1049200097260027FFF7B1FCB0EB080461EB0905FF
:10493000AF4208BFA64205D3FFF7DAFF10B903F074
:1049400001FCEFE7FFF7D4FF0A48002319461A4697
:10495000406803F077FC084B0022DA70074B012413
:104960004FF4FA601C7003F0FDFC204605B0BDE872
:10497000F08300BFECE50320A0E30320C0E30320A5
:1049800030B5114D114C12492A7820788DB00E2384
:1049900003FB0212009203FB00130E4A282102A817
:1049A00003F098FC2B78237003F0DCFB48B1002364
:1049B0008DF80030084B09491B78094802AAFFF717
:1049C00099FC0DB030BD00BF9CE303203CE3032005
:1049D00039E1032071AB0D008CE203207FAB0D00A9
:1049E00040E303202DE9F347174B184D184A1949A6
:1049F000194800248DF800401B78FFF77BFC2C71D0
:104A0000FFF7D8FBFFF741FC47F22F5882464FF0E3
:104A10000009FFF73AFCB0EB0A0661EB0407B94561
:104A200008BFB04505D3FFF7CFFB10B903F08AFBF1
:104A3000EFE7FFF7C9FB00232B61084B01221A7037
:104A400002B0BDE8F08700BF8CE20320A0E30320A2
:104A500090AB0D0098AB0D0040E30320C0E30320B2
:104A600038B504F0DBFE054604F0ECFE044604F025
:104A7000E1FE231F062B0ED9E31E082B0DD80138AB
:104A80002D1A04D50B2C14BF0020012038BD072D92
:104A900003DD032CF7E70120F8E70020F6E700002C
:104AA00070B52DED028BC8B0054604F08EFE0A22CB
:104AB000044603A9286805F03FFFC3B2022B59D86A
:104AC00043B208EE103AB8EEC88AB0EE480A04F0D5
:104AD00033FD2D4B83ED068A2C4B01221A7018EE04
:104AE000100A05F0B5FA2A4ACDE900014FF48071A9
:104AF00008A803F0EFFB04F04BFE28B1FFF7B0FF6E
:104B0000002834D004F036FD04F0B0FE054604F071
:104B10005CFE281A05F08AFA19A3D3E9002305F0F0
:104B200019FC1C4ACDE900010A211B4803F0D2FB05
:104B300003F018FBC8B1194D19491A4800268DF821
:104B400000602B7808AAFFF7D5FB2246E31704A8DC
:104B500004F038FD8DF800602B78049A1049114854
:104B6000FFF7C8FB04A804F09BFB012003E004F05E
:104B70000DFDC9E7002048B0BDEC028B70BD00BF41
:104B8000000000000020AC40A0E30320C0E30320AD
:104B9000A6AB0D0068AA0D00F4E203208CE203200E
:104BA00086AA0D0040E3032030B585B00D460022F3
:104BB0006946009203F044FAB0B9009C0CB1236935
:104BC00023B90A4A00210A2003F02AFA0023ADF88B
:104BD00006300C23ADF804300423039302952369B7
:104BE00001AA01212046984705B030BDB17C0D00D7
:104BF00007B5072001A9FFF7D7FF0028A8BF019834
:104C000003B05DF804FB0000F0B589B001A90320F2
:104C1000FFF7CAFF002839D1BDF8043007EE903AFB
:104C2000FBEECC7A234D244E0FCD01AC0FC495E89A
:104C30000700FDEEE77A84E80700C6ED027AFFF789
:104C4000D7FF08AB03EB80001C4D50F81C3C1C4AFE
:104C50001C48102103F03EFB2B7834462F461A4E99
:104C6000BBB9FFF7C5FF042813D101232B7003F054
:104C700027F83368C01A154B984219D8A368322B0D
:104C8000CCBF00230123637109B0F0BDFFEE007AB1
:104C9000C8E7FFF7ADFF022805D100233B7003F002
:104CA0000FF83060E3E7FFF7A3FF0328DFD1F4E755
:104CB0000123E8E7E0AD0D00A0E303208DE203202F
:104CC000E8AF0D008EE2032038E3032000BADB00DA
:104CD00038B5046805467CB16368013B63605BB925
:104CE000236820469B689847A368013BA3601BB9D3
:104CF00023682046DB689847284638BD2DE9F043F5
:104D0000604CABB002F0DCFF2368C01A41F287337D
:104D1000984240F2B48002F0D3FF20605A4C002148
:104D20006568084602F06CFF95F800806E6B574D81
:104D30000021012002F064FF2746B8F1000F12D1D4
:104D40007868FFF752FA524A034680210AA803F016
:104D5000C1FA2B78002B73D101232B7002F0B0FF26
:104D60004C4B18606CE002F0ABFF42F20F73801BFB
:104D70009842E5D86068484EFFF745FA10EE100AF1
:104D800005F066F9C6E908016068FFF75DFA10EE04
:104D9000100A05F05DF9C6E90A016068FFF733FA09
:104DA000606810EE106AFFF74FFA0021D4F8048013
:104DB000084610EE107A02F023FF00210120D8F8F7
:104DC000809002F01DFF6068FFF70FFA80462046D2
:104DD00000F0CAFE00210446084602F011FFD4F894
:104DE000B0400021012002F00BFF4846CDE90684C7
:104DF00005F01CF9294B002205F0ACFA05F0B2FBD6
:104E000005F026F9CDE90401384605F021F9CDE990
:104E10000201304605F01CF9214ACDE9000180214C
:104E20000AA803F057FA2B7853B100232B7002F035
:104E300047FF184B1B491A68821A1B48FFF728FACC
:104E400019480AA9FFF724FA03F08CF9B8B1174CF6
:104E500002F036FF2368C01A154B98420FD902F0B2
:104E60002FFF144B20601B788DF8003008A81249E2
:104E70003C230AAA03F036FD09A8FFF729FF2BB04F
:104E8000BDE8F08334E30320C4E303202CE30320D4
:104E9000B7AB0D0098E30320B8E2032000005940AF
:104EA000D1AB0D0002AC0D0024E6032030E303205B
:104EB000BFD401008CE2032022AC0D00F7B5FFF750
:104EC0001DFF244B00225868114603F0ABF908B1CE
:104ED000FFF72CFC204D214F00242E463819FFF7F8
:104EE000FBFB51EC100B05F03DFB07EE900AF4EED6
:104EF000677AF1EE10FA03D605F0AAF8C5E90001C9
:104F00000834182C05F10805E8D1D6E900230C2156
:104F1000CDE900231248134A03F0DCF9D6E9022355
:104F20000C21CDE9002310480E4A03F0D3F9D6E94D
:104F300004230C21CDE900230C480A4A03F0CAF9E6
:104F4000FFF762FE0A4A012313700A4A137003B086
:104F5000F0BD00BFECE50320B8E2032000F403201D
:104F600010E1032026AC0D00A9E1032021E103207C
:104F7000C0E30320E8E2032010B5264CFFF79EFFB4
:104F8000A378012B84BF0023A370E378012B05D9FC
:104F900003F0E8F800283BD00123E3702379D4ED37
:104FA000057A012B84BF00232371A3681D2BCCBF7E
:104FB0000023012363712369BAEE087AFF2B88BFAF
:104FC0000023F4EEC77A88BF2361F1EE10FA06D40D
:104FD000B2EE087AF4EEC77AF1EE10FA01DD0E4B6C
:104FE0006361D4ED067AF5EEC07AF1EE10FA06D4DC
:104FF000B0EE007AF4EEC77AF1EE10FA02DD4FF06F
:105000007E53A3610A23A371044B01221A7010BDC1
:10501000E070C3E7A0E303200000A0C0C0E30320CA
:1050200038B503681446DD682023A847204638BDFC
:1050300030B59D4C2378013B87B0052B33D8DFE892
:1050400013F0E400060097004C009A00BE00974D54
:105050002B792BB1964B1B78022B01D0FFF790FCDC
:10506000944B1B780BB1FFF79DFB6B790BB10423BD
:10507000237004F0C7FBAB7990FBF3F202FB130340
:1050800043B904F0BFFB8C4B1B68984202D003234A
:10509000237008E004F0B6FB28B904F0B3FB864B9C
:1050A0001B689842F3D1854C854801F09DFF237819
:1050B00033B17E4A83480121FFF7B2FF00232370FA
:1050C000814C23783BB13023804A7E48502101F047
:1050D000A8FB0023237007B030BD744D2B792BB192
:1050E000734B1B78042B01D0FFF74AFCFFF78CFDB4
:1050F0006B790BB90223CBE704F067FBEB69C01AAD
:10510000B0F5E15F10D9FFF7ADFB714B714A1B7829
:105110008DF8003002A870493C2303F0E3FB03A89C
:10512000FFF7D6FD0523B3E704F06CFB012803DD90
:10513000EB780BB1FFF7E4FB0021072004F0A9FD99
:10514000FFF730FB04F05EFB3C21C0F13C00414323
:10515000B1F5616F4FF00102A8BF4FF46161914258
:105160004FF00003B8BF1146554801F0E5FF9AE73C
:10517000FFF7A4FED6E74D4D2A792AB14C4B1B7898
:10518000052B01D0FFF7FCFBEB780BB9FFF76AFBAF
:1051900002F0E8FF08B9FFF765FB02F0E3FF40B15A
:1051A00004F024FB08B9FFF71DFCFFF733FA0623D0
:1051B0006EE702F085FD494B1860012368E73B4B21
:1051C0001B792BB13A4B1B78062B01D0FFF7D8FB8C
:1051D000434B1B78002B8DD002F072FD414B1B68B6
:1051E000C01A4AF6C87398427FF65DAF02F068FDB8
:1051F0003A4B3D4A186000238DF80030344B3B4950
:105200001B783B48FFF776F8D7E7284C23792BB17A
:10521000274B1B78012B01D0FFF7B2FB02F050FDAA
:105220002E4B1B6803F5EA4330338342BFF43BAF98
:105230002369032B13DC02F095FF48B100238DF89E
:105240000030234B2B4A1B7823492948FFF752F89B
:105250004FF4FA6003F086F804F0D5F823E704F081
:10526000B4FA02F07FFF48B100238DF80030184BEC
:10527000214A1B7818491E48FFF73CF84FF4FA60A2
:1052800003F070F80023094A0E4823610121FFF75B
:10529000C7FE1A4902A804F04EF802A8FFF782F8E8
:1052A00002A803F0FDFFFEE69CE30320A0E3032039
:1052B0003CE30320F4E30320F0E20320C0E30320F7
:1052C0007CE303201CE30320E8E20320B8E2032090
:1052D0008CE203202EAC0D0043AC0D0078E30320DC
:1052E000FEE20320F8E30320B0B30D0049AC0D004B
:1052F00040E3032062AC0D0076AC0D00A4A90D00C4
:1053000007B5FFF7AFFAFFF7D9FD02F02BFF48B161
:1053100000238DF80030104B104A1B7810491148BB
:10532000FEF7E8FF104A11480023937093681D2B85
:10533000CCBF0023012353710A2393710C4B53619B
:1053400001214FF07E53117011719361FFF768FED8
:1053500003B05DF804FB00BF8CE2032090AC0D00AD
:1053600063AA0D0040E30320A0E303201CE3032015
:105370000000A0C00000000070B50021A8B0082007
:1053800004F076FC0021042004F072FC01210720C7
:1053900004F06EFC01210520002404F069FC0121C9
:1053A000072004F076FCFFF7FDF9A54900944FF0C3
:1053B000FF330122082003F0D5FC04A802F0DAFE36
:1053C00023467D2208A904A803F0F5FF23462246C0
:1053D0009C499D4D9D4ECDE9004408A802F0DAFE9F
:1053E0009B499C48FEF7FDFE9B499C48FEF7F9FE51
:1053F000234602229A499B4802F094FE9A499B4810
:10540000FEF7EFFE9A499B48FEF7EBFE9A499B4850
:10541000FEF7E7FE9A499B48FEF7E3FE9A499B4850
:105420002346022202F07EFE234602229849994832
:1054300002F078FE98499948FEF7D3FE98499948BA
:10544000FEF7CFFE984A9949994803F045F9994AE1
:105450009949974803F040F9984A9949944803F0CC
:105460003BF9984A9849924803F036F9974A984987
:105470008F4803F031F9974A97498D4803F02CF98A
:10548000764A96498A4803F027F9954801F03CF995
:105490002146934801230DF10B0201F077F99DF8A5
:1054A0000B10012900F0B2808D4801F037F98D4AC8
:1054B0008B480423214601F0B4F9012388480DF1FB
:1054C0000B02214601F062F99DF80B30012B00F030
:1054D0009A8001233370FFF74FFDFFF795FB002201
:1054E000114603A8039202F0CBFB039B142B4FF051
:1054F000000240F091802B6901332B617A4B01222D
:105500001A70AB79794A54480C2102F0E3FE7848CE
:1055100001F064FC0021764801F0AFFD95ED060A2C
:1055200004F00AF804F034F920B9714801F043FCA2
:1055300004F034F8FFF794FA002877D004F01AF852
:1055400095ED050A03F0D8FF04F090F9044604F045
:105550003CF9201A04F06AFD37A3D3E9002304F0D4
:10556000F9FE644ACDE900010A214B4802F0B2FE7F
:10557000614A5B483023502101F008F904F036F904
:105580005E4B1860FFF740F9042004F09BFB08B95C
:10559000FFF7B6FE5A4800F02CFF5A49584800F071
:1055A0000CFF5949564800F008FF5849544800F08C
:1055B00004FF04F0B3FB42220146554800F046FACE
:1055C000534800F0FBF902F07BFB524B1860524B42
:1055D00001221A70FFF746F900238DF800304F4B77
:1055E0004F4A1B784F495048FEF784FE33780BB979
:1055F000022333700021072004F04BFB04A803F0C2
:105600004FFE28B070BDFFF77BFE64E720232A46DB
:10561000334801F0BBF85EE7114603A8039202F09D
:105620002FFB039B8C2B7FF46CAF64E703F0AEFF82
:1056300086E700BFAFF30080000000000020AC4010
:10564000C9400D0011430D00A0E303209CE303209B
:105650003CE20320A8AC0D002DE10320AFAC0D000F
:10566000B0E30320BEAC0D0010E10320C9AC0D0077
:10567000A9E10320D3AC0D0021E10320DCAC0D0037
:105680001CE10320E8AC0D00A8E30320F0AC0D0002
:10569000D0E20320FBAC0D00F4E2032002AD0D00CC
:1056A0008EE203200DAD0D001CAD0D001D410D005F
:1056B000AD860D0026AD0D00A5430D0030AD0D00EB
:1056C00039410D0038AD0D00F5430D0045AD0D001D
:1056D00081440D0052AD0D00A14A0D0099450D0009
:1056E0001CE30320FCAD0D00C0E30320A2AA0D00C3
:1056F0007CE3032068AA0D00B8E20320ECE203205B
:1057000000E3032000F4032008F4032010F4032036
:10571000C4E3032098E303202CE303208CE203205E
:1057200060AD0D0043AC0D0040E30320F8B53F4BE6
:105730003F4E404D00241C603F4B01271F7004F07A
:1057400041FA2346224642F6DF5104F043FA04F0C0
:1057500039FA22462346092104F044FA374BB36054
:105760003460B480B471022002F07CFC2A463449D3
:10577000304604F0FBFA2146384602F083FC3946F5
:10578000042002F075FA2F482F49A0F8094003467B
:10579000021D43F8092B9C702C4B43602A46C0E93C
:1057A00003440775047204F0E1FA04F0B7FA284ED6
:1057B0000146304601F01AFA2A462649304604F0DE
:1057C000D5FA04F0ABFA244E014623464FF40052BA
:1057D000304600F08FFF214B33603046204E214988
:1057E0002A4604F0C3FA20494FF40062304602F022
:1057F000CBF81E4B336030461D4E1E492A4604F03E
:10580000B5FA224610211C4C304600F0BFFD2A4656
:105810001A49304604F0AAFA204600F0B1F82A46A8
:1058200020461749BDE8F84004F0A0BA88E20320FA
:105830007CE2032030E203208CE203200000FFFF23
:10584000A5410D00A0E20320D5400D00100003008B
:105850007CE303206B690D001CE303207CAD0D008D
:1058600040E303207D410D0018F4032098AD0D00A6
:1058700000E3032055410D00C4E30320E1630D0064
:1058800049590D00704710B51021044604F073FA11
:10589000204610BD10B5012303748368044643B14C
:1058A000C0689847012363740020BDE8104002F0EF
:1058B000D7B900680028F5D083680BB904F061FA05
:1058C000C368EEE70EB403B503AB002153F8042B15
:1058D000019303F0F0FB02B05DF804EB03B07047F6
:1058E00073B5044608462279A36832B1A3B90B49BF
:1058F00002B0BDE8704003F0ADBB094A267B094DFC
:105900000949647B012E18BF2946CDE900140749D7
:10591000FFF7D8FF02B070BD054AEFE711AE0D00EA
:10592000B0B30D000DAE0D0009AE0D0027AE0D0099
:1059300000AE0D0010B58368044613B10322014682
:105940009847204610BD000010B5054B044640F8AE
:10595000203BFFF7EFFF204600F0BEF9204610BDC8
:10596000F8AE0D0010B50446FFF7EEFF20463021DB
:1059700004F001FA204610BD0368C9B29B681847BD
:1059800038B50B490446002500F0AEF9094B2360F9
:10599000257204F0C3F942232374E06003F0D2FFC0
:1059A000054BE5611C60C4E90505A562204638BDCC
:1059B00008E40320F8AE0D00D0E50320F7B58669B2
:1059C0000746002E38D10420FEF765FB054690B34C
:1059D0001A49142004F0D1F928B1C0E90066C0E9E1
:1059E0000266067446742860A0B1154B1549C0E9DB
:1059F00002374FF40063CDE900030222124B04305A
:105A000002F0EEF830B92B681B7CA3B9012002F03C
:105A100047F9F8E72C6800232B6064B1266836B19B
:105A20003046FFF787FF1021304604F0A4F9142117
:105A3000204604F0A0F9BD6103B0F0BD90B30D00A5
:105A4000455C0D0044AE0D0095580D0010B50123C6
:105A50000372C36804464868586088689860C868DC
:105A6000D860087C18740846227403F02DF920468B
:105A700010BD000038B50546017CC06803F053F93D
:105A8000FD21E868FFF778FFE868002103F052F98C
:105A900030B10F4902460F48FEF7FAFB002038BD2F
:105AA0000222297CE868012303F02BF9C2B2022A02
:105AB00001D00949EFE7E86803685B699847044645
:105AC000E86803685B69984740EA042080B2E6E72B
:105AD00051AE0D0024E6032075AE0D002DE9F8430C
:105AE00006468846017CC068154603F01CF9FF2174
:105AF000F068FFF741FFF068002103F01BF9024650
:105B000038B116491648FEF7C3FB4FF0FF30BDE829
:105B1000F8830446A5421FD92F1B202F28BF20271A
:105B200004EB0709A5EB090253425341317CF068AD
:105B30003A4603F0E6F8C2B2974201D00949E1E7DC
:105B400044442744F06803685B69984704F8010BF4
:105B5000BC42F7D14C46DDE72846D8E79FAE0D00A2
:105B600024E60320BAAE0D000048704708E4032085
:105B700007B582688DF807100AB904F002F9C36806
:105B80000DF10701984703B05DF804FB2DE9F047DC
:105B9000037A8AB00446CBB9254E00F1200560692E
:105BA00003681B69984700281FDD606903685B690B
:105BB0009847C1B23046019100F074FBA36A019985
:105BC000002BECD02846FFF7D3FFE8E7D0F80C8095
:105BD000404603F0B3F82046FFF74CFF2028054667
:105BE00006D830B9404603F0B2F80AB0BDE8F087F5
:105BF00020252A4602A92046FFF770FFA842F1D1CE
:105C0000DFF82C9002AE002704F1200A16F8011BE1
:105C1000484600F047FBA36A23B116F8011C504622
:105C2000FFF7A6FF0137BFB2BD42EFD1DAE700BFF1
:105C300008E4032008B504462046FFF7A7FF01F05B
:105C4000D7FFF9E708B5FFF7F5FF000037B5194CA6
:105C5000194D0821204600F013FD184B23602978C8
:105C6000BFF35B8F11F001010BD128460191FEF7C4
:105C700023FA019928B1124803F068FA2846FEF782
:105C800020FA0F4BE3601123236100232375237750
:105C90000C4A0D4BA26123620C4A0D4905480123B1
:105CA000A38404F063F80B4803B0BDE8304000F073
:105CB0005EB800BFA8E50320FCE3032058AF0D0049
:105CC00000E40320E4AE0D008096980030E203204B
:105CD000C1650D0008E40320704710B50821044693
:105CE00004F049F8204610BD014AC0E90021704780
:105CF00008AF0D000022C0E90F22C0E91322C0E95D
:105D00001722C0E91B220280828082600273028215
:105D1000426102768283026280F824200285C26298
:105D200080F83020426302874264A0F84820426530
:105D3000A0F858204266A0F868204267A0F87820B2
:105D4000C0E91F22C0E92322C0E92722C0E92B2293
:105D5000C0F88420A0F88820C0F89420A0F89820EB
:105D6000C0F8A420A0F8A820C0F8B420704710B54F
:105D70000446FFF7BFFF04F1B800FFF7BBFF0223A3
:105D800084F881310023C4E96233C4E96433C4E98F
:105D90006633A4F8823184F88431A4F8703184F831
:105DA0007231204610BDA1F14103052B02D8A1F1AB
:105DB00037007047A1F16103052B94BFA1F1570093
:105DC000A1F13000704738B5057804462D2D08BF85
:105DD0000134204604F074FC64235843224614F82E
:105DE000013BA3F130010929F8D92E2B0BD15378AF
:105DF000303B092B07D80A2101FB03009378303B85
:105E0000092B98BFC0182D2D08BF404238BD000097
:105E100038B50D46044604F053FC6422134BB0FB26
:105E2000F2F102FB11004343298020460278A2F1DF
:105E30003004092C014600F10100F7D92E2A0BD1BC
:105E40000A480A2411F8012F303A092A04D8B0FB75
:105E5000F4F000FB0233F5E703EB83030133032285
:105E6000B3FBF2F36B6000232B7238BD8096980071
:105E700010B50346044653F81C2F42605A688260EE
:105E80001B7A0373034653F8282F02615A68426154
:105E90001B7A037601F014FF40F201136063238044
:105EA00010BD000000000000D0B500230446437080
:105EB000806804F0ABF80CA3D3E9002304F04AFA9D
:105EC0000646A0880F4604F0B1F80B460246394654
:105ED000304603F05FFF237B13B101F10043194605
:105EE00041EC100BD0BD00BF0000000065CDCD41DE
:105EF000D0B5002304464370406904F087F80CA332
:105F0000D3E9002304F026FA0646208A0F4604F05F
:105F10008DF80B4602463946304603F03BFF237EA0
:105F200013B101F10043194641EC100BD0BD00BF85
:105F30000000000065CDCD4110B583684360044684
:105F400001F0BEFE40F20113E060238010BD10B5E9
:105F500083684360044601F0B3FE40F20113E06041
:105F6000238010BD10B504460846FFF72CFFA06043
:105F700010BD10B50446084604F0A2FBA06010BD99
:105F800010B5C3688360044601F09AFE40F2011325
:105F90006060238010BD10B504460846FFF713FF6C
:105FA000E06010BD10B5C3688360044601F088FE50
:105FB00040F201136060238010BD10B5044608460E
:105FC00004F07EFBE06010BD10B5014604461030C1
:105FD00004F0F8FB01F074FE40F201132062A38488
:105FE00010BD102204F01BBCF8B590F871510446A6
:105FF000002D00F0888090F87211FFF7D4FE94F81D
:10600000731102462046FFF7CEFE94F8703100EB84
:106010000210C0B283426ED1D4F89C310133C4F86F
:106020009C3194F8843123B1D4F894310133C4F80D
:10603000943194F88131E3B3012B2BD104F1F000BA
:10604000FFF77AFF04F58070FFF781FF94F8843141
:1060500004F1B8065BB13046FFF70AFF04F588701B
:10606000FFF78EFF04F59070FFF78AFF05E084F8D4
:10607000B83084F8103184F820310021084601F04E
:10608000BFFD3146B822204604F03EFB002101202E
:1060900001F0B6FDD4F88C619EB3D4F88C31B06AAF
:1060A000996A04F085FB60BB3046FFF78DFF366BC5
:1060B000F2E704F58070FFF74AFF94F8843104F1A9
:1060C000B8068BB13046FFF7D3FE04F59870FFF7A2
:1060D00057FF04F5A070FFF753FF04F5A870FFF712
:1060E00061FF04F5B070BFE784F8B83084F8303150
:1060F00084F84031F1E7D4F898310133C4F898318D
:1061000000252846F8BD90F882216ABB00F5B976D3
:106110006049304604F04CFB20B15F49304604F042
:1061200047FB98B9012384F88131D4F88831C4F849
:106130008C31D4F88C71002FE3D0B86A314604F06A
:1061400037FB002880F29F803B6BF0E753493046D5
:1061500004F02EFB20B15249304604F029FB08B967
:106160000023E0E70223DEE790F88111022924D022
:1061700090F872310BB342EA4112013A282A1CD836
:10618000DFE802F0153C434A4D666B72771B7C1BBF
:106190001B1B1B1B1B1B1B1B1B1B1B1B1B1B1B1B4F
:1061A0001B1B1B1B15353C434A4D545B600000F51F
:1061B000B97100F58070FFF7D5FED4F88C6104F555
:1061C000B977002E9DD0D4F88C31B06A996A04F06A
:1061D000EFFA002895D1F26A94F882319A4290DC65
:1061E00003D139463046FFF7FCFE366BE9E7A3F1F1
:1061F00041004342434184F88431DEE700F1D40199
:1062000004F5B970FFF704FED7E7A3F153014B4241
:106210004B4180F8DC30D0E700F1E001F0E7A3F17A
:1062200057025342534180F8E830C6E700F5B97190
:1062300000F58870FFF7AFFEBFE700F5B97100F514
:106240009070F7E700F5B971F030FFF792FEB4E710
:10625000302B94BF00230123CDE700F5B97100F581
:10626000A870FFF7AAFEA8E700F5B97100F5B070B5
:10627000E0E700F5B97100F59870DBE700F5B9715A
:1062800000F5A070D6E73FF43CAF0023C4F88C3192
:1062900037E700BF10AF0D0016AF0D001CAF0D00AB
:1062A00022AF0D0038B5D0F89031242903F1010355
:1062B00004460D46C0F890313AD090F8833114D896
:1062C0000A291CD00D291AD00D2B9FBF5A1C1B194F
:1062D00084F8832183F8725194F8710198BB94F883
:1062E00070114D4084F8705121E02A2907D02C29E3
:1062F000EAD190F8702182F02C0280F870210E2BE8
:106300004FF0000005D8234483F872012046FFF7C0
:106310006BFE94F88231013384F88231002384F8D3
:106320008331A5F12A035D425D4184F8715138BD86
:1063300000200223A4F8700184F88131A4F88201BE
:1063400084F88401F3E70020F1E713B50B46024619
:10635000D0E900016C4684E8030093E8030082E87A
:10636000030094E8030083E8030002B010BD0000BE
:10637000034B01221A70034B034A1A60704700BF97
:10638000D8E50320D4E5032028AF0D0037B500235E
:1063900043608360C3600361436103838276044684
:1063A0000E200191FDF777FE054610B1019900F02E
:1063B000B3FF2046256003B030BD38B500F11005AD
:1063C0000C460068294601F097F8031E1DBF2B6894
:1063D00023606B68236014BF01200020636038BD18
:1063E00010B50446006810B10E2103F0C4FC20462D
:1063F00010BD006801F078B82DE9F041837E0446B5
:106400000D4616462BB90B781BB99FED570ABDE810
:10641000F081206800F08AFFA37E002B5DD0002E63
:106420005BD1206801F05CF800224421206801F073
:1064300012F840F2EE2001F095FF206800F076FFA0
:10644000A37E002B4ED0002E4CD1206801F048F8DE
:1064500020680022BE2100F0FEFF2B78262B04D1FD
:1064600000222068114600F0F6FF261D04F10D08F9
:106470003746206801F012F806F8010B4645F8D1BE
:106480000821384601F0ACF8237B207698426376E9
:10649000BBD12B78262B47D029D8102B29D0222BE3
:1064A000B3D1227A237902F06002202A36D0402A22
:1064B00037D012B923F0070323716379207940EABA
:1064C000032000B203F0B2FD284B002203F018FEB7
:1064D00004F048F800EE100A99E72068294600F019
:1064E000EDFFA1E72068294600F0E8FFB0E7282B80
:1064F000D6E7E37AA288102B08BFA37A4FEAC2023C
:1065000003BFC3F10C0322F00F029B1813B208BFA4
:106510001BB200EE103ABAEECE0A78E723F003037E
:10652000CAE723F00103C7E7A579284603F07EFDFB
:1065300006466079C01007EE900AF8EEE77A0F463B
:1065400017EE900A03F084FD094B002203F0D8FDFA
:106550002B0654BF074B084B002203F0D1FD3246F7
:106560003B4603F017FCB3E70000C07F0000B03FDC
:106570000000A03F0000F03F0000F0BF000000005E
:1065800008B510EE100A03F063FD08A3D3E9002359
:1065900003F0B6FD044B002203F0FCFB03F0E2FF26
:1065A00000EE100A08BD00BF00004040CDCCCCCCAE
:1065B000CCCCFC3F027E407E131A584258417047B3
:1065C000704710B52821044603F0D5FB204610BDC6
:1065D00010B5044600F11801C06802F0EDFD208AF4
:1065E0000021BDE8104003F054BB10B50446012162
:1065F000008A03F04EFBE068BDE8104002F0C3BD26
:10660000F8B51E4603685B690F4614460546984771
:10661000012E88BF47F04007E86847F0800102F08C
:1066200039FE2644B44206D0E868002102F032FE6A
:1066300004F8010BF6E72B6828469B699847012070
:10664000F8BDF8B51E4603685B690F46144605465B
:106650009847012E88BF47F04007E868394602F0A6
:1066600019FE2644B44205D014F8011BE86802F074
:1066700011FEF7E72B6828469B6998470120F8BD73
:10668000024AC0E900210022027270473CAF0D00AF
:1066900013B5036801AADC680123A0479DF8040034
:1066A00002B010BD38B505460A240F212846FFF771
:1066B000EFFF33284FF0010004D001F053FE013CFE
:1066C000F3D1204638BD10B50446018AC06802F0F7
:1066D00047FD2046BDE81040FFF7E4BF704710B506
:1066E0001021044603F047FB204610BD0368C9B2E1
:1066F0009B68184730B5034DC0E90223C0E900513B
:1067000030BD00BFA8AF0D00406802F0DDBA10B583
:106710000446006802F01BFB204610BD2DE9F04145
:106720008AB004464068019002F008FB1E22002156
:1067300002A8A76804F010F80026EFB123681E2F06
:10674000B84628BF4FF01E08DD6802AA434631460E
:106750002046A847054658B90A480B493246FDF776
:1067600097FD01A8FFF7D3FF28460AB0BDE8F081E6
:10677000A7EB08074644E0E701A8FFF7C8FF01259B
:10678000F2E700BF24E6032074AF0D002DE9F743C4
:106790000446406801900D4616461F4602F0CEFAA8
:1067A000A7B1E168606841F0500102F0C0FA290A1F
:1067B0006068FFF79BFF29466068FFF797FF6068F6
:1067C000002102F0B7FA48B1002400E0012401A83A
:1067D000FFF79DFF204603B0BDE8F083202F217B0B
:1067E0006068B84628BF4FF020080123424641F0B8
:1067F000500102F086FA03F091FA03681B6998478A
:106800004045E1DB06EB080903F088FA03685B69A1
:10681000984706F8010B4E45F6D14544A7EB08070B
:10682000BEE72DE9F74F0446406801900E469046BA
:106830001D4602F083FA4FF00109B9F1000F2AD08A
:106840004DB3E168606841F0500102F070FA310A1E
:106850006068FFF74BFF60683146FFF747FFA5F11F
:106860001E0A4746A6EB080B606817F8011B036871
:10687000013D9B68984755450BEB0706B84601D08C
:10688000002DF1D16068012102F054FA0028D7D020
:106890004FF00009D1E701A8FFF739FF484603B0E0
:1068A000BDE8F08F2DE9F0438BB00E4615468046CB
:1068B000406801901C4602F041FAAE4229D22644BB
:1068C00025448CB11E2C2746D8F8003028BF1E273F
:1068D000F61BD3F8089002AA3B4631464046ED1B12
:1068E000C84748B9002400E0012401A8FFF70FFFC2
:1068F00020460BB0BDE8F083D8F8003002AAD3F8E8
:106900000C9029463B464046C8470028EAD0E41B85
:10691000D7E7E9D9002CE7D0D8F800301E2C27465D
:1069200028BF1E27D3F8089002AA3B4631464046AE
:10693000C8470028D6D0D8F8003002AAD3F80C9067
:1069400029463B464046C8470028CBD03E443D44FC
:10695000E41BDFE74020704700207047802070472D
:10696000FF207047704770477047704710B514217B
:10697000044603F000FA204610BD10B50821044675
:1069800003F0F9F9204610BD10B50821044603F0C4
:10699000F2F9204610BD10B51C21044603F0EBF9B6
:1069A000204610BD2DE9FF410368DB680446984787
:1069B00010220146684603F0CFFE236820469B68FC
:1069C0009847002507462846BD420ED27E1B236805
:1069D000102E28BF1026D3F818806A463346294661
:1069E0002046C04708B13544EEE704B0BDE8F08169
:1069F0004FF48073438140F20113C360002303828C
:106A00007047000008B5064B0360064B436040F238
:106A10000473038100234374FFF7EAFF08BD00BF3E
:106A200088B00D000001020303090A2200F00F00E4
:106A300002FB0300704708B5807AFFF7F5FF00F509
:106A4000FA6008BDC07A00F01F00FFF7EDBF007BC1
:106A500000F03F00FFF7E8BF08B5817B4A060DD57F
:106A600001F01F00FFF7E0FF8B0603D50C2800D0D4
:106A70000C3008BD0C2808BF0020FAE7BDE808402C
:106A800001F03F00FFF7D0BFC07B00F07F00FFF7B1
:106A9000CBBF007C00F07F00FFF7C6BF10B58AB007
:106AA00024220446002101A803F056FE2046FFF7E9
:106AB000C2FFA0F26C7006902046FFF7C3FF0138BA
:106AC00005902046FFF7C3FF04902046FFF7C4FF60
:106AD00003902046FFF7D8FF02902046FFF7D9FF2A
:106AE000019001A801F036FC0AB010BD0A2190FB0C
:106AF000F1F292FBF1F301FB13231B01DBB201FB6B
:106B000012001843C0B27047642310B5044691FBCD
:106B1000F3F000FB1310FFF7E9FFA07210BD10B5F2
:106B200004460846FFF7E2FFE07210BD10B50446C8
:106B30000846FFF7DBFF237B23F03F031843207356
:106B400010BD10B50446481CFFF7D0FF637B23F04F
:106B500007031843607310BD10B504460846FFF7DD
:106B6000C5FFA07310BD10B504460846FFF7BEFF71
:106B7000E07310BD10B504460846FFF7B7FF237C4D
:106B800023F07F031843207410BD37B504466846D0
:106B9000CDE9002303F0A6FD054641692046FFF735
:106BA000B3FF296920460131FFF7B9FFE9682046A4
:106BB000FFF7BCFFA9692046FFF7C3FFA96820467D
:106BC000FFF7CAFF69682046FFF7CDFF29683B2918
:106BD000A8BF3B212046FFF7CDFF03B030BD10B565
:106BE0000446FFF7D2FF637A637410BD054A006163
:106BF000C0E90021044A8260044AC260044A8061FC
:106C000042617047BCB00D000000010364B00D008C
:106C100098B00D002DE9F84F04460F46904699466E
:106C200000260A9B9E4231D26068394602F07BF80A
:106C300008EB06016068FFF759FD6068002102F06B
:106C400079F80546D0B90A9B60689A1B202A4FF054
:106C5000010328BF2022394602F053F809EB060B46
:106C6000054600EB0B0AD34506D0606803685B69F4
:106C700098470BF8010BF6E72E44D2E70246044989
:106C80000448FDF705FB2846BDE8F88F0025FAE724
:106C9000BCAF0D00DCE503202DE9F34101EB030857
:106CA0001E4603689B6805460C4617469847804574
:106CB0000DD82034686800963B46E2B26F21FFF79A
:106CC000A9FFB0FA80F0400902B0BDE8F0810020D1
:106CD000FAE72DE9F34101EB03081E4603689B68C0
:106CE00004460D461746984780450CD860680096C4
:106CF0003B46EAB25721FFF78DFFB0FA80F040091A
:106D000002B0BDE8F0810020FAE77FB51E1E0CBF7F
:106D1000072306230093144602AB0A466F21FFF7B0
:106D200079FF0546A8B99DF8083023749DF809300D
:106D3000E3739DF80A30A3739DF80B3063739DF8DD
:106D40000C3023739DF80D30E3722EB99DF80E3090
:106D5000A372284604B070BD02F07CFDFFF7C6FEAA
:106D6000A072F6E71FB501230A4600936F2103AB1B
:106D7000FFF750FF20B99DF80C0005B05DF804FB4B
:106D80000020FAE708B50321FFF7ECFFC0F340103D
:106D900008BD38B500230C460A4619460546FFF7DC
:106DA000B4FF30B9A37A23B12846BDE83840FFF7D5
:106DB000E9BF002038BD7FB5024601A8FFF722FEDB
:106DC00001A91046FFF7E5FF28B101A8FFF766FE0D
:106DD00007B05DF804FB00200146F9E7D0B5044692
:106DE00086B0406801F070FF02F0D2FCE8B9E37AA7
:106DF0009B071AD52046FFF7DEFF06460F4656EAE8
:106E0000070312D002F0CAFB0A4B0B491B68009320
:106E100032463B4602A802F079FC0848029A08492B
:106E2000FDF736FA02A802F03BFA0123237206B0FE
:106E3000D0BD00BFB8E1032050E60320DCE503200D
:106E4000D6AF0D002DE9F84F0646884691469A4682
:106E500000250A9B9D4229D27068414601F063FFDC
:106E6000706809EB0501FFF741FC0A9B5F1B1F2FB0
:106E700028BF1F270AEB050407EB040B706814F802
:106E8000011B026892689047A345F7D17068012101
:106E900001F050FF044638B1024605490548FDF7A8
:106EA000F7F92046BDE8F88F3D44D2E70024F8E723
:106EB000EBAF0D00DCE503202DE9F34101EB030806
:106EC0001E4603689B6805460C4617469847804552
:106ED0000DD82034686800963B46E2B26F21FFF778
:106EE000B1FFB0FA80F0400902B0BDE8F0810020A7
:106EF000FAE71FB5137C8DF80830D37B8DF8093085
:106F0000937B8DF80A30537B8DF80B30137B8DF813
:106F10000C30D37A8DF80D30937A8DF80E3007232C
:106F200000930A4602AB6F21FFF78CFF05B05DF8B6
:106F300004FB10B588B0044603A80193FFF762FD77
:106F4000019B03A8FFF721FE9DF81C30A27A63F095
:106F50007F038DF81C309DF819306AB143F00803A7
:106F600003AA002120468DF81930FFF7C2FFB0FABE
:106F700080F0400908B010BD03F0F703F0E700000F
:106F8000F0B587B0054602F003FC0446E8B102F014
:106F90001CFCC717024606463B462846FFF7C9FFBA
:106FA0000C4B0D491B68009332463B46044602A831
:106FB00002F0ACFB0948029A0949FDF769F902A8F9
:106FC00002F06EF9204607B0F0BD06490348FDF710
:106FD0005FF9F7E7B8E1032050E60320DCE5032082
:106FE00006B00D001CB00D0037B5457A04469DB9BA
:106FF00002F0CEFB80B10022002369462846CDE98D
:10700000002301F0DFF838B1E37ADB0702D5204630
:10701000FFF7B6FF0123637203B030BD1FB5012334
:107020008DF80C2000930A4603AB6F21FFF70AFF8F
:1070300005B05DF804FBF8B504460D4617461E463C
:10704000FFF790FE00EA0702324329462046BDE8DA
:10705000F840FFF7E3BF1BB11346FF22FFF7EBBF7A
:10706000D243D2B2FAE700294FF000034FF0F70203
:1070700014BF14210D21FFF7DEBF012908B50CD87C
:1070800000294FF0000314BFDF22EF220721FFF792
:10709000D2FFB0FA80F0400908BD0020FCE7F0B54F
:1070A000012B85B006460C4617461D4602D9002026
:1070B00005B0F0BDFFF766FE0028F8D0294630463F
:1070C000FFF7D1FF237C227B8DF80830E37B8DF81E
:1070D00009308DF80C20A37BE27A8DF80A308DF808
:1070E0000D20637B2FB343F08003627C120102F01A
:1070F00070021A43002D4FF006038DF80B20009309
:1071000008BF0A2202AB18BF11226F213046FFF7D9
:1071100099FE044648B9002D4FF001030CBF102220
:10712000202207213046FFF796FFB4FA84F0400989
:10713000BEE703F07F03D8E72DE9F043012B87B0CA
:107140000746894690461E4603D9002007B0BDE891
:10715000F083FFF730FE04460D4654EA0503F4D0F1
:1071600010EB090441EBE97501A8FFF74BFC22463F
:107170002B4601A8FFF733FD3346424601A93846A6
:10718000FFF78DFFE2E738B50446322560685721E6
:1071900001F0C9FD6068012101F0CCFD08B1013D9D
:1071A000F4D138BD2DE9F04104460F46164602EBF6
:1071B0000308B04520D06068572101F0B4FD39467E
:1071C0006068FFF793FA606816F8011B03689B6814
:1071D00098476068012101F0ADFD0137054638B1DF
:1071E000024606490648FDF753F82846BDE8F081F7
:1071F0002046FFF7C8FFDCE70025F6E731B00D00B9
:10720000DCE50320F7B5CF181E46036801929B68A2
:1072100004460D46984787420AD8019A606833466B
:10722000E9B2FFF7BFFFB0FA80F0400903B0F0BD4C
:107230000020FBE7014B024A1A607047DCE503209F
:1072400052B00D0010B503682F2B044604D9074A2D
:1072500000210A2000F0E4FE23681F2B83BF03F007
:107260001F03034823604FF0A04010BDB17C0D0008
:107270000003005037B50446FDF722F82401035DF2
:107280005D01FDF71DF82044437803F01F032B43F5
:1072900001A80193FFF7D6FF019A01239340C0F89C
:1072A0000C3503B030BD37B50446FDF709F82401AD
:1072B000035D5D01FDF704F82044437803F01F03EC
:1072C0002B4301A80193FFF7BDFF019A01239340CF
:1072D000C0F8083503B030BD73B50546FCF7F0FFC4
:1072E0002D01445DFCF7ECFF28446601447804F06E
:1072F0001F04344301A80194FFF7A4FFD0F8103510
:10730000019401A8FFF79EFF019BD0F81005D8401B
:1073100000F0010002B070BD38B504460D462846A5
:10732000002102F0A5FC2580204638BD70B5054639
:1073300001F042FD2888002100F002FD01F03EFD31
:107340007D24013C14F0FF042DD0022000F0B0FC9D
:107350002888FFF7C1FF0028F3D001F02DFD288811
:10736000FFF788FF0121288800F0EAFC01F026FDE4
:107370004FF4F07000F09CFC00F0AAFC00210646DF
:10738000288800F0DDFC462000F092FC2888FFF7FA
:10739000A3FFB0FA80F4304600F0A2FC4FF4CD70A9
:1073A000640900F085FC204670BD70B511F0010540
:1073B000044618D000F08CFC05462088FFF75AFFE1
:1073C0000121208800F0BCFC012000F071FC208825
:1073D000002100F0B5FC284600F082FC3B20BDE80F
:1073E000704000F065BC00F073FC06462088FFF793
:1073F00041FF0121208800F0A3FC412000F058FC4F
:107400002088294600F09CFC304600F069FC0520ED
:10741000E5E738B5044600F05BFC05462088FFF739
:1074200029FF2088012100F08BFC012000F040FCA6
:107430000021208800F084FC0D2000F039FC208819
:10744000FFF74AFF0446284600F04AFC2E2000F0D1
:107450002FFC204638BD2DE9F041044688461646EB
:107460000827012518EA050F14BF01210021204635
:10747000FFF79BFF6D00013FEDB2F3D166B101F064
:107480009BFC2088FFF70FFF2088012100F058FCAB
:10749000BDE8F04101F092BCBDE8F081F8B50746C7
:1074A0000826002501243846FFF7B3FF00B1254325
:1074B0006400013EE4B2F6D12846F8BD70B5002262
:1074C0000C4655210646FFF7C6FF651E073415F822
:1074D000011F00223046FFF7BEFFA542F7D170BD65
:1074E0000022CC21FFF7B7BF002343808380C380F5
:1074F00003814381037370472DE9F04790F80C90A6
:1075000004468846B9F1000F0DD000206081207339
:10751000A31C08F1FF380A3413F8012B08F8012FD7
:10752000A342F9D104E0FFF701FF18B9608120738D
:10753000BDE8F0874A46F0212046FFF78CFF012680
:10754000CA4635462046FFF764FF07462046FFF748
:1075500060FF012F0FD1012827D1402DD5D984F804
:107560000A90B9F1000F01D101232373A378002BF6
:10757000CBD00120CCE7874204EB0A030CD1A27ADE
:10758000AA420ED99A78164214BF0127002767B97C
:10759000082D00D8E572A9469A7822EA06029A7068
:1075A00009E00CBF01270027F1E704EB0A020127DD
:1075B000937833439370394620467600FFF7F5FE03
:1075C00016F0FF0604BF0AF1010A5FFA8AFA05F114
:1075D000010508BF0126BAF1070FEDB2B2D9BCE729
:1075E00030B50246014400208A4213D012F8015BF4
:1075F000082480EA050313F0010F4FEA50001CBF76
:1076000080F08C03D8B2631E13F0FF044FEA5505D7
:10761000EFD1E9E730BD012A034602D10160002025
:107620007047022A04BFD1E90001C3E90001F6E76F
:1076300010B442680346541001EB6200D20748BF01
:107640000A591B685DF8044B48BFD358184700001F
:107650000123F7B580F829300646083000F0D8FA43
:107660000420FCF718FD054698B31B49142002F0CE
:1076700084FB30B10023C0E90033C0E90233037456
:1076800043742860A0B1154B1549C0E902364FF488
:107690000063CDE900030222124B043000F0A0FA8F
:1076A00030B92B681B7CA3B9012000F0F9FAF8E788
:1076B0002C6800232B6064B1276837B13846FEF789
:1076C00039F91021384602F056FB1421204602F009
:1076D00052FB756003B0F0BD90B30D00EF780D0064
:1076E000C4B00D0095580D0047F23051084AC160F2
:1076F000084902600022C0E904120749C161074934
:107700004260C0E908228161028580F82A20704722
:1077100088B10D00597A0D0031760D0017760D00F5
:1077200010B5044B044640F8103BFEF703F9204621
:1077300010BD00BF88B10D0010B5034B03600446B7
:10774000FFF7EEFF204610BDB0B10D0010B50446A6
:10775000FFF7F2FF2046382102F00DFB204610BD56
:10776000806800F05DBA806800F062BA10B5044627
:107770000068FFF7F8FF204610BD13B504460190DE
:10778000FFF7EEFFE36ADC88A4B20CB103F1080452
:1077900001A8FFF7EBFF204602B010BD13B5044669
:1077A0000190FFF7DDFF94F8283043B9E26A012425
:1077B000D38001A8FFF7DAFF204602B010BD0024F5
:1077C000F7E713B504460190FFF7CAFFE36A01A883
:1077D000DC88FFF7CBFF204602B010BD2DE9F04753
:1077E000994686B090F829309DF838A09DF83C80E5
:1077F00004460F46164613B903689B689847314BF9
:107800003846002E08BF1E4603F001F805463046F4
:1078100002F0FDFF284400F10A05AB071CBF25F06C
:10782000030504353346CDE90285CDE9009A2649A2
:1078300026483A46FCF72CFD238E083BAB4212D279
:107840000024204606B0BDE8F087CB88012B36D057
:1078500005A8FFF78BFF236894F828109B69204642
:1078600098470028ECD020460594FFF779FFE16A9D
:10787000228E636B0A44D21AAA42E6D348EA0A0867
:1078800083F80480C3F80090636B03F1080839465D
:10789000404602F097FF404602F0B9FF0130314602
:1078A000404402F08FFF636BE26A1D446563D38836
:1078B0000133D380012405A8FFF758FFC1E7002456
:1078C000F9E700BFB0B30D00D6B00D00E0E503202E
:1078D00008B5044600F11005A3690BB902F051FA8E
:1078E000E36921462846984700F082F9F4E708B595
:1078F000FFF7EEFF68B501F108050646284602F0DD
:1079000086FF01300544284602F081FFF36A01300A
:107910002844C31A13F003031CBFC3F10403C018A7
:1079200068BDF7B504460E460190FFF719FFE76AF8
:10793000FB8807F10805E6B1012B22D9294620462C
:10794000FFF7D8FF054629462046FFF7D3FF228ED2
:107950003A44121A0146A0EB050602D0284602F06E
:10796000E1FE636B9B1B6363FB88013BFB8001268D
:1079700001E0002BE7D101A8FFF7F8FE304603B085
:10798000F0BD0026F7E700002DE9F0470D4604465C
:107990002F461646FFF7A8FE154B57F8082B236015
:1079A000144BE5629A422686984617D1AB889BB263
:1079B000B34213D105EB060A67634FF00009EB8869
:1079C0001FFA89F29BB29A420ED2616B2046FFF7F2
:1079D00091FF5045606309F10109F0D90023C5F812
:1079E00000806763AE80EB802046BDE8F08700BF73
:1079F000B0B10D0061AB9CD110B5D1E9002386B0C8
:107A00000021044604910AB9D90705D5CDE902231E
:107A10000F4B05930F4B049302AB93E803006A46A8
:107A200082E8030094E8030083E8030092E803007F
:107A3000049A84E80300A168A260059A049118469C
:107A4000E168E2600591FDF775FF204606B010BDC4
:107A500031760D0017760D0007B5054B009369468A
:107A6000002310300193FFF7C7FF03B05DF804FB5C
:107A7000A17A0D0013B5044600F022F9636AC01A1A
:107A8000E368984208D3054B00936946002304F14C
:107A900010000193FFF7B0FF02B010BDA17A0D00F6
:107AA0002DE9F04190F82A3086B00446002B64D1CD
:107AB00000F058FB002860D000F002F9636AC01A99
:107AC00040F2F133984258D9236820465B699847C1
:107AD0000546002851D000F10807012384F828301A
:107AE000384602F094FE95F80480CDF80480013009
:107AF0002B682B4900933E1833462A483A46FCF738
:107B0000C7FB2B688DF800803246394602A800F08A
:107B1000E9FE029D6B781BB9012000F023FCF8E719
:107B2000002000F0B7FA20B16B7813B900F00AFB1F
:107B3000FAE72B78012B23D11B491A48FCF7A8FB45
:107B4000236800219B6920469847002384F8283049
:107B500000F0B6F86062039C7CB16368013B63602F
:107B60005BB9236820469B689847A368013BA360E4
:107B70001BB923682046DB68984706B0BDE8F08152
:107B8000E2680A490748FCF783FB094B049304A900
:107B9000002304F110000593FFF72EFFD5E700BF87
:107BA00017B10D00E0E5032038B10D004FB10D0015
:107BB000757A0D00014B024A1A607047E0E5032018
:107BC00076B10D00014B01221A707047E4E50320E5
:107BD00008B5024B1B685B6C019308BD740203007F
:107BE00008B5024B1B685B68019308BD480203009F
:107BF00008B5024B1B68DB68019308BD480203000F
:107C000008B5024B1B68DB69019308BD48020300FD
:107C100008B5024B1B681B6B019308BD48020300AB
:107C200008B5024B1B689B6B019308BD480203001B
:107C300008B5024B1B681B6C019308BD480203008A
:107C400008B5024B1B685B6C019308BD480203003A
:107C500008B5024B1B689B6C019308BD48020300EA
:107C600008B5024B1B68DB6E019308BD4802030098
:107C700008B5024B1B685B6E019308BD340203001C
:107C800008B5024B1B68DB6E019308BD340203008C
:107C900008B5024B1B685B68019308BD180203001E
:107CA00008B5024B1B689B68019308BD18020300CE
:107CB00008B5024B1B68DB68019308BD180203007E
:107CC00008B5024B1B685B69019308BD18020300ED
:107CD00008B5024B1B689B6B019308BD180203009B
:107CE00008B5024B1B68DB6B019308BD180203004B
:107CF00008B5024B1B689B6D019308BD1802030079
:107D000008B5024B1B68DB6D019308BD1802030028
:107D100008B5024B1B685B6E019308BD1802030097
:107D200008B5024B1B689B6E019308BD1802030047
:107D300008B5024B1B681B68019308BD2C020300A9
:107D400008B5024B1B689B68019308BD2C02030019
:107D500008B5024B1B68DB68019308BD2C020300C9
:107D600008B5024B1B681B69019308BD2C02030078
:107D700008B5024B1B685B69019308BD2C02030028
:107D800008B5024B1B689B69019308BD2C020300D8
:107D900008B5024B1B68DB69019308BD2C02030088
:107DA00008B5024B1B681B6A019308BD2C02030037
:107DB00008B5024B1B685B6A019308BD2C020300E7
:107DC00008B5024B1B68DB68019308BD280203005D
:107DD00008B5024B1B689B69019308BD280203008C
:107DE00008B5024B1B68DB69019308BD280203003C
:107DF00008B5024B1B681B6A019308BD28020300EB
:107E000008B5024B1B685B6A019308BD280203009A
:107E100008B5024B1B689B6A019308BD280203004A
:107E200008B5024B1B68DB6A019308BD28020300FA
:107E300008B5024B1B681B6B019308BD28020300A9
:107E400008B5024B1B685B6B019308BD2802030059
:107E500008B5024B1B681B6C019308BD2802030088
:107E600008B5024B1B689B6C019308BD28020300F8
:107E700008B5024B1B68DB6C019308BD28020300A8
:107E800008B5024B1B681B6D019308BD2802030057
:107E900008B5024B1B685B69019308BD64020300CF
:107EA00008B5024B1B689B68019308BD680203007C
:107EB00008B5024B1B68DB68019308BD680203002C
:107EC00008B5024B1B681B68019308BD3002030014
:107ED00008B5024B1B685B69019308BD30020300C3
:107EE00008B5024B1B68DB69019308BD3002030033
:107EF00008B5024B1B681B6A019308BD30020300E2
:107F000008B5024B1B685B6A019308BD3002030091
:107F100008B5024B1B68DB6B019308BD3002030000
:107F200008B5024B1B681B6C019308BD30020300AF
:107F300008B5024B1B685B6C019308BD300203005F
:107F400008B5024B1B681B68019308BD3C02030087
:107F500008B5024B1B68DB68019308BD3C020300B7
:107F600008B5024B1B681B69019308BD3C02030066
:107F700008B5024B1B685B69019308BD3C02030016
:107F800008B5024B1B689B69019308BD3C020300C6
:107F900008B5024B1B68DB69019308BD3C02030076
:107FA00008B5024B1B681B6A019308BD3C02030025
:107FB00008B5024B1B689B6A019308BD3C02030095
:107FC00008B5024B1B681B68019308BD4C020300F7
:107FD00008B5024B1B681B69019308BD4C020300E6
:107FE00008B5024B1B685B69019308BD4C02030096
:107FF00008B5024B1B689B69019308BD4C02030046
:1080000008B5024B1B68DB69019308BD4C020300F5
:1080100008B5024B1B681B6A019308BD4C020300A4
:1080200008B5024B1B685B6B019308BD600203003F
:1080300008B5024B1B685B6D019308BD600203002D
:1080400008B5034B1B68D3F89830019308BD0000B6
:108050006002030008B5024B1B681B68019308BD52
:108060002002030008B5024B1B685B68019308BD42
:108070002002030008B5024B1B685B69019308BD31
:108080002002030008B5024B1B68DB6A019308BDA0
:108090002002030008B5024B1B68DB6C019308BD8E
:1080A0002002030008B5024B1B685B6D019308BDFD
:1080B0002002030008B5024B1B689B6D019308BDAD
:1080C0002002030008B5024B1B68DB6D019308BD5D
:1080D0002002030008B5034B1B68D3F888300193D6
:1080E00008BD00002002030008B5034B1B68D3F84D
:1080F0009430019308BD00002002030008B5034B33
:108100001B68D3F8A830019308BD000020020300CB
:1081100008B5034B1B68D3F8B030019308BD0000CD
:108120002002030008B5024B1B681B68019308BDC1
:108130004402030008B5024B1B685B68019308BD4D
:108140004402030008B5024B1B689B68019308BDFD
:108150004402030008B5024B1B68DB68019308BDAD
:108160004402030008B5024B1B685B69019308BD1C
:108170004402030008B5024B1B68DB69019308BD8C
:108180004402030008B5024B1B681B6A019308BD3B
:108190004402030008B5024B1B685B6A019308BDEB
:1081A0004402030008B5024B1B68DB6A019308BD5B
:1081B0004402030008B5024B1B681B6B019308BD0A
:1081C0004402030008B5024B1B685B6B019308BDBA
:1081D0004402030008B5024B1B68DB6B019308BD2A
:1081E0004402030008B5024B1B685B6C019308BD99
:1081F0004402030008B5024B1B685B68019308BD8D
:108200004002030008B5024B1B689B68019308BD40
:108210004002030008B5024B1B68DB68019308BDF0
:108220004002030008B5024B1B681B69019308BD9F
:108230004002030008B5024B1B685B69019308BD4F
:108240004002030008B5024B1B689B69019308BDFF
:108250004002030008B5024B1B68DB69019308BDAF
:108260004002030008B5024B1B681B6A019308BD5E
:108270004002030008B5024B1B681B6B019308BD4D
:108280004002030008B5024B1B685B6B019308BDFD
:108290004002030008B5024B1B681B68019308BD30
:1082A0001C02030008B5024B1B685B68019308BD04
:1082B0001C02030008B5024B1B689B68019308BDB4
:1082C0001C02030008B5024B1B681B69019308BD23
:1082D0001C02030008B5024B1B68DB69019308BD53
:1082E0001C02030008B5024B1B685B6A019308BDC2
:1082F0001C02030008B5024B1B68DB6A019308BD32
:108300001C02030008B5024B1B681B6B019308BDE0
:108310001C02030008B5024B1B685B6C019308BD8F
:108320001C02030008B5024B1B689B6C019308BD3F
:108330001C02030008B5024B1B68DB6C019308BDEF
:108340001C02030008B5024B1B681B6D019308BD9E
:108350001C02030008B5024B1B685B6D019308BD4E
:108360001C0203000021FFF785BE10B58368044698
:108370000BB901F006FDC3689847A3681BB103223F
:1083800021462046984720461021BDE8104001F0C4
:10839000F2BC10B50446006808B1FFF759FC20464E
:1083A00010BD0B68036013B15A6801325A60704700
:1083B00010B5064C002320462360FFF741FC204601
:1083C000034A0449BDE8104001F0D0BCE8E50320B1
:1083D00030E2032093830D00002240681146FFF72E
:1083E00021BF002240681146FFF73CBF00224068D1
:1083F0001146FFF747BF40680022FFF73BBF4068C8
:10840000002281F00101FFF725BF002340681A46D2
:108410001946FFF717BF002340681A461946FFF7B1
:1084200009BF002240681146FFF7ECBE40680022F9
:108430000221FFF7EFBE002340681A46FFF7DABEBD
:10844000F0B51B4B036000250F4628331826C0E902
:10845000025589B04360324629460446103002F086
:108460007BF978682A462946FFF7DCFE18B9A06038
:10847000204609B0F0BD2946324602A8CDE9005594
:1084800002F06AF902A96846ADF80860FFF7A0FBA0
:1084900010B10123A360EBE7009B019AA360E260A7
:1084A0000BB90223A36002A9204600F0AEF8DFE773
:1084B0000CB20D00084B10B52824224618460021A6
:1084C00002F04AF9054B04804FF0FF32426004226B
:1084D0005A60034A1A6010BDF4E50320ECE503205E
:1084E000D8B10D007047007D704710B528210446B3
:1084F00001F041FC204610BD037D7BB1C369002B18
:108500000CDB07EE903A9FED077AF8EEE77A87EEFC
:10851000870ADFED057A20EE270A7047BFEE000AD2
:10852000704700BF00FF7F470000C842037D63B172
:108530008369B3F1004F08D007EE903A9FED047ABB
:10854000F8EEE77A87EE870A70479FED020A7047D8
:108550000000C84200000000037D7BB1436A002B8D
:108560000CDB07EE903A9FED077AF8EEE77A87EE9C
:10857000870ADFED057A20EE270A7047BFEE000A72
:10858000704700BF00FF7F470000C842037D63B112
:10859000036AB3F1004F08D007EE903A9FED047ADA
:1085A000F8EEE77A87EE870A70479FED020A704778
:1085B0000000C8420000000070B50C1E06460ADA32
:1085C0002D2100F04BFD614205460A22304600F0A5
:1085D00054FD284470BD21460025F6E770B50C46D1
:1085E000054681682046FFF7E7FF2C210646204616
:1085F00000F034FDE96806442046FFF7DDFF304413
:1086000070BDA0F10400FFF7E9BF30B50D4600F1E1
:1086100010040FCD0FC495E8030084E80300012087
:1086200030BD70470020704710B51021044601F09E
:10863000A2FB204610BD08B5FFF7F6FF08BD30B518
:1086400000224FF69C74026084808D888C800C68B8
:10865000858004600A6030BD10B504460068FFF7ED
:1086600021FE204610BD38B5C468F4B12378022B32
:1086700003D104F10C00FFF7EFFF656835B1284620
:10868000FDF758F91021284601F075FBA56835B1B2
:108690002846FDF74FF91021284601F06CFB2046D3
:1086A0001421BDE8384001F066BB38BD10B588B074
:1086B0000446684600F03FFE694604A800F05EFEEE
:1086C00004A8A047044604A800F0EAFD684600F0AC
:1086D000E7FD204608B010BD1FB50023CDE902011B
:1086E000019210241A4669461846ADF80230ADF8DA
:1086F0000040FFF71FFD04B010BD07B50823ADF81B
:10870000003003688DF80230037A8DF803300021C1
:10871000436801936846FFF765FD03B05DF804FB0D
:1087200073B50E46044656F8043B00930D4601A867
:108730003146FFF736FE019A009B6260236001A874
:10874000002301930093FCF7C3FA3046FCF7C0FA0C
:108750002846082101F00FFB204602B070BD826858
:1087600010B50AB901F00DFBBDE81040C368184709
:1087700008B5006800F11001FFF7F1FF08BD82683D
:1087800010B50AB901F0FDFABDE81040C3681847FA
:1087900008B5006800F11001FFF7F1FF08BD000007
:1087A00038B500230446036010200D46FBF773FC28
:1087B00028B10123C0E90133024B0360C56020608A
:1087C000204638BD40B20D0038B5002383608B6869
:1087D00004460D462BB102229847EB68E360AB6874
:1087E000A360204638BD0000F0B589B00468684633
:1087F000FFF725FF4FF00203D4E84F2F002A03D1E3
:10880000C4E8413F0029F7D125D104F10C056946A0
:108810002846FFF714FFBFF35B8F0123637000202E
:1088200004F10803BFF35B8F53E8006F43E80002D5
:10883000002AF9D1BFF35B8F6EB1FFF72BFC78B143
:1088400029463046FFF78BFF3046FDF773F81021BD
:10885000304601F090FA6846FFF7FEFE09B0F0BD21
:10886000314602A8FFF7B0FFE068B4F9105008B134
:1088700001F0B0FF06901020ADF81C50FBF70BFC88
:108880000546E8B1002787601820FBF704FC044682
:1088900088B10146876002A8FDF757FD049BA268D6
:1088A000A360059B049206A9E268E36004F110004E
:1088B0000592FFF7C4FE084BEB60084B2C60AB60E1
:1088C00006A8FFF7C9FE02A8FDF734F800222946E2
:1088D0000348FFF7E7FBB7E771870D00098A0D0032
:1088E0006B830D002DE9F0478AB005469DF848904E
:1088F0000C4617469846FFF735FC07AE824638BB54
:108900004FF62E73059005A93046ADF81830FFF7E5
:1089100096FE1420FBF7BFFB044648B10223037008
:108920000123C0E901AA437031460C30FFF787FEEE
:108930002846214640F8044BFFF732FF3046FFF748
:108940008BFE05A8FFF788FE28460AB0BDE8F08731
:108950000C234FF0000A1420CDE908AA0793FBF777
:108960009AFB014628B1C0E901AA80F800A080F86E
:1089700001A004A80391FFF713FF224B08930820DE
:10898000FBF789FB824628B1039B40F8043B04A90E
:10899000FFF707FD00965FFA89F342463946204605
:1089A000CDF824A0FFF7EEFBB8B9039B5B7803F08A
:1089B000FF0293B94FF69C7305A903A80592ADF881
:1089C0001830FFF711FF05A8FFF746FE05A8099923
:1089D000FFF7A6FE06A8FCF77BF9039B059304A905
:1089E00006A8FFF7DEFC059B069A2B606A60002351
:1089F00006A806930593FCF76BF904A8FCF768F941
:108A0000A2E700BFCD8A0D00022AF8B5054607D0BF
:108A1000032A18D0012A01D10B6803600020F8BD99
:108A200018200E68FBF737FB044650B13146FFF7BC
:108A3000CBFE3069B6F9147008B101F0CBFE2061AD
:108A4000A7822C60EAE70468002CE7D004F110004C
:108A5000FFF702FE2046FCF76DFF1821204601F0CB
:108A60008AF9DBE738B5002383608B6804460D463E
:108A70002BB102229847EB68E360AB68A360204605
:108A800038BD022A70B5044607D0032A12D0012A45
:108A900001D10B680360002070BD14200E68FBF745
:108AA000FAFA054620B13146FFF7DCFF337C2B7420
:108AB0002560F0E70468002CEDD02046FCF73AFF73
:108AC0001421204601F057F9E5E70000F0B589B020
:108AD00004460D4601A81146FFF722FEA4B124B2B8
:108AE0001DB1284601F076FE054601A803A90395AD
:108AF000ADF81040FFF778FE03A8FFF7ADFD02A820
:108B0000FCF7E6F809B0F0BD019D0123D5E84F2F31
:108B1000002A03D1C5E8413F0029F7D1EFD12B73DB
:108B2000BFF35B8F6B702B1DBFF35B8F53E8006F40
:108B300043E80042002AF9D1BFF35B8F002EDED05C
:108B40002046FFF7A7FA074660B105F10C01304651
:108B5000FFF715FE3046FCF7EDFE1021304601F020
:108B60000AF9CCE7314603A8FFF77CFF2B7B8DF891
:108B70001C301020FBF78FFA0546D0B18760142017
:108B8000FBF789FA044678B18760014603A8FDF730
:108B9000DCFB059BA268A360069B0592E268E3608C
:108BA0009DF81C3006922374064BEB60064B2C603C
:108BB000AB6003A8FCF7BEFE002229460348FFF77E
:108BC00071FAC7E791870D00838A0D006B830D0052
:108BD000002240681146FFF745BB0022406811465D
:108BE000FFF750BB40680022FFF744BB40680022FB
:108BF00081F00101FFF72EBB002340681A46194699
:108C0000FFF720BB002340681A461946FFF712BB46
:108C1000002240681146FFF705BB0022406811465C
:108C2000FFF7F0BA406800220221FFF7F3BA0023F1
:108C300040681A46FFF7DEBA024B03225A60024A26
:108C40001A6070471CE603205CB20D007047F8B54F
:108C5000064615460C468F18BC4206D0336814F8F9
:108C6000011B9B6830469847F6E72846F8BD007C14
:108C70000022FFF7BDB8007C0021FFF7C1B8007CDF
:108C80000021FFF7C5B8007C0021FFF7C9B8007CC0
:108C90000021FFF7CDB810B51421044601F06BF8A0
:108CA000204610BD10B54FF47A73044608460021E3
:108CB000C4E90113034B236020741146FFF7C8F881
:108CC000204610BD90B20D000023007C1A461946C4
:108CD000FFF776B87FB500221423CDE90122ADF865
:108CE00004300B788DF808304B680393CB680493FD
:108CF000007C0B7A059301A9FFF7C2F807B05DF875
:108D000004FB1FB5003B8DF800104FF06401039188
:108D100018BF0123694601928DF80830FFF7DAFF8A
:108D200005B05DF804FB007C0022FFF751B8C9B222
:108D3000FFF7F9BF007C0022FFF752B808B5002109
:108D4000007CFFF78DF8B0FA80F0400908BD08B547
:108D50000021007CFFF78CF8B0FA80F0400908BDD4
:108D6000004700002DE9FF4100241D460F469046B4
:108D70000646FFF70DF8A5424FF00403ADF80D408D
:108D80008DF80C308DF80F40A2BF9DF828308DF87B
:108D90000E3003AC0749009443463A463046A8BF1C
:108DA0008DF80D50FEF7ECFFB0FA80F0400904B0EA
:108DB000BDE8F081618D0D00FEF7FABFFEF7F0BF50
:108DC000704710B51821044600F0D5FF204610BDAD
:108DD000F0B5037D062B8DB00E4600F104074FF071
:108DE000000412D000F1080515F8011D0A223046D2
:108DF00000F043F9AF42044419D0002CF4D02E21E6
:108E0000304600F02BF90444EEE72F236A4639463A
:108E10000A208DF80040FFF73BF8684601F0F7FCA8
:108E200033680246DB686946304698470446204668
:108E30000DB0F0BD10B5054B0446112240F8043BBF
:108E4000002101F089FC204610BD00BFB8B20D0022
:108E50000346074A10B543F8042B01F1100251F8FC
:108E6000044B43F8044B9142F9D10A781A7010BDB3
:108E7000B8B20D0010B59DF8084044EA032343EA58
:108E8000024242EA016104234160037510BD13B53B
:108E9000CB7800938B784A780978FFF7EBFF02B024
:108EA00010BD0000014B024A1A60704724E60320FF
:108EB000C4B20D00002340681A46FFF79BB9406812
:108EC00000220221FFF7A6B9002240681146FFF7F1
:108ED00099B9002240681146FFF7A4B90023406801
:108EE0001A461946FFF7A6B9002340681A461946E4
:108EF000FFF7A8B94068002281F00101FFF7AAB985
:108F000040680022FFF7B6B9002240681146FFF71B
:108F1000B9B9002240681146FFF7A4B92DE9F04322
:108F2000002495B016460D460746FFF783FF2146FD
:108F300018220EA8009401F00FFC4023CDE90C3458
:108F400021466B460CAA3046FEF7B2FF04460028C5
:108F500046D1024601216868FFF764F90221804684
:108F600022466868FFF75EF9009E81462146002E82
:108F700036D0002934D17368022B03D00A2B0BD0D2
:108F8000F669F4E7B8F1000F04D07169384604318E
:108F9000FFF77DFF4146F3E7B9F1000F01D14946E4
:108FA000EEE77469102201A801F0D6FB06238DF8C4
:108FB000143001AD04F108031834186859682A46C2
:108FC00003C20833A3421546F7D101A906A807AD8D
:108FD000FFF73EFF0FCD3C1D0FC42B682370DEE76B
:108FE0000098FEF75DFF384615B0BDE8F08300003D
:108FF000024B034A1A6000225A60704728E6032099
:10900000D0B20D00F8B506460D468F180024BD42BB
:109010000CD0336815F8011B9B6830469847031E37
:1090200001DB1C44F3E7002C08BF1C462046F8BDBA
:1090300013B50446084659B1019101F0E8FB2368D5
:109040000199DB680246204602B0BDE8104018478F
:1090500002B010BD08B5FFF7EBFF08BD03689B68C1
:10906000184738B50D210546FFF7F8FF0A210446D9
:109070002846FFF7F3FF204438BD30B58BB00023FE
:109080008DF82430012A98BF0A2209AC0D46B1FBA5
:10909000F2F101FB125303F0FF03092B94BF3033AD
:1090A0003733DBB2AA4204F8013DEFD92146FFF77E
:1090B000BFFF0BB030BD2DE9F04186B000AF0546D3
:1090C0000E46381D142114463B60FFF70BF9132898
:1090D0000ED8391D2846FFF7ABFF04461EB12846BF
:1090E000FFF7BFFF044420461837BD46BDE8F081B6
:1090F00000F1080323F00703E846ADEB030D224619
:10910000411C3B686846FFF7EDF869462846FFF7C3
:109110008FFF0446C546E1E710B50446FCF70AFC9C
:10912000204610BD0348044A04490023836000F030
:109130001DBE00BF30E6032030E2032019910D0070
:109140000021FEF7EDBE0021FEF7F2BE10B5044689
:1091500008462170FEF7C4FE00236360204610BD60
:1091600013B5044600780191FFF7EAFF019940B971
:109170002078FEF7A5FE207802B0BDE81040FFF78A
:10918000E2BF02B010BD0078FFF7DDBF400830B588
:109190001860002418688842E5B206D90134082C0A
:1091A00002D040081860F5E70725024B5B5D13709D
:1091B00030BD00BFFCB20D002DE9F04306468FB074
:1091C00000780D46FFF7BCFF00281BDB3478142223
:1091D000002109A801F0C0FA0B23002209A92046AA
:1091E000ADF82430FEF78CFE9DF82D3013B19DF8BC
:1091F0002C4054B10027B946B84601242B795CB104
:10920000C3B100200FB0BDE8F083DDF830809DF8D9
:1092100034909DF83570F1E7002B35D1AB684345AC
:1092200008D18DF820908DF82170BDF82020AB89F1
:109230009A42E6D00023A9688DF80F300A9804AB53
:109240000DF10F02FFF7A2FF297984B989B9AB6844
:1092500043450ED38DF820908DF82170BDF8202065
:10926000AB899A4205D1049B434502D1C9E7002945
:10927000F9D1002301936B7B00939DF80F202B7B8A
:109280003078FEF745FEBCE7CDE900442346224690
:109290000121F5E708B50078FEF71AFEC0B208BD57
:1092A00010B504460068FEF7FDFF204610BD10B55E
:1092B0000446006808B1FEF7F5FF0023C4E9013356
:1092C000236010BD38B504460D4600680131FEF735
:1092D000F1FF10B1C4E90005012038BD10B50368E5
:1092E000044623B143688B4201D3012010BD2046C0
:1092F000FFF7E8FF0028F9D0A368002BF5D122681A
:109300001370F2E737B50D46114601920446FFF798
:10931000E5FF019A28B92046FFF7C9FF204603B0B0
:1093200030BDA2602946206801F0EEF92268A368EA
:109330000021D154F2E7002313B5C0E900330446FD
:109340008360037341B10846019101F060FA01990D
:1093500002462046FFF7D6FF204602B010BD8842E5
:1093600010B5044605D00B682BB18A681946FFF783
:10937000C9FF204610BDFFF79AFFFAE710B500239A
:109380000446C0E9003383600373FFF7E8FF20461B
:1093900010BD08B582683AB921B10878B0FA80F0FA
:1093A000400900E0012008BD006809B90078F5E730
:1093B00001F0FEF9F2E758B50E462AB121B18468F2
:1093C0009C4202D800230B7058BDE41A013A016890
:1093D000944228BF144619442246304601F01FFA31
:1093E00000233355F0E707B50B46002102460091F4
:1093F00001208C21FEF78CFE03B05DF804FB0146D2
:109400000020FFF7F0BF0020FFF7F9BF10B5094BB0
:10941000094C022200201A60084B2060A080A07135
:10942000A360FEF71FFE2046054A0649BDE810402E
:1094300000F09CBC4CE6032040E603200000FFFF48
:1094400030E20320A5410D002DE9F041154ADFF877
:109450006080D2E90032C01842EB0101124AD2E921
:109460000032C61841EB0207D8E90023BB4208BF0F
:10947000B2428CB013D003A96846CDE90067FEF76D
:1094800059FF089B094D03F26C7303AC08930FCC92
:109490000FC50FCC0FC5C8E9006723682B600CB05F
:1094A000BDE8F08188E6032080E6032058E603202B
:1094B00090E6032008B50020FEF77CFE28B1FEF7F9
:1094C00051FE80F00100C0B208BD0120FCE70000A1
:1094D00008B5FFF7B9FF024B9869013008BD00BF1E
:1094E00058E6032008B5FFF7AFFF024B18690130BB
:1094F00008BD00BF58E60320FAEE087AB4EEE70A8A
:10950000F1EE10FA08B511D4F2EE0C7AB4EEE70AD7
:10951000F1EE10FA0ADCDFED067A60EE277A17EE3C
:10952000900A01F06FF8034BC3E9000108BD00BFCA
:109530000000614588E60320B5EEC00AF1EE10FA9E
:1095400008B511D4F0EE007AB4EEE70AF1EE10FAA5
:109550000ADCDFED067A60EE277A17EE900A01F05A
:1095600051F8034BC3E9000108BD00BF000061458D
:10957000C0E10320034BD3E90001034BC3E9000121
:10958000704700BFC0E1032080E60320024B0020AB
:109590000021C3E90001704780E603201FB50246A1
:1095A0000B4668460021CDE90023CDE90211FEF704
:1095B000B7FB024610B90146FEF784FD05B05DF821
:1095C00004FB000030B504461848D0E900105218DA
:1095D00040EB03031648D0E90010521893B040EB5B
:1095E0000303CDE9002324220DEB0200002101F04A
:1095F000B3F8002509A96846FEF79CFE1622294605
:1096000003A8029501F0A8F802A909A801F02EF814
:1096100002A801F0FCF812AB184402A900F8415C62
:109620002046FFF788FE204613B030BD88E60320B1
:1096300080E603202DE9F04FA5B00746884614A820
:1096400011463F221D4601F0EAF8002314A88DF8C8
:109650008F3001F0DCF804465DBB2A4903A801F015
:10966000B1F814AE002504F1FF3BAB4536D9B14645
:1096700005F1010A19F8013B252B17D173787A2BD4
:1096800014D103A801F0C3F814AB044628181844F9
:10969000ABEB0502B11C01F037F8224603A93046B6
:1096A00001F032F814A801F0B2F804464E465546CF
:1096B000D9E73C2195FBF1F3002BB8BF5B42B3FB2C
:1096C000F1F201FB123300930F4A4FF46163102152
:1096D00003A895FBF3F3FEF7FDFDC2E700212E2260
:1096E00008A8079101F038F8434614AA322107A8C8
:1096F000FEF718FE07A93846FFF71DFE384625B0CD
:10970000BDE8F08F04B30D0006B30D00F0B58DB0C9
:10971000CDE90023129D044615B9194B1D682DB1E2
:10972000184B2846196801F043F838B9DDE90023E1
:109730002046FFF747FF20460DB0F0BD124E0099BE
:10974000124FD6E900325B18019941EB0202D7E9CA
:1097500000011B1841EB0202CDE900320021242256
:1097600003A800F0F9FF03A96846FEF7E3FD32689D
:109770003B6803A9134420462A46FFF75BFFDAE75C
:1097800054E60320B8E1032088E6032080E60320A6
:1097900010B50020FEF7ACFA0446A0B9FEF75AFC5B
:1097A000012810D12046FEF785FC60B9FFF782FE44
:1097B00010B9FEF7C7FCF9E7FFF77CFEBDE81040E3
:1097C0000020FEF795BA204610BD1FB5FFF7E0FF59
:1097D00010220021684600F0BFFF00216846FEF716
:1097E00097FA009805B05DF804FB000008B5FFF794
:1097F000ECFFC117FFF728FE014B986808BD00BFBA
:1098000058E6032008B5FFF7E0FFC117FFF71CFE7D
:10981000014B586808BD00BF58E6032008B5FFF7A4
:10982000D4FFC117FFF710FE014BD86808BD00BF79
:1098300058E6032008B5FFF7C8FFBDE80840C11788
:10984000FFF746BE08B5FFF7C0FFBDE80840C117E7
:10985000FFF748BE08B5FFF7B8FFC117FFF7F4FDE3
:10986000014B586908BD00BF58E6032008B5FFF753
:10987000ACFF034B034A1B6812681344184408BD2D
:1098800088E6032080E60320024B1A68024B1A6028
:10989000704700BFB8E1032054E6032070474174CD
:1098A000704708B5007CFEF783FB20EAE07008BD36
:1098B00008B5007CFEF754FB20EAE07008BD08B54F
:1098C000007CFEF75DFB40EAE07008BD08B5007C57
:1098D000FEF74EFB40EAE07008BD007CFEF758BB87
:1098E00037B5457C04462DB1207C03B0BDE830403F
:1098F000FEF72EBB007C0191FEF75AFB0028019970
:10990000F2DC284603B030BD10B51421044600F047
:1099100032FA204610BD000010B54FF0000C04468E
:10992000084611464FF47A72C4E901C2044A226023
:109930000122207462741A46FEF702FB204610BD15
:1099400038B30D0013B50E4C2178BFF35B8F11F0C7
:10995000010112D120460191FAF7AEFB019960B1E5
:10996000084A094B0948FFF7D7FF2046FAF7A9FB39
:10997000074A0849054800F0F9F9044802B010BD4B
:1099800098E603209CE6032020E70320A4E70320B9
:1099900030E203209D980D0041747047704708B570
:1099A0000021007CFEF724FB40EAE07008BD08B50A
:1099B0000121007CFEF71CFB40EAE07008BD08B501
:1099C000007CFEF70DFB20EAE07008BD08B5007CC6
:1099D000FEF7FEFA20EAE07008BD13B50446007CED
:1099E0000191FEF7FDFA0028019901DC607C20B1AD
:1099F000207CFEF705FB20EAE07002B010BD007C81
:109A0000FEF706BB10B51421044600F0B4F9204659
:109A100010BD000010B54FF47A73044608460021CB
:109A2000C4E90113044B23600123207463741146BD
:109A3000FEF7C6FA204610BD68B30D0010B514221B
:109A40000446002100F088FE204610BD10B5104CE1
:109A500088B003A8FFF7F2FF2178BFF35B8F11F006
:109A6000010111D120460191FAF726FB019958B165
:109A700003AA0848FFF7CEFF2046FAF722FB064A62
:109A80000649044800F072F9024808B010BD00BF52
:109A9000B8E70320BCE7032030E203209D990D00C6
:109AA000014B1860704700BFC8E1032008B50B4B9D
:109AB00043B1FFF7CBFF03681B699847002801DD1E
:109AC000AFF30080064B43B1FFF73CFF03681B690F
:109AD0009847002801DDAFF3008008BD00000000BA
