:02000002D0002C
:1040000000400D0034DF0D00000006000D0005012A
:084010000401DD0500000000C1
:0440180090CD0D003A
:1040200009480A49884208B505D0094A824202D0A7
:10403000121A05F095FD0748074A0021121A05F0EB
:104040009AFD014808BD00BFF4DE032094DD0D0099
:1040500068E0032068E00320F0E7032070B504F077
:10406000C5FB074C074BE41AA40800251E46A542D1
:1040700004D056F8253098470135F8E770BD00BFE9
:1040800084DD0D0044DD0D0001F09EBA08B500F09E
:10409000F3FFBDE8084004F06BBB02F05BBE02F02A
:1040A00061BE02F05FBE0078B0FA80F04009704750
:1040B0000123037070470000014B01221A70704702
:1040C0006CE00320014B01221A707047C0E003200E
:1040D00010B503682F2B044604D9074A00210A2093
:1040E00002F000FD23681F2B83BF03F01F03236032
:1040F00002484FF0A04010BDF5670D0000030050CE
:1041000007B502AB43F8040D1846FFF7E1FF019A2B
:1041100001239340C0F8083503B05DF804FB07B5F0
:1041200002AB43F8040D1846FFF7D2FF019A0123B2
:104130009340C0F80C3503B05DF804FB08B50449A2
:1041400003F011FF18B1034801F066FD012008BD1E
:10415000D9D10D0078E0032008B5044903F003FF2E
:1041600018B1034B05221A70012008BDD9D10D00EA
:10417000B9E0032010B5034B0360044601F014FDC1
:10418000204610BDACCD0D0010B50446FFF7F2FF80
:104190002046102104F089FC204610BD08B50A49CC
:1041A00003F0E1FE002368B1084A094913609360F7
:1041B00053615360074A4B611370074B012018701D
:1041C000064B187008BD00BFD9D10D0030E10320A7
:1041D00070E103204CE103202CE103204DE103209A
:1041E00010B50446006808B102F0BCFD204610BDC1
:1041F00008B502F01FFD20B10020BDE8084002F024
:1042000039BD08BD08B5002002F03CFD28B102F020
:1042100011FD80F00100C0B208BD012008BD37B516
:104220009DF8184023438DF800303C23054603F0E9
:10423000BDF8284603B030BD002002F003BB0000EB
:1042400030B5194D0FCD99B004AC0FC40FCD0FC4CC
:1042500095E8030084E8030014490EA802F01CFE50
:104260000EA802F06CFE04460EA802F0B9FE0EA8DD
:1042700010EE105A02F09AFE18AB10EE100A03EB83
:10428000840404F0DDFECDE90201284604F0D8FEE6
:10429000CDE90001064A54F8503C0648402102F09E
:1042A00081FD19B030BD00BFC0CD0D00A4E10320D9
:1042B000ECCD0D00E0E0032008B50F2004F039FB41
:1042C00004F0ACFE20A3D3E9002304F00DFF05F0B9
:1042D00003FADFED157A07EE100A67EE277A17EE7C
:1042E000900A04F0ADFE0022104B04F049FD0022BC
:1042F0000F4B04F0F9FE05F0A7F904F08FFE002241
:104300000C4B04F0F1FE00220B4B05F017F80022D5
:104310000A4B04F037FD05F097F9094B1861094B7A
:1043200001221A7008BD00BF000080390000E03F84
:1043300000005940000022400000144000004040AE
:1043400030E103202CE103206666666666660A405B
:1043500008B50B4B00221146586802F0C3FC08B1A7
:10436000FFF76EFFFFF7A8FF064803F02BFA064B96
:10437000BDEEC00A012283ED020A044B1A7008BD8B
:10438000A4E10320A8E0032070E103204DE1032015
:1043900010B50D4C236893F8500093F8513003F09A
:1043A0001F0343EA4010FFF7ABFE236893F8500069
:1043B00093F8513003F01F0343EA4010FFF7AFFEBC
:1043C000024B00221A7010BDD8E00320C0E0032089
:1043D000154B1648597999B14FF46173038141F235
:1043E000D833C3804FF48063438141F270038381EB
:1043F000036843F4007343F001030360002111E0FC
:1044000040F2DC53038141F27003C3804FF48063B8
:10441000438141F210038381036843F4007343F046
:104420000103036002F0D4BB70E1032050E10320DC
:1044300038B5384C374DFFF78BFFA378012B84BF7D
:104440000023A370E378012B06D902F0F3FB10B12F
:104450000123EB7000E0E8702379D4ED067A012B9C
:1044600082BF2C4B00221A716379012B82BF294B2A
:1044700000225A71A379012B82BF264B00229A7128
:10448000A268244B1D2AD4BF01220022DA712269BE
:1044900041F270739A4282BF1E4B4FF47A721A61D6
:1044A0006369FF2B88BF1B4BBAEE087A88BF0022D6
:1044B000F4EEC77A88BF5A61F1EE10FA06D4B2EE74
:1044C000087AF4EEC77AF1EE10FA01DD124BA3611F
:1044D000D4ED077AF5EEC07AF1EE10FA06D4B0EE1C
:1044E000007AF4EEC77AF1EE10FA02DD4FF07E5357
:1044F000E361236A0C2B82BF064B00221A62636AB7
:104500000C3B0C2B82BF034B18225A62034B012237
:104510001A7038BD70E103200000A0C04DE10320F7
:1045200008B502F087FB80F00100C0B208BD0000B2
:10453000F8B502F077FBFFF77FFE0025044643F64F
:1045400097260027FFF778FE001B61EB05018F42DD
:1045500008BF864205D3FFF7E3FF10B902F052FB14
:10456000F0E7FFF7DDFF0948002319461A464068C7
:1045700002F0C8FB064B0022DA70064B01244FF410
:10458000FA601C7002F02EFC2046F8BDA4E1032066
:1045900070E103204DE1032038B5084D0024AC60E4
:1045A0002C606C6003F079FF054B064A5C610123C7
:1045B0001370054AE8606C61137038BD30E1032068
:1045C00070E103202CE103204DE1032010B5074CDE
:1045D00002F018F92368C01AB0F57A7F04D302F00C
:1045E00011F92060012010BD002010BD20E1032042
:1045F00008B5FFF7EBFF18B1BDE80840FFF7E6BFCD
:1046000002F000FBF5E7000037B502F00BFB02F00B
:10461000F9F843F69725044602F00CFB40B102F08E
:10462000F1F8001BA84203D8642002F0DBFBF3E79B
:104630000021094B47F23052084602F093F84FF43C
:104640007A7002F0CFFB054B0A221B6801216846F5
:1046500003F0FAFC03B030BD05CE0D00C8E0032026
:1046600038B503F035FF054603F043FF044603F079
:1046700039FF231F062B0ED9E31E082B0DD8013856
:104680002D1A01D50B2C02E0072D06DD032C14BFDB
:104690000020012038BD012038BD002038BD38B5CC
:1046A000046805467CB16368013B63605BB92368BD
:1046B00020469B689847A368013BA3601BB9236809
:1046C0002046DB689847284638BD000010B5194CD5
:1046D000C8B0A369059363690493174B5A690392A1
:1046E000226902929B680193A3680093134A23688E
:1046F0004FF4807108A802F055FB114B11491B784B
:1047000000228DF8002006A808AAFFF788FD07A858
:10471000FFF7C5FF0C4B01221A7002F073F80B4B28
:10472000186003F0C1FE0A4B18602368636048B04C
:1047300010BD00BF30E1032070E1032012CE0D0058
:10474000A4E003206BCE0D004CE10320B4E0032075
:10475000BCE0032010B50B7894B00C4623B91C497B
:1047600004A805F091FC17E0084605F041F8C828B8
:1047700004D0204605F03CF8C9281ED1154904A8EC
:1047800005F082FC03F089FE134B9862134B012263
:104790001A70134B00221A70FFF72AFF114B1249AF
:1047A0001B7800228DF8002002A804AAFFF737FD2D
:1047B00003A8FFF774FF14B010BD204605F018F8E9
:1047C0000A4A0346402104A802F0ECFAE4E700BFDD
:1047D0007CCE0D0091CE0D0070E103204DE1032051
:1047E0004CE10320A4E0032084CE0D00A3CE0D00F5
:1047F0002DE9F041444DDFF840812B6893F87000BB
:1048000093F8713003F01F0343EA4010C4B0FFF780
:1048100077FC01F0F7FF3D4B1A68801A3C4A11699A
:1048200088421C46164622D298F80070FFB91379C8
:104830001BB102F0FFF9002856D1042004F066F8FD
:1048400008B900F0C7F8334B01221A702B6893F8AF
:10485000700093F8713003F01F0343EA4010FFF734
:104860005EFC2D4B00221A7044B0BDE8F08101F0CF
:10487000C9FF2A4F206000233C7888F8003003F0FD
:104880001DFE8442264C04D003F018FE012338702C
:10489000A361A369224F0133A36103F0FEFD2368E6
:1048A000E06001332360A3680133A3603379002BF8
:1048B000C3D002F0BFF90028BFD0BB6800933B68AB
:1048C000184A4FF4807104A802F06CFAFFF790FECA
:1048D000154B16491B7800228DF8002002A804AA67
:1048E000FFF79DFC03A80BE0FFF782FE0E4B104A7A
:1048F0001B7810498DF8007004A8FFF790FC05A8FC
:10490000FFF7CDFE99E700BFD8E0032024E10320A4
:1049100070E103202CE103206CE00320BAE00320C7
:1049200030E10320C0CE0D00A4E00320BBD00D0079
:10493000DDCE0D00E7CE0D00B8E003202DE9F843F1
:104940001F48204D406800231A46194602F0D2F94C
:1049500002F060F94FF4967440F2E7360027FFF753
:104960006BFC4FF000098046FFF766FCB0EB0800D7
:1049700061EB09018F4208BF864205D302F05AF964
:1049800010B902F03FF9EFE702F054F948B102F034
:1049900051F998B10C4A0123D3700C4A1370BDE849
:1049A000F8832B780BB1FFF723FF01F02BFF084BA7
:1049B000186002F027F9013CE9D0D0E7BDE8F883A0
:1049C000A4E103206CE0032070E103204DE103200B
:1049D000E0E503201FB5FFF7B1FFFFF7B9FCFFF7D4
:1049E00007FE02F027F960B1154B16491B7800222B
:1049F0008DF8002002A8144AFFF711FC03A8FFF766
:104A00004EFE124A90681D28CCBF00200120D071B4
:104A10004FF47A70002310610D4893709371906188
:104A200013624FF07E5018230121D0615362094870
:104A300011702C23117101F07DF905B05DF804FBB4
:104A4000A4E0032056CF0D00EDCE0D0070E1032051
:104A50000000A0C078E003201FB50D4903F083FAE1
:104A6000002490B10B4B0C4A1B780C498DF8004088
:104A700002A8FFF7D4FB03A8FFF711FE234601228B
:104A80000A21074801F0E1FD012004B010BD00BF7C
:104A9000D9D10D00A4E0032005CF0D0042D00D00B8
:104AA00088E0032070B586B003A9006806F070FEA8
:104AB000B5EEC00AF1EE10FA35D4F1EE047AB4EE98
:104AC000E70AF1EE10FACCBF012500255DBBDFED52
:104AD000187A184B184E60EE277A0124FDEEE77A1B
:104AE0001C7010EE100AC6ED047A04F0A9FA134AFD
:104AF000CDE900010821124802F054F93379A3B13D
:104B000002F098F888B1FFF773FD0E4B0C4A1B7842
:104B10000D498DF8005004A8FFF781FB05A8FFF7A9
:104B2000BEFD204602E0002000E0012006B070BD7E
:104B300000007A444DE1032070E103201DCF0D00F9
:104B400069DF0320A4E003208CD10D0030B5224999
:104B500085B0044603F007FA0546D8B11F4B01247F
:104B60005C71FFF735FC1E4B1C70FFF741FD02F036
:104B700061F808B901202CE01A4B1B491B78002270
:104B80008DF8002002A8194AFFF749FB03A8FFF798
:104B900086FDEFE71649204603F0E5F9C8B10F4B53
:104BA0005D710F4B01241C70FFF712FCFFF720FD15
:104BB00002F040F80028DDD00A4B0E4A1B780A4963
:104BC0008DF8005002A8FFF72AFB03A8FFF767FD46
:104BD000204605B030BD00BFD9D10D0070E10320E3
:104BE0004DE10320A4E0032056CF0D0027CF0D0098
:104BF0003ECF0D0040CF0D0030B5204985B00446B2
:104C000003F0B1F90546C8B11D4B01241C711D4BC1
:104C10001C70FFF7EDFC02F00DF808B901202AE046
:104C2000194B1A491B7800228DF8002002A8184A57
:104C3000FFF7F5FA03A8FFF732FDEFE71549204625
:104C400003F091F9B8B10E4B1D710E4B01241C708D
:104C5000FFF7CEFC01F0EEFF0028DFD00A4B0E4A32
:104C60001B780A498DF8005002A8FFF7D8FA03A86C
:104C7000FFF715FD204605B030BD00BFD9D10D00AE
:104C800070E103204DE10320A4E0032056CF0D0086
:104C90005BCF0D003ECF0D006CCF0D00000000007B
:104CA0002DE9F043CDB00446FFF7A2FAFFF7C4FAAE
:104CB0000027064647F22F584FF00009FFF7BCFACD
:104CC000801B61EB0701894508BF804505D3FFF7CD
:104CD00099FA10B901F096FFF0E7FFF793FA0A226C
:104CE00005A9206806F0FAFD00F10C03DBB2182BD1
:104CF00058D844B207EE904A2F4BB8EEE70A83ED3E
:104D0000060A03F0A3FA2D4B01221A7003F090FA61
:104D1000054603F0C2FB281A04F080F924A3D3E966
:104D2000002304F00BFB264ACDE900010A212548A7
:104D300002F038F82346244A4FF480710CA802F0A0
:104D400031F8FFF755FC01F075FF60B11F4B2049AA
:104D50001B7800228DF8002008A80CAAFFF75FFA44
:104D600009A8FFF79CFCFFF743FC01F063FFB8B113
:104D700003F093FB014608A803F0B8FA089B0393DD
:104D8000124B13491B7800228DF8002006A8039AC5
:104D9000FFF745FA07A8FFF782FC08A803F06FF8B1
:104DA000012000E000204DB0BDE8F083AFF30080AB
:104DB000000000000020AC4070E103204DE1032022
:104DC00081CF0D006DE003208BCF0D00A4E0032008
:104DD000F2D00D0010B5C6B00A2203A9006806F093
:104DE0007DFD172803461DD8114A1062114A01247F
:104DF0004FF48071147006A80F4A01F0D3FFFFF73B
:104E0000F7FB01F017FF78B10C4B0D491B7800221E
:104E10008DF8002004A806AAFFF701FA05A8FFF7FD
:104E20003EFC01E0002000E0204646B010BD00BF7F
:104E300070E103204DE103209FCF0D00A4E003208B
:104E4000F2D00D0010B5C6B00A2203A9006806F022
:104E500045FD182803461DD8114A5062114A012405
:104E60004FF48071147006A80F4A01F09BFFFFF702
:104E7000BFFB01F0DFFE78B10C4B0D491B7800221F
:104E80008DF8002004A806AAFFF7C9F905A8FFF7C6
:104E900006FC01E0002000E0204646B010BD00BF47
:104EA00070E103204DE10320B3CF0D00A4E0032007
:104EB000F2D00D0030B5274985B0044603F053F811
:104EC00028B92549204603F04EF800283FD0214953
:104ED000204603F048F8054640B1204B1A791C469D
:104EE00012B101F0A7FE98B901230CE01A4920463F
:104EF00003F039F840B1194B1A791C4612B101F090
:104F000099FEA8B90023A371154B012018701EE06B
:104F1000FFF76EFB134B14491B7800228DF800201D
:104F200002A8124AFFF77BF903A8FFF7B8FBDBE7FB
:104F3000FFF75EFB0B4B0E4A1B780B498DF80050B8
:104F400002A8FFF76CF903A8FFF7A9FBDAE705B0A1
:104F500030BD00BFD9D10D003ECF0D0070E1032060
:104F60004DE10320A4E0032056CF0D00CACF0D0071
:104F7000D4CF0D0030B5164D164C17492A7820783D
:104F80008FB00E2303FB0212009203FB0013134A9F
:104F9000282104A801F006FF2B78237001F04AFEB7
:104FA00070B1FFF725FB0E4B0E491B7800228DF8E0
:104FB000002002A804AAFFF732F903A8FFF76FFB4D
:104FC00003F092FB04A902F002FF0FB030BD00BF56
:104FD000B9E00320B0E00320F4DE0320E6CF0D00AB
:104FE000A4E00320F4CF0D002DE9F04385B0FFF7D6
:104FF000FFFA1C4B1C4A1B781C491D4C002502A8BB
:105000008DF80050FFF70BF903A8FFF748FB257157
:10501000FFF7EEF8FFF710F90027064647F22F5882
:105020004FF00009FFF708F9801B61EB0701894584
:1050300008BF804505D3FFF7E5F810B901F0E2FDA0
:10504000F0E7FFF7DFF863791BB9094B9B68462B44
:1050500001DC0123A371074B01221A7005B0BDE8E2
:10506000F08300BFA4E0032005D00D000DD00D009B
:1050700070E103204DE10320F0B5A34C2378013B00
:1050800089B0052B00F2E081DFE813F06C01060027
:1050900063009E00E0000D019C4D2B792BB19C4BD1
:1050A0001B78022B01D0FFF765FF9A4B1B780BB1E1
:1050B000FFF76EF9984B1B780BB1FFF799FB974BF5
:1050C000974F596869B11A68521A1A6000225A61DA
:1050D0009A615A6001233B7003F0E6F908B9FFF7C3
:1050E0005BFA904E33783BB12C23884A8E480121DD
:1050F00000F020FE002333703B782BB11C23874A3D
:105100008948502100F016FE00233B703370AB79C4
:105110004BB101F077FB854B1B68C01A844B1B68B1
:10512000984200F2968103F0BFF9824B1B689842C7
:105130001CBF0523237003F0B7F96B6A984280F215
:105140008B8103F0B1F9714B1B6A9842C0F28481E4
:105150007AE16E4B1A791D462AB16D4B1B78032BF1
:1051600001D0FFF707FF0D2002F012FC724B1B6805
:1051700093F8C00093F8C13003F01F0343EA4010D6
:10518000FEF7BEFF654B1B680BB10523B9E0EB785A
:105190000BB1FFF7CDF90021072003F09EFBFFF7CD
:1051A000F7F803F07AF94FF4616390FBF3F101FB38
:1051B0001300191AB1F5616F4FF000034FF00102AF
:1051C000A8BF4FF461611FE1504D2B792BB1504BBB
:1051D0001B78042B01D0FFF7CDFE4F4B1A781E46EB
:1051E000002A40F03181EB780BB1FFF7A1F9504B69
:1051F0002A691A6003F051F90546FFF7C9F84F4BC9
:105200000D221B68ADF816204FF46162029395FBE6
:10521000F2F302FB1350101A9042A8BF1046012768
:1052200001900DF1150300973A460DF1160106A8FD
:105230008DF8157002F046FF33782BB1404B1F708C
:1052400001F0E0FA394B186002235AE02F4D2B7918
:105250002BB12F4B1B78052B01D0FFF78BFEEB7882
:105260000BB9FFF76BFB01F0E5FC60B103F01CF933
:105270002B6A984201D1FFF7B7FEFFF769F8FFF7F5
:1052800025FA062304E001F0BDFA2E4B1860012335
:105290002370AB79002B00F0D7802B4800F0E6FF9D
:1052A00003F01AF8D0E0194B1B792BB1184B1B787F
:1052B000062B01D0FFF75EFE244B1B781BB91C4B5D
:1052C000234A1A60BCE701F09DFA224B1B68C01A02
:1052D0004AF6C873984240F2B78001F093FA194B2E
:1052E0001860FFF785F91C4B1C491B7800228DF8CC
:1052F000002006A81A4AFEF792FF07A8FFF7CFF989
:1053000001232370A0E000BFB9E0032070E1032077
:10531000B0E00320C0E003206CE0032030E1032074
:105320002CE103204DE1032078E00320DCE00320A2
:10533000C4E00320BCE00320D8E00320C8E0032041
:10534000B8E0032028E1032088E003204CE103209B
:10535000905F0100B4E00320A4E003201BD00D0007
:1053600011CE0D003D4C23792BB13D4B1B78012B09
:1053700001D0FFF7FFFD01F045FA3A4B1B6803F53A
:10538000EA43303398425FD96369032B18DCFFF797
:105390002FF901F04FFC60B1334B34491B780022E8
:1053A0008DF8002006A8324AFEF739FF07A8FFF75C
:1053B00076F94FF4FA6001F015FD02F042FE43E089
:1053C00003F06BF8254B2B4D9B6AC01AB0F5E15FDB
:1053D0001ED9FFF70DF901F02DFC60B1224B2349D6
:1053E0001B7800228DF8002006A8234AFEF717FF3D
:1053F00007A8FFF754F94FF4FA6001F0F3FC00231B
:10540000012263612A700A211C4801F01EF91BE089
:10541000FFF7EEF801F00EFC60B1134B13491B7857
:1054200000228DF8002006A8154AFEF7F8FE07A80E
:10543000FFF735F94FF4FA6001F0D4FC0023636103
:1054400001232B70FFF7E0F80C4801F037F809B0A2
:10545000F0BD0423237066E6032352E770E10320C6
:10546000B0E0032028E10320A4E0032048D00D0091
:1054700034D00D004DE103204ED00D0088E0032014
:1054800068D00D000000000030B52DED028BCDB0CE
:10549000054603F002F80A22044605A9286806F02A
:1054A0001DFAC3B2022B67D840B207EE900AB8EEDD
:1054B000E78AB0EE480A02F0E5FE354B83ED078A35
:1054C000344B01221A7018EE100A03F0B9FD324A6B
:1054D000CDE900014FF480710CA801F063FCFFF7E7
:1054E00087F802F0B9FF38B1FFF7BAF810B102F04F
:1054F000E3FE01E002F0EAFE02F09AFE054602F049
:10550000CCFF281A03F08AFD1FA3D3E9002303F080
:1055100015FF224ACDE900010A21214801F042FC91
:1055200001F088FB60B11F4B1F491B7800228DF8EA
:10553000002008A80CAAFEF772FE09A8FFF7AFF832
:10554000FFF756F801F076FBC0B1214608A802F03B
:10555000CDFE089B0393134B13491B7800228DF853
:10556000002006A8039AFEF75AFE07A8FFF797F84F
:1055700008A802F084FC01E0002000E001204DB00A
:10558000BDEC028B30BD00BF000000000020AC402D
:1055900070E103204DE1032087D00D0081CF0D0085
:1055A0006DE00320A4E00320F2D00D0000230222CE
:1055B00001F018BB0023042201F014BB024601488D
:1055C00001F0D3BD3F710D002DE9F0430021ADB0D6
:1055D000082003F071F90021042003F06DF9012186
:1055E000072003F069F90121052003F065F9AA4FAE
:1055F000AA4CDFF8808303210D2003F05DF901211F
:105600000C2003F059F93B6893F8C00093F8C130BF
:1056100003F01F0343EA4010FEF781FD01210B2038
:1056200003F04AF93B6893F8B00093F8B13003F007
:105630001F03002543EA4010FEF762FDFEF7A8FEB7
:105640004FF0FF33012296490095082002F078F9C7
:1056500004A801F0F7FA2B467D220CA904A802F059
:1056600094FC2B462A468F49019500950CA801F021
:10567000F9FA8D498D48FFF799FF8D498D48FFF75D
:1056800095FF8D498D48FFF795FF04F114018C4873
:10569000FFF78CFF8B498C48FFF788FF8B498C48BC
:1056A000FFF788FF04F108018A48FFF77FFFA3791D
:1056B00089485B1B2CAE18BF012306F8903D0122E0
:1056C0002B46314601F08EFA04F120018348FFF7A2
:1056D0006DFF04F124018248FFF768FF8149824889
:1056E000FFF768FF81498248FFF760FF81498248E0
:1056F000FFF760FF81498248FFF760FF81498248D8
:10570000FFF75CFF81498248FFF758FF81498248D3
:10571000FFF754FF81498248FFF750FF81498248D3
:10572000FFF74CFF81498248FFF748FF81498248D3
:10573000FFF744FF81498248FFF740FF81498248D3
:10574000FFF73CFF81498248FFF738FF81498248D3
:10575000FFF734FF814800F055FA01230DF10F02E5
:1057600029467E4800F090FA9DF80F30022B1AD09F
:105770007A4800F051FA0423794A7848294600F023
:10578000D9FA01230DF10F022946744800F07CFA82
:105790009DF80F30022B03D0012388F8003008E079
:1057A000FFF718F905E02C23224601216B4800F091
:1057B0006BFA0025FEF73CFE2A462946304608953E
:1057C00001F008F8089B142B00F053812A46294663
:1057D0003046089500F0FEFF089B8C2B00F04981B5
:1057E000D4ED047AF8EEE77A17EE900A03F028FC7D
:1057F0005C4B002203F0A2FD5B4ACDE900010821C9
:10580000384801F0CFFA594800F040FD00215748D0
:1058100000F091FE94ED070A02F034FD02F01CFE48
:1058200020B9524800F022FD02F056FDFEF718FFA5
:1058300010B102F041FD01E002F048FD94ED060ACE
:10584000DFF8349102F002FD02F0F2FC054602F0AE
:1058500024FE281A03F0E2FB0DA3D3E9002303F092
:105860006DFD114D424ACDE900010A21214801F0A8
:1058700099FA1C232A465021384800F005FA2B6873
:10588000002B7BD0E86802F0AFFC79E0AFF300803A
:10589000000000000020AC40D8E0032070E10320AD
:1058A000C5400D0055470D0030E1032098D00D0094
:1058B00038E10320A4D00D00E0E00320AFD00D00BC
:1058C000B6D00D0040E10320C1D00D0064DF0320FD
:1058D000CDD00D00D5D00D00E0D00D0075D10D005C
:1058E000EDD00D0069DF03208CD10D0044E10320D1
:1058F000F7D00D006DE00320FED00D003D410D00FE
:1059000009D10D009D410D0013D10D00594A0D0024
:105910001FD10D0059410D0029D10D00B54E0D00CC
:1059200031D10D004D4B0D003ED10D00F94B0D0056
:1059300049D10D00A14C0D0056D10D0089540D0028
:1059400063D10D00D54D0D0071D10D00454E0D00F8
:105950007ED10D00A54A0D0088D10D0078E003200E
:10596000E8CD0D0000408F401DCF0D0088E00320E2
:1059700081CF0D00B9E00320BCE0032002F094FDCC
:10598000C9F8000002F0B0FE81463F4800F06EFC0E
:105990000146304602F0AAFC0899484602F017FA80
:1059A000304602F06CFA02F09FFE814602F040FCA5
:1059B0000146304602F09AFC0899484602F007FA80
:1059C000304602F05CFAFEF703FD042002F09EFF71
:1059D00008B9FEF7FFFF02F07BFD8146E86802F0A0
:1059E0000BFC814510D0FEF7D7FD637963B1274BDF
:1059F0009B794BB92649304602F088FA3046FFF7CA
:105A000059FA304602F03BFA02F04EFD636A1F4D30
:105A1000984217DA02F048FD2B6A984212DB002305
:105A2000009301224FF0FF331A490D2001F088FF47
:105A3000EB7813B101F0FEF810B3FEF789FC164BBA
:105A4000164A1A603B6893F8B00093F8B13003F03F
:105A50001F0343EA4010FEF762FB98F8003013B9C9
:105A60000F4B02221A7004A802F009FA2DB0BDE80B
:105A7000F0836369013363610A4B01221A70AFE658
:105A8000FEF75CFFD9E700BF88E0032070E1032048
:105A9000D9D10D00B9400D00C4E00320905F010092
:105AA000B9E003204DE10320F8B5314B314D324EC2
:105AB00000241C60314B01271F7000F0CBFE304BDF
:105AC000186002F0BFFE2346224642F6702102F023
:105AD000C1FE02F0B7FE22462346022102F0C2FEBA
:105AE0004FF6FF736B812C60AC80AC712C8102206F
:105AF00001F010F832462349284602F0D1FF224D2A
:105B00002146384601F01EF83946042000F052FEC6
:105B10002146284601F016FE28461C4D1C493246F7
:105B2000202702F0BDFF3A462146284604F023F81C
:105B30006F7102F049FF174D0146284600F0E4FA64
:105B400032461549284602F0ABFF02F03DFF134DE7
:105B5000234601464FF40052284600F049F8104B06
:105B60002B60324628460F49BDE8F84002F098BF46
:105B7000C8E00320CCE0032068E00320A4E0032079
:105B8000D8E00320E1410D00A8E0032050E103200C
:105B900063770D0088E003207B5E0D0078E0032032
:105BA000ACCD0D0075410D00704710B510210446B5
:105BB00002F07BFF204610BD0368C9B29B681847FE
:105BC0000EB400B58CB00DAA202352F8041B03922A
:105BD0008DE8060004930168002304AA1E200593A3
:105BE00000F088FF0CB05DF804EB03B070470000D4
:105BF00030B5034D056041608260C36030BD00BFB9
:105C000060D20D00406801F041BE10B50446006846
:105C100001F08CFE204610BD2DE9F0418AB0074608
:105C20004068019001F079FE1E22002102A8BE68A2
:105C300003F0A1FF0025DEB13B681E2EB04628BF51
:105C40004FF01E08DC6802AA434629463846A047A2
:105C5000044648B92A460A490A48FFF7B1FF01A895
:105C6000FFF7D3FF204607E0C8EB06064544E2E70E
:105C700001A8FFF7CAFF01200AB0BDE8F08100BF0C
:105C8000DBD10D006CE203202DE9F34704464068A8
:105C900001900E461746984601F03FFEB8F1000FFE
:105CA00001D101243FE0E168606841F0500101F05A
:105CB00029FE310A6068FFF77FFF31466068FFF711
:105CC0007BFF0021606801F020FE08B100242AE07B
:105CD000E1686068B8F1200FC14641F0500128BF6B
:105CE0004FF0200901234A46C9B201F0F1FD02F04C
:105CF0006BFE03681B6998474845E7DB3D46C7EBE9
:105D0000060A02F061FE03685B69984705F8010B1B
:105D1000EA1BC5EB0803914505EB0A063B44F0D8A6
:105D200098462F46BAE701A8FFF76FFF204602B05A
:105D3000BDE8F0872DE9F3470446406801900D4621
:105D400090461F4601F0E9FD4FB3E168606841F0FD
:105D5000500101F0D7FD290A6068FFF72DFF2946A1
:105D60006068FFF729FF08F11E094646C8EB050ADF
:105D7000606816F8011B03689B689847B14506EBFD
:105D80000A05B04607F1FF3701D0002FF0D10121FD
:105D9000606801F0BAFD0028D6D0002400E001249C
:105DA00001A8FFF732FF204602B0BDE8F0872DE9D9
:105DB000F0438BB00E4615468046406801901C4665
:105DC00001F0ABFDAE4223D2264425440CB9012498
:105DD0003FE01E2C2746D8F8003028BF1E27F61BB0
:105DE000D3F8089002AA3B4631464046ED1BC8470F
:105DF00008B900242DE0D8F8003002AAD3F80C909E
:105E000029463B464046C8470028F2D0E41BDDE760
:105E1000DDD9002CDBD01E2CD8F80030274628BF57
:105E20001E27D3F8089002AA3B4631464046C84791
:105E30000028DED0D8F8003002AAD3F80C9029460A
:105E40003B464046C8470028D3D03E443D44E41B6F
:105E5000DFE701A8FFF7D9FE20460BB0BDE8F083CD
:105E600000F0F8BC40207047002070478020704749
:105E7000FF207047704770477047704710B5142176
:105E8000044602F012FE204610BD10B5082104465B
:105E900002F00BFE204610BD10B50821044602F0AA
:105EA00004FE204610BD10B51C21044602F0FDFD85
:105EB000204610BD2DE9FF410368DB680546984781
:105EC00010220146684603F056FE2B6828469B6860
:105ED0009847002407462046BC420ED23E1B102E97
:105EE0002B6828BF1026D3F818806A46334621460F
:105EF0002846C04708B13444EEE704B0BDE8F0815D
:105F0000002301228372C272027342738373C373CC
:105F10000374437470470000012208B542710222E5
:105F200082710322064BC2710422036002720023B5
:105F30000722037142724374FFF7E2FF08BD00BFFE
:105F4000C0D30D0003090A2200F00F0002FB03007A
:105F5000704708B5807AFFF7F5FF00F5FA6008BDD5
:105F6000C07A00F01F00FFF7EDBF007B00F03F009C
:105F7000FFF7E8BF08B5817B4A060DD501F01F0089
:105F8000FFF7E0FF8B0603D50C280BD00C3008BDC3
:105F90000C2808BF002008BD01F03F00BDE8084004
:105FA000FFF7D0BF08BDC07B00F07F00FFF7CABF7E
:105FB000007C00F07F00FFF7C5BF10B58AB0242237
:105FC0000021044601A803F0D6FD2046FFF7C1FFDB
:105FD000A0F26C7006902046FFF7C2FF01380590D2
:105FE0002046FFF7C2FF04902046FFF7C3FF03904F
:105FF0002046FFF7D8FF02902046FFF7D9FF019017
:1060000001A803F09DFE0AB010BD0A2290FBF2F336
:1060100093FBF2F102FB113102FB130343EA01107F
:10602000C0B27047642310B5044691FBF3F000FB47
:106030001310FFF7EAFFA07210BD10B50446084622
:10604000FFF7E3FFE07210BD10B504460846FFF706
:10605000DCFF237B23F03F031843207310BD10B5F2
:106060000446481CFFF7D1FF637B23F00703184366
:10607000607310BD10B504460846FFF7C6FFA07355
:1060800010BD10B504460846FFF7BFFFE07310BD12
:1060900010B504460846FFF7B8FF237C23F07F03C2
:1060A0001843207410BD37B5044602A840F8041DFB
:1060B00003F0B0FB054641692046FFF7B3FF2969AD
:1060C00020460131FFF7B9FFE9682046FFF7BCFF22
:1060D000A9692046FFF7C3FFA9682046FFF7CAFF5A
:1060E00069682046FFF7CDFF29683B29A8BF3B21FF
:1060F0002046FFF7CDFF03B030BD10B50446FFF7D3
:10610000D2FF637A637410BD084A026000220272F3
:1061100042720122827203460322C272044A416023
:106120001861C260034A986142617047D0D30D0084
:10613000A0D20D007CD20D002DE9F84F05460F4688
:1061400091469A4600240A9B9C4230D239466868A0
:1061500001F0D4FB09EB04016868FFF72DFD002175
:10616000686801F0D2FB0646D8B90A9B68681A1B1A
:10617000202A4FF0010328BF2022394601F0BAFB44
:106180000AEB040883464646C8EB06039B4506D93E
:10619000686803685B69984706F8010BF4E75C449C
:1061A000D1E7024604490548FFF70AFD00E0002652
:1061B0003046BDE8F88F00BF1AD30D009CE10320E4
:1061C0001FB5012300930A4603AB6F21FFF7B4FF0D
:1061D00010B99DF80C0000E0002005B05DF804FB4C
:1061E00008B50321FFF7ECFFC0F3401008BD7FB5F1
:1061F0001E46002B0CBF072306230093144602AB58
:106200000A466F21FFF798FF0546D8B99DF8083078
:1062100023749DF80930E3739DF80A30A3739DF849
:106220000B3063739DF80C3023739DF80D30E372CF
:106230001EB99DF80E30A37204E002F061F9FFF779
:10624000E4FEA072284604B070BD38B500230C46A9
:106250000A4619460546FFF7CAFF28B9A37A1BB1BB
:106260002846FFF7BDFF00B9002038BD10B586B045
:10627000044601A8FFF750FE01A92046FFF7E5FFFD
:1062800010B101A8FFF799FE06B010BD30B5044665
:1062900085B0406801F0FAFA02F0DEF8C0B9E37A9E
:1062A0009B0715D52046FFF7E1FF054680B102F0B8
:1062B00013F8094B09491B682A46684602F09AF808
:1062C0000748009A0749FFF77BFC684601F0D7FDB5
:1062D0000123237205B030BD78DF03209CE4032046
:1062E0009CE1032034D30D002DE9F34101EB0308B9
:1062F0001E4603689B6804460D461746984780452E
:106300000AD800963B46EAB257216068FFF714FFAF
:10631000B0FA80F0400900E0002002B0BDE8F08152
:106320002DE9F34101EB03081E4603689B6805460F
:106330000C461746984780450CD804F12002009679
:106340003B46D2B26F216868FFF7F6FEB0FA80F0E4
:10635000400900E0002002B0BDE8F0812DE9F84FCF
:106360000746894692469B4600240A9B9C4228D2B7
:106370004946786801F0C2FA0AEB04017868FFF731
:106380001BFC0A9B1E1B1F2E0BEB040828BF1F269D
:106390004546786815F8011B026892689047C8EB7B
:1063A0000502B242F5D30121786801F0AEFA054644
:1063B00028B1024605490648FFF702FC02E03444D2
:1063C000D3E700252846BDE8F88F00BF49D30D006C
:1063D0009CE103201FB5137C8DF80830D37B8DF82A
:1063E0000930937B8DF80A30537B8DF80B30137B8B
:1063F0008DF80C30D37A8DF80D30937A8DF80E30FD
:10640000072300930A4602AB6F21FFF7A7FF05B0F1
:106410005DF804FB10B586B0044601A8FFF77CFDCB
:1064200001A8FFF740FE9DF81430A27A63F07F03C5
:106430008DF814309DF8113012B143F0080301E0DB
:1064400023F0080301AA002120468DF81130FFF740
:10645000C1FFB0FA80F0400906B010BD7FB5064616
:1064600001F0FAFF0446B8B102F017F805460146FC
:106470003046FFF7CFFF0C4B0C491B682A460446F9
:10648000684601F0B7FF009A09490A48FFF798FBF0
:10649000684601F0F4FC03E007490648FFF790FB6B
:1064A000204604B070BD00BF78DF03209CE40320C9
:1064B00064D30D009CE103207AD30D0037B5457AF3
:1064C00004468DB901F0C8FF70B102A8294640F812
:1064D000045D00F0DFFB38B1E37ADB0702D520462C
:1064E000FFF7BCFF0123637203B030BD1FB504ABDF
:1064F00003F8042D012200920A466F21FFF72EFFB8
:1065000005B05DF804FBF8B5144605460E461F4677
:10651000FFF756FE204040EA070231462846BDE814
:10652000F840FFF7E3BF13B11346FF2201E0D24367
:10653000D2B2FFF7E8BF012908B50CD800294FF007
:1065400000030CBF102220220721FFF7ECFFB0FA56
:1065500080F0400908BD002008BD00294FF000036D
:106560004FF0080214BF14210D21FFF7DCBF2DE905
:10657000F34101EB03081E4603689B6805460C4681
:106580001746984780450CD804F1200200963B46F8
:10659000D2B26F216868FFF7E1FEB0FA80F04009DF
:1065A00000E0002002B0BDE8F081F0B5012B85B01D
:1065B00006460C4617461D4601D9002043E0FFF76A
:1065C0000FFE0028F9D029463046FFF7C6FF237C8E
:1065D000227B8DF80830E37B8DF809308DF80C2094
:1065E000A37BE27A8DF80A308DF80D20637B17B11A
:1065F00063F07F0301E003F07F038DF80B30637CD1
:106600009DF80B201B0103F070031343002D8DF840
:106610000B304FF00603009308BF0A2202AB18BFED
:1066200011226F213046FFF799FE044640B9002D34
:106630000CBF10232023FF2207213046FFF763FF02
:10664000B4FA84F0400905B0F0BDF0B5012B87B075
:1066500006460C4617461D4601D9002010E0FFF7FC
:1066600005FE0028F9D0011901A8FFF755FC01A883
:10667000FFF743FD2B463A4601A93046FFF795FF49
:1066800007B0F0BD38B5054632245721686801F0DF
:1066900035F90121686801F038F908B1013CF4D1FD
:1066A00038BD00002DE9F0410546D7181446C2EB6D
:1066B0000108BC421ED05721686801F01FF908EBA1
:1066C00004016868FFF778FA686814F8011B03682A
:1066D0009B6898470121686801F017F9064628B1C0
:1066E000024606490648FFF76BFA04E02846FFF722
:1066F000C9FFDEE700263046BDE8F0818FD30D00EC
:106700009CE103202DE9F04101EB03081E460368DC
:106710009B6804460D461746984780450AD833467D
:106720003A46E9B26068FFF7BDFFB0FA80F0400971
:10673000BDE8F0810020BDE8F081000008B500F060
:1067400089F8024B024A1A6008BD00BF9CE1032091
:10675000B0D30D0008B5024B1B685B6C019308BDFC
:106760007402030008B5024B1B689B6C019308BDC3
:106770007402030008B5024B1B689B68019308BDB7
:106780004802030008B5024B1B681B69019308BD52
:106790004802030008B5024B1B685B69019308BD02
:1067A0004802030008B5024B1B685B6C019308BDEF
:1067B0004802030008B5024B1B685B6E019308BDDD
:1067C0003402030008B5024B1B689B6E019308BDA1
:1067D0003402030008B5024B1B68DB6E019308BD51
:1067E0003402030008B5024B1B685B68019308BDC7
:1067F0001802030008B5024B1B68DB68019308BD53
:106800001802030008B5024B1B685B69019308BDC1
:106810001802030008B5024B1B68DB69019308BD31
:106820001802030008B5024B1B681B6A019308BDE0
:106830001802030008B5024B1B689B6D019308BD4D
:106840001802030008B5024B1B68DB6D019308BDFD
:106850001802030008B5024B1B681B68019308BDB2
:106860002C02030008B5024B1B685B68019308BD4E
:106870002C02030008B5024B1B689B68019308BDFE
:106880002C02030008B5024B1B68DB68019308BDAE
:106890002C02030008B5024B1B681B69019308BD5D
:1068A0002C02030008B5024B1B685B69019308BD0D
:1068B0002C02030008B5024B1B689B69019308BDBD
:1068C0002C02030008B5024B1B68DB69019308BD6D
:1068D0002C02030008B5024B1B681B6B019308BD1B
:1068E0002C02030008B5024B1B68DB68019308BD4E
:1068F0002802030008B5024B1B689B69019308BD81
:106900002802030008B5024B1B68DB69019308BD30
:106910002802030008B5024B1B681B6A019308BDDF
:106920002802030008B5024B1B685B6A019308BD8F
:106930002802030008B5024B1B689B6A019308BD3F
:106940002802030008B5024B1B68DB6A019308BDEF
:106950002802030008B5024B1B681B6B019308BD9E
:106960002802030008B5024B1B685B6B019308BD4E
:106970002802030008B5024B1B681B6C019308BD7D
:106980002802030008B5024B1B689B6C019308BDED
:106990002802030008B5024B1B68DB6C019308BD9D
:1069A0002802030008B5024B1B681B6D019308BD4C
:1069B0002802030008B5024B1B685B69019308BD00
:1069C0006402030008B5024B1B689B68019308BD75
:1069D0006802030008B5024B1B68DB68019308BD21
:1069E0006802030008B5024B1B68DB69019308BD10
:1069F0003002030008B5024B1B681B6A019308BDF7
:106A00003002030008B5024B1B681B68019308BDE8
:106A10003C02030008B5024B1B68DB68019308BD0C
:106A20003C02030008B5024B1B681B69019308BDBB
:106A30003C02030008B5024B1B685B69019308BD6B
:106A40003C02030008B5024B1B689B69019308BD1B
:106A50003C02030008B5024B1B68DB69019308BDCB
:106A60003C02030008B5024B1B681B6A019308BD7A
:106A70003C02030008B5024B1B689B6A019308BDEA
:106A80003C02030008B5024B1B681B68019308BD5C
:106A90004C02030008B5024B1B681B69019308BD3B
:106AA0004C02030008B5024B1B685B69019308BDEB
:106AB0004C02030008B5024B1B689B69019308BD9B
:106AC0004C02030008B5024B1B68DB69019308BD4B
:106AD0004C02030008B5024B1B681B6A019308BDFA
:106AE0004C02030008B5024B1B685B6B019308BDA9
:106AF0006002030008B5024B1B685B6D019308BD83
:106B00006002030008B5024B1B681B68019308BDB7
:106B10002002030008B5024B1B685B68019308BDA7
:106B20002002030008B5024B1B685B69019308BD96
:106B30002002030008B5024B1B689B69019308BD46
:106B40002002030008B5024B1B68DB6A019308BDF5
:106B50002002030008B5024B1B68DB6C019308BDE3
:106B60002002030008B5024B1B685B6D019308BD52
:106B70002002030008B5024B1B689B6D019308BD02
:106B80002002030008B5024B1B68DB6D019308BDB2
:106B90002002030008B5034B1B68D3F8883001932B
:106BA00008BD00002002030008B5034B1B68D3F8A2
:106BB0009430019308BD00002002030008B5034B88
:106BC0001B68D3F8A030019308BD00002002030029
:106BD00008B5034B1B68D3F8A830019308BD00002B
:106BE0002002030008B5024B1B681B68019308BD17
:106BF0004402030008B5024B1B685B68019308BDA3
:106C00004402030008B5024B1B689B68019308BD52
:106C10004402030008B5024B1B68DB68019308BD02
:106C20004402030008B5024B1B681B69019308BDB1
:106C30004402030008B5024B1B685B69019308BD61
:106C40004402030008B5024B1B68DB69019308BDD1
:106C50004402030008B5024B1B681B6A019308BD80
:106C60004402030008B5024B1B685B6A019308BD30
:106C70004402030008B5024B1B68DB6A019308BDA0
:106C80004402030008B5024B1B681B6B019308BD4F
:106C90004402030008B5024B1B685B6B019308BDFF
:106CA0004402030008B5024B1B68DB6B019308BD6F
:106CB0004402030008B5024B1B685B68019308BDE2
:106CC0004002030008B5024B1B689B68019308BD96
:106CD0004002030008B5024B1B68DB68019308BD46
:106CE0004002030008B5024B1B681B69019308BDF5
:106CF0004002030008B5024B1B685B69019308BDA5
:106D00004002030008B5024B1B689B69019308BD54
:106D10004002030008B5024B1B68DB69019308BD04
:106D20004002030008B5024B1B681B6A019308BDB3
:106D30004002030008B5024B1B681B6B019308BDA2
:106D40004002030008B5024B1B685B6B019308BD52
:106D50004002030008B5024B1B681B68019308BD85
:106D60001C02030008B5024B1B685B68019308BD59
:106D70001C02030008B5024B1B689B68019308BD09
:106D80001C02030008B5024B1B681B69019308BD78
:106D90001C02030008B5024B1B689B69019308BDE8
:106DA0001C02030008B5024B1B68DB69019308BD98
:106DB0001C02030008B5024B1B681B6A019308BD47
:106DC0001C02030008B5024B1B68DB6A019308BD77
:106DD0001C02030008B5024B1B681B6B019308BD26
:106DE0001C0203000021FFF79DBE10B58368044616
:106DF0000BB901F076FEC3689847A3681BB1032264
:106E000021462046984720461021BDE8104001F059
:106E10004CBE0B68036013B15A6801325A60704768
:106E2000024800230360FFF7BDBC00BFA0E10320C0
:106E3000002211464068FFF755BF00221146406806
:106E4000FFF770BF002211464068FFF77BBF0022AA
:106E50004068FFF76FBF002281F001014068FFF733
:106E600059BF00231A4619464068FFF74BBF00235D
:106E70001A4619464068FFF73DBF00221146406898
:106E8000FFF720BF002202214068FFF723BF002345
:106E90001A464068FFF70EBFF0B51B4B0360002594
:106EA0000F462833182689B043608560C560324696
:106EB00029460446103002F05EFE2A4629467868CC
:106EC000FFF710FF08B9A0601BE02946324602A870
:106ED0000095019502F04FFE02A96846ADF80860E2
:106EE000FFF738FC10B10123A3600AE0009B019A70
:106EF000A360E2600BB90223A36002A9204600F060
:106F000089F8204609B0F0BD14D40D0038B5084CFE
:106F100028252A460021204602F02DFE4FF0FF339F
:106F20006360044B258004225A60034A1A6038BD0E
:106F3000ACE10320A4E10320E0D30D007047007D05
:106F400070470000037D1BB18369B3F1004F02D18C
:106F50009FED050A704707EE903A9FED047AF8EE30
:106F6000E77A87EE870A7047000000000000C842F9
:106F7000037D1BB1036AB3F1004F02D19FED050AF7
:106F8000704707EE903A9FED047AF8EEE77A87EEC5
:106F9000870A7047000000000000C84210B5282191
:106FA000044601F082FD204610BD0000037D7BB148
:106FB000436A002B0CDB07EE903ADFED076A9FED8A
:106FC000070AB8EEE77AC7EE267A27EE800A7047FE
:106FD000BFEE000A704700BF00FF7F470000C842B5
:106FE000037D7BB1C369002B0CDB07EE903ADFED2C
:106FF000076A9FED070AB8EEE77AC7EE267A27EE12
:10700000800A7047BFEE000A704700BF00FF7F474D
:107010000000C84230B50D4600F110040FCD0FC47A
:1070200095E8030084E80300012030BD2DE9F0411C
:1070300007460C4615462AB90368C9B29B68BDE8E5
:10704000F0411847002907DA0A2A05D12D2100F05E
:10705000AFFE6142064601E021460026EAB238460C
:1070600000F0BFFE3044BDE8F08170B50D46064625
:107070000A2281682846FFF7D9FF2C2104462846BA
:1070800000F096FE0A220444F1682846FFF7CEFF7E
:10709000204470BDA0F10400FFF7E7BF7047002057
:1070A000704710B51021044601F0FFFC204610BDCA
:1070B00008B508B1FFF7F5FF08BD10B583680446B1
:1070C00013B1032201469847204610BD00220260FA
:1070D00010B54FF69C728280B1F9044084808A809A
:1070E00002680C6804600A6010BD10B504460068B0
:1070F000FFF738FE204610BD38B5C468F4B12378D8
:10710000022B03D104F10C00FFF7EFFF656835B1E6
:107110002846FFF7D2FF1021284601F0C6FCA568DB
:1071200035B12846FFF7C9FF1021284601F0BDFC04
:1071300020461421BDE8384001F0B7BC38BD10B579
:1071400088B00446684600F0E1FE694604A800F0F5
:10715000FFFE04A8A047044604A800F090FE68467D
:1071600000F08DFE204608B010BDF0B5102485B0AB
:1071700007460E46154600212246684602F0FBFCF3
:10718000002269461046ADF800400297039601952B
:10719000FFF730FD05B0F0BD13B5044691E80500DA
:1071A00000234B600B602060626001A80193009394
:1071B000FDF775FA204602B010BDF7B50C4602ADDA
:1071C00054F8043B45F8083D06460F4601A8214601
:1071D000FFF71FFE29463046FFF7DEFF01A8FDF747
:1071E0005EFA2046FDF75BFA3846082101F05DFCA7
:1071F000304603B0F0BD13B50B46044603C88DE816
:10720000030093E8030084E803009DE8030083E89B
:10721000030002B010BD000038B50023044603602F
:1072200010200D46FCF739FF28B10123436083602D
:10723000024B0360C5602060204638BD48D40D0075
:10724000826810B50AB901F04CFCC368BDE8104073
:10725000184708B5006800F11001FFF7F1FF08BDFD
:10726000826810B50AB901F03CFCC368BDE8104063
:10727000184708B5006800F11001FFF7F1FF08BDDD
:1072800038B5002383608B6804460D462BB102227B
:107290009847EB68E360AB68A360204638BD000008
:1072A000F0B589B004686846FFF710FF00238DF839
:1072B00008304FF00202D4E84F3F002B03D1C4E85E
:1072C000412F0029F7D102D08DF8083063E014F186
:1072D0000C0503D069462846FFF7F8FEBFF35F8F21
:1072E00001236370002004F10803BFF35F8F53E8AC
:1072F000006F43E80002002AF9D1BFF35F8F002E30
:1073000049D0FFF727FC20B129463046FFF798FF08
:107310003AE0314602A8FFF7B3FFE068B4F9105035
:1073200008B102F0B9FE06901020ADF81C50FCF731
:10733000B4FE0546E8B1002787601820FCF7ADFED3
:10734000044688B10146876002A8FFF754FF049BFA
:10735000A268A360059B049206A9E268E36004F1B9
:1073600010000592FFF7B2FE0D4BEB600D4B2C6049
:10737000AB6006A8FFF7B9FE02A8FFF79EFE002249
:1073800029460948FFF7EEFB3046FFF796FE10212D
:10739000304601F08AFB6846FFF7A7FE09B0F0BD52
:1073A00053720D00C9740D00EB6D0D002DE9F04F07
:1073B0008BB006460F46904699469DF850A0FFF7C1
:1073C00039FC07AD834630BB4FF62E73059005A9F7
:1073D0002846ADF81830FFF779FE1420FCF75DFE63
:1073E000044658B10223037001234370C0F804B06F
:1073F000C0F808B029460C30FFF768FE3046214639
:1074000040F8044BFFF708FF2846FFF76EFE05A87B
:10741000FFF76BFE52E000240C2314206C60AC607C
:107420000793FCF73AFE014618B1047044704460BB
:10743000846004A80391FFF7EFFE224B0893082015
:10744000FCF72BFE044628B1039B40F8043B04A93B
:10745000FFF7DFFC00955FFA8AF34A46414638465B
:107460000994FFF7F7FB20B9039B5B7803F0FF0259
:1074700083B1039B059304A906A8FFF7CAFC05A9DD
:107480003046FFF789FE06A8FDF709F904A8FDF7C5
:1074900006F913E04FF69C7305A903A80592ADF811
:1074A0001830FFF7FDFE05A8FFF71FFE05A8099994
:1074B000FFF783FE06A8FDF7F2F8DAE730460BB0D7
:1074C000BDE8F08F39760D00022AF8B5044606D0E3
:1074D000032A17D0012A22D10B6803601FE018206D
:1074E0000E68FCF7DAFD054650B13146FFF7C8FEDD
:1074F0003069B6F9147008B102F0CEFD2861AF8290
:1075000025600CE0046854B104F11000FFF7EDFDB4
:107510002046FFF7D2FD1821204601F0C6FA0020D0
:10752000F8BD38B5002383608B6804460D462BB147
:1075300002229847EB68E360AB68A360204638BD41
:10754000022A70B5044606D0032A11D0012A18D1A8
:107550000B68036015E014200E68FCF79EFD0546DD
:1075600020B13146FFF7DDFF337C2B74256008E046
:10757000046834B12046FFF7A0FD1421204601F035
:1075800094FA002070BD0000F0B5002387B00C46CF
:10759000BFF35F8F50E8006F40E80032002AF9D156
:1075A000BFF35F8F002E3FD01846FFF7D3FA074690
:1075B00020B121463046FFF753FE2EE0314601A8A8
:1075C000FFF7AFFF23788DF814301020FCF765FD2E
:1075D0000546D0B187601420FCF75FFD044678B102
:1075E0008760014601A8FFF706FE039BA268A3601F
:1075F000049B0392E268E3609DF8143004922374C4
:107600000A4BEB600A4B2C60AB6001A8FFF755FDFD
:10761000002229460748FFF7A5FA3046FFF74DFD3F
:107620001021304601F041FA07B0F0BD73720D0031
:1076300041750D00EB6D0D0030B585B004460D466B
:1076400068461146FFF7B9FD7CB124B228460DB15A
:1076500002F022FD029002A96846ADF80C40FFF747
:107660001FFE02A8FFF741FD1DE000988DF80840BD
:107670004FF00102D0E84F3FA34203D1C0E8412FB1
:107680000029F7D102D08DF808300CE010F10C0180
:107690004FF0010318BF0373BFF35F8F043000F88E
:1076A000033CFFF771FF01A8FCF7F9FF05B030BDFF
:1076B000002211464068FFF735BB002211464068A2
:1076C000FFF740BB00224068FFF734BB002281F087
:1076D00001014068FFF71EBB00231A4619464068A7
:1076E000FFF710BB00231A4619464068FFF702BB9C
:1076F000002211464068FFF7F5BA002211464068A3
:10770000FFF7E0BA002202214068FFF7E3BA002346
:107710001A464068FFF7CEBA024B03225A60024A6B
:107720001A607047D4E1032064D40D00006800F0B3
:10773000F4B810B50446016002710AB1FFF7F6FF14
:10774000204610BD38B504460D4601F063F92A46BF
:1077500001462046FFF7EDFF204638BD006800F0E7
:10776000E5B810B5037904460BB1FFF7F7FF2046E3
:1077700010BDF8B5044616461D460F46FFF7D6FF66
:107780002068362100F0BEF82068036839469B68FF
:1077900098470121206800F0B8F802223621012321
:1077A000206800F0A7F8206803685B69984730708C
:1077B000206803685B69984728702046BDE8F84058
:1077C000FFF7CCBF07B502AB002203F8012D8DF8FF
:1077D000062004210DF10602FFF7CBFF9DF80700FC
:1077E00001F01CFC0022094B01F07EFC01F074FF4B
:1077F0009DF8063000EE103A07EE900AB8EEC00A87
:1078000037EE800A03B05DF804FB00BF0000703F54
:107810007047F8B5064615460C468F18BC4206D090
:10782000336814F8011B9B6830469847F6E72846F2
:10783000F8BD0022007CFFF76DB80021007CFFF747
:1078400071B80021007CFFF775B80021007CFFF7BC
:1078500079B80021007CFFF77DB810B514210446EB
:1078600001F023F9204610BD10B5044600236360E3
:107870004FF47A73A360044B2174084623601146C9
:10788000FFF778F8204610BD98D40D0000231A4663
:107890001946007CFFF726B870B50C4686B0142553
:1078A00006462A46002101A802F065F923788DF8E2
:1078B000083063680393E36804930022237A307CE2
:1078C000ADF8045001A90593FFF76CF806B070BD40
:1078D0001FB500338DF800104FF06401039118BFFD
:1078E0000123694601928DF80830FFF7D5FF05B0F6
:1078F0005DF804FBDBB2C9B2FFF7EABF0022007CEF
:10790000FEF7F8BFC9B2FFF7F9BF0022007CFEF70F
:10791000F9BF0021007CFFF725B808B50021007CE5
:10792000FFF730F8B0FA80F0400908BD08B5002133
:10793000007CFFF72FF8B0FA80F0400908BD00473F
:10794000F0B585B01C460E4617460546FEF7BAFF51
:10795000002084424FF0040303908DF80C30A5BF43
:107960009DF828308DF80E30034603AB0093324665
:107970003B460649A8BF8DF80D402846FEF79AFF02
:10798000B0FA80F0400905B0F0BD00BF3F790D00AE
:10799000F8B50646FEF796FF074668B9084D55F854
:1079A00026405CB12046FFF788FB1021204601F0FD
:1079B0007CF845F8267001E00020F8BD0120F8BDF4
:1079C000DCE10320704710B51821044601F06DF882
:1079D000204610BDF0B5037D062B8DB00E4600F19C
:1079E00004074FF0000402D000F1080518E00CADC8
:1079F000394605F8304D2F232A460A20FEF7DAFFD4
:107A0000284603F079F833680246DB682946304699
:107A100098470FE024B12E21304600F0C9F9044404
:107A200015F8011D0A22304600F0DBF9BD4204447E
:107A3000F0D120460DB0F0BD10B5054B0446112223
:107A400040F8043B002102F096F8204610BD00BF2C
:107A5000C0D40D000346074A10B543F8042B01F1CA
:107A6000100251F8044B43F8044B9142F9D10A78C3
:107A70001A7010BDC0D40D0010B59DF8084044EA3E
:107A8000032343EA024242EA016104234160037591
:107A900010BD37B50D788B784A78C97800912946A2
:107AA000FFF7EAFF03B030BD014B024A1A6070478E
:107AB0006CE203203CD50D00002211464068FFF720
:107AC00031B9002211464068FFF73CB900224068F6
:107AD000FFF730B9002281F001014068FFF71AB9C1
:107AE00000231A4601214068FFF70CB900231A460B
:107AF00019464068FFF7FEB8002211464068FFF7BC
:107B0000F1B8002211464068FFF7DCB800220221DC
:107B10004068FFF7DFB800231A464068FFF7CAB88D
:107B200038B5054688B104684CB1A3681BB103227F
:107B30002146204698471021204600F0B6FF2846EF
:107B40001421BDE8384000F0B0BF38BD10B1036863
:107B50005B681847704710B503680446BBB15868A6
:107B6000FEF708FE78B923685A7C12B95868FEF708
:107B700009FE23685868FEF70DFE20680023236085
:107B800028B1FFF7CDFF206808B1FFF7C9FF2046F5
:107B900010BD000038B50C4B03600446D0F8CC0192
:107BA00008B1FCF77EFAD4F8C45135B12846FFF786
:107BB000D2FF0421284600F078FFA06808B1FFF743
:107BC000C5FF204638BD00BFA8D50D0038B50E4C06
:107BD0000E4B23600025022304F5E4706360A5606A
:107BE000C4F8C451C4F8C851FEF7DCFD084BC4F812
:107BF000CC5184F8D05123602046064A0649BDE89E
:107C0000384000F04DBF00BF70E20320DCD50D000E
:107C1000A8D50D0068E00320957B0D0000231A46CF
:107C20004068FFF747B8002202214068FFF752B8CA
:107C3000002211464068FFF745B80022114640680F
:107C4000FFF750B800231A4619464068FFF752B8AC
:107C500000231A4619464068FFF754B8002281F005
:107C600001014068FFF756B800224068FFF762B88C
:107C7000002211464068FFF765B8002211464068AF
:107C8000FFF750B82DE9F043002495B016460D4695
:107C90000746FFF7D1FE214620220CA8009401F0F0
:107CA0006AFF40230C9321466B460CAA3046FEF730
:107CB00091FE0446002844D1024601216868FFF77E
:107CC00011F80221804622466868FFF70BF8009EF3
:107CD00081462146002E34D0002932D17368022B10
:107CE00002D00A2B09D02AE0B8F1000F27D0716921
:107CF00038460431FFF7CDFE20E0B9F1000F1ED069
:107D00007469112201A801F036FF06238DF81430A2
:107D100001AD04F108031834186859682A4603C2F3
:107D20000833A3421546F7D101A906A807ADFFF70E
:107D300091FE0FCD3C1D0FC42B6823700121F66905
:107D4000C8E70098FEF73EFE384615B0BDE8F08360
:107D5000024B034A1A6000225A60704744E4032031
:107D6000DCD50D00F8B506460D468F180024BD423F
:107D70000CD0336815F8011B9B68304698470028E3
:107D800001DB0444F3E7002C08BF04462046F8BD9D
:107D900070B505460C46084649B102F0ADFE2B68A9
:107DA000024621462846DB68BDE87040184770BD92
:107DB00003689B68184738B50D210546FFF7F8FFA3
:107DC0000A2104462846FFF7F3FF204438BD38B5A2
:107DD0000546FFF7DDFF04462846FFF7ECFF204489
:107DE00038BD30B58BB00B4600218DF82410012A28
:107DF00098BF0A220DF12304B3FBF2F505FB123301
:107E000003F0FF03092B94BF30333733DBB2214635
:107E100004F801392B46002DEED1FFF7B9FF0BB066
:107E200030BD10B50446FFF748F9204610BD0000EC
:107E30000348044A04490023836000F031BE00BFB8
:107E40004CE4032068E00320237E0D00704710B54A
:107E50000C21044600F029FE204610BD10B5054B4C
:107E60000360044601710846FEF7BCFD0023A360D1
:107E7000204610BD10D60D000079FEF7BBBD10B531
:107E800004460068FEF76EFF204610BD10B504469C
:107E9000006808B1FEF766FF00232360A3606360FB
:107EA00010BD38B504460D4600680131FEF762FF8B
:107EB00010B184E82100012038BD10B503680446E4
:107EC00013B143688B4207D22046FFF7EAFF20B187
:107ED000A3680BB922681370012010BD70B50E465F
:107EE000114604461546FFF7E8FF18B92046FFF78C
:107EF000CDFF09E02A463146A560206801F030FE3A
:107F00002268A3680021D154204670BD38B50023F3
:107F1000044603604360836003730D4639B108462D
:107F200002F0EAFD294602462046FFF7D7FF204629
:107F300038BD884210B50B46044607D0096819B110
:107F40009A68FFF7CBFF01E0FFF7A0FF204610BDC6
:107F500010B5002304460360436083600373FFF79A
:107F6000E8FF204610BD08B582680B4612B919B962
:107F7000012008BD11B90368187802E0006802F01A
:107F800079F8B0FA80F0400908BD70B50E469AB194
:107F900091B185689D4202D800230B7070BD541EBC
:107FA000ED1A0168AC4228BF2C46194422463046DF
:107FB00002F0BFFD0023335570BD10B504460068C4
:107FC00018B1FEF7CFFE0023236010BD38B5B1F91C
:107FD000043083800B460D4653F8062FC0F8062068
:107FE0009B8843810446FFF7E8FF2B6813B12360A9
:107FF00000232B60204638BDB1F9043010B50BB911
:108000000A689AB10C685CB1A288012A03D0042ADC
:1080100006D1022205E0A4894C818A710B8105E01A
:1080200004220B814FF6FF738A714B8151F8063F92
:1080300003608B88838010BD014600228C20FEF7F0
:10804000C1BB0020FFF7F8BF30B5044685B0084635
:1080500011461A460023FEF76DFD0D4DADF80C00DC
:10806000002301A90193ADF808308DF80A302846A5
:108070004FF6FF73ADF80E30FFF7A8FF01A8FFF72A
:108080009CFF20462946FFF7B7FF204605B030BDCC
:108090005CE4032010B500240470448000294FF6EE
:1080A000FF74848007DD0139994209D232F811301A
:1080B0008380012301E002D10223037010BD4180BF
:1080C00010BD0000F0B58BB017461A46129B019305
:1080D0000E460024119B0294054600933946109BDE
:1080E0003046FEF76BFD3B463246014605A8FFF7DA
:1080F000D1FF0794ADF820400D4C9DF81410BDF948
:108100001620BDF818308DF82210204607A9ADF8CA
:108110002420ADF82630FFF759FF07A8FFF74DFFE1
:1081200028462146FFF768FF28460BB0F0BD00BF88
:108130005CE4032010B5094C00204FF6FF7320606B
:10814000A080A07120816381FEF7E4FC2046044AF0
:108150000449BDE8104000F0A3BC00BF5CE403206C
:1081600068E00320E1410D00F0B5144B144F1E6888
:10817000144B064418683B6806449E428BB01BD0E3
:108180000AA801AD40F8286D01F0EEFB436903F247
:108190006C73436104460FCC0FC50FCC0FC5D4F8E8
:1081A00000E0C5F800E001AD0FCD074C0FC40FCDC6
:1081B0000FC43E60C4F800E00BB0F0BD98E40320AB
:1081C00094E4032090E4032068E4032008B5002031
:1081D000FEF758FD28B1FEF72DFD80F00100C0B27A
:1081E00008BD012008BD000008B5FFF7BDFF014B29
:1081F000986808BD68E4032008B5FFF7B5FF014B98
:10820000D86808BD68E4032008B5FFF7ADFF024B4E
:108210009869013008BD00BF68E4032008B5FFF786
:10822000A3FF024B1869013008BD00BF68E40320BA
:1082300008B5FEF7EFFA034B1B681844024B1B68A6
:10824000184408BD98E4032090E40320FAEE087A6D
:10825000B4EEE70AF1EE10FA0FD4F2EE0C7AB4EEB7
:10826000E70AF1EE10FA08DCDFED047A044B20EEA9
:10827000270ABDEEC00A83ED000A70470000614581
:1082800098E40320B5EEC00AF1EE10FA0FD4F0EE38
:10829000007AB4EEE70AF1EE10FA08DCDFED047ABA
:1082A000044B20EE270ABDEEC00A83ED000A70479A
:1082B0000000614574DF0320024B1A68024B1A600C
:1082C000704700BF74DF032090E40320014B0022BD
:1082D0001A60704790E4032008B5FEF7A3FA002265
:1082E00011461046BDE80840FEF74CBC37B50E4BB2
:1082F0001B6819440D4B1B68044602A8194440F83A
:10830000041D01F031FB01F037FA054602F0F4FBE1
:108310002844002300F8013C29462046FFF7F6FDDB
:10832000204603B030BD00BF98E4032090E4032052
:108330002DE9F047A4B014AC074689462046114603
:108340003F221D4602F0F5FB002320468DF88F30BA
:1083500002F0D2FB804625B9244903A801F094FE1F
:1083600013E03C2195FBF1F2002AB8BF524292FB88
:10837000F1F301FB132200924FF461631C4A95FB59
:10838000F3F3102103A8FEF70DFD25462E1B08F17F
:10839000FF3AB2451BD92B78252B16D16B787A2B57
:1083A00013D103A802F0A8FB80463044C6EB0A02B2
:1083B000A91C204401F0D4FB424603A9284601F041
:1083C000CFFB204602F098FB80460135DEE74B46A6
:1083D0002246322107A801F0DBFE07A93846FFF745
:1083E00095FD384624B0BDE8F08700BF0DDC0D00D8
:1083F00018D60D00F7B5054601921C4613B9124B6D
:108400001C682CB1114B2046196801F033FE20B9CD
:1084100001992846FFF76AFF13E00D4F019A3B6868
:108420000C4E1A44336802A8134440F8043D01F08E
:108430009BFA3A6833680146134428462246FFF700
:1084400077FF284603B0F0BD8CE4032078DF0320DB
:1084500098E4032090E4032010B50020FEF7EAF929
:10846000044668B9FEF74EFB01280BD12046FEF703
:1084700081FB38B9FFF7AAFE30B9FEF7C3FBF9E775
:10848000012010BD002010BDFFF7A0FE0020FEF768
:10849000D1F9003018BF012010BD08B5FFF7DCFF8F
:1084A000BDE80840FEF7B6B908B5FFF7F6FFFFF7DD
:1084B0005BFE014B986808BD68E4032008B5FFF730
:1084C000ECFFFFF751FE014B586808BD68E403203C
:1084D00008B5FFF7E2FFFFF747FE014BD86808BD7C
:1084E00068E4032008B5FFF7D8FFBDE80840FFF7B0
:1084F0008BBE08B5FFF7D1FFBDE80840FFF78EBE81
:1085000008B5FFF7CAFFFFF72FFE014B586908BDFA
:1085100068E40320024B1A68024B1A60704700BFE0
:1085200078DF03208CE4032070474174704708B55E
:10853000007CFEF79FFA20EAE07008BD08B5007CD9
:10854000FEF770FA20EAE07008BD08B5007CFEF77F
:1085500079FA30EA200028BF4FF0FF3008BD08B597
:10856000007CFEF767FA30EA200028BF4FF0FF30AA
:1085700008BD007CFEF76EBA10B51421044600F069
:1085800094FA204610BD70B5457C04460E4625B9C8
:10859000007CFEF76FFA002805DD3146207CBDE83F
:1085A0007040FEF737BA284670BD000010B504468B
:1085B00008461146002262604FF47A72A260054AB2
:1085C00022600122207462741A46FEF71BFA2046CC
:1085D00010BD00BF48D60D00007CFEF743BA000076
:1085E00038B50C4D296811F0010411D12846FBF76C
:1085F0005AFD68B1084A094B09482146FFF7D6FFE2
:108600002846FBF755FD074A0749054800F048FA98
:10861000034838BD38E503203CE50320B4E40320DB
:10862000A0E4032068E0032029850D004174704711
:10863000704708B50021007CFEF73CFA30EA2000C4
:1086400028BF4FF0FF3008BD08B50121007CFEF7C0
:1086500031FA30EA200028BF4FF0FF3008BD08B5DE
:10866000007CFEF71FFA20EAE07008BD08B5007C28
:10867000FEF710FA20EAE07008BD007CFEF72ABA87
:1086800010B51421044600F010FA204610BD38B58C
:108690000446007C0D46FEF705FA002801DC607CEC
:1086A00028B12946207CFEF70DFA20EAE07038BD9B
:1086B00010B50446002363604FF47A73A360054B42
:1086C000236001230846217463741146FEF7DAF92A
:1086D000204610BD78D60D0010B5142204460021A6
:1086E00001F049FA204610BD30B50E4D87B001A803
:1086F000FFF7F2FF296811F0010410D12846FBF7BB
:10870000D2FC60B101AA21460748FFF7D1FF2846F5
:10871000FBF7CEFC054A0649034800F0C1F90248C0
:1087200007B030BDC0E50320C4E5032068E00320A6
:1087300031860D0008B50C4B33B1FFF7D5FF036848
:108740001B699847002809DC084B63B1FFF748FF15
:1087500003681B699847002803DC08BDAFF300805D
:10876000F2E7AFF3008008BD000000000000000049
:1087700008B5FFF7DFFFFEF745F8014B186008BDAD
:10878000E0E503200248034A0349121A01F0E8B960
:1087900000F4032004F4032090DD0D0007B500234E
:1087A00000931A466FF07701FEF7FEF903B05DF80B
:1087B00004FB000007B543880A2B08D0502B09D1D1
:1087C000094B1B683BB103B05DF804EB1847FFF79A
:1087D000E5FF06E0002300931A466FF07701FEF7ED
:1087E000E3F903B05DF804FBD8E5032038B5104C7D
:1087F000104D2368AB42104B0CBF012200221A70AF
:1088000002D0FFF7BFFF2560FDF7ECFF044601F043
:1088100009FC0A4B13B12046AFF300800021074842
:10882000FEF740FA00210648BDE83840FEF7B2B92D
:1088300000F403201E1C279ADCE503200000000042
:10884000B5870D0008B5024B1B681B68019308BD76
:108850005C02030008B5024B1B685B68019308BD0E
:108860005C02030008B5024B1B689B68019308BDBE
:108870005C02030010B5044600F0F2F8FFF7FCFAC2
:1088800028B1A4F10B03022B01D8002010BD00F089
:108890009BF8FFF73EF808B1012CF6D9FFF7A0FED0
:1088A000FFF79AFE18B1A4F10903012BEDD9232C8F
:1088B0008CBF0020012010BD232838B504460D468A
:1088C0000AD8FF2908D0FFF7D5FF28B1294620464E
:1088D000BDE83840FDF7CEBF38BD38B504460D467B
:1088E000FDF7D0FFFF2810D0062804D84D2323FA27
:1088F00000F0C30709D42046FFF7BCFF28B1294682
:108900002046BDE83840FDF7C5BF38BD10B5044668
:10891000FDF7B8FF0438C0B2012808D92046FFF798
:10892000A9FF20B12046BDE81040FDF7BBBF0020E5
:1089300010BD0D2810B504469CBF0E34A4B22046CD
:10894000FFF798FF50B103212046FDF78BFF032866
:1089500004D12046BDE81040FDF7BCBF002010BD8B
:1089600070B5044614252A46094E002101F003F98A
:10897000258020253146A5602561284600F0AFF806
:1089800031466060284600F0AAF8E060204670BDDD
:10899000A0D60D0070B5044614252A46094E0021C4
:1089A00001F0E9F8258020253146A560256128469B
:1089B00000F095F831466060284600F090F8E060DD
:1089C000204670BDA0D60D0030B50E4D296811F0BF
:1089D000010487B013D12846FBF765FB78B101A8E5
:1089E000FFF7BEFF01AA21460748FEF73DFF2846D4
:1089F000FBF75EFB054A0649034800F051F80248C0
:108A000007B030BDE4E50320FCE5032068E0032067
:108A100011780D0010B50E4C2368DB0786B013D417
:108A20002046FBF740FB78B101A8FFF7B3FF01AA8E
:108A300001210848FEF718FF2046FBF739FB064ADC
:108A40000649044800F02CF8024806B010BD00BFEB
:108A500010E60320E8E5032068E0032011780D000C
:108A600038B50B4D296811F001040FD12846FBF7EA
:108A70001AFB58B121460748FFF7F0F92846FBF7E3
:108A800017FB054A0549034800F00AF8014838BDBC
:108A900020E6032014E6032068E003204D7E0D004D
:108AA0000B460146184600F0A7BEFBF7F8BA0000D7
:108AB000024B1868BFF35F8F704700BF24E60320A6
:108AC00010B5002814BF044601242046FEF742F9E1
:108AD00020B9FFF7EDFF08B18047F6E710BDFFF7BB
:108AE000EFBF08B5FEF76EF9244B1A68D0075CBFDC
:108AF00001221A60224B1A68D1075CBF01221A605A
:108B0000204B1A68D2075CBF01221A601E4B1A68FC
:108B1000D0075CBF01221A601C4B1A68D1075CBFEA
:108B200001221A601A4B1A68D2075CBF01221A6030
:108B3000184B1A68D0075CBF01221A60164B1A68DE
:108B4000D1075CBF01221A60144B1A68D2075CBFC0
:108B500001221A60124B1A68D0075CBF01221A600A
:108B6000104B1A68D1075CBF01221A600E4B1A68BD
:108B7000D2075CBF01221A60704700BF54E6032091
:108B800050E603204CE6032048E6032044E6032099
:108B900040E603203CE6032038E6032034E60320C9
:108BA00030E603202CE6032028E60320184B1A6841
:108BB000D1075CBF01221A60164B1A68D2075CBF4E
:108BC00001221A60144B1A68D0075CBF01221A6098
:108BD000124B1A68D1075CBF01221A60104B1A6849
:108BE000D2075CBF01221A600E4B1A68D0075CBF27
:108BF00001221A600C4B1A68D1075CBF01221A606F
:108C00000A4B1A68D2075CBF01221A60704700BF86
:108C100074E6032070E603206CE6032068E6032078
:108C200064E6032060E603205CE6032058E60320A8
:108C3000184B1A68D1075CBF01221A60164B1A68DC
:108C4000D2075CBF01221A60144B1A68D0075CBFC0
:108C500001221A60124B1A68D1075CBF01221A6008
:108C6000104B1A68D2075CBF01221A600E4B1A68BB
:108C7000D0075CBF01221A600C4B1A68D1075CBF99
:108C800001221A600A4B1A68D2075CBF01221A60DF
:108C9000704700BF94E6032090E603208CE6032093
:108CA00088E6032084E6032080E603207CE6032098
:108CB00078E60320244B1A68D0075CBF01221A60B3
:108CC000224B1A68D1075CBF01221A60204B1A6838
:108CD000D2075CBF01221A601E4B1A68D0075CBF26
:108CE00001221A601C4B1A68D1075CBF01221A606E
:108CF0001A4B1A68D2075CBF01221A60184B1A6817
:108D0000D0075CBF01221A60164B1A68D1075CBFFE
:108D100001221A60144B1A68D2075CBF01221A6044
:108D2000124B1A68D0075CBF01221A60104B1A68F8
:108D3000D1075CBF01221A600E4B1A68D2075CBFD4
:108D400001221A60704700BFC4E60320C0E603207A
:108D5000BCE60320B8E60320B4E60320B0E6032017
:108D6000ACE60320A8E60320A4E60320A0E6032047
:108D70009CE6032098E6032081F0004102E000BF5A
:108D800083F0004330B54FEA41044FEA430594EACB
:108D9000050F08BF90EA020F1FBF54EA000C55EA06
:108DA000020C7FEA645C7FEA655C00F0E2804FEAD7
:108DB0005454D4EB5555B8BF6D420CDD2C4480EAB9
:108DC000020281EA030382EA000083EA010180EAE9
:108DD000020281EA0303362D88BF30BD11F0004F37
:108DE0004FEA01314FF4801C4CEA113102D040426D
:108DF00061EB410113F0004F4FEA03334CEA1333A8
:108E000002D0524263EB430394EA050F00F0A780BF
:108E1000A4F10104D5F1200E0DDB02FA0EFC22FABA
:108E200005F2801841F1000103FA0EF2801843FAAE
:108E300005F359410EE0A5F120050EF1200E012A9F
:108E400003FA0EFC28BF4CF0020C43FA05F3C018DD
:108E500051EBE37101F0004507D54FF0000EDCF156
:108E6000000C7EEB00006EEB0101B1F5801F1BD3FF
:108E7000B1F5001F0CD349085FEA30004FEA3C0C03
:108E800004F101044FEA445212F5800F80F09A80F9
:108E9000BCF1004F08BF5FEA500C50F1000041EBFD
:108EA000045141EA050130BD5FEA4C0C404141EB01
:108EB000010111F4801FA4F10104E9D191F0000F28
:108EC00004BF01460020B1FA81F308BF2033A3F1AB
:108ED0000B03B3F120020CDA0C3208DD02F1140CA2
:108EE000C2F10C0201FA0CF021FA02F10CE002F1DD
:108EF0001402D8BFC2F1200C01FA02F120FA0CFCD6
:108F0000DCBF41EA0C019040E41AA2BF01EB04511E
:108F1000294330BD6FEA04041F3C1CDA0C340EDC1C
:108F200004F11404C4F1200220FA04F001FA02F35F
:108F300040EA030021FA04F345EA030130BDC4F11D
:108F40000C04C4F1200220FA02F001FA04F340EA12
:108F50000300294630BD21FA04F0294630BD94F0C3
:108F6000000F83F4801306BF81F480110134013DAA
:108F70004EE77FEA645C18BF7FEA655C29D094EA1B
:108F8000050F08BF90EA020F05D054EA000C04BF99
:108F90001946104630BD91EA030F1EBF0021002084
:108FA00030BD5FEA545C05D14000494128BF41F023
:108FB000004130BD14F580043CBF01F5801130BD87
:108FC00001F0004545F0FE4141F470014FF0000012
:108FD00030BD7FEA645C1ABF194610467FEA655CC3
:108FE0001CBF0B46024650EA013406BF52EA033565
:108FF00091EA030F41F4002130BD00BF90F0000F53
:1090000004BF0021704730B54FF4806404F132048E
:109010004FF000054FF0000150E700BF90F0000F47
:1090200004BF0021704730B54FF4806404F132046E
:1090300010F0004548BF40424FF000013EE700BF3E
:1090400042004FEAE2014FEA31014FEA02701FBFCE
:1090500012F07F4393F07F4F81F06051704792F0A0
:10906000000F14BF93F07F4F704730B54FF460741A
:1090700001F0004521F0004120E700BF50EA010265
:1090800008BF704730B54FF000050AE050EA010212
:1090900008BF704730B511F0004502D5404261EB82
:1090A00041014FF4806404F132045FEA915C3FF4C3
:1090B000DCAE4FF003025FEADC0C18BF03325FEA5C
:1090C000DC0C18BF033202EBDC02C2F1200300FA11
:1090D00003FC20FA02F001FA03FE40EA0E0021FA36
:1090E00002F11444C1E600BF70B54FF0FF0C4CF420
:1090F000E06C1CEA11541DBF1CEA135594EA0C0FD6
:1091000095EA0C0F00F0DEF82C4481EA030621EA10
:109110004C5123EA4C5350EA013518BF52EA03354B
:1091200041F4801143F4801338D0A0FB02CE4FF0FD
:109130000005E1FB02E506F00042E0FB03E54FF02D
:109140000006E1FB03569CF0000F18BF4EF0010E25
:10915000A4F1FF04B6F5007F64F5407404D25FEA21
:109160004E0E6D4146EB060642EAC62141EA5551D4
:109170004FEAC52040EA5E504FEACE2EB4F1FD0C16
:1091800088BFBCF5E06F1ED8BEF1004F08BF5FEA94
:10919000500E50F1000041EB045170BD06F0004646
:1091A00046EA010140EA020081EA0301B4EB5C04F3
:1091B000C2BFD4EB0C0541EA045170BD41F48011EB
:1091C0004FF0000E013C00F3AB8014F1360FDEBF10
:1091D000002001F0004170BDC4F10004203C35DAEC
:1091E0000C341BDC04F11404C4F1200500FA05F36F
:1091F00020FA04F001FA05F240EA020001F0004210
:1092000021F0004110EBD37021FA04F642EB060185
:109210005EEA430E08BF20EAD37070BDC4F10C04AF
:10922000C4F1200500FA04F320FA05F001FA04F273
:1092300040EA020001F0004110EBD37041F100015F
:109240005EEA430E08BF20EAD37070BDC4F120056A
:1092500000FA05F24EEA020E20FA04F301FA05F2D2
:1092600043EA020321FA04F001F0004121FA04F27A
:1092700020EA020000EBD3705EEA430E08BF20EA4A
:10928000D37070BD94F0000F0FD101F00046400084
:1092900041EB010111F4801F08BF013CF7D041EA06
:1092A000060195F0000F18BF704703F0004652000A
:1092B00043EB030313F4801F08BF013DF7D043EADB
:1092C0000603704794EA0C0F0CEA135518BF95EA91
:1092D0000C0F0CD050EA410618BF52EA4306D1D118
:1092E00081EA030101F000414FF0000070BD50EA37
:1092F000410606BF1046194652EA430619D094EAC1
:109300000C0F02D150EA013613D195EA0C0F05D1AA
:1093100052EA03361CBF104619460AD181EA0301FE
:1093200001F0004141F0FE4141F470014FF00000B6
:1093300070BD41F0FE4141F4780170BD70B54FF051
:10934000FF0C4CF4E06C1CEA11541DBF1CEA1355D1
:1093500094EA0C0F95EA0C0F00F0A7F8A4EB0504B3
:1093600081EA030E52EA03354FEA013100F08880AA
:109370004FEA03334FF0805545EA131343EA126373
:109380004FEA022245EA111545EA10654FEA002628
:109390000EF000419D4208BF964244F1FD0404F5E1
:1093A000407402D25B084FEA3202B61A65EB03053D
:1093B0005B084FEA32024FF480104FF4002CB6EBFA
:1093C000020E75EB030E22BFB61A754640EA0C007A
:1093D0005B084FEA3202B6EB020E75EB030E22BFBA
:1093E000B61A754640EA5C005B084FEA3202B6EBFB
:1093F000020E75EB030E22BFB61A754640EA9C00BA
:109400005B084FEA3202B6EB020E75EB030E22BF89
:10941000B61A754640EADC0055EA060E18D04FEA47
:10942000051545EA16754FEA06164FEAC30343EAE7
:1094300052734FEAC2025FEA1C1CC0D111F4801FB4
:109440000BD141EA00014FF000004FF0004CB6E7AD
:1094500011F4801F04BF01430020B4F1FD0C88BF4C
:10946000BCF5E06F3FF6AFAEB5EB030C04BFB6EB57
:10947000020C5FEA500C50F1000041EB045170BD4A
:109480000EF0004E4EEA113114EB5C04C2BFD4EB77
:109490000C0541EA045170BD41F480114FF0000EFB
:1094A000013C90E645EA060E8DE60CEA135594EA77
:1094B0000C0F08BF95EA0C0F3FF43BAF94EA0C0F7A
:1094C0000AD150EA01347FF434AF95EA0C0F7FF4EF
:1094D00025AF104619462CE795EA0C0F06D152EA43
:1094E00003353FF4FDAE1046194622E750EA410627
:1094F00018BF52EA43067FF4C5AE50EA41047FF438
:109500000DAF52EA43057FF4EBAE12E74FF0FF3C9C
:1095100006E000BF4FF0010C02E000BF4FF0010C6D
:109520004DF804CD4FEA410C7FEA6C5C4FEA430CE6
:1095300018BF7FEA6C5C1BD001B050EA410C0CBF35
:1095400052EA430C91EA030F02BF90EA020F002097
:10955000704710F1000F91EA030F58BF994208BFFE
:1095600090422CBFD8176FEAE37040F001007047BB
:109570004FEA410C7FEA6C5C02D150EA013C07D112
:109580004FEA430C7FEA6C5CD6D152EA033CD3D05D
:109590005DF8040B704700BF8446104662468C4657
:1095A0001946634600E000BF01B5FFF7B7FF00288A
:1095B00048BF10F1000F01BD4DF808EDFFF7F4FFB3
:1095C0000CBF012000205DF808FB00BF4DF808ED3E
:1095D000FFF7EAFF34BF012000205DF808FB00BF61
:1095E0004DF808EDFFF7E0FF94BF012000205DF883
:1095F00008FB00BF4DF808EDFFF7CEFF94BF012038
:1096000000205DF808FB00BF4DF808EDFFF7C4FF30
:1096100034BF012000205DF808FB00BF4FEA410C79
:109620007FEA6C5C02D150EA013C0AD14FEA430C5C
:109630007FEA6C5C02D152EA033C02D14FF0000099
:1096400070474FF0010070474FEA410212F50012D7
:1096500015D211D56FF47873B3EB625212D94FEA79
:10966000C12343F0004343EA505311F0004F23FA63
:1096700002F018BF404270474FF00000704750EAB8
:10968000013005D111F0004008BF6FF00040704775
:109690004FF00000704700BF4A0011D212F50012CF
:1096A00011D20DD56FF47873B3EB62520ED44FEA3A
:1096B000C12343F0004343EA505323FA02F07047BA
:1096C0004FF00000704750EA013002D14FF0FF30F8
:1096D00070474FF0000070474FEA4102B2F1E0439B
:1096E00024BFB3F5001CDCF1FE5C0DD901F0004C89
:1096F0004FEAC0024CEA5070B2F1004F40EB8300D9
:1097000008BF20F00100704711F0804F21D113F104
:109710003872BCBF01F00040704741F480114FEA3D
:109720005252C2F11802C2F1200C10FA0CF320FAC6
:1097300002F018BF40F001004FEAC1234FEAD323E3
:1097400003FA0CFC40EA0C0023FA02F34FEA43034D
:10975000CCE77FEA625307D150EA01331EBF4FF0D6
:10976000FE4040F44000704701F0004040F0FE40F1
:1097700040F40000704700BF094B70B51C68256CB1
:1097800006463DB91A20FDF7E5FA1A22206429465B
:1097900000F0F1F9216C3046BDE8704000F002B8ED
:1097A000E0DF032010B50C4641690369826986B089
:1097B00001F26C7104910168039141680291816822
:1097C0000191C1680091074903EB43030B4406492B
:1097D00002EB42020A4420460449FDF7D3FA204630
:1097E00006B010BDB6D60D00A1D60D00DAD60D001C
:1097F0000A22002102F072B810B5054C13462CB1B4
:109800000A4601460220AFF3008010BD204610BD7D
:109810000000000038B5074B1C68E36B05461BB918
:109820002420FDF797FAE063E16B2846BDE8384055
:1098300000F002B8E0DF03200268474BF0B592FB6E
:10984000F3F403FB1422002ABCBF02F5A83202F590
:10985000C0724FF4616004F52F2492FBF0F300FB1B
:1098600013224FF03C00ACBF04F66C2404F66B24CA
:109870008B6092FBF0F300FB13224B600A6007231E
:10988000E21C92FBF3F3C3EBC303D31A8B61334B9C
:10989000334D94FBF5F503FB054448F6AC62B4FB8D
:1098A000F2F2224440F2B457B4FBF7F3D21A2D4837
:1098B000B4FBF0F048F69466131AB3FBF6F63444A2
:1098C00040F26D12B3FBF2F0B3FBF7F3E31A02FBC5
:1098D0001033992403EB83020232B2FBF4F20A2A1A
:1098E00004FB02F404F102064FF00504B6FBF4F4A5
:1098F00034BF02266FF0090616444FF4C87202FB0B
:1099000005055F1C012E98BF0135B3F5997FA7EBC4
:10991000040702D3A3F5997214E0820705D16424E9
:10992000B0FBF4F204FB12024AB94FF4C872B0FB68
:10993000F2F402FB1400B0FA80F2520900E00122B6
:109940003B331A44A5F26C750023CA614D610E6168
:10995000CF600B620846F0BD805101004FC5FDFF8E
:10996000B13A0200B03A020038B5074B1C68E36B0D
:1099700005461BB92420FDF7EDF9E063E16B2846AD
:10998000BDE8384000F002B8E0DF03202DE9F041E7
:109990000C46804602F0EEFD214607464046FFF7A2
:1099A0004BFF466906F26C76B307044605D1642284
:1099B00096FBF2F302FB13634BB94FF4C87596FBA9
:1099C000F5F305FB1365B5FA85F35B0900E00123A8
:1099D0005F4A302505FB032502F0CAF802F0CAF8F9
:1099E0005C4B1B68F3B17B689E4205D13968D8F89F
:1099F0000030FA6941B90AE0304602F011F8002857
:109A0000F4D14FF0FF330DE0934208DB01E09342C5
:109A100007DABA6B9342ACBF0023012302E00023B4
:109A200000E001232362236A012B0CBFF96B396A22
:109A30004FF461633C2091FBF3F603FB161361685E
:109A400093FBF0F200FB12302368891AA268616070
:109A50001B1A921B3B2B2360A26003DD0131616066
:109A60003C3B04E0002B03DA013961603C332360A6
:109A700063683B2B03DD0132A2603C3B04E0002B1A
:109A800003DA013AA2603C336360A368172B22DD3E
:109A9000E2690132E261A2690132062AC8BF0022EE
:109AA000A261E268183B0132A3602369E26055F8C5
:109AB00023108A4246DD01330C2B0CBF63692361FE
:109AC000A2EB0102E26001BF013300222261636167
:109AD00008BFE26136E0002B34DAE269013AE26164
