:02000002D0002C
:1040000000400D00D8C80D00000006000D0005019D
:08401000040129050000000075
:04401800F8B80D00E7
:1040200009480A49884208B505D0094A824202D0A7
:10403000121A05F025FA0748074A0021121A05F05E
:1040400045FA014808BD00BF2CE0032048C70D0019
:1040500094E1032094E10320F0E7032070B504F01D
:104060007FF9074C074BE41AA40800251E46A54219
:1040700004D056F8253098470135F8E770BD00BFE9
:104080003CC50D00E4C40D0001F0FEBB08B501F015
:10409000BDF9BDE8084004F031B902F0E9BB02F017
:1040A000EFBB02F0EDBB0078B0FA80F0400970473A
:1040B0000123037070470368C9B29B681847002248
:1040C0004270704710B50170044604F0DBF903F04C
:1040D00033F90120607010BD70B5064615460C46D8
:1040E00004F0D0F9317803F03EF904F0CBF9210A5D
:1040F000FFF7E1FF04F0C6F9E1B2FFF7DCFF04F0DF
:10410000C1F9036829469B68984704F0BBF9BDE8EC
:10411000704003F033B938B504460D4604F0B2F9E7
:10412000217803F020F904F0ADF9290AFFF7C3FF65
:1041300004F0A8F9E9B2FFF7BEFF04F0A3F903F019
:104140001DF904F09FF90122217803F004F904F02D
:1041500099F903685B699847C0B238BD02F022B98B
:10416000014B01221A7070479CE10320014B012290
:104170001A707047F2E1032010B503682F2B044634
:1041800004D9074A00210A2002F054FA23681F2BA1
:1041900083BF03F01F03236002484FF0A04010BD0F
:1041A00055630D000003005007B502AB43F8040D42
:1041B0001846FFF7E1FF019A01239340C0F8083544
:1041C00003B05DF804FB07B502AB43F8040D1846D5
:1041D000FFF7D2FF019A01239340C0F80C3503B0DA
:1041E0005DF804FB08B5044903F0F9FD18B1034B71
:1041F00005221A70012008BD82BD0D00C9E103200F
:1042000008B5002002F0D4FA28B102F0A9FA80F033
:104210000100C0B208BD012008BD37B59DF81840A7
:1042200023438DF800303C23054602F015FE284656
:1042300003B030BD00231A461946406802F0F0BAB8
:10424000002002F0A7B8000081B20148FFF763BF69
:10425000A4E103200A4681B20148FFF73DBF00BF39
:10426000A4E1032070B5074D84B221462846FFF72C
:1042700052FF611C064689B22846FFF74CFF06EB49
:10428000002070BDA4E1032070B5084D84B20E4635
:10429000CAB228462146FFF71FFF611CC6F307225A
:1042A000284689B2BDE87040FFF716BFA4E103209D
:1042B00008B5114903F093FDE8B100210C20FFF788
:1042C000E3FF00210820FFF7DFFF00210320FFF7B5
:1042D000C1FF12200021FFF7BDFF084A0023136031
:1042E000074A1360074A1360074A1360074A1360BE
:1042F000074A0120137008BD82BD0D00D4E10320E0
:10430000DCE10320D0E1032098E10320C4E1032095
:1043100064E203202DE9F0410F4E84B2214630467D
:10432000FFF7F9FE611C054689B23046FFF7F3FE40
:10433000A11C804689B23046FFF7EDFEE11C07461E
:1043400089B23046FFF7E7FE05EB082505EB074588
:1043500005EB0060BDE8F081A4E1032070B50F4DCE
:1043600084B20E46CAB228462146FFF7B5FE611C4C
:10437000C6F30722284689B2FFF7AEFEA11CC6F39A
:104380000742284689B2FFF7A7FEE11C320E2846F5
:1043900089B2BDE87040FFF79FBE00BFA4E10320D3
:1043A00030B5184D0FCD99B005AC0FC40FCD0FC46B
:1043B0002B68154923600EA802F0EEFA0EA802F051
:1043C0003EFB04460EA802F0A3FB0EA810EE105A06
:1043D00002F084FB18AB10EE100A03EB840404F027
:1043E00069FBCDE90201284604F064FBCDE9000138
:1043F000064A54F84C3C0648402102F061FA19B0D4
:1044000030BD00BF0CB90D00A4E2032036B90D0089
:1044100014E203200000000008B50F2004F01BF890
:1044200004F036FB1DA3D3E9002304F097FB04F04E
:104430008DFEDFED137A07EE100A67EE277A17EE8E
:10444000900A04F037FB00220E4B04F0D3F900224F
:104450000D4B04F083FB04F031FE04F019FB002245
:104460000A4B04F07BFB0022094B04F0A1FC002264
:10447000084B04F0C1F904F021FE074B186008BD99
:10448000000080390000E03F000059400000224059
:104490000000144000004040ECE1032066666666C0
:1044A00066660A4008B50A4B00221146586802F0B9
:1044B000A7F908B1FFF774FFFFF7AEFF054802F058
:1044C000D7FE054BBDEEC00A83ED000A08BD00BF54
:1044D000A4E20320B4E10320D8E1032010B50D4C81
:1044E000236893F8000193F8013103F01F0343EAB6
:1044F0004010FFF759FE236893F8000193F801314B
:1045000003F01F0343EA4010FFF75DFE024B002259
:104510001A7010BD04E20320F2E103201FB51D480C
:1045200003F058F91B4803F009FB1B4B1C78ACB196
:1045300041F2E821174803F0D6F94FF461711548AC
:1045400003F05BFA002211460292019200920123CD
:10455000104803F09AFA41F2700114E041F2700140
:104560000C4803F0C0F940F2DC510A4803F045FA68
:10457000012321460294019400941A46054803F051
:1045800084FA41F21001034804B0BDE8104003F082
:10459000AFBA00BFCAE10320CCE1032008B502F0A6
:1045A000DFF880F00100C0B208BD0000F8B502F0ED
:1045B000CFF8FFF745FE0025044643F6972600276F
:1045C000FFF73EFE001B61EB05018F4208BF8642EC
:1045D00005D3FFF7E3FF10B902F0AAF8F0E7FFF701
:1045E000DDFF0448FFF726FE4FF4FA6002F080F981
:1045F0000120F8BDA4E2032008B500210C20FFF73C
:1046000043FE00210820FFF73FFE03F024FD014692
:104610000E20FFF7A3FE00210320FFF71BFE002161
:104620001220FFF717FE00211220FFF713FE054AA4
:1046300000231360044A1360044A1360044A1360A1
:1046400008BD00BFD4E10320DCE1032098E1032092
:10465000D0E1032010B5074C01F084FE2368C01A96
:10466000B0F57A7F04D301F07DFE2060012010BDFB
:10467000002010BD54E2032008B5FFF7EBFF18B18E
:10468000BDE80840FFF7E6BF02F052F8F5E700008A
:1046900037B502F05DF801F065FE43F69725044654
:1046A00002F05EF840B101F05DFE001BA84203D8A5
:1046B000642002F01DF9F3E70021094B47F2305264
:1046C000084601F0F7FD4FF47A7002F011F9054B3E
:1046D0000A221B680121684603F0B4FB03B030BD19
:1046E0004FB90D00F8E1032038B5046805467CB1E8
:1046F0006368013B63605BB9236820469B68984709
:10470000A368013BA3601BB923682046DB68984778
:10471000284638BD7FB50720FFF796FD064602F014
:104720001FF860B1364B37491B7800228DF8002006
:1047300002A8354AFFF771FD03A8FFF7D5FF304DFA
:10474000082400212046FFF785FDB4F5005F09D15C
:1047500002F006F8002838D000228DF800202B78CF
:104760002A4A2BE0B4F5804F08D101F0F9FF60B37D
:1047700000228DF800202B78254A0AE0B4F5C04FBE
:1047800010D101F0EDFF00B300228DF800202B784E
:10479000204A214902A8FFF740FD03A8FFF7A4FF24
:1047A0000134CEE747F6FF739C420ED101F0D8FFEB
:1047B00078B100228DF800202B78184A164902A8FB
:1047C000FFF72BFD03A8FFF78FFF0134B4F5004F6F
:1047D000B7D131460720FFF73DFD09210020FFF743
:1047E00039FD00210520FFF735FD17210620FFF7D1
:1047F00031FD0A210220FFF72DFD04B070BD00BF7E
:10480000ADE10320B5BC0D005CB90D0072B90D001F
:104810008CB90D00A0B90D0086B90D00B4B90D001A
:1048200008B5044903F0DBFA10B1FFF773FF01206C
:1048300008BD00BF82BD0D002DE9F0437E4D7F4CC9
:104840002B687F4F93F8700093F8713003F01F03CB
:1048500043EA4010C5B0FFF7A7FC01F083FD2368D1
:10486000C01A784B1A889042984645D23E78002E5E
:1048700042D1754B1B7823B101F072FF002840F044
:10488000CC80042003F0D4FD044620BB00F008F9DE
:10489000FFF7F2FE01F064FF58B16C4B6C4A1B78D5
:1048A0006C498DF8004004A8FFF7B7FC05A8FFF796
:1048B0001BFF0720FFF7C8FC674B00F07E0040F0AD
:1048C000100107201970FFF7C5FC644B00221A7015
:1048D000634B01221A702B6893F8700093F87130C3
:1048E00003F01F0343EA4010FFF76DFC5D4B00220D
:1048F0001A7045B0BDE8F08301F034FD5A4E2060D7
:1049000000233B7001F02EFD2368C01AB8F8003078
:10491000984208D20A2001F0EBFF01F023FD30603D
:1049200001F006FFEEE7514E347803F0A5FB844218
:104930004F4C04D003F0A0FB0123307001E023684A
:1049400001334C4A2360236811684B4E4B4FDFF80C
:10495000F8808B42A8BF1360494A1268934218DB63
:104960003268D21A32603A68D31A3B6098F8003045
:104970004FF00009C4F800901BB101F0F1FE0028CF
:104980003CD1404B1968013119601220C9B2FFF7C0
:1049900061FC3168082001313160FFF775FC39682E
:1049A0000C2001313960FFF76FFC03F054FB014626
:1049B0000E20FFF7D3FC98F80030002B3FF461AFD6
:1049C00001F0CEFE00283FF45CAF2C4B2E4A1B6852
:1049D0000093294B4FF480711B6804A801F070FF0D
:1049E000FFF74AFE194B29491B7800228DF8002059
:1049F00002A804AAFFF711FC03A81AE0FFF73CFE87
:104A0000124B234A1B7823498DF8009004A8FFF726
:104A100004FC05A8FFF768FEB3E7FFF72DFE0B4B7C
:104A20001D4A1B781D498DF8006004A8FFF7F5FBAF
:104A300005A8FFF759FE24E704E20320B0E10320B4
:104A4000C8E103200EE203200CE20320ADE10320C5
:104A5000C4B90D0001BB0D00F1E1032002E2032007
:104A600065E203209CE10320D4E60320ACE10320AF
:104A7000C0E1032060E20320D0E1032098E103209D
:104A8000A8E10320D4E10320F2B90D0061BC0D00C0
:104A9000D6B90D00ECB90D000FBA0D0086B90D00A6
:104AA0002DE9F8432348244D406800231A4619464F
:104AB00001F0AEFE01F044FE4FF4967440F2E7368A
:104AC0000027FFF7BDFB4FF000098046FFF7B8FB5A
:104AD000B0EB080061EB09018F4208BF864205D3A5
:104AE00001F03EFE10B901F023FEEFE701F038FEC1
:104AF00078B101F035FE0446C0B10720FFF7A4FBF2
:104B00000E4B40F01000C1B207201970FFF7A2FB56
:104B10000CE02B780BB1FFF78FFE01F023FC084B64
:104B2000186001F005FE013CE3D0CAE72046BDE86D
:104B3000F88300BFA4E203209CE10320F1E10320FD
:104B4000D4E6032010B5204B204C1B68204AC8B087
:104B50004FF4807105931F4B1B6804931E4B1B6819
:104B600003931E4B1B6802931D4B1B6801931D4B47
:104B70001B68009308A8236801F0A2FE1A4B1B498A
:104B80001B7800228DF8002006A808AAFFF745FB35
:104B900007A8FFF7A9FD01F0E5FB154B186003F02E
:104BA00061FAC0B2172808BF2268124B08BF013251
:104BB000187008BF2260104B22681A600F4B012248
:104BC0001A7048B010BD00BF60E20320D0E103209E
:104BD00019BA0D00D4E10320DCE10320ECE103204D
:104BE000D8E1032098E10320ADE1032072BA0D0063
:104BF000A0E10320F0E10320C4E1032064E20320EC
:104C0000F0B585B0084602AF0E4604F0BCFC00F1DA
:104C1000080323F007036D46ADEB030D02AC421C05
:104C20003146204604F0CCFC9DF808605EB9FFF7E1
:104C300023FD01F095FD002837D01E4B1E4A1B783E
:104C40008DF800602AE0204604F00CFBC8380128EB
:104C50001BD8FFF711FD01F083FD60B1154B17491B
:104C60001B7800228DF800203846154AFFF7D5FA48
:104C7000381DFFF739FD03F0EEF901461420FFF768
:104C80006DFB104B00221A700FE001F069FD60B15E
:104C9000084B00221B788DF80020224638460A492E
:104CA000FFF7BBFA381DFFF71FFD0C37AD46BD46B9
:104CB000F0BD00BFADE1032083BA0D00AABA0D001C
:104CC00098BA0D0064E203208BBA0D001FB50E499F
:104CD00003F085F8A8B10D4B0D491B7800228DF823
:104CE000002002A80B4AFFF798FA03A8FFF7FCFC84
:104CF0004FF4FA6001F0FCFD0620012103F07FFB78
:104D0000012005B05DF804FB82BD0D00ADE103207C
:104D1000EFBB0D00B0BA0D0000B52DED028B87B0D2
:104D200003A9006805F07CFAB5EEC00AF1EE10FAAE
:104D3000B0EE408A44D4F1EE047AB4EEE70AF1EE24
:104D400010FA3DDCDFED227A224A60EE277AFDEE92
:104D5000E77A17EE903AF2EE047A60EE277A138043
:104D6000FDEEE77A17EE901A002903DDFF29A8BFB0
:104D7000FF2100E00121C9B20220FFF76BFA18EE13
:104D8000100A03F097FE144ACDE9000108211348E8
:104D900001F096FD124B1B78A3B101F0E1FC88B144
:104DA000FFF76AFC0F4B10491B7800228DF800209A
:104DB00004A80A4AFFF731FA05A8FFF795FC01E0BD
:104DC000002000E0012007B0BDEC028B5DF804FB81
:104DD00000007A440EE20320C8BA0D009CE00320D4
:104DE0000CE20320ADE1032025BD0D0030B52549BF
:104DF00085B0054602F0F3FF0446D8B1224B0124EA
:104E000007201C70FFF720FA204B40F00400C1B2CD
:104E100007201970FFF71EFAFFF780FBFFF72CFC45
:104E200001F09EFC50B31A4B00221B788DF8002035
:104E3000184A1CE01849284602F0D1FFF8B1124B7D
:104E400007201C70FFF700FA104B00F0FB01072051
:104E50001970FFF7FFF9FFF761FBFFF70DFC01F099
:104E60007FFC58B10A4B0D4A1B788DF8004002A810
:104E70000B49FFF7D2F903A8FFF736FC012005B074
:104E800030BD00BF82BD0D00CCE10320F1E1032065
:104E9000ADE10320D2BA0D00E9BA0D00EBBA0D0066
:104EA00001BB0D0030B5234985B0054602F097FFE0
:104EB0000446C8B1204B012407201C70FFF7C4F939
:104EC0001E4B40F00800C1B207201970FFF7C2F96D
:104ED000FFF7D2FB01F044FC40B3194B00221B78D2
:104EE0008DF80020174A1AE01749284602F077FF8C
:104EF000E8B1114B07201C70FFF7A6F90F4B00F02B
:104F0000F70107201970FFF7A5F9FFF7B5FB01F0CE
:104F100027FC58B10A4B0D4A1B788DF8004002A8B7
:104F20000B49FFF77AF903A8FFF7DEFB012005B074
:104F300030BD00BF82BD0D000CE20320F1E1032073
:104F4000ADE1032006BB0D00E9BA0D0017BB0D0053
:104F500001BB0D0030B5CDB0044603F07CF80A2249
:104F6000054605A9206805F001FAC4B204F10C0356
:104F7000DBB2182B40D843B207EE903AB8EEE70AFE
:104F8000039303F009F821460420FFF763F9039B1C
:104F90001C4A4FF480710CA801F092FCFFF76CFBE7
:104FA00001F0DEFB60B1184B18491B7800228DF828
:104FB000002008A80CAAFFF730F909A8FFF794FB16
:104FC000FFF75AFB01F0CCFBC0B1294608A802F05C
:104FD000FFFF089B03930C4B0C491B7800228DF8B4
:104FE000002006A8039AFFF718F907A8FFF77CFB33
:104FF00008A802F080FE01E0002000E001204DB092
:1050000030BD00BF2CBB0D00ADE1032098BC0D00EE
:1050100010B5C6B00A2203A9006805F0A7F9172841
:105020001FD8124CC1B220600520FFF713F9236886
:105030000F4A4FF4807106A801F042FCFFF71CFBF9
:1050400001F08EFB78B10B4B0B491B7800228DF8D9
:10505000002004A806AAFFF7E0F805A8FFF744FB24
:1050600001E0002000E0012046B010BD5CE203201A
:1050700040BB0D00ADE1032098BC0D0010B5C6B0DB
:105080000A2203A9006805F071F917281FD8124CED
:10509000C1B220600620FFF7DDF823680F4A4FF405
:1050A000807106A801F00CFCFFF7E6FA01F058FB4E
:1050B00078B10B4B0B491B7800228DF8002004A817
:1050C00006AAFFF7AAF805A8FFF70EFB01E00020EB
:1050D00000E0012046B010BD08E2032054BB0D00E3
:1050E000ADE1032098BC0D002DE9F0434E4985B099
:1050F000054602F074FE30B94C49284602F06FFEB6
:10510000002800F08E800720FFF79EF8484C4649A3
:105110002070284602F063FE064600B3454B1B781C
:105120001BB101F01DFB002859D12378404DD90651
:105130000FD501F00DFB2B783F4823F010032B70A7
:105140003E4B00221A70FFF775F84FF47A7001F0A9
:10515000CFFB237843F001032370012237E033496A
:10516000284602F03CFE002833D0324B1B781BB19E
:1051700001F0F6FA002842D12378DA0622D42C4A2C
:1051800043F01003137001F0DBFAFFF759F8002722
:1051900006464EF65F284FF00009FFF751F8801BD6
:1051A00061EB0701894508BF804503D301F0D8FAB8
:1051B000002833D001F0D4FA01F0D4F8204B186065
:1051C00001F0B6FA237823F00103237000221D4B6F
:1051D0001A7007202178FFF73DF8012021E0FFF742
:1051E0004BFA194B19491B7800228DF8002002A8B0
:1051F000174AFFF712F803A8FFF776FA95E7FFF7CB
:105200003BFA114B134A1B7810498DF8006002A835
:10521000FFF703F803A8FFF767FAADE701F088FA94
:10522000BBE705B0BDE8F08382BD0D00E9BA0D0013
:10523000F1E103200CE20320A4E2032065E2032055
:10524000D4E6032002E20320ADE1032001BB0D0000
:105250006BBB0D00C4B90D0010B5C6B00A2203A97E
:10526000006805F083F8831E1C2B1FD8124CC1B2B6
:1052700020601320FEF7EEFF2368104A4FF4807180
:1052800006A801F01DFBFFF7F7F901F069FA78B104
:105290000B4B0C491B7800228DF8002004A806AAAD
:1052A000FEF7BBFF05A8FFF71FFA01E0002000E0B2
:1052B000012046B010BD00BFA8E1032075BB0D0062
:1052C000ADE103208CBB0D0030B5164D164C1749CF
:1052D0002A7820788FB00E2303FB0212009203FB82
:1052E0000013134A282104A801F0EAFA2B7823704E
:1052F00001F036FA70B1FFF7BFF90E4B0E491B787B
:1053000000228DF8002002A804AAFEF786FF03A859
:10531000FFF7EAF902F0AEFF04A902F05BFC0FB060
:1053200030BD00BFC9E10320BCE103202CE0032015
:1053300093BB0D00ADE10320A1BB0D002DE9F043AF
:10534000072085B0FEF780FF274C2070FFF794F907
:10535000264B274A1B782749002502A88DF80050C4
:10536000FEF75BFF03A8FFF7BFF9234B1D702378FF
:1053700023F00803237001F0F3F910B1284601F07F
:105380000FFAFEF75DFF0027064647F22F584FF051
:105390000009FEF755FF801B61EB0701894508BF37
:1053A000804505D3FEF72CFF10B901F0C1F9F0E7F5
:1053B000FEF726FF114B1B781BB9114B1B68462BC0
:1053C0000ADC23780F4A012123F010030B432370DA
:1053D0000D4B117000221A7021780720FEF73AFF5A
:1053E00005B0BDE8F08300BFF1E10320ADE103208B
:1053F000B2BB0D00BABB0D000CE20320CCE10320D0
:10540000D8E1032002E2032065E20320F0B5A54CB9
:105410002378013B89B0052B00F2F081DFE813F01F
:105420007A0106005E009900EA000B019E4B1A7893
:105430001D462AB19D4B1B78022B01D0FFF744FF7C
:105440009B4B1B7843B1FFF749F801F089F918B17C
:105450002B78002B40F0DA81964B1B780BB1FFF7CD
:10546000EBF9954E954D3168A9B1954A1368591AD3
:105470001160082089B2FEF707FF924B00211960E6
:10548000914B316012201960FEF7E4FE2B78172B48
:1054900001D1FFF7B1F88D4B1B784BB100F062FFE3
:1054A0008B4B1B68C01A8B4B1B68984200F2BE8165
:1054B00002F0D8FD2B7898421CBF0523237002F020
:1054C000D1FD854B1B68984200F3B38102F0CAFD01
:1054D000824B1B689842C0F2AC818FE1724B1B7803
:1054E0002BB1724B1B78032B01D0FFF7EDFE0C2084
:1054F00001F088FF7A4B1B6893F8E00093F8E130E5
:1055000003F01F0343EA4010FEF74EFE6C4B1B688E
:105510000BB10523C3E0734B1B780BB1FFF746F8C3
:105520000021072002F06BFF02F095FD4FF461634C
:1055300090FBF3F202FB13001A1A6B4BB2F5616F8A
:105540001B68A8BF4FF46162012106A802F07AFC33
:1055500054E1554B1B782BB1544B1B78042B01D0D5
:10556000FFF7B2FE534E337803F0FF07002B40F0F5
:1055700045815E4D2B78DA060CD5FFF717F807202A
:10558000FEF762FE574B00F0EF01072029701F70F5
:10559000FEF760FE564B1A884E4B1A6002F05BFD18
:1055A0000746FEF79BFF504B0C221B68ADF81620F8
:1055B0004FF46162029397FBF2F302FB1370101A2F
:1055C0009042A8BF1046012501900DF115030095EA
:1055D0002A460DF1160106A88DF8155002F062FC5E
:1055E00033782BB1434B1D7000F0BCFE384B186074
:1055F000022354E02C4B1B782BB12C4B1B78052B32
:1056000001D0FFF761FE394B1B78DB0601D4FFF7B1
:1056100047FA01F0A5F8002840D002F023FD2E4BF8
:105620001B68984201D1FFF789FEFEF73BFFFFF7A9
:1056300089FA062333E01C4B1B782BB11B4B1B78DC
:10564000062B01D0FFF740FE2B4B1B784BB90223F2
:105650002370204B294A1A6000F084FE1C4B18600E
:10566000CCE000F07FFE264B1B68C01A4AF6C873D8
:10567000984240F2C38000F075FE224B1860FEF79E
:10568000FBFF214B21491B7800228DF8002006A842
:105690001F4AFEF7C2FD07A8FFF726F80123237073
:1056A000ACE000BFC9E103200CE20320BCE1032011
:1056B000F2E103209CE10320C4E10320F0E1032098
:1056C000D0E1032060E20320D4E1032002E20320C2
:1056D00010E20320F4E1032008E203205CE203204F
:1056E00004E2032065E20320F8E10320F1E1032056
:1056F0000EE20320C8E1032064E20320905F010072
:10570000A0E1032058E20320ADE10320C8BB0D0057
:105710005BB90D00484B1B782BB1484B1B78012B14
:1057200001D0FFF7D1FD00F01DFE454B1B6803F5CE
:10573000EA433033984261D9424B1B68032B18DC93
:10574000FEF79AFF01F00CF860B13F4B3F491B7820
:1057500000228DF8002006A83D4AFEF75EFD07A84E
:10576000FEF7C2FF4FF4FA6001F0C2F802F066FBE8
:1057700044E002F070FC04461420FEF7CBFD201A32
:10578000B0F5E15F1ED9FEF777FF00F0E9FF60B1E9
:105790002D4B2E491B7800228DF8002006A82D4A9B
:1057A000FEF73BFD07A8FEF79FFF4FF4FA6001F0FC
:1057B0009FF800210320FEF74DFD0121062002F095
:1057C0001EFE1BE0FEF758FF00F0CAFF60B11E4B43
:1057D0001E491B7800228DF8002006A81E4AFEF7FD
:1057E0001CFD07A8FEF780FF4FF4FA6001F080F877
:1057F00000210320FEF72EFDFEF74AFF174800F0B8
:1058000047FC174800F0BCFB09B0F0BDFEF734FFC1
:105810000D4B14491B7800228DF8002006A8124A6F
:10582000FEF7FBFC07A8FEF75FFF15E604232370D5
:105830003EE6032333E700BF0CE20320BCE1032074
:1058400058E20320DCE10320ADE10320AABA0D00F9
:10585000E1BB0D00F5BB0D000FBC0D00E0E1032026
:1058600068E2032035BC0D002EBC0D00002304228D
:1058700000F04EBF0023022200F04ABF024601485A
:1058800001F0CAB9ED6B0D002DE9F04F0021ADB06C
:10589000082002F0A3FD00210D2002F09FFD6F4DB6
:1058A000DFF898A20021042002F098FD01210720D2
:1058B00002F094FD2B6893F8000193F8013103F096
:1058C0001F0343EA4010FEF77EFC2B6893F860004C
:1058D00093F8613003F01F0343EA4010FEF773FCB6
:1058E00003210C2002F07AFD01210E2002F076FD4A
:1058F0002B6893F8E00093F8E13003F01F0343EACC
:105900004010FEF760FC01210B2002F067FD2B68C0
:1059100093F8B00093F8B13003F01F0343EA40104E
:10592000FEF742FC01211020002402F057FD012166
:10593000062002F053FDFEF7D1FD4FF0FF330122A8
:1059400047490094082001F033FD04A800F010FF3F
:1059500023467D220CA904A802F053FA23462246CE
:105960004049019400940CA800F012FF3E493F48C2
:10597000FFF780FF3E493F48FFF77CFF3E493F4825
:10598000FFF774FF3E493F48FFF774FF3E493F4829
:10599000FFF770FF3E493F48FFF768FF3E493F4829
:1059A000FFF768FF234601223D493E4800F0B0FE64
:1059B0003D493E48FFF75EFF3D493E48FFF75AFF2D
:1059C0003D493E48FFF752FF3D493E48FFF752FF31
:1059D0003D493E48FFF74EFF3D493E48FFF74EFF29
:1059E0003D493E48FFF74AFF3D493E48FFF746FF25
:1059F0003D493E48FFF742FF3D493E48FFF73EFF25
:105A00003D493E48FFF73AFF3D493E48FFF736FF24
:105A10003D493E48FFF732FF3D493E48FFF72EFF24
:105A20003D493E48FFF72AFF3D493E48FFF726FF24
:105A30003D493E48FFF722FF3D4800F0D9FB3D4875
:105A400000F09CFA50213C48FEF73CFB02950028F0
:105A500076D101238AF800307FE000BF04E2032002
:105A60006D410D00014C0D00D0E103203EBC0D0046
:105A700098E103204ABC0D0014E2032055BC0D0040
:105A8000DCE103205CBC0D00ECE1032067BC0D00F1
:105A900030B90D0073BC0D00D8E103207BBC0D00B4
:105AA00002E2032086BC0D005CE203200EBD0D0067
:105AB00008E2032093BC0D009CE0032025BD0D00EF
:105AC000A8E103209DBC0D00D4E10320A9BC0D007A
:105AD00021480D00B0BC0D00B1420D00BABC0D0054
:105AE000CD4C0D00C6BC0D00E5410D00D0BC0D0035
:105AF000E9500D00D8BC0D00ED4D0D00E5BC0D00CA
:105B0000A54E0D00F0BC0D00554F0D00FDBC0D0065
:105B100011500D000ABD0D007D500D0017BD0D0088
:105B2000194D0D0021BD0D0059520D002EBD0D0067
:105B3000E0E1032068E20320A4E10320C9E103209F
:105B40002046FEF781FB092807D0FEF7E3FD20463B
:105B5000FEF77AFB09287FF47CAF1220FEF774FB76
:105B6000914B924D18602CAC0320FEF76DFB002684
:105B700044F8906D286032463146204600F0DAFB4A
:105B8000089B142B00F0FC803246314620460896D4
:105B900000F0D0FB089B8C2B00F0F2800220FEF777
:105BA00053FB00EB800000EB8000800080B2A0F18E
:105BB000650340F26B729BB293427D4B7D4E92BF68
:105BC00018804FF4FA721A8018887B4D7B4FDFF8EB
:105BD0002C92DFF82C8202F05BFF794B002203F05D
:105BE000E7F8784ACDE900010821774800F068FE1F
:105BF0000520FEF729FB16288CBF002330604FF0EC
:105C0000060088BF3360FEF71FFB431E162B8CBFB8
:105C1000172328604FF0040088BF2B60FEF714FBA9
:105C200000F10B03DBB2162B9BBF43B200EE103A20
:105C3000B9EE040AB8EEC00A02F0AEF91320FEF77E
:105C400003FB831E1C2B614B8CBF0A2218604FF094
:105C5000070088BF1A60FEF7F7FA00F001025C4BFC
:105C60003A705C4A1870C0F3C0011170C0F3800232
:105C7000C0F30010039389F8002088F80000FEF7B5
:105C80004DFC02F0EFF9544A107002F0FFF9534A4C
:105C900010700E20FEF73EFB83460C20FEF7E2FA62
:105CA0004F4A10600820FEF7DDFA4E4A10600420CB
:105CB00002F0BEFB039BB0B91978387021F00101E6
:105CC000012241F010010720197088F80020FEF72A
:105CD000C1FA02F0C7F92B68984259DC02F0C2F908
:105CE0003368984254DB3D4B58461B78039302F0CF
:105CF0004BF9039B834210D0FEF77EFC99F80030ED
:105D00005BB13B784BB93849204602F03BF820465E
:105D1000FFF7EAF9204601F0EEFF2F4B2A681B78C7
:105D2000934215DC3268934212DB00230093012278
:105D30004FF0FF332D490C2001F03AFB98F800306A
:105D40000BB1FEF7ADFEFEF7ADFB294B294A1A60F9
:105D5000029B1B6893F8B00093F8B13003F01F0367
:105D600043EA4010FEF72FFA9AF8003013B9224B9D
:105D700002221A7004A801F0BEFF2DB0BDE8F08F1A
:105D80002968013129600320C9B2FEF763FA05E7EB
:105D9000002105203160FEF75DFA172106202960F9
:105DA000FEF758FA9FE700BFD4E10320DCE10320AF
:105DB0000EE203205CE2032008E2032002E203205B
:105DC00000408F40C8BA0D009CE00320A8E10320EA
:105DD000F1E103200CE20320F0E10320CBE10320FA
:105DE00098E10320D0E1032082BD0D0061410D0048
:105DF000F4E10320905F0100C9E10320CCE103201E
:105E000065E20320264B70B500241C60254B264E0E
:105E100001251D7000F0C6FA244B18602448FEF7D7
:105E20004EF9244B4FF6FF721C705C809A80022062
:105E300000F018FC2146284600F02CFC29460420DE
:105E400000F068FA1C4D2146304601F0D1F9304689
:105E50001A4E1B492A4602F077FB21463046194C60
:105E600001F0CFFC2A461849304602F06DFB174975
:105E7000204600F0EBF82046154C16492A4602F061
:105E800063FB4FF461612046B2EE0E0A00F03AF86F
:105E90002A4620461049BDE8704002F055BB00BFBD
:105EA000F8E10320ADE10320B4E1032004E2032084
:105EB000A4E10320FCE1032094E10320CAE10320D4
:105EC0000F720D00E0E1032021780D003FBD0D00B1
:105ED00068E203203D600D00F35E0D0010B583689D
:105EE000044613B1032201469847204610BD00F036
:105EF00059BA704710B51021044602F02AFB20461B
:105F000010BD0000034A0260002280ED010A81609A
:105F1000C26070478CBD0D0010B52DED028B04469C
:105F200082B0134801F0A4F9B5EE400AF1EE10FA80
:105F3000B0EE408A18D0D4ED017AB4EEE70AF1EE63
:105F400010FA11D50B4801F0A4FC68B9FDEEC87A2F
:105F50000D2017EE901A00F079F9074BA2681B6824
:105F60000121684601F06EFF02B0BDEC028B10BD4E
:105F700078E2032084E2032080E20320FFF7CCBF15
:105F800010B5044600F0EEF9E368C01A4EF65F2340
:105F9000984207D900F0E6F9E0602046BDE81040DD
:105FA000FFF7BABF10BD000070B50E4B0E4D0F4E7F
:105FB00000241C6000F0F6F92146284601F018F98B
:105FC00028460B4D0B49324602F0BEFA21462846C0
:105FD00001F017FC324628460749BDE8704002F040
:105FE000B3BA00BF80E2032078E2032094E10320EB
:105FF00084E203200F720D0021780D000EB400B56D
:106000008CB00DAA202352F8041B03928DE80600E1
:1060100004930168002304AA1E20059300F012FBDC
:106020000CB05DF804EB03B070470000024B002297
:106030001A6000F0B7B900BF88E20320704710B5BE
:106040000C21044602F085FA204610BD034A026086
:1060500000228260024A4160106070474CBE0D0011
:1060600090E2032010B5044600F07AFB48B100F03E
:1060700079F9A368C01A40F2F133984294BF002026
:10608000012010BD10B5044600F06CF9A06010BDF1
:106090002DE9F043344D6B68D5B00746002B5FD037
:1060A000FFF7E0FF00285BD04FF000082E46444683
:1060B0006B689C421BD27369029333690193F36846
:1060C0000093B368294A402104A800F0F9FB00EBD3
:1060D0000809B9F1FF0F06F1100608D814AB03EB5D
:1060E000080004A903F02CFA0134C846E0E76A6806
:1060F0001D4E121B6A607AB11D491E48FFF77EFFD4
:10610000736806EB04114FF402725A43083106F12A
:10611000080003F0C0F904E0224617491548FFF7CC
:106120006DFF164B1B788DF8003014AA3C2379685C
:1061300004A800F091FE059C7CB16368013B63609C
:106140005BB9236820469B689847A368013BA3601E
:106150001BB923682046DB6898473846FFF792FF53
:1061600055B0BDE8F08300BF00F4032094BD0D00DE
:10617000A3BD0D006CE30320D1BD0D008CE2032014
:106180002DE9F041164C63681F2B0F4690460FD93E
:1061900014491548FFF732FF63684FF40272013B60
:1061A0005A4304F1180104F10800636003F073F925
:1061B0006668751C656001F04EFF04EB06162D0144
:1061C000B06000F0CFF86319F060C3F80480675145
:1061D00043463A4605490448FFF710FFBDE8F08101
:1061E00000F40320E0BD0D006CE30320F5BD0D00BD
:1061F00073B5124C124B22689A4206461D4602D1D4
:106200006368202B06D90F490F48FFF7F7FE0023DC
:1062100025606360002211463046FFF7B1FF02A8F7
:10622000002240F8042D114600F084F8019A1AB1BA
:1062300012213046FFF7A4FF02B070BD00F4032026
:1062400016D4395C16BE0D006CE30320044B1B68AA
:106250000A461BB101461846FFF792BF704700BFC0
:1062600090E20320024B01221A7000F09BB800BF9D
:106270008CE20320024B01221A7000F093B800BF99
:1062800094E20320044B00221A60044A01231360A5
:10629000034A137000F086B898E203209CE20320C2
:1062A00095E2032008B5024B1B685B6C019308BDA7
:1062B0007402030008B5024B1B689B6C019308BD78
:1062C0007402030008B5024B1B689B68019308BD6C
:1062D0004802030008B5024B1B681B69019308BD07
:1062E0004802030008B5024B1B685B69019308BDB7
:1062F0004802030008B5024B1B681B6B019308BDE5
:106300004802030008B5024B1B685B6C019308BD93
:106310004802030008B5024B1B685B6E019308BD81
:106320003402030008B5024B1B689B6E019308BD45
:106330003402030008B5024B1B68DB6E019308BDF5
:106340003402030008B5024B1B685B68019308BD6B
:106350001802030008B5024B1B68DB68019308BDF7
:106360001802030008B5024B1B685B69019308BD66
:106370001802030008B5024B1B68DB69019308BDD6
:106380001802030008B5024B1B689B6D019308BD02
:106390001802030008B5024B1B68DB6D019308BDB2
:1063A0001802030008B5024B1B681B68019308BD67
:1063B0002C02030008B5024B1B685B68019308BD03
:1063C0002C02030008B5024B1B689B68019308BDB3
:1063D0002C02030008B5024B1B68DB68019308BD63
:1063E0002C02030008B5024B1B681B69019308BD12
:1063F0002C02030008B5024B1B685B69019308BDC2
:106400002C02030008B5024B1B689B69019308BD71
:106410002C02030008B5024B1B68DB69019308BD21
:106420002C02030008B5024B1B681B6B019308BDCF
:106430002C02030008B5024B1B68DB68019308BD02
:106440002802030008B5024B1B685B69019308BD75
:106450002802030008B5024B1B689B69019308BD25
:106460002802030008B5024B1B68DB69019308BDD5
:106470002802030008B5024B1B681B6A019308BD84
:106480002802030008B5024B1B685B6A019308BD34
:106490002802030008B5024B1B689B6A019308BDE4
:1064A0002802030008B5024B1B68DB6A019308BD94
:1064B0002802030008B5024B1B681B6B019308BD43
:1064C0002802030008B5024B1B685B6B019308BDF3
:1064D0002802030008B5024B1B681B6C019308BD22
:1064E0002802030008B5024B1B689B6C019308BD92
:1064F0002802030008B5024B1B68DB6C019308BD42
:106500002802030008B5024B1B685B69019308BDB4
:106510006402030008B5024B1B689B68019308BD29
:106520006802030008B5024B1B68DB68019308BDD5
:106530006802030008B5024B1B68DB69019308BDC4
:106540003002030008B5024B1B681B6A019308BDAB
:106550003002030008B5024B1B681B68019308BD9D
:106560003C02030008B5024B1B68DB68019308BDC1
:106570003C02030008B5024B1B681B69019308BD70
:106580003C02030008B5024B1B685B69019308BD20
:106590003C02030008B5024B1B689B69019308BDD0
:1065A0003C02030008B5024B1B68DB69019308BD80
:1065B0003C02030008B5024B1B681B6A019308BD2F
:1065C0003C02030008B5024B1B689B6A019308BD9F
:1065D0003C02030008B5024B1B681B68019308BD11
:1065E0004C02030008B5024B1B681B69019308BDF0
:1065F0004C02030008B5024B1B685B69019308BDA0
:106600004C02030008B5024B1B689B69019308BD4F
:106610004C02030008B5024B1B68DB69019308BDFF
:106620004C02030008B5024B1B681B6A019308BDAE
:106630004C02030008B5024B1B685B6B019308BD5D
:106640006002030008B5024B1B685B6D019308BD37
:106650006002030008B5024B1B681B68019308BD6C
:106660002002030008B5024B1B685B68019308BD5C
:106670002002030008B5024B1B685B69019308BD4B
:106680002002030008B5024B1B689B69019308BDFB
:106690002002030008B5024B1B68DB6A019308BDAA
:1066A0002002030008B5024B1B68DB6C019308BD98
:1066B0002002030008B5024B1B685B6D019308BD07
:1066C0002002030008B5024B1B689B6D019308BDB7
:1066D0002002030008B5034B1B68D3F888300193F0
:1066E00008BD00002002030008B5034B1B68D3F867
:1066F0009430019308BD00002002030008B5034B4D
:106700001B68D3F8A030019308BD000020020300ED
:1067100008B5024B1B681B68019308BD44020300C7
:1067200008B5024B1B685B68019308BD4402030077
:1067300008B5024B1B689B68019308BD4402030027
:1067400008B5024B1B68DB68019308BD44020300D7
:1067500008B5024B1B681B69019308BD4402030086
:1067600008B5024B1B685B69019308BD4402030036
:1067700008B5024B1B68DB69019308BD44020300A6
:1067800008B5024B1B681B6A019308BD4402030055
:1067900008B5024B1B685B6A019308BD4402030005
:1067A00008B5024B1B68DB6A019308BD4402030075
:1067B00008B5024B1B681B6B019308BD4402030024
:1067C00008B5024B1B68DB6B019308BD4402030054
:1067D00008B5024B1B685B68019308BD40020300CB
:1067E00008B5024B1B689B68019308BD400203007B
:1067F00008B5024B1B68DB68019308BD400203002B
:1068000008B5024B1B681B69019308BD40020300D9
:1068100008B5024B1B685B69019308BD4002030089
:1068200008B5024B1B689B69019308BD4002030039
:1068300008B5024B1B68DB69019308BD40020300E9
:1068400008B5024B1B681B6A019308BD4002030098
:1068500008B5024B1B681B6B019308BD4002030087
:1068600008B5024B1B685B6B019308BD4002030037
:1068700008B5024B1B681B68019308BD1C0203008E
:1068800008B5024B1B685B68019308BD1C0203003E
:1068900008B5024B1B689B68019308BD1C020300EE
:1068A00008B5024B1B681B69019308BD1C0203005D
:1068B00008B5024B1B689B69019308BD1C020300CD
:1068C00008B5024B1B68DB69019308BD1C0203007D
:1068D00008B5024B1B68DB6A019308BD1C0203006C
:1068E00008B5024B1B681B6B019308BD1C0203001B
:1068F0000021FFF7BFBE10B5836804460BB901F055
:106900002AFEC3689847A3681BB10322214620468C
:10691000984720461021BDE8104001F01ABE0B68D0
:10692000036013B15A6801325A607047024800236D
:106930000360FFF7E7BC00BFA0E20320002211467E
:106940004068FFF75DBF002211464068FFF778BF3F
:10695000002211464068FFF783BF00224068FFF71E
:1069600077BF002281F001014068FFF761BF00237B
:106970001A4619464068FFF74BBF0022114640688F
:10698000FFF72EBF002202214068FFF731BF00232E
:106990001A464068FFF71CBFF0B51B4B036000258B
:1069A0000F462833182689B043608560C56032469B
:1069B00029460446103002F089FD2A4629467868A7
:1069C000FFF71EFF08B9A0601BE02946324602A867
:1069D0000095019502F07AFD02A96846ADF80860BD
:1069E000FFF760FC10B10123A3600AE0009B019A4D
:1069F000A360E2600BB90223A36002A9204600F065
:106A0000A1F8204609B0F0BD90BE0D0038B5084C85
:106A100028252A460021204602F058FD4FF0FF337A
:106A20006360044B258004225A60034A1A6038BD13
:106A3000ACE20320A4E203205CBE0D007047007DA1
:106A400070470000037D1BB18369B3F1004F02D191
:106A50009FED050A704707EE903A9FED047AF8EE35
:106A6000E77A87EE870A7047000000000000C842FE
:106A7000037D1BB1036AB3F1004F02D19FED050AFC
:106A8000704707EE903A9FED047AF8EEE77A87EECA
:106A9000870A7047000000000000C84270B50D462C
:106AA00006460A228168284601F0EFF82C210446A8
:106AB000284601F080F80A220444F168284601F0D3
:106AC000E4F8204470BDA0F10400FFF7E7BF10B563
:106AD0002821044601F03DFD204610BD037D7BB119
:106AE000436A002B0CDB07EE903ADFED076A9FED5F
:106AF000070AB8EEE77AC7EE267A27EE800A7047D3
:106B0000BFEE000A704700BF00FF7F470000C84289
:106B1000037D7BB1C369002B0CDB07EE903ADFED00
:106B2000076A9FED070AB8EEE77AC7EE267A27EEE6
:106B3000800A7047BFEE000A704700BF00FF7F4722
:106B40000000C84230B50D4600F110040FCD0FC44F
:106B500095E8030084E80300012030BD7047002061
:106B6000704710B51021044601F0F3FC204610BD1B
:106B700008B508B1FFF7F5FF08BD0022026010B5A7
:106B80004FF69C728280B1F9044084808A8002684A
:106B90000C6804600A6010BD10B504460068FFF779
:106BA0006FFE204610BD38B5C468F4B12378022BBF
:106BB00003D104F10C00FFF7EFFF656835B12846FB
:106BC000FFF78CF91021284601F0C3FCA56835B108
:106BD0002846FFF783F91021284601F0BAFC204629
:106BE0001421BDE8384001F0B4BC38BD10B588B000
:106BF0000446684601F0C6F8694604A801F0E4F8C6
:106C000004A8A047044604A801F075F8684601F0FE
:106C100072F8204608B010BDF0B5102485B00746C4
:106C20000E46154600212246684602F04FFC00221F
:106C300069461046ADF80040029703960195FFF7AC
:106C40006FFD05B0F0BD13B5044691E805000023C3
:106C50004B600B602060626001A801930093FDF718
:106C600043FD204602B010BDF7B50C4602AD54F806
:106C7000043B45F8083D06460F4601A82146FFF7AC
:106C80004EFE29463046FFF7DEFF01A8FDF72CFD3A
:106C90002046FDF729FD3846082101F05AFC304610
:106CA00003B0F0BD13B50B46044603C88DE80300DE
:106CB00093E8030084E803009DE8030083E80300F1
:106CC00002B010BD38B500230446036010200D4605
:106CD000FDF7E3F928B1012343608360024B0360B1
:106CE000C5602060204638BDC4BE0D00826810B566
:106CF0000AB901F030FCC368BDE81040184708B578
:106D0000006800F11001FFF7F1FF08BD826810B5BF
:106D10000AB901F020FCC368BDE81040184708B567
:106D2000006800F11001FFF7F1FF08BD38B500233E
:106D300083608B6804460D462BB102229847EB68AE
:106D4000E360AB68A360204638BD0000F0B589B0B1
:106D500004686846FFF711FF00238DF808304FF0F4
:106D60000202D4E84F3F002B03D1C4E8412F002991
:106D7000F7D102D08DF8083063E014F10C0503D090
:106D800069462846FFF7F9FEBFF35F8F0123637062
:106D9000002004F10803BFF35F8F53E8006F43E85E
:106DA0000002002AF9D1BFF35F8F002E49D0FFF710
:106DB00079FC20B129463046FFF798FF3AE031468A
:106DC00002A8FFF7B3FFE068B4F9105008B102F071
:106DD000BFFB06901020ADF81C50FDF75EF905468C
:106DE000E8B1002787601820FDF757F9044688B1FD
:106DF0000146876002A8FFF755FF049BA268A360C5
:106E0000059B049206A9E268E36004F11000059274
:106E1000FFF7B3FE0D4BEB600D4B2C60AB6006A88B
:106E2000FFF7BAFE02A8FFF759F8002229460948E1
:106E3000FFF740FC3046FFF751F81021304601F0D3
:106E400088FB6846FFF7A8FE09B0F0BDFF6C0D0097
:106E5000756F0D00F7680D002DE9F04F8BB00646F9
:106E60000F46904699469DF850A0FFF779FC07AD74
:106E7000834630BB4FF62E73059005A92846ADF822
:106E80001830FFF77AFE1420FDF707F9044658B1D1
:106E90000223037001234370C0F804B0C0F808B0A7
:106EA00029460C30FFF769FE3046214640F8044B76
:106EB000FFF708FF2846FFF76FFE05A8FFF76CFEF7
:106EC00052E000240C2314206C60AC600793FDF7A3
:106ED000E4F8014618B1047044704460846004A86A
:106EE0000391FFF7EFFE224B08930820FDF7D5F83A
:106EF000044628B1039B40F8043B04A9FFF70FFDAB
:106F000000955FFA8AF34A46414638460994FFF7EE
:106F100037FC20B9039B5B7803F0FF0283B1039B2E
:106F2000059304A906A8FFF7FAFC05A93046FFF768
:106F30008AFE06A8FDF7D8FB04A8FDF7D5FB13E0F1
:106F40004FF69C7305A903A80592ADF81830FFF71A
:106F5000FDFE05A8FFF720FE05A80999FFF784FEAE
:106F600006A8FDF7C1FBDAE730460BB0BDE8F08FAD
:106F7000E5700D00022AF8B5044606D0032A17D0A2
:106F8000012A22D10B6803601FE018200E68FDF76C
:106F900084F8054650B13146FFF7C8FE3069B6F9AE
:106FA000147008B102F0D4FA2861AF8225600CE0B9
:106FB000046854B104F11000FFF7EEFD2046FEF71F
:106FC0008DFF1821204601F0C4FA0020F8BD38B525
:106FD000002383608B6804460D462BB1022298473C
:106FE000EB68E360AB68A360204638BD022A70B549
:106FF000044606D0032A11D0012A18D10B68036079
:1070000015E014200E68FDF748F8054620B131461A
:10701000FFF7DDFF337C2B74256008E0046834B192
:107020002046FEF75BFF1421204601F092FA002073
:1070300070BD0000F0B5002387B00C46BFF35F8F32
:1070400050E8006F40E80032002AF9D1BFF35F8FAB
:10705000002E3FD01846FFF725FB074620B12146FA
:107060003046FFF753FE2EE0314601A8FFF7AFFF91
:1070700023788DF814301020FDF70FF80546D0B1B5
:1070800087601420FDF709F8044678B1876001464F
:1070900001A8FFF707FE039BA268A360049B03926D
:1070A000E268E3609DF81430049223740A4BEB60AD
:1070B0000A4B2C60AB6001A8FEF710FF00222946A6
:1070C0000748FFF7F7FA3046FEF708FF1021304671
:1070D00001F03FFA07B0F0BD1F6D0D00ED6F0D0020
:1070E000F7680D0030B585B004460D466846114678
:1070F000FFF7BAFD7CB124B228460DB102F028FAA0
:10710000029002A96846ADF80C40FFF71FFE02A8E6
:10711000FFF742FD1DE000988DF808404FF0010296
:10712000D0E84F3FA34203D1C0E8412F0029F7D157
:1071300002D08DF808300CE010F10C014FF0010383
:1071400018BF0373BFF35F8F043000F8033CFFF7F1
:1071500071FF01A8FDF7C8FA05B030BD0022114645
:107160004068FFF76DBB002211464068FFF778BB0F
:1071700000224068FFF76CBB002281F001014068EB
:10718000FFF756BB00231A4619464068FFF748BB75
:1071900000231A4619464068FFF73ABB0022114601
:1071A0004068FFF72DBB002211464068FFF718BB6F
:1071B000002202214068FFF71BBB00231A464068EB
:1071C000FFF706BB024B03225A60024A1A6070475F
:1071D000D4E20320E0BE0D00006800F0D6B810B580
:1071E0000446016002710AB1FFF7F6FF204610BDA8
:1071F00038B504460D4601F065F92A460146204699
:10720000FFF7EDFF204638BD006800F0C7B810B5A5
:10721000037904460BB1FFF7F7FF204610BDF8B520
:10722000044616461D460F46FFF7D6FF2068362156
:1072300000F09DF82068036839469B689847012153
:10724000206800F097F8022236210123206800F020
:1072500085F8206803685B69984730702068036888
:107260005B69984728702046BDE8F840FFF7CCBF1F
:1072700007B502AB002203F8012D8DF8062004218A
:107280000DF10602FFF7CBFF9DF8070001F000FCAF
:107290000022094B01F062FC01F058FF9DF8063016
:1072A00000EE103A07EE900AB8EEC00A37EE800AF8
:1072B00003B05DF804FB00BF0000703F7047F8B5F5
:1072C000064615460C468F18BC4206D0336814F8A3
:1072D000011B9B6830469847F6E72846F8BD002218
:1072E000007CFFF7C7B80021007CFFF7CBB8002176
:1072F000007CFFF7CFB80021007CFFF7D3B8002156
:10730000007CFFF7D7B810B51421044601F021F92D
:10731000204610BD10B504464FF47A730846A360AA
:107320000021044B207461602360FFF7D3F82046EE
:1073300010BD00BF14BF0D0000231A461946007C83
:10734000FFF778B813B50024007C0094FFF77AF8B3
:10735000C0B202B010BD0123FFF7F4BFDBB2D2B25E
:10736000C9B2FFF7EFBF0022007CFFF773B8C9B2C4
:10737000FFF7F9BF0022007CFFF774B80121FFF787
:10738000F9BF0021007CFFF79DB808B50021007C03
:10739000FFF7A8F8B0FA80F0400908BD08B5002151
:1073A000007CFFF7A7F8B0FA80F0400908BD00475D
:1073B00007282DE9FF4105460F4690461E464FF02F
:1073C000000419D0FFF726F8A6424FF004030394F7
:1073D0008DF80C30A2BF03AC9DF828308DF80E302C
:1073E0002846009443463A460549A8BF8DF80D60EB
:1073F000FFF708F8012000E0204604B0BDE8F08166
:10740000AF730D00072870B5054610D0FFF702F8DE
:10741000074B53F825601C4636B13046FEF75EFD3B
:107420001021304601F095F8002344F8253070BD56
:10743000DCE20320704710B51821044601F089F8FA
:10744000204610BDF0B5037D062B8DB00E4600F131
:1074500004074FF0000402D000F1080518E00CAD5D
:10746000394605F8304D2F232A460A20FFF74AF8FF
:10747000284602F088F833680246DB682946304621
:1074800098470FE024B12E21304600F094FB0444CD
:1074900015F8011D0A22304600F0D3FBBD4204441A
:1074A000F0D120460DB0F0BD10B5054B04461122B9
:1074B00040F8043B002102F009F8204610BD00BF4F
:1074C0003CBF0D000346074A10B543F8042B01F1F9
:1074D000100251F8044B43F8044B9142F9D10A7859
:1074E0001A7010BD3CBF0D0010B59DF8084044EA6D
:1074F000032343EA024242EA016104234160037527
:1075000010BD37B50D788B784A78C9780091294637
:10751000FFF7EAFF03B030BD014B024A1A60704723
:107520006CE30320F5BF0D00002211464068FFF711
:1075300087B9002211464068FFF792B900224068DF
:10754000FFF786B9002281F001014068FFF770B9AA
:1075500000231A4601214068FFF762B900231A464A
:1075600019464068FFF754B9002211464068FFF7FA
:1075700047B9002211464068FFF732B900220221C4
:107580004068FFF735B900231A464068FFF720B975
:1075900038B5054688B104684CB1A3681BB1032215
:1075A0002146204698471021204600F0D2FF284669
:1075B0001421BDE8384000F0CCBF38BD10B10368DD
:1075C0005B681847704710B503680446BBB158683C
:1075D000FEF778FE78B923685A7C12B95868FEF72E
:1075E00079FE23685868FEF77DFE2068002323603B
:1075F00028B1FFF7CDFF206808B1FFF7C9FF20468B
:1076000010BD000038B50C4B03600446D0F8CC0127
:1076100008B1FCF746FDD4F8C45135B12846FFF750
:10762000D2FF0421284600F094FFA06808B1FFF7BC
:10763000C5FF204638BD00BF28C00D0038B50E4C30
:107640000E4B23600025022304F5E4706360A560FF
:10765000C4F8C451C4F8C851FEF754FE084BC4F82E
:10766000CC5184F8D05123602046064A0649BDE833
:10767000384000F069BF00BF70E303205CC00D001C
:1076800028C00D0094E1032005760D0000231A4662
:107690004068FFF79DB8002202214068FFF7A8B8B4
:1076A000002211464068FFF79BB80022114640684F
:1076B000FFF7A6B800231A4619464068FFF7A8B896
:1076C00000231A4619464068FFF7AAB8002281F045
:1076D00001014068FFF7ACB800224068FFF7B8B876
:1076E000002211464068FFF7BBB8002211464068EF
:1076F000FFF7A6B82DE9F043002495B016460D46D5
:107700000746FFF7D1FE214620220CA8009401F085
:10771000DDFE40230C9321466B460CAA3046FEF753
:1077200001FF0446002844D1024601216868FFF7A2
:1077300067F80221804622466868FFF761F8009EDC
:1077400081462146002E34D0002932D17368022BA5
:1077500002D00A2B09D02AE0B8F1000F27D07169B6
:1077600038460431FFF7CDFE20E0B9F1000F1ED0FE
:107770007469112201A801F0A9FE06238DF81430C6
:1077800001AD04F108031834186859682A4603C289
:107790000833A3421546F7D101A906A807ADFFF7A4
:1077A00091FE0FCD3C1D0FC42B6823700121F6699B
:1077B000C8E70098FEF7AEFE384615B0BDE8F08386
:1077C000024B034A1A6000225A60704744E50320C6
:1077D0005CC00D0008B500F075FEFFF7D2FD18B9CA
:1077E00000F070FEFFF7A8FD00F06CFEBDE8084059
:1077F000FFF7C7BD08B500F065FEBDE80840FFF71C
:10780000C4BD10B50446017009B1FFF7F3FF20466F
:1078100010BD08B500F056FEBDE80840FFF7BEBD3C
:1078200010B5037804460BB1FFF7F3FF204610BDF7
:1078300010B504460068FFF7ECFF204610BD37B5D1
:1078400002AC0D4644F8040DFFF7D4FF00F03AFEF9
:107850006B21FFF78CFD00F035FE036829469B681D
:10786000984700F02FFE0121FFF784FD00F02AFE6B
:1078700001231A466B21FFF771FD00F023FE036818
:107880005B69984705462046FFF7D2FFE8B203B090
:1078900030BD08B50821FFF7D2FFC0F3800008BD56
:1078A00073B502AC15460E4644F8040DFFF7A2FF6F
:1078B00000F008FE6B21FFF75AFD00F003FE03689D
:1078C00031469B68984700F0FDFD036829469B6898
:1078D000984700F0F7FD0121FFF74CFD2046FFF728
:1078E000A7FF02B070BD37B504460D460190FFF703
:1078F00081FF00212046FFF7A2FF41F258139D426D
:1079000000F087025BD020D841F218039D424DD091
:107910000CD840F678739D4242D040F6C8739D4221
:1079200041D040F628739D4260D159E041F2B8033E
:107930009D423ED041F208139D423DD041F2680382
:107940009D4253D142F020024AE041F298239D42E9
:107950003ED00ED841F2F8139D4233D041F2482375
:107960009D4232D041F2A8139D423FD142F04002E5
:1079700036E041F238339D422DD006D841F2E8235B
:107980009D4233D142F060022AE041F288339D42A9
:1079900024D041F2D8339D4228D142F078021FE032
:1079A00042F008021CE042F0100219E042F0180216
:1079B00016E042F0280213E042F0300210E042F0FC
:1079C00038020DE042F048020AE042F0500207E0BF
:1079D00042F0580204E042F0680201E042F0700216
:1079E00020460021FFF75CFF012400E0002401A8ED
:1079F000FFF71EFF204603B030BD37B504460D46E5
:107A00000190FFF7F7FE00212046FFF718FFB5F5BC
:107A1000617F00F0F80223D007D8962D1AD0B5F573
:107A2000FA7F1AD0642D29D122E040F2DC539D4226
:107A300019D005D8B5F5966F20D142F0040217E0B1
:107A4000B5F5FA6F12D040F6B8339D4216D142F028
:107A500007020DE042F001020AE042F0020207E0F4
:107A600042F0030204E042F0050201E042F00602A7
:107A700020460021FFF714FF012400E0002401A8A4
:107A8000FFF7D6FE204603B030BDF7B50C460546DD
:107A900017461E460190FFF7ADFE002C0CBF0024D8
:107AA000802417B144F04004E4B20EB144F0200445
:107AB0009DF820300BB144F010049DF824300BB138
:107AC00044F008049DF828300BB144F0040402216E
:107AD0002846FFF7B4FE00F00102224302212846A7
:107AE000FFF7DEFE01A8FFF7A3FE012003B0F0BD03
:107AF00037B504460D460190FFF77CFE0421204671
:107B0000FFF79DFE41F210039D4200F0030206D0F4
:107B100041F270039D420AD142F0B00201E042F00E
:107B2000980220460421FFF7BBFE012400E0002458
:107B300001A8FFF77DFE204603B030BD37B502AC8B
:107B4000054644F8040DFFF755FE05212846FFF7CA
:107B500076FE052100F0CE022846FFF7A1FE204662
:107B6000FFF766FE012003B030BDF8B506460D46AE
:107B70008F180024BD420CD0336815F8011B9B6898
:107B800030469847002801DB0444F3E7002C08BF87
:107B900004462046F8BD70B505460C46084649B176
:107BA00001F0F1FC2B68024621462846DB68BDE85F
:107BB0007040184770BD03689B68184738B50D21A1
:107BC0000546FFF7F8FF0A2104462846FFF7F3FFB2
:107BD000204438BD38B50546FFF7DDFF044628468A
:107BE000FFF7ECFF204438BD30B58BB00B460021C9
:107BF0008DF82410012A98BF0A220DF12304B3FB4B
:107C0000F2F505FB123303F0FF03092B94BF303369
:107C10003733DBB2214604F801392B46002DEED173
:107C2000FFF7B9FF0BB030BD10B42AB903685DF897
:107C3000044B9B68C9B21847D2B25DF8044BFFF7FA
:107C4000D3BFFFF7F1BF2DE9F04107460E461546B9
:107C50002AB90368C9B29B68BDE8F04118470A2AEF
:107C600002D1002901DA04E0D2B2BDE8F041FFF709
:107C7000BBBF2D21FFF79FFF2A46044671423846BD
:107C8000FFF7B2FF2044BDE8F081FFF7DCBF10B57D
:107C90000446FEF723F9204610BD00000348044ABD
:107CA00004490023836000F04FBC00BF4CE5032073
:107CB00094E103208F7C0D00704710B5102104461D
:107CC00000F047FC204610BD70B5084B0360044629
:107CD00000250E4640F80C5FFEF70CFB304626717F
:107CE000FEF728FCA560204670BD00BF90C00D00C7
:107CF0000079FEF727BC10B504460068FEF7C0FD0A
:107D0000204610BD10B50446006808B1FEF7B8FD66
:107D100000232360A360636010BD38B504460D46A0
:107D200000680131FEF7B4FD10B184E821000120A4
:107D300038BD10B50368044613B143688B4207D2BF
:107D40002046FFF7EAFF20B1A3680BB92268137041
:107D5000012010BD70B50E46114604461546FFF7CA
:107D6000E8FF18B92046FFF7CDFF09E02A46314663
:107D7000A560206801F084FB2268A3680021D1542B
:107D8000204670BD38B5002304460360436083601D
:107D900003730D4639B1084601F0F5FB294602464A
:107DA0002046FFF7D7FF204638BD884210B50B4666
:107DB000044607D0096819B19A68FFF7CBFF01E0C4
:107DC000FFF7A0FF204610BD10B500230446036056
:107DD000436083600373FFF7E8FF204610BD08B5DA
:107DE00082680B4612B919B9012008BD11B90368A0
:107DF000187802E0006801F099FBB0FA80F04009C1
:107E000008BD70B50E469AB191B185689D4202D801
:107E100000230B7070BD541EED1A0168AC4228BFE0
:107E20002C4619442246304601F0CAFB0023335544
:107E300070BD014600228C20FEF774BA0020FFF7C7
:107E4000F8BF000010B50446084611461A46002344
:107E5000FEF718FC064B00221A704FF6FF7258808E
:107E60009A801A689B882260A380204610BD00BFBC
:107E70005CE5032010B500240470448000294FF60F
:107E8000FF74848007DD0139994209D232F811303C
:107E90008380012301E002D10223037010BD4180E1
:107EA00010BD000070B586B016461A460023029336
:107EB0000C9B01930D460B9B009304460A9B314695
:107EC0002846FEF71BFC33462A46014604A8FFF766
:107ED000D1FF064B0498BDF8142018609A801A68E8
:107EE0009B8822602046A38006B070BD5CE503201D
:107EF000044B00204FF6FF72187058809A80FEF7EE
:107F0000B1BB00BF5CE50320F0B5144B144F1E68F5
:107F1000144B064418683B6806449E428BB01BD045
:107F20000AA801AD40F8286D01F0AEF9436903F2EB
:107F30006C73436104460FCC0FC50FCC0FC5D4F84A
:107F400000E0C5F800E001AD0FCD074C0FC40FCD28
:107F50000FC43E60C4F800E00BB0F0BD94E5032010
:107F600090E503208CE5032064E5032008B500209C
:107F7000FEF71EFC28B1FEF7F3FB80F00100C0B253
:107F800008BD012008BD000008B5FFF7BDFF014B8B
:107F9000D86808BD64E50320FAEE087AB4EEE70A73
:107FA000F1EE10FA0FD4F2EE0C7AB4EEE70AF1EE2D
:107FB00010FA08DCDFED047A044B20EE270ABDEE50
:107FC000C00A83ED000A70470000614594E5032074
:107FD00037B50E4B1B6819440D4B1B68044602A8AD
:107FE000194440F8041D01F04FF901F0FFF805466F
:107FF00001F0C9FA2844002300F8013C2946204634
:10800000FFF7C0FE204603B030BD00BF94E503205B
:108010008CE5032010B50020FEF7B4F9044668B9DA
:10802000FEF718FB01280BD12046FEF74BFB38B9B1
:10803000FFF79CFF30B9FEF77BFBF9E7012010BD8D
:10804000002010BDFFF792FF0020FEF79BF90030E3
:1080500018BF012010BD08B5FFF7DCFFBDE80840E0
:10806000FEF788B908B5FFF7F6FFFFF74DFF014BA4
:10807000986808BD64E5032008B5FFF7ECFFFFF73B
:1080800043FF014B586808BD64E5032008B5FFF7BE
:10809000E2FFFFF739FF014BD86808BD64E5032014
:1080A000024B1A68024B1A60704700BFA4E003201D
:1080B00088E5032070474174704708B5007CFEF7DF
:1080C00081FA20EAE07008BD08B5007CFEF752FA9C
:1080D00020EAE07008BD08B5007CFEF75BFA30EAE4
:1080E000200028BF4FF0FF3008BD08B5007CFEF728
:1080F00049FA30EA200028BF4FF0FF3008BD007C6D
:10810000FEF750BA10B51421044600F022FA2046BA
:1081100010BD70B5457C04460E4625B9007CFEF7BF
:1081200051FA002805DD3146207CBDE87040FEF79D
:1081300019BA284670BD000010B50446084611461D
:10814000002262604FF47A72A260054A2260012226
:10815000207462741A46FEF7FDF9204610BD00BF78
:10816000C8C00D00007CFEF725BA000038B50C4DE4
:10817000296811F0010411D12846FBF794FF68B17A
:10818000084A094B09482146FFF7D6FF2846FBF766
:108190008FFF074A0749054800F0D6F9034838BD64
:1081A00030E6032034E60320ACE5032098E5032005
:1081B00094E10320B5800D0041747047704708B505
:1081C0000021007CFEF71EFA30EA200028BF4FF0A5
:1081D000FF3008BD08B50121007CFEF713FA30EA34
:1081E000200028BF4FF0FF3008BD08B5007CFEF727
:1081F00001FA20EAE07008BD08B5007CFEF7F2F94C
:1082000020EAE07008BD007CFEF70CBA10B514211E
:10821000044600F09EF9204610BD38B50446007CA7
:108220000D46FEF7E7F9002801DC607C28B12946FD
:10823000207CFEF7EFF920EAE07038BD10B5044667
:10824000002363604FF47A73A360054B236001231E
:108250000846217463741146FEF7BCF9204610BD30
:10826000F8C00D0010B514220446002101F02EF9CB
:10827000204610BD30B50E4D87B001A8FFF7F2FFC4
:10828000296811F0010410D12846FBF70CFF60B1FA
:1082900001AA21460748FFF7D1FF2846FBF708FF50
:1082A000054A0649034800F04FF9024807B030BDBF
:1082B000B8E60320BCE6032094E10320BD810D0055
:1082C00008B50C4B33B1FFF7D5FF03681B6998471E
:1082D000002809DC084B63B1FFF748FF03681B69FE
:1082E0009847002803DC08BDAFF30080F2E7AFF346
:1082F000008008BD000000000000000008B5FFF786
:10830000DFFFFEF72FF8014B186008BDD4E603200D
:1083100007B5002300931A466FF07701FEF7E4F9E2
:1083200003B05DF804FB000007B543880A2B08D0B2
:10833000502B09D1094B1B683BB103B05DF804EB2E
:108340001847FFF7E5FF06E0002300931A466FF099
:108350007701FEF7C9F903B05DF804FBD0E603200E
:1083600010B5FDF7EFFF044601F0B8F8074B13B165
:108370002046AFF3008000210448FEF721FA0021D7
:108380000348BDE81040FEF7A5B900BF000000009B
:1083900029830D0010B504460F48FFF7A9FC28B14A
:1083A000A4F10B03022B01D8002010BD00F06AF8E5
:1083B000FEF7E7FF08B1012CF6D9FFF7D7FEFFF76C
:1083C000D1FE18B1A4F10903012BEDD9232C8CBFE8
:1083D0000020012010BD00BF08E70320232838B586
:1083E00004460D460AD8FF2908D0FFF7D3FF28B16D
:1083F00029462046BDE83840FDF7E4BF38BD38B512
:1084000004460D46FDF7E6FFFF2810D0062804D8E5
:108410004D2323FA00F0C30709D42046FFF7BAFF23
:1084200028B129462046BDE83840FDF7DBBF38BDFE
:1084300010B50446FDF7CEFF0438C0B2012808D9B4
:108440002046FFF7A7FF20B12046BDE81040FDF70A
:10845000D1BF002010BD0D2810B504469CBF0E34BE
:10846000A4B22046FFF796FF50B103212046FDF746
:10847000A1FF032804D12046BDE81040FDF7D2BF7C
:10848000002010BD38B50B4D296811F001040FD143
:108490002846FBF708FE58B121460748FEF73AFF89
:1084A0002846FBF705FE054A0549034800F04CF84D
:1084B000014838BDD8E60320F0E6032094E103200C
:1084C000BD720D0010B50B4C2368DB070FD420469E
:1084D000FBF7E9FD58B101210748FEF71BFF2046D5
:1084E000FBF7E6FD054A0649034800F02DF802486F
:1084F00010BD00BF04E70320DCE6032094E1032065
:10850000BD720D0070B50C4C0C4E0D4D0021204677
:10851000FFF7DAFB20460B4C3246294600F014F8F0
:1085200001212046FFF7D0FB324629462046BDE810
:10853000704000F009B800BF08E7032094E1032071
:10854000B97C0D0018E703200B460146184600F0E1
:108550008DBEFBF7A4BD08B5FEF7BAF9244B1A6827
:10856000D0075CBF01221A60224B1A68D1075CBF9A
:1085700001221A60204B1A68D2075CBF01221A60E0
:108580001E4B1A68D0075CBF01221A601C4B1A6888
:10859000D1075CBF01221A601A4B1A68D2075CBF70
:1085A00001221A60184B1A68D0075CBF01221A60BA
:1085B000164B1A68D1075CBF01221A60144B1A6867
:1085C000D2075CBF01221A60124B1A68D0075CBF49
:1085D00001221A60104B1A68D1075CBF01221A6091
:1085E0000E4B1A68D2075CBF01221A60704700BFA9
:1085F00054E7032050E703204CE7032048E703201B
:1086000044E7032040E703203CE7032038E703204A
:1086100034E7032030E703202CE7032028E703207A
:10862000184B1A68D1075CBF01221A60164B1A68F2
:10863000D2075CBF01221A60144B1A68D0075CBFD6
:1086400001221A60124B1A68D1075CBF01221A601E
:10865000104B1A68D2075CBF01221A600E4B1A68D1
:10866000D0075CBF01221A600C4B1A68D1075CBFAF
:1086700001221A600A4B1A68D2075CBF01221A60F5
:10868000704700BF74E7032070E703206CE7032006
:1086900068E7032064E7032060E703205CE703202A
:1086A00058E70320184B1A68D1075CBF01221A60F3
:1086B000164B1A68D2075CBF01221A60144B1A6865
:1086C000D0075CBF01221A60124B1A68D1075CBF49
:1086D00001221A60104B1A68D2075CBF01221A608F
:1086E0000E4B1A68D0075CBF01221A600C4B1A6847
:1086F000D1075CBF01221A600A4B1A68D2075CBF1F
:1087000001221A60704700BF94E7032090E703201E
:108710008CE7032088E7032084E7032080E7032019
:108720007CE7032078E70320244B1A68D0075CBF5E
:1087300001221A60224B1A68D1075CBF01221A601D
:10874000204B1A68D2075CBF01221A601E4B1A68C0
:10875000D0075CBF01221A601C4B1A68D1075CBFAE
:1087600001221A601A4B1A68D2075CBF01221A60F4
:10877000184B1A68D0075CBF01221A60164B1A68A2
:10878000D1075CBF01221A60144B1A68D2075CBF84
:1087900001221A60124B1A68D0075CBF01221A60CE
:1087A000104B1A68D1075CBF01221A600E4B1A6881
:1087B000D2075CBF01221A60704700BFC4E70320E4
:1087C000C0E70320BCE70320B8E70320B4E7032099
:1087D000B0E70320ACE70320A8E70320A4E70320C9
:1087E000A0E703209CE7032098E7032081F00041E5
:1087F00002E000BF83F0004330B54FEA41044FEA86
:10880000430594EA050F08BF90EA020F1FBF54EA20
:10881000000C55EA020C7FEA645C7FEA655C00F0BC
:10882000E2804FEA5454D4EB5555B8BF6D420CDD8D
:108830002C4480EA020281EA030382EA000083EA10
:10884000010180EA020281EA0303362D88BF30BDB0
:1088500011F0004F4FEA01314FF4801C4CEA113106
:1088600002D0404261EB410113F0004F4FEA033365
:108870004CEA133302D0524263EB430394EA050FF0
:1088800000F0A780A4F10104D5F1200E0DDB02FA5F
:108890000EFC22FA05F2801841F1000103FA0EF2F3
:1088A000801843FA05F359410EE0A5F120050EF1B9
:1088B000200E012A03FA0EFC28BF4CF0020C43FAEA
:1088C00005F3C01851EBE37101F0004507D54FF0F7
:1088D000000EDCF1000C7EEB00006EEB0101B1F547
:1088E000801F1BD3B1F5001F0CD349085FEA30008D
:1088F0004FEA3C0C04F101044FEA445212F5800F98
:1089000080F09A80BCF1004F08BF5FEA500C50F134
:10891000000041EB045141EA050130BD5FEA4C0C17
:10892000404141EB010111F4801FA4F10104E9D1A0
:1089300091F0000F04BF01460020B1FA81F308BF97
:108940002033A3F10B03B3F120020CDA0C3208DD63
:1089500002F1140CC2F10C0201FA0CF021FA02F13E
:108960000CE002F11402D8BFC2F1200C01FA02F1AE
:1089700020FA0CFCDCBF41EA0C019040E41AA2BFD3
:1089800001EB0451294330BD6FEA04041F3C1CDA9B
:108990000C340EDC04F11404C4F1200220FA04F0BB
:1089A00001FA02F340EA030021FA04F345EA030165
:1089B00030BDC4F10C04C4F1200220FA02F001FA27
:1089C00004F340EA0300294630BD21FA04F02946A9
:1089D00030BD94F0000F83F4801306BF81F4801142
:1089E0000134013D4EE77FEA645C18BF7FEA655CB5
:1089F00029D094EA050F08BF90EA020F05D054EA87
:108A0000000C04BF1946104630BD91EA030F1EBF8B
:108A10000021002030BD5FEA545C05D1400049418F
:108A200028BF41F0004130BD14F580043CBF01F582
:108A3000801130BD01F0004545F0FE4141F4700168
:108A40004FF0000030BD7FEA645C1ABF1946104643
:108A50007FEA655C1CBF0B46024650EA013406BF44
:108A600052EA033591EA030F41F4002130BD00BF03
:108A700090F0000F04BF0021704730B54FF48064C0
:108A800004F132044FF000054FF0000150E700BF41
:108A900090F0000F04BF0021704730B54FF48064A0
:108AA00004F1320410F0004548BF40424FF000018D
:108AB0003EE700BF42004FEAE2014FEA31014FEAD0
:108AC00002701FBF12F07F4393F07F4F81F060511F
:108AD000704792F0000F14BF93F07F4F704730B58E
:108AE0004FF4607401F0004521F0004120E700BF21
:108AF00050EA010208BF704730B54FF000050AE0A8
:108B000050EA010208BF704730B511F0004502D5A8
:108B1000404261EB41014FF4806404F132045FEAAA
:108B2000915C3FF4DCAE4FF003025FEADC0C18BF4F
:108B300003325FEADC0C18BF033202EBDC02C2F145
:108B4000200300FA03FC20FA02F001FA03FE40EAD7
:108B50000E0021FA02F11444C1E600BF70B54FF0D7
:108B6000FF0C4CF4E06C1CEA11541DBF1CEA1355B9
:108B700094EA0C0F95EA0C0F00F0DEF82C4481EA21
:108B8000030621EA4C5123EA4C5350EA013518BF41
:108B900052EA033541F4801143F4801338D0A0FB2E
:108BA00002CE4FF00005E1FB02E506F00042E0FBDB
:108BB00003E54FF00006E1FB03569CF0000F18BFE1
:108BC0004EF0010EA4F1FF04B6F5007F64F5407489
:108BD00004D25FEA4E0E6D4146EB060642EAC6211C
:108BE00041EA55514FEAC52040EA5E504FEACE2E89
:108BF000B4F1FD0C88BFBCF5E06F1ED8BEF1004F8C
:108C000008BF5FEA500E50F1000041EB045170BD07
:108C100006F0004646EA010140EA020081EA03014B
:108C2000B4EB5C04C2BFD4EB0C0541EA045170BD47
:108C300041F480114FF0000E013C00F3AB8014F1C1
:108C4000360FDEBF002001F0004170BDC4F100040A
:108C5000203C35DA0C341BDC04F11404C4F120058B
:108C600000FA05F320FA04F001FA05F240EA0200E6
:108C700001F0004221F0004110EBD37021FA04F61C
:108C800042EB06015EEA430E08BF20EAD37070BDD6
:108C9000C4F10C04C4F1200500FA04F320FA05F035
:108CA00001FA04F240EA020001F0004110EBD37037
:108CB00041F100015EEA430E08BF20EAD37070BDA7
:108CC000C4F1200500FA05F24EEA020E20FA04F380
:108CD00001FA05F243EA020321FA04F001F000412F
:108CE00021FA04F220EA020000EBD3705EEA430EA0
:108CF00008BF20EAD37070BD94F0000F0FD101F0CF
:108D00000046400041EB010111F4801F08BF013C07
:108D1000F7D041EA060195F0000F18BF704703F045
:108D20000046520043EB030313F4801F08BF013DCC
:108D3000F7D043EA0603704794EA0C0F0CEA135588
:108D400018BF95EA0C0F0CD050EA410618BF52EA42
:108D50004306D1D181EA030101F000414FF0000048
:108D600070BD50EA410606BF1046194652EA430656
:108D700019D094EA0C0F02D150EA013613D195EACA
:108D80000C0F05D152EA03361CBF104619460AD112
:108D900081EA030101F0004141F0FE4141F470011C
:108DA0004FF0000070BD41F0FE4141F4780170BD0C
:108DB00070B54FF0FF0C4CF4E06C1CEA11541DBF71
:108DC0001CEA135594EA0C0F95EA0C0F00F0A7F873
:108DD000A4EB050481EA030E52EA03354FEA0131A0
:108DE00000F088804FEA03334FF0805545EA1313B3
:108DF00043EA12634FEA022245EA111545EA10657B
:108E00004FEA00260EF000419D4208BF964244F111
:108E1000FD0404F5407402D25B084FEA3202B61A30
:108E200065EB03055B084FEA32024FF480104FF404
:108E3000002CB6EB020E75EB030E22BFB61A754678
:108E400040EA0C005B084FEA3202B6EB020E75EB0B
:108E5000030E22BFB61A754640EA5C005B084FEA73
:108E60003202B6EB020E75EB030E22BFB61A754640
:108E700040EA9C005B084FEA3202B6EB020E75EB4B
:108E8000030E22BFB61A754640EADC0055EA060E0C
:108E900018D04FEA051545EA16754FEA06164FEA4F
:108EA000C30343EA52734FEAC2025FEA1C1CC0D1FB
:108EB00011F4801F0BD141EA00014FF000004FF088
:108EC000004CB6E711F4801F04BF01430020B4F149
:108ED000FD0C88BFBCF5E06F3FF6AFAEB5EB030C01
:108EE00004BFB6EB020C5FEA500C50F1000041EBFE
:108EF000045170BD0EF0004E4EEA113114EB5C04CB
:108F0000C2BFD4EB0C0541EA045170BD41F480119D
:108F10004FF0000E013C90E645EA060E8DE60CEAA5
:108F2000135594EA0C0F08BF95EA0C0F3FF43BAFC2
:108F300094EA0C0F0AD150EA01347FF434AF95EA79
:108F40000C0F7FF425AF104619462CE795EA0C0F5D
:108F500006D152EA03353FF4FDAE1046194622E72A
:108F600050EA410618BF52EA43067FF4C5AE50EA04
:108F700041047FF40DAF52EA43057FF4EBAE12E7F4
:108F80004FF0FF3C06E000BF4FF0010C02E000BFD5
:108F90004FF0010C4DF804CD4FEA410C7FEA6C5CB8
:108FA0004FEA430C18BF7FEA6C5C1BD001B050EA5B
:108FB000410C0CBF52EA430C91EA030F02BF90EA46
:108FC000020F0020704710F1000F91EA030F58BF05
:108FD000994208BF90422CBFD8176FEAE37040F067
:108FE000010070474FEA410C7FEA6C5C02D150EA05
:108FF000013C07D14FEA430C7FEA6C5CD6D152EAC0
:10900000033CD3D05DF8040B704700BF8446104684
:1090100062468C461946634600E000BF01B5FFF783
:10902000B7FF002848BF10F1000F01BD4DF808ED53
:10903000FFF7F4FF0CBF012000205DF808FB00BF24
:109040004DF808EDFFF7EAFF34BF012000205DF87E
:1090500008FB00BF4DF808EDFFF7E0FF94BF0120CB
:1090600000205DF808FB00BF4DF808EDFFF7CEFFCC
:1090700094BF012000205DF808FB00BF4DF808ED0B
:10908000FFF7C4FF34BF012000205DF808FB00BFDC
:109090004FEA410C7FEA6C5C02D150EA013C0AD1F4
:1090A0004FEA430C7FEA6C5C02D152EA033C02D1E6
:1090B0004FF0000070474FF0010070474FEA410247
:1090C00012F5001215D211D56FF47873B3EB62521A
:1090D00012D94FEAC12343F0004343EA505311F041
:1090E000004F23FA02F018BF404270474FF00000D3
:1090F000704750EA013005D111F0004008BF6FF011
:10910000004070474FF00000704700BF4A0011D286
:1091100012F5001211D20DD56FF47873B3EB6252D1
:109120000ED44FEAC12343F0004343EA505323FADD
:1091300002F070474FF00000704750EA013002D152
:109140004FF0FF3070474FF0000070474FEA410288
:10915000B2F1E04324BFB3F5001CDCF1FE5C0DD995
:1091600001F0004C4FEAC0024CEA5070B2F1004FDF
:1091700040EB830008BF20F00100704711F0804FE2
:1091800021D113F13872BCBF01F00040704741F4A7
:1091900080114FEA5252C2F11802C2F1200C10FAAB
:1091A0000CF320FA02F018BF40F001004FEAC1238F
:1091B0004FEAD32303FA0CFC40EA0C0023FA02F333
:1091C0004FEA4303CCE77FEA625307D150EA013309
:1091D0001EBF4FF0FE4040F44000704701F00040D9
:1091E00040F0FE4040F40000704700BF094B70B5EE
:1091F0001C68256C06463DB91A20FDF739FB1A227A
:109200002064294600F062F9216C3046BDE87040C8
:1092100000F002B80CE1032010B50C464169036967
:10922000826986B001F26C71049101680391416812
:10923000029181680191C1680091074903EB4303E2
:109240000B44064902EB42020A4420460449FDF75A
:1092500027FB204606B010BD35C10D0020C10D0012
:1092600059C10D000A22002101F080B810B5054C4B
:1092700013462CB10A4601460220AFF3008010BD10
:10928000204610BD0000000038B5074B1C68E36B9A
:1092900005461BB92420FDF7EBFAE063E16B284695
:1092A000BDE8384000F002B80CE103202DE9F041A0
:1092B0000C46804601F07EFE21460746404601F0FE
:1092C0007DFE466906F26C76B307044605D164223A
:1092D00096FBF2F302FB13634BB94FF4C87596FB90
:1092E000F5F305FB1365B5FA85F35B0900E001238F
:1092F0005F4A302505FB032501F072F901F072F990
:109300005C4B1B68F3B17B689E4205D13968D8F885
:109310000030FA6941B90AE0304601F0B9F8002896
:10932000F4D14FF0FF330DE0934208DB01E09342AC
:1093300007DABA6B9342ACBF0023012302E000239B
:1093400000E001232362236A012B0CBFF96B396A09
:109350004FF461633C2091FBF3F603FB1613616845
:1093600093FBF0F200FB12302368891AA268616057
:109370001B1A921B3B2B2360A26003DD013161604D
:109380003C3B04E0002B03DA013961603C3323608D
:1093900063683B2B03DD0132A2603C3B04E0002B01
:1093A00003DA013AA2603C336360A368172B22DD25
:1093B000E2690132E261A2690132062AC8BF0022D5
:1093C000A261E268183B0132A3602369E26055F8AC
:1093D00023108A4246DD01330C2B0CBF63692361E5
:1093E000A2EB0102E26001BF01330022226163614E
:1093F00008BFE26136E0002B34DAE269013AE2614B
:10940000A269013A48BF0622A261E2681833013A14
:10941000E260A36032BB2369013B01D423611DE0FC
:109420000B23236163695A1E12F0030F626103F27A
:109430006B7305D1642193FBF1F201FB12324AB93F
:109440004FF4C87193FBF1F201FB1233B3FA83F3CB
:109450005B0900E0012303F5B673E361236955F866
:109460002330E36001F0BDF82046BDE8F08100BF85
:10947000E8C20D00E4E703200048704710E1032034
:1094800010B5431E0A44914204D011F8014B03F871
:10949000014FF8E710BD884210B501EB020301D877
:1094A000421E0BE09842FBD28118D21AD34204D05C
:1094B00013F8014D01F8014DF8E710BD994204D0B1
:1094C00011F8014B02F8014FF8E710BD02440346C2
:1094D000934202D003F8011BFAE7704738B5124BEC
:1094E0001C68A36B0546D3B91820FDF7C1F943F2F8
:1094F0000E33A06303804AF6CD33438041F2342318
:1095000083804EF26D63C3804DF6EC6303810523C7
:1095100043810B23838101220023C0E90423A36B31
:1095200000221D615A6138BD0CE1032010F8012BA7
:1095300011F8013B012A28BF9A42F7D0D01A704790
:10954000034611F8012B03F8012B002AF9D17047CB
:10955000024B0146186800F003B800BF0CE103207D
:1095600070B5064608460C4600F00DF8451C294625
:109570003046FDF7B5F9064618B12A462146FFF7F1
:109580007FFF304670BD034613F8012B002AFBD144
:10959000181A0138704730B582B1451E013915F8E7
:1095A000013F11F8014FA34206D1EC431444E042BD
:1095B00001D0002BF3D11C46181B30BD104630BD26
:1095C00010B5034642B111F8014B03F8014B013AC3
:1095D000002CF7D11A4400E010BD934202D003F8EA
:1095E000014BFAE710BD70B504460D4645EC104B33
:1095F000164602F041F851EC100B7EB1C5F30A5348
:10960000C3F16B03002B09DD1B0503F17F5500241B
:1096100005F5401522462B46FFF7A0FA70BD000065
:109620002DE9F04F9DB0002302900C461392189341
:109630004FF0000A4FF0000B1791179B1A780D2A74
:1096400005D8092A13D2002A00F0AC8112E02B2A97
:1096500004D02D2A04D0202A0CD108E0002200E0FA
:1096600001220C925A1C17925B782BB99AE10133B4
:109670001793E2E700230C93179D2B78302B5CD1D6
:109680006B78582B01D0782B4CD10C9B019318ABE5
:109690000093A94A029819AB17A901F074F910F0C8
:1096A0000706044600F08785062E05D10135002304
:1096B00017950C9300F07FBD189A3AB135211AA87E
:1096C00002F0C7F81899029801F045FD062E22D83D
:1096D000DFE806F0040D08181D0D04004FF0000B24
:1096E000DA4618E0DDF868A0DDF86CB013E01B9BEB
:1096F000199ADDF868A023F4801302F2334243EA9A
:10970000025B08E0DFF834B24FF0000A03E06FF0CC
:10971000004B4FF0FF3A210740F14D854BF0004BD5
:1097200000F049BD179B5A1C17925B78302BF9D07B
:10973000002B00F04085012300E000234FF00008DB
:109740000693179B0793CDF81480CDF810800A225A
:10975000179D2E78A6F13003D9B209290ED80499A5
:109760000829DDBF059902FB0133059302FB083888
:10977000049B0135013304931795E9E70298FFF73D
:109780007BFE07680298FFF777FE0068FFF7FBFE95
:10979000394602462846FFF7FEFE074628B100205C
:1097A0003346049D0246014657E00298FFF764FEE7
:1097B0000068FFF7E8FE179B1A181792049A1B5CC3
:1097C000002A42D11046302B05D1179B5A1C179204
:1097D00001305B78F7E7A3F13102082A43D8179AE2
:1097E0000792024600200546303B00F1010126D0D9
:1097F0000A4405EB000C29460A2661450ED00131CA
:1098000001F1FF3EBEF1080F03DC059F774305978A
:10981000F3E71029D8BF06FB08F8EEE7284408282C
:1098200000F1010505DC05980A2101FB00330593D1
:1098300004E0102DDCBF0A2101FB08380021179B32
:10984000581C17905B78084602E0049D38463A465B
:10985000A3F130010929C7D90121652B01D0452B7E
:1098600051D16DB904E0652B40F0B3840022012191
:1098700028B9069B002B00F09580054600E00025E6
:10988000179C631C179363782B2B06D02D2B02D0CB
:109890000026039606E0012300E000230393A31CA7
:1098A0001793A378A3F13006092E2BD8302B04D1BF
:1098B000179B5E1C17965B78F8E7A3F13106082E1C
:1098C00021D8A3F1300E179B4FF00A0C1F46179BAF
:1098D0005E1C17965B78A3F13009B9F1090F04D823
:1098E0000CFB0E3EAEF1300EF1E7F61B082E44F6EF
:1098F0001F6902DCF145A8BFF146039E2EB1C9F1F4
:10990000000902E017944FF00009002D53D1002800
:1099100040F05184069A002A40F04D84002941D13C
:109920004E2B20D002DC492B0AD03BE0692B07D01C
:109930006E2B18D036E000BF48C30D000000F07F4A
:10994000A84917A801F050FA60B3179BA649013B3C
:1099500017A8179301F048FA10B9179B0133179312
:10996000DFF8A0B21AE0A14917A801F03DFAC8B18A
:10997000179B1B78282B0FD11AAA9D4917A801F015
:1099800046FA052808D11B9BDDF868A043F0FF4B81
:109990004BF4E00B00F00FBCDFF86CB24FF0000AA4
:1099A00000F009BC139B1794002B00F00F840023D8
:1099B0000C9300F002BC049B0598002B08BF2B46BB
:1099C000102D2C46C2EB0909A8BF10240493FFF701
:1099D0004FF8092C82468B4613DD864B03EBC403FC
:1099E00053E91223FFF7BAF8064640460F46FFF741
:1099F0003FF802460B4630463946FEF7FDFE8246EA
:109A00008B460F2D36DCB9F1000F00F0D48324DD36
:109A1000B9F1160F07DC774D05EBC90952465B46D5
:109A2000D9E9000114E0C5F12503994522DC714C08
:109A3000C5F10F0504EBC501C5EB090552465B46B0
:109A4000D1E9000104EBC504FFF788F8D4E900234D
:109A5000FFF784F882468B46ADE319F1160F09DB58
:109A6000644DA5EBC909D9E9002350465946FFF7D3
:109A70009FF9EFE72C1B4C44002C57DD14F00F012D
:109A80000AD05C4B03EBC10152465B46D1E90001B1
:109A9000FFF764F882468B4634F00F0400F0B8807C
:109AA000B4F59A7F0BDD0024254605940494029AB0
:109AB000DFF850B1222313604FF0000A87E14E4EC9
:109AC000002324115046594698463746012C0BDD99
:109AD000E20704D5D6E90023FFF740F8012308F197
