:02000002D0002C
:1040000000400D00A4D30D00000006000D000501C6
:084010000401E70500000000B7
:04401800E8B90D00F6
:1040200009480A49884208B505D0094A824202D0A7
:10403000121A06F005F90748074A0021121A06F07D
:1040400025F9014808BD00BFF8DE032044D20D0069
:104050002CE003202CE00320F0E7032070B505F0EE
:1040600003F8074C074BE41AA40800251E46A54296
:1040700004D056F8253098470135F8E770BD00BFE9
:104080003CCA0D00F8C90D0001F002BB08B501F0F3
:10409000B3F8BDE8084004F0A9BF03F001BA03F08B
:1040A00007BA03F005BA000008B5034A00210C2046
:1040B00003F0ACF8FEE700BF1D6F0D000078B0FA0A
:1040C00080F040097047012303707047044B197852
:1040D000012211B103490A7000221A70704700BF13
:1040E00004E1032030E00320014B01221A707047E5
:1040F00090E0032010B503682F2B044604D9074A2B
:1041000000210A2003F082F823681F2B83BF03F0ED
:104110001F03236002484FF0A04010BD1D6F0D002B
:104120000003005007B502AB43F8040D1846FFF733
:10413000E1FF019A01239340C0F8083503B05DF810
:1041400004FB07B502AB43F8040D1846FFF7D2FF96
:10415000019A01239340C0F80C3503B05DF804FBCD
:1041600038B50446006928B185680C2105F0CFF800
:104170002846F8E7204638BD08B5044904F003FB9B
:1041800018B1034801F0A4FD012008BDC5BE0D0013
:104190003CE0032008B5044904F0F5FA18B1034BDC
:1041A00005221A70012008BDC5BE0D0088E003205D
:1041B00010B5034B0360044602F0DCFB204610BD43
:1041C00020BA0D0010B50446FFF7F2FF2046382153
:1041D00005F09DF8204610BD10B5034B0360044662
:1041E00001F03EFD204610BD04BA0D0010B5044696
:1041F000FFF7F2FF2046102105F089F8204610BD98
:1042000008B50A4904F0BFFA002368B1084A094911
:104210001360936053615360074A0B611370074B3F
:1042200001201870064B187008BD00BFC5BE0D00F8
:1042300014E1032074E1032030E103200CE10320AA
:104240006CE1032008B503F09BF820B10020BDE825
:10425000084003F0B5B808BD08B5002003F0B8F871
:1042600028B103F08DF880F00100C0B208BD012034
:1042700008BD10B50446006808B103F019F92046DE
:1042800010BD0368D86820B183888B4201D0806854
:10429000F9E770472DE9F041037D05460F461646C4
:1042A0003BB30121FFF7EDFF50B18389BB4204D13D
:1042B00086731EE08388012BF6D080680028F9D130
:1042C0000D49102005F02EF8044688B14FF0100873
:1042D0004246002105F0DAFF022363800123A4F89F
:1042E0000080A3802B69A360A781A6732C6100E0E6
:1042F00028752846BDE8F081BCC40D00002002F0FE
:1043000035BE08B52DED028BB0EE408A28B10138DC
:10431000FFF7F7FF28EE000A01E0B7EE000ABDEC58
:10432000028B08BD37B504689DF818508DF8003031
:104330008DF80450E4683C23A04703B030BD000072
:1043400010B50B7892B00C4623B9194902A806F0B3
:1043500025FA17E0084605F0BFFDC82804D020461E
:1043600005F0BAFDC92819D1124902A806F016FABB
:1043700004F0D1FC104B5862104B01221A70104B04
:1043800000221A700F4B10491B78104800228DF83C
:10439000002002AAFFF7C6FF12B010BD204605F0AC
:1043A0009BFD0B4A0346402102A803F0A1F8E9E770
:1043B00084BA0D0099BA0D0074E103206CE103206A
:1043C00030E1032068E003208CBA0D0034E10320C3
:1043D000ABBA0D0013B50B4904F0D5F9002478B140
:1043E000094B0A4A1B780A498DF800400948FFF733
:1043F00099FF234601220A21074802F082F9012091
:1044000002B010BDC5BE0D0068E00320C8BA0D00A3
:104410000ABD0D0034E103204CE0032037B51A49F2
:10442000044604F0B0F90546A0B1184B01241C71F4
:10443000174B1C7002F0A4FF08B9012022E0154BB5
:1044400015491B78154800228DF80020144AFFF703
:1044500069FFF2E71349204604F095F990B10B4B40
:104460001D710B4B01241C7002F08AFF0028E4D060
:10447000084B0D4A1B7808498DF800500748FFF794
:1044800051FF204603B030BDC5BE0D0074E10320CE
:104490006CE1032068E0032047BC0D0034E10320F9
:1044A000E0BA0D00F1BA0D00F3BA0D0000000000F3
:1044B0002DE9F043CBB00446FFF7C4FEFFF71EFF23
:1044C0000027064647F22F584FF00009FFF716FF66
:1044D000801B61EB0701894508BF804505D3FFF7C5
:1044E000BBFE10B902F034FFF0E7FFF7B5FE0A2279
:1044F00005A9206806F040FF00F10C03DBB2182B81
:1045000049D845B207EE905A274BB8EEE70A012486
:1045100083ED050A04F0D8FA244B1C7004F0C6FAA7
:10452000064604F0F8FB301A05F0AAF91CA3D3E9FB
:10453000002305F035FB1E4ACDE900010A211D4884
:1045400002F0D6FF02F01CFF18B31B4E1B4A2B468D
:104550004FF4807100250AA802F0CAFF3378184989
:104560008DF800500AAA1748FFF7DCFE04F0D3FBD1
:10457000014606A804F0F8FA069B0393039A3378E1
:104580000F498DF800500F48FFF7CCFE06A804F045
:1045900086F8204600E000204BB0BDE8F08300BF65
:1045A000000000000020AC4074E103206CE1032017
:1045B00008BB0D0031E0032068E0032012BB0D00B2
:1045C000A9BD0D0034E1032000B50B4B0B4ADB699C
:1045D000C3B04FF4807102A802F08AFF084B09496A
:1045E0001B78094800228DF8002002AAFFF79AFEE6
:1045F000012043B05DF804FB74E1032026BB0D00ED
:1046000068E00320A9BD0D0034E1032013B50A22A0
:1046100001A9006806F0B0FE17280AD8074BD86138
:10462000074B01241C7002F0ABFE20B1FFF7CCFF5A
:1046300002E0002000E0204602B010BD74E103203B
:104640006CE1032010B5C4B00A2203A9006806F08B
:1046500093FE1828034618D80E4A10620E4A012409
:1046600014704FF480710D4A04A802F041FF02F06B
:1046700087FE60B10A4B0B491B780B4800228DF86E
:10468000002004AAFFF74EFE01E0002000E02046D3
:1046900044B010BD74E103206CE103203ABB0D006F
:1046A00068E00320A9BD0D0034E1032070B5294D59
:1046B000294E2B6893F8700093F8713003F01F03B4
:1046C000C2B043EA4010FFF72DFD347804F034FB0C
:1046D0008442224C04D004F02FFB01233070A361EC
:1046E000A3691E4E0133A36104F015FB2368E0604B
:1046F00001332360A3680133A360194B1B7913B105
:1047000002F03EFE90B9174B01221A702B6893F805
:10471000700093F8713003F01F0343EA4010FFF775
:1047200010FD114B00221A7042B070BDB3680093A7
:1047300033680E4A4FF4807102A802F0D9FE0C4B88
:104740000C491B780C4800228DF8002002AAFFF7C4
:10475000E9FDD8E7BCE0032089E0032014E1032051
:1047600074E103200CE1032030E0032051BB0D0075
:1047700068E0032072BD0D0034E1032010B5C8B01D
:1047800004F0C9FA1C4C4FF46162B0FBF2F302FB77
:1047900013030138C01AA369069363690593174B85
:1047A00007901A69049222690392154A02929B6843
:1047B0000193A3680093134A23684FF4807108A8FB
:1047C00002F096FE104B11491B78114800228DF81B
:1047D000002008AAFFF7A6FD0E4B01221A7002F076
:1047E000A5FB0D4B186004F09DFA0C4B1860236874
:1047F000636048B010BD00BF14E1032074E10320E2
:1048000071E003206EBB0D0068E00320E9BB0D00E2
:1048100034E1032030E1032084E003208CE0032016
:1048200030B5194D0FCD99B004AC0FC40FCD0FC4E6
:1048300095E8030084E8030014490EA802F002FF83
:104840000EA802F052FF04460EA802F09FFF0EA829
:1048500010EE105A02F080FF18AB10EE100A03EBB6
:10486000840405F01FF8CDE90201284605F01AF886
:10487000CDE90001064A54F8503C0648402102F0B8
:1048800037FE19B030BD00BF40BA0D00A8E10320CB
:1048900001BC0D00C4E0032008B50F2004F09BFC10
:1048A00004F0EEFF20A3D3E9002305F04FF805F054
:1048B00087FADFED157A07EE100A67EE277A17EE12
:1048C000900A04F0EFFF0022104B04F08BFE002250
:1048D0000F4B05F03BF805F04BFA04F0D1FF002236
:1048E0000C4B05F033F800220B4B05F059F9002270
:1048F0000A4B04F079FE05F03BFA094B1861094BAD
:1049000001221A7008BD00BF000080390000E03F9E
:1049100000005940000022400000144000004040C8
:1049200014E103200CE103206666666666660A40B1
:1049300010B50D4C236893F8500093F8513003F0F4
:104940001F0343EA4010FFF7EDFB236893F8500084
:1049500093F8513003F01F0343EA4010FFF7F1FBD7
:10496000024B00221A7010BDBCE0032090E003202F
:1049700013B50446012101A803F05DFD01A81CB197
:1049800003F00BFE012401E003F0D7FD01A803F0C2
:1049900061FD204602B010BD10B5202490B0224623
:1049A0000021684605F072FC224600210DEB040050
:1049B0008DF8054005F06AFC00210DEB04008DF830
:1049C000254002F0A1FC184B5979009B4FF461720D
:1049D000ADF8082081B141F2D832ADF806204FF48D
:1049E0008062ADF80A2043F4007341F27002ADF822
:1049F0000C20009300210CE041F27000ADF80A2079
:104A000043F4007341F21002ADF80600ADF80C203B
:104A10000093684602F078FC04460120FFF7A8FFE7
:104A2000204610B010BD00BF74E1032037B51C490B
:104A3000044603F0A8FE0546B0B11A4B01245C7190
:104A4000FFF7AAFF184B1C7002F09AFC08B901206E
:104A500024E0164B16491B78164800228DF80020DA
:104A6000154AFFF75FFCF2E71449204603F08BFE7E
:104A7000A0B10C4B5D710C4B01241C70FFF78CFF37
:104A800002F07EFC0028E2D0084B0D4A1B78084952
:104A90008DF800500748FFF745FC204603B030BDB5
:104AA000C5BE0D0074E103206CE1032068E0032023
:104AB00047BC0D0034E103201ABC0D00F1BA0D0013
:104AC00031BC0D002DE9F8431F48204D40680023FC
:104AD0001A46194602F0B4FC02F042FC4FF49674F8
:104AE00040F2E7360027FFF709FC4FF00009804647
:104AF000FFF704FCB0EB080061EB09018F4208BF2F
:104B0000864205D302F03CFC10B902F021FCEFE72D
:104B100002F036FC48B102F033FC98B10C4A012394
:104B2000D3700C4A1370BDE8F8832B780BB1FFF7F4
:104B3000BDFD02F0FBF9084B186002F009FC013CD6
:104B4000E9D0D0E7BDE8F883A8E1032030E00320F6
:104B500074E103206CE10320F0E5032037B523491D
:104B6000044603F010FE28B92149204603F00BFE4D
:104B7000002839D01D49204603F005FE88B102F017
:104B8000FFFB48B11B4B1C491B781C4800228DF8C9
:104B900000201B4AFFF7C6FB1A4B1B4901229A71E2
:104BA0001CE01349204603F0EEFDD0B102F0E8FB13
:104BB000144C18B9FFF786FF0123E3700D4B0E4923
:104BC0001B78124A0D4800258DF80050FFF7AAFB0C
:104BD0004FF47A7002F0ACFC0D49A5710D4805F058
:104BE000DDFD0D4B0120187003B030BDC5BE0D00BA
:104BF000F1BA0D0068E0032047BC0D0034E103204A
:104C00004CBC0D0074E103205BBC0D0060BC0D00CA
:104C100072BC0D000DE103206CE1032008B502F029
:104C2000AFFB80F00100C0B208BD0000F8B502F093
:104C30009FFBFFF763FB0025044643F697260027FA
:104C4000FFF75CFB001B61EB05018F4208BF86424A
:104C500005D3FFF7E3FF10B902F07AFBF0E7FFF7A7
:104C6000DDFF0948002319461A46406802F0F0FBB0
:104C7000064B0022DA70064B01244FF4FA601C70D8
:104C800002F056FC2046F8BDA8E1032074E10320A1
:104C90006CE1032038B5084D0024AC602C606C60DA
:104CA00004F039F8054B064A1C6101231370054ACC
:104CB000E8606C61137038BD14E1032074E10320D7
:104CC0000CE103206CE1032030B5134D134C144963
:104CD0002A7820788DB00E2303FB0212009203FB8A
:104CE0000013104A282102A802F002FC2B7823703E
:104CF00002F046FB48B10C4B0C491B780C480022D3
:104D00008DF8002002AAFFF70DFB04F02BF902A991
:104D100003F07AFC0DB030BD88E0032070E0032082
:104D2000F8DE032078BC0D0068E0032086BC0D008F
:104D300034E1032037B502F01BFB02F0F7F843F62D
:104D40009725044602F01CFB40B102F0EFF8001B6F
:104D5000A84203D8642002F0EBFBF3E70021094BE3
:104D600047F23052084602F051F84FF47A7002F0E0
:104D7000DFFB054B0A221B680121684603F0F2FDA8
:104D800003B030BD97BC0D0070E103202DE9F04366
:104D90001E4B1F4C1B781F4A1F49204887B0002517
:104DA0008DF80050FFF7BEFA2571FFF74BFAFFF7B9
:104DB000A5FA0027064647F22F584FF00009FFF7E3
:104DC0009DFA801B61EB0701894508BF804505D32B
:104DD000FFF742FA10B902F0BBFAF0E7FFF73CFA2E
:104DE00063791BB90A4B9B68462B09DC0C4902A866
:104DF00003F09CFC02A8FFF7B1FE02A803F04FFCF1
:104E0000084B01221A7007B0BDE8F08368E0032068
:104E100074E10320A4BC0D00ACBC0D0034E1032000
:104E2000C5BE0D006CE1032038B503F08FFF0546C9
:104E300003F09DFF044603F093FF231F062B0ED9BA
:104E4000E31E082B0DD801382D1A01D50B2C02E0DA
:104E5000072D06DD032C14BF0020012038BD0120E2
:104E600038BD002038BD000070B52DED028BCAB0F2
:104E7000044603F050FF0A22064605A9206806F002
:104E80007BFAC3B2022B58D840B207EE900AB8EEB4
:104E9000E78AB0EE480A03F033FE2D4B83ED068A15
:104EA0002C4B01221A7018EE100A04F0FBFC2A4A5F
:104EB000CDE900014FF480710AA802F019FB03F05C
:104EC00009FF38B1FFF7B0FF10B103F033FE01E086
:104ED00003F03AFE03F0EAFD044603F01CFF201A3B
:104EE00004F0CEFC18A3D3E9002304F059FE1B4ABA
:104EF000CDE900010A211A4802F0FAFA02F040FA5C
:104F0000E8B1184D18492B78184800240AAA8DF8E2
:104F10000040FFF707FA314606A803F025FE069B7E
:104F200003938DF800402B78039A0F490F48FFF741
:104F3000F9F906A803F0B3FB01E0002000E001202E
:104F40004AB0BDEC028B70BD000000000020AC40F8
:104F500074E103206CE10320BABC0D0008BB0D0016
:104F600031E0032068E00320A9BD0D0034E10320F7
:104F700030B585B00D4604A9002241F8102D02F08D
:104F80005DF9A8B9009C0CB1236923B9094A002135
:104F90000A2002F03BF9002301930C23ADF8043002
:104FA000042303930295236901AA0121204698470F
:104FB00005B030BD1D6F0D0030B50E4D0FCD89B061
:104FC00001AC0FC495E8070084E807006946072094
:104FD000FFF7CEFF0028A8BF0098074A08AB03EBF5
:104FE0008000102150F81C3C044802F081FA09B0FE
:104FF00030BD00BF68BA0D0036C00D0071E003205F
:1050000007B5184B00221146586802F011FA08B192
:10501000FFF706FCFFF740FCFFF7CEFF01A90320D6
:10502000FFF7A6FF88B90620B0EE000AFFF769F97E
:10503000BDF8043030EE000A07EE103A30EE000AF8
:10504000B8EE477AC7EE007A01E0FFEE007AFDEE97
:10505000E77A054BC3ED027A044B01221A7003B0C4
:105060005DF804FBA8E1032074E103206CE1032058
:1050700070B586B0FFF726FDFFF7C2FF02F080F99A
:1050800048B1184B18491B78184800228DF80020A9
:10509000174AFFF747F9174C1749A3681D2BCCBFD8
:1050A000002301230125002602A8E3712570A670C4
:1050B000257103F03BFB02A8FFF750FD02A803F0A7
:1050C000EEFA0E4B63614FF07E53A3611823236207
:1050D0002246282329460A48E66100F087FE06B0EA
:1050E00070BD00BF68E0032047BC0D0034E1032021
:1050F000CBBC0D0074E10320F1BA0D000000A0C08C
:105100003CE0032030B5384C374D85B0FFF778FFD1
:10511000A378012B84BF0023A370E378012B06D969
:1051200002F02EF910B10123EB7000E0E870237952
:10513000012B82BF2C4B00221A716379012B82BF95
:10514000294B00225A71A379012B09D927496846B6
:1051500003F0ECFA6846FFF701FD684603F09FFA9A
:10516000A268214BD4ED057A1D2AD4BF012200226A
:10517000DA712369FF2B88BF1B4BBAEE087A88BF10
:105180000022F4EEC77A88BF1A61F1EE10FA06D455
:10519000B2EE087AF4EEC77AF1EE10FA01DD144BA4
:1051A0006361D4ED067AF5EEC07AF1EE10FA06D41A
:1051B000B0EE007AF4EEC77AF1EE10FA02DD4FF0AD
:1051C0007E53A361E3690C2B82BF074B0022DA6197
:1051D000236A0C3B0C2B82BF034B18221A62054B2F
:1051E00001221A7005B030BD74E10320C5BE0D0068
:1051F0000000A0C06CE103202DE9F043A14C23780E
:10520000013B8BB0052B00F20482DFE813F09F0115
:1052100006005E0099001E016B019B4D2B792BB19E
:105220009A4B1B78022B01D0FFF74EFD984B1B7851
:105230000BB1FFF77DFB974B1B780BB1FFF736FAED
:10524000954B964E596841B11A68521A1A6000225D
:105250005A619A615A6001233370914F3B783BB198
:105260002823894A8F48012100F0C0FD00233B70AC
:10527000337843B11C23884A8A48502100F0B6FD98
:10528000864B00221A70AB794BB101F04FFE864B72
:105290001B68C01A854B1B68984200F2C08103F05E
:1052A00041FD834B1B6898421CBF0523237003F00C
:1052B00039FD2B6A984280F2B58103F033FD724BC1
:1052C000DB699842C0F2AE81A3E16F4B1A791D46AB
:1052D0002AB16E4B1B78032B01D0FFF7F5FC0D2094
:1052E00002F0ACFE734B1B6893F8C00093F8C1301A
:1052F00003F01F0343EA4010FEF714FF664B1B68E0
:105300000BB1052320E1EB780BB1FFF78FFC0021F7
:10531000072003F034FFFFF70BFB03F0FCFC4FF416
:10532000616390FBF3F101FB1300191AB1F5616F92
:105330004FF000034FF00102A8BF4FF461614DE14F
:10534000514B1A791D462AB1504B1B78042B01D0C2
:10535000FFF7BAFC4F4B1B78002B40F05A81EB78DB
:105360000BB1FFF763FC514B4FF47A721A6003F0F4
:10537000D2FC0646FFF7DCFA4F4B1A7D0AB1012238
:105380001A72002204214C48FEF784FF01220D21ED
:10539000FEF780FF037D05465BB34FF4616296FB29
:1053A000F2F302FB1363D31A9342A8BF13464FF4E0
:1053B0007A7704215F43FEF764FF804608B1C76037
:1053C00017E03E49102003F0ADFF0646002800F02C
:1053D0002B814FF010094A46414604F057FF022343
:1053E00073800423A6F80090B3802B69B360F76044
:1053F0002E612B7D1BB1EB6843F00103EB602E495E
:1054000003A803F047FA039BB3B19A88012A13D18A
:105410009B890D2B04D101F089FD234B18600BE013
:10542000042B09D1264906A803F080F906A8FFF746
:1054300095FB06A803F033F9039802232370002894
:1054400000F0E78002F034F8E3E00F4D2B792BB148
:105450000E4B1B78052B01D0FFF736FCEB780BB910
:10546000FFF730FB01F08CFF60B303F05BFCEB69EE
:10547000984201D1FFF78AFCFFF7C2FDFFF77EF9E2
:10548000062324E088E0032074E1032070E0032079
:1054900090E0032030E0032014E103200CE103201E
:1054A0006CE103203CE00320C0E003206CE003201B
:1054B0008CE00320BCE0032094E00320BCC40D007A
:1054C000F1BA0D0001F032FD584B18600123237032
:1054D000AB79002B00F09D80554800F023FF03F0CE
:1054E00039FB96E0534B1B792BB1534B1B78062BA2
:1054F00001D0FFF7E9FB514B1B786BB9504B514A78
:105500001A6001F013FD504B186003F00BFC08B952
:10551000FFF7C0FB022317E001F008FD4B4B1B68AF
:10552000C01A4AF6C873984273D901F0FFFC3F4B8A
:1055300047491860474B48481B7800228DF80020E7
:10554000464AFEF7EFFE0123237062E0394C2379CF
:105550002BB1394B1B78012B01D0FFF7B5FB01F0C4
:10556000E5FC324B1B6803F5EA433033984250D9CF
:105570002369032B13DC01F003FF48B1354B384995
:105580001B78354800228DF80020364AFEF7CAFE07
:105590004FF4FA6001F0CCFF03F079F939E003F041
:1055A000BAFB244B304D5B6AC01AB0F5E15F19D9E4
:1055B00001F0E6FE48B1274B29491B782648002216
:1055C0008DF80020294AFEF7ADFE4FF4FA6001F095
:1055D000AFFF0023012223612A700A21144801F041
:1055E00090F816E001F0CCFE48B11A4B1C491B782C
:1055F000194800228DF800201D4AFEF793FE4FF453
:10560000FA6001F095FF0023236101232B70FFF75F
:1056100091FB074800F0AEFF0BB0BDE8F083042318
:1056200023703CE603238FE72875E2E608E10320B8
:105630004CE0032074E1032070E0032030E10320FC
:105640006CE00320905F0100C0E0032084E00320B1
:10565000E3BC0D0068E0032034E10320A3BC0D008F
:1056600010BD0D00FCBC0D006CE1032016BD0D004B
:1056700030BD0D000023022201F05ABE0023042297
:1056800001F056BE0246014802F03CB9D9780D003F
:105690002DE9F0430021ADB0082003F05FFD0021AB
:1056A000042003F05BFD0121072003F057FD0121D9
:1056B000052003F053FDA04FA04DDFF868830321C0
:1056C0000D2003F04BFD01210C2003F047FD3B684A
:1056D00093F8C00093F8C13003F01F0343EA401071
:1056E000FEF72FFD01210B2003F038FD3B6893F8F6
:1056F000B00093F8B13003F01F0343EA40100024D8
:10570000FEF710FD0121072003F039FDFFF710F926
:105710004FF0FF3301228A490094082002F066FC12
:1057200004A801F035FE23467D220CA904A803F04D
:105730003CF8234622468349019400940CA801F0CA
:1057400037FE81498148FFF795FF81498148FFF77E
:1057500091FF81498148FFF791FF81498148FFF717
:1057600089FF81498148FFF785FF81498148FFF71B
:1057700085FF81498148FFF77DFF81498148FFF717
:105780007DFF81498148FFF775FF81498148FFF717
:1057900071FF81498148FFF76DFF81498148FFF71B
:1057A0006DFF81498148FFF769FF81498148FFF713
:1057B00069FF81498148FFF765FF81498148FFF70B
:1057C00061FF81498148FFF75DFF81498148FFF70B
:1057D00059FF81498148FFF755FF81498148FFF70B
:1057E00051FF81498148FFF74DFF81498148FFF70B
:1057F00049FF81498148FFF745FF81498148FFF70B
:1058000041FF814802F082FE804800F057FA0123F0
:105810000DF10F0221467D4800F092FA9DF80F30FD
:10582000022B1AD0794800F053FA0423784A7748BB
:10583000214600F0DBFA01230DF10F0221467348E7
:1058400000F07EFA9DF80F30022B03D0012388F878
:10585000003008E0FFF70CFC05E028232A46012170
:105860006A4800F06DFA2CAC0026FFF74BFC44F8B8
:10587000906D32463146204601F038FB089B142BD0
:1058800000F03281324631462046089601F02EFB68
:10589000089B8C2B00F02881AB790BB15D4900E0AF
:1058A0005D49374804F07AFF5C4800F04BFD002169
:1058B0005A4800F09CFE95ED060A03F021F903F02A
:1058C00009FA20B9554800F02DFD03F043F9FFF720
:1058D000ABFA10B103F02EF901E003F035F995EDC4
:1058E000050ADFF8449103F0EFF803F0DFF806460D
:1058F00003F011FA301A03F0C3FF0DA3D3E900231C
:1059000004F04EF9104E464ACDE900010A21244820
:1059100001F0EEFD1C23324650213C4800F010FA05
:105920003368002B00F08280F06803F09BF87FE082
:10593000000000000020AC40BCE0032074E1032024
:10594000E9400D0041430D0014E103204FBD0D005F
:105950001CE103205BBD0D00C4E0032066BD0D000B
:1059600084E103206DBD0D0024E1032078BD0D000E
:1059700068DF032084BD0D007CE103208CBD0D0099
:105980000DE1032097BD0D0090E103203BBE0D000B
:1059900094E10320A4BD0D0028E10320AEBD0D005D
:1059A00031E00320B5BD0D0071E00320C0BD0D0046
:1059B00079410D00CFBD0D0001420D00D9BD0D0094
:1059C000D5430D00E5BD0D0095410D00EFBD0D0067
:1059D0005D4B0D00F7BD0D002D4A0D0004BE0D00FE
:1059E0001D440D000FBE0D00B1440D001CBE0D0086
:1059F000694E0D0029BE0D000D460D0037BE0D008D
:105A000045460D0044BE0D00ACE003203CE0032001
:105A1000C8BE0D005BBC0D0072BC0D004CE0032045
:105A200008BB0D0088E003208CE0032003F07AF926
:105A3000C9F80000FEF7B0FF042003F0B9FB08B975
:105A4000FFF716FB03F082F98146F06803F012F8C5
:105A5000814510D0FFF71EF96B7963B1274B9B7915
:105A60004BB92749204602F061FE2046FFF776F841
:105A7000204602F014FE03F055F92B6A1F4C9842A1
:105A800017DA03F04FF9E369984212DB0023009321
:105A900001224FF0FF331B490D2002F0A7FAE378F3
:105AA00013B101F06DFC30B3FFF7AAFA164B174A99
:105AB0001A603B6893F8B00093F8B13003F01F030D
:105AC00043EA4010FEF73DFB98F8003013B9104B45
:105AD00002221A700021072003F051FB04A802F0F3
:105AE000DEFD2DB0BDE8F0832B6901332B61094B3E
:105AF00001221A70D0E6FEF7E5FFD5E774E1032036
:105B0000C5BE0D00CD400D006CE00320905F01008C
:105B100088E003206CE103203E4B2DE9F041002496
:105B20001C603D4B3D4E3E4D01271F7001F026FA93
:105B30003C4B186003F0C4FA2346224642F670211B
:105B400003F0C6FA03F0BCFA22462346082103F00C
:105B5000C7FA4FF6FF7373813460B480B471348137
:105B6000022001F07DFB2A462F49304603F0CAFB94
:105B70002E4E2146384601F08BFB3946042001F0B9
:105B8000A5F94FF01008301D42462146306004F060
:105B90007DFB02232A462649F38030463775A6F856
:105BA000048003F0AFFB03F061FB224E0146304658
:105BB00000F006FB2A462049304603F0A3FB03F021
:105BC00055FB1E4E234601464FF40052304600F06E
:105BD0006BF81B4B336030461A4E1B492A4603F0C4
:105BE00091FB4FF400621949304600F0EFFF184B6B
:105BF00033603046174E18492A4603F083FB21468E
:105C0000304602F018FC2A4630461449BDE8F041FF
:105C100003F078BB70E1032068E00320B0E00320CC
:105C20002CE00320BCE0032073420D0094E003202D
:105C300061410D004CE00320335F0D003CE0032088
:105C400004BA0D0034E10320D9410D0000F4032013
:105C500020BA0D00ACE00320B1410D0055840D00C9
:105C6000704710B51021044603F051FB204610BDCB
:105C70000368C9B29B6818470EB400B58CB00DAA72
:105C8000202352F8041B03928DE806000493016858
:105C9000002304AA1E20059301F0C8FA0CB05DF899
:105CA00004EB03B07047000030B5034D0560416060
:105CB0008260C36030BD00BF50BF0D00406802F07D
:105CC0003FB910B50446006802F086F9204610BDC1
:105CD0002DE9F0418AB007464068019002F073F95F
:105CE0001E22002102A8BE6804F0D0FA0025DEB111
:105CF0003B681E2EB04628BF4FF01E08DC6802AA83
:105D0000434629463846A047044648B92A460A4928
:105D10000A48FFF7B1FF01A8FFF7D3FF204607E0CD
:105D2000C8EB06064544E2E701A8FFF7CAFF0120D9
:105D30000AB0BDE8F08100BFCCBE0D0070E20320C8
:105D40002DE9F3470446406801900E4617469846F1
:105D500002F039F9B8F1000F01D101243FE0E16808
:105D6000606841F0500102F023F9310A6068FFF7E2
:105D70007FFF31466068FFF77BFF0021606802F01B
:105D80001AF908B100242AE0E1686068B8F1200F30
:105D9000C14641F0500128BF4FF0200901234A4677
:105DA000C9B202F0EFF803F061FA03681B69984783
:105DB0004845E7DB3D46C7EB060A03F057FA0368A0
:105DC0005B69984705F8010BEA1BC5EB0803914591
:105DD00005EB0A063B44F0D898462F46BAE701A8DF
:105DE000FFF76FFF204602B0BDE8F0872DE9F347CB
:105DF0000446406801900D4690461F4602F0E3F8C5
:105E00004FB3E168606841F0500102F0D1F8290A0F
:105E10006068FFF72DFF29466068FFF729FF08F14A
:105E20001E094646C8EB050A606816F8011B0368A0
:105E30009B689847B14506EB0A05B04607F1FF3766
:105E400001D0002FF0D10121606802F0B4F80028E1
:105E5000D6D0002400E0012401A8FFF732FF20463D
:105E600002B0BDE8F0872DE9F0438BB00E46154631
:105E70008046406801901C4602F0A5F8AE4223D24D
:105E8000264425440CB901243FE01E2C2746D8F8AF
:105E9000003028BF1E27F61BD3F8089002AA3B4605
:105EA00031464046ED1BC84708B900242DE0D8F81C
:105EB000003002AAD3F80C9029463B464046C8471A
:105EC0000028F2D0E41BDDE7DDD9002CDBD01E2C4E
:105ED000D8F80030274628BF1E27D3F8089002AA1A
:105EE0003B4631464046C8470028DED0D8F800304F
:105EF00002AAD3F80C9029463B464046C8470028E2
:105F0000D3D03E443D44E41BDFE701A8FFF7D9FEB0
:105F100020460BB0BDE8F08301F030B84020704758
:105F20000020704780207047FF20704770477047FF
:105F30007047704710B51421044603F0E8F9204675
:105F400010BD10B50821044603F0E1F9204610BD4C
:105F500010B50821044603F0DAF9204610BD10B54B
:105F60001C21044603F0D3F9204610BD2DE9FF4162
:105F70000368DB680546984710220146684604F02E
:105F800085F92B6828469B689847002407462046D9
:105F9000BC420ED23E1B102E2B6828BF1026D3F811
:105FA00018806A46334621462846C04708B1344423
:105FB000EEE704B0BDE8F081002301228372C272D3
:105FC000027342738373C373037443747047000096
:105FD000012208B54271022282710322064BC2716E
:105FE0000422036002720023072203714272437489
:105FF000FFF7E2FF08BD00BFB0C00D0003090A2291
:1060000000F00F0002FB0300704708B5807AFFF72D
:10601000F5FF00F5FA6008BDC07A00F01F00FFF739
:10602000EDBF007B00F03F00FFF7E8BF08B5817BC4
:106030004A060DD501F01F00FFF7E0FF8B0603D5E0
:106040000C280BD00C3008BD0C2808BF002008BD60
:1060500001F03F00BDE80840FFF7D0BF08BDC07B9E
:1060600000F07F00FFF7CABF007C00F07F00FFF761
:10607000C5BF10B58AB024220021044601A804F04F
:1060800005F92046FFF7C1FFA0F26C70069020468C
:10609000FFF7C2FF013805902046FFF7C2FF0490CA
:1060A0002046FFF7C3FF03902046FFF7D8FF02907A
:1060B0002046FFF7D9FF019001A804F0CBF90AB000
:1060C00010BD0A2290FBF2F393FBF2F102FB1131B7
:1060D00002FB130343EA0110C0B27047642310B5FA
:1060E000044691FBF3F000FB1310FFF7EAFFA072E8
:1060F00010BD10B504460846FFF7E3FFE07210BD7F
:1061000010B504460846FFF7DCFF237B23F03F036E
:106110001843207310BD10B50446481CFFF7D1FF8B
:10612000637B23F007031843607310BD10B504466A
:106130000846FFF7C6FFA07310BD10B50446084619
:10614000FFF7BFFFE07310BD10B504460846FFF728
:10615000B8FF237C23F07F031843207410BD37B5AC
:10616000044602A840F8041D03F0C8FE0546416934
:106170002046FFF7B3FF296920460131FFF7B9FF39
:10618000E9682046FFF7BCFFA9692046FFF7C3FF77
:10619000A9682046FFF7CAFF69682046FFF7CDFFD0
:1061A00029683B29A8BF3B212046FFF7CDFF03B05C
:1061B00030BD10B50446FFF7D2FF637A637410BD9B
:1061C000084A026000220272427201228272034671
:1061D0000322C272044A41601861C260034A986196
:1061E00042617047C0C00D0090BF0D006CBF0D0034
:1061F0002DE9F84F05460F4691469A4600240A9B22
:106200009C4230D23946686801F0CEFE09EB0401A9
:106210006868FFF72DFD0021686801F0CCFE064696
:10622000D8B90A9B68681A1B202A4FF0010328BFBF
:106230002022394601F0A6FE0AEB040883464646B2
:10624000C8EB06039B4506D9686803685B699847F5
:1062500006F8010BF4E75C44D1E70246044905481F
:10626000FFF70AFD00E000263046BDE8F88F00BFCA
:106270000AC00D009CE103201FB5012300930A46CC
:1062800003AB6F21FFF7B4FF10B99DF80C0000E0DD
:10629000002005B05DF804FB08B50321FFF7ECFF13
:1062A000C0F3401008BD7FB51E46002B0CBF07236E
:1062B00006230093144602AB0A466F21FFF798FFAE
:1062C0000546D8B99DF8083023749DF80930E3736A
:1062D0009DF80A30A3739DF80B3063739DF80C3062
:1062E00023739DF80D30E3721EB99DF80E30A37232
:1062F00004E002F043FDFFF7E4FEA072284604B07C
:1063000070BD38B500230C460A4619460546FFF70E
:10631000CAFF28B9A37A1BB12846FFF7BDFF00B911
:10632000002038BD10B586B0044601A8FFF750FE26
:1063300001A92046FFF7E5FF10B101A8FFF799FE7C
:1063400006B010BD30B5044685B0406801F0F8FDD8
:1063500002F0C0FCC0B9E37A9B0715D52046FFF7D1
:10636000E1FF054680B102F0F5FB094B09491B68C6
:106370002A46684602F07CFC0748009A0749FFF766
:106380007BFC684602F08BF90123237205B030BD17
:1063900074DF0320A0E403209CE1032024C00D004F
:1063A0002DE9F34101EB03081E4603689B68044690
:1063B0000D461746984780450AD800963B46EAB2F4
:1063C00057216068FFF714FFB0FA80F0400900E041
:1063D000002002B0BDE8F0812DE9F34101EB030894
:1063E0001E4603689B6805460C461746984780453D
:1063F0000CD804F1200200963B46D2B26F216868A7
:10640000FFF7F6FEB0FA80F0400900E0002002B08D
:10641000BDE8F0812DE9F84F0746894692469B4634
:1064200000240A9B9C4228D24946786801F0BCFDB2
:106430000AEB04017868FFF71BFC0A9B1E1B1F2E4A
:106440000BEB040828BF1F264546786815F8011B8A
:10645000026892689047C8EB0502B242F5D3012169
:10646000786801F0A8FD054628B1024605490648AE
:10647000FFF702FC02E03444D3E700252846BDE8DC
:10648000F88F00BF39C00D009CE103201FB5137CBD
:106490008DF80830D37B8DF80930937B8DF80A3066
:1064A000537B8DF80B30137B8DF80C30D37A8DF83D
:1064B0000D30937A8DF80E30072300930A4602AB15
:1064C0006F21FFF7A7FF05B05DF804FB10B586B09C
:1064D000044601A8FFF77CFD01A8FFF740FE9DF8E8
:1064E0001430A27A63F07F038DF814309DF81130D8
:1064F00012B143F0080301E023F0080301AA0021D0
:1065000020468DF81130FFF7C1FFB0FA80F0400946
:1065100006B010BD7FB5064602F0DCFB0446B8B1FC
:1065200002F0F9FB054601463046FFF7CFFF0C4B62
:106530000C491B682A460446684602F099FB009AFB
:1065400009490A48FFF798FB684602F0A8F803E0FB
:1065500007490648FFF790FB204604B070BD00BF16
:1065600074DF0320A0E4032054C00D009CE103204D
:106570006AC00D0037B5457A04468DB902F0AAFB12
:1065800070B102A8294640F8045D00F029FF38B137
:10659000E37ADB0702D52046FFF7BCFF01236372D5
:1065A00003B030BD1FB504AB03F8042D01220092E7
:1065B0000A466F21FFF72EFF05B05DF804FBF8B522
:1065C000144605460E461F46FFF756FE204040EA99
:1065D000070231462846BDE8F840FFF7E3BF13B194
:1065E0001346FF2201E0D243D2B2FFF7E8BF0129F0
:1065F00008B50CD800294FF000030CBF1022202250
:106600000721FFF7ECFFB0FA80F0400908BD002039
:1066100008BD00294FF000034FF0080214BF1421F9
:106620000D21FFF7DCBF2DE9F34101EB03081E4606
:1066300003689B6805460C461746984780450CD86A
:1066400004F1200200963B46D2B26F216868FFF742
:10665000E1FEB0FA80F0400900E0002002B0BDE8A1
:10666000F081F0B5012B85B006460C4617461D4655
:1066700001D9002043E0FFF70FFE0028F9D029469A
:106680003046FFF7C6FF237C227B8DF80830E37B82
:106690008DF809308DF80C20A37BE27A8DF80A3052
:1066A0008DF80D20637B17B163F07F0301E003F0E9
:1066B0007F038DF80B30637C9DF80B201B0103F0EA
:1066C00070031343002D8DF80B304FF00603009339
:1066D00008BF0A2202AB18BF11226F213046FFF714
:1066E00099FE044640B9002D0CBF10232023FF2241
:1066F00007213046FFF763FFB4FA84F0400905B084
:10670000F0BDF0B5012B87B006460C4617461D4676
:1067100001D9002010E0FFF705FE0028F9D001198B
:1067200001A8FFF755FC01A8FFF743FD2B463A46A9
:1067300001A93046FFF795FF07B0F0BD38B5054613
:1067400032245721686801F02FFC0121686801F0AC
:1067500032FC08B1013CF4D138BD00002DE9F04114
:106760000546D7181446C2EB0108BC421ED057217B
:10677000686801F019FC08EB04016868FFF778FA13
:10678000686814F8011B03689B68984701216868D2
:1067900001F011FC064628B1024606490648FFF7FB
:1067A0006BFA04E02846FFF7C9FFDEE70026304613
:1067B000BDE8F0817FC00D009CE103202DE9F04190
:1067C00001EB03081E4603689B6804460D46174606
:1067D000984780450AD833463A46E9B26068FFF7E1
:1067E000BDFFB0FA80F04009BDE8F0810020BDE8AF
:1067F000F081000008B500F0C1FB024B024A1A60AC
:1068000008BD00BF9CE10320A0C00D0042680368E2
:10681000501012F0010F18BF0A58084418BFD3587F
:10682000184710B501230374836804460BB1C06890
:1068300006E0006828B183680BB902F084FDC368E4
:106840009847012363740020BDE8104000F036BB78
:10685000012A034601D1016005E0022A03D110B1EB
:1068600003C983E803000020704710B5836804461D
:1068700013B1032201469847204610BD0123F7B506
:1068800080F829300546083000F0F0FA0420FDF7C2
:1068900004FC0446002835D01C49142002F042FDB7
:1068A00030B100230374036043608360C3604374AA
:1068B0002060B0B1164B836023681649DD60206804
:1068C0004FF400638DE809000222134B043000F0FE
:1068D000A5FA30B923681B7CA3B9012000F016FB90
:1068E000F8E726680023236066B1376837B1384679
:1068F000FFF7BBFF1021384602F009FD1421304696
:1069000002F005FD6C6003B0F0BD00BFBCC40D001B
:106910002F6B0D00F0C00D0023680D0047F23051C1
:10692000C1600A490A4A01610A490260C161002244
:1069300009494260426181610262426280F8282016
:1069400080F8292080F82A20704700BF896C0D004C
:10695000B4C10D000D680D0051680D0010B5044B59
:10696000044640F8103BFFF780FF204610BD00BFF3
:10697000B4C10D0010B5034B03600446FFF7EEFFF2
:10698000204610BDD0C00D0010B50446FFF7F2FF41
:106990002046382102F0BBFC204610BD806800F084
:1069A0006DBA806800F072BA10B504460068FFF74F
:1069B000F8FF204610BD13B504460190FFF7EEFF27
:1069C000E36ADC88A4B20CB103F1080401A8FFF764
:1069D000EBFF204602B010BD13B504460190FFF74F
:1069E000DDFF94F828301BB9E26A0124D38000E06F
:1069F000002401A8FFF7D8FF204602B010BD37B52C
:106A000002AC054644F8040DFFF7C8FFEB6A2046C8
:106A1000DD88FFF7C9FF284603B030BD2DE9F047F8
:106A20009A4686B090F829309DF838909DF83C70D1
:106A300004468846164613B903689B689847314B4D
:106A40004046002E08BF1E4604F0E0FB05463046D7
:106A500004F0DCFB284400F10A05AB071CBF25F05D
:106A600003050435334603950297CDF80490CDF81D
:106A700000A0424624492548FFF7FEF8238E083B34
:106A80009D420FD9002438E0CB88012B31D005A8D6
:106A9000FFF78AFF236894F828109B6920469847DF
:106AA0000028EFD020460594FFF778FFE16A238E97
:106AB000626B0B449B1A9D42E6D847EA0907C2F86D
:106AC00000A01771676B08374146384603F066FE31
:106AD000384604F09BFB01303146384403F05EFE3B
:106AE000606BE26A28446063D3880133D380012459
:106AF00000E0002405A8FFF757FF204606B0BDE8D8
:106B0000F08700BFA3BC0D0002C10D00A0E103206F
:106B100008B5044600F11005A3690BB902F013FC97
:106B2000E36921462846984700F088F9F4E708B55C
:106B3000FFF7EEFF38B501F108040546204604F0E2
:106B400065FB01300444204604F060FBEB6A013031
:106B50002044C31A13F003031CBFC3F10403C0187D
:106B600038BD2DE9F341054688460190FFF716FF31
:106B7000EE6A06F10807F488B8F1000F07D0012C7F
:106B80001CD939462846FFF7D5FF074600E0B4B1C7
:106B900039462846FFF7CEFF2A8E3244121A0146A4
:106BA000A0EB070402D0384603F055FB6B6B1B1BB0
:106BB0006B63F388013BF380012400E0002401A80B
:106BC000FFF7F2FE204602B0BDE8F0812DE9F04764
:106BD00004460D4690460026FFF7A0FE2F46154BB3
:106BE0002360E562A4F830806663134B57F8082BE6
:106BF0009A42994614D1AB889BB2984510D105EBC7
:106C0000080A6763EB88B2B29BB29A420FD2616BFB
:106C10002046FFF78FFF8245606306F10106F1D23F
:106C20000023C5F80090A5F80480EB806763204638
:106C3000BDE8F087D0C00D0061AB9CD110B591E8E4
:106C40000C0086B004460292039302AB93E8030063
:106C50008DE8030094E80300A26883E803009DE840
:106C600003000492064AA260E2680592054AE260C7
:106C700084E803001846FFF7F8FD204606B010BD73
:106C800051680D000D680D0007B5054B009369466E
:106C9000002310300193FFF7D1FF03B05DF804FB30
:106CA000D16C0D0013B5044600F040F9636AC01AB8
:106CB000E368984208D3054B00936946002304F12A
:106CC00010000193FFF7BAFF02B010BDD16C0D00A8
:106CD0002DE9F04190F82A3086B00446002B73D19C
:106CE00000F04EFB00286FD000F020F9636AC01A54
:106CF00040F2F133984267D9236820465B69984790
:106D00000546002860D005F10806012384F82830E4
:106D1000304604F07BFA95F80480CDF80480013009
:106D200037182B68009332463B4629492948FEF71D
:106D3000A3FF2B688DF800803A46314602A800F088
:106D400001FF029D6B781BB9012000F0F1FBF8E711
:106D5000002000F0A5FA20B16B7813B900F0F8FA22
:106D6000FAE72B78012B09D11B491A48FEF784FF5B
:106D7000236800219B69204698470DE01749154874
:106D8000E268FEF779FF164B049304A9002304F18F
:106D900010000593FFF752FF002384F8283000F01D
:106DA000C5F86062039C7CB16368013B63605BB9BA
:106DB000236820469B689847A368013BA3601BB9E2
:106DC00023682046DB68984706B0BDE8F08100BF25
:106DD00043C10D00A0E1032064C10D007BC10D0083
:106DE000A56C0D0008B500F0C9F8024B024A1A6004
:106DF00008BD00BFA0E10320A2C10D0008B5024BF1
:106E00001B685B6C019308BD7402030008B5024B5C
:106E10001B689B6C019308BD7402030008B5024B0C
:106E20001B685B68019308BD4802030008B5024B6C
:106E30001B689B68019308BD4802030008B5024B1C
:106E40001B68DB68019308BD4802030008B5024BCC
:106E50001B681B69019308BD4802030008B5024B7B
:106E60001B685B69019308BD4802030008B5024B2B
:106E70001B681B6B019308BD4802030008B5024B59
:106E80001B689B6B019308BD4802030008B5024BC9
:106E90001B681B6C019308BD4802030008B5024B38
:106EA0001B685B6C019308BD4802030008B5024BE8
:106EB0001B689B6C019308BD4802030008B5024B98
:106EC0001B68DB6E019308BD4802030008B5024B46
:106ED0001B685B6E019308BD3402030008B5024BCA
:106EE0001B689B6E019308BD3402030008B5024B7A
:106EF0001B68DB6E019308BD3402030008B5024B2A
:106F00001B685B68019308BD1802030008B5024BBB
:106F10001B689B68019308BD1802030008B5024B6B
:106F20001B68DB68019308BD1802030008B5024B1B
:106F30001B685B69019308BD1802030008B5024B8A
:106F40001B68DB69019308BD1802030008B5024BFA
:106F50001B681B6A019308BD1802030008B5024BA9
:106F60001B689B6D019308BD1802030008B5024B16
:106F70001B68DB6D019308BD1802030008B5024BC6
:106F80001B681B68019308BD2C02030008B5024B67
:106F90001B685B68019308BD2C02030008B5024B17
:106FA0001B689B68019308BD2C02030008B5024BC7
:106FB0001B68DB68019308BD2C02030008B5024B77
:106FC0001B681B69019308BD2C02030008B5024B26
:106FD0001B685B69019308BD2C02030008B5024BD6
:106FE0001B689B69019308BD2C02030008B5024B86
:106FF0001B68DB69019308BD2C02030008B5024B36
:107000001B681B6B019308BD2C02030008B5024BE3
:107010001B68DB68019308BD2802030008B5024B1A
:107020001B689B69019308BD2802030008B5024B49
:107030001B68DB69019308BD2802030008B5024BF9
:107040001B681B6A019308BD2802030008B5024BA8
:107050001B685B6A019308BD2802030008B5024B58
:107060001B689B6A019308BD2802030008B5024B08
:107070001B68DB6A019308BD2802030008B5024BB8
:107080001B681B6B019308BD2802030008B5024B67
:107090001B685B6B019308BD2802030008B5024B17
:1070A0001B681B6C019308BD2802030008B5024B46
:1070B0001B689B6C019308BD2802030008B5024BB6
:1070C0001B68DB6C019308BD2802030008B5024B66
:1070D0001B681B6D019308BD2802030008B5024B15
:1070E0001B685B69019308BD6402030008B5024B8D
:1070F0001B689B68019308BD6802030008B5024B3A
:107100001B68DB68019308BD6802030008B5024BE9
:107110001B68DB69019308BD3002030008B5024B10
:107120001B681B6A019308BD3002030008B5024BBF
:107130001B681B68019308BD3C02030008B5024BA5
:107140001B68DB68019308BD3C02030008B5024BD5
:107150001B681B69019308BD3C02030008B5024B84
:107160001B685B69019308BD3C02030008B5024B34
:107170001B689B69019308BD3C02030008B5024BE4
:107180001B68DB69019308BD3C02030008B5024B94
:107190001B681B6A019308BD3C02030008B5024B43
:1071A0001B689B6A019308BD3C02030008B5024BB3
:1071B0001B681B68019308BD4C02030008B5024B15
:1071C0001B681B69019308BD4C02030008B5024B04
:1071D0001B685B69019308BD4C02030008B5024BB4
:1071E0001B689B69019308BD4C02030008B5024B64
:1071F0001B68DB69019308BD4C02030008B5024B14
:107200001B681B6A019308BD4C02030008B5024BC2
:107210001B685B6B019308BD6002030008B5024B5D
:107220001B681B6D019308BD6002030008B5024B8B
:107230001B685B6D019308BD6002030008B5034B3A
:107240001B68D3F89830019308BD0000600203006A
:1072500008B5024B1B681B68019308BD20020300A0
:1072600008B5024B1B685B68019308BD2002030050
:1072700008B5024B1B685B69019308BD200203003F
:1072800008B5024B1B689B69019308BD20020300EF
:1072900008B5024B1B68DB6A019308BD200203009E
:1072A00008B5024B1B68DB6C019308BD200203008C
:1072B00008B5024B1B685B6D019308BD20020300FB
:1072C00008B5024B1B689B6D019308BD20020300AB
:1072D00008B5024B1B68DB6D019308BD200203005B
:1072E00008B5034B1B68D3F88830019308BD000034
:1072F0002002030008B5034B1B68D3F894300193B8
:1073000008BD00002002030008B5034B1B68D3F83A
:10731000A830019308BD00002002030008B5034B0C
:107320001B68D3F8AC30019308BD000020020300B5
:1073300008B5024B1B681B68019308BD440203009B
:1073400008B5024B1B685B68019308BD440203004B
:1073500008B5024B1B689B68019308BD44020300FB
:1073600008B5024B1B68DB68019308BD44020300AB
:1073700008B5024B1B681B69019308BD440203005A
:1073800008B5024B1B685B69019308BD440203000A
:1073900008B5024B1B68DB69019308BD440203007A
:1073A00008B5024B1B681B6A019308BD4402030029
:1073B00008B5024B1B685B6A019308BD44020300D9
:1073C00008B5024B1B68DB6A019308BD4402030049
:1073D00008B5024B1B681B6B019308BD44020300F8
:1073E00008B5024B1B685B6B019308BD44020300A8
:1073F00008B5024B1B68DB6B019308BD4402030018
:1074000008B5024B1B685B68019308BD400203008E
:1074100008B5024B1B689B68019308BD400203003E
:1074200008B5024B1B68DB68019308BD40020300EE
:1074300008B5024B1B681B69019308BD400203009D
:1074400008B5024B1B685B69019308BD400203004D
:1074500008B5024B1B689B69019308BD40020300FD
:1074600008B5024B1B68DB69019308BD40020300AD
:1074700008B5024B1B681B6A019308BD400203005C
:1074800008B5024B1B681B6B019308BD400203004B
:1074900008B5024B1B685B6B019308BD40020300FB
:1074A00008B5024B1B681B68019308BD1C02030052
:1074B00008B5024B1B685B68019308BD1C02030002
:1074C00008B5024B1B689B68019308BD1C020300B2
:1074D00008B5024B1B681B69019308BD1C02030021
:1074E00008B5024B1B689B69019308BD1C02030091
:1074F00008B5024B1B68DB69019308BD1C02030041
:1075000008B5024B1B681B6A019308BD1C020300EF
:1075100008B5024B1B68DB6A019308BD1C0203001F
:1075200008B5024B1B681B6B019308BD1C020300CE
:107530000021FFF79DBE10B5836804460BB901F02A
:1075400002FFC3689847A3681BB103222146204667
:10755000984720461021BDE8104001F0D8BE10B574
:107560000446006808B1FFF7A1FC204610BD10B525
:10757000036804469B689847A368013BA3602BB946
:1075800023682046DB68BDE81040184710BD0B6833
:10759000036013B15A6801325A60704710B504464F
:1075A000006828B14368013B43600BB9FFF7DFFF78
:1075B000204610BD10B5064C002320462360FFF77F
:1075C0006DFC2046034A0449BDE8104001F09ABE14
:1075D000A4E103202CE003205F750D00002211467A
:1075E0004068FFF725BF002211464068FFF740BF03
:1075F000002211464068FFF74BBF00224068FFF7AA
:107600003FBF002281F001014068FFF729BF00233E
:107610001A4619464068FFF71BBF00231A46194651
:107620004068FFF70DBF002211464068FFF7F0BE2B
:10763000002202214068FFF7F3BE00231A4640688B
:10764000FFF7DEBEF0B51B4B036000250F46283365
:10765000182689B043608560C560324629460446D5
:10766000103002F013FE2A4629467868FFF7E0FE44
:1076700008B9A0601BE02946324602A80095019592
:1076800002F004FE02A96846ADF80860FFF7B6FBF9
:1076900010B10123A3600AE0009B019AA360E2609D
:1076A0000BB90223A36002A9204600F089F8204606
:1076B00009B0F0BD10C20D0038B5084C28252A4687
:1076C0000021204602F0E2FD4FF0FF336360044BDF
:1076D000258004225A60034A1A6038BDB0E10320B5
:1076E000A8E10320DCC10D007047007D7047000059
:1076F000037D1BB18369B3F1004F02D19FED050AF1
:10770000704707EE903A9FED047AF8EEE77A87EE3D
:10771000870A7047000000000000C842037D1BB1CB
:10772000036AB3F1004F02D19FED050A704707EEDF
:10773000903A9FED047AF8EEE77A87EE870A704771
:10774000000000000000C84210B52821044601F0E6
:10775000DEFD204610BD0000037D7BB1436A002B97
:107760000CDB07EE903ADFED076A9FED070AB8EEF3
:10777000E77AC7EE267A27EE800A7047BFEE000A46
:10778000704700BF00FF7F470000C842037D7BB108
:10779000C369002B0CDB07EE903ADFED076A9FED23
:1077A000070AB8EEE77AC7EE267A27EE800A704716
:1077B000BFEE000A704700BF00FF7F470000C842CD
:1077C00030B50D4600F110040FCD0FC495E803004D
:1077D00084E80300012030BD2DE9F04107460C4646
:1077E00015462AB90368C9B29B68BDE8F04118473D
:1077F000002907DA0A2A05D12D2100F0F6FE6142A0
:10780000064601E021460026EAB2384600F006FFAF
:107810003044BDE8F08170B50D4606460A22816805
:107820002846FFF7D9FF2C210446284600F0DDFE4C
:107830000A220444F1682846FFF7CEFF204470BDB9
:10784000A0F10400FFF7E7BF70470020704710B5B4
:107850001021044601F05BFD204610BD08B508B1BB
:10786000FFF7F5FF08BD0022026010B54FF69C72CD
:107870008280B1F9044084808A8002680C680460C8
:107880000A6010BD10B504460068FFF711FE2046DF
:1078900010BD38B5C468F4B12378022B03D104F1CC
:1078A0000C00FFF7EFFF656835B12846FEF7DDFFF6
:1078B0001021284601F02BFDA56835B12846FEF7BA
:1078C000D4FF1021284601F022FD20461421BDE8F6
:1078D000384001F01CBD38BD10B588B0044668467C
:1078E00000F024FF694604A800F042FF04A8A04766
:1078F000044604A800F0D3FE684600F0D0FE2046FF
:1079000008B010BDF0B5102485B007460E461546E8
:1079100000212246684602F0B9FC00226946104662
:10792000ADF80040029703960195FFF709FD05B0F9
:10793000F0BD13B5044691E8050000234B600B60D1
:107940002060626001A801930093FFF727FE2046A4
:1079500002B010BDF7B50C4602AD54F8043B45F833
:10796000083D06460F4601A82146FFF710FE2946AE
:107970003046FFF7DEFF01A8FFF710FE2046FFF7B5
:107980000DFE3846082101F0C2FC304603B0F0BDC0
:1079900013B50B46044603C88DE8030093E80300C3
:1079A00084E803009DE8030083E8030002B010BDF3
:1079B00038B500230446036010200D46FCF76DFB2C
:1079C00028B1012343608360024B0360C5602060DF
:1079D000204638BD44C20D00826810B50AB901F0D6
:1079E000B2FCC368BDE81040184708B5006800F154
:1079F0001001FFF7F1FF08BD826810B50AB901F068
:107A0000A2FCC368BDE81040184708B5006800F143
:107A10001001FFF7F1FF08BD38B5002383608B68C4
:107A200004460D462BB102229847EB68E360AB6831
:107A3000A360204638BD0000F0B589B004686846F0
:107A4000FFF711FF00238DF808304FF00202D4E851
:107A50004F3F002B03D1C4E8412F0029F7D102D0BA
:107A60008DF8083063E014F10C0503D06946284610
:107A7000FFF7F9FEBFF35F8F01236370002004F16D
:107A80000803BFF35F8F53E8006F43E80002002A4A
:107A9000F9D1BFF35F8F002E49D0FFF701FC20B171
:107AA00029463046FFF798FF3AE0314602A8FFF733
:107AB000B3FFE068B4F9105008B102F077FE069009
:107AC0001020ADF81C50FCF7E8FA0546E8B1002795
:107AD00087601820FCF7E1FA044688B10146876008
:107AE00002A8FFF755FF049BA268A360059B0492C0
:107AF00006A9E268E36004F110000592FFF7B3FE07
:107B00000D4BEB600D4B2C60AB6006A8FFF7BAFE87
:107B100002A8FEF7AAFE002229460948FFF7C8FB83
:107B20003046FEF7A2FE1021304601F0F0FB684619
:107B3000FFF7A8FE09B0F0BDEB790D00617C0D00E8
:107B400037750D002DE9F04F8BB006460F46904675
:107B500099469DF850A0FFF713FC07AD834630BB54
:107B60004FF62E73059005A92846ADF81830FFF79B
:107B70007AFE1420FCF791FA044658B102230370F0
:107B800001234370C0F804B0C0F808B029460C3097
:107B9000FFF769FE3046214640F8044BFFF708FF27
:107BA0002846FFF76FFE05A8FFF76CFE52E00024A1
:107BB0000C2314206C60AC600793FCF76EFA01464E
:107BC00018B1047044704460846004A80391FFF706
:107BD000EFFE224B08930820FCF75FFA044628B119
:107BE000039B40F8043B04A9FFF7D1FC00955FFA22
:107BF0008AF34A46414638460994FFF7D1FB20B93B
:107C0000039B5B7803F0FF0283B1039B059304A9F8
:107C100006A8FFF7BCFC05A93046FFF78AFE06A8B8
:107C2000FFF7BCFC04A8FFF7B9FC13E04FF69C7308
:107C300005A903A80592ADF81830FFF7FDFE05A8C9
:107C4000FFF720FE05A80999FFF784FE06A8FFF7B5
:107C5000A5FCDAE730460BB0BDE8F08FD17D0D0012
:107C6000022AF8B5044606D0032A17D0012A22D1E9
:107C70000B6803601FE018200E68FCF70EFA05463B
:107C800050B13146FFF7C8FE3069B6F9147008B13B
:107C900002F08CFD2861AF8225600CE0046854B1CD
:107CA00004F11000FFF7EEFD2046FEF7DEFD18217F
:107CB000204601F02CFB0020F8BD38B5002383607E
:107CC0008B6804460D462BB102229847EB68E360AF
:107CD000AB68A360204638BD022A70B5044606D0C2
:107CE000032A11D0012A18D10B68036015E0142073
:107CF0000E68FCF7D2F9054620B13146FFF7DDFFEB
:107D0000337C2B74256008E0046834B12046FEF70C
:107D1000ACFD1421204601F0FAFA002070BD0000ED
:107D2000F0B5002387B00C46BFF35F8F50E8006FBB
:107D300040E80032002AF9D1BFF35F8F002E3FD018
:107D40001846FFF7ADFA074620B121463046FFF747
:107D500053FE2EE0314601A8FFF7AFFF23788DF8E0
:107D600014301020FCF799F90546D0B18760142033
:107D7000FCF793F9044678B18760014601A8FFF744
:107D800007FE039BA268A360049B0392E268E36082
:107D90009DF81430049223740A4BEB600A4B2C605C
:107DA000AB6001A8FEF761FD002229460748FFF7F6
:107DB0007FFA3046FEF759FD1021304601F0A7FA50
:107DC00007B0F0BD0B7A0D00D97C0D0037750D00A2
:107DD00030B585B004460D4668461146FFF7BAFD3A
:107DE0007CB124B228460DB102F0E0FC029002A959
:107DF0006846ADF80C40FFF71FFE02A8FFF742FDF2
:107E00001DE000988DF808404FF00102D0E84F3F88
:107E1000A34203D1C0E8412F0029F7D102D08DF849
:107E200008300CE010F10C014FF0010318BF037390
:107E3000BFF35F8F043000F8033CFFF771FF01A828
:107E4000FFF7ACFB05B030BD002211464068FFF7DC
:107E50000FBB002211464068FFF71ABB00224068A2
:107E6000FFF70EBB002281F001014068FFF7F8BA6E
:107E700000231A4619464068FFF7EABA00231A465B
:107E800019464068FFF7DCBA002211464068FFF748
:107E9000CFBA002211464068FFF7BABA0022022189
:107EA0004068FFF7BDBA00231A464068FFF7A8BA3A
:107EB000024B03225A60024A1A607047D8E103203D
:107EC00060C20D007047F8B5064615460C468F187F
:107ED000BC4206D0336814F8011B9B6830469847B3
:107EE000F6E72846F8BD0022007CFFF7A7B800217E
:107EF000007CFFF7ABB80021007CFFF7AFB8002192
:107F0000007CFFF7B3B80021007CFFF7B7B810B5CD
:107F10001421044601F0FBF9204610BD10B50446BB
:107F2000002363604FF47A73A360044B2174084606
:107F300023601146FFF7B2F8204610BD94C20D0031
:107F400000231A461946007CFFF760B870B50C464E
:107F500086B0142506462A46002101A802F096F9AB
:107F600023788DF8083063680393E3680493002254
:107F7000237A307CADF8045001A90593FFF7A6F8E9
:107F800006B070BD1FB500338DF800104FF06401CE
:107F9000039118BF0123694601928DF80830FFF75D
:107FA000D5FF05B05DF804FB0022007CFFF736B872
:107FB000C9B2FFF7F9BF0022007CFFF737B80021F4
:107FC000007CFFF763B808B50021007CFFF76EF86E
:107FD000B0FA80F0400908BD08B50021007CFFF729
:107FE0006DF8B0FA80F0400908BD0047F0B585B0E3
:107FF0001C460E4617460546FEF7F8FF0020844251
:108000004FF0040303908DF80C30A5BF9DF8283085
:108010008DF80E30034603AB009332463B460649CB
:10802000A8BF8DF80D402846FEF7D8FFB0FA80F0C3
:10803000400905B0F0BD00BFEB7F0D00F8B5064666
:10804000FEF7D4FF074668B9084D55F826405CB1E5
:108050002046FEF70AFC1021204601F058F945F8A9
:10806000267001E00020F8BD0120F8BDE0E103200A
:10807000704710B51821044601F049F9204610BD9B
:10808000F0B5037D062B8DB00E4600F104074FF0CE
:10809000000402D000F1080518E00CAD394605F8DF
:1080A000304D2F232A460A20FFF718F8284603F000
:1080B000ADF833680246DB682946304698470FE042
:1080C00024B12E21304600F090FA044415F8011D29
:1080D0000A22304600F0A2FABD420444F0D1204604
:1080E0000DB0F0BD10B5054B0446112240F8043B1D
:1080F000002102F0CBF8204610BD00BFBCC20D002D
:108100000346074A10B543F8042B01F1100251F859
:10811000044B43F8044B9142F9D10A781A7010BD10
:10812000BCC20D0010B59DF8084044EA032343EAA1
:10813000024242EA016104234160037510BD37B574
:108140000D788B784A78C97800912946FFF7EAFFC5
:1081500003B030BD014B024A1A60704770E2032041
:1081600038C30D00002211464068FFF781B9002294
:1081700011464068FFF78CB900224068FFF780B9CC
:10818000002281F001014068FFF76AB900231A4616
:1081900001214068FFF75CB900231A461946406880
:1081A000FFF74EB9002211464068FFF741B900229F
:1081B00011464068FFF72CB9002202214068FFF702
:1081C0002FB900231A464068FFF71AB938B505469B
:1081D00088B104684CB1A3681BB103222146204634
:1081E00098471021204601F092F828461421BDE856
:1081F000384001F08CB838BD10B103685B6818478F
:10820000704710B503680446BBB15868FEF70EFE10
:1082100078B923685A7C12B95868FEF717FE2368AC
:108220005868FEF71BFE20680023236028B1FFF783
:10823000CDFF206808B1FFF7C9FF204610BD38B553
:108240000446D0F8C40108B1FBF72BFFD4F8C001F5
:1082500008B1FEF72BFED4F8BC5135B12846FFF724
:10826000D0FF0421284601F052F8206808B1FFF73A
:10827000C3FF204638BD000010B5044B044640F84B
:10828000083BFFF7DCFF204610BD00BFA4C30D0074
:1082900038B50E4C0E4B23600025022304F5E47024
:1082A0006360A560C4F8C451C4F8C851FEF7F6FD78
:1082B000084BC4F8CC5184F8D05123602046064ABC
:1082C0000649BDE8384001F01DB800BF74E2032044
:1082D000D8C30D00A4C30D002CE0032079820D004B
:1082E00000231A464068FFF78BB80022022140683D
:1082F000FFF796B8002211464068FFF789B80022C0
:1083000011464068FFF794B800231A4619464068A2
:10831000FFF796B800231A4619464068FFF798B849
:10832000002281F001014068FFF79AB800224068FE
:10833000FFF7A6B8002211464068FFF7A9B800224F
:1083400011464068FFF794B82DE9F043002495B03A
:1083500016460D460746FFF7C5FE214620220CA80B
:10836000009401F093FF40230C9321466B460CAA26
:108370003046FEF7C3FE0446002844D102460121E0
:108380006868FFF755F80221804622466868FFF7C3
:108390004FF8009E81462146002E34D0002932D16C
:1083A0007368022B02D00A2B09D02AE0B8F1000F23
:1083B00027D0716938460431FFF7C1FE20E0B9F1DA
:1083C000000F1ED07469112201A801F05FFF06237F
:1083D0008DF8143001AD04F1080318341868596899
:1083E0002A4603C20833A3421546F7D101A906A8BD
:1083F00007ADFFF785FE0FCD3C1D0FC42B68237022
:108400000121F669C8E70098FEF770FE384615B0FE
:10841000BDE8F083024B034A1A6000225A6070479D
:1084200048E40320D8C30D0008B500F045FFBDE8BF
:108430000840FFF7C8BD10B50446017009B1FFF749
:10844000F3FF204610BD08B500F036FFBDE8084038
:10845000FFF7C2BD10B5037804460BB1FFF7F3FF79
:10846000204610BD10B504460068FFF7ECFF20461B
:1084700010BD37B502AC0D4644F8040DFFF7D4FF2C
:1084800000F01AFF6B21FFF793FD00F015FF036862
:1084900029469B68984700F00FFF0121FFF78BFDED
:1084A00000F00AFF01231A466B21FFF76BFD00F075
:1084B00003FF03685B69984705462046FFF7D2FF34
:1084C000E8B203B030BD73B502AC15460E4644F8B1
:1084D000040DFFF7A9FF00F0EFFE6B21FFF768FD29
:1084E00000F0EAFE036831469B68984700F0E4FE1E
:1084F000036829469B68984700F0DEFE0121FFF7DC
:108500005AFD2046FFF7AEFF02B070BD37B502AC92
:10851000054644F8040DFFF787FF00212846FFF7C2
:10852000A8FF002100F07F022846FFF7CCFF20467D
:10853000FFF798FF012003B030BD37B502AC054608
:1085400044F8040DFFF770FF01212846FFF791FF63
:10855000012100F0CF022846FFF7B5FF2046FFF7C4
:1085600081FF012003B030BD37B502AC054644F8A9
:10857000040DFFF759FF01212846FFF77AFF00F0AD
:10858000CF0242F0100201212846FFF79CFF20464F
:10859000FFF768FF012003B030BDFFF7E5BFF8B576
:1085A00006460D468F180024BD420CD0336815F8DE
:1085B000011B9B6830469847002801DB0444F3E721
:1085C000002C08BF04462046F8BD70B505460C4691
:1085D000084649B102F01AFE2B6802462146284699
:1085E000DB68BDE87040184770BD03689B6818479A
:1085F00038B50D210546FFF7F8FF0A210446284645
:10860000FFF7F3FF204438BD38B50546FFF7DDFF1F
:1086100004462846FFF7ECFF204438BD30B58BB048
:108620000B4600218DF82410012A98BF0A220DF173
:108630002304B3FBF2F505FB123303F0FF03092B10
:1086400094BF30333733DBB2214604F801392B466F
:10865000002DEED1FFF7B9FF0BB030BD10B50446C9
:10866000FEF703F9204610BD0348044A04490023DD
:10867000836000F047BE00BF50E403202CE00320DD
:108680005D860D0010B5044601700846FEF73EFDFC
:1086900000236360204610BD0078FEF73FBD10B593
:1086A00004460068FEF704FF204610BD10B50446DE
:1086B000006808B1FEF7FCFE00232360A36063603E
:1086C00010BD38B504460D4600680131FEF7F8FECE
:1086D00010B184E82100012038BD10B503680446BC
:1086E00013B143688B4207D22046FFF7EAFF20B15F
:1086F000A3680BB922681370012010BD70B50E4637
:10870000114604461546FFF7E8FF18B92046FFF763
:10871000CDFF09E02A463146A560206801F090FDB2
:108720002268A3680021D154204670BD38B50023CB
:10873000044603604360836003730D4639B1084605
:1087400002F064FD294602462046FFF7D7FF204687
:1087500038BD884210B50B46044607D0096819B1E8
:108760009A68FFF7CBFF01E0FFF7A0FF204610BD9E
:1087700010B5002304460360436083600373FFF772
:10878000E8FF204610BD08B582680B4612B919B93A
:10879000012008BD11B90368187802E0006801F0F3
:1087A000F3FFB0FA80F0400908BD70B50E469AB1EB
:1087B00091B185689D4202D800230B7070BD541E94
:1087C000ED1A0168AC4228BF2C46194422463046B7
:1087D00002F039FD0023335570BD10B50446006822
:1087E00018B1FEF765FE0023236010BD38B5B1F95E
:1087F000043083800B460D4653F8062FC0F8062040
:108800009B8843810446FFF7E8FF2B6813B1236080
:1088100000232B60204638BDB1F9043010B50BB9E8
:108820000A689AB10C685CB1A288012A03D0042AB4
:1088300006D1022205E0A4894C818A710B8105E0F2
:1088400004220B814FF6FF738A714B8151F8063F6A
:1088500003608B88838010BD38B50C460546FFF752
:10886000BCFF44B12088FEF71BFE286028B1228897
:10887000214601F0E5FC002038BD014838BD00BFAD
:10888000FCFEFFFF014600228C20FEF727BB0020E4
:10889000FFF7F8BFF0B5304D0B7D04468BB00846AE
:1088A000AF1D13B30B681B79FBB100224FF6FF73AA
:1088B00002A904300292ADF80C208DF80E20ADF81C
:1088C0001020ADF81230FEF729FD0AAB00B253F8C4
:1088D0001A2DADF80C009B88A880C5F806200299D7
:1088E000BB802846FFF7B8FF1CE020230026029338
:1088F0001A4B00931A4903963346322002AAFEF718
:108900008DFC4FF6FF73ADF8123002A94FF6F263FB
:10891000114802968DF80E60ADF81060ADF80C307D
:10892000FFF764FF02A8FFF758FF00232360A3802E
:10893000A37123814FF6FF736381B5F90430A380DF
:108940003B68C4F80630BB88638129682046FFF77E
:1089500083FF20460BB0F0BD60E403200BC40D0084
:1089600004C40D0030B5044685B0084611461A46C9
:108970000023FEF785FC0D4DADF80C00002301A986
:108980000193ADF808308DF80A3028464FF6FF7392
:10899000ADF80E30FFF72AFF01A8FFF71EFF2046B3
:1089A0002946FFF739FF204605B030BD60E40320BB
:1089B00010B5094C00204FF6FF732060A080A07115
:1089C00020816381FEF74CFC2046044A0449BDE83F
:1089D000104000F097BC00BF60E403202CE00320AF
:1089E00073420D00F0B5144B144F1E68144B06442F
:1089F00018683B6806449E428BB01BD00AA801ADA4
:108A000040F8286D01F024FB436903F26C73436165
:108A100004460FCC0FC50FCC0FC5D4F800E0C5F845
:108A200000E001AD0FCD074C0FC40FCD0FC43E6069
:108A3000C4F800E00BB0F0BD9CE4032098E40320F0
:108A400094E403206CE4032008B50020FEF7C0FC8A
:108A500028B1FEF795FC80F00100C0B208BD0120EE
:108A600008BD000008B5FFF7BDFF014B986808BDC1
:108A70006CE4032008B5FFF7B5FF014BD86808BDCB
:108A80006CE4032008B5FFF7ADFF024B9869013095
:108A900008BD00BF6CE4032008B5FFF7A3FF024B3D
:108AA0001869013008BD00BF6CE4032008B5FEF76B
:108AB00045FA034B1B681844024B1B68184408BD59
:108AC0009CE4032094E40320FAEE087AB4EEE70A6B
:108AD000F1EE10FA0FD4F2EE0C7AB4EEE70AF1EEF2
:108AE00010FA08DCDFED047A044B20EE270ABDEE15
:108AF000C00A83ED000A7047000061459CE4032032
:108B0000B5EEC00AF1EE10FA0FD4F0EE007AB4EE32
:108B1000E70AF1EE10FA08DCDFED047A044B20EEF0
:108B2000270ABDEEC00A83ED000A704700006145C8
:108B300070DF0320024B1A68024B1A60704700BFB7
:108B400070DF032094E40320014B00221A60704779
:108B500094E4032008B5FEF7F9F900221146104607
:108B6000BDE80840FEF7B4BB37B50E4B1B6819448F
:108B70000D4B1B68044602A8194440F8041D01F07F
:108B800067FA01F06DF9054602F040FB2844002326
:108B900000F8013C29462046FFF7C8FD204603B0F7
:108BA00030BD00BF9CE4032094E403202DE9F0478E
:108BB000A4B014AC07468946204611463F221D4604
:108BC00002F041FB002320468DF88F3002F01EFB9F
:108BD000804625B9244903A801F0E0FD13E03C21BB
:108BE00095FBF1F2002AB8BF524292FBF1F301FB70
:108BF000132200924FF461631C4A95FBF3F310219A
:108C000003A8FEF775FC25462E1B08F1FF3AB24576
:108C10001BD92B78252B16D16B787A2B13D103A86F
:108C200002F0F4FA80463044C6EB0A02A91C204444
:108C300001F006FB424603A9284601F001FB20464D
:108C400002F0E4FA80460135DEE74B462246322147
:108C500007A801F027FE07A93846FFF767FD384649
:108C600024B0BDE8F08700BFBDC90D0032C40D00BF
:108C7000F7B5054601921C4613B9124B1C682CB17E
:108C8000114B2046196801F07FFD20B90199284653
:108C9000FFF76AFF13E00D4F019A3B680C4E1A4430
:108CA000336802A8134440F8043D01F0D1F93A6852
:108CB00033680146134428462246FFF777FF2846CB
:108CC00003B0F0BD90E4032074DF03209CE4032094
:108CD00094E4032010B50020FEF740F9044668B97B
:108CE000FEF7B6FA01280BD12046FEF7E9FA38B9AB
:108CF000FFF7AAFE30B9FEF72BFBF9E7012010BD04
:108D0000002010BDFFF7A0FE0020FEF727F900307D
:108D100018BF012010BD08B5FFF7DCFFBDE8084013
:108D2000FEF70CB908B5FFF7F6FFFFF75BFE014B46
:108D3000986808BD6CE4032008B5FFF7ECFFFFF767
:108D400051FE014B586808BD6CE4032008B5FFF7DD
:108D5000E2FFFFF747FE014BD86808BD6CE4032033
:108D600008B5FFF7D8FFBDE80840FFF78BBE08B590
:108D7000FFF7D1FFBDE80840FFF78EBE08B5FFF74B
:108D8000CAFFFFF72FFE014B586908BD6CE40320B2
:108D9000024B1A68024B1A60704700BF74DF032051
:108DA00090E4032070474174704708B5007CFEF7DB
:108DB000F5F920EAE07008BD08B5007CFEF7C6F9B9
:108DC00020EAE07008BD08B5007CFEF7CFF930EA74
:108DD000200028BF4FF0FF3008BD08B5007CFEF72B
:108DE000BDF930EA200028BF4FF0FF3008BD007CFD
:108DF000FEF7C4B910B51421044600F088FA2046E5
:108E000010BD70B5457C04460E4625B9007CFEF7C2
:108E1000C5F9002805DD3146207CBDE87040FEF72D
:108E20008DB9284670BD000010B5044608461146AD
:108E3000002262604FF47A72A260054A2260012229
:108E4000207462741A46FEF771F9204610BD00BF07
:108E500064C40D00007CFEF799B9000038B50C4DD4
:108E6000296811F0010411D12846FBF727F968B1F0
:108E7000084A094B09482146FFF7D6FF2846FBF769
:108E800022F9074A0749054800F03CFA034838BD73
:108E90003CE5032040E50320B8E40320A4E40320DC
:108EA0002CE00320A58D0D0041747047704708B574
:108EB0000021007CFEF792F930EA200028BF4FF035
:108EC000FF3008BD08B50121007CFEF787F930EAC4
:108ED000200028BF4FF0FF3008BD08B5007CFEF72A
:108EE00075F920EAE07008BD08B5007CFEF766F968
:108EF00020EAE07008BD007CFEF780B910B51421AF
:108F0000044600F004FA204610BD38B50446007C43
:108F10000D46FEF75BF9002801DC607C28B129468C
:108F2000207CFEF763F920EAE07038BD10B50446F6
:108F3000002363604FF47A73A360054B2360012321
:108F40000846217463741146FEF730F9204610BDBF
:108F500094C40D0010B514220446002101F096F9C6
:108F6000204610BD30B50E4D87B001A8FFF7F2FFC7
:108F7000296811F0010410D12846FBF79FF860B171
:108F800001AA21460748FFF7D1FF2846FBF79BF8C7
:108F9000054A0649034800F0B5F9024807B030BD5C
:108FA000C4E50320C8E503202CE00320AD8E0D00AE
:108FB00008B50C4B33B1FFF7D5FF03681B69984721
:108FC000002809DC084B63B1FFF748FF03681B6901
:108FD0009847002803DC08BDAFF30080F2E7AFF349
:108FE000008008BD000000000000000008B5FFF789
:108FF000DFFFFDF79BFF014B186008BDF0E5032084
:109000000248034A0349121A01F01AB900F4032076
:1090100004FC032040CA0D0007B5002300931A4644
:109020006FF07701FEF766F903B05DF804FB00000E
:1090300007B543880A2B08D0502B09D1094B1B6870
:109040003BB103B05DF804EB1847FFF7E5FF06E01E
:10905000002300931A466FF07701FEF74BF903B037
:109060005DF804FBDCE5032038B5104C104D236897
:10907000AB42104B0CBF012200221A7002D0FFF746
:10908000BFFF2560FDF73AFF044601F055FB0A4B90
:1090900013B12046AFF3008000210748FEF7A8F97E
:1090A00000210648BDE83840FEF71AB900FC03204D
:1090B0001E1C279AE0E503200000000031900D00FF
:1090C00008B5024B1B681B68019308BD5C020300D6
:1090D00008B5024B1B685B68019308BD5C02030086
:1090E00008B5024B1B689B68019308BD5C02030036
:1090F00070B5184E316811F0010504460AD13046AA
:10910000FAF7DCFF30B129461348FFF7BBFA3046C7
:10911000FAF7D9FF1048FFF7BFFA28B1A4F10B0303
:10912000022B01D8002070BD00F0A0F8FEF747FF29
:1091300008B1012CF6D9FFF791FEFFF78BFE18B1AD
:10914000A4F10903012BEDD9232C8CBF00200120B1
:1091500070BD00BFE4E50320E8E50320232838B50F
:1091600004460D460AD8FF2908D0FFF7C1FF28B1F1
:1091700029462046BDE83840FDF710BF38BD38B558
:1091800004460D46FDF712FFFF2810D0062804D82C
:109190004D2323FA00F0C30709D42046FFF7A8FFA8
:1091A00028B129462046BDE83840FDF707BF38BD45
:1091B00010B50446FDF7FAFE0438C0B2012808D9FC
:1091C0002046FFF795FF20B12046BDE81040FDF78F
:1091D000FDBE002010BD0D2810B504469CBF0E3406
:1091E000A4B22046FFF784FF50B103212046FDF7CB
:1091F000CDFE032804D12046BDE81040FDF7FEBE99
:10920000002010BD70B5044614252A46094E0021E1
:1092100001F03CF8258020253146A56025612846CF
:1092200000F08FF831466060284600F08AF8E06070
:10923000204670BDBCC40D0070B5044614252A46F6
:10924000094E002101F022F8258020253146A56035
:109250002561284600F075F831466060284600F028
:1092600070F8E060204670BDBCC40D0030B50E4DF6
:10927000296811F0010487B013D12846FAF71EFFC0
:1092800078B101A8FFF7BEFF01AA21460748FEF703
:1092900045FE2846FAF717FF054A0649034800F03D
:1092A00031F8024807B030BDF4E503200CE6032096
:1092B0002CE00320C57E0D0010B50E4C2368DB07A3
:1092C00086B013D42046FAF7F9FE78B101A8FFF76B
:1092D000B3FF01AA01210848FEF720FE2046FAF755
:1092E000F2FE064A0649044800F00CF8024806B0AF
:1092F00010BD00BF20E60320F8E503202CE003208A
:10930000C57E0D000B460146184600F0E9BDFAF790
:10931000C6BE0000024B1868BFF35F8F704700BFE6
:1093200024E6032010B5002814BF0446012420467B
:10933000FEF7B6F820B9FFF7EDFF08B18047F6E772
:1093400010BDFFF7EFBF08B5FEF7E2F8244B1A682F
:10935000D0075CBF01221A60224B1A68D1075CBF9C
:1093600001221A60204B1A68D2075CBF01221A60E2
:109370001E4B1A68D0075CBF01221A601C4B1A688A
:10938000D1075CBF01221A601A4B1A68D2075CBF72
:1093900001221A60184B1A68D0075CBF01221A60BC
:1093A000164B1A68D1075CBF01221A60144B1A6869
:1093B000D2075CBF01221A60124B1A68D0075CBF4B
:1093C00001221A60104B1A68D1075CBF01221A6093
:1093D0000E4B1A68D2075CBF01221A60704700BFAB
:1093E00054E6032050E603204CE6032048E6032021
:1093F00044E6032040E603203CE6032038E6032051
:1094000034E6032030E603202CE6032028E6032080
:10941000184B1A68D1075CBF01221A60164B1A68F4
:10942000D2075CBF01221A60144B1A68D0075CBFD8
:1094300001221A60124B1A68D1075CBF01221A6020
:10944000104B1A68D2075CBF01221A600E4B1A68D3
:10945000D0075CBF01221A600C4B1A68D1075CBFB1
:1094600001221A600A4B1A68D2075CBF01221A60F7
:10947000704700BF74E6032070E603206CE603200B
:1094800068E6032064E6032060E603205CE6032030
:1094900058E60320184B1A68D1075CBF01221A60F6
:1094A000164B1A68D2075CBF01221A60144B1A6867
:1094B000D0075CBF01221A60124B1A68D1075CBF4B
:1094C00001221A60104B1A68D2075CBF01221A6091
:1094D0000E4B1A68D0075CBF01221A600C4B1A6849
:1094E000D1075CBF01221A600A4B1A68D2075CBF21
:1094F00001221A60704700BF94E6032090E6032023
:109500008CE6032088E6032084E6032080E603201F
:109510007CE6032078E60320244B1A68D0075CBF62
:1095200001221A60224B1A68D1075CBF01221A601F
:10953000204B1A68D2075CBF01221A601E4B1A68C2
:10954000D0075CBF01221A601C4B1A68D1075CBFB0
:1095500001221A601A4B1A68D2075CBF01221A60F6
:10956000184B1A68D0075CBF01221A60164B1A68A4
:10957000D1075CBF01221A60144B1A68D2075CBF86
:1095800001221A60124B1A68D0075CBF01221A60D0
:10959000104B1A68D1075CBF01221A600E4B1A6883
:1095A000D2075CBF01221A60704700BFC4E60320E7
:1095B000C0E60320BCE60320B8E60320B4E603209F
:1095C000B0E60320ACE60320A8E60320A4E60320CF
:1095D000A0E603209CE6032098E6032081F00041EA
:1095E00002E000BF83F0004330B54FEA41044FEA88
:1095F000430594EA050F08BF90EA020F1FBF54EA23
:10960000000C55EA020C7FEA645C7FEA655C00F0BE
:10961000E2804FEA5454D4EB5555B8BF6D420CDD8F
:109620002C4480EA020281EA030382EA000083EA12
:10963000010180EA020281EA0303362D88BF30BDB2
:1096400011F0004F4FEA01314FF4801C4CEA113108
:1096500002D0404261EB410113F0004F4FEA033367
:109660004CEA133302D0524263EB430394EA050FF2
:1096700000F0A780A4F10104D5F1200E0DDB02FA61
:109680000EFC22FA05F2801841F1000103FA0EF2F5
:10969000801843FA05F359410EE0A5F120050EF1BB
:1096A000200E012A03FA0EFC28BF4CF0020C43FAEC
:1096B00005F3C01851EBE37101F0004507D54FF0F9
:1096C000000EDCF1000C7EEB00006EEB0101B1F549
:1096D000801F1BD3B1F5001F0CD349085FEA30008F
:1096E0004FEA3C0C04F101044FEA445212F5800F9A
:1096F00080F09A80BCF1004F08BF5FEA500C50F137
:10970000000041EB045141EA050130BD5FEA4C0C19
:10971000404141EB010111F4801FA4F10104E9D1A2
:1097200091F0000F04BF01460020B1FA81F308BF99
:109730002033A3F10B03B3F120020CDA0C3208DD65
:1097400002F1140CC2F10C0201FA0CF021FA02F140
:109750000CE002F11402D8BFC2F1200C01FA02F1B0
:1097600020FA0CFCDCBF41EA0C019040E41AA2BFD5
:1097700001EB0451294330BD6FEA04041F3C1CDA9D
:109780000C340EDC04F11404C4F1200220FA04F0BD
:1097900001FA02F340EA030021FA04F345EA030167
:1097A00030BDC4F10C04C4F1200220FA02F001FA29
:1097B00004F340EA0300294630BD21FA04F02946AB
:1097C00030BD94F0000F83F4801306BF81F4801144
:1097D0000134013D4EE77FEA645C18BF7FEA655CB7
:1097E00029D094EA050F08BF90EA020F05D054EA89
:1097F000000C04BF1946104630BD91EA030F1EBF8E
:109800000021002030BD5FEA545C05D14000494191
:1098100028BF41F0004130BD14F580043CBF01F584
:10982000801130BD01F0004545F0FE4141F470016A
:109830004FF0000030BD7FEA645C1ABF1946104645
:109840007FEA655C1CBF0B46024650EA013406BF46
:1098500052EA033591EA030F41F4002130BD00BF05
:1098600090F0000F04BF0021704730B54FF48064C2
:1098700004F132044FF000054FF0000150E700BF43
:1098800090F0000F04BF0021704730B54FF48064A2
:1098900004F1320410F0004548BF40424FF000018F
:1098A0003EE700BF42004FEAE2014FEA31014FEAD2
:1098B00002701FBF12F07F4393F07F4F81F0605121
:1098C000704792F0000F14BF93F07F4F704730B590
:1098D0004FF4607401F0004521F0004120E700BF23
:1098E00050EA010208BF704730B54FF000050AE0AA
:1098F00050EA010208BF704730B511F0004502D5AB
:10990000404261EB41014FF4806404F132045FEAAC
:10991000915C3FF4DCAE4FF003025FEADC0C18BF51
:1099200003325FEADC0C18BF033202EBDC02C2F147
:10993000200300FA03FC20FA02F001FA03FE40EAD9
:109940000E0021FA02F11444C1E600BF70B54FF0D9
:10995000FF0C4CF4E06C1CEA11541DBF1CEA1355BB
:1099600094EA0C0F95EA0C0F00F0DEF82C4481EA23
:10997000030621EA4C5123EA4C5350EA013518BF43
:1099800052EA033541F4801143F4801338D0A0FB30
:1099900002CE4FF00005E1FB02E506F00042E0FBDD
:1099A00003E54FF00006E1FB03569CF0000F18BFE3
:1099B0004EF0010EA4F1FF04B6F5007F64F540748B
:1099C00004D25FEA4E0E6D4146EB060642EAC6211E
:1099D00041EA55514FEAC52040EA5E504FEACE2E8B
:1099E000B4F1FD0C88BFBCF5E06F1ED8BEF1004F8E
:1099F00008BF5FEA500E50F1000041EB045170BD0A
:109A000006F0004646EA010140EA020081EA03014D
:109A1000B4EB5C04C2BFD4EB0C0541EA045170BD49
:109A200041F480114FF0000E013C00F3AB8014F1C3
:109A3000360FDEBF002001F0004170BDC4F100040C
:109A4000203C35DA0C341BDC04F11404C4F120058D
:109A500000FA05F320FA04F001FA05F240EA0200E8
:109A600001F0004221F0004110EBD37021FA04F61E
:109A700042EB06015EEA430E08BF20EAD37070BDD8
:109A8000C4F10C04C4F1200500FA04F320FA05F037
:109A900001FA04F240EA020001F0004110EBD37039
:109AA00041F100015EEA430E08BF20EAD37070BDA9
:109AB000C4F1200500FA05F24EEA020E20FA04F382
:109AC00001FA05F243EA020321FA04F001F0004131
:109AD00021FA04F220EA020000EBD3705EEA430EA2
