:02000002D0002C
:1040000000400D0070E80D00000006000D000501E5
:084010000401E70500000000B7
:04401800A0C90D002E
:1040200009480A49884208B505D0094A824202D0A7
:10403000121A07F0E1F80748074A0021121A07F0A0
:1040400001F9014808BD00BF50DD0320ECE60D007A
:10405000A8DE0320A8DE0320F0E7032070B505F0FA
:1040600073FF074C074BE41AA40800251E46A5421F
:1040700004D056F8253098470135F8E770BD00BFE9
:10408000C4DE0D0058DE0D0001F062B908B500F085
:1040900067FFBDE8084005F019BF04F025B904F03A
:1040A0002BB904F029B9000008B5034A00210C20FF
:1040B00003F0E2FFFEE700BFF97C0D000078B0FAE4
:1040C00080F040097047012303707047014B0122C3
:1040D0001A70704764DF032010B503682F2B044665
:1040E00004D9074A00210A2003F0C6FF23681F2BCA
:1040F00083BF03F01F03236002484FF0A04010BDB0
:10410000F97C0D000003005038B50446006928B161
:1041100085680C2106F015F82846F8E7204638BDDA
:1041200008B5044905F029FB18B1034801F090FCDB
:10413000012008BD5FCE0D0018E0032008B504493A
:1041400005F01BFB18B1034B03221A70012008BDB8
:104150005FCE0D0059DF032010B5034B036004460A
:1041600002F0CCFC204610BDD8C90D0010B50446A5
:10417000FFF7F2FF2046382105F0E3FF204610BD8F
:1041800010B5034B0360044601F042FC204610BD0D
:10419000BCC90D0010B50446FFF7F2FF2046102100
:1041A00005F0CFFF204610BD10B50446006808B1E9
:1041B00004F0A2F8204610BD08B504F005F820B1BF
:1041C0000020BDE8084004F01FB808BD08B5002075
:1041D00004F022F828B103F0F7FF80F00100C0B22C
:1041E00008BD012008BD10B500210446084603F0B3
:1041F00023FDD4F8A0400021012003F01DFDE0B212
:1042000010BD30B500218FB00446084603F014FD00
:104210000FCC6D460FC50FCC0FC50FCC0FC594E862
:10422000030085E803000021012003F005FD684636
:1042300003F0AAF951EC100B06F09AFD00EE100AFB
:104240000FB030BD30B500218FB00446084603F0F2
:10425000F3FC0FCC6D460FC50FCC0FC50FCC0FC5AF
:1042600094E8030085E803000021012003F0E4FC4A
:10427000684603F0B1F951EC100B06F079FD00EE41
:10428000100A0FB030BD002003F06EBD08B52DED53
:10429000028BB0EE408A28B10138FFF7F7FF28EE15
:1042A000000A01E0B7EE000ABDEC028B08BD0EB4B7
:1042B00000B58CB00DAA202352F8041B03928DE8A0
:1042C000060004930168002304AA1E20059303F04E
:1042D000DBFE0CB05DF804EB03B0704737B5046843
:1042E0009DF818508DF800308DF80450E4683C2398
:1042F000A04703B030BD000010B50B7892B00C465B
:1043000023B9194902A807F025FA17E0084606F074
:10431000BBFDC82804D0204606F0B6FDC92819D137
:10432000124902A807F016FA05F061FC104BD8619B
:10433000104B01221A70104B00221A700F4B1049BB
:104340001B78104800228DF8002002AAFFF7C6FF54
:1043500012B010BD204606F097FD0B4A03464021DF
:1043600002A803F0E9FFE9E740CA0D0055CA0D00B5
:104370004CE0032058DF032028E003200CDF03205B
:1043800048CA0D00ACDE032067CA0D0013B50B4907
:1043900005F0F3F9002478B1094B0A4A1B780A4961
:1043A0008DF800400948FFF799FF234601220A21B2
:1043B000074802F066F8012002B010BD5FCE0D0084
:1043C0000CDF032084CA0D00C8CC0D00ACDE032036
:1043D000F0DE032037B51A49044605F0CEF905464C
:1043E000A0B1184B01241C71174B1C7003F0ECFE9C
:1043F00008B9012022E0154B15491B781548002209
:104400008DF80020144AFFF769FFF2E713492046B0
:1044100005F0B3F990B10B4B1D710B4B01241C70CF
:1044200003F0D2FE0028E4D0084B0D4A1B7808495F
:104430008DF800500748FFF751FF204603B030BD0C
:104440005FCE0D004CE0032058DF03200CDF03207B
:10445000BFCA0D00ACDE03209CCA0D00ADCA0D0022
:10446000AFCA0D00000000002DE9F043CBB00446B8
:10447000FFF7A2FEFFF707FF0027064647F22F5877
:104480004FF00009FFF7FFFE801B61EB0701894534
:1044900008BF804505D3FFF799FE10B903F07CFEF5
:1044A000F0E7FFF793FE0A2205A9206807F040FF16
:1044B00000F10C03DBB2182B49D845B207EE905A35
:1044C000274BB8EEE70A012483ED050A05F068FAE8
:1044D000244B1C7005F056FA064605F088FB301A8E
:1044E00006F0E8F81CA3D3E9002306F073FA1E4A8D
:1044F000CDE900010A211D4803F01EFF03F064FE10
:1045000018B31B4E1B4A2B464FF4807100250AA896
:1045100003F012FF337818498DF800500AAA1748A3
:10452000FFF7DCFE05F063FB014606A805F088FAFC
:10453000069B0393039A33780F498DF800500F4878
:10454000FFF7CCFE06A805F0A4F8204600E0002006
:104550004BB0BDE8F08300BF000000000020AC407D
:104560004CE0032058DF0320C4CA0D00E4DE032022
:104570000CDF0320CECA0D00E2CA0D00ACDE032022
:1045800010B5C4B00A2203A9006807F0D1FEC3B277
:104590005A1E3B2A18D80F4A93710F4A01241470EF
:1045A0004FF480710D4A04A803F0C6FE03F00CFE20
:1045B00060B10B4B0B491B780B4800228DF8002093
:1045C00004AAFFF78BFE01E0002000E0204644B083
:1045D00010BD00BF4CE0032058DF0320E7CA0D00E8
:1045E0000CDF032032CD0D00ACDE03202DE9F04FAF
:1045F000234B244C9D68A2691B69D3B0D4E90067A2
:10460000D4E90289D4E904AB1193109205F0EFFAD2
:1046100094ED0A7B8DED0E7B94ED087B119B109A37
:104620000893194B0A908DED0C7B09920793069520
:10463000CDE904ABCDE90289CDE90067134A4FF417
:10464000807112A803F078FE114B12491B781248B2
:1046500000228DF8002012AAFFF740FE0F4B012226
:104660001A7003F051FB0E4B186005F0C7FA0D4BA2
:10467000186005F0CDFA0C4B186053B0BDE8F08F10
:104680004CE00320E8DF032041DF032009CB0D00CD
:104690000CDF032099CB0D00ACDE032028E00320C3
:1046A00054DF032060DF0320E4DF0320000000006C
:1046B00030B52DED028B054683B00024002229463B
:1046C000194801F0DFF818488DED010A01F098F95A
:1046D0009DED010A50B90134042CEFD105F0B2FB75
:1046E000124904F0E0FD9FED0E8B10E0032CF5D095
:1046F00010EE100A05F0F0FF41EC180B05F0A2FBDC
:10470000B0EE480AF0EE680A022104F0B5FEB0EE01
:10471000480AF0EE680A03B0BDEC028B30BD00BF62
:10472000000000000000F87F2CE00320AECB0D005D
:1047300030B5194D0FCD99B004AC0FC40FCD0FC4D7
:1047400095E8030084E8030014490EA803F0A6FED0
:104750000EA803F0F6FE04460EA803F043FF0EA8D1
:1047600010EE105A03F024FF18AB10EE100A03EB02
:10477000840405F0B1FFCDE90201284605F0ACFF45
:10478000CDE90001064A54F8503C0648402103F0A8
:10479000D3FD19B030BD00BFF8C90D005CE20320A5
:1047A000BECB0D0098DF032037B5164D2A6892F86E
:1047B000513092F8501002A803F01F0343EA41134E
:1047C00040F8083DFFF788FC009B2A68012404FAA2
:1047D00003F3C0F8083592F8513092F8501002A84F
:1047E00003F01F0343EA411340F8043DFFF774FC54
:1047F000019B9C40044BC0F80C4500221A7003B08A
:1048000030BD00BF94DF032064DF032010B52024F7
:1048100090B022460021684606F014FD2246002191
:104820000DEB04008DF8054006F00CFD00210DEBAA
:1048300004008DF8254003F095FC4FF46173ADF84A
:104840000830ADF80A3041F21003ADF80C30009B8F
:1048500041F2700243F4007300216846ADF806206F
:10486000009303F07FFC10B010BD00002DE9F84369
:104870001D481E4D406800231A46194603F004FDEA
:1048800003F092FC4FF4967440F2E7360027FFF7EE
:10489000FAFC4FF000098046FFF7F5FCB0EB08008A
:1048A00061EB09018F4208BF864205D303F08CFCFF
:1048B00010B903F071FCEFE703F086FC58B103F088
:1048C00083FC30B10A4A0123D3700A4A1370BDE851
:1048D000F883BDE8F88303F017FA286003F05CFC66
:1048E000013CECD0D3E700BF5CE2032008E60320E4
:1048F0004CE0032058DF032008B503F065FC80F08E
:104900000100C0B208BD0000F8B503F055FCFFF788
:10491000BAFC0025044643F697260027FFF7B3FCB0
:10492000001B61EB05018F4208BF864205D3FFF7EC
:10493000E3FF10B903F030FCF0E7FFF7DDFF0948B3
:10494000002319461A46406803F0A6FC064B0022D5
:10495000DA70064B01244FF4FA601C7003F014FD6A
:104960002046F8BD5CE203204CE0032058DF032022
:1049700030B5134D134C14492A7820788DB00E238E
:1049800003FB0212009203FB0013104A282102A825
:1049900003F0D2FC2B78237003F016FC48B10C4BCB
:1049A0000C491B780C4800228DF8002002AAFFF762
:1049B00095FC05F047FA02A904F075FC0DB030BD76
:1049C00059DF032040DF032050DD0320D7CB0D004B
:1049D0000CDF0320E5CB0D00ACDE032037B503F080
:1049E000EBFB03F091F943F69725044603F0ECFB4B
:1049F00040B103F089F9001BA84203D8642003F0FA
:104A0000C3FCF3E70021094B47F23052084603F09C
:104A1000E3F84FF47A7003F0B7FC054B0A221B68E9
:104A20000121684604F01AFF03B030BDF6CB0D003B
:104A300080DF0320F7B5154B154A1B78154916483A
:104A400000248DF80040FFF749FC144B1C71FFF760
:104A5000B3FBFFF718FC0025044647F22F5600274A
:104A6000FFF711FC001B61EB05018F4208BF864276
:104A700005D3FFF7ABFB10B903F08EFBF0E7FFF7B0
:104A8000A5FB074B01221A7003B0F0BD0CDF032019
:104A900003CC0D000BCC0D00ACDE03204CE003205A
:104AA00058DF032038B505F0BDF8054605F0CBF812
:104AB000044605F0C1F8231F062B0ED9E31E082B70
:104AC0000DD801382D1A01D50B2C02E0072D06DD7B
:104AD000032C14BF0020012038BD012038BD002068
:104AE00038BD00000000000070B52DED028BCAB08B
:104AF000044605F07CF80A22064605A9206807F05E
:104B000017FCC3B2022B58D840B207EE900AB8EE99
:104B1000E78AB0EE480A04F05FFF2D4B83ED068A6A
:104B20002C4B01221A7018EE100A05F0D5FD2A4A06
:104B3000CDE900014FF480710AA803F0FDFB05F0F8
:104B400035F838B1FFF7AEFF10B104F05FFF01E0B8
:104B500004F066FF04F016FF044605F048F8201A3A
:104B600005F0A8FD18A3D3E9002305F033FF1B4A85
:104B7000CDE900010A211A4803F0DEFB03F024FB13
:104B8000E8B1184D18492B78184800240AAA8DF866
:104B90000040FFF7A3FB314606A804F051FF069B37
:104BA00003938DF800402B78039A0F490F48FFF7C5
:104BB00095FB06A804F06DFD01E0002000E0012057
:104BC0004AB0BDEC028B70BD000000000020AC407C
:104BD0004CE0032058DF032019CC0D00C4CA0D009F
:104BE000E4DE03200CDF0320E2CA0D00ACDE03206C
:104BF0002DE9F041694CACB003F086F82368C01A87
:104C000041F28733984240F2C68003F07DF820607D
:104C1000634C00216568084603F00EF895F80080A3
:104C20006E6B604D0021012003F006F82746B8F1B5
:104C3000000F70D003F068F842F20F73801B9842A7
:104C400069D86068584EFFF7DCFA10EE100A05F0DC
:104C500043FDC6E908016068FFF7F4FA10EE100A98
:104C600005F03AFDC6E90A016068FFF7CAFA606814
:104C700010EE106AFFF7E6FA002167688DED090A69
:104C8000084602F0D9FF00210120D7F8807002F019
:104C9000D3FF6068FFF7A7FA8046204602F0B6FA15
:104CA00000210446084602F0C7FF00210120D4F885
:104CB000B04002F0C1FF38460794CDF8188005F0E7
:104CC000F9FC3A4B002205F085FE06F051F805F09C
:104CD00003FD9DED090ACDE9040110EE100A05F06F
:104CE000FBFCCDE90201304605F0F6FC304ACDE987
:104CF000000180210CA803F01FFB2B78EBB10023EF
:104D00002B7003F001F82B4B2B491A68821A2B48A1
:104D1000FFF7CDFA11E07868FFF765FA284A0346F5
:104D200080210CA803F008FB2B7833B91D4B01221E
:104D30001A7002F0E9FF1F4B18600CA91F48FFF71B
:104D4000B6FA03F041FA30B31E4C02F0DDFF2368DF
:104D5000C01A1D4B98421ED902F0D6FF1B4B206093
:104D60001B788DF800300CAA3C2319490AA803F0DF
:104D700005FE0B9C7CB16368013B63605BB92368F3
:104D800020469B689847A368013BA3601BB9236832
:104D90002046DB6898472CB0BDE8F0815CDF03203B
:104DA00010DF032090DF0320E8DF032000005940DC
:104DB0002ACC0D00D8DF03205BCC0D0094E2032049
:104DC0007BCC0D0048E00320BFD401000CDF0320A2
:104DD00095CC0D0030B585B00D4604A9002241F8F0
:104DE000102D03F059F9A8B9009C0CB1236923B91F
:104DF000094A00210A2003F03FF9002301930C2304
:104E0000ADF80430042303930295236901AA01211C
:104E10002046984705B030BDF97C0D0030B50E4DE9
:104E20000FCD89B001AC0FC495E8070084E80700F6
:104E300069460720FFF7CEFF0028A8BF0098074A61
:104E400008AB03EB8000102150F81C3C044803F031
:104E500073FA09B030BD00BF20CA0D00CACF0D00E3
:104E600041DF0320F0B585B0FFF7C2FE324B0022D0
:104E70001146586803F000FA08B1FFF759FC2F4EAD
:104E80002F4F00243019FFF713FC51EC100B05F0E5
:104E90006FFF07EE900AF4EE677AF1EE10FA04D68F
:104EA00005F01AFC3D19C5E900010834182CE9D1B8
:104EB000234C2448D4E900230C21CDE90023224AC5
:104EC00003F03AFAD4E902230C21CDE900231F486C
:104ED0001D4A03F031FAD4E904230C21CDE9002363
:104EE0001B48194A03F028FAFFF798FF03A903208B
:104EF000FFF770FF88B90620B0EE000AFFF7C6F989
:104F0000BDF80C3030EE000A07EE103A30EE000A21
:104F1000B8EE477AC7EE007A01E0FFEE007AFDEEC8
:104F2000E77A0C4B0C4AC3ED027A012313700B4A4B
:104F3000137005B0F0BD00BF5CE2032000F4032055
:104F4000E8DF0320D1DD032099CC0D00DDDD032057
:104F5000C0DD03204CE0032058DF0320E0DF032006
:104F600073B5984C2378013B052B00F21881DFE8DC
:104F700003F0B303693A6D8C934B1A791E462AB13C
:104F8000924B1B78022B01D0FFF7F2FC904B1B7861
:104F90000BB1FFF709FC8F4D2B783BB120238A4AD8
:104FA0008D48012100F0E2FD00232B708B4D2B7802
:104FB0003BB130238A4A8848502100F0D7FD0023B6
:104FC0002B7004F025FEB37990FBF3F202FB130083
:104FD000002840F0EA8004F01BFE824B1B689842D8
:104FE00040F0ED80E1E0784C23792BB1774B1B78D2
:104FF000042B01D0FFF7BCFCE3780BB1FFF784FC76
:105000000021072005F02BF8FFF7CEFBA57904F06F
:10501000EEFDA37990FBF3F202FB13006FF03B026D
:1050200050433C2212FB0501C3EB031300294FEA56
:10503000830303DD9942A8BF194600E00121002344
:10504000012291E0FFF70EFF0523B9E05E4B1A79CC
:105050001D462AB15D4B1B78052B01D0FFF788FC5C
:10506000EB780BB9FFF702FC03F0AEF840B104F0A7
:10507000C5FD08B9FFF7DEFCFFF7B8FA06239FE08D
:1050800002F042FE584B186024E04F4B1B792BB1C5
:105090004E4B1B78062B01D0FFF76AFC534B1B7855
:1050A0000BB902238CE002F02FFE514B1B68C01A93
:1050B0004AF6C873984272D902F026FE4A4B4D490F
:1050C00018604D4B4D481B7800228DF800204C4A4B
:1050D000FFF704F9012373E03B4C23792BB13B4BE1
:1050E0001B78012B01D0FFF743FC02F00DFE3E4B75
:1050F0001B6803F5EA433033984250D92369032BE8
:1051000013DC03F061F848B13B4B3E491B783B4848
:1051100000228DF800203C4AFFF7E0F84FF4FA60D7
:1051200003F032F904F097FB39E004F060FD264B00
:10513000284DDB69C01AB0F5E15F19D903F044F8D6
:1051400048B12D4B2F491B782C4800228DF80020A8
:105150002E4AFFF7C3F84FF4FA6003F015F9002365
:10516000012223612A700A21294801F08AF916E0F8
:1051700003F02AF848B1204B22491B781F4800222F
:105180008DF80020234AFFF7A9F84FF4FA6003F0E6
:10519000FBF80023236101232B70FFF71FFC1C4841
:1051A00002B0BDE8704001F0A5B804F031FD002860
:1051B000F5D104F02DFD0B4B1B689842EFD0032373
:1051C0002370ECE759DF03204CE0032040DF03208D
:1051D00064DF032058DF032018E00320E0DF032012
:1051E000E8DF0320E4DF0320DCDF032028E00320E6
:1051F00054DF0320A1CC0D000CDF0320ACDE032024
:105200006AD50D00CECC0D00BACC0D00D4CC0D006B
:10521000F0DE0320EECC0D0007B5FFF727FBFFF70C
:1052200021FE02F0D1FF48B1104B11491B78114803
:1052300000228DF80020104AFFF750F80F4A10485E
:105240000023937093681D2BCCBF0023012353715F
:105250000C4B53614FF07E53012193612023117059
:10526000117103B05DF804EB00F080BC0CDF03208B
:10527000BFCA0D00ACDE03200DCD0D004CE00320B5
:1052800018E003200000A0C038B5274C264DFFF7DA
:10529000E9FDA378012B84BF0023A370E378012BE1
:1052A00006D902F091FF10B10123EB7000E0E87025
:1052B0002379D4ED057A012B82BF1B4B00221A7192
:1052C000A268194B1D2AD4BF012200225A712369FA
:1052D000FF2B88BF144BBAEE087A88BF0022F4EE89
:1052E000C77A88BF1A61F1EE10FA06D4B2EE087AD6
:1052F000F4EEC77AF1EE10FA01DD0C4B6361D4EDE8
:10530000067AF5EEC07AF1EE10FA06D4B0EE007A25
:10531000F4EEC77AF1EE10FA02DD4FF07E53A3618E
:10532000034B01221A7038BD4CE003200000A0C0DE
:1053300058DF03200023022202F01EBF00230422B4
:1053400002F01ABF0246014803F008BA31870D0087
:10535000F0B5A9B004F076FD4FF4165104F066FDE7
:105360000021082004F06AFE0021042004F066FEFB
:105370000121072004F062FE01210520002504F030
:105380005DFE0121072004F06AFEFFF70DFA4FF0E1
:10539000FF33012294490095082003F043FD04A83F
:1053A00002F01AFF2B467D2208A904A804F0F7F9A1
:1053B0008E4C8F4901952B462A46009508A802F08D
:1053C0001BFF28AE8B498C488C4FFFF7B7FFA379A2
:1053D00046F8943D02222B463146894802F0CCFE25
:1053E00004F110018748FFF7A5FF87498748FFF7B9
:1053F000A5FF87498748FFF7A1FF87498748FFF73F
:105400009DFF87498748FFF799FF04F10801864807
:10541000FFF790FF85498648FFF78CFF854986484E
:10542000FFF78CFF85498648FFF788FF8549864846
:10543000FFF788FF85498648FFF784FF854986483E
:10544000FFF780FF85498648FFF77CFF854986483E
:10545000FFF778FF85498648FFF774FF854986483E
:10546000FFF770FF854800F0E9FA294601230DF1A6
:105470000B02824800F024FB9DF80B10012919D083
:105480007E4800F0E5FA04237D4A7C48294600F076
:105490006DFB01230DF10B022946784800F010FB4B
:1054A0009DF80B30012B02D001233B7007E0FFF782
:1054B000B3FE04E020232246704800F001FB0025E3
:1054C000FFF7E2FE2A4629463046039502F0FCFB30
:1054D000039B142B7DD02A4629463046039502F0C3
:1054E000F3FB039B8C2B74D0664800F0EBFD00218E
:1054F000644800F03CFF94ED060A04F06DFA04F0F5
:1055000055FB20B95F4800F0CDFD04F08FFAFFF79E
:10551000C9FA10B104F07AFA01E004F081FA94EDCE
:10552000050A04F03DFA04F02DFA044604F05FFB8E
:10553000201A05F0BFF82AA3D3E9002305F04AFAA0
:10554000514ACDE900010A213A4802F0F5FE302324
:105550004E4A4A48502100F0B3FA04F04FFB4C4B3E
:105560001860FFF753F9042004F092FD08B9FFF723
:1055700053FE484800F082F94749464800F063F975
:105580004649444800F05FF94549424800F05BF95C
:1055900004F0ACFD42220146424801F0A5FD41481D
:1055A00001F056FD02F0B0FB3F4B18603F4B01226B
:1055B0001A70FFF75BF93B7813B9104B02221A708F
:1055C0000021072004F04BFD04A804F062F829B084
:1055D000F0BD236901332361354B01221A7083E743
:1055E000000000000020AC40CD400D004CE0032046
:1055F000F9420D0098DF032025CD0D0059DF03206F
:105600002CCD0D003BCD0D00D1DD032046CD0D008E
:10561000DDDD032050CD0D00C0DD032059CD0D0090
:10562000CCDD032065CD0D006DCD0D0000E0032025
:1056300078CD0D00E4DE03207FCD0D0041DF032097
:105640008ACD0D0021410D0099CD0D008D430D0037
:10565000A3CD0D003D410D00ADCD0D00D5430D0096
:10566000B5CD0D0069440D00C2CD0D00E94A0D0015
:10567000CFCD0D0081450D00DDCD0D0018E00320DC
:105680003CCA0D00F0DE0320C4CA0D00E8DF032091
:1056900060DF03202CE0032000F4032008F4032043
:1056A00010F4032010DF0320D8DF032090DF032055
:1056B00058DF0320434B2DE9F04100241C60424B8E
:1056C000424E434D01271F7002F056FB414B1860BC
:1056D00004F066FC2346224642F6DF5104F068FCE3
:1056E00004F05EFC22462346022104F069FC4FF6DA
:1056F000FF7373813460B480B4713481022002F08E
:10570000DDFC2A463449304604F016FD334E21466E
:10571000384602F0EBFC3946042002F0C5FA4FF09F
:105720001008301D42462146306005F08BFD0223F3
:105730002A462B49F38030463775A6F8048004F0DA
:10574000FBFC04F0D3FC274E0146304600F0F8FB8A
:105750002A462549304604F0EFFC04F0C7FC234EEE
:10576000234601464FF40052304600F05DF9204BCD
:10577000336030461F4E20492A4604F0DDFC4FF4CA
:1057800000621E49304601F0E5FA1D4B3360304699
:105790001C4E1D492A4604F0CFFC224641461B4CB4
:1057A000304600F039F82A461949304604F0C4FC66
:1057B000204601F02FFC2A4620461649BDE8F0415C
:1057C00004F0BABC80DF03200CDF032084DF032059
:1057D000A8DE032094DF0320A9410D0068DF032029
:1057E00009410D00F0DE0320B35C0D0018E003203A
:1057F000BCC90D00ACDE032081410D0018F403206C
:10580000D8C90D002CE0032059410D0010DF032002
:105810006D580D00DD6F0D0070B504460023636008
:10582000A360E3602361636123766376A2760E2032
:105830000E46FEF732FC054610B1314600F016FF69
:105840002560204670BD38B500F110050C46006893
:10585000294600F0FFFF031E1DBF2B6823606B6805
:105860002360636014BF0120002038BD10B50E21F5
:105870000446006804F065FC204610BD006800F096
:10588000DDBF0000F8B5837E04460D4616461BB901
:105890000B78002B00F0A680206800F0F1FEA37EBC
:1058A00023B11EB9206800F0C5FF03E02946206837
:1058B00000F0AEFF00224421206800F076FF40F2A5
:1058C000EE2002F061FD206800F0DAFEA37E23B135
:1058D0001EB9206800F0AEFF03E02946206800F002
:1058E00097FF0022BE21206800F05FFF2B78262B57
:1058F00004D100221146206800F057FFE61C04F195
:105900000C07206800F074FF06F8010FBE42F8D1C2
:105910000821201D01F019F8237B20769842637638
:1059200060D12B78222B19D014D8102B5AD1E27ABF
:10593000A388102A08BFA27A4FEAC30302BF23F04C
:105940000F03C2F10C029B181BB200EE103ABAEE24
:10595000CE0AF8BD262B1FD0282B43D1227A2379DB
:1059600002F06002202A05D0402A06D042B923F076
:10597000070304E023F0030301E023F00103237194
:105980002379607943EA002000B204F093FE0022FC
:10599000164B04F0F5FE20E0A579284604F08AFEB7
:1059A00006466079C01007EE900AF8EEE77A0F46D7
:1059B00017EE900A04F090FE00220D4B04F0E0FE7A
:1059C0000B46290602464CBF0A490B49002004F049
:1059D000D7FE32463B4604F021FD05F0C9F900EE42
:1059E000100AF8BD9FED050AF8BD00BF0000B03FEA
:1059F0000000A03F0000F0BF0000F03F0000C07FAB
:105A0000027E407E131A58425841704702F0B4B9E2
:105A1000704710B51021044604F093FB204610BDDA
:105A20000368C9B29B68184730B5034D05604160F3
:105A30008260C36030BD00BFE4CE0D00406803F05B
:105A40009BB910B50446006803F0E2F9204610BD8A
:105A50002DE9F0418AB007464068019003F0CFF984
:105A60001E22002102A8BE6805F0ECFB0025DEB175
:105A70003B681E2EB04628BF4FF01E08DC6802AA05
:105A8000434629463846A047044648B92A460A49AB
:105A90000A48FEF70CFC01A8FFF7D3FF204607E0F9
:105AA000C8EB06064544E2E701A8FFF7CAFF01205C
:105AB0000AB0BDE8F08100BF61CE0D0094E2032082
:105AC0002DE9F3470446406801900E461746984674
:105AD00003F095F9B8F1000F01D101243FE0E1682E
:105AE000606841F0500103F07FF9310A6068FFF708
:105AF00097FF31466068FFF793FF0021606803F06D
:105B000076F908B100242AE0E1686068B8F1200F56
:105B1000C14641F0500128BF4FF0200901234A46F9
:105B2000C9B203F04BF904F0E1FA03681B69984726
:105B30004845E7DB3D46C7EB060A04F0D7FA0368A1
:105B40005B69984705F8010BEA1BC5EB0803914513
:105B500005EB0A063B44F0D898462F46BAE701A861
:105B6000FFF76FFF204602B0BDE8F0872DE9F3474D
:105B70000446406801900D4690461F4603F03FF9E9
:105B80004FB3E168606841F0500103F02DF9290A34
:105B90006068FFF745FF29466068FFF741FF08F19D
:105BA0001E094646C8EB050A606816F8011B036823
:105BB0009B689847B14506EB0A05B04607F1FF37E9
:105BC00001D0002FF0D10121606803F010F9002806
:105BD000D6D0002400E0012401A8FFF732FF2046C0
:105BE00002B0BDE8F0872DE9F0438BB00E461546B4
:105BF0008046406801901C4603F001F9AE4223D272
:105C0000264425440CB901243FE01E2C2746D8F831
:105C1000003028BF1E27F61BD3F8089002AA3B4687
:105C200031464046ED1BC84708B900242DE0D8F89E
:105C3000003002AAD3F80C9029463B464046C8479C
:105C40000028F2D0E41BDDE7DDD9002CDBD01E2CD0
:105C5000D8F80030274628BF1E27D3F8089002AA9C
:105C60003B4631464046C8470028DED0D8F80030D1
:105C700002AAD3F80C9029463B464046C847002864
:105C8000D3D03E443D44E41BDFE701A8FFF7D9FE33
:105C900020460BB0BDE8F08302F06EB8402070479C
:105CA0000020704780207047FF2070477047704782
:105CB0007047704710B51421044604F042FA20469C
:105CC00010BD10B50821044604F03BFA204610BD73
:105CD00010B50821044604F034FA204610BD10B572
:105CE0001C21044604F02DFA204610BD2DE9FF4189
:105CF0000368DB680546984710220146684605F0B0
:105D0000A1FA2B6828469B6898470024074620463E
:105D1000BC420ED23E1B102E2B6828BF1026D3F893
:105D200018806A46334621462846C04708B13444A5
:105D3000EEE704B0BDE8F081002301228372C27255
:105D4000027342738373C373037443747047000018
:105D5000012208B54271022282710322064BC271F0
:105D6000042203600272002307220371427243740B
:105D7000FFF7E2FF08BD00BF44D00D0003090A226F
:105D800000F00F0002FB0300704708B5807AFFF7B0
:105D9000F5FF00F5FA6008BDC07A00F01F00FFF7BC
:105DA000EDBF007B00F03F00FFF7E8BF08B5817B47
:105DB0004A060DD501F01F00FFF7E0FF8B0603D563
:105DC0000C280BD00C3008BD0C2808BF002008BDE3
:105DD00001F03F00BDE80840FFF7D0BF08BDC07B21
:105DE00000F07F00FFF7CABF007C00F07F00FFF7E4
:105DF000C5BF10B58AB024220021044601A805F0D1
:105E000021FA2046FFF7C1FFA0F26C7006902046F1
:105E1000FFF7C2FF013805902046FFF7C2FF04904C
:105E20002046FFF7C3FF03902046FFF7D8FF0290FC
:105E30002046FFF7D9FF019001A805F0E7FA0AB064
:105E400010BD0A2290FBF2F393FBF2F102FB113139
:105E500002FB130343EA0110C0B27047642310B57C
:105E6000044691FBF3F000FB1310FFF7EAFFA0726A
:105E700010BD10B504460846FFF7E3FFE07210BD01
:105E800010B504460846FFF7DCFF237B23F03F03F1
:105E90001843207310BD10B50446481CFFF7D1FF0E
:105EA000637B23F007031843607310BD10B50446ED
:105EB0000846FFF7C6FFA07310BD10B5044608469C
:105EC000FFF7BFFFE07310BD10B504460846FFF7AB
:105ED000B8FF237C23F07F031843207410BD37B52F
:105EE000044602A840F8041D04F0E4FF0546416999
:105EF0002046FFF7B3FF296920460131FFF7B9FFBC
:105F0000E9682046FFF7BCFFA9692046FFF7C3FFF9
:105F1000A9682046FFF7CAFF69682046FFF7CDFF52
:105F200029683B29A8BF3B212046FFF7CDFF03B0DE
:105F300030BD10B50446FFF7D2FF637A637410BD1D
:105F4000084A0260002202724272012282720346F3
:105F50000322C272044A41601861C260034A986118
:105F60004261704754D00D0024CF0D0000CF0D00CA
:105F70002DE9F84F05460F4691469A4600240A9BA4
:105F80009C4230D23946686802F02AFF09EB0401CE
:105F90006868FFF745FD0021686802F028FF0646A3
:105FA000D8B90A9B68681A1B202A4FF0010328BF42
:105FB0002022394602F002FF0AEB040883464646D7
:105FC000C8EB06039B4506D9686803685B69984778
:105FD00006F8010BF4E75C44D1E7024604490548A2
:105FE000FEF765F900E000263046BDE8F88F00BFF7
:105FF0009ECF0D006CE003201FB5012300930A46DD
:1060000003AB6F21FFF7B4FF10B99DF80C0000E05F
:10601000002005B05DF804FB08B50321FFF7ECFF95
:10602000C0F3401008BD7FB51E46002B0CBF0723F0
:1060300006230093144602AB0A466F21FFF798FF30
:106040000546D8B99DF8083023749DF80930E373EC
:106050009DF80A30A3739DF80B3063739DF80C30E4
:1060600023739DF80D30E3721EB99DF80E30A372B4
:1060700004E003F0EFFDFFF7E4FEA072284604B051
:1060800070BD38B500230C460A4619460546FFF791
:10609000CAFF28B9A37A1BB12846FFF7BDFF00B994
:1060A000002038BD10B586B0044601A8FFF750FEA9
:1060B00001A92046FFF7E5FF10B101A8FFF799FEFF
:1060C00006B010BD30B5044685B0406802F054FEFD
:1060D00003F06CFDC0B9E37A9B0715D52046FFF7A6
:1060E000E1FF054680B103F0A1FC094B09491B689B
:1060F0002A46684603F028FD0748009A0749FEF73C
:10610000D6F8684603F0C5FA0123237205B030BD06
:10611000F0DD0320C4E403206CE00320B8CF0D00C1
:106120002DE9F34101EB03081E4603689B68044612
:106130000D461746984780450AD800963B46EAB276
:1061400057216068FFF714FFB0FA80F0400900E0C3
:10615000002002B0BDE8F0812DE9F34101EB030816
:106160001E4603689B6805460C46174698478045BF
:106170000CD804F1200200963B46D2B26F21686829
:10618000FFF7F6FEB0FA80F0400900E0002002B010
:10619000BDE8F0812DE9F84F0746894692469B46B7
:1061A00000240A9B9C4228D24946786802F018FED7
:1061B0000AEB04017868FFF733FC0A9B1E1B1F2EB5
:1061C0000BEB040828BF1F264546786815F8011B0D
:1061D000026892689047C8EB0502B242F5D30121EC
:1061E000786802F004FE054628B1024605490648D3
:1061F000FEF75DF802E03444D3E700252846BDE809
:10620000F88F00BFCDCF0D006CE003201FB5137CCD
:106210008DF80830D37B8DF80930937B8DF80A30E8
:10622000537B8DF80B30137B8DF80C30D37A8DF8BF
:106230000D30937A8DF80E30072300930A4602AB97
:106240006F21FFF7A7FF05B05DF804FB10B586B01E
:10625000044601A8FFF77CFD01A8FFF740FE9DF86A
:106260001430A27A63F07F038DF814309DF811305A
:1062700012B143F0080301E023F0080301AA002152
:1062800020468DF81130FFF7C1FFB0FA80F04009C9
:1062900006B010BD7FB5064603F088FC0446B8B1D1
:1062A00003F0A5FC054601463046FFF7CFFF0C4B37
:1062B0000C491B682A460446684603F045FC009AD0
:1062C00009490A48FDF7F3FF684603F0E2F903E0E5
:1062D00007490648FDF7EBFF204604B070BD00BF3C
:1062E000F0DD0320C4E40320E8CF0D006CE00320C0
:1062F000FECF0D0037B5457A04468DB903F056FC44
:1063000070B102A8294640F8045D01F08DFF38B154
:10631000E37ADB0702D52046FFF7BCFF0123637257
:1063200003B030BD1FB504AB03F8042D0122009269
:106330000A466F21FFF72EFF05B05DF804FBF8B5A4
:10634000144605460E461F46FFF756FE204040EA1B
:10635000070231462846BDE8F840FFF7E3BF13B116
:106360001346FF2201E0D243D2B2FFF7E8BF012972
:1063700008B50CD800294FF000030CBF10222022D2
:106380000721FFF7ECFFB0FA80F0400908BD0020BC
:1063900008BD00294FF000034FF0080214BF14217C
:1063A0000D21FFF7DCBF2DE9F34101EB03081E4689
:1063B00003689B6805460C461746984780450CD8ED
:1063C00004F1200200963B46D2B26F216868FFF7C5
:1063D000E1FEB0FA80F0400900E0002002B0BDE824
:1063E000F081F0B5012B85B006460C4617461D46D8
:1063F00001D9002043E0FFF70FFE0028F9D029461D
:106400003046FFF7C6FF237C227B8DF80830E37B04
:106410008DF809308DF80C20A37BE27A8DF80A30D4
:106420008DF80D20637B17B163F07F0301E003F06B
:106430007F038DF80B30637C9DF80B201B0103F06C
:1064400070031343002D8DF80B304FF006030093BB
:1064500008BF0A2202AB18BF11226F213046FFF796
:1064600099FE044640B9002D0CBF10232023FF22C3
:1064700007213046FFF763FFB4FA84F0400905B006
:10648000F0BDF0B5012B87B006460C4617461D46F9
:1064900001D9002010E0FFF705FE0028F9D001190E
:1064A00001A8FFF755FC01A8FFF743FD2B463A462C
:1064B00001A93046FFF795FF07B0F0BD38B5054696
:1064C00032245721686802F08BFC0121686802F0D1
:1064D0008EFC08B1013CF4D138BD00002DE9F0413B
:1064E0000546D7181446C2EB0108BC421ED05721FE
:1064F000686802F075FC08EB04016868FFF790FA21
:10650000686814F8011B03689B6898470121686854
:1065100002F06DFC064628B1024606490648FDF722
:10652000C6FE04E02846FFF7C9FFDEE70026304636
:10653000BDE8F08113D00D006CE003202DE9F0419F
:1065400001EB03081E4603689B6804460D46174688
:10655000984780450AD833463A46E9B26068FFF763
:10656000BDFFB0FA80F04009BDE8F0810020BDE831
:10657000F081000008B501F0FFFB024B024A1A60EF
:1065800008BD00BF6CE0032034D00D0001F0F4BB67
:1065900010B503682F2B044604D9074A00210A20AE
:1065A00001F06AFD23681F2B83BF03F01F032360E4
:1065B00002484FF0A04010BDF97C0D0000030050D0
:1065C00007B50B4B1B68000119181A5C4B7802A821
:1065D00003F01F0343EA421340F8043DFFF7D8FFDE
:1065E000019A01239340C0F80C3503B05DF804FB19
:1065F00070E0032007B50B4B1B68000119181A5CEB
:106600004B7802A803F01F0343EA421340F8043D0D
:10661000FFF7BEFF019A01239340C0F8083503B08D
:106620005DF804FB70E0032013B50F4B1B680001FD
:106630001A181C5C537802A803F01F0343EA4414A1
:1066400040F8044DFFF7A4FFD0F8103502A840F839
:10665000084DFFF79DFFD0F81035009823FA00F0A1
:1066600000F0010002B010BD70E0032038B5044610
:106670000D462846002103F0E1FC2580204638BD68
:1066800070B5054602F0F6FB0021288801F07CFB7E
:1066900002F0F2FB7D24013C14F0FF042DD0022017
:1066A00001F02AFB2888FFF7BFFF0028F3D002F093
:1066B000E1FB2888FFF784FF0121288801F064FBB3
:1066C00002F0DAFB4FF4F07001F016FB01F034FB3E
:1066D00000210646288801F057FB462001F00CFBFC
:1066E0002888FFF7A1FFB0FA80F4304601F02CFBB8
:1066F0004FF4CD70640901F0FFFA204670BD70B50B
:1067000011F00106044615D001F016FB054620885D
:10671000FFF756FF0121208801F036FB012001F030
:10672000EBFA0021208801F02FFB284601F00CFB3A
:106730003B2014E001F000FB05462088FFF740FFF6
:106740000121208801F020FB412001F0D5FA3146DB
:10675000208801F019FB284601F0F6FA0520BDE873
:10676000704001F0C9BA38B5044601F0E5FA0546B3
:106770002088FFF725FF0121208801F005FB01207B
:1067800001F0BAFA0021208801F0FEFA0D2001F094
:10679000B3FA2088FFF748FF0446284601F0D4FAF0
:1067A0002E2001F0A9FA204638BD2DE9F04105461A
:1067B000884617460826012418EA040F14BF012151
:1067C00000212846FFF79BFF6400013EE4B2F3D1AD
:1067D00067B102F04FFB2888FFF70CFF28880121E2
:1067E00001F0D2FABDE8F04102F046BBBDE8F0810D
:1067F000F8B507460826002501243846FFF7B3FF01
:1068000000B125436400013EE4B2F6D12846F8BD4C
:1068100070B500220C4655210646FFF7C6FF651EDF
:10682000073415F8011F00223046FFF7BEFFA542CE
:10683000F7D170BD0022CC21FFF7B7BF00238372D0
:106840000373C37200F10A02023002F8013D824272
:10685000FBD170472DE9F047057B04468846002DA3
:106860005ED1FFF70DFF20B9A0722073E072BDE882
:10687000F0872A46F0212046FFF797FF0126AA4617
:1068800037462046FFF76FFF81462046FFF76BFF34
:10689000B9F1010F02D101281BD137E0814504EB8A
:1068A00005031ED1A27A974207D29A78164214BFE6
:1068B0004FF001094FF0000904E00CBF4FF001094F
:1068C0004FF00009B9F1000F03D1082F08D8E77283
:1068D00006E062194FF0010993783343937004E0A6
:1068E000BA469A7822EA06029A704946204676000D
:1068F000FFF705FF16F0FF0604BF0135EDB207F103
:10690000010708BF0126072DFFB2BAD9402F07D9CA
:1069100084F80AA0BAF1000F12D1012323730FE00B
:106920000020A0722073E072631C08F1FF38093464
:1069300013F8012F08F8012FA342F9D1BDE8F08721
:10694000A378002BECD00120EEE730B505460020FF
:106950000139C9B2FF2913D015F8014B082280EA8A
:10696000040313F0010F4FEA50001CBF80F08C03AA
:10697000D8B2531E13F0FF024FEA5404EFD1E7E7F9
:1069800030BD000008B501F0F7F9014B186008BDF3
:1069900070E0032042680368501012F0010F18BF26
:1069A0000A58084418BFD358184710B50123037478
:1069B000836804460BB1C06806E0006828B18368AC
:1069C0000BB903F0DAFBC368984701236374002016
:1069D000BDE8104001F060B9012A034601D1016011
:1069E00005E0022A03D110B103C983E803000020A7
:1069F000704710B58368044613B1032201469847D7
:106A0000204610BD0123F7B580F82930054608302F
:106A100001F01AF90420FDF740FB0446002835D0A8
:106A20001C49142003F098FB30B100230374036069
:106A300043608360C36043742060B0B1164B8360D1
:106A400023681649DD6020684FF400638DE8090073
:106A50000222134B043001F0C7F830B923681B7CC5
:106A6000A3B9012001F040F9F8E72668002323606C
:106A700066B1376837B13846FFF7BBFF102138469B
:106A800003F05FFB1421304603F05BFB6C6003B046
:106A9000F0BD00BF1CD90D00B76C0D0084D00D00F7
:106AA000AB690D0047F23051C1600A490A4A0161E1
:106AB0000A490260C1610022094942604261816164
:106AC0000262426280F8282080F8292080F82A207B
:106AD000704700BF116E0D0048D10D0095690D0083
:106AE000D9690D0010B5044B044640F8103BFFF780
:106AF00080FF204610BD00BF48D10D0010B5034BEC
:106B000003600446FFF7EEFF204610BD64D00D0081
:106B100010B50446FFF7F2FF2046382103F011FBC1
:106B2000204610BD806801F097B8806801F09CB8DD
:106B300010B504460068FFF7F8FF204610BD13B5F6
:106B400004460190FFF7EEFFE36ADC88A4B20CB1C3
:106B500003F1080401A8FFF7EBFF204602B010BDC7
:106B600013B504460190FFF7DDFF94F828301BB9F8
:106B7000E26A0124D38000E0002401A8FFF7D8FFD7
:106B8000204602B010BD37B502AC054644F8040DEE
:106B9000FFF7C8FFEB6A2046DD88FFF7C9FF2846EC
:106BA00003B030BD2DE9F0479A4686B090F8293001
:106BB0009DF838909DF83C7004468846164613B9F7
:106BC00003689B689847314B4046002E08BF1E461D
:106BD00005F0F8FA0546304605F0F4FA284400F1CD
:106BE0000A05AB071CBF25F00305043533460395A2
:106BF0000297CDF80490CDF800A0424624492548DC
:106C0000FDF755FB238E083B9D420FD9002438E049
:106C1000CB88012B31D005A8FFF78AFF236894F8B1
:106C200028109B69204698470028EFD020460594FD
:106C3000FFF778FFE16A238E626B0B449B1A9D423B
:106C4000E6D847EA0907C2F800A01771676B083752
:106C50004146384604F07EFD384605F0B3FA01306F
:106C60003146384404F076FD606BE26A2844606384
:106C7000D3880133D380012400E0002405A8FFF766
:106C800057FF204606B0BDE8F08700BF6AD50D006B
:106C900096D00D0074E0032008B5044600F11005FD
:106CA000A3690BB903F069FAE369214628469847BE
:106CB00000F0AAFFF4E708B5FFF7EEFF38B501F1E1
:106CC00008040546204605F07DFA013004442046BC
:106CD00005F078FAEB6A01302044C31A13F003037D
:106CE0001CBFC3F10403C01838BD2DE9F3410546AC
:106CF00088460190FFF716FFEE6A06F10807F48850
:106D0000B8F1000F07D0012C1CD939462846FFF7EF
:106D1000D5FF074600E0B4B139462846FFF7CEFF5D
:106D20002A8E3244121A0146A0EB070402D03846DC
:106D300004F06DFA6B6B1B1B6B63F388013BF380F4
:106D4000012400E0002401A8FFF7F2FE204602B073
:106D5000BDE8F0812DE9F04704460D469046002637
:106D6000FFF7A0FE2F46154B2360E562A4F83080A4
:106D70006663134B57F8082B9A42994614D1AB8897
:106D80009BB2984510D105EB080A6763EB88B2B255
:106D90009BB29A420FD2616B2046FFF78FFF82456C
:106DA000606306F10106F1D20023C5F80090A5F852
:106DB0000480EB8067632046BDE8F08764D00D0057
:106DC00061AB9CD110B591E80C0086B004460292EC
:106DD000039302AB93E803008DE8030094E80300FB
:106DE000A26883E803009DE803000492064AA260BB
:106DF000E2680592054AE26084E803001846FFF75E
:106E0000F8FD204606B010BDD9690D0095690D004A
:106E100007B5054B00936946002310300193FFF737
:106E2000D1FF03B05DF804FB596E0D0013B50446A5
:106E300000F06AFF636AC01AE368984208D3054B02
:106E400000936946002304F110000193FFF7BAFF95
:106E500002B010BD596E0D002DE9F04190F82A30B6
:106E600086B00446002B73D101F0AEF900286FD034
:106E700000F04AFF636AC01A40F2F133984267D9C2
:106E8000236820465B6998470546002860D005F1D5
:106E90000806012384F82830304605F093F995F868
:106EA0000480CDF80480013037182B6800933246F7
:106EB0003B4629492948FDF7FAF92B688DF80080EF
:106EC0003A46314602A801F059FD029D6B781BB984
:106ED000012001F059FAF8E7002001F00FF920B184
:106EE0006B7813B901F058F9FAE72B78012B09D127
:106EF0001B491A48FDF7DBF9236800219B692046EE
:106F000098470DE017491548E268FDF7D0F9164B90
:106F1000049304A9002304F110000593FFF752FF26
:106F2000002384F8283000F0EFFE6062039C7CB1FF
:106F30006368013B63605BB9236820469B689847A0
:106F4000A368013BA3601BB923682046DB68984710
:106F500006B0BDE8F08100BFD7D00D0074E003207B
:106F6000F8D00D000FD10D002D6E0D0008B500F00A
:106F700003FF024B024A1A6008BD00BF74E0032001
:106F800036D10D007FB5024608461379956833B1B6
:106F90003DB90C4904B0BDE8704002F071B90A4B2C
:106FA00000E00A4B167B0A4C0A49527B0292012EE2
:106FB00008BF214601910095074A002102F067FAB7
:106FC00004B070BD85D10D006AD50D0074D10D00DF
:106FD0007DD10D0081D10D009BD10D0010B5054B69
:106FE000044640F8203BFFF704FD204600F0C2F9BC
:106FF000204610BD58D20D0010B50446FFF7EEFF35
:107000002046302103F09DF8204610BD0368C9B228
:107010009B68184738B50B490446002500F0B2F9C3
:10702000094B2360257203F061F842232374E0606A
:1070300002F080FE054B6061A561E561A5621C6000
:10704000204638BDB0E0032058D20D0084E0032074
:10705000F7B585690646002D3BD10420FDF71DF8E4
:107060000446002834D01C49142003F075F828B1D8
:107070000574056045608560C56045742060B0B1E9
:10708000164B836023681649DE6020684FF4006366
:107090008DE809000222134B043000F0A5FD30B941
:1070A00023681B7CA3B9012000F01EFEF8E72568C9
:1070B0000023236065B12F6837B13846FFF799FC8C
:1070C0001021384603F03DF81421284603F039F822
:1070D000B46103B0F0BD00BF1CD90D00E1720D001A
:1070E000B9D10D00AB690D0010B501230372C3685F
:1070F00004464868586088689860C868D860087C0A
:1071000018740846227401F037FE204610BD0000B6
:1071100038B50546017CC06801F062FEFD21E868D3
:10712000FFF774FF0021E86801F061FE30B10F49FC
:1071300002460F48FDF7BBF8002038BD02220123AC
:10714000297CE86801F03AFEC2B2022A01D009495E
:10715000EFE7E86803685B6998470446E8680368F6
:107160005B69984740EA042080B238BDC6D10D0063
:1071700094E20320EAD10D002DE9F0470646894646
:10718000017CC068154601F02BFEFF21F068FFF777
:107190003DFF0021F06801F02AFE024608B11849BF
:1071A00015E00446AC4227D22F1B202F28BF2027F2
:1071B00004EB070ACAEB050253425341317CF068E5
:1071C0003A4601F0FBFDC2B2974207D00D490E4886
:1071D000FDF76DF84FF0FF30BDE8F0874C44A04656
:1071E000F06803685B69984708F8010BC4EB080373
:1071F0009F42F5D85446D5E72846BDE8F08700BF42
:1072000014D20D002FD20D0094E2032000487047E5
:10721000B0E0032007B582688DF807100AB902F0C4
:10722000ACFFC3680DF10701984703B05DF804FB9C
:107230002DE9F043037A89B0044613B900F1200622
:107240003BE0D0F80C80404601F0D9FD2046FFF726
:107250005FFF202804F12009054601D808B919E08C
:1072600020252A4669462046FFF786FFA8426F463A
:1072700010D16E4616F8011B144800F08FFBA36A6C
:1072800023B116F8011C4846FFF7C4FFF31B9BB25D
:10729000AB42EFD3404601F0BBFD14E060690368E8
:1072A0005B699847C5B22946084800F077FBA36A96
:1072B0001BB129463046FFF7ADFF606903681B69C3
:1072C00098470028EADC09B0BDE8F083B0E003206D
:1072D00008B504462046FFF7ABFF00F095FCF9E740
:1072E00008B5FFF7F5FF000070B5194C194E00F016
:1072F00043FD0821204600F02DFC3168164B236029
:1073000011F001050AD13046FCF7D8FE30B129460C
:10731000124802F011F93046FCF7D5FE104AA2617E
:107320000E4B104AE360226211230122236184F88C
:10733000242000230C4A0D4905482375237784F83F
:10734000253002F0F9FE0A48BDE8704000F078B838
:1073500088E0032078E0032014D60D007CE00320B1
:1073600070D10D0080969800A8DE0320957A0D005C
:10737000B0E00320704710B50821044602F0E1FE9A
:10738000204610BD014A02604160704768D20D007E
:1073900000F0F2BC002202704270828082600273B0
:1073A0000282426102768283026280F82420028592
:1073B000C26280F83020426380F8382080F839209B
:1073C000C2630264426480F8482080F84920C264A5
:1073D0000265426580F8582080F85920C26502662F
:1073E000426680F8682080F86920C26602674267BA
:1073F00080F8782080F87920C267C0F88020C0F833
:10740000842080F8882080F88920C0F88C20C0F87B
:107410009020C0F8942080F8982080F89920C0F837
:107420009C20C0F8A020C0F8A42080F8A82080F8F4
:10743000A920C0F8AC20C0F8B020C0F8B420704734
:1074400010B50446FFF7A6FF04F1B800FFF7A2FF4E
:107450000023022284F8703184F8713184F881218C
:1074600084F8823184F8833184F88431C4F8883117
:10747000C4F88C31C4F89031C4F89431C4F8983110
:10748000C4F89C3184F87231204610BDA1F141034B
:10749000052B02D8A1F137007047A1F16103052B3C
:1074A00094BFA1F15700A1F13000704738B50578BD
:1074B00004462D2D08BF0134204603F0E9FC642367
:1074C0005843224614F8013BA3F130010929F8D9A9
:1074D0002E2B0BD15378303B092B07D80A2101FB07
:1074E00003009378303B092B98BFC0182D2D08BF9F
:1074F000404238BD38B504460D4603F0C9FC64234C
:10750000B0FBF3F203FB1200114B2A8043432046E9
:107510000278A2F130010929044600F10100F7D9EF
:107520002E2A0BD10A490A2014F8012F303A092AD1
:1075300004D8B1FBF0F101FB0233F5E703EB830361
:1075400001330322B3FBF2F36B6000232B7238BDCF
:107550008096980010B50346044653F81C2F4260ED
:107560005A6882601B7A0373034653F8282F02611E
:107570005A6842611B7A037600F0C6FB0123606300
:107580006370237010BD0000D0B500230446437023
:10759000806803F07FF80EA3D3E9002303F01AFA02
:1075A0000646A0880F4603F085F80B46024639468A
:1075B000304602F033FF237B1BB1024601F100434A
:1075C00001E002460B4643EC102BD0BDAFF3008028
:1075D0000000000065CDCD41D0B5002304464370C6
:1075E000406903F057F80EA3D3E9002303F0F2F942
:1075F0000646208A0F4603F05DF80B4602463946E0
:10760000304602F00BFF237E1BB1024601F100431E
:1076100001E002460B4643EC102BD0BDAFF30080D7
:107620000000000065CDCD4110B58368436004467D
:1076300000F06AFB0123E0606370237010BD10B599
:1076400083684360044600F05FFB0123E0606370E1
:10765000237010BD10B504460846FFF727FFA06051
:1076600010BD10B50446084603F012FCA06010BD22
:1076700010B5C3688360044600F046FB01236060D8
:107680006370237010BD10B504460846FFF70EFF67
:10769000E06010BD10B5C3688360044600F034FBA1
:1076A000012360606370237010BD10B50446084666
:1076B00003F0EEFBE06010BD10B50146044610304B
:1076C00004F048F800F020FB0123206284F8253004
:1076D00084F8243010BD102204F091BDF8B590F864
:1076E00071510446002D00F08B8090F87211FFF765
:1076F000CDFE94F8731102462046FFF7C7FE94F8BA
:10770000703100EB0210C0B2834272D1D4F89C31C8
:107710000133C4F89C3194F8843123B1D4F8943106
:107720000133C4F8943194F88131FBB1012B4DD170
:1077300004F1F000FFF778FF04F58070FFF77FFF9A
:1077400094F8843104F1B8064BB13046FFF702FFDC
:1077500004F58870FFF78CFF04F5907027E084F83B
:10776000B83084F8103184F8203122E004F58070BC
:10777000FFF765FF94F8843104F1B8065BB1304639
:10778000FFF7E8FE04F59870FFF772FF04F5A070AC
:10779000FFF76EFF05E084F8B83084F8303184F8E4
:1077A000403104F5A870FFF775FF04F5B070FFF7DE
:1077B0005FFF0021084600F03FFA3146B82220461C
:1077C00003F01AFD0021012000F036FAD4F88C6194
:1077D000002E00F0D980D4F88C31B06A996A03F099
:1077E000AFFF002840F0D0803046FFF765FF366BD2
:1077F000EEE7D4F898310133C4F898310025C3E09E
:1078000090F8822172BB00F5B9766049304603F0EA
:1078100097FF20B15E49304603F092FF08B901237B
:107820000CE05C49304603F08BFF20B15A493046EA
:1078300003F086FF08B9002300E0022384F88131B9
:10784000D4F88831C4F88C31D4F88C71002F00F052
:107850009B803146B86A03F073FF002880F2908065
:107860003B6BEFE790F88111022971D090F87231EB
:10787000002B6DD042EA4112013A282A68D8DFE88D
:1078800002F01521242B324950575C676167676706
:107890006767676767676767676767676767676778
:1078A0006767151C21242B32393E430000F5B9715E
:1078B00000F58070FFF7CEFE4AE0A3F1410043429D
:1078C00043412BE000F1D40108E0A3F153014B4206
:1078D0004B4180F8DC303BE000F1E00104F5B97089
:1078E000FFF708FE34E0A3F157025342534180F8FA
:1078F000E8302DE000F5B97100F5887026E000F55C
:10790000B97100F5907021E000F5B971F030FFF722
:10791000A8FE1DE0302B94BF0023012384F884319E
:1079200016E000F5B97100F5A870FFF7BEFE0FE094
:1079300000F5B97100F5B07008E000F5B97100F517
:10794000987003E000F5B97100F5A070FFF79BFE99
:10795000D4F88C6104F5B977B6B1D4F88C31B06A3B
:10796000996A03F0EDFE78B9F26A94F882319A428E
:107970000ADC03D139463046FFF7ADFE366BEBE744
:1079800002D00023C4F88C312846F8BD70D20D0017
:1079900076D20D007CD20D0082D20D0038B5D0F821
:1079A0009031242903F1010304460D46C0F89031BB
:1079B0002AD090F8833104D80A290CD00D2932D16D
:1079C00009E02A2907D02C292DD190F8702182F0C6
:1079D0002C0280F870210E2B4FF0000005D82344B4
:1079E00083F872012046FFF779FE94F88231013363
:1079F00084F88231002384F88331A5F12A035D42A3
:107A00005D4184F8715138BD0020022384F8830160
:107A100084F8820184F8700184F8813184F871015E
:107A200084F8840138BD0D2B9FBF5A1C1B1984F8A4
:107A3000832183F8725194F8710128B994F8701178
:107A40004D4084F8705138BD002038BD00F094B925
:107A500013B50B46044603C88DE8030093E8030002
:107A600084E803009DE8030083E8030002B010BD32
:107A700008B5044B01221A7000F07EF9024B034A4C
:107A80001A6008BD54E2032050E2032001D60D0025
:107A900000F072B9704710B52821044602F051FB7E
:107AA000204610BD10B5044600F11801C06801F071
:107AB00077FD208A0021BDE8104002F0D0BA10B551
:107AC00004460121008A02F0CAFAE068BDE81040CD
:107AD00001F04DBDF8B51E4603685B690F461446BC
:107AE00005469847012E88BF47F0400747F08001C0
:107AF000E86801F0C5FD2644B44206D00021E868DC
:107B000001F0BEFD04F8010BF6E72B6828469B69DF
:107B100098470120F8BDF8B51E4603685B690F461B
:107B2000144605469847012E88BF47F0400739465E
:107B3000E86801F0A5FD2644B44205D014F8011B05
:107B4000E86801F09DFDF7E72B6828469B69984798
:107B50000120F8BD024A02600022416002727047B3
:107B600038D60D0013B5036801AADC680123A047CD
:107B70009DF8040002B010BD38B505460A240F2157
:107B80002846FFF7EFFF33284FF0010005D000F043
:107B9000FBFB013CF3D1204638BD38BD10B504468F
:107BA000018AC06801F0D2FC2046BDE81040FFF712
:107BB000E3BF00F0E1B80000024B01221A7000F0B0
:107BC000DBB800BF55E2032008B5024B1B685B6CB5
:107BD000019308BD7402030008B5024B1B689B6C3F
:107BE000019308BD7402030008B5024B1B685B6873
:107BF000019308BD4802030008B5024B1B689B684F
:107C0000019308BD4802030008B5024B1B68DB68FE
:107C1000019308BD4802030008B5024B1B681B69AD
:107C2000019308BD4802030008B5024B1B685B695D
:107C3000019308BD4802030008B5024B1B68DB69CD
:107C4000019308BD4802030008B5024B1B681B6B7B
:107C5000019308BD4802030008B5024B1B689B6BEB
:107C6000019308BD4802030008B5024B1B681B6C5A
:107C7000019308BD4802030008B5024B1B685B6C0A
:107C8000019308BD4802030008B5024B1B689B6CBA
:107C9000019308BD4802030008B5024B1B68DB6E68
:107CA000019308BD4802030008B5024B1B685B6ED8
:107CB000019308BD3402030008B5024B1B689B6E9C
:107CC000019308BD3402030008B5024B1B68DB6E4C
:107CD000019308BD3402030008B5024B1B685B68C2
:107CE000019308BD1802030008B5024B1B689B688E
:107CF000019308BD1802030008B5024B1B68DB683E
:107D0000019308BD1802030008B5024B1B685B69AC
:107D1000019308BD1802030008B5024B1B68DB691C
:107D2000019308BD1802030008B5024B1B681B6ACB
:107D3000019308BD1802030008B5024B1B689B6B3A
:107D4000019308BD1802030008B5024B1B68DB6BEA
:107D5000019308BD1802030008B5024B1B689B6D18
:107D6000019308BD1802030008B5024B1B68DB6DC8
:107D7000019308BD1802030008B5024B1B681B687D
:107D8000019308BD2C02030008B5024B1B689B68D9
:107D9000019308BD2C02030008B5024B1B68DB6889
:107DA000019308BD2C02030008B5024B1B681B6938
:107DB000019308BD2C02030008B5024B1B685B69E8
:107DC000019308BD2C02030008B5024B1B689B6998
:107DD000019308BD2C02030008B5024B1B68DB6948
:107DE000019308BD2C02030008B5024B1B681B6AF7
:107DF000019308BD2C02030008B5024B1B685B6AA7
:107E0000019308BD2C02030008B5024B1B68DB6818
:107E1000019308BD2802030008B5024B1B689B694B
:107E2000019308BD2802030008B5024B1B68DB69FB
:107E3000019308BD2802030008B5024B1B681B6AAA
:107E4000019308BD2802030008B5024B1B685B6A5A
:107E5000019308BD2802030008B5024B1B689B6A0A
:107E6000019308BD2802030008B5024B1B68DB6ABA
:107E7000019308BD2802030008B5024B1B681B6B69
:107E8000019308BD2802030008B5024B1B685B6B19
:107E9000019308BD2802030008B5024B1B681B6C48
:107EA000019308BD2802030008B5024B1B689B6CB8
:107EB000019308BD2802030008B5024B1B68DB6C68
:107EC000019308BD2802030008B5024B1B681B6D17
:107ED000019308BD2802030008B5024B1B685B69CB
:107EE000019308BD6402030008B5024B1B689B6840
:107EF000019308BD6802030008B5024B1B68DB68EC
:107F0000019308BD6802030008B5024B1B681B689B
:107F1000019308BD3002030008B5024B1B685B6982
:107F2000019308BD3002030008B5024B1B68DB69F2
:107F3000019308BD3002030008B5024B1B681B6AA1
:107F4000019308BD3002030008B5024B1B685B6A51
:107F5000019308BD3002030008B5024B1B68DB6BC0
:107F6000019308BD3002030008B5024B1B681B6C6F
:107F7000019308BD3002030008B5024B1B685B6C1F
:107F8000019308BD3002030008B5024B1B681B6853
:107F9000019308BD3C02030008B5024B1B68DB6877
:107FA000019308BD3C02030008B5024B1B681B6926
:107FB000019308BD3C02030008B5024B1B685B69D6
:107FC000019308BD3C02030008B5024B1B689B6986
:107FD000019308BD3C02030008B5024B1B68DB6936
:107FE000019308BD3C02030008B5024B1B681B6AE5
:107FF000019308BD3C02030008B5024B1B689B6A55
:10800000019308BD3C02030008B5024B1B681B68C6
:10801000019308BD4C02030008B5024B1B685B6866
:10802000019308BD4C02030008B5024B1B681B6995
:10803000019308BD4C02030008B5024B1B685B6945
:10804000019308BD4C02030008B5024B1B689B69F5
:10805000019308BD4C02030008B5024B1B68DB69A5
:10806000019308BD4C02030008B5024B1B681B6A54
:10807000019308BD4C02030008B5024B1B685B6B03
:10808000019308BD6002030008B5024B1B685B6DDD
:10809000019308BD6002030008B5034B1B68D3F8C9
:1080A0009830019308BD00006002030008B5024B40
:1080B0001B681B68019308BD2002030008B5024B32
:1080C0001B685B68019308BD2002030008B5024BE2
:1080D0001B685B69019308BD2002030008B5024BD1
:1080E0001B689B69019308BD2002030008B5024B81
:1080F0001B68DB6A019308BD2002030008B5024B30
:108100001B68DB6C019308BD2002030008B5024B1D
:108110001B685B6D019308BD2002030008B5024B8C
:108120001B689B6D019308BD2002030008B5024B3C
:108130001B68DB6D019308BD2002030008B5034BEB
:108140001B68D3F88830019308BD000020020300AB
:1081500008B5034B1B68D3F89430019308BD0000A9
:108160002002030008B5034B1B68D3F8A830019325
:1081700008BD00002002030008B5024B1B681B6805
:10818000019308BD4402030008B5024B1B685B68FD
:10819000019308BD4402030008B5024B1B689B68AD
:1081A000019308BD4402030008B5024B1B68DB685D
:1081B000019308BD4402030008B5024B1B681B690C
:1081C000019308BD4402030008B5024B1B685B69BC
:1081D000019308BD4402030008B5024B1B68DB692C
:1081E000019308BD4402030008B5024B1B681B6ADB
:1081F000019308BD4402030008B5024B1B685B6A8B
:10820000019308BD4402030008B5024B1B68DB6AFA
:10821000019308BD4402030008B5024B1B681B6BA9
:10822000019308BD4402030008B5024B1B685B6B59
:10823000019308BD4402030008B5024B1B68DB6BC9
:10824000019308BD4402030008B5024B1B685B683C
:10825000019308BD4002030008B5024B1B689B68F0
:10826000019308BD4002030008B5024B1B68DB68A0
:10827000019308BD4002030008B5024B1B681B694F
:10828000019308BD4002030008B5024B1B685B69FF
:10829000019308BD4002030008B5024B1B689B69AF
:1082A000019308BD4002030008B5024B1B68DB695F
:1082B000019308BD4002030008B5024B1B681B6A0E
:1082C000019308BD4002030008B5024B1B681B6BFD
:1082D000019308BD4002030008B5024B1B685B6BAD
:1082E000019308BD4002030008B5024B1B681B68E0
:1082F000019308BD1C02030008B5024B1B685B68B4
:10830000019308BD1C02030008B5024B1B689B6863
:10831000019308BD1C02030008B5024B1B681B69D2
:10832000019308BD1C02030008B5024B1B689B6942
:10833000019308BD1C02030008B5024B1B68DB69F2
:10834000019308BD1C02030008B5024B1B681B6AA1
:10835000019308BD1C02030008B5024B1B685B6A51
:10836000019308BD1C02030008B5024B1B68DB6AC1
:10837000019308BD1C02030008B5024B1B681B6B70
:10838000019308BD1C0203000021FFF79FBE10B53A
:10839000836804460BB901F0F0FEC3689847A368F0
:1083A0001BB1032221462046984720461021BDE8F4
:1083B000104001F0C6BE10B50446006808B1FFF7D2
:1083C00063FC204610BD10B5036804469B689847BF
:1083D000A368013BA3602BB923682046DB68BDE896
:1083E0001040184710BD0B68036013B15A68013282
:1083F0005A60704710B50446006828B14368013BD5
:1084000043600BB9FFF7DFFF204610BD10B5064CE7
:10841000002320462360FFF72FFC2046034A04492F
:10842000BDE8104001F088BE58E20320A8DE03201A
:10843000B7830D00002211464068FFF71DBF0022E0
:1084400011464068FFF738BF002211464068FFF729
:1084500043BF00224068FFF737BF002281F00101CF
:108460004068FFF721BF00231A4619464068FFF70E
:1084700013BF00231A4619464068FFF705BF0022C4
:1084800011464068FFF7E8BE002202214068FFF76E
:10849000EBBE00231A464068FFF7D6BEF0B51B4B73
:1084A000036000250F462833182689B04360856095
:1084B000C560324629460446103002F0C3FE2A4603
:1084C00029467868FFF7D8FE08B9A0601BE0294666
:1084D000324602A80095019502F0B4FE02A9684652
:1084E000ADF80860FFF770FB10B10123A3600AE04C
:1084F000009B019AA360E2600BB90223A36002A96A
:10850000204600F089F8204609B0F0BD88D60D005D
:1085100038B5084C28252A460021204602F092FE54
:108520004FF0FF336360044B258004225A60034AF6
:108530001A6038BD64E203205CE2032054D60D00CB
:108540007047007D70470000037D1BB18369B3F164
:10855000004F02D19FED050A704707EE903A9FED5C
:10856000047AF8EEE77A87EE870A70470000000089
:108570000000C842037D1BB1036AB3F1004F02D172
:108580009FED050A704707EE903A9FED047AF8EEEA
:10859000E77A87EE870A7047000000000000C842B3
:1085A00010B52821044601F0CCFD204610BD000086
:1085B000037D7BB1436A002B0CDB07EE903ADFEDC5
:1085C000076A9FED070AB8EEE77AC7EE267A27EE2C
:1085D000800A7047BFEE000A704700BF00FF7F4768
:1085E0000000C842037D7BB1C369002B0CDB07EEA2
:1085F000903ADFED076A9FED070AB8EEE77AC7EE1B
:10860000267A27EE800A7047BFEE000A704700BF47
:1086100000FF7F470000C84230B50D4600F110044E
:108620000FCD0FC495E8030084E80300012030BD9E
:108630002DE9F04107460C4615462AB90368C9B230
:108640009B68BDE8F0411847002907DA0A2A05D1DE
:108650002D2100F019FE6142064601E02146002668
:10866000EAB2384600F029FE3044BDE8F08170B52A
:108670000D4606460A2281682846FFF7D9FF2C21BD
:108680000446284600F000FE0A220444F168284609
:10869000FFF7CEFF204470BDA0F10400FFF7E7BF55
:1086A00070470020704710B51021044601F049FDC5
:1086B000204610BD08B508B1FFF7F5FF08BD002240
:1086C000026010B54FF69C728280B1F9044084803C
:1086D0008A8002680C6804600A6010BD10B5044608
:1086E0000068FFF709FE204610BD38B5C468F4B134
:1086F0002378022B03D104F10C00FFF7EFFF65682C
:1087000035B12846FEF775F91021284601F019FD0C
:10871000A56835B12846FEF76CF91021284601F00E
:1087200010FD20461421BDE8384001F00ABD38BDD7
:1087300010B588B00446684600F0F2FF694604A808
:1087400001F010F804A8A047044604A800F0A1FF17
:10875000684600F09EFF204608B010BDF0B510241A
:1087600085B007460E46154600212246684602F0AF
:1087700069FD002269461046ADF800400297039655
:108780000195FFF701FD05B0F0BD13B5044691E872
:10879000050000234B600B602060626001A801931C
:1087A0000093FFF727FE204602B010BDF7B50C4638
:1087B00002AD54F8043B45F8083D06460F4601A8B3
:1087C0002146FFF710FE29463046FFF7DEFF01A8DD
:1087D000FFF710FE2046FFF70DFE3846082101F096
:1087E000B0FC304603B0F0BD38B50023044603604A
:1087F00010200D46FBF751FC28B101234360836034
:10880000024B0360C5602060204638BDBCD60D0019
:10881000826810B50AB901F0B0FCC368BDE8104029
:10882000184708B5006800F11001FFF7F1FF08BD17
:10883000826810B50AB901F0A0FCC368BDE8104019
:10884000184708B5006800F11001FFF7F1FF08BDF7
:1088500038B5002383608B6804460D462BB1022295
:108860009847EB68E360AB68A360204638BD000022
:10887000F0B589B004686846FFF721FF00238DF842
:1088800008304FF00202D4E84F3F002B03D1C4E878
:10889000412F0029F7D102D08DF8083063E014F1A0
:1088A0000C0503D069462846FFF709FFBFF35F8F29
:1088B00001236370002004F10803BFF35F8F53E8C6
:1088C000006F43E80002002AF9D1BFF35F8F002E4A
:1088D00049D0FFF713FC20B129463046FFF798FF37
:1088E0003AE0314602A8FFF7B3FFE068B4F9105050
:1088F00008B102F037FF06901020ADF81C50FBF7CE
:10890000CCFB0546E8B1002787601820FBF7C5FBC4
:10891000044688B10146876002A8FFF799F8049BD6
:10892000A268A360059B049206A9E268E36004F1D3
:1089300010000592FFF7C3FE0D4BEB600D4B2C6052
:10894000AB6006A8FFF7CAFE02A8FEF752F80022A5
:1089500029460948FFF7DAFB3046FEF74AF81021AE
:10896000304601F0EEFB6846FFF7B8FE09B0F0BDF7
:1089700023880D00998A0D008F830D002DE9F04F9B
:108980008BB006460F46904699469DF850A0FFF7DB
:108990001BFC07AD834630BB4FF62E73059005A92F
:1089A0002846ADF81830FFF78AFE1420FBF775FB58
:1089B000044658B10223037001234370C0F804B089
:1089C000C0F808B029460C30FFF779FE3046214642
:1089D00040F8044BFFF708FF2846FFF77FFE05A885
:1089E000FFF77CFE52E000240C2314206C60AC6086
:1089F0000793FBF752FB014618B1047044704460C2
:108A0000846004A80391FFF7EFFE224B089308202F
:108A1000FBF743FB044628B1039B40F8043B04A941
:108A2000FFF7E1FC00955FFA8AF34A464146384673
:108A30000994FFF7D9FB20B9039B5B7803F0FF0291
:108A400083B1039B059304A906A8FFF7CCFC05A9F5
:108A50003046FFF79AFE06A8FFF7CCFC04A8FFF704
:108A6000C9FC13E04FF69C7305A903A80592ADF865
:108A70001830FFF7FDFE05A8FFF730FE05A809999D
:108A8000FFF794FE06A8FFF7B5FCDAE730460BB017
:108A9000BDE8F08F098C0D00022AF8B5044606D017
:108AA000032A17D0012A22D10B6803601FE0182087
:108AB0000E68FBF7F2FA054650B13146FFF7C8FEE3
:108AC0003069B6F9147008B102F04CFE2861AF822B
:108AD00025600CE0046854B104F11000FFF7FEFDBE
:108AE0002046FDF786FF1821204601F02AFB0020D2
:108AF000F8BD38B5002383608B6804460D462BB162
:108B000002229847EB68E360AB68A360204638BD5B
:108B1000022A70B5044606D0032A11D0012A18D1C2
:108B20000B68036015E014200E68FBF7B6FA0546E3
:108B300020B13146FFF7DDFF337C2B74256008E060
:108B4000046834B12046FDF754FF1421204601F09B
:108B5000F8FA002070BD0000F0B5002387B00C4685
:108B6000BFF35F8F50E8006F40E80032002AF9D170
:108B7000BFF35F8F002E3FD01846FFF7BFFA0746BE
:108B800020B121463046FFF753FE2EE0314601A8C2
:108B9000FFF7AFFF23788DF814301020FBF77DFA34
:108BA0000546D0B187601420FBF777FA044678B108
:108BB0008760014601A8FEF74BFF039BA268A360F4
:108BC000049B0392E268E3609DF8143004922374DE
:108BD0000A4BEB600A4B2C60AB6001A8FDF709FF64
:108BE000002229460748FFF791FA3046FDF701FFBA
:108BF0001021304601F0A5FA07B0F0BD43880D0002
:108C0000118B0D008F830D0030B585B004460D46E5
:108C100068461146FFF7CAFD7CB124B228460DB163
:108C200002F0A0FD029002A96846ADF80C40FFF7E3
:108C30001FFE02A8FFF752FD1DE000988DF80840C6
:108C40004FF00102D0E84F3FA34203D1C0E8412FCB
:108C50000029F7D102D08DF808300CE010F10C019A
:108C60004FF0010318BF0373BFF35F8F043000F8A8
:108C7000033CFFF771FF01A8FFF7BCFB05B030BD57
:108C8000002211464068FFF717BB002211464068DA
:108C9000FFF722BB00224068FFF716BB002281F0DD
:108CA00001014068FFF700BB00231A4619464068DF
:108CB000FFF7F2BA00231A4619464068FFF7E4BAF4
:108CC000002211464068FFF7D7BA002211464068DB
:108CD000FFF7C2BA002202214068FFF7C5BA00239D
:108CE0001A464068FFF7B0BA024B03225A60024AA4
:108CF0001A6070478CE20320D8D60D007047F8B593
:108D0000064615460C468F18BC4206D0336814F848
:108D1000011B9B6830469847F6E72846F8BD0022BD
:108D2000007CFFF789B80021007CFFF78DB8002197
:108D3000007CFFF791B80021007CFFF795B8002177
:108D4000007CFFF799B810B51421044601F0F9F939
:108D5000204610BD10B50446002363604FF47A73BB
:108D6000A360044B2174084623601146FFF794F872
:108D7000204610BD0CD70D0000231A461946007C72
:108D8000FFF742B870B50C4686B0142506462A4651
:108D9000002101A802F056FA23788DF808306368A4
:108DA0000393E36804930022237A307CADF80450E7
:108DB00001A90593FFF788F806B070BD1FB5003311
:108DC0008DF800104FF06401039118BF012369462C
:108DD00001928DF80830FFF7D5FF05B05DF804FB70
:108DE0000022007CFFF718B8C9B2FFF7F9BF0022D4
:108DF000007CFFF719B80021007CFFF745B808B5E3
:108E00000021007CFFF750F8B0FA80F0400908BD5F
:108E100008B50021007CFFF74FF8B0FA80F0400958
:108E200008BD0047F0B585B01C460E4617460546FE
:108E3000FEF7D2FF002084424FF0040303908DF828
:108E40000C30A5BF9DF828308DF80E30034603ABDB
:108E5000009332463B460649A8BF8DF80D40284690
:108E6000FEF7B2FFB0FA80F0400905B0F0BD00BFD8
:108E7000238E0D00FEF7C0BFFEF7B6BF704710B5DA
:108E80001821044601F05DF9204610BDF0B5037DC0
:108E9000062B8DB00E4600F104074FF0000402D0FF
:108EA00000F1080518E00CAD394605F8304D2F23C8
:108EB0002A460A20FFF710F8284603F083F93368A2
:108EC0000246DB682946304698470FE024B12E2140
:108ED000304600F0D9F9044415F8011D0A22304645
:108EE00000F0EBF9BD420444F0D120460DB0F0BDD6
:108EF00010B5054B0446112240F8043B002102F056
:108F0000A1F9204610BD00BF34D70D000346074A23
:108F100010B543F8042B01F1100251F8044B43F84B
:108F2000044B9142F9D10A781A7010BD34D70D0064
:108F300010B59DF8084044EA032343EA024242EA9E
:108F4000016104234160037510BD37B50D788B783E
:108F50004A78C97800912946FFF7EAFF03B030BD8F
:108F6000014B024A1A60704794E20320B0D70D000B
:108F7000002211464068FFF79FB900221146406861
:108F8000FFF7AAB900224068FFF79EB9002281F0DE
:108F900001014068FFF788B900231A4601214068A3
:108FA000FFF77AB900231A4619464068FFF76CB9F3
:108FB000002211464068FFF75FB900221146406861
:108FC000FFF74AB9002202214068FFF74DB900239C
:108FD0001A464068FFF738B938B5054688B10468C5
:108FE0004CB1A3681BB103222146204698471021AB
:108FF000204601F0A6F828461421BDE8384001F0CB
:10900000A0B838BD10B103685B681847704710B549
:1090100003680446BBB15868FEF7EEFD78B92368D3
:109020005A7C12B95868FEF7F7FD23685868FEF7B6
:10903000FBFD20680023236028B1FFF7CDFF2068E7
:1090400008B1FFF7C9FF204610BD38B50446D0F877
:10905000C40108B1FBF725F8D4F8C00108B1FEF748
:1090600013FED4F8BC5135B12846FFF7D0FF0421D8
:10907000284601F066F8206808B1FFF7C3FF2046D4
:1090800038BD000010B5044B044640F8083BFFF71C
:10909000DCFF204610BD00BF1CD80D0038B50E4CBB
:1090A0000E4B23600025022304F5E4706360A56085
:1090B000C4F8C451C4F8C851FEF7DEFD084BC4F82B
:1090C000CC5184F8D05123602046064A0649BDE8B9
:1090D000384001F031B800BF98E2032050D80D00AD
:1090E0001CD80D00A8DE032085900D0000231A4631
:1090F0004068FFF7A9B8002202214068FFF7B4B822
:10910000002211464068FFF7A7B8002211464068C8
:10911000FFF7B2B800231A4619464068FFF7B4B803
:1091200000231A4619464068FFF7B6B8002281F0BE
:1091300001014068FFF7B8B800224068FFF7C4B8E3
:10914000002211464068FFF7C7B800221146406868
:10915000FFF7B2B82DE9F043002495B016460D464E
:109160000746FFF7C5FE214620220CA8009402F016
:1091700069F840230C9321466B460CAA3046FEF753
:10918000BBFE0446002844D1024601216868FFF76F
:1091900073F80221804622466868FFF76DF8009E4A
:1091A00081462146002E34D0002932D17368022B2B
:1091B00002D00A2B09D02AE0B8F1000F27D071693C
:1091C00038460431FFF7C1FE20E0B9F1000F1ED090
:1091D0007469112201A802F035F806238DF81430C5
:1091E00001AD04F108031834186859682A4603C20F
:1091F0000833A3421546F7D101A906A807ADFFF72A
:1092000085FE0FCD3C1D0FC42B6823700121F6692C
:10921000C8E70098FEF768FE384615B0BDE8F08351
:10922000024B034A1A6000225A6070476CE4032024
:1092300050D80D00F8B506460D468F180024BD42E3
:109240000CD0336815F8011B9B68304698470028FE
:1092500001DB0444F3E7002C08BF04462046F8BDB8
:1092600070B505460C46084649B102F0ABFF2B68C5
:10927000024621462846DB68BDE87040184770BDAD
:1092800008B5FFF7EDFF08BD03689B68184738B5C0
:109290000D210546FFF7F8FF0A2104462846FFF78F
:1092A000F3FF204438BD38B50546FFF7D9FF044623
:1092B0002846FFF7ECFF204438BD30B58BB00B4695
:1092C00000218DF82410012A98BF0A220DF12304F1
:1092D000B3FBF2F505FB123303F0FF03092B94BF38
:1092E00030333733DBB2214604F801392B46002DE9
:1092F000EED1FFF7B5FF0BB030BD00002DE9F04710
:1093000057EC106B82460D4610EE102A3B4610EECD
:10931000100A394601F0CEFC08B14E4912E027F0A0
:1093200000494FF0FF324C4B3046494601F0C2FC39
:1093300068B94FF0FF32484B3046494601F09CFC7B
:1093400028B946495046FFF78BFFBDE8F0874FF03C
:109350006042434B3046394601F0A2FC08B1414916
:10936000F0E74FF06042404B3046394601F07AFC5E
:109370000028F4D1002200233046394601F072FC67
:1093800040B12D215046FFF77FFF07F1004304460F
:109390001F4600E0044635494FF0000800205FFA00
:1093A00088F39D4206D90022314B01F013FB08F1EE
:1093B0000108F4E732463B4601F030F80F46064616
:1093C00001F0B6FC0A22014680465046FFF775FFC1
:1093D0000444E5B3404601F05DF902460B463046D1
:1093E000394601F019F806460F4650462149FFF765
:1093F00037FF044400221E4B3046394601F0C0F9C5
:1094000006460F4601F06CFCB0F1000907DA2D2189
:109410005046FFF739FFC9F10001804602E0494696
:109420004FF000080A225046FFF747FF404404442B
:10943000484601F03FF902460B463046394600F0F7
:10944000EBFF013D15F0FF0506460F46D2D1204641
:10945000BDE8F0877CD80D00FFFFEF7F86D80D00B8
:10946000FFFFEF4180D80D00FFFFEFC10000E03F9C
:109470000000244084D80D0038B5C9B20546FFF776
:109480003DFF04462846FFF702FF204438BD0CB4D8
:109490002DE9F04387B000AF07F13804054654F8D2
:1094A000049B3C600E4623464A461421381DFEF7B5
:1094B00053FF132805D8391D2846FFF7D1FE04466F
:1094C00013E000F1080323F00703E846ADEB030DBA
:1094D000411C23464A4668463C60FEF73DFF69460C
:1094E0002846FFF7BDFE0446C5461EB12846FFF7D5
:1094F000CEFE044420461C37BD46BDE8F04302B012
:10950000704710B50446FDF774FA204610BD000000
:109510000348044A04490023836000F00DBE00BFE5
:1095200074E40320A8DE032003950D000021FEF75C
:109530001BBD0021FEF720BD10B504460170084692
:10954000FEF7F2FC00236360204610BD38B50446E8
:1095500000780D46FFF7EAFF40B920782946FEF76C
:10956000D3FC2078BDE83840FFF7E3BF38BD007872
:10957000FFF7DFBF400830B5186000241868884244
:10958000E5B206D90134082C02D040081860F5E78E
:109590000725024B5B5D137030BD00BF8AD80D00FC
:1095A0002DE9F04307468FB000780E46FFF7BEFF67
:1095B000002862DB3C781422002109A801F042FE59
:1095C0000B232046002209A9ADF82430FEF7BCFC8D
:1095D0009DF82D4054B19DF82C5035B9DDF8308000
:1095E0009DF834909DF8354003E00024A146A04644
:1095F0000125337905B1BBB99D420BD1B268424513
:1096000008D18DF820908DF82140BDF82010B28946
:10961000914209D053B10024387801940094234634
:1096200022460121FEF798FC002026E08DF80F303D
:10963000B1680A9804AB0DF10F02FFF79BFF317977
:1096400005B1B1B9A94208D0002438780194747BDF
:10965000337B9DF80F200094E4E7B3684345F3D3D0
:109660008DF820908DF82140BDF82020B3899A42D2
:10967000EAD1049B4345E7D1D6E70FB0BDE8F083BC
:1096800008B50078FEF748FCC0B208BD0078FEF7C8
:1096900053BC10B504460068FEF72EFE204610BDF0
:1096A00010B50446006808B1FEF726FE00232360CB
:1096B000A360636010BD38B504460D4600680131F3
:1096C000FEF722FE10B184E82100012038BD10B55C
:1096D0000368044613B143688B4207D22046FFF764
:1096E000EAFF20B1A3680BB922681370012010BDF6
:1096F00070B50E46114604461546FFF7E8FF18B947
:109700002046FFF7CDFF09E02A463146A5602068D4
:1097100001F072FD2268A3680021D154204670BD7B
:1097200038B50023044603604360836003730D462D
:1097300039B1084602F046FD294602462046FFF7A9
:10974000D7FF204638BD884210B50B46044607D0E7
:10975000096819B19A68FFF7CBFF01E0FFF7A0FF96
:10976000204610BD10B500230446036043608360AB
:109770000373FFF7E8FF204610BD08B582680B466B
:1097800012B919B9012008BD11B90368187802E0AF
:10979000006801F0D5FFB0FA80F0400908BD70B54F
:1097A0000E469AB191B185689D4202D800230B7094
:1097B00070BD541EED1A0168AC4228BF2C461944F6
:1097C0002246304602F01BFD0023335570BD10B514
:1097D0000446006818B1FEF78FFD0023236010BD1A
:1097E00038B5B1F9043083800B460D4653F8062F87
:1097F000C0F806209B8843810446FFF7E8FF2B68EA
:1098000013B1236000232B60204638BDB1F904302A
:1098100010B50BB90A689AB10C685CB1A288012A2C
:1098200003D0042A06D1022205E0A4894C818A7162
:109830000B8105E004220B814FF6FF738A714B8187
:1098400051F8063F03608B88838010BD01460022DB
:109850008C20FEF731BA0020FFF7F8BF30B5044680
:1098600085B0084611461A460023FEF737FC0D4D19
:10987000ADF80C00002301A90193ADF808308DF874
:109880000A3028464FF6FF73ADF80E30FFF7A8FFF9
:1098900001A8FFF79CFF20462946FFF7B7FF2046A7
:1098A00005B030BD84E4032010B5094C00204FF60C
:1098B000FF732060A080A07120816381FEF7FEFB12
:1098C0002046044A0449BDE8104000F035BC00BF02
:1098D00084E40320A8DE0320A9410D00F0B5144B59
:1098E000144F1E68144B064418683B6806449E4299
:1098F0008BB01BD00AA801AD40F8286D01F084FBA5
:10990000436903F26C73436104460FCC0FC50FCC5F
:109910000FC5D4F800E0C5F800E001AD0FCD074C4D
:109920000FC40FCD0FC43E60C4F800E00BB0F0BD13
:10993000C0E40320BCE40320B8E4032090E4032047
:1099400008B50020FEF768FC28B1FEF73DFC80F06A
:109950000100C0B208BD012008BD000008B5FFF736
:10996000BDFF024B9869013008BD00BF90E40320A1
:1099700008B5FFF7B3FF024B1869013008BD00BFFF
:1099800090E4032008B5FEF7C7F9034B1B681844A1
:10999000024B1B68184408BDC0E40320B8E4032050
:1099A000FAEE087AB4EEE70AF1EE10FA0FD4F2EE0E
:1099B0000C7AB4EEE70AF1EE10FA08DCDFED047A77
:1099C000044B20EE270ABDEEC00A83ED000A704763
:1099D00000006145C0E40320B5EEC00AF1EE10FAC4
:1099E0000FD4F0EE007AB4EEE70AF1EE10FA08DCDC
:1099F000DFED047A044B20EE270ABDEEC00A83EDAA
:109A0000000A704700006145ECDD0320024B1A6834
:109A1000024B1A60704700BFECDD0320B8E403205E
:109A2000014B00221A607047B8E4032008B5FEF726
:109A30007BF9002211461046BDE80840FEF776BBD0
:109A400037B50E4B1B6819440D4B1B68044602A822
:109A5000194440F8041D01F0D7FA01F0D9F9054680
:109A600002F0B0FB2844002300F8013C29462046C0
:109A7000FFF756FE204603B030BD00BFC0E4032010
:109A8000B8E403202DE9F047A4B014AC074689469A
:109A9000204611463F221D4602F0B1FB002320461E
:109AA0008DF88F3002F08EFB804625B9244903A83B
:109AB00001F050FE13E03C2195FBF1F2002AB8BF03
:109AC000524292FBF1F301FB132200924FF46163C7
:109AD0001C4A95FBF3F3102103A8FEF72DFC254645
