:02000002D0002C
:1040000000400D001CEB0D00000006000D00050136
:084010000401E70500000000B7
:0440180044CC0D0087
:1040200009480A49884208B505D0094A824202D0A7
:10403000121A07F033FA0748074A0021121A07F04C
:1040400053FA014808BD00BF24DD03208CE90D00B0
:1040500088DE032088DE0320F0E7032070B506F039
:1040600085F8074C074BE41AA40800251E46A54214
:1040700004D056F8253098470135F8E770BD00BFE9
:1040800070E10D0004E10D0001F0AEB908B501F0DA
:1040900037F8BDE8084006F02BB804F0AFB904F0DB
:1040A000B5B904F0B3B9000008B5034A00210C20EB
:1040B00004F06CF8FEE700BF0D7E0D000078B0FA4A
:1040C00080F040097047012303707047014B0122C3
:1040D0001A70704718DF032038B50446006928B10C
:1040E00085680C2106F07FF92846F8E7204638BDA0
:1040F00010B503682F2B044604D9074A00210A2073
:1041000004F044F823681F2B83BF03F01F032360D0
:1041100002484FF0A04010BD0D7E0D00000300507E
:1041200008B5044905F03BFC18B1034802F054FB04
:10413000012008BD05D10D0098DE032008B5044913
:1041400005F02DFC18B1034B03221A70012008BDA5
:1041500005D10D00DEDE032010B5034B03600446DD
:1041600003F070FB204610BD7CCC0D0010B504465A
:10417000FFF7F2FF2046382106F035F9204610BD42
:1041800010B5034B0360044602F005FB204610BD4A
:1041900060CC0D0010B50446FFF7F2FF2046102159
:1041A00006F021F9204610BD10B50446006808B19C
:1041B00004F02CF9204610BD08B504F08FF820B1AA
:1041C0000020BDE8084004F0A9B808BD08B50020EB
:1041D00004F0ACF828B104F081F880F00100C0B21E
:1041E00008BD012008BD10B500210446084603F0B3
:1041F000ADFDD4F8A0400021012003F0A7FDE0B2FE
:1042000010BD30B500218FB00446084603F09EFD76
:104210000FCC6D460FC50FCC0FC50FCC0FC594E862
:10422000030085E803000021012003F08FFD6846AC
:1042300001F082FE51EC100B06F0ECFE00EE100ACD
:104240000FB030BD30B500218FB00446084603F0F2
:104250007DFD0FCC6D460FC50FCC0FC50FCC0FC524
:1042600094E8030085E803000021012003F06EFDBF
:10427000684601F089FE51EC100B06F0CBFE00EE13
:10428000100A0FB030BD002003F0F8BD08B52DEDC9
:10429000028BB0EE408A28B10138FFF7F7FF28EE15
:1042A000000A01E0B7EE000ABDEC028B08BD0EB4B7
:1042B00000B58CB00DAA202352F8041B03928DE8A0
:1042C000060004930168002304AA1E20059303F04E
:1042D00065FF0CB05DF804EB03B0704737B50468B8
:1042E0009DF818508DF800308DF80450E4683C2398
:1042F000A04703B030BD000010B50B7892B00C465B
:1043000023B9194902A807F077FB17E0084606F021
:104310000DFFC82804D0204606F008FFC92819D18F
:10432000124902A807F068FB05F073FD104BD86135
:10433000104B01221A70104B00221A700F4B1049BB
:104340001B78104800228DF8002002AAFFF7C6FF54
:1043500012B010BD204606F0E9FE0B4A034640218C
:1043600002A804F073F8E9E7E0CC0D00F5CC0D00ED
:104370002CE00320DDDE0320D0DF0320C4DE032099
:10438000E8CC0D00F0DF032007CD0D0013B50B497D
:1043900005F005FB002478B1094B0A4A1B780A494D
:1043A0008DF800400948FFF799FF234601220A21B2
:1043B000074802F02AFF012002B010BD05D10D0010
:1043C000C4DE032024CD0D0086CF0D00F0DF0320D6
:1043D000A8DE032037B51A49044605F0E0FA054681
:1043E000A0B1184B01241C71174B1C7003F076FF11
:1043F00008B9012022E0154B15491B781548002209
:104400008DF80020144AFFF769FFF2E713492046B0
:1044100005F0C5FA90B10B4B1D710B4B01241C70BC
:1044200003F05CFF0028E4D0084B0D4A1B780849D4
:104430008DF800500748FFF751FF204603B030BD0C
:1044400005D10D002CE00320DDDE0320C4DE0320B7
:104450005FCD0D00F0DF03203CCD0D004DCD0D00F4
:104460004FCD0D00000000002DE9F043CBB0044615
:10447000FFF7A2FEFFF707FF0027064647F22F5877
:104480004FF00009FFF7FFFE801B61EB0701894534
:1044900008BF804505D3FFF799FE10B903F006FF6A
:1044A000F0E7FFF793FE0A2205A9206808F092F8CA
:1044B00000F10C03DBB2182B49D845B207EE905A35
:1044C000274BB8EEE70A012483ED050A05F07AFBD5
:1044D000244B1C7005F068FB064605F09AFC301A68
:1044E00006F03AFA1CA3D3E9002306F0C5FB1E4AE6
:1044F000CDE900010A211D4803F0A8FF03F0EEFEFC
:1045000018B31B4E1B4A2B464FF4807100250AA896
:1045100003F09CFF337818498DF800500AAA174819
:10452000FFF7DCFE05F075FC014606A805F09AFBD6
:10453000069B0393039A33780F498DF800500F4878
:10454000FFF7CCFE06A805F0B6F9204600E00020F3
:104550004BB0BDE8F08300BF000000000020AC407D
:104560002CE00320DDDE032064CD0D008CDE032073
:10457000C4DE03206ECD0D0082CD0D00F0DF0320E0
:1045800030B5C5B00A2203A9006808F023F8C3B209
:104590005A1E3B2A1ED8124A124D1348AB710124F1
:1045A00014700C21114A03F051FFAB79104A4FF4FB
:1045B000807104A803F04AFF03F090FE60B10D4B38
:1045C0000D491B780D4800228DF8002004AAFFF742
:1045D00085FE01E0002000E0204645B030BD00BF70
:1045E000DDDE03202CE00320BDDD03209ECD0D0089
:1045F00087CD0D00C4DE0320D8CF0D00F0DF0320EF
:104600002DE9F04F234B244C9D68A2691B69D3B060
:10461000D4E90067D4E90289D4E904AB119310927C
:1046200005F0F7FB94ED0A7B8DED0E7B94ED087B96
:10463000119B109A0893194B0A908DED0C7B0992EF
:1046400007930695CDE904ABCDE90289CDE9006772
:10465000134A4FF4807112A803F0F8FE114B12496F
:104660001B78124800228DF8002012AAFFF736FEB0
:104670000F4B01221A7003F0D1FB0E4B186005F0AE
:10468000CFFB0D4B186005F0D5FB0C4B186053B0F9
:10469000BDE8F08F2CE00320A0DF0320C7DE03205D
:1046A000A9CD0D00C4DE032039CE0D00F0DF0320BC
:1046B000D0DF0320D8DE0320E4DE032098DF0320D0
:1046C00038B52DED028B054600241B4800222946F3
:1046D00001F0EEFE1848B0EE408A01F0C3FF50B979
:1046E0000134042CF1D105F0BFFC144904F0EEFEB6
:1046F0009FED0F8B15E0032CF5D0B0EE480A0E4865
:1047000001F096FF10EE100A06F038F941EC180B94
:1047100005F0AAFCB0EE480AF0EE680A022104F0A7
:10472000BDFFB0EE480AF0EE680ABDEC028B38BD62
:10473000000000000000F87FD4DF032054CE0D00FD
:1047400030B5194D0FCD99B004AC0FC40FCD0FC4C7
:1047500095E8030084E8030014490EA803F028FF3D
:104760000EA803F078FF04460EA803F0C5FF0EA8BC
:1047700010EE105A03F0A6FF18AB10EE100A03EB70
:10478000840406F0FBF8CDE90201284606F0F6F8AD
:10479000CDE90001064A54F8503C0648402103F098
:1047A00055FE19B030BD00BF9CCC0D0044E2032083
:1047B00064CE0D004CDF032037B5164D2A6892F801
:1047C000513092F8501002A803F01F0343EA41133E
:1047D00040F8083DFFF78CFC009B2A68012404FA8E
:1047E00003F3C0F8083592F8513092F8501002A83F
:1047F00003F01F0343EA411340F8043DFFF778FC40
:10480000019B9C40044BC0F80C4500221A7003B079
:1048100030BD00BF48DF032018DF032010B520247F
:1048200090B022460021684606F05EFE2246002136
:104830000DEB04008DF8054006F056FE00210DEB4F
:1048400004008DF8254003F017FD4FF46173ADF8B7
:104850000830ADF80A3041F21003ADF80C30009B7F
:1048600041F2700243F4007300216846ADF806205F
:10487000009303F001FD10B010BD00002DE9F843D6
:104880001D481E4D406800231A46194603F086FD58
:1048900003F014FD4FF4967440F2E7360027FFF75B
:1048A000F2FC4FF000098046FFF7EDFCB0EB08008A
:1048B00061EB09018F4208BF864205D303F00EFD6C
:1048C00010B903F0F3FCEFE703F008FD58B103F073
:1048D00005FD30B10A4A0123D3700A4A1370BDE8BE
:1048E000F883BDE8F88303F099FA286003F0DEFC52
:1048F000013CECD0D3E700BF44E20320F0E5032005
:104900002CE00320DDDE032008B503F0E7FC80F097
:104910000100C0B208BD0000F8B503F0D7FCFFF7F6
:10492000B2FC0025044643F697260027FFF7ABFCB0
:10493000001B61EB05018F4208BF864205D3FFF7DC
:10494000E3FF10B903F0B2FCF0E7FFF7DDFF094821
:10495000002319461A46406803F028FD064B002242
:10496000DA70064B01244FF4FA601C7003F096FDD8
:104970002046F8BD44E203202CE00320DDDE0320C6
:1049800030B5134D134C14492A7820788DB00E237E
:1049900003FB0212009203FB0013104A282102A815
:1049A00003F054FD2B78237003F098FC48B10C4BB6
:1049B0000C491B780C4800228DF8002002AAFFF752
:1049C0008DFC05F051FB02A904F080FD0DB030BD57
:1049D000DEDE0320C5DE032030DD03207DCE0D00AA
:1049E000C4DE03208BCE0D00F0DF032037B503F0CB
:1049F0006DFC03F013FA43F69725044603F06EFCB2
:104A000040B103F00BFA001BA84203D8642003F066
:104A100045FDF3E70021094B47F23052084603F009
:104A200065F94FF47A7003F039FD054B0A221B68D3
:104A30000121684605F024F803B030BD9CCE0D007E
:104A400034DF0320F7B5154B154A1B781549164876
:104A500000248DF80040FFF741FC144B1C71FFF758
:104A6000ABFBFFF710FC0025044647F22F5600274A
:104A7000FFF709FC001B61EB05018F4208BF86426E
:104A800005D3FFF7A3FB10B903F010FCF0E7FFF725
:104A90009DFB074B01221A7003B0F0BDC4DE03205A
:104AA000A9CE0D00B1CE0D00F0DF03202CE00320D5
:104AB000DDDE032038B505F0C7F9054605F0D5F968
:104AC000044605F0CBF9231F062B0ED9E31E082B55
:104AD0000DD801382D1A01D50B2C02E0072D06DD6B
:104AE000032C14BF0020012038BD012038BD002058
:104AF00038BD00000000000070B52DED028BCAB07B
:104B0000044605F086F90A22064605A9206807F042
:104B100061FDC3B2022B58D840B207EE900AB8EE3E
:104B2000E78AB0EE480A05F069F82D4B83ED068A56
:104B30002C4B01221A7018EE100A05F01FFF2A4AAA
:104B4000CDE900014FF480710AA803F07FFC05F065
:104B50003FF938B1FFF7AEFF10B105F069F801E099
:104B600005F070F805F020F8044605F052F9201A17
:104B700005F0F2FE18A3D3E9002306F07DF81B4AE6
:104B8000CDE900010A211A4803F060FC03F0A6FBFE
:104B9000E8B1184D18492B78184800240AAA8DF856
:104BA0000040FFF79BFB314606A805F05BF8069B2B
:104BB00003938DF800402B78039A0F490F48FFF7B5
:104BC0008DFB06A804F077FE01E0002000E0012044
:104BD0004AB0BDEC028B70BD000000000020AC406C
:104BE0002CE00320DDDE0320BFCE0D0064CD0D00E0
:104BF0008CDE0320C4DE032082CD0D00F0DF032015
:104C00002DE9F041694CACB003F008F92368C01AF3
:104C100041F28733984240F2C68003F0FFF82060EB
:104C2000634C00216568084603F090F895F8008011
:104C30006E6B604D0021012003F088F82746B8F123
:104C4000000F70D003F0EAF842F20F73801B984215
:104C500069D86068584EFFF7D4FA10EE100A05F0D4
:104C60008DFEC6E908016068FFF7ECFA10EE100A45
:104C700005F084FEC6E90A016068FFF7C2FA6068C1
:104C800010EE106AFFF7DEFA002167688DED090A61
:104C9000084603F05BF800210120D7F8807003F08C
:104CA00055F86068FFF79FFA8046204600F084FFC1
:104CB00000210446084603F049F800210120D4F8F9
:104CC000B04003F043F838460794CDF8188005F05B
:104CD00043FE3A4B002205F0CFFF06F09BF905F0AA
:104CE0004DFE9DED090ACDE9040110EE100A05F014
:104CF00045FECDE90201304605F040FE304ACDE9DF
:104D0000000180210CA803F0A1FB2B78EBB100235C
:104D10002B7003F083F82B4B2B491A68821A2B480F
:104D2000FFF7C5FA11E07868FFF75DFA284A0346F5
:104D300080210CA803F08AFB2B7833B91D4B01228C
:104D40001A7003F06BF81F4B18600CA91F48FFF78F
:104D5000AEFA03F0C3FA30B31E4C03F05FF82368D9
:104D6000C01A1D4B98421ED903F058F81B4B206007
:104D70001B788DF800300CAA3C2319490AA803F0CF
:104D800087FE0B9C7CB16368013B63605BB9236861
:104D900020469B689847A368013BA3601BB9236822
:104DA0002046DB6898472CB0BDE8F081E0DE0320A8
:104DB000E8DE032044DF0320A0DF03200000594089
:104DC000D0CE0D008CDF032001CF0D007CE203204C
:104DD00021CF0D0028E00320BFD40100C4DE032052
:104DE0003BCF0D0030B585B00D4604A9002241F837
:104DF000102D03F0DBF9A8B9009C0CB1236923B98D
:104E0000094A00210A2003F0C1F9002301930C2371
:104E1000ADF80430042303930295236901AA01210C
:104E20002046984705B030BD0D7E0D0007B5072020
:104E300001A9FFF7D7FF0028A8BF019803B05DF8CC
:104E400004FB0000F0B589B001A90320FFF7CAFFF9
:104E500088B90620B0EE000AFFF718FABDF8043052
:104E600030EE000A07EE103A30EE000AB8EE477A4C
:104E7000C7EE007A01E0FFEE007A234D234E0FCDFE
:104E800001AC0FC495E80700FDEEE77A84E807005F
:104E9000C6ED027AFFF7CAFF08AB03EB80001C4D9A
:104EA00050F81C3C1B4A1C48102103F0CFFA2B7809
:104EB00034462F46194E83B9FFF7B8FF04280CD1AA
:104EC00001232B7002F0AAFF3368C01A144B9842DA
:104ED00011D8A368322B0EDD10E0FFF7A7FF0228E0
:104EE00003D0FFF7A3FF0328ECD100233B7002F0AF
:104EF00095FF3060E6E70123637102E0034B002277
:104F00005A7109B0F0BD00BFC4CC0D002CE00320E5
:104F1000DCDE03205AD70D00C7DE03204CE003205F
:104F200000BADB00F7B5FFF76BFE234B00221146FA
:104F3000586803F02BFA08B1FFF702FC1F4E204F10
:104F400000243019FFF7BCFB51EC100B06F062F89F
:104F500007EE900AF4EE677AF1EE10FA04D605F047
:104F60000DFD3D19C5E900010834182CE9D1144C98
:104F70001448D4E900230C21CDE90023124A03F0A0
:104F800065FAD4E902230C21CDE900230F480E4A2B
:104F900003F05CFAD4E904230C21CDE900230C488A
:104FA000094A03F053FAFFF74DFF0A4A0123137031
:104FB000094A137003B0F0BD44E2032000F403205B
:104FC000A0DF0320B1DD03203FCF0D0024DD03204F
:104FD000A0DD0320DDDE032094DF032007B5FFF70B
:104FE0004DFCFFF79FFF03F079F948B1114B1249CF
:104FF0001B78124800228DF80020114AFFF76EF945
:10500000104A11480023937093681D2BCCBF0023D6
:10501000012353710A2393710C4B53614FF07E535C
:105020000121936120231170117103B05DF804EB2D
:1050300001F060BCC4DE03205FCD0D00F0DF032073
:1050400047CF0D002CE0032098DE03200000A0C015
:1050500038B5284C274DFFF765FFA378012B84BF97
:105060000023A370E378012B06D903F037F910B1C0
:105070000123EB7000E0E8702379D4ED057A012B71
:1050800082BF1C4B00221A71A2681A4B1D2AD4BF82
:10509000012200225A712369FF2B88BF154BBAEEFB
:1050A000087A88BF0022F4EEC77A88BF1A61F1EE51
:1050B00010FA06D4B2EE087AF4EEC77AF1EE10FADE
:1050C00001DD0D4B6361D4ED067AF5EEC07AF1EEA9
:1050D00010FA06D4B0EE007AF4EEC77AF1EE10FAC8
:1050E00002DD4FF07E53A3610A23A371034B01221B
:1050F0001A7038BD2CE003200000A0C0DDDE0320C4
:1051000073B59C4C2378013B052B00F21E81DFE830
:1051100003F0B9036F3D7393974D2B792BB1974BE8
:105120001B78022B01D0FFF72BFC954B1B780BB1A2
:10513000FFF742FB934E33783BB120238E4A9248CF
:10514000012101F0D7FB00233370904E33783BB13F
:1051500030238F4A8C48502101F0CCFB0023337060
:105160006B790BB10423237004F064FEAB7990FBE0
:10517000F3F202FB1300002840F0ED8004F05AFE29
:10518000844B1B68984240F0F080E4E07A4B1A7937
:105190001D462AB1794B1B78042B01D0FFF7F0FB99
:1051A000FFF750FE6B790BB902233EE004F042FE9C
:1051B000012804DD704BDB78002B40F0D880002103
:1051C000072005F05EF8FFF7F7FA04F033FE3C2302
:1051D000C0F13C0003FB00F1002905DDB1F5616F72
:1051E000A8BF4FF4616100E001210023012291E09A
:1051F000FFF798FE052318E05F4B1A791D462AB188
:105200005E4B1B78052B01D0FFF7BAFBEB780BB98F
:10521000FFF734FB03F062F848B104F001FE08B96F
:10522000FFF710FCFFF7ECF9062323708DE002F086
:10523000F5FD594B186023E04F4B1B792BB14F4BB9
:105240001B78062B01D0FFF79BFB544B1B78002BE0
:10525000AAD002F0E3FD524B1B68C01A4AF6C8738D
:10526000984272D902F0DAFD4B4B4E4918604E4B12
:105270004E481B7800228DF800204D4AFFF72EF88B
:105280000123D2E73C4C23792BB13C4B1B78012BFB
:1052900001D0FFF775FB02F0C1FD3F4B1B6803F522
:1052A000EA433033984250D92369032B13DC03F0CF
:1052B00015F848B13C4B3F491B783C4800228DF81B
:1052C00000203D4AFFF70AF84FF4FA6003F0E6F8D1
:1052D00004F0D3FB39E004F09CFD274B294DDB693A
:1052E000C01AB0F5E15F19D902F0F8FF48B12E4BB2
:1052F00030491B782D4800228DF800202F4AFEF7F8
:10530000EDFF4FF4FA6003F0C9F800230122236196
:105310002A700A212A4801F078FF16E002F0DEFF29
:1053200048B1214B23491B78204800228DF80020EA
:10533000244AFEF7D3FF4FF4FA6003F0AFF80023DE
:10534000236101232B70FFF751FB1D4802B0BDE81C
:10535000704001F093BE04F06DFD0028F5D104F01B
:1053600069FD0C4B1B689842EFD003235DE7FFF704
:10537000D3FA24E7DEDE03202CE00320C5DE032081
:1053800018DF0320DDDE032098DE032094DF0320F6
:10539000A0DF032098DF032090DF0320D0DF03206D
:1053A000D8DE03205FCF0D00C4DE0320F0DF032032
:1053B0000ED50D008CCF0D0078CF0D0092CF0D00D3
:1053C000A8DE0320ACCF0D000023022202F05EBF56
:1053D0000023042202F05ABF0246014803F048BAF3
:1053E00045880D0000000000F0B5A9B004F03CFEB7
:1053F0004FF4165104F02CFE0021082004F030FF79
:105400000021042004F02CFF0121072004F028FFD4
:1054100001210520002404F023FF0121072004F0CE
:1054200030FFFFF7C9F94FF0FF330122984900948C
:10543000082003F081FD04A802F058FF23467D22D6
:1054400008A904A804F0BDFA234622469149019414
:10545000009408A802F05AFF8F499048904D914F50
:10546000FFF7B6FF90499148FFF7B2FF9049914886
:10547000FFF7AAFF90499148FFF7AAFF904991488A
:10548000FFF7A6FF90499148FFF7A2FF9049914886
:10549000FFF79EFF90499148FFF796FF904991488A
:1054A000FFF792FF90499148FFF792FF904991488A
:1054B000FFF78EFF90499148FFF78EFF9049914882
:1054C000FFF78AFF90499148FFF786FF904991487E
:1054D000FFF782FF90499148FFF77EFF904991487E
:1054E000FFF77AFF90497148FFF776FF8F4803F086
:1054F0009DFF8F4801F066F9214601230DF10B0253
:105500008B4801F0A1F99DF80B10012919D08848AA
:1055100001F062F90423874A8548214601F0EAF93F
:1055200001230DF10B022146814801F08DF99DF810
:105530000B30012B02D001233B7007E0FFF74EFD3B
:1055400004E020232A467A4801F07EF928AE0024A0
:10555000FFF77EFDFFF776FC46F8944D2246214684
:10556000304602F03BFC039B142B00F08480224663
:1055700021463046039402F031FC039B8C2B7AD0F9
:10558000AB796D4A48480C2102F060FF6B4801F08E
:105590005DFC0021694801F0AEFD95ED060A04F0BE
:1055A0002DFB04F015FC20B9644801F03FFC04F029
:1055B0004FFBFFF77FFA10B104F03AFB01E004F073
:1055C00041FB95ED050A04F0FDFA04F0EDFA0446FE
:1055D00004F01FFC201A05F0BFF92BA3D3E9002328
:1055E00005F04AFB564ACDE900010A213E4802F087
:1055F0002DFF3023534A4E48502101F025F904F085
:105600000FFC514B1860FFF709F9042004F052FE1B
:1056100008B9FFF7E3FC4D4800F046FF4C494B4802
:1056200000F027FF4B49494800F023FF4A4947480B
:1056300000F01FFF04F086FE42220146474800F0BA
:1056400029FA464800F0DAF902F0E8FB444B18600A
:10565000444B01221A70FFF711F93B7813B9114B33
:1056600002221A700021072004F00BFE04A804F0A7
:1056700022F929B0F0BD2B6901332B613A4B01228D
:105680001A707DE7AFF30080000000000020AC40FE
:10569000CD400D00F9420D004CDF0320CBCF0D00B3
:1056A0002CE00320DEDE0320BDDD0320D2CF0D0081
:1056B0003CE00320E1CF0D00B1DD0320ECCF0D0075
:1056C00024DD0320F6CF0D00A0DD0320FFCF0D0069
:1056D000ACDD03200BD00D0034E0032013D00D000F
:1056E000B8DF03201ED00D008CDE032025D00D0076
:1056F000C7DE032030D00D0021410D003FD00D004A
:105700008D430D0049D00D003D410D0053D00D00DB
:10571000D5430D005BD00D0069440D0068D00D002D
:10572000F94A0D0075D00D0081450D00C6DE03203D
:1057300098DE032008D10D009ECD0D00A8DE0320C9
:1057400064CD0D00A0DF0320E4DE0320D4DF0320BE
:1057500000F4032008F4032010F40320E8DE032003
:105760008CDF032044DF0320DDDE0320484B2DE9DE
:10577000F04100241C60474B474E484D01271F70E5
:1057800002F084FB464B186004F01CFD23462246C1
:1057900042F6DF5104F01EFD04F014FD22462346BC
:1057A000042104F01FFD4FF6FF7373813460B48051
:1057B000B4713481022002F00BFD2A46394930468B
:1057C00004F00CFE384E2146384602F019FD3946E9
:1057D000042002F0F3FA4FF01008301D4246214633
:1057E000306005F081FE02232A463049F3803046BE
:1057F0003775A6F8048004F0F1FD04F0A3FD2C4EEB
:105800000146304601F060FA2A462A49304604F043
:10581000E5FD04F097FD284E234601464FF4005263
:10582000304600F0C5FF254B33603046244E2549F5
:105830002A4604F0D3FD4FF400622349304602F0BB
:105840002DF9224B33603046214E22492A4604F07E
:10585000C5FD22464146304600F0F4FD30461E4E5E
:105860001E492A4604F0BAFD304600F0A9F8304639
:105870001B4E1C492A4604F0B1FD2146304603F078
:105880006AFD2A4630461849BDE8F04104F0A6BD3D
:1058900034DF0320C4DE032038DF032088DE03204A
:1058A00048DF0320A9410D001CDF0320D9400D0073
:1058B000A8DE03203B6A0D0098DE032060CC0D00BB
:1058C000F0DF032081410D0018F403207CCC0D0093
:1058D000D4DF032059410D00E8DE032099640D0058
:1058E000C6DE032089590D0075930D0010B5012304
:1058F0000374836804460BB1C06806E0006828B1F1
:1059000083680BB904F08BFDC36898470123637467
:105910000020BDE8104002F049BA00007FB5024601
:1059200008461379956833B13DB90C4904B0BDE818
:10593000704003F0B8BD0A4B00E00A4B167B0A4CDE
:105940000A49527B0292012E08BF2146019100951F
:10595000074A002103F0ADFE04B070BD29D10D004F
:105960000ED50D0018D10D0021D10D0025D10D004F
:105970003FD10D0010B58368044613B103220146E0
:105980009847204610BD000010B5054B044640F86E
:10599000203BFFF7EFFF204600F0C2F9204610BD84
:1059A000FCD10D0010B50446FFF7EEFF2046302174
:1059B00004F019FD204610BD0368C9B29B68184762
:1059C00038B50B490446002500F0B2F9094B2360B5
:1059D000257204F0B7FC42232374E06004F0BCFAA3
:1059E000054B6061A561E561A5621C60204638BD7C
:1059F00088E00320FCD10D005CE00320F7B5856949
:105A00000646002D3BD10420FEF747FB0446002844
:105A100034D01C49142004F0F1FC28B10574056051
:105A200045608560C56045742060B0B1164B8360E9
:105A300023681649DE6020684FF400638DE8090092
:105A40000222134B043002F059F930B923681B7C51
:105A5000A3B9012002F0D2F9F8E7256800232360FA
:105A600065B12F6837B13846FFF784FF10213846FB
:105A700004F0B9FC1421284604F0B5FCB46103B06D
:105A8000F0BD00BFC8DB0D008D5C0D005DD10D00C9
:105A9000ED580D0010B501230372C3680446486831
:105AA000586088689860C868D860087C1874084690
:105AB000227403F0EBF9204610BD000038B505460E
:105AC000017CC06803F016FAFD21E868FFF774FF57
:105AD0000021E86803F015FA30B10F4902460F487B
:105AE000FEF7E5FB002038BD02220123297CE8688F
:105AF00003F0EEF9C2B2022A01D00949EFE7E868E3
:105B000003685B6998470446E86803685B699847DF
:105B100040EA042080B238BD6AD10D007CE2032047
:105B20008ED10D002DE9F04706468946017CC068FC
:105B3000154603F0DFF9FF21F068FFF73DFF002174
:105B4000F06803F0DEF9024608B1184915E0044692
:105B5000AC4227D22F1B202F28BF202704EB070A97
:105B6000CAEB050253425341317CF0683A4603F0D8
:105B7000AFF9C2B2974207D00D490E48FEF797FB26
:105B80004FF0FF30BDE8F0874C44A046F068036852
:105B90005B69984708F8010BC4EB08039F42F5D8EE
:105BA0005446D5E72846BDE8F08700BFB8D10D00C0
:105BB000D3D10D007CE203200048704788E0032029
:105BC00007B582688DF807100AB904F028FCC3688D
:105BD0000DF10701984703B05DF804FB2DE9F04390
:105BE000037A89B0044613B900F120063BE0D0F8EF
:105BF0000C80404603F08DF92046FFF75FFF202818
:105C000004F12009054601D808B919E020252A46E3
:105C100069462046FFF786FFA8426F4610D16E46C0
:105C200016F8011B144800F091FBA36A23B116F883
:105C3000011C4846FFF7C4FFF31B9BB2AB42EFD3F6
:105C4000404603F06FF914E0606903685B699847A8
:105C5000C5B22946084800F079FBA36A1BB1294662
:105C60003046FFF7ADFF606903681B69984700285D
:105C7000EADC09B0BDE8F08388E0032008B50446FB
:105C80002046FFF7ABFF02F049F8F9E708B5FFF748
:105C9000F5FF000070B5194C194E02F0F7F8082115
:105CA000204600F047FD3168164B236011F00105D6
:105CB0000AD13046FEF702FA30B12946124803F005
:105CC0004DFD3046FEF7FFF9104AA2610E4B104A17
:105CD000E360226211230122236184F8242000233F
:105CE0000C4A0D4905482375237784F8253004F0C4
:105CF00075FB0A48BDE8704000F078B860E003200A
:105D000050E00320B8D50D0054E0032014D10D005D
:105D10008096980088DE032075660D0088E00320D9
:105D2000704710B50821044604F05DFB204610BD05
:105D3000014A0260416070470CD20D0002F0A6B823
:105D4000002202704270828082600273028242618D
:105D500002768283026280F824200285C26280F883
:105D60003020426380F8382080F83920C263026412
:105D7000426480F8482080F84920C2640265426588
:105D800080F8582080F85920C2650266426680F883
:105D9000682080F86920C2660267426780F8782030
:105DA00080F87920C267C0F88020C0F8842080F88D
:105DB000882080F88920C0F88C20C0F89020C0F896
:105DC000942080F8982080F89920C0F89C20C0F892
:105DD000A020C0F8A42080F8A82080F8A920C0F84E
:105DE000AC20C0F8B020C0F8B420704710B504460D
:105DF000FFF7A6FF04F1B800FFF7A2FF002302227D
:105E000084F8703184F8713184F8812184F882310A
:105E100084F8833184F88431C4F88831C4F88C3133
:105E2000C4F89031C4F89431C4F89831C4F89C3166
:105E300084F87231204610BDA1F14103052B02D830
:105E4000A1F137007047A1F16103052B94BFA1F1C7
:105E50005700A1F13000704738B5057804462D2D64
:105E600008BF0134204605F065F9642358432246F3
:105E700014F8013BA3F130010929F8D92E2B0BD1DD
:105E80005378303B092B07D80A2101FB0300937894
:105E9000303B092B98BFC0182D2D08BF404238BD9C
:105EA00038B504460D4605F045F96423B0FBF3F21E
:105EB00003FB1200114B2A80434320460278A2F1D3
:105EC00030010929044600F10100F7D92E2A0BD12F
:105ED0000A490A2014F8012F303A092A04D8B1FBE4
:105EE000F0F101FB0233F5E703EB830301330322F7
:105EF000B3FBF2F36B6000232B7238BD80969800E1
:105F000010B50346044653F81C2F42605A6882605D
:105F10001B7A0373034653F8282F02615A684261C3
:105F20001B7A037601F07AFF0123606363702370AC
:105F300010BD000000000000D0B5002304464370EF
:105F4000806804F0F9FC0EA3D3E9002304F094FE6A
:105F50000646A0880F4604F0FFFC0B460246394671
:105F6000304604F0ADFB237B1BB1024601F1004338
:105F700001E002460B4643EC102BD0BDAFF300808E
:105F80000000000065CDCD41D0B50023044643702C
:105F9000406904F0D1FC0EA3D3E9002304F06CFEA9
:105FA0000646208A0F4604F0D7FC0B4602463946C7
:105FB000304604F085FB237E1BB1024601F100430D
:105FC00001E002460B4643EC102BD0BDAFF300803E
:105FD0000000000065CDCD4110B5836843600446E4
:105FE00001F01CFF0123E0606370237010BD10B549
:105FF00083684360044601F011FF0123E060637091
:10600000237010BD10B504460846FFF725FFA060B9
:1060100010BD10B50446084605F08CF8A06010BD10
:1060200010B5C3688360044601F0F8FE0123606088
:106030006370237010BD10B504460846FFF70CFFCF
:10604000E06010BD10B5C3688360044601F0E6FE51
:10605000012360606370237010BD10B504460846CC
:1060600005F068F8E06010BD10B501460446103038
:1060700005F0C2FC01F0D2FE0123206284F8253035
:1060800084F8243010BD102206F00BBAF8B590F851
:1060900071510446002D00F08B8090F87211FFF7CB
:1060A000CBFE94F8731102462046FFF7C5FE94F824
:1060B000703100EB0210C0B2834272D1D4F89C312F
:1060C0000133C4F89C3194F8843123B1D4F894316D
:1060D0000133C4F8943194F88131FBB1012B4DD1D7
:1060E00004F1F000FFF778FF04F58070FFF77FFF01
:1060F00094F8843104F1B8064BB13046FFF700FF45
:1061000004F58870FFF78CFF04F5907027E084F8A1
:10611000B83084F8103184F8203122E004F5807022
:10612000FFF765FF94F8843104F1B8065BB130469F
:10613000FFF7E6FE04F59870FFF772FF04F5A07014
:10614000FFF76EFF05E084F8B83084F8303184F84A
:10615000403104F5A870FFF775FF04F5B070FFF744
:106160005FFF0021084601F0F1FD3146B8222046CC
:1061700005F094F90021012001F0E8FDD4F88C61CC
:10618000002E00F0D980D4F88C31B06A996A05F0FD
:1061900029FC002840F0D0803046FFF765FF366BC1
:1061A000EEE7D4F898310133C4F898310025C3E004
:1061B00090F8822172BB00F5B9766049304605F04F
:1061C00011FC20B15E49304605F00CFC08B90123F2
:1061D0000CE05C49304605F005FC20B15A493046D8
:1061E00005F000FC08B9002300E0022384F88131A7
:1061F000D4F88831C4F88C31D4F88C71002F00F0B9
:106200009B803146B86A05F0EDFB002880F2908053
:106210003B6BEFE790F88111022971D090F8723151
:10622000002B6DD042EA4112013A282A68D8DFE8F3
:1062300002F01521242B324950575C67616767676C
:1062400067676767676767676767676767676767DE
:106250006767151C21242B32393E430000F5B971C4
:1062600000F58070FFF7CEFE4AE0A3F14100434203
:1062700043412BE000F1D40108E0A3F153014B426C
:106280004B4180F8DC303BE000F1E00104F5B970EF
:10629000FFF706FE34E0A3F157025342534180F862
:1062A000E8302DE000F5B97100F5887026E000F5C2
:1062B000B97100F5907021E000F5B971F030FFF789
:1062C000A8FE1DE0302B94BF0023012384F8843105
:1062D00016E000F5B97100F5A870FFF7BEFE0FE0FB
:1062E00000F5B97100F5B07008E000F5B97100F57E
:1062F000987003E000F5B97100F5A070FFF79BFE00
:10630000D4F88C6104F5B977B6B1D4F88C31B06AA1
:10631000996A05F067FB78B9F26A94F882319A427B
:106320000ADC03D139463046FFF7ADFE366BEBE7AA
:1063300002D00023C4F88C312846F8BD14D20D00D9
:106340001AD20D0020D20D0026D20D0038B5D0F89B
:106350009031242903F1010304460D46C0F8903121
:106360002AD090F8833104D80A290CD00D2932D1D3
:1063700009E02A2907D02C292DD190F8702182F02C
:106380002C0280F870210E2B4FF0000005D823441A
:1063900083F872012046FFF779FE94F882310133C9
:1063A00084F88231002384F88331A5F12A035D4209
:1063B0005D4184F8715138BD0020022384F88301C7
:1063C00084F8820184F8700184F8813184F87101C5
:1063D00084F8840138BD0D2B9FBF5A1C1B1984F80B
:1063E000832183F8725194F8710128B994F87011DF
:1063F0004D4084F8705138BD002038BD01F046BDD5
:1064000013B50B46044603C88DE8030093E8030068
:1064100084E803009DE8030083E8030002B010BD98
:1064200008B5044B01221A7001F030FD024B034AFB
:106430001A6008BD2CE2032028E20320A5D50D0038
:1064400001F024BD70B5044600236360A360E360DF
:106450002361636123766376A2760E200E46FDF7F4
:106460001CFE054610B1314600F0C4FF25602046F1
:1064700070BD38B500F110050C460068294601F0E2
:10648000ADF8031E1DBF2B6823606B68236063603B
:1064900014BF0120002038BD10B50E21044600684D
:1064A00003F0A1FF204610BD006801F08BB800008A
:1064B000F8B5837E04460D4616461BB90B78002BB3
:1064C00000F0A680206800F09FFFA37E23B11EB9D4
:1064D000206801F073F803E02946206801F05CF8B9
:1064E00000224421206801F024F840F2EE2001F05F
:1064F000D5FF206800F088FFA37E23B11EB9206875
:1065000001F05CF803E02946206801F045F800221C
:10651000BE21206801F00DF82B78262B04D1002233
:106520001146206801F005F8E61C04F10C0720680C
:1065300001F022F806F8010FBE42F8D10821201D13
:1065400001F0C7F8237B20769842637660D12B78E0
:10655000222B19D014D8102B5AD1E27AA388102AF2
:1065600008BFA27A4FEAC30302BF23F00F03C2F1B0
:106570000C029B181BB200EE103ABAEECE0AF8BD20
:10658000262B1FD0282B43D1227A237902F06002D8
:10659000202A05D0402A06D042B923F0070304E0A0
:1065A00023F0030301E023F00103237123796079D1
:1065B00043EA002000B204F0CFF90022164B04F0A9
:1065C00031FA20E0A579284604F0C6F9064660793C
:1065D000C01007EE900AF8EEE77A0F4617EE900A21
:1065E00004F0CCF900220D4B04F01CFA0B462906EE
:1065F00002464CBF0A490B49002004F013FA324608
:106600003B4604F05DF804F005FD00EE100AF8BD0D
:106610009FED050AF8BD00BF0000B03F0000A03F9D
:106620000000F0BF0000F03F0000C07F000000004D
:1066300008B510EE100A04F0A1F908A3D3E900236D
:1066400004F0F0F90022044B04F03AF804F0E2FC04
:1066500000EE100A08BD00BF00004040CDCCCCCCFD
:10666000CCCCFC3F027E407E131A58425841704702
:1066700001F00CBC704710B52821044603F0B3FEAE
:10668000204610BD10B5044600F11801C06803F0A3
:1066900099F8208A0021BDE8104003F0F2BD10B542
:1066A00004460121008A03F0ECFDE068BDE81040DB
:1066B00003F06FB8F8B51E4603685B690F461446D1
:1066C00005469847012E88BF47F0400747F08001F4
:1066D000E86803F0E7F82644B44206D00021E868F1
:1066E00003F0E0F804F8010BF6E72B6828469B69F5
:1066F00098470120F8BDF8B51E4603685B690F4650
:10670000144605469847012E88BF47F04007394692
:10671000E86803F0C7F82644B44205D014F8011B1A
:10672000E86803F0BFF8F7E72B6828469B699847AD
:106730000120F8BD024A02600022416002727047E7
:10674000DCD50D0013B5036801AADC680123A0475E
:106750009DF8040002B010BD38B505460A240F218B
:106760002846FFF7EFFF33284FF0010005D001F076
:1067700095FE013CF3D1204638BD38BD10B5044626
:10678000018AC06802F0F4FF2046BDE81040FFF720
:10679000E3BF01F07BBB704710B51021044603F046
:1067A00022FE204610BD0368C9B29B68184700004E
:1067B00030B5034D056041608260C36030BD00BFED
:1067C00074D60D00406802F061BB10B50446006845
:1067D00002F0A8FB204610BD2DE9F0418AB0074623
:1067E0004068019002F095FB1E22002102A8BE68BD
:1067F00004F07AFE0025DEB13B681E2EB04628BFAD
:106800004FF01E08DC6802AA434629463846A047D6
:10681000044648B92A460A490A48FDF748FD01A836
:10682000FFF7D3FF204607E0C8EB06064544E2E742
:1068300001A8FFF7CAFF01200AB0BDE8F08100BF40
:10684000F0D50D007CE203202DE9F34704464068B3
:1068500001900E461746984602F05BFBB8F1000F18
:1068600001D101243FE0E168606841F0500102F08D
:1068700045FB310A6068FFF796FF31466068FFF715
:1068800092FF0021606802F03CFB08B100242AE07E
:10689000E1686068B8F1200FC14641F0500128BF9F
:1068A0004FF0200901234A46C9B202F011FB03F060
:1068B00049FD03681B6998474845E7DB3D46C7EB40
:1068C000060A03F03FFD03685B69984705F8010B72
:1068D000EA1BC5EB0803914505EB0A063B44F0D8DB
:1068E00098462F46BAE701A8FFF76FFF204602B08F
:1068F000BDE8F0872DE9F3470446406801900D4656
:1069000090461F4602F005FB4FB3E168606841F016
:10691000500102F0F3FA290A6068FFF744FF2946A4
:106920006068FFF740FF08F11E094646C8EB050AFC
:10693000606816F8011B03689B689847B14506EB31
:106940000A05B04607F1FF3701D0002FF0D1012131
:10695000606802F0D6FA0028D6D0002400E00124B6
:1069600001A8FFF732FF204602B0BDE8F0872DE90D
:10697000F0438BB00E4615468046406801901C4699
:1069800002F0C7FAAE4223D2264425440CB90124B2
:106990003FE01E2C2746D8F8003028BF1E27F61BE4
:1069A000D3F8089002AA3B4631464046ED1BC84743
:1069B00008B900242DE0D8F8003002AAD3F80C90D2
:1069C00029463B464046C8470028F2D0E41BDDE795
:1069D000DDD9002CDBD01E2CD8F80030274628BF8C
:1069E0001E27D3F8089002AA3B4631464046C847C6
:1069F0000028DED0D8F8003002AAD3F80C9029463F
:106A00003B464046C8470028D3D03E443D44E41BA3
:106A1000DFE701A8FFF7D9FE20460BB0BDE8F08301
:106A200001F034BA40207047002070478020704742
:106A3000FF207047704770477047704710B51421AA
:106A4000044603F0D0FC204610BD10B508210446D2
:106A500003F0C9FC204610BD10B50821044603F020
:106A6000C2FC204610BD10B51C21044603F0BBFC3F
:106A7000204610BD2DE9FF410368DB6805469847B5
:106A800010220146684604F02FFD2B6828469B68BB
:106A90009847002407462046BC420ED23E1B102ECB
:106AA0002B6828BF1026D3F818806A463346214643
:106AB0002846C04708B13444EEE704B0BDE8F08191
:106AC000002301228372C272027342738373C37301
:106AD0000374437470470000012208B5427102221A
:106AE00082710322064BC2710422036002720023EA
:106AF0000722037142724374FFF7E2FF08BD00BF33
:106B0000D4D70D0003090A2200F00F0002FB030096
:106B1000704708B5807AFFF7F5FF00F5FA6008BD09
:106B2000C07A00F01F00FFF7EDBF007B00F03F00D0
:106B3000FFF7E8BF08B5817B4A060DD501F01F00BD
:106B4000FFF7E0FF8B0603D50C280BD00C3008BDF7
:106B50000C2808BF002008BD01F03F00BDE8084038
:106B6000FFF7D0BF08BDC07B00F07F00FFF7CABFB2
:106B7000007C00F07F00FFF7C5BF10B58AB024226B
:106B80000021044601A804F0AFFC2046FFF7C1FF36
:106B9000A0F26C7006902046FFF7C2FF0138059006
:106BA0002046FFF7C2FF04902046FFF7C3FF039083
:106BB0002046FFF7D8FF02902046FFF7D9FF01904B
:106BC00001A804F075FD0AB010BD0A2290FBF2F393
:106BD00093FBF2F102FB113102FB130343EA0110B4
:106BE000C0B27047642310B5044691FBF3F000FB7C
:106BF0001310FFF7EAFFA07210BD10B50446084657
:106C0000FFF7E3FFE07210BD10B504460846FFF73A
:106C1000DCFF237B23F03F031843207310BD10B526
:106C20000446481CFFF7D1FF637B23F0070318439A
:106C3000607310BD10B504460846FFF7C6FFA07389
:106C400010BD10B504460846FFF7BFFFE07310BD46
:106C500010B504460846FFF7B8FF237C23F07F03F6
:106C60001843207410BD37B5044602A840F8041D2F
:106C700004F072FA054641692046FFF7B3FF29691F
:106C800020460131FFF7B9FFE9682046FFF7BCFF56
:106C9000A9692046FFF7C3FFA9682046FFF7CAFF8E
:106CA00069682046FFF7CDFF29683B29A8BF3B2133
:106CB0002046FFF7CDFF03B030BD10B50446FFF707
:106CC000D2FF637A637410BD084A02600022027228
:106CD00042720122827203460322C272044A416058
:106CE0001861C260034A986142617047E4D70D00A1
:106CF000B4D60D0090D60D002DE9F84F05460F468D
:106D000091469A4600240A9B9C4230D239466868D4
:106D100002F0F0F809EB04016868FFF744FD002178
:106D2000686802F0EEF80646D8B90A9B68681A1B34
:106D3000202A4FF0010328BF2022394602F0C8F86C
:106D40000AEB040883464646C8EB06039B4506D972
:106D5000686803685B69984706F8010BF4E75C44D0
:106D6000D1E7024604490548FDF7A1FA00E00026F4
:106D70003046BDE8F88F00BF2ED70D0030E203206B
:106D80001FB5012300930A4603AB6F21FFF7B4FF41
:106D900010B99DF80C0000E0002005B05DF804FB80
:106DA00008B50321FFF7ECFFC0F3401008BD7FB525
:106DB0001E46002B0CBF072306230093144602AB8C
:106DC0000A466F21FFF798FF0546D8B99DF80830AD
:106DD00023749DF80930E3739DF80A30A3739DF87E
:106DE0000B3063739DF80C3023739DF80D30E37204
:106DF0001EB99DF80E30A37204E003F03DF8FFF7D2
:106E0000E4FEA072284604B070BD38B500230C46DD
:106E10000A4619460546FFF7CAFF28B9A37A1BB1EF
:106E20002846FFF7BDFF00B9002038BD10B586B079
:106E3000044601A8FFF750FE01A92046FFF7E5FF31
:106E400010B101A8FFF799FE06B010BD30B5044699
:106E500085B0406802F01AF802F0BAFFC0B9E37AD0
:106E60009B0715D52046FFF7E1FF054680B102F0EC
:106E7000EFFE094B09491B682A46684602F076FF77
:106E80000748009A0749FDF712FA684602F013FD19
:106E90000123237205B030BDD0DD0320ACE4032014
:106EA00030E2032048D70D002DE9F34101EB030840
:106EB0001E4603689B6804460D4617469847804562
:106EC0000AD800963B46EAB257216068FFF714FFE4
:106ED000B0FA80F0400900E0002002B0BDE8F08187
:106EE0002DE9F34101EB03081E4603689B68054644
:106EF0000C461746984780450CD804F120020096AE
:106F00003B46D2B26F216868FFF7F6FEB0FA80F018
:106F1000400900E0002002B0BDE8F0812DE9F84F03
:106F20000746894692469B4600240A9B9C4228D2EB
:106F30004946786801F0DEFF0AEB04017868FFF744
:106F400032FC0A9B1E1B1F2E0BEB040828BF1F26BA
:106F50004546786815F8011B026892689047C8EBAF
:106F60000502B242F5D30121786801F0CAFF054657
:106F700028B1024605490648FDF799F902E0344474
:106F8000D3E700252846BDE8F88F00BF5DD70D0088
:106F900030E203201FB5137C8DF80830D37B8DF8C9
:106FA0000930937B8DF80A30537B8DF80B30137BBF
:106FB0008DF80C30D37A8DF80D30937A8DF80E3031
:106FC000072300930A4602AB6F21FFF7A7FF05B026
:106FD0005DF804FB10B586B0044601A8FFF77CFD00
:106FE00001A8FFF740FE9DF81430A27A63F07F03FA
:106FF0008DF814309DF8113012B143F0080301E010
:1070000023F0080301AA002120468DF81130FFF774
:10701000C1FFB0FA80F0400906B010BD7FB506464A
:1070200002F0D6FE0446B8B102F0F3FE0546014672
:107030003046FFF7CFFF0C4B0C491B682A4604462D
:10704000684602F093FE009A09490A48FDF72FF9B5
:10705000684602F030FC03E007490648FDF727F9CF
:10706000204604B070BD00BFD0DD0320ACE4032097
:1070700078D70D0030E203208ED70D0037B5457A62
:1070800004468DB902F0A4FE70B102A8294640F86A
:10709000045D01F053F938B1E37ADB0702D52046ED
:1070A000FFF7BCFF0123637203B030BD1FB504AB13
:1070B00003F8042D012200920A466F21FFF72EFFEC
:1070C00005B05DF804FBF8B5144605460E461F46AC
:1070D000FFF756FE204040EA070231462846BDE849
:1070E000F840FFF7E3BF13B11346FF2201E0D2439C
:1070F000D2B2FFF7E8BF012908B50CD800294FF03C
:1071000000030CBF102220220721FFF7ECFFB0FA8A
:1071100080F0400908BD002008BD00294FF00003A1
:107120004FF0080214BF14210D21FFF7DCBF2DE939
:10713000F34101EB03081E4603689B6805460C46B5
:107140001746984780450CD804F1200200963B462C
:10715000D2B26F216868FFF7E1FEB0FA80F0400913
:1071600000E0002002B0BDE8F081F0B5012B85B051
:1071700006460C4617461D4601D9002043E0FFF79E
:107180000FFE0028F9D029463046FFF7C6FF237CC2
:10719000227B8DF80830E37B8DF809308DF80C20C8
:1071A000A37BE27A8DF80A308DF80D20637B17B14E
:1071B00063F07F0301E003F07F038DF80B30637C05
:1071C0009DF80B201B0103F070031343002D8DF875
:1071D0000B304FF00603009308BF0A2202AB18BF22
:1071E00011226F213046FFF799FE044640B9002D69
:1071F0000CBF10232023FF2207213046FFF763FF37
:10720000B4FA84F0400905B0F0BDF0B5012B87B0A9
:1072100006460C4617461D4601D9002010E0FFF730
:1072200005FE0028F9D0011901A8FFF755FC01A8B7
:10723000FFF743FD2B463A4601A93046FFF795FF7D
:1072400007B0F0BD38B5054632245721686801F013
:1072500051FE0121686801F054FE08B1013CF4D1EF
:1072600038BD00002DE9F0410546D7181446C2EBA1
:107270000108BC421ED05721686801F03BFE08EBB4
:1072800004016868FFF78FFA686814F8011B036847
:107290009B6898470121686801F033FE064628B1D3
:1072A000024606490648FDF702F804E02846FFF7C3
:1072B000C9FFDEE700263046BDE8F081A3D70D0008
:1072C00030E203202DE9F04101EB03081E4603687C
:1072D0009B6804460D461746984780450AD83346B2
:1072E0003A46E9B26068FFF7BDFFB0FA80F04009A6
:1072F000BDE8F0810020BDE8F081000008B500F095
:10730000C5FD024B024A1A6008BD00BF30E20320EF
:10731000C4D70D0000F0BABD10B503682F2B04468A
:1073200004D9074A00210A2000F030FF23681F2BF0
:1073300083BF03F01F03236002484FF0A04010BD3D
:107340000D7E0D000003005007B50B4B1B680001BC
:1073500019181A5C4B7802A803F01F0343EA421382
:1073600040F8043DFFF7D8FF019A01239340C0F88D
:107370000C3503B05DF804FB34E2032007B50B4B7A
:107380001B68000119181A5C4B7802A803F01F0350
:1073900043EA421340F8043DFFF7BEFF019A012380
:1073A0009340C0F8083503B05DF804FB34E20320D5
:1073B00013B50F4B1B6800011A181C5C537802A808
:1073C00003F01F0343EA441440F8044DFFF7A4FF01
:1073D000D0F8103502A840F8084DFFF79DFFD0F80F
:1073E0001035009823FA00F000F0010002B010BD43
:1073F00034E2032038B504460D462846002102F049
:107400002FFF2580204638BD70B5054601F0BCFD34
:107410000021288800F042FD01F0B8FD7D24013CE8
:1074200014F0FF042DD0022000F0F0FC2888FFF7B4
:10743000BFFF0028F3D001F0A7FD2888FFF784FFE5
:107440000121288800F02AFD01F0A0FD4FF4F07022
:1074500000F0DCFC00F0FAFC00210646288800F071
:107460001DFD462000F0D2FC2888FFF7A1FFB0FAEE
:1074700080F4304600F0F2FC4FF4CD70640900F067
:10748000C5FC204670BD70B511F00106044615D04C
:1074900000F0DCFC05462088FFF756FF012120881C
:1074A00000F0FCFC012000F0B1FC0021208800F07D
:1074B000F5FC284600F0D2FC3B2014E000F0C6FCAE
:1074C00005462088FFF740FF0121208800F0E6FCF8
:1074D000412000F09BFC3146208800F0DFFC28466C
:1074E00000F0BCFC0520BDE8704000F08FBC38B552
:1074F000044600F0ABFC05462088FFF725FF01217C
:10750000208800F0CBFC012000F080FC00212088C6
:1075100000F0C4FC0D2000F079FC2088FFF748FF44
:107520000446284600F09AFC2E2000F06FFC20460E
:1075300038BD2DE9F0410546884617460826012446
:1075400018EA040F14BF012100212846FFF79BFF12
:107550006400013EE4B2F3D167B101F015FD288863
:10756000FFF70CFF2888012100F098FCBDE8F041EE
:1075700001F00CBDBDE8F081F8B5074608260025EE
:1075800001243846FFF7B3FF00B125436400013EF4
:10759000E4B2F6D12846F8BD70B500220C4655215C
:1075A0000646FFF7C6FF651E073415F8011F0022C7
:1075B0003046FFF7BEFFA542F7D170BD0022CC21B7
:1075C000FFF7B7BF002383720373C37200F10A028F
:1075D000023002F8013D8242FBD170472DE9F047AD
:1075E000057B04468846002D5ED1FFF70DFF20B9CC
:1075F000A0722073E072BDE8F0872A46F021204691
:10760000FFF797FF0126AA4637462046FFF76FFF90
:1076100081462046FFF76BFFB9F1010F02D1012827
:107620001BD137E0814504EB05031ED1A27A9742B6
:1076300007D29A78164214BF4FF001094FF00009A3
:1076400004E00CBF4FF001094FF00009B9F1000F41
:1076500003D1082F08D8E77206E062194FF001093C
:1076600093783343937004E0BA469A7822EA06028C
:107670009A70494620467600FFF705FF16F0FF0690
:1076800004BF0135EDB207F1010708BF0126072D40
:10769000FFB2BAD9402F07D984F80AA0BAF1000F77
:1076A00012D1012323730FE00020A0722073E07237
:1076B000631C08F1FF38093413F8012F08F8012F73
:1076C000A342F9D1BDE8F087A378002BECD00120CC
:1076D000EEE730B5054600200139C9B2FF2913D0C5
:1076E00015F8014B082280EA040313F0010F4FEA5A
:1076F00050001CBF80F08C03D8B2531E13F0FF0261
:107700004FEA5404EFD1E7E730BD000008B500F0C0
:10771000BDFB014B186008BD34E2032042680368DA
:10772000501012F0010F18BF0A58084418BFD35860
:107730001847012A034601D1016005E0022A03D15E
:1077400010B103C983E80300002070470123F7B597
:1077500080F829300546083000F000FB0420FCF7D3
:107760009CFC0446002835D01C49142002F046FE3B
:1077700030B100230374036043608360C3604374CB
:107780002060B0B1164B836023681649DD60206825
:107790004FF400638DE809000222134B043000F01F
:1077A000ADFA30B923681B7CA3B9012000F026FB99
:1077B000F8E726680023236066B1376837B138469A
:1077C000FEF7D8F81021384602F00DFE142130469D
:1077D00002F009FE6C6003B0F0BD00BFC8DB0D0015
:1077E000FF790D0014D80D00ED580D0047F230510F
:1077F000C1600A490A4A01610A490260C161002266
:1078000009494260426181610262426280F8282037
:1078100080F8292080F82A20704700BF597B0D008E
:10782000D8D80D001D770D0033770D0010B5044B2F
:10783000044640F8103BFEF79DF8204610BD00BFFF
:10784000D8D80D0010B5034B03600446FFF7EEFFD8
:10785000204610BDF4D70D0010B50446FFF7F2FF27
:107860002046382102F0BFFD204610BD806800F0A0
:107870007DBA806800F082BA10B504460068FFF750
:10788000F8FF204610BD13B504460190FFF7EEFF48
:10789000E36ADC88A4B20CB103F1080401A8FFF785
:1078A000EBFF204602B010BD13B504460190FFF770
:1078B000DDFF94F828301BB9E26A0124D38000E090
:1078C000002401A8FFF7D8FF204602B010BD37B54D
:1078D00002AC054644F8040DFFF7C8FFEB6A2046EA
:1078E000DD88FFF7C9FF284603B030BD2DE9F0471A
:1078F0009A4686B090F829309DF838909DF83C70F3
:1079000004468846164613B903689B689847314B6E
:107910004046002E08BF1E4604F0A6FD0546304630
:1079200004F0A2FD284400F10A05AB071CBF25F0B6
:1079300003050435334603950297CDF80490CDF83E
:1079400000A0424624492548FCF7B1FC238E083BA1
:107950009D420FD9002438E0CB88012B31D005A8F7
:10796000FFF78AFF236894F828109B692046984700
:107970000028EFD020460594FFF778FFE16A238EB8
:10798000626B0B449B1A9D42E6D847EA0907C2F88E
:1079900000A01771676B08374146384604F02CF891
:1079A000384604F061FD01303146384404F024F8D3
:1079B000606BE26A28446063D3880133D38001247A
:1079C00000E0002405A8FFF757FF204606B0BDE8F9
:1079D000F08700BF0ED50D0026D80D0038E2032039
:1079E00008B5044600F11005A3690BB902F017FDB4
:1079F000E36921462846984700F090F9F4E708B576
:107A0000FFF7EEFF38B501F108040546204604F003
:107A10002BFD01300444204604F026FDEB6A0130C2
:107A20002044C31A13F003031CBFC3F10403C0189E
:107A300038BD2DE9F341054688460190FFF716FF52
:107A4000EE6A06F10807F488B8F1000F07D0012CA0
:107A50001CD939462846FFF7D5FF074600E0B4B1E8
:107A600039462846FFF7CEFF2A8E3244121A0146C5
:107A7000A0EB070402D0384603F01BFD6B6B1B1B09
:107A80006B63F388013BF380012400E0002401A82C
:107A9000FFF7F2FE204602B0BDE8F0812DE9F04785
:107AA00004460D4690460026FFF7A0FE2F46154BD4
:107AB0002360E562A4F830806663134B57F8082B07
:107AC0009A42994614D1AB889BB2984510D105EBE8
:107AD000080A6763EB88B2B29BB29A420FD2616B1D
:107AE0002046FFF78FFF8245606306F10106F1D261
:107AF0000023C5F80090A5F80480EB80676320465A
:107B0000BDE8F087F4D70D0061AB9CD110B591E8CA
:107B10000C0086B004460292039302AB93E8030084
:107B20008DE8030094E80300A26883E803009DE861
:107B300003000492064AA260E2680592054AE260E8
:107B400084E803001846FDF715FF204606B010BD77
:107B500033770D001D770D0007B5054B009369467F
:107B6000002310300193FFF7D1FF03B05DF804FB51
:107B7000A17B0D0013B5044600F050F9636AC01AEA
:107B8000E368984208D3054B00936946002304F14B
:107B900010000193FFF7BAFF02B010BDA17B0D00EA
:107BA0002DE9F04190F82A3086B00446002B73D1BD
:107BB00000F094FB00286FD000F030F9636AC01A1F
:107BC00040F2F133984267D9236820465B699847B1
:107BD0000546002860D005F10806012384F8283006
:107BE000304604F041FC95F80480CDF80480013063
:107BF00037182B68009332463B4629492948FCF741
:107C000056FB2B688DF800803A46314602A800F0FA
:107C10003FFF029D6B781BB9012000F03FFCF8E7A5
:107C2000002000F0F5FA20B16B7813B900F03EFBAC
:107C3000FAE72B78012B09D11B491A48FCF737FBCF
:107C4000236800219B69204698470DE01749154895
:107C5000E268FCF72CFB164B049304A9002304F103
:107C600010000593FFF752FF002384F8283000F03E
:107C7000D5F86062039C7CB16368013B63605BB9CB
:107C8000236820469B689847A368013BA3601BB903
:107C900023682046DB68984706B0BDE8F08100BF46
:107CA00067D80D0038E2032088D80D009FD80D005A
:107CB000757B0D0008B500F0E9F8024B024A1A6026
:107CC00008BD00BF38E20320C6D80D00024B0122D8
:107CD0001A7000F0DBB800BF3CE2032008B5024B8D
:107CE0001B685B6C019308BD7402030008B5024B6E
:107CF0001B689B6C019308BD7402030008B5024B1E
:107D00001B685B68019308BD4802030008B5024B7D
:107D10001B689B68019308BD4802030008B5024B2D
:107D20001B68DB68019308BD4802030008B5024BDD
:107D30001B681B69019308BD4802030008B5024B8C
:107D40001B685B69019308BD4802030008B5024B3C
:107D50001B68DB69019308BD4802030008B5024BAC
:107D60001B681B6B019308BD4802030008B5024B5A
:107D70001B689B6B019308BD4802030008B5024BCA
:107D80001B681B6C019308BD4802030008B5024B39
:107D90001B685B6C019308BD4802030008B5024BE9
:107DA0001B689B6C019308BD4802030008B5024B99
:107DB0001B68DB6E019308BD4802030008B5024B47
:107DC0001B685B6E019308BD3402030008B5024BCB
:107DD0001B689B6E019308BD3402030008B5024B7B
:107DE0001B68DB6E019308BD3402030008B5024B2B
:107DF0001B685B68019308BD1802030008B5024BBD
:107E00001B689B68019308BD1802030008B5024B6C
:107E10001B68DB68019308BD1802030008B5024B1C
:107E20001B685B69019308BD1802030008B5024B8B
:107E30001B68DB69019308BD1802030008B5024BFB
:107E40001B681B6A019308BD1802030008B5024BAA
:107E50001B689B6B019308BD1802030008B5024B19
:107E60001B68DB6B019308BD1802030008B5024BC9
:107E70001B689B6D019308BD1802030008B5024BF7
:107E80001B68DB6D019308BD1802030008B5024BA7
:107E90001B681B68019308BD2C02030008B5024B48
:107EA0001B689B68019308BD2C02030008B5024BB8
:107EB0001B68DB68019308BD2C02030008B5024B68
:107EC0001B681B69019308BD2C02030008B5024B17
:107ED0001B685B69019308BD2C02030008B5024BC7
:107EE0001B689B69019308BD2C02030008B5024B77
:107EF0001B68DB69019308BD2C02030008B5024B27
:107F00001B681B6A019308BD2C02030008B5024BD5
:107F10001B685B6A019308BD2C02030008B5024B85
:107F20001B68DB68019308BD2802030008B5024BFB
:107F30001B689B69019308BD2802030008B5024B2A
:107F40001B68DB69019308BD2802030008B5024BDA
:107F50001B681B6A019308BD2802030008B5024B89
:107F60001B685B6A019308BD2802030008B5024B39
:107F70001B689B6A019308BD2802030008B5024BE9
:107F80001B68DB6A019308BD2802030008B5024B99
:107F90001B681B6B019308BD2802030008B5024B48
:107FA0001B685B6B019308BD2802030008B5024BF8
:107FB0001B681B6C019308BD2802030008B5024B27
:107FC0001B689B6C019308BD2802030008B5024B97
:107FD0001B68DB6C019308BD2802030008B5024B47
:107FE0001B681B6D019308BD2802030008B5024BF6
:107FF0001B685B69019308BD6402030008B5024B6E
:108000001B689B68019308BD6802030008B5024B1A
:108010001B68DB68019308BD6802030008B5024BCA
:108020001B681B68019308BD3002030008B5024BB2
:108030001B685B69019308BD3002030008B5024B61
:108040001B68DB69019308BD3002030008B5024BD1
:108050001B681B6A019308BD3002030008B5024B80
:108060001B685B6A019308BD3002030008B5024B30
:108070001B68DB6B019308BD3002030008B5024B9F
:108080001B681B6C019308BD3002030008B5024B4E
:108090001B685B6C019308BD3002030008B5024BFE
:1080A0001B681B68019308BD3C02030008B5024B26
:1080B0001B68DB68019308BD3C02030008B5024B56
:1080C0001B681B69019308BD3C02030008B5024B05
:1080D0001B685B69019308BD3C02030008B5024BB5
:1080E0001B689B69019308BD3C02030008B5024B65
:1080F0001B68DB69019308BD3C02030008B5024B15
:108100001B681B6A019308BD3C02030008B5024BC3
:108110001B689B6A019308BD3C02030008B5024B33
:108120001B681B68019308BD4C02030008B5024B95
:108130001B685B68019308BD4C02030008B5024B45
:108140001B681B69019308BD4C02030008B5024B74
:108150001B685B69019308BD4C02030008B5024B24
:108160001B689B69019308BD4C02030008B5024BD4
:108170001B68DB69019308BD4C02030008B5024B84
:108180001B681B6A019308BD4C02030008B5024B33
:108190001B685B6B019308BD6002030008B5024BCE
:1081A0001B685B6D019308BD6002030008B5034BBB
:1081B0001B68D3F89830019308BD000060020300EB
:1081C00008B5024B1B681B68019308BD2002030021
:1081D00008B5024B1B685B68019308BD20020300D1
:1081E00008B5024B1B685B69019308BD20020300C0
:1081F00008B5024B1B689B69019308BD2002030070
:1082000008B5024B1B68DB6A019308BD200203001E
:1082100008B5024B1B68DB6C019308BD200203000C
:1082200008B5024B1B685B6D019308BD200203007B
:1082300008B5024B1B689B6D019308BD200203002B
:1082400008B5024B1B68DB6D019308BD20020300DB
:1082500008B5034B1B68D3F88830019308BD0000B4
:108260002002030008B5034B1B68D3F89430019338
:1082700008BD00002002030008B5034B1B68D3F8BB
:10828000A830019308BD00002002030008B5024B8E
:108290001B681B68019308BD4402030008B5024B2C
:1082A0001B685B68019308BD4402030008B5024BDC
:1082B0001B689B68019308BD4402030008B5024B8C
:1082C0001B68DB68019308BD4402030008B5024B3C
:1082D0001B681B69019308BD4402030008B5024BEB
:1082E0001B685B69019308BD4402030008B5024B9B
:1082F0001B68DB69019308BD4402030008B5024B0B
:108300001B681B6A019308BD4402030008B5024BB9
:108310001B685B6A019308BD4402030008B5024B69
:108320001B68DB6A019308BD4402030008B5024BD9
:108330001B681B6B019308BD4402030008B5024B88
:108340001B685B6B019308BD4402030008B5024B38
:108350001B68DB6B019308BD4402030008B5024BA8
:108360001B685B68019308BD4002030008B5024B1F
:108370001B689B68019308BD4002030008B5024BCF
:108380001B68DB68019308BD4002030008B5024B7F
:108390001B681B69019308BD4002030008B5024B2E
:1083A0001B685B69019308BD4002030008B5024BDE
:1083B0001B689B69019308BD4002030008B5024B8E
:1083C0001B68DB69019308BD4002030008B5024B3E
:1083D0001B681B6A019308BD4002030008B5024BED
:1083E0001B681B6B019308BD4002030008B5024BDC
:1083F0001B685B6B019308BD4002030008B5024B8C
:108400001B681B68019308BD1C02030008B5024BE2
:108410001B685B68019308BD1C02030008B5024B92
:108420001B689B68019308BD1C02030008B5024B42
:108430001B681B69019308BD1C02030008B5024BB1
:108440001B689B69019308BD1C02030008B5024B21
:108450001B68DB69019308BD1C02030008B5024BD1
:108460001B681B6A019308BD1C02030008B5024B80
:108470001B685B6A019308BD1C02030008B5024B30
:108480001B68DB6A019308BD1C02030008B5024BA0
:108490001B681B6B019308BD1C0203000021FFF742
:1084A0009FBE10B5836804460BB901F0B8FFC368DE
:1084B0009847A3681BB103222146204698472046CF
:1084C0001021BDE8104001F08EBF10B504460068D1
:1084D00008B1FFF763FC204610BD10B503680446E1
:1084E0009B689847A368013BA3602BB9236820468B
:1084F000DB68BDE81040184710BD0B68036013B17E
:108500005A6801325A60704710B50446006828B1B5
:108510004368013B43600BB9FFF7DFFF204610BD06
:1085200010B5064C002320462360FFF72FFC2046A1
:10853000034A0449BDE8104001F050BF40E2032067
:1085400088DE0320CB840D00002211464068FFF72F
:108550001DBF002211464068FFF738BF00221146B8
:108560004068FFF743BF00224068FFF737BF002293
:1085700081F001014068FFF721BF00231A46194628
:108580004068FFF713BF00231A4619464068FFF7FB
:1085900005BF002211464068FFF7E8BE0022022115
:1085A0004068FFF7EBBE00231A464068FFF7D6BECF
:1085B000F0B51B4B036000250F462833182689B001
:1085C00043608560C560324629460446103002F09B
:1085D0008BFF2A4629467868FFF7D8FE08B9A060C5
:1085E0001BE02946324602A80095019502F07CFF67
:1085F00002A96846ADF80860FFF770FB10B10123CF
:10860000A3600AE0009B019AA360E2600BB9022319
:10861000A36002A9204600F089F8204609B0F0BD09
:1086200034D90D0038B5084C28252A4600212046AB
:1086300002F05AFF4FF0FF336360044B25800422A1
:108640005A60034A1A6038BD4CE2032044E203201A
:1086500000D90D007047007D70470000037D1BB1FD
:108660008369B3F1004F02D19FED050A704707EE11
:10867000903A9FED047AF8EEE77A87EE870A704722
:10868000000000000000C842037D1BB1036AB3F183
:10869000004F02D19FED050A704707EE903A9FED1B
:1086A000047AF8EEE77A87EE870A70470000000048
:1086B0000000C84210B52821044601F094FE20466F
:1086C00010BD0000037D7BB1436A002B0CDB07EE7D
:1086D000903ADFED076A9FED070AB8EEE77AC7EE3A
:1086E000267A27EE800A7047BFEE000A704700BF67
:1086F00000FF7F470000C842037D7BB1C369002BA8
:108700000CDB07EE903ADFED076A9FED070AB8EE43
:10871000E77AC7EE267A27EE800A7047BFEE000A96
:10872000704700BF00FF7F470000C84230B50D46CC
:1087300000F110040FCD0FC495E8030084E8030096
:10874000012030BD2DE9F04107460C4615462AB9F7
:108750000368C9B29B68BDE8F0411847002907DAF1
:108760000A2A05D12D2100F0A2FE6142064601E051
:1087700021460026EAB2384600F0B2FE3044BDE899
:10878000F08170B50D4606460A2281682846FFF73B
:10879000D9FF2C210446284600F089FE0A22044411
:1087A000F1682846FFF7CEFF204470BDA0F1040019
:1087B000FFF7E7BF70470020704710B5102104464F
:1087C00001F011FE204610BD08B508B1FFF7F5FF16
:1087D00008BD0022026010B54FF69C728280B1F98C
:1087E000044084808A8002680C6804600A6010BDBE
:1087F00010B504460068FFF709FE204610BD38B5E5
:10880000C468F4B12378022B03D104F10C00FFF704
:10881000EFFF656835B12846FDF7ACF81021284612
:1088200001F0E1FDA56835B12846FDF7A3F8102158
:10883000284601F0D8FD20461421BDE8384001F05B
:10884000D2BD38BD10B588B00446684601F07AF84C
:10885000694604A801F098F804A8A047044604A8B3
:1088600001F029F8684601F026F8204608B010BD4E
:10887000F0B5102485B007460E4615460021224665
:10888000684602F031FE002269461046ADF800400D
:10889000029703960195FFF701FD05B0F0BD13B5F2
:1088A000044691E8050000234B600B602060626085
:1088B00001A801930093FFF727FE204602B010BDE8
:1088C000F7B50C4602AD54F8043B45F8083D0646A2
:1088D0000F4601A82146FFF710FE29463046FFF754
:1088E000DEFF01A8FFF710FE2046FFF70DFE384619
:1088F000082101F078FD304603B0F0BD38B5002303
:108900000446036010200D46FBF7C7FB28B1012386
:1089100043608360024B0360C5602060204638BD21
:1089200068D90D00826810B50AB901F078FDC368F6
:10893000BDE81040184708B5006800F11001FFF7C6
:10894000F1FF08BD826810B50AB901F068FDC3687F
:10895000BDE81040184708B5006800F11001FFF7A6
:10896000F1FF08BD38B5002383608B6804460D46CF
:108970002BB102229847EB68E360AB68A360204606
:1089800038BD0000F0B589B004686846FFF721FFE4
:1089900000238DF808304FF00202D4E84F3F002B3F
:1089A00003D1C4E8412F0029F7D102D08DF8083057
:1089B00063E014F10C0503D069462846FFF709FF70
:1089C000BFF35F8F01236370002004F10803BFF33E
:1089D0005F8F53E8006F43E80002002AF9D1BFF32C
:1089E0005F8F002E49D0FFF713FC20B12946304697
:1089F000FFF798FF3AE0314602A8FFF7B3FFE068BF
:108A0000B4F9105008B102F0FFFF06901020ADF845
:108A10001C50FBF742FB0546E8B100278760182091
:108A2000FBF73BFB044688B10146876002A8FDF7CF
:108A3000E7FC049BA268A360059B049206A9E26878
:108A4000E36004F110000592FFF7C3FE0D4BEB60ED
:108A50000D4B2C60AB6006A8FFF7CAFE02A8FCF71E
:108A600089FF002229460948FFF7DAFB3046FCF768
:108A700081FF1021304601F0B6FC6846FFF7B8FED2
:108A800009B0F0BD37890D00AD8B0D00A3840D003A
:108A90002DE9F04F8BB006460F46904699469DF85B
:108AA00050A0FFF71BFC07AD834630BB4FF62E737B
:108AB000059005A92846ADF81830FFF78AFE142066
:108AC000FBF7EBFA044658B102230370012343700D
:108AD000C0F804B0C0F808B029460C30FFF779FEA2
:108AE0003046214640F8044BFFF708FF2846FFF7C1
:108AF0007FFE05A8FFF77CFE52E000240C23142023
:108B00006C60AC600793FBF7C8FA014618B10470BB
:108B100044704460846004A80391FFF7EFFE224B89
:108B200008930820FBF7B9FA044628B1039B40F8E4
:108B3000043B04A9FFF7E1FC00955FFA8AF34A467B
:108B4000414638460994FFF7D9FB20B9039B5B786F
:108B500003F0FF0283B1039B059304A906A8FFF766
:108B6000CCFC05A93046FFF79AFE06A8FFF7CCFC1F
:108B700004A8FFF7C9FC13E04FF69C7305A903A8EE
:108B80000592ADF81830FFF7FDFE05A8FFF730FE9F
:108B900005A80999FFF794FE06A8FFF7B5FCDAE7E8
:108BA00030460BB0BDE8F08F1D8D0D00022AF8B5E0
:108BB000044606D0032A17D0012A22D10B6803608D
:108BC0001FE018200E68FBF768FA054650B13146E1
:108BD000FFF7C8FE3069B6F9147008B102F014FF4F
:108BE0002861AF8225600CE0046854B104F11000E4
:108BF000FFF7FEFD2046FCF7BDFE1821204601F0E0
:108C0000F2FB0020F8BD38B5002383608B68044672
:108C10000D462BB102229847EB68E360AB68A36076
:108C2000204638BD022A70B5044606D0032A11D06A
:108C3000012A18D10B68036015E014200E68FBF7B9
:108C40002CFA054620B13146FFF7DDFF337C2B744B
:108C5000256008E0046834B12046FCF78BFE14213F
:108C6000204601F0C0FB002070BD0000F0B50023DD
:108C700087B00C46BFF35F8F50E8006F40E80032CA
:108C8000002AF9D1BFF35F8F002E3FD01846FFF7BF
:108C9000BFFA074620B121463046FFF753FE2EE0CB
:108CA000314601A8FFF7AFFF23788DF8143010206C
:108CB000FBF7F3F90546D0B187601420FBF7EDF917
:108CC000044678B18760014601A8FDF799FB039B34
:108CD000A268A360049B0392E268E3609DF81430ED
:108CE000049223740A4BEB600A4B2C60AB6001A822
:108CF000FCF740FE002229460748FFF791FA30466C
:108D0000FCF738FE1021304601F06DFB07B0F0BDD6
:108D100057890D00258C0D00A3840D0030B585B05A
:108D200004460D4668461146FFF7CAFD7CB124B2E1
:108D300028460DB102F068FE029002A96846ADF81F
:108D40000C40FFF71FFE02A8FFF752FD1DE0009840
:108D50008DF808404FF00102D0E84F3FA34203D105
:108D6000C0E8412F0029F7D102D08DF808300CE07F
:108D700010F10C014FF0010318BF0373BFF35F8FB5
:108D8000043000F8033CFFF771FF01A8FFF7BCFBBC
:108D900005B030BD002211464068FFF717BB002226
:108DA00011464068FFF722BB00224068FFF716BB60
:108DB000002281F001014068FFF700BB00231A4642
:108DC00019464068FFF7F2BA00231A461946406870
:108DD000FFF7E4BA002211464068FFF7D7BA002235
:108DE00011464068FFF7C2BA002202214068FFF72F
:108DF000C5BA00231A464068FFF7B0BA024B0322F7
:108E00005A60024A1A60704774E2032084D90D0048
:108E10007047F8B5064615460C468F18BC4206D07A
:108E2000336814F8011B9B6830469847F6E72846DC
:108E3000F8BD0022007CFFF789B80021007CFFF715
:108E40008DB80021007CFFF791B80021007CFFF76E
:108E500095B80021007CFFF799B810B5142104469D
:108E600001F0C1FA204610BD10B50446002363602E
:108E70004FF47A73A360044B2174084623601146B3
:108E8000FFF794F8204610BDB8D90D0000231A460C
:108E90001946007CFFF742B870B50C4686B0142521
:108EA00006462A46002101A802F01EFB23788DF811
:108EB000083063680393E36804930022237A307CCC
:108EC000ADF8045001A90593FFF788F806B070BD0E
:108ED0001FB500338DF800104FF06401039118BFE7
:108EE0000123694601928DF80830FFF7D5FF05B0E0
:108EF0005DF804FB0022007CFFF718B8C9B2FFF749
:108F0000F9BF0022007CFFF719B80021007CFFF7B1
:108F100045B808B50021007CFFF750F8B0FA80F0A2
:108F2000400908BD08B50021007CFFF74FF8B0FAF2
:108F300080F0400908BD0047F0B585B01C460E46DC
:108F400017460546FEF7D2FF002084424FF0040387
:108F500003908DF80C30A5BF9DF828308DF80E30A9
:108F6000034603AB009332463B460649A8BF8DF843
:108F70000D402846FEF7B2FFB0FA80F0400905B078
:108F8000F0BD00BF378F0D00FEF7C0BFFEF7B6BFC4
:108F9000704710B51821044601F025FA204610BD8F
:108FA000F0B5037D062B8DB00E4600F104074FF09F
:108FB000000402D000F1080518E00CAD394605F8B0
:108FC000304D2F232A460A20FFF710F8284603F0D9
:108FD0004BFA33680246DB682946304698470FE073
:108FE00024B12E21304600F062FA044415F8011D28
:108FF0000A22304600F074FABD420444F0D1204603
:109000000DB0F0BD10B5054B0446112240F8043BED
:10901000002102F069FA204610BD00BFE0D90D0022
:109020000346074A10B543F8042B01F1100251F82A
:10903000044B43F8044B9142F9D10A781A7010BDE1
:10904000E0D90D0010B59DF8084044EA032343EA37
:10905000024242EA016104234160037510BD37B545
:109060000D788B784A78C97800912946FFF7EAFF96
:1090700003B030BD014B024A1A6070477CE2032006
:109080005CDA0D00002211464068FFF79FB900220C
:1090900011464068FFF7AAB900224068FFF79EB961
:1090A000002281F001014068FFF788B900231A46C9
:1090B00001214068FFF77AB900231A461946406833
:1090C000FFF76CB9002211464068FFF75FB9002234
:1090D00011464068FFF74AB9002202214068FFF7B5
:1090E0004DB900231A464068FFF738B938B5054630
:1090F00088B104684CB1A3681BB103222146204605
:1091000098471021204601F06EF928461421BDE849
:10911000384001F068B938BD10B103685B68184782
:10912000704710B503680446BBB15868FEF7EEFD02
:1091300078B923685A7C12B95868FEF7F7FD23689E
:109140005868FEF7FBFD20680023236028B1FFF775
:10915000CDFF206808B1FFF7C9FF204610BD38B524
:109160000446D0F8C40108B1FAF79BFFD4F8C00157
:1091700008B1FEF713FED4F8BC5135B12846FFF70D
:10918000D0FF0421284601F02EF9206808B1FFF72E
:10919000C3FF204638BD000010B5044B044640F81C
:1091A000083BFFF7DCFF204610BD00BFC8DA0D000A
:1091B00038B50E4C0E4B23600025022304F5E470F5
:1091C0006360A560C4F8C451C4F8C851FEF7DEFD61
:1091D000084BC4F8CC5184F8D05123602046064A8D
:1091E0000649BDE8384001F0F9B800BF80E203202D
:1091F000FCDA0D00C8DA0D0088DE032099910D001D
:1092000000231A464068FFF7A9B8002202214068EF
:10921000FFF7B4B8002211464068FFF7A7B8002254
:1092200011464068FFF7B2B800231A461946406855
:10923000FFF7B4B800231A4619464068FFF7B6B8DE
:10924000002281F001014068FFF7B8B800224068B1
:10925000FFF7C4B8002211464068FFF7C7B80022E4
:1092600011464068FFF7B2B82DE9F043002495B0ED
:1092700016460D460746FFF7C5FE214620220CA8DC
:10928000009402F031F940230C9321466B460CAA5E
:109290003046FEF7BBFE0446002844D102460121B9
:1092A0006868FFF773F80221804622466868FFF776
:1092B0006DF8009E81462146002E34D0002932D11F
:1092C0007368022B02D00A2B09D02AE0B8F1000FF4
:1092D00027D0716938460431FFF7C1FE20E0B9F1AB
:1092E000000F1ED07469112201A802F0FDF80623B8
:1092F0008DF8143001AD04F108031834186859686A
:109300002A4603C20833A3421546F7D101A906A88D
:1093100007ADFFF785FE0FCD3C1D0FC42B682370F2
:109320000121F669C8E70098FEF768FE384615B0D7
:10933000BDE8F083024B034A1A6000225A6070476E
:1093400054E40320FCDA0D0008B501F021F8BDE873
:109350000840FFF7DEBD10B50446017009B1FFF704
:10936000F3FF204610BD08B501F012F8BDE8084033
:10937000FFF7D8BD10B5037804460BB1FFF7F3FF34
:10938000204610BD10B504460068FFF7ECFF2046EC
:1093900010BD37B502AC0D4644F8040DFFF7D4FFFD
:1093A00000F0F6FF6B21FFF7A9FD00F0F1FF036865
:1093B00029469B68984700F0EBFF0121FFF7A1FDCC
:1093C00000F0E6FF01231A466B21FFF781FD00F054
:1093D000DFFF03685B69984705462046FFF7D2FF29
:1093E000E8B203B030BD73B502AC15460E4644F882
:1093F000040DFFF7A9FF00F0CBFF6B21FFF77EFD07
:1094000000F0C6FF036831469B68984700F0C0FF34
:10941000036829469B68984700F0BAFF0121FFF7CF
:1094200070FD2046FFF7AEFF02B070BD37B502AC4D
:10943000054644F8040DFFF787FF00212846FFF793
:10944000A8FF002100F07F022846FFF7CCFF20464E
:10945000FFF798FF012003B030BDF8B506460D4672
:109460008F180024BD420CD0336815F8011B9B688F
:1094700030469847002801DB0444F3E7002C08BF7E
:1094800004462046F8BD70B505460C46084649B16D
:1094900002F0EAFF2B68024621462846DB68BDE859
:1094A0007040184770BD08B5FFF7EDFF08BD0368B1
:1094B0009B68184738B50D210546FFF7F8FF0A21CC
:1094C00004462846FFF7F3FF204438BD38B505466B
:1094D000FFF7D9FF04462846FFF7ECFF204438BDCC
:1094E00030B58BB00B4600218DF82410012A98BFAF
:1094F0000A220DF12304B3FBF2F505FB123303F04E
:10950000FF03092B94BF30333733DBB2214604F815
:1095100001392B46002DEED1FFF7B5FF0BB030BD62
:109520002DE9F04757EC106B82460D4610EE102ADD
:109530003B4610EE100A394601F00EFD08B14E49C7
:1095400012E027F000494FF0FF324C4B30464946BD
:1095500001F002FD68B94FF0FF32484B30464946F2
:1095600001F0DCFC28B946495046FFF78CFFBDE806
:10957000F0874FF06042434B3046394601F0E2FC41
:1095800008B14149F0E74FF06042404B3046394660
:1095900001F0BAFC0028F4D10022002330463946FD
:1095A00001F0B2FC40B12D215046FFF780FF07F1DA
:1095B000004304461F4600E0044635494FF00008CA
:1095C00000205FFA88F39D4206D90022314B01F05A
:1095D00053FB08F10108F4E732463B4601F070F80E
:1095E0000F46064601F0F6FC0A2201468046504628
:1095F000FFF776FF0444E5B3404601F09DF90246CB
:109600000B463046394601F059F806460F4650469B
:109610002149FFF738FF044400221E4B30463946EB
:1096200001F000FA06460F4601F0ACFCB0F100096B
:1096300007DA2D215046FFF73AFFC9F100018046B5
:1096400002E049464FF000080A225046FFF748FF63
:1096500040440444484601F07FF902460B46304638
:10966000394601F02BF8013D15F0FF0506460F467F
:10967000D2D12046BDE8F08728DB0D00FFFFEF7F49
:1096800032DB0D00FFFFEF412CDB0D00FFFFEFC1D0
:109690000000E03F0000244030DB0D0038B5C9B2C7
:1096A0000546FFF73DFF04462846FFF703FF204429
:1096B00038BD0CB42DE9F04387B000AF07F1380492
:1096C000054654F8049B3C600E4623464A46142146
:1096D000381DFEF7CBFE132805D8391D2846FFF7A5
:1096E000D2FE044613E000F1080323F00703E84626
:1096F000ADEB030D411C23464A4668463C60FEF72D
:10970000B5FE69462846FFF7BEFE0446C5461EB1B3
:109710002846FFF7CFFE044420461C37BD46BDE86F
:10972000F04302B0704710B50446FCF723F9204619
:1097300010BD00000348044A04490023836000F080
:109740004DBE00BF5CE4032088DE032027970D0098
:109750000021FEF793BC0021FEF798BC10B504462B
:1097600001700846FEF76AFC00236360204610BDC6
:1097700038B5044600780D46FFF7EAFF40B9207877
:109780002946FEF74BFC2078BDE83840FFF7E3BFE1
:1097900038BD0078FFF7DFBF400830B518600024FF
:1097A00018688842E5B206D90134082C02D0400876
:1097B0001860F5E70725024B5B5D137030BD00BFF5
:1097C00036DB0D002DE9F04307468FB000780E46DA
:1097D000FFF7BEFF002862DB3C781422002109A8B5
:1097E00001F082FE0B232046002209A9ADF82430A7
:1097F000FEF734FC9DF82D4054B19DF82C5035B93E
:10980000DDF830809DF834909DF8354003E0002469
:10981000A146A0460125337905B1BBB99D420BD1C4
:10982000B268424508D18DF820908DF82140BDF8EE
:109830002010B289914209D053B1002438780194A4
:109840000094234622460121FEF710FC002026E06A
:109850008DF80F30B1680A9804AB0DF10F02FFF7D5
:109860009BFF317905B1B1B9A94208D000243878FD
:109870000194747B337B9DF80F200094E4E7B36878
:109880004345F3D38DF820908DF82140BDF820207A
:10989000B3899A42EAD1049B4345E7D1D6E70FB09A
:1098A000BDE8F08308B50078FEF7C0FBC0B208BD84
:1098B0000078FEF7CBBB10B504460068FEF7A6FDA6
:1098C000204610BD10B50446006808B1FEF79EFDA5
:1098D00000232360A360636010BD38B504460D46C5
:1098E00000680131FEF79AFD10B184E821000120E3
:1098F00038BD10B50368044613B143688B4207D2E4
:109900002046FFF7EAFF20B1A3680BB92268137065
:10991000012010BD70B50E46114604461546FFF7EE
:10992000E8FF18B92046FFF7CDFF09E02A46314687
:10993000A560206801F0B2FD2268A3680021D1541F
:10994000204670BD38B50023044603604360836041
:1099500003730D4639B1084602F086FD29460246DA
:109960002046FFF7D7FF204638BD884210B50B468A
:10997000044607D0096819B19A68FFF7CBFF01E0E8
:10998000FFF7A0FF204610BD10B50023044603607A
:10999000436083600373FFF7E8FF204610BD08B5FE
:1099A00082680B4612B919B9012008BD11B90368C4
:1099B000187802E0006802F015F8B0FA80F040096B
:1099C00008BD70B50E469AB191B185689D4202D826
:1099D00000230B7070BD541EED1A0168AC4228BF05
:1099E0002C4619442246304602F05BFD00233355D5
:1099F00070BD10B50446006818B1FEF707FD0023DE
:109A0000236010BD38B5B1F9043083800B460D4694
:109A100053F8062FC0F806209B8843810446FFF7C1
:109A2000E8FF2B6813B1236000232B60204638BD6C
:109A3000B1F9043010B50BB90A689AB10C685CB181
:109A4000A288012A03D0042A06D1022205E0A489B3
:109A50004C818A710B8105E004220B814FF6FF7364
:109A60008A714B8151F8063F03608B88838010BD5B
:109A7000014600228C20FEF7A9B90020FFF7F8BFAD
:109A800030B5044685B0084611461A460023FEF755
:109A9000AFFB0D4DADF80C00002301A90193ADF80B
:109AA00008308DF80A3028464FF6FF73ADF80E30B7
:109AB000FFF7A8FF01A8FFF79CFF20462946FFF704
:109AC000B7FF204605B030BD6CE4032010B5094C4B
:109AD00000204FF6FF732060A080A0712081638179
