:02000002D0002C
:1040000000400D004CE90D00000006000D00050108
:084010000401E70500000000B7
:0440180078CA0D0055
:1040200009480A49884208B505D0094A824202D0A7
:10403000121A07F04DF90748074A0021121A07F033
:104040006DF9014808BD00BF40DD0320BCE70D004D
:10405000A4DE0320A8DE0320F4E7032070B505F0FA
:10406000DFFF074C074BE41AA40800251E46A542B3
:1040700004D056F8253098470135F8E770BD00BFE9
:1040800098DF0D002CDF0D0001F0A6B908B500F097
:10409000A5FFBDE8084005F085BF04F091B904F024
:1040A00097B904F095B9000008B5034A00210C2027
:1040B00004F04EF8FEE700BFD17D0D000078B0FAA5
:1040C00080F040097047012303707047014B0122C3
:1040D0001A70704738DF032038B50446006928B1EC
:1040E00085680C2106F099F82846F8E7204638BD87
:1040F00010B503682F2B044604D9074A00210A2073
:1041000004F026F823681F2B83BF03F01F032360EE
:1041100002484FF0A04010BDD17D0D0000030050BB
:1041200008B5044905F095FB18B1034801F0FAFC05
:10413000012008BD2ECF0D00B8DE032008B50449CC
:1041400005F087FB18B1034B03221A70012008BD4C
:104150002ECF0D00FEDE032010B5034B0360044696
:1041600002F036FD204610BDB0CA0D0010B5044661
:10417000FFF7F2FF2046382106F04FF8204610BD29
:1041800010B5034B0360044601F0ACFC204610BDA3
:1041900094CA0D0010B50446FFF7F2FF2046102127
:1041A00006F03BF8204610BD10B50446006808B183
:1041B00004F00EF9204610BD08B504F071F820B1E6
:1041C0000020BDE8084004F08BB808BD08B5002009
:1041D00004F08EF828B104F063F880F00100C0B25A
:1041E00008BD012008BD10B500210446084603F0B3
:1041F0008FFDD4F8A0400021012003F089FDE0B23A
:1042000010BD30B500218FB00446084603F080FD94
:104210000FCC6D460FC50FCC0FC50FCC0FC594E862
:10422000030085E803000021012003F071FD6846CA
:1042300003F016FA51EC100B06F006FE00EE100A21
:104240000FB030BD30B500218FB00446084603F0F2
:104250005FFD0FCC6D460FC50FCC0FC50FCC0FC542
:1042600094E8030085E803000021012003F050FDDD
:10427000684603F01DFA51EC100B06F0E5FD00EE68
:10428000100A0FB030BD002003F0DABD08B52DEDE7
:10429000028BB0EE408A28B10138FFF7F7FF28EE15
:1042A000000A01E0B7EE000ABDEC028B08BD0EB4B7
:1042B00000B58CB00DAA202352F8041B03928DE8A0
:1042C000060004930168002304AA1E20059303F04E
:1042D00047FF0CB05DF804EB03B0704737B50468D6
:1042E0009DF818508DF800308DF80450E4683C2398
:1042F000A04703B030BD000010B50B7892B00C465B
:1043000023B9194902A807F091FA17E0084606F008
:1043100027FEC82804D0204606F022FEC92819D15D
:10432000124902A807F082FA05F0CDFC104BD861C3
:10433000104B01221A70104B00221A700F4B1049BB
:104340001B78104800228DF8002002AAFFF7C6FF54
:1043500012B010BD204606F003FE0B4A0346402172
:1043600002A804F055F8E9E714CB0D0029CB0D00A5
:104370004CE00320FDDE0320F0DF0320E4DE032019
:104380001CCB0D0010E003203BCB0D0013B50B49F7
:1043900005F05FFA002478B1094B0A4A1B780A49F4
:1043A0008DF800400948FFF799FF234601220A21B2
:1043B000074802F0D0F8012002B010BD2ECF0D004A
:1043C000E4DE032058CB0D00A2CD0D0010E0032049
:1043D000C8DE032037B51A49044605F03AFA054607
:1043E000A0B1184B01241C71174B1C7003F058FF2F
:1043F00008B9012022E0154B15491B781548002209
:104400008DF80020144AFFF769FFF2E713492046B0
:1044100005F01FFA90B10B4B1D710B4B01241C7062
:1044200003F03EFF0028E4D0084B0D4A1B780849F2
:104430008DF800500748FFF751FF204603B030BD0C
:104440002ECF0D004CE00320FDDE0320E4DE032030
:1044500093CB0D0010E0032070CB0D0081CB0D003D
:1044600083CB0D00000000002DE9F043CBB00446E3
:10447000FFF7A2FEFFF707FF0027064647F22F5877
:104480004FF00009FFF7FFFE801B61EB0701894534
:1044900008BF804505D3FFF799FE10B903F0E8FE89
:1044A000F0E7FFF793FE0A2205A9206807F0ACFFAA
:1044B00000F10C03DBB2182B49D845B207EE905A35
:1044C000274BB8EEE70A012483ED050A05F0D4FA7C
:1044D000244B1C7005F0C2FA064605F0F4FB301AB6
:1044E00006F054F91CA3D3E9002306F0DFFA1E4AB4
:1044F000CDE900010A211D4803F08AFF03F0D0FE38
:1045000018B31B4E1B4A2B464FF4807100250AA896
:1045100003F07EFF337818498DF800500AAA174837
:10452000FFF7DCFE05F0CFFB014606A805F0F4FA24
:10453000069B0393039A33780F498DF800500F4878
:10454000FFF7CCFE06A805F010F9204600E0002099
:104550004BB0BDE8F08300BF000000000020AC407D
:104560004CE00320FDDE032098CB0D00ACDE0320E1
:10457000E4DE0320A2CB0D00B6CB0D0010E003203B
:1045800030B5C5B00A2203A9006807F03DFFC3B2E9
:104590005A1E3B2A1ED8124A124D1348AB710124F1
:1045A00014700C21114A03F033FFAB79104A4FF419
:1045B000807104A803F02CFF03F072FE60B10D4B74
:1045C0000D491B780D4800228DF8002004AAFFF742
:1045D00085FE01E0002000E0204645B030BD00BF70
:1045E000FDDE03204CE00320D9DD0320D2CB0D00FB
:1045F000BBCB0D00E4DE03200CCE0D0010E0032049
:104600002DE9F04F234B244C9D68A2691B69D3B060
:10461000D4E90067D4E90289D4E904AB119310927C
:1046200005F051FB94ED0A7B8DED0E7B94ED087B3C
:10463000119B109A0893194B0A908DED0C7B0992EF
:1046400007930695CDE904ABCDE90289CDE9006772
:10465000134A4FF4807112A803F0DAFE114B12498D
:104660001B78124800228DF8002012AAFFF736FEB0
:104670000F4B01221A7003F0B3FB0E4B186005F0CC
:1046800029FB0D4B186005F02FFB0C4B186053B045
:10469000BDE8F08F4CE00320C0DF0320E6DE0320FE
:1046A000DDCB0D00E4DE03206DCC0D0010E0032017
:1046B000F0DF0320F8DE032004DF0320B8DF03204F
:1046C00038B52DED028B054600241B4800222946F3
:1046D00001F026F91848B0EE408A01F0FBF950B914
:1046E0000134042CF1D105F019FC144904F047FE03
:1046F0009FED0F8B15E0032CF5D0B0EE480A0E4865
:1047000001F0CEF910EE100A06F052F841EC180B49
:1047100005F004FCB0EE480AF0EE680A022104F04D
:1047200017FFB0EE480AF0EE680ABDEC028B38BD08
:10473000000000000000F87FF4DF032088CC0D00AB
:1047400030B5194D0FCD99B004AC0FC40FCD0FC4C7
:1047500095E8030084E8030014490EA803F00AFF5B
:104760000EA803F05AFF04460EA803F0A7FF0EA8F8
:1047700010EE105A03F088FF18AB10EE100A03EB8E
:10478000840406F015F8CDE90201284606F010F879
:10479000CDE90001064A54F8503C0648402103F098
:1047A00037FE19B030BD00BFD0CA0D0060E2032053
:1047B00098CC0D006CDF032037B5164D2A6892F8AF
:1047C000513092F8501002A803F01F0343EA41133E
:1047D00040F8083DFFF78CFC009B2A68012404FA8E
:1047E00003F3C0F8083592F8513092F8501002A83F
:1047F00003F01F0343EA411340F8043DFFF778FC40
:10480000019B9C40044BC0F80C4500221A7003B079
:1048100030BD00BF68DF032038DF032010B520243F
:1048200090B022460021684606F078FD224600211D
:104830000DEB04008DF8054006F070FD00210DEB36
:1048400004008DF8254003F0F9FC4FF46173ADF8D6
:104850000830ADF80A3041F21003ADF80C30009B7F
:1048600041F2700243F4007300216846ADF806205F
:10487000009303F0E3FC10B010BD00002DE9F843F5
:104880001D481E4D406800231A46194603F068FD76
:1048900003F0F6FC4FF4967440F2E7360027FFF77A
:1048A000F2FC4FF000098046FFF7EDFCB0EB08008A
:1048B00061EB09018F4208BF864205D303F0F0FC8B
:1048C00010B903F0D5FCEFE703F0EAFC58B103F0B0
:1048D000E7FC30B10A4A0123D3700A4A1370BDE8DD
:1048E000F883BDE8F88303F07BFA286003F0C0FC8E
:1048F000013CECD0D3E700BF60E203200CE60320CC
:104900004CE00320FDDE032008B503F0C9FC80F075
:104910000100C0B208BD0000F8B503F0B9FCFFF714
:10492000B2FC0025044643F697260027FFF7ABFCB0
:10493000001B61EB05018F4208BF864205D3FFF7DC
:10494000E3FF10B903F094FCF0E7FFF7DDFF09483F
:10495000002319461A46406803F00AFD064B002260
:10496000DA70064B01244FF4FA601C7003F078FDF6
:104970002046F8BD60E203204CE00320FDDE03206A
:1049800030B5134D134C14492A7820788DB00E237E
:1049900003FB0212009203FB0013104A282102A815
:1049A00003F036FD2B78237003F07AFC48B10C4BF2
:1049B0000C491B780C4800228DF8002002AAFFF752
:1049C0008DFC05F0ABFA02A904F0D9FC0DB030BDA6
:1049D000FEDE0320E5DE03204CDD0320B1CC0D001C
:1049E000E4DE0320BFCC0D0010E0032037B503F058
:1049F0004FFC03F0F5F943F69725044603F050FC0D
:104A000040B103F0EDF9001BA84203D8642003F085
:104A100027FDF3E70021094B47F23052084603F027
:104A200047F94FF47A7003F01BFD054B0A221B680F
:104A30000121684604F07EFF03B030BDD0CC0D00EC
:104A400054DF0320F7B5154B154A1B781549164856
:104A500000248DF80040FFF741FC144B1C71FFF758
:104A6000ABFBFFF710FC0025044647F22F5600274A
:104A7000FFF709FC001B61EB05018F4208BF86426E
:104A800005D3FFF7A3FB10B903F0F2FBF0E7FFF744
:104A90009DFB074B01221A7003B0F0BDE4DE03203A
:104AA000DDCC0D00E5CC0D0010E003204CE0032030
:104AB000FDDE032038B505F021F9054605F02FF994
:104AC000044605F025F9231F062B0ED9E31E082BFB
:104AD0000DD801382D1A01D50B2C02E0072D06DD6B
:104AE000032C14BF0020012038BD012038BD002058
:104AF00038BD00000000000070B52DED028BCAB07B
:104B0000044605F0E0F80A22064605A9206807F0E9
:104B10007BFCC3B2022B58D840B207EE900AB8EE25
:104B2000E78AB0EE480A04F0C3FF2D4B83ED068AF6
:104B30002C4B01221A7018EE100A05F039FE2A4A91
:104B4000CDE900014FF480710AA803F061FC05F083
:104B500099F838B1FFF7AEFF10B104F0C3FF01E0E0
:104B600004F0CAFF04F07AFF044605F0ACF8201AFE
:104B700005F00CFE18A3D3E9002305F097FF1B4AAC
:104B8000CDE900010A211A4803F042FC03F088FB3A
:104B9000E8B1184D18492B78184800240AAA8DF856
:104BA0000040FFF79BFB314606A804F0B5FF069BCB
:104BB00003938DF800402B78039A0F490F48FFF7B5
:104BC0008DFB06A804F0D1FD01E0002000E00120EB
:104BD0004AB0BDEC028B70BD000000000020AC406C
:104BE0004CE00320FDDE0320F3CC0D0098CB0D003C
:104BF000ACDE0320E4DE0320B6CB0D0010E0032082
:104C00002DE9F041694CACB003F0EAF82368C01A12
:104C100041F28733984240F2C68003F0E1F8206009
:104C2000634C00216568084603F072F895F800802F
:104C30006E6B604D0021012003F06AF82746B8F141
:104C4000000F70D003F0CCF842F20F73801B984233
:104C500069D86068584EFFF7D4FA10EE100A05F0D4
:104C6000A7FDC6E908016068FFF7ECFA10EE100A2C
:104C700005F09EFDC6E90A016068FFF7C2FA6068A8
:104C800010EE106AFFF7DEFA002167688DED090A61
:104C9000084603F03DF800210120D7F8807003F0AA
:104CA00037F86068FFF79FFA8046204602F018FB4D
:104CB00000210446084603F02BF800210120D4F817
:104CC000B04003F025F838460794CDF8188005F079
:104CD0005DFD3A4B002205F0E9FE06F0B5F805F05F
:104CE00067FD9DED090ACDE9040110EE100A05F0FB
:104CF0005FFDCDE90201304605F05AFD304ACDE9AD
:104D0000000180210CA803F083FB2B78EBB100237A
:104D10002B7003F065F82B4B2B491A68821A2B482D
:104D2000FFF7C5FA11E07868FFF75DFA284A0346F5
:104D300080210CA803F06CFB2B7833B91D4B0122AA
:104D40001A7003F04DF81F4B18600CA91F48FFF7AD
:104D5000AEFA03F0A5FA30B31E4C03F041F8236815
:104D6000C01A1D4B98421ED903F03AF81B4B206025
:104D70001B788DF800300CAA3C2319490AA803F0CF
:104D800069FE0B9C7CB16368013B63605BB923687F
:104D900020469B689847A368013BA3601BB9236822
:104DA0002046DB6898472CB0BDE8F08100DF032087
:104DB00008DF032064DF0320C0DF03200000594028
:104DC00004CD0D00ACDF032035CD0D0098E20320AB
:104DD00055CD0D0048E00320BFD40100E4DE0320E0
:104DE0006FCD0D0030B585B00D4604A9002241F805
:104DF000102D03F0BDF9A8B9009C0CB1236923B9AB
:104E0000094A00210A2003F0A3F9002301930C238F
:104E1000ADF80430042303930295236901AA01210C
:104E20002046984705B030BDD17D0D0007B507205D
:104E300001A9FFF7D7FF0028A8BF019803B05DF8CC
:104E400004FB0000F0B589B001A90320FFF7CAFFF9
:104E500088B90620B0EE000AFFF718FABDF8043052
:104E600030EE000A07EE103A30EE000AB8EE477A4C
:104E7000C7EE007A01E0FFEE007A234D234F244E67
:104E80000FCD01AC0FC495E80700FDEEE77A84E88A
:104E90000700C7ED027AFFF7C9FF08AB03EB8000FC
:104EA0001C4A50F81C3C1C481C4D102103F0B0FA61
:104EB00033783C4637469BB9FFF7B8FF04280FD13B
:104EC0000123337002F08CFF286002F089FF2B6809
:104ED000C01A134B98420ED8A3683C2B0BDD0DE093
:104EE000FFF7A4FF022803D0FFF7A0FF0328ECD1AF
:104EF00000233B70E6E70123637102E0034B0022CD
:104F00005A7109B0F0BD00BFF8CA0D004CE0032093
:104F1000FCDE03209ED00D00E6DE03206CE00320C3
:104F200000BADB00F7B5FFF76BFE234B00221146FA
:104F3000586803F00DFA08B1FFF702FC1F4E204F2E
:104F400000243019FFF7BCFB51EC100B05F07CFF7F
:104F500007EE900AF4EE677AF1EE10FA04D605F047
:104F600027FC3D19C5E900010834182CE9D1144C7F
:104F70001448D4E900230C21CDE90023124A03F0A0
:104F800047FAD4E902230C21CDE900230F480E4A49
:104F900003F03EFAD4E904230C21CDE900230C48A8
:104FA000094A03F035FAFFF74DFF0A4A012313704F
:104FB000094A137003B0F0BD60E2032000F403203F
:104FC000C0DF0320CDDD032073CD0D0040DD0320C5
:104FD000BCDD0320FDDE0320B4DF032073B5994C54
:104FE0002378013B052B00F21481DFE803F0AF03C7
:104FF00064396888944D2B792BB1944B1B78022B24
:1050000001D0FFF7BDFC924B1B780BB1FFF7D4FB2F
:10501000904E33783BB120238B4A8F48012100F01A
:105020000FFE002333708D4E33783BB130238C4A12
:105030008948502100F004FE0023337004F054FE30
:10504000AB7990FBF3F202FB1300002840F0E780FD
:1050500004F04AFE834B1B68984240F0E980DEE092
:10506000794B1A791C462AB1784B1B78042B01D056
:10507000FFF786FC04F038FE012803DDE378002BFF
:1050800040F0DD800021072005F055F8FFF794FB84
:1050900004F02AFE3C23C0F13C0003FB00F1002990
:1050A00005DDB1F5616FA8BF4FF4616100E001213A
:1050B0000023012292E0FFF735FF052318E0624B41
:1050C0001A791D462AB1614B1B78052B01D0FFF7D9
:1050D00057FCEB780BB9FFF7D1FB03F0E1F848B1CF
:1050E00004F0F8FD08B9FFF7ADFCFFF789FA0623D5
:1050F00023708EE002F074FE5B4B186024E0524B8C
:105100001B792BB1514B1B78062B01D0FFF738FCD4
:10511000564B1B780BB90223EAE702F061FE544BB1
:105120001B68C01A4AF6C873984272D902F058FE3A
:105130004D4B50491860504B50481B7800228DF859
:1051400000204F4AFFF7CAF80123D1E73E4C2379EC
:105150002BB13E4B1B78012B01D0FFF711FC02F065
:105160003FFE414B1B6803F5EA433033984250D968
:105170002369032B13DC03F093F848B13E4B4149FC
:105180001B783E4800228DF800203F4AFFF7A6F822
:105190004FF4FA6003F064F904F0C9FB39E004F05D
:1051A00092FD294B2B4DDB69C01AB0F5E15F19D98F
:1051B00003F076F848B1304B32491B782F48002273
:1051C0008DF80020314AFFF789F84FF4FA6003F0B8
:1051D00047F90023012223612A700A212C4801F09B
:1051E000BAF916E003F05CF848B1234B25491B7867
:1051F000224800228DF80020264AFFF76FF84FF46E
:10520000FA6003F02DF90023236101232B70FFF7CF
:10521000EDFB1F4802B0BDE8704001F0D5B804F0C6
:1052200063FD38B904F060FD0E4B1B68984201D055
:10523000032323706B79002BEBD0042358E7FFF78F
:105240006BFB1FE7FEDE03204CE00320E5DE0320BE
:1052500038DF0320FDDE0320B8DE0320B4DF0320A7
:10526000C0DF0320B8DF0320B0DF0320F0DF03201E
:10527000F8DE03207BCD0D00E4DE032010E00320E8
:105280003ED60D00A8CD0D0094CD0D00AECD0D0085
:10529000C8DE0320C8CD0D0007B5FFF7EFFAFFF712
:1052A00041FE02F0FDFF48B1114B12491B78124834
:1052B00000228DF80020114AFFF710F8104A11481B
:1052C0000023937093681D2BCCBF002301235371DF
:1052D0000A2393710C4B53614FF07E53012193616C
:1052E00020231170117103B05DF804EB00F0A8BC2D
:1052F000E4DE032093CB0D0010E00320E7CD0D008A
:105300004CE00320B8DE03200000A0C038B5284CD4
:10531000274DFFF707FEA378012B84BF0023A3705E
:10532000E378012B06D902F0BBFF10B10123EB702B
:1053300000E0E8702379D4ED057A012B82BF1C4B85
:1053400000221A71A2681A4B1D2AD4BF0122002222
:105350005A712369FF2B88BF154BBAEE087A88BFB4
:105360000022F4EEC77A88BF1A61F1EE10FA06D473
:10537000B2EE087AF4EEC77AF1EE10FA01DD0D4BC9
:105380006361D4ED067AF5EEC07AF1EE10FA06D438
:10539000B0EE007AF4EEC77AF1EE10FA02DD4FF0CB
:1053A0007E53A3610A23A371034B01221A7038BDF7
:1053B0004CE003200000A0C0FDDE032000230222F9
:1053C00002F046BF0023042202F042BF0246014819
:1053D00003F030BA09880D00F0B5A9B004F09EFDC5
:1053E0004FF4165104F08EFD0021082004F092FEC7
:1053F0000021042004F08EFE0121072004F08AFE23
:1054000001210520002404F085FE0121072004F07D
:1054100092FEFFF7D1F94FF0FF3301229649009435
:10542000082003F06BFD04A802F042FF23467D2212
:1054300008A904A804F01FFA234622468F490194C4
:10544000009408A802F044FF8D498E488E4D8F4F7E
:10545000FFF7B8FF8E498F48FFF7B4FF8E498F489A
:10546000FFF7ACFF8E498F48FFF7ACFF8E498F489E
:10547000FFF7A8FF8E498F48FFF7A4FF8E498F489A
:10548000FFF7A0FF8E498F48FFF798FF8E498F489E
:10549000FFF794FF8E498F48FFF794FF8E498F489E
:1054A000FFF790FF8E498F48FFF790FF8E498F4896
:1054B000FFF78CFF8E498F48FFF788FF8E498F4892
:1054C000FFF784FF8E498F48FFF780FF8E498F4892
:1054D000FFF77CFF8E496F48FFF778FF8D4800F09B
:1054E00017FB214601230DF10B028A4800F052FB05
:1054F0009DF80B10012919D0864800F013FB0423F6
:10550000854A8448214600F09BFB01230DF10B02E4
:105510002146804800F03EFB9DF80B30012B02D065
:1055200001233B7007E0FFF7B7FE04E020232A4683
:10553000784800F02FFB28AE0024FFF7E7FEFFF7C6
:1055400081FC46F8944D22462146304602F028FC64
:10555000039B142B00F0848022462146304603949E
:1055600002F01EFC039B8C2B7AD0AB796B4A484827
:105570000C2102F04DFF6A4800F00EFE0021684841
:1055800000F05FFF95ED060A04F092FA04F07AFB52
:1055900020B9634800F0F0FD04F0B4FAFFF78AFA8E
:1055A00010B104F09FFA01E004F0A6FA95ED050AA7
:1055B00004F062FA04F052FA044604F084FB201A64
:1055C00005F0E4F82AA3D3E9002305F06FFA554A61
:1055D000CDE900010A213E4802F01AFF3023524A69
:1055E0004C48502100F0D6FA04F074FB4F4B186081
:1055F000FFF714F9042004F0B7FD08B9FFF74CFEDB
:105600004B4800F089F94B49494800F06AF94A498A
:10561000474800F066F94949454800F062F904F04E
:10562000D1FD42220146464801F0C8FD444801F040
:1056300079FD02F0D5FB434B1860434B01221A70F1
:10564000FFF71CF93B7813B9104B02221A700021A6
:10565000072004F070FD04A804F087F829B0F0BD1D
:105660002B6901332B61394B01221A707DE700BF92
:10567000000000000020AC40CD400D00F9420D00BC
:105680006CDF0320FFCD0D004CE00320FEDE032085
:10569000D9DD032006CE0D005CE0032015CE0D0001
:1056A000CDDD032020CE0D0040DD03202ACE0D00ED
:1056B000BCDD032033CE0D00C8DD03203FCE0D003E
:1056C00054E0032047CE0D00D8DF032052CE0D005A
:1056D000ACDE032059CE0D00E6DE032064CE0D00C3
:1056E00021410D0073CE0D008D430D007DCE0D00C8
:1056F0003D410D0087CE0D00D5430D008FCE0D002E
:1057000069440D009CCE0D00F94A0D00A9CE0D0094
:1057100081450D00B8DE032030CF0D00D2CB0D0047
:10572000C8DE032098CB0D00C0DF032004DF032078
:10573000F4DF032000F4032008F4032010F4032016
:1057400008DF0320ACDF032064DF0320FDDE03203D
:10575000434B2DE9F04100241C60424B424E434D27
:1057600001271F7002F074FB414B186004F084FCA9
:105770002346224642F6DF5104F086FC04F07CFC0E
:1057800022462346022104F087FC4FF6FF73738103
:105790003460B480B4713481022002F0FBFC2A46EC
:1057A0003449304604F034FD334E2146384602F089
:1057B00009FD3946042002F0E3FA4FF01008301DCD
:1057C00042462146306005F0A9FD02232A462B49B6
:1057D000F38030463775A6F8048004F019FD04F014
:1057E000F1FC274E0146304600F014FC2A462549BC
:1057F000304604F00DFD04F0E5FC234E234601463F
:105800004FF40052304600F079F9204B33603046B7
:105810001F4E20492A4604F0FBFC4FF400621E494B
:10582000304601F001FB1D4B336030461C4E1D49D4
:105830002A4604F0EDFC224641461B4C304600F05F
:1058400039F82A461949304604F0E2FC204601F0B6
:105850004BFC2A4620461649BDE8F04104F0D8BC6E
:1058600054DF0320E4DE032058DF0320A8DE0320FA
:1058700068DF0320A9410D003CDF0320D9400D0063
:10588000C8DE0320875D0D00B8DE032094CA0D003A
:1058900010E0032081410D0018F40320B0CA0D0070
:1058A000F4DF032059410D0008DF032009590D00E2
:1058B000B1700D0070B5044600236360A360E3601F
:1058C0002361636123766376A2760E200E46FEF78F
:1058D000E4FB054610B1314600F032FF256020465A
:1058E00070BD38B500F110050C460068294601F07E
:1058F0001BF8031E1DBF2B6823606B682360636069
:1059000014BF0120002038BD10B50E2104460068E8
:1059100004F083FC204610BD006800F0F9BF0000D1
:10592000F8B5837E04460D4616461BB90B78002B4E
:1059300000F0A680206800F00DFFA37E23B11EB901
:10594000206800F0E1FF03E02946206800F0CAFF6C
:1059500000224421206800F092FF40F2EE2002F085
:105960007FFD206800F0F6FEA37E23B11EB92068FB
:1059700000F0CAFF03E02946206800F0B3FF0022D0
:10598000BE21206800F07BFF2B78262B04D100225B
:105990001146206800F073FFE61C04F10C07206834
:1059A00000F090FF06F8010FBE42F8D10821201D3B
:1059B00001F035F8237B20769842637660D12B780E
:1059C000222B19D014D8102B5AD1E27AA388102A8E
:1059D00008BFA27A4FEAC30302BF23F00F03C2F14C
:1059E0000C029B181BB200EE103ABAEECE0AF8BDBC
:1059F000262B1FD0282B43D1227A237902F0600274
:105A0000202A05D0402A06D042B923F0070304E03B
:105A100023F0030301E023F001032371237960796C
:105A200043EA002000B204F0B1FE0022164B04F05D
:105A300013FF20E0A579284604F0A8FE0646607909
:105A4000C01007EE900AF8EEE77A0F4617EE900ABC
:105A500004F0AEFE00220D4B04F0FEFE0B462906BC
:105A600002464CBF0A490B49002004F0F5FE3246BD
:105A70003B4604F03FFD05F0E7F900EE100AF8BDE3
:105A80009FED050AF8BD00BF0000B03F0000A03F39
:105A90000000F0BF0000F03F0000C07F00000000E9
:105AA00008B510EE100A04F083FE08A3D3E9002322
:105AB00004F0D2FE0022044B04F01CFD05F0C4F9F2
:105AC00000EE100A08BD00BF00004040CDCCCCCC99
:105AD000CCCCFC3F027E407E131A5842584170479E
:105AE00002F0B6B9704710B51021044604F095FBDA
:105AF000204610BD0368C9B29B68184730B5034DF6
:105B0000056041608260C36030BD00BFB8CF0D004A
:105B1000406803F09DB910B50446006803F0E4F94D
:105B2000204610BD2DE9F0418AB00746406801903B
:105B300003F0D1F91E22002102A8BE6805F0EEFB99
:105B40000025DEB13B681E2EB04628BF4FF01E0870
:105B5000DC6802AA434629463846A047044648B9AD
:105B60002A460A490A48FEF7A2FB01A8FFF7D3FF1D
:105B7000204607E0C8EB06064544E2E701A8FFF728
:105B8000CAFF01200AB0BDE8F08100BF34CF0D008C
:105B900098E203202DE9F3470446406801900E4641
:105BA0001746984603F097F9B8F1000F01D1012488
:105BB0003FE0E168606841F0500103F081F9310A8B
:105BC0006068FFF797FF31466068FFF793FF002199
:105BD000606803F078F908B100242AE0E1686068A1
:105BE000B8F1200FC14641F0500128BF4FF0200905
:105BF00001234A46C9B203F04DF904F0E3FA036801
:105C00001B6998474845E7DB3D46C7EB060A04F0A9
:105C1000D9FA03685B69984705F8010BEA1BC5EBE5
:105C20000803914505EB0A063B44F0D898462F46F9
:105C3000BAE701A8FFF76FFF204602B0BDE8F08782
:105C40002DE9F3470446406801900D4690461F46F3
:105C500003F041F94FB3E168606841F0500103F08F
:105C60002FF9290A6068FFF745FF29466068FFF7AA
:105C700041FF08F11E094646C8EB050A606816F8A0
:105C8000011B03689B689847B14506EB0A05B046BF
:105C900007F1FF3701D0002FF0D10121606803F038
:105CA00012F90028D6D0002400E0012401A8FFF753
:105CB00032FF204602B0BDE8F0872DE9F0438BB0FB
:105CC0000E4615468046406801901C4603F003F9D5
:105CD000AE4223D2264425440CB901243FE01E2CB9
:105CE0002746D8F8003028BF1E27F61BD3F80890A7
:105CF00002AA3B4631464046ED1BC84708B900247E
:105D00002DE0D8F8003002AAD3F80C9029463B4683
:105D10004046C8470028F2D0E41BDDE7DDD9002C5F
:105D2000DBD01E2CD8F80030274628BF1E27D3F81A
:105D3000089002AA3B4631464046C8470028DED0BC
:105D4000D8F8003002AAD3F80C9029463B464046CA
:105D5000C8470028D3D03E443D44E41BDFE701A8F8
:105D6000FFF7D9FE20460BB0BDE8F08302F070B813
:105D7000402070470020704780207047FF20704708
:105D8000704770477047704710B51421044604F0FF
:105D900044FA204610BD10B50821044604F03DFA2F
:105DA000204610BD10B50821044604F036FA2046FE
:105DB00010BD10B51C21044604F02FFA204610BD7A
:105DC0002DE9FF410368DB6805469847102201462C
:105DD000684605F0A3FA2B6828469B68984700247C
:105DE00007462046BC420ED23E1B102E2B6828BF11
:105DF0001026D3F818806A46334621462846C04705
:105E000008B13444EEE704B0BDE8F081002301227C
:105E10008372C272027342738373C37303744374D5
:105E200070470000012208B54271022282710322EC
:105E3000064BC27104220360027200230722037121
:105E400042724374FFF7E2FF08BD00BF18D10D0096
:105E500003090A2200F00F0002FB0300704708B597
:105E6000807AFFF7F5FF00F5FA6008BDC07A00F010
:105E70001F00FFF7EDBF007B00F03F00FFF7E8BF1A
:105E800008B5817B4A060DD501F01F00FFF7E0FF42
:105E90008B0603D50C280BD00C3008BD0C2808BF8E
:105EA000002008BD01F03F00BDE80840FFF7D0BF6B
:105EB00008BDC07B00F07F00FFF7CABF007C00F088
:105EC0007F00FFF7C5BF10B58AB024220021044629
:105ED00001A805F023FA2046FFF7C1FFA0F26C707D
:105EE00006902046FFF7C2FF013805902046FFF7D5
:105EF000C2FF04902046FFF7C3FF03902046FFF740
:105F0000D8FF02902046FFF7D9FF019001A805F0C5
:105F1000E9FA0AB010BD0A2290FBF2F393FBF2F10A
:105F200002FB113102FB130343EA0110C0B27047B8
:105F3000642310B5044691FBF3F000FB1310FFF748
:105F4000EAFFA07210BD10B504460846FFF7E3FF54
:105F5000E07210BD10B504460846FFF7DCFF237B56
:105F600023F03F031843207310BD10B50446481CAE
:105F7000FFF7D1FF637B23F007031843607310BD65
:105F800010B504460846FFF7C6FFA07310BD10B554
:105F900004460846FFF7BFFFE07310BD10B5044686
:105FA0000846FFF7B8FF237C23F07F0318432074D3
:105FB00010BD37B5044602A840F8041D04F0E6FF02
:105FC000054641692046FFF7B3FF296920460131A4
:105FD000FFF7B9FFE9682046FFF7BCFFA969204633
:105FE000FFF7C3FFA9682046FFF7CAFF696820468C
:105FF000FFF7CDFF29683B29A8BF3B212046FFF7CB
:10600000CDFF03B030BD10B50446FFF7D2FF637A71
:10601000637410BD084A02600022027242720122BB
:10602000827203460322C272044A41601861C26050
:10603000034A98614261704728D10D00F8CF0D00E6
:10604000D4CF0D002DE9F84F05460F4691469A46EC
:1060500000240A9B9C4230D23946686802F02CFF2B
:1060600009EB04016868FFF745FD0021686802F04C
:106070002AFF0646D8B90A9B68681A1B202A4FF0E7
:10608000010328BF2022394602F004FF0AEB04086E
:1060900083464646C8EB06039B4506D968680368F5
:1060A0005B69984706F8010BF4E75C44D1E70246C8
:1060B00004490548FEF7FBF800E000263046BDE83D
:1060C000F88F00BF72D00D0070E003201FB50123D0
:1060D00000930A4603AB6F21FFF7B4FF10B99DF898
:1060E0000C0000E0002005B05DF804FB08B50321BA
:1060F000FFF7ECFFC0F3401008BD7FB51E46002B34
:106100000CBF072306230093144602AB0A466F21F7
:10611000FFF798FF0546D8B99DF8083023749DF81D
:106120000930E3739DF80A30A3739DF80B30637355
:106130009DF80C3023739DF80D30E3721EB99DF865
:106140000E30A37204E003F0F1FDFFF7E4FEA0724D
:10615000284604B070BD38B500230C460A461946DF
:106160000546FFF7CAFF28B9A37A1BB12846FFF7F7
:10617000BDFF00B9002038BD10B586B0044601A8A7
:10618000FFF750FE01A92046FFF7E5FF10B101A877
:10619000FFF799FE06B010BD30B5044685B04068E3
:1061A00002F056FE03F06EFDC0B9E37A9B0715D5E9
:1061B0002046FFF7E1FF054680B103F0A3FC094B41
:1061C00009491B682A46684603F02AFD0748009AD9
:1061D0000749FEF76CF8684603F0C7FA01232372FB
:1061E00005B030BDECDD0320C8E4032070E00320DF
:1061F0008CD00D002DE9F34101EB03081E46036826
:106200009B6804460D461746984780450AD8009675
:106210003B46EAB257216068FFF714FFB0FA80F0FE
:10622000400900E0002002B0BDE8F0812DE9F34113
:1062300001EB03081E4603689B6805460C4617469B
:10624000984780450CD804F1200200963B46D2B214
:106250006F216868FFF7F6FEB0FA80F0400900E0B1
:10626000002002B0BDE8F0812DE9F84F07468946CD
:1062700092469B4600240A9B9C4228D24946786855
:1062800002F01AFE0AEB04017868FFF733FC0A9B60
:106290001E1B1F2E0BEB040828BF1F2645467868DF
:1062A00015F8011B026892689047C8EB0502B242DC
:1062B000F5D30121786802F006FE054628B10246B2
:1062C00005490648FDF7F3FF02E03444D3E7002513
:1062D0002846BDE8F88F00BFA1D00D0070E0032074
:1062E0001FB5137C8DF80830D37B8DF80930937B74
:1062F0008DF80A30537B8DF80B30137B8DF80C3002
:10630000D37A8DF80D30937A8DF80E3007230093F1
:106310000A4602AB6F21FFF7A7FF05B05DF804FB4B
:1063200010B586B0044601A8FFF77CFD01A8FFF771
:1063300040FE9DF81430A27A63F07F038DF814308C
:106340009DF8113012B143F0080301E023F0080377
:1063500001AA002120468DF81130FFF7C1FFB0FAE5
:1063600080F0400906B010BD7FB5064603F08AFCF8
:106370000446B8B103F0A7FC054601463046FFF7D6
:10638000CFFF0C4B0C491B682A460446684603F0B5
:1063900047FC009A09490A48FDF789FF684603F05F
:1063A000E4F903E007490648FDF781FF204604B001
:1063B00070BD00BFECDD0320C8E40320BCD00D009D
:1063C00070E00320D2D00D0037B5457A04468DB970
:1063D00003F058FC70B102A8294640F8045D01F0B2
:1063E0008FFF38B1E37ADB0702D52046FFF7BCFF09
:1063F0000123637203B030BD1FB504AB03F8042D55
:10640000012200920A466F21FFF72EFF05B05DF8CA
:1064100004FBF8B5144605460E461F46FFF756FE28
:10642000204040EA070231462846BDE8F840FFF721
:10643000E3BF13B11346FF2201E0D243D2B2FFF70C
:10644000E8BF012908B50CD800294FF000030CBFA4
:10645000102220220721FFF7ECFFB0FA80F040095C
:1064600008BD002008BD00294FF000034FF00802CE
:1064700014BF14210D21FFF7DCBF2DE9F34101EB1F
:1064800003081E4603689B6805460C461746984756
:1064900080450CD804F1200200963B46D2B26F2111
:1064A0006868FFF7E1FEB0FA80F0400900E00020E4
:1064B00002B0BDE8F081F0B5012B85B006460C4670
:1064C00017461D4601D9002043E0FFF70FFE0028C4
:1064D000F9D029463046FFF7C6FF237C227B8DF892
:1064E0000830E37B8DF809308DF80C20A37BE27A2D
:1064F0008DF80A308DF80D20637B17B163F07F03B0
:1065000001E003F07F038DF80B30637C9DF80B20D6
:106510001B0103F070031343002D8DF80B304FF077
:106520000603009308BF0A2202AB18BF11226F2195
:106530003046FFF799FE044640B9002D0CBF1023EA
:106540002023FF2207213046FFF763FFB4FA84F0CF
:10655000400905B0F0BDF0B5012B87B006460C46EA
:1065600017461D4601D9002010E0FFF705FE002860
:10657000F9D0011901A8FFF755FC01A8FFF743FD69
:106580002B463A4601A93046FFF795FF07B0F0BD0C
:1065900038B5054632245721686802F08DFC012188
:1065A000686802F090FC08B1013CF4D138BD0000ED
:1065B0002DE9F0410546D7181446C2EB0108BC424C
:1065C0001ED05721686802F077FC08EB0401686868
:1065D000FFF790FA686814F8011B03689B689847F6
:1065E0000121686802F06FFC064628B102460649A0
:1065F0000648FDF75CFE04E02846FFF7C9FFDEE72A
:1066000000263046BDE8F081E7D00D0070E00320A1
:106610002DE9F04101EB03081E4603689B68044620
:106620000D461746984780450AD833463A46E9B2A0
:106630006068FFF7BDFFB0FA80F04009BDE8F08167
:106640000020BDE8F081000008B501F001FC024B1C
:10665000024A1A6008BD00BF70E0032008D10D0097
:1066600001F0F6BB10B503682F2B044604D9074A86
:1066700000210A2001F06CFD23681F2B83BF03F06B
:106680001F03236002484FF0A04010BDD17D0D00D4
:106690000003005007B50B4B1B68000119181A5C6A
:1066A0004B7802A803F01F0343EA421340F8043D6D
:1066B000FFF7D8FF019A01239340C0F80C3503B0CF
:1066C0005DF804FB74E0032007B50B4B1B68000169
:1066D00019181A5C4B7802A803F01F0343EA42130F
:1066E00040F8043DFFF7BEFF019A01239340C0F834
:1066F000083503B05DF804FB74E0032013B50F4BBD
:106700001B6800011A181C5C537802A803F01F03D1
:1067100043EA441440F8044DFFF7A4FFD0F81035C5
:1067200002A840F8084DFFF79DFFD0F810350098FB
:1067300023FA00F000F0010002B010BD74E0032065
:1067400038B504460D462846002103F0E3FC2580B9
:10675000204638BD70B5054602F0F8FB00212888B8
:1067600001F07EFB02F0F4FB7D24013C14F0FF04F9
:106770002DD0022001F02CFB2888FFF7BFFF002856
:10678000F3D002F0E3FB2888FFF784FF012128887B
:1067900001F066FB02F0DCFB4FF4F07001F018FB37
:1067A00001F036FB00210646288801F059FB4620FF
:1067B00001F00EFB2888FFF7A1FFB0FA80F4304605
:1067C00001F02EFB4FF4CD70640901F001FB20466F
:1067D00070BD70B511F00106044615D001F018FB2C
:1067E00005462088FFF756FF0121208801F038FB7D
:1067F000012001F0EDFA0021208801F031FB28464C
:1068000001F00EFB3B2014E001F002FB054620885E
:10681000FFF740FF0121208801F022FB412001F019
:10682000D7FA3146208801F01BFB284601F0F8FA20
:106830000520BDE8704001F0CBBA38B5044601F040
:10684000E7FA05462088FFF725FF0121208801F09F
:1068500007FB012001F0BCFA0021208801F000FBB9
:106860000D2001F0B5FA2088FFF748FF04462846BE
:1068700001F0D6FA2E2001F0ABFA204638BD2DE902
:10688000F0410546884617460826012418EA040FF9
:1068900014BF012100212846FFF79BFF6400013E41
:1068A000E4B2F3D167B102F051FB2888FFF70CFF87
:1068B0002888012101F0D4FABDE8F04102F048BB7C
:1068C000BDE8F081F8B507460826002501243846C2
:1068D000FFF7B3FF00B125436400013EE4B2F6D1F7
:1068E0002846F8BD70B500220C4655210646FFF734
:1068F000C6FF651E073415F8011F00223046FFF75A
:10690000BEFFA542F7D170BD0022CC21FFF7B7BF73
:10691000002383720373C37200F10A02023002F88B
:10692000013D8242FBD170472DE9F047057B0446CB
:106930008846002D5ED1FFF70DFF20B9A0722073AD
:10694000E072BDE8F0872A46F0212046FFF797FF66
:106950000126AA4637462046FFF76FFF81462046AC
:10696000FFF76BFFB9F1010F02D101281BD137E00E
:10697000814504EB05031ED1A27A974207D29A788B
:10698000164214BF4FF001094FF0000904E00CBF9C
:106990004FF001094FF00009B9F1000F03D1082FA2
:1069A00008D8E77206E062194FF001099378334383
:1069B000937004E0BA469A7822EA06029A70494631
:1069C00020467600FFF705FF16F0FF0604BF0135ED
:1069D000EDB207F1010708BF0126072DFFB2BAD9B2
:1069E000402F07D984F80AA0BAF1000F12D1012371
:1069F00023730FE00020A0722073E072631C08F183
:106A0000FF38093413F8012F08F8012FA342F9D1F8
:106A1000BDE8F087A378002BECD00120EEE730B57D
:106A2000054600200139C9B2FF2913D015F8014BE2
:106A3000082280EA040313F0010F4FEA50001CBF44
:106A400080F08C03D8B2531E13F0FF024FEA5404B7
:106A5000EFD1E7E730BD000008B501F0F9F9014BCF
:106A6000186008BD74E0032042680368501012F0FB
:106A7000010F18BF0A58084418BFD358184710B55B
:106A800001230374836804460BB1C06806E0006804
:106A900028B183680BB903F0DCFBC3689847012376
:106AA00063740020BDE8104001F062B9012A03467A
:106AB00001D1016005E0022A03D110B103C983E8C6
:106AC00003000020704710B58368044613B1032209
:106AD00001469847204610BD0123F7B580F82930BC
:106AE0000546083001F01CF90420FDF7D6FA0446EB
:106AF000002835D01C49142003F09AFB30B1002344
:106B00000374036043608360C36043742060B0B16A
:106B1000164B836023681649DD6020684FF40063DC
:106B20008DE809000222134B043001F0C9F830B996
:106B300023681B7CA3B9012001F042F9F8E726681D
:106B40000023236066B1376837B13846FFF7BBFFD3
:106B50001021384603F061FB1421304603F05DFB41
:106B60006C6003B0F0BD00BFF0D90D008B6D0D005F
:106B700058D10D007F6A0D0047F23051C1600A49BB
:106B80000A4A01610A490260C16100220949426062
:106B9000426181610262426280F8282080F82920E7
:106BA00080F82A20704700BFE56E0D001CD20D0052
:106BB000696A0D00AD6A0D0010B5044B044640F83B
:106BC000103BFFF780FF204610BD00BF1CD20D0018
:106BD00010B5034B03600446FFF7EEFF204610BDDF
:106BE00038D10D0010B50446FFF7F2FF20463821DA
:106BF00003F013FB204610BD806801F099B880684F
:106C000001F09EB810B504460068FFF7F8FF204673
:106C100010BD13B504460190FFF7EEFFE36ADC8870
:106C2000A4B20CB103F1080401A8FFF7EBFF204662
:106C300002B010BD13B504460190FFF7DDFF94F8D4
:106C400028301BB9E26A0124D38000E0002401A8A7
:106C5000FFF7D8FF204602B010BD37B502AC05469D
:106C600044F8040DFFF7C8FFEB6A2046DD88FFF704
:106C7000C9FF284603B030BD2DE9F0479A4686B0DB
:106C800090F829309DF838909DF83C70044688466D
:106C9000164613B903689B689847314B4046002E4F
:106CA00008BF1E4605F0FAFA0546304605F0F6FA2A
:106CB000284400F10A05AB071CBF25F00305043585
:106CC000334603950297CDF80490CDF800A04246D4
:106CD00024492548FDF7EBFA238E083B9D420FD946
:106CE000002438E0CB88012B31D005A8FFF78AFFBC
:106CF000236894F828109B69204698470028EFD015
:106D000020460594FFF778FFE16A238E626B0B44FF
:106D10009B1A9D42E6D847EA0907C2F800A01771FE
:106D2000676B08374146384604F080FD384605F069
:106D3000B5FA01303146384404F078FD606BE26A00
:106D400028446063D3880133D380012400E0002409
:106D500005A8FFF757FF204606B0BDE8F08700BF43
:106D60003ED60D006AD10D0078E0032008B5044638
:106D700000F11005A3690BB903F06BFAE369214632
:106D80002846984700F0ACFFF4E708B5FFF7EEFFA0
:106D900038B501F108040546204605F07FFA0130B8
:106DA0000444204605F07AFAEB6A01302044C31A05
:106DB00013F003031CBFC3F10403C01838BD2DE951
:106DC000F341054688460190FFF716FFEE6A06F18B
:106DD0000807F488B8F1000F07D0012C1CD93946F8
:106DE0002846FFF7D5FF074600E0B4B139462846EC
:106DF000FFF7CEFF2A8E3244121A0146A0EB070499
:106E000002D0384604F06FFA6B6B1B1B6B63F38880
:106E1000013BF380012400E0002401A8FFF7F2FE0B
:106E2000204602B0BDE8F0812DE9F04704460D464A
:106E300090460026FFF7A0FE2F46154B2360E56223
:106E4000A4F830806663134B57F8082B9A42994692
:106E500014D1AB889BB2984510D105EB080A676343
:106E6000EB88B2B29BB29A420FD2616B2046FFF719
:106E70008FFF8245606306F10106F1D20023C5F859
:106E80000090A5F80480EB8067632046BDE8F0879A
:106E900038D10D0061AB9CD110B591E80C0086B0E3
:106EA00004460292039302AB93E803008DE80300CB
:106EB00094E80300A26883E803009DE803000492BD
:106EC000064AA260E2680592054AE26084E803008F
:106ED0001846FFF7F8FD204606B010BDAD6A0D005C
:106EE000696A0D0007B5054B009369460023103011
:106EF0000193FFF7D1FF03B05DF804FB2D6F0D0088
:106F000013B5044600F06CFF636AC01AE368984248
:106F100008D3054B00936946002304F11000019348
:106F2000FFF7BAFF02B010BD2D6F0D002DE9F04143
:106F300090F82A3086B00446002B73D101F0B0F9E6
:106F400000286FD000F04CFF636AC01A40F2F133A2
:106F5000984267D9236820465B6998470546002810
:106F600060D005F10806012384F82830304605F08A
:106F700095F995F80480CDF80480013037182B6816
:106F8000009332463B4629492948FDF790F92B6882
:106F90008DF800803A46314602A801F05BFD029D63
:106FA0006B781BB9012001F05BFAF8E7002001F0D3
:106FB00011F920B16B7813B901F05AF9FAE72B787F
:106FC000012B09D11B491A48FDF771F923680021EB
:106FD0009B69204698470DE017491548E268FDF780
:106FE00066F9164B049304A9002304F110000593DD
:106FF000FFF752FF002384F8283000F0F1FE6062B2
:10700000039C7CB16368013B63605BB923682046E5
:107010009B689847A368013BA3601BB9236820467F
:10702000DB68984706B0BDE8F08100BFABD10D002A
:1070300078E00320CCD10D00E3D10D00016F0D00ED
:1070400008B500F005FF024B024A1A6008BD00BFF8
:1070500078E003200AD20D007FB502460846137976
:10706000956833B13DB90C4904B0BDE8704002F0F9
:1070700073B90A4B00E00A4B167B0A4C0A49527B53
:107080000292012E08BF214601910095074A002176
:1070900002F069FA04B070BD59D20D003ED60D0061
:1070A00048D20D0051D20D0055D20D006FD20D0007
:1070B00010B5054B044640F8203BFFF704FD204681
:1070C00000F0C2F9204610BD2CD30D0010B50446C7
:1070D000FFF7EEFF2046302103F09FF8204610BD59
:1070E0000368C9B29B68184738B50B4904460025A8
:1070F00000F0B2F9094B2360257203F063F84223D4
:107100002374E06002F082FE054B6061A561E561D9
:10711000A5621C60204638BDB4E003202CD30D00CE
:1071200088E00320F7B585690646002D3BD1042091
:10713000FCF7B3FF0446002834D01C49142003F0A8
:1071400077F828B10574056045608560C5604574B1
:107150002060B0B1164B836023681649DE6020685A
:107160004FF400638DE809000222134B043000F055
:10717000A7FD30B923681B7CA3B9012000F020FED5
:10718000F8E725680023236065B12F6837B13846DA
:10719000FFF799FC1021384603F03FF814212846E8
:1071A00003F03BF8B46103B0F0BD00BFF0D90D00AF
:1071B000B5730D008DD20D007F6A0D0010B501234F
:1071C0000372C36804464868586088689860C86855
:1071D000D860087C18740846227401F039FE2046F5
:1071E00010BD000038B50546017CC06801F064FEA2
:1071F000FD21E868FFF774FF0021E86801F063FEF5
:1072000030B10F4902460F48FDF751F8002038BD54
:1072100002220123297CE86801F03CFEC2B2022A66
:1072200001D00949EFE7E86803685B6998470446BD
:10723000E86803685B69984740EA042080B238BD7B
:107240009AD20D0098E20320BED20D002DE9F0473E
:1072500006468946017CC068154601F02DFEFF21D7
:10726000F068FFF73DFF0021F06801F02CFE0246B8
:1072700008B1184915E00446AC4227D22F1B202F35
:1072800028BF202704EB070ACAEB050253425341EB
:10729000317CF0683A4601F0FDFDC2B2974207D05A
:1072A0000D490E48FDF703F84FF0FF30BDE8F087B9
:1072B0004C44A046F06803685B69984708F8010BE6
:1072C000C4EB08039F42F5D85446D5E72846BDE8ED
:1072D000F08700BFE8D20D0003D30D0098E2032031
:1072E00000487047B4E0032007B582688DF80710A6
:1072F0000AB902F0AEFFC3680DF10701984703B069
:107300005DF804FB2DE9F043037A89B0044613B914
:1073100000F120063BE0D0F80C80404601F0DBFD98
:107320002046FFF75FFF202804F12009054601D819
:1073300008B919E020252A4669462046FFF786FF4E
:10734000A8426F4610D16E4616F8011B144800F093
:1073500091FBA36A23B116F8011C4846FFF7C4FF4E
:10736000F31B9BB2AB42EFD3404601F0BDFD14E0EE
:10737000606903685B699847C5B22946084800F010
:1073800079FBA36A1BB129463046FFF7ADFF606960
:1073900003681B6998470028EADC09B0BDE8F08360
:1073A000B4E0032008B504462046FFF7ABFF00F029
:1073B00097FCF9E708B5FFF7F5FF000070B5194C29
:1073C000194E00F045FD0821204600F02FFC3168E1
:1073D000164B236011F001050AD13046FCF76EFE12
:1073E00030B12946124802F013F93046FCF76BFE23
:1073F000104AA2610E4B104AE3602262112301225F
:10740000236184F8242000230C4A0D490548237584
:10741000237784F8253002F0FBFE0A48BDE870406F
:1074200000F078B88CE003207CE00320E8D60D0063
:1074300080E0032044D20D0080969800A8DE03204F
:107440006D7B0D00B4E00320704710B508210446A1
:1074500002F0E3FE204610BD014A02604160704721
:107460003CD30D0000F0F4BC002202704270828018
:10747000826002730282426102768283026280F835
:1074800024200285C26280F83020426380F83820D0
:1074900080F83920C2630264426480F8482080F892
:1074A0004920C2640265426580F8582080F859205E
:1074B000C2650266426680F8682080F86920C2666C
:1074C0000267426780F8782080F87920C267C0F8A8
:1074D0008020C0F8842080F8882080F88920C0F8B7
:1074E0008C20C0F89020C0F8942080F8982080F874
:1074F0009920C0F89C20C0F8A020C0F8A42080F8F3
:10750000A82080F8A920C0F8AC20C0F8B020C0F8AE
:10751000B420704710B50446FFF7A6FF04F1B80089
:10752000FFF7A2FF0023022284F8703184F8713142
:1075300084F8812184F8823184F8833184F884319D
:10754000C4F88831C4F88C31C4F89031C4F894314F
:10755000C4F89831C4F89C3184F87231204610BDCB
:10756000A1F14103052B02D8A1F137007047A1F129
:107570006103052B94BFA1F15700A1F130007047C2
:1075800038B5057804462D2D08BF0134204603F098
:10759000EBFC64235843224614F8013BA3F130016D
:1075A0000929F8D92E2B0BD15378303B092B07D85A
:1075B0000A2101FB03009378303B092B98BFC018C8
:1075C0002D2D08BF404238BD38B504460D4603F0A6
:1075D000CBFC6423B0FBF3F203FB1200114B2A80B7
:1075E000434320460278A2F130010929044600F104
:1075F0000100F7D92E2A0BD10A490A2014F8012FCD
:10760000303A092A04D8B1FBF0F101FB0233F5E767
:1076100003EB830301330322B3FBF2F36B6000231C
:107620002B7238BD8096980010B50346044653F877
:107630001C2F42605A6882601B7A0373034653F81A
:10764000282F02615A6842611B7A037600F0C8FB5A
:10765000012360636370237010BD00000000000010
:10766000D0B5002304464370806803F07FF80EA372
:10767000D3E9002303F01AFA0646A0880F4603F068
:1076800085F80B4602463946304602F033FF237B2D
:107690001BB1024601F1004301E002460B4643ECF8
:1076A000102BD0BDAFF300800000000065CDCD41B0
:1076B000D0B5002304464370406903F057F80EA389
:1076C000D3E9002303F0F2F90646208A0F4603F0BF
:1076D0005DF80B4602463946304602F00BFF237E2A
:1076E0001BB1024601F1004301E002460B4643ECA8
:1076F000102BD0BDAFF300800000000065CDCD4160
:1077000010B583684360044600F06AFB0123E06023
:107710006370237010BD10B583684360044600F0A9
:107720005FFB0123E0606370237010BD10B5044659
:107730000846FFF725FFA06010BD10B504460846B7
:1077400003F012FCA06010BD10B5C368836004464E
:1077500000F046FB012360606370237010BD10B51C
:1077600004460846FFF70CFFE06010BD10B5C36883
:107770008360044600F034FB012360606370237073
:1077800010BD10B50446084603F0EEFBE06010BDE6
:1077900010B501460446103004F048F800F020FB14
:1077A0000123206284F8253084F8243010BD102293
:1077B00004F091BDF8B590F871510446002D00F029
:1077C0008B8090F87211FFF7CBFE94F8731102468C
:1077D0002046FFF7C5FE94F8703100EB0210C0B2EE
:1077E000834272D1D4F89C310133C4F89C3194F8AF
:1077F000843123B1D4F894310133C4F8943194F82E
:107800008131FBB1012B4DD104F1F000FFF778FF7E
:1078100004F58070FFF77FFF94F8843104F1B80617
:107820004BB13046FFF700FF04F58870FFF78CFF7F
:1078300004F5907027E084F8B83084F8103184F8AB
:10784000203122E004F58070FFF765FF94F8843161
:1078500004F1B8065BB13046FFF7E6FE04F5987018
:10786000FFF772FF04F5A070FFF76EFF05E084F8E4
:10787000B83084F8303184F8403104F5A870FFF74F
:1078800075FF04F5B070FFF75FFF0021084600F0B8
:107890003FFA3146B822204603F01AFD00210120AC
:1078A00000F036FAD4F88C61002E00F0D980D4F8BC
:1078B0008C31B06A996A03F0AFFF002840F0D080A5
:1078C0003046FFF765FF366BEEE7D4F898310133A9
:1078D000C4F898310025C3E090F8822172BB00F50E
:1078E000B9766049304603F097FF20B15E493046D3
:1078F00003F092FF08B901230CE05C49304603F025
:107900008BFF20B15A49304603F086FF08B90023A7
:1079100000E0022384F88131D4F88831C4F88C3136
:10792000D4F88C71002F00F09B803146B86A03F0C8
:1079300073FF002880F290803B6BEFE790F8811195
:10794000022971D090F87231002B6DD042EA4112B9
:10795000013A282A68D8DFE802F01521242B3249A1
:1079600050575C67616767676767676767676767DF
:1079700067676767676767676767151C21242B322E
:10798000393E430000F5B97100F58070FFF7CEFE77
:107990004AE0A3F14100434243412BE000F1D4010E
:1079A00008E0A3F153014B424B4180F8DC303BE04F
:1079B00000F1E00104F5B970FFF706FE34E0A3F131
:1079C00057025342534180F8E8302DE000F5B97179
:1079D00000F5887026E000F5B97100F5907021E09F
:1079E00000F5B971F030FFF7A8FE1DE0302B94BF11
:1079F0000023012384F8843116E000F5B97100F505
:107A0000A870FFF7BEFE0FE000F5B97100F5B07089
:107A100008E000F5B97100F5987003E000F5B97160
:107A200000F5A070FFF79BFED4F88C6104F5B977E0
:107A3000B6B1D4F88C31B06A996A03F0EDFE78B92A
:107A4000F26A94F882319A420ADC03D13946304610
:107A5000FFF7ADFE366BEBE702D00023C4F88C31A4
:107A60002846F8BD44D30D004AD30D0050D30D0075
:107A700056D30D0038B5D0F89031242903F1010315
:107A800004460D46C0F890312AD090F8833104D8CE
:107A90000A290CD00D2932D109E02A2907D02C2936
:107AA0002DD190F8702182F02C0280F870210E2BDD
:107AB0004FF0000005D8234483F872012046FFF7F9
:107AC00079FE94F88231013384F88231002384F8FE
:107AD0008331A5F12A035D425D4184F8715138BDBF
:107AE0000020022384F8830184F8820184F8700165
:107AF00084F8813184F8710184F8840138BD0D2B3C
:107B00009FBF5A1C1B1984F8832183F8725194F883
:107B1000710128B994F870114D4084F8705138BD46
:107B2000002038BD00F094B913B50B46044603C8D5
:107B30008DE8030093E8030084E803009DE8030058
:107B400083E8030002B010BD08B5044B01221A708F
:107B500000F07EF9024B034A1A6008BD58E2032088
:107B600054E20320D5D60D0000F072B9704710B56D
:107B70002821044602F051FB204610BD10B50446F2
:107B800000F11801C06801F077FD208A0021BDE8EE
:107B9000104002F0D0BA10B504460121008A02F06C
:107BA000CAFAE068BDE8104001F04DBDF8B51E46C8
:107BB00003685B690F46144605469847012E88BF47
:107BC00047F0400747F08001E86801F0C5FD264412
:107BD000B44206D00021E86801F0BEFD04F8010BB4
:107BE000F6E72B6828469B6998470120F8BDF8B551
:107BF0001E4603685B690F46144605469847012EEA
:107C000088BF47F040073946E86801F0A5FD2644E3
:107C1000B44205D014F8011BE86801F09DFDF7E7B8
:107C20002B6828469B6998470120F8BD024A0260EC
:107C300000224160027270470CD70D0013B5036833
:107C400001AADC680123A0479DF8040002B010BD22
:107C500038B505460A240F212846FFF7EFFF3328E1
:107C60004FF0010005D000F0FBFB013CF3D12046B2
:107C700038BD38BD10B50446018AC06801F0D2FC99
:107C80002046BDE81040FFF7E3BF00F0E1B8000078
:107C9000024B01221A7000F0DBB800BF59E203204A
:107CA00008B5024B1B685B6C019308BD74020300AE
:107CB00008B5024B1B689B6C019308BD740203005E
:107CC00008B5024B1B685B68019308BD48020300BE
:107CD00008B5024B1B689B68019308BD480203006E
:107CE00008B5024B1B68DB68019308BD480203001E
:107CF00008B5024B1B681B69019308BD48020300CD
:107D000008B5024B1B685B69019308BD480203007C
:107D100008B5024B1B68DB69019308BD48020300EC
:107D200008B5024B1B681B6B019308BD480203009A
:107D300008B5024B1B689B6B019308BD480203000A
:107D400008B5024B1B681B6C019308BD4802030079
:107D500008B5024B1B685B6C019308BD4802030029
:107D600008B5024B1B689B6C019308BD48020300D9
:107D700008B5024B1B68DB6E019308BD4802030087
:107D800008B5024B1B685B6E019308BD340203000B
:107D900008B5024B1B689B6E019308BD34020300BB
:107DA00008B5024B1B68DB6E019308BD340203006B
:107DB00008B5024B1B685B68019308BD18020300FD
:107DC00008B5024B1B689B68019308BD18020300AD
:107DD00008B5024B1B68DB68019308BD180203005D
:107DE00008B5024B1B685B69019308BD18020300CC
:107DF00008B5024B1B68DB69019308BD180203003C
:107E000008B5024B1B681B6A019308BD18020300EA
:107E100008B5024B1B689B6B019308BD1802030059
:107E200008B5024B1B68DB6B019308BD1802030009
:107E300008B5024B1B689B6D019308BD1802030037
:107E400008B5024B1B68DB6D019308BD18020300E7
:107E500008B5024B1B681B68019308BD2C02030088
:107E600008B5024B1B689B68019308BD2C020300F8
:107E700008B5024B1B68DB68019308BD2C020300A8
:107E800008B5024B1B681B69019308BD2C02030057
:107E900008B5024B1B685B69019308BD2C02030007
:107EA00008B5024B1B689B69019308BD2C020300B7
:107EB00008B5024B1B68DB69019308BD2C02030067
:107EC00008B5024B1B681B6A019308BD2C02030016
:107ED00008B5024B1B685B6A019308BD2C020300C6
:107EE00008B5024B1B68DB68019308BD280203003C
:107EF00008B5024B1B689B69019308BD280203006B
:107F000008B5024B1B68DB69019308BD280203001A
:107F100008B5024B1B681B6A019308BD28020300C9
:107F200008B5024B1B685B6A019308BD2802030079
:107F300008B5024B1B689B6A019308BD2802030029
:107F400008B5024B1B68DB6A019308BD28020300D9
:107F500008B5024B1B681B6B019308BD2802030088
:107F600008B5024B1B685B6B019308BD2802030038
:107F700008B5024B1B681B6C019308BD2802030067
:107F800008B5024B1B689B6C019308BD28020300D7
:107F900008B5024B1B68DB6C019308BD2802030087
:107FA00008B5024B1B681B6D019308BD2802030036
:107FB00008B5024B1B685B69019308BD64020300AE
:107FC00008B5024B1B689B68019308BD680203005B
:107FD00008B5024B1B68DB68019308BD680203000B
:107FE00008B5024B1B681B68019308BD30020300F3
:107FF00008B5024B1B685B69019308BD30020300A2
:1080000008B5024B1B68DB69019308BD3002030011
:1080100008B5024B1B681B6A019308BD30020300C0
:1080200008B5024B1B685B6A019308BD3002030070
:1080300008B5024B1B68DB6B019308BD30020300DF
:1080400008B5024B1B681B6C019308BD300203008E
:1080500008B5024B1B685B6C019308BD300203003E
:1080600008B5024B1B681B68019308BD3C02030066
:1080700008B5024B1B68DB68019308BD3C02030096
:1080800008B5024B1B681B69019308BD3C02030045
:1080900008B5024B1B685B69019308BD3C020300F5
:1080A00008B5024B1B689B69019308BD3C020300A5
:1080B00008B5024B1B68DB69019308BD3C02030055
:1080C00008B5024B1B681B6A019308BD3C02030004
:1080D00008B5024B1B689B6A019308BD3C02030074
:1080E00008B5024B1B681B68019308BD4C020300D6
:1080F00008B5024B1B685B68019308BD4C02030086
:1081000008B5024B1B681B69019308BD4C020300B4
:1081100008B5024B1B685B69019308BD4C02030064
:1081200008B5024B1B689B69019308BD4C02030014
:1081300008B5024B1B68DB69019308BD4C020300C4
:1081400008B5024B1B681B6A019308BD4C02030073
:1081500008B5024B1B685B6B019308BD600203000E
:1081600008B5024B1B685B6D019308BD60020300FC
:1081700008B5034B1B68D3F89830019308BD000085
:108180006002030008B5024B1B681B68019308BD21
:108190002002030008B5024B1B685B68019308BD11
:1081A0002002030008B5024B1B685B69019308BD00
:1081B0002002030008B5024B1B689B69019308BDB0
:1081C0002002030008B5024B1B68DB6A019308BD5F
:1081D0002002030008B5024B1B68DB6C019308BD4D
:1081E0002002030008B5024B1B685B6D019308BDBC
:1081F0002002030008B5024B1B689B6D019308BD6C
:108200002002030008B5024B1B68DB6D019308BD1B
:108210002002030008B5034B1B68D3F88830019394
:1082200008BD00002002030008B5034B1B68D3F80B
:108230009430019308BD00002002030008B5034BF1
:108240001B68D3F8A830019308BD0000200203008A
:1082500008B5024B1B681B68019308BD440203006C
:1082600008B5024B1B685B68019308BD440203001C
:1082700008B5024B1B689B68019308BD44020300CC
:1082800008B5024B1B68DB68019308BD440203007C
:1082900008B5024B1B681B69019308BD440203002B
:1082A00008B5024B1B685B69019308BD44020300DB
:1082B00008B5024B1B68DB69019308BD440203004B
:1082C00008B5024B1B681B6A019308BD44020300FA
:1082D00008B5024B1B685B6A019308BD44020300AA
:1082E00008B5024B1B68DB6A019308BD440203001A
:1082F00008B5024B1B681B6B019308BD44020300C9
:1083000008B5024B1B685B6B019308BD4402030078
:1083100008B5024B1B68DB6B019308BD44020300E8
:1083200008B5024B1B685B68019308BD400203005F
:1083300008B5024B1B689B68019308BD400203000F
:1083400008B5024B1B68DB68019308BD40020300BF
:1083500008B5024B1B681B69019308BD400203006E
:1083600008B5024B1B685B69019308BD400203001E
:1083700008B5024B1B689B69019308BD40020300CE
:1083800008B5024B1B68DB69019308BD400203007E
:1083900008B5024B1B681B6A019308BD400203002D
:1083A00008B5024B1B681B6B019308BD400203001C
:1083B00008B5024B1B685B6B019308BD40020300CC
:1083C00008B5024B1B681B68019308BD1C02030023
:1083D00008B5024B1B685B68019308BD1C020300D3
:1083E00008B5024B1B689B68019308BD1C02030083
:1083F00008B5024B1B681B69019308BD1C020300F2
:1084000008B5024B1B689B69019308BD1C02030061
:1084100008B5024B1B68DB69019308BD1C02030011
:1084200008B5024B1B681B6A019308BD1C020300C0
:1084300008B5024B1B685B6A019308BD1C02030070
:1084400008B5024B1B68DB6A019308BD1C020300E0
:1084500008B5024B1B681B6B019308BD1C0203008F
:108460000021FFF79FBE10B5836804460BB901F0E9
:10847000F0FEC3689847A3681BB10322214620463B
:10848000984720461021BDE8104001F0C6BE10B547
:108490000446006808B1FFF763FC204610BD10B524
:1084A000036804469B689847A368013BA3602BB907
:1084B00023682046DB68BDE81040184710BD0B68F4
:1084C000036013B15A6801325A60704710B5044610
:1084D000006828B14368013B43600BB9FFF7DFFF39
:1084E000204610BD10B5064C002320462360FFF740
:1084F0002FFC2046034A0449BDE8104001F088BE25
:108500005CE20320A8DE03208F840D0000221146C8
:108510004068FFF71DBF002211464068FFF738BFD3
:10852000002211464068FFF743BF00224068FFF772
:1085300037BF002281F001014068FFF721BF00230F
:108540001A4619464068FFF713BF00231A4619461A
:108550004068FFF705BF002211464068FFF7E8BEFC
:10856000002202214068FFF7EBBE00231A46406854
:10857000FFF7D6BEF0B51B4B036000250F4628332E
:10858000182689B043608560C56032462946044696
:10859000103002F0C3FE2A4629467868FFF7D8FE5D
:1085A00008B9A0601BE02946324602A80095019553
:1085B00002F0B4FE02A96846ADF80860FFF770FB50
:1085C00010B10123A3600AE0009B019AA360E2605E
:1085D0000BB90223A36002A9204600F089F82046C7
:1085E00009B0F0BD5CD70D0038B5084C28252A46E7
:1085F0000021204602F092FE4FF0FF336360044BEF
:10860000258004225A60034A1A6038BD68E20320BC
:1086100060E2032028D70D007047007D70470000FE
:10862000037D1BB18369B3F1004F02D19FED050AB1
:10863000704707EE903A9FED047AF8EEE77A87EEFE
:10864000870A7047000000000000C842037D1BB18C
:10865000036AB3F1004F02D19FED050A704707EEA0
:10866000903A9FED047AF8EEE77A87EE870A704732
:10867000000000000000C84210B52821044601F0A7
:10868000CCFD204610BD0000037D7BB1436A002B6A
:108690000CDB07EE903ADFED076A9FED070AB8EEB4
:1086A000E77AC7EE267A27EE800A7047BFEE000A07
:1086B000704700BF00FF7F470000C842037D7BB1C9
:1086C000C369002B0CDB07EE903ADFED076A9FEDE4
:1086D000070AB8EEE77AC7EE267A27EE800A7047D7
:1086E000BFEE000A704700BF00FF7F470000C8428E
:1086F00030B50D4600F110040FCD0FC495E803000E
:1087000084E80300012030BD2DE9F04107460C4606
:1087100015462AB90368C9B29B68BDE8F0411847FD
:10872000002907DA0A2A05D12D2100F019FE61423D
:10873000064601E021460026EAB2384600F029FE4E
:108740003044BDE8F08170B50D4606460A228168C6
:108750002846FFF7D9FF2C210446284600F000FEEA
:108760000A220444F1682846FFF7CEFF204470BD7A
:10877000A0F10400FFF7E7BF70470020704710B575
:108780001021044601F049FD204610BD08B508B18E
:10879000FFF7F5FF08BD0022026010B54FF69C728E
:1087A0008280B1F9044084808A8002680C68046089
:1087B0000A6010BD10B504460068FFF709FE2046A8
:1087C00010BD38B5C468F4B12378022B03D104F18D
:1087D0000C00FFF7EFFF656835B12846FEF773F927
:1087E0001021284601F019FDA56835B12846FEF78D
:1087F0006AF91021284601F010FD20461421BDE839
:10880000384001F00ABD38BD10B588B0044668464E
:1088100000F0F2FF694604A801F010F804A8A04790
:10882000044604A800F0A1FF684600F09EFF204621
:1088300008B010BDF0B5102485B007460E461546A9
:1088400000212246684602F069FD00226946104672
:10885000ADF80040029703960195FFF701FD05B0C2
:10886000F0BD13B5044691E8050000234B600B6092
:108870002060626001A801930093FFF727FE204665
:1088800002B010BDF7B50C4602AD54F8043B45F8F4
:10889000083D06460F4601A82146FFF710FE29466F
:1088A0003046FFF7DEFF01A8FFF710FE2046FFF776
:1088B0000DFE3846082101F0B0FC304603B0F0BD93
:1088C00038B500230446036010200D46FBF7E5FB96
:1088D00028B1012343608360024B0360C5602060C0
:1088E000204638BD90D70D00826810B50AB901F056
:1088F000B0FCC368BDE81040184708B5006800F137
:108900001001FFF7F1FF08BD826810B50AB901F048
:10891000A0FCC368BDE81040184708B5006800F126
:108920001001FFF7F1FF08BD38B5002383608B68A5
:1089300004460D462BB102229847EB68E360AB6812
:10894000A360204638BD0000F0B589B004686846D1
:10895000FFF721FF00238DF808304FF00202D4E822
:108960004F3F002B03D1C4E8412F0029F7D102D09B
:108970008DF8083063E014F10C0503D069462846F1
:10898000FFF709FFBFF35F8F01236370002004F13D
:108990000803BFF35F8F53E8006F43E80002002A2B
:1089A000F9D1BFF35F8F002E49D0FFF713FC20B140
:1089B00029463046FFF798FF3AE0314602A8FFF714
:1089C000B3FFE068B4F9105008B102F037FF069029
:1089D0001020ADF81C50FBF760FB0546E8B10027FE
:1089E00087601820FBF759FB044688B10146876071
:1089F00002A8FFF799F8049BA268A360059B049264
:108A000006A9E268E36004F110000592FFF7C3FED7
:108A10000D4BEB600D4B2C60AB6006A8FFF7CAFE58
:108A200002A8FEF750F8002229460948FFF7DAFBB2
:108A30003046FEF748F81021304601F0EEFB68465C
:108A4000FFF7B8FE09B0F0BDFB880D00718B0D007B
:108A500067840D002DE9F04F8BB006460F46904617
:108A600099469DF850A0FFF71BFC07AD834630BB2D
:108A70004FF62E73059005A92846ADF81830FFF77C
:108A80008AFE1420FBF709FB044658B10223037049
:108A900001234370C0F804B0C0F808B029460C3078
:108AA000FFF779FE3046214640F8044BFFF708FFF8
:108AB0002846FFF77FFE05A8FFF77CFE52E0002462
:108AC0000C2314206C60AC600793FBF7E6FA0146B8
:108AD00018B1047044704460846004A80391FFF7E7
:108AE000EFFE224B08930820FBF7D7FA044628B183
:108AF000039B40F8043B04A9FFF7E1FC00955FFAF3
:108B00008AF34A46414638460994FFF7D9FB20B913
:108B1000039B5B7803F0FF0283B1039B059304A9D9
:108B200006A8FFF7CCFC05A93046FFF79AFE06A879
:108B3000FFF7CCFC04A8FFF7C9FC13E04FF69C73C9
:108B400005A903A80592ADF81830FFF7FDFE05A8AA
:108B5000FFF730FE05A80999FFF794FE06A8FFF776
:108B6000B5FCDAE730460BB0BDE8F08FE18C0D00C4
:108B7000022AF8B5044606D0032A17D0012A22D1CA
:108B80000B6803601FE018200E68FBF786FA0546A5
:108B900050B13146FFF7C8FE3069B6F9147008B11C
:108BA00002F04CFE2861AF8225600CE0046854B1ED
:108BB00004F11000FFF7FEFD2046FDF784FF1821A9
:108BC000204601F02AFB0020F8BD38B50023836061
:108BD0008B6804460D462BB102229847EB68E36090
:108BE000AB68A360204638BD022A70B5044606D0A3
:108BF000032A11D0012A18D10B68036015E0142054
:108C00000E68FBF74AFA054620B13146FFF7DDFF53
:108C1000337C2B74256008E0046834B12046FDF7EE
:108C200052FF1421204601F0F8FA002070BD000028
:108C3000F0B5002387B00C46BFF35F8F50E8006F9C
:108C400040E80032002AF9D1BFF35F8F002E3FD0F9
:108C50001846FFF7BFFA074620B121463046FFF716
:108C600053FE2EE0314601A8FFF7AFFF23788DF8C1
:108C700014301020FBF711FA0546D0B1876014209C
:108C8000FBF70BFA044678B18760014601A8FEF7AE
:108C90004BFF039BA268A360049B0392E268E3601E
:108CA0009DF81430049223740A4BEB600A4B2C603D
:108CB000AB6001A8FDF707FF002229460748FFF730
:108CC00091FA3046FDF7FFFE1021304601F0A5FA7B
:108CD00007B0F0BD1B890D00E98B0D0067840D0006
:108CE00030B585B004460D4668461146FFF7CAFD0B
:108CF0007CB124B228460DB102F0A0FD029002A979
:108D00006846ADF80C40FFF71FFE02A8FFF752FDC2
:108D10001DE000988DF808404FF00102D0E84F3F69
:108D2000A34203D1C0E8412F0029F7D102D08DF82A
:108D300008300CE010F10C014FF0010318BF037371
:108D4000BFF35F8F043000F8033CFFF771FF01A809
:108D5000FFF7BCFB05B030BD002211464068FFF7AD
:108D600017BB002211464068FFF722BB0022406873
:108D7000FFF716BB002281F001014068FFF700BB3E
:108D800000231A4619464068FFF7F2BA00231A4634
:108D900019464068FFF7E4BA002211464068FFF721
:108DA000D7BA002211464068FFF7C2BA002202215A
:108DB0004068FFF7C5BA00231A464068FFF7B0BA0B
:108DC000024B03225A60024A1A60704790E2032065
:108DD000ACD70D007047F8B5064615460C468F18FF
:108DE000BC4206D0336814F8011B9B683046984794
:108DF000F6E72846F8BD0022007CFFF789B800217D
:108E0000007CFFF78DB80021007CFFF791B80021AE
:108E1000007CFFF795B80021007CFFF799B810B5EA
:108E20001421044601F0F9F9204610BD10B504469E
:108E3000002363604FF47A73A360044B21740846E7
:108E400023601146FFF794F8204610BDE0D70D00CF
:108E500000231A461946007CFFF742B870B50C464D
:108E600086B0142506462A46002101A802F056FACB
:108E700023788DF8083063680393E3680493002235
:108E8000237A307CADF8045001A90593FFF788F8E8
:108E900006B070BD1FB500338DF800104FF06401AF
:108EA000039118BF0123694601928DF80830FFF73E
:108EB000D5FF05B05DF804FB0022007CFFF718B871
:108EC000C9B2FFF7F9BF0022007CFFF719B80021F3
:108ED000007CFFF745B808B50021007CFFF750F88B
:108EE000B0FA80F0400908BD08B50021007CFFF70A
:108EF0004FF8B0FA80F0400908BD0047F0B585B0E2
:108F00001C460E4617460546FEF7D2FF0020844257
:108F10004FF0040303908DF80C30A5BF9DF8283066
:108F20008DF80E30034603AB009332463B460649AC
:108F3000A8BF8DF80D402846FEF7B2FFB0FA80F0CA
:108F4000400905B0F0BD00BFFB8E0D00FEF7C0BFAD
:108F5000FEF7B6BF704710B51821044601F05DF961
:108F6000204610BDF0B5037D062B8DB00E4600F1F6
:108F700004074FF0000402D000F1080518E00CAD22
:108F8000394605F8304D2F232A460A20FFF710F8FE
:108F9000284603F083F933680246DB6829463046E9
:108FA00098470FE024B12E21304600F0D9F904444F
:108FB00015F8011D0A22304600F0EBF9BD420444C9
:108FC000F0D120460DB0F0BD10B5054B044611227E
:108FD00040F8043B002102F0A1F9204610BD00BF7B
:108FE00008D80D000346074A10B543F8042B01F1D9
:108FF000100251F8044B43F8044B9142F9D10A781E
:109000001A7010BD08D80D0010B59DF8084044EA4C
:10901000032343EA024242EA0161042341600375EB
:1090200010BD37B50D788B784A78C97800912946FC
:10903000FFF7EAFF03B030BD014B024A1A607047E8
:1090400098E2032084D80D00002211464068FFF703
:109050009FB9002211464068FFF7AAB90022406874
:10906000FFF79EB9002281F001014068FFF788B93F
:1090700000231A4601214068FFF77AB900231A46F7
:1090800019464068FFF76CB9002211464068FFF7A7
:109090005FB9002211464068FFF74AB90022022159
:1090A0004068FFF74DB900231A464068FFF738B90A
:1090B00038B5054688B104684CB1A3681BB10322DA
:1090C0002146204698471021204601F0A6F8284660
:1090D0001421BDE8384001F0A0B838BD10B10368D4
:1090E0005B681847704710B503680446BBB1586801
:1090F000FEF7EEFD78B923685A7C12B95868FEF77E
:10910000F7FD23685868FEF7FBFD20680023236005
:1091100028B1FFF7CDFF206808B1FFF7C9FF20464F
:1091200010BD38B50446D0F8C40108B1FAF7B9FF4C
:10913000D4F8C00108B1FEF713FED4F8BC5135B124
:109140002846FFF7D0FF0421284601F066F8206882
:1091500008B1FFF7C3FF204638BD000010B5044B2F
:10916000044640F8083BFFF7DCFF204610BD00BF77
:10917000F0D80D0038B50E4C0E4B236000250223AD
:1091800004F5E4706360A560C4F8C451C4F8C85124
:10919000FEF7DEFD084BC4F8CC5184F8D0512360B3
:1091A0002046064A0649BDE8384001F031B800BF04
:1091B0009CE2032024D90D00F0D80D00A8DE032086
:1091C0005D910D0000231A464068FFF7A9B8002200
:1091D00002214068FFF7B4B8002211464068FFF74B
:1091E000A7B8002211464068FFF7B2B800231A461C
:1091F00019464068FFF7B4B800231A46194640687C
:10920000FFF7B6B8002281F001014068FFF7B8B857
:1092100000224068FFF7C4B8002211464068FFF7FB
:10922000C7B8002211464068FFF7B2B82DE9F043F5
:10923000002495B016460D460746FFF7C5FE2146A9
:1092400020220CA8009402F069F840230C932146D8
:109250006B460CAA3046FEF7BBFE0446002844D1FC
:10926000024601216868FFF773F802218046224612
:109270006868FFF76DF8009E81462146002E34D0C5
:10928000002932D17368022B02D00A2B09D02AE0C0
:10929000B8F1000F27D0716938460431FFF7C1FEDD
:1092A00020E0B9F1000F1ED07469112201A802F06C
:1092B00035F806238DF8143001AD04F10803183495
:1092C000186859682A4603C20833A3421546F7D1E5
:1092D00001A906A807ADFFF785FE0FCD3C1D0FC401
:1092E0002B6823700121F669C8E70098FEF768FE35
:1092F000384615B0BDE8F083024B034A1A600022DD
:109300005A60704770E4032024D90D00F8B5064672
:109310000D468F180024BD420CD0336815F8011B90
:109320009B6830469847002801DB0444F3E7002C93
:1093300008BF04462046F8BD70B505460C460846F1
:1093400049B102F0ABFF2B68024621462846DB6894
:10935000BDE87040184770BD08B5FFF7EDFF08BDC8
:1093600003689B68184738B50D210546FFF7F8FFDD
:109370000A2104462846FFF7F3FF204438BD38B5DC
:109380000546FFF7D9FF04462846FFF7ECFF2044C7
:1093900038BD30B58BB00B4600218DF82410012A62
:1093A00098BF0A220DF12304B3FBF2F505FB12333B
:1093B00003F0FF03092B94BF30333733DBB2214670
:1093C00004F801392B46002DEED1FFF7B5FF0BB0A5
:1093D00030BD00002DE9F04757EC106B82460D467A
:1093E00010EE102A3B4610EE100A394601F0CEFC72
:1093F00008B14E4912E027F000494FF0FF324C4BC4
:109400003046494601F0C2FC68B94FF0FF32484B84
:109410003046494601F09CFC28B946495046FFF7C2
:109420008BFFBDE8F0874FF06042434B3046394632
:1094300001F0A2FC08B14149F0E74FF06042404B17
:109440003046394601F07AFC0028F4D1002200238E
:109450003046394601F072FC40B12D215046FFF7ED
:109460007FFF07F1004304461F4600E004463549EC
:109470004FF0000800205FFA88F39D4206D90022D1
:10948000314B01F013FB08F10108F4E732463B468B
:1094900001F030F80F46064601F0B6FC0A220146FC
:1094A00080465046FFF775FF0444E5B3404601F09F
:1094B0005DF902460B463046394601F019F806467A
:1094C0000F4650462149FFF737FF044400221E4B48
:1094D0003046394601F0C0F906460F4601F06CFCF3
:1094E000B0F1000907DA2D215046FFF739FFC9F125
:1094F0000001804602E049464FF000080A2250462B
:10950000FFF747FF40440444484601F03FF9024654
:109510000B463046394600F0EBFF013D15F0FF05E4
:1095200006460F46D2D12046BDE8F08750D90D003F
:10953000FFFFEF7F5AD90D00FFFFEF4154D90D0017
:10954000FFFFEFC10000E03F0000244058D90D00AC
:1095500038B5C9B20546FFF73DFF04462846FFF778
:1095600002FF204438BD0CB42DE9F04387B000AFB2
:1095700007F13804054654F8049B3C600E46234628
:109580004A461421381DFEF753FF132805D8391D0C
:109590002846FFF7D1FE044613E000F1080323F04C
:1095A0000703E846ADEB030D411C23464A466846D7
:1095B0003C60FEF73DFF69462846FFF7BDFE0446C6
:1095C000C5461EB12846FFF7CEFE044420461C3790
:1095D000BD46BDE8F04302B0704710B50446FDF744
:1095E00072FA204610BD00000348044A04490023D3
:1095F000836000F00DBE00BF78E40320A8DE0320E6
:10960000DB950D000021FEF71BBD0021FEF720BDFC
:1096100010B5044601700846FEF7F2FC00236360B3
:10962000204610BD38B5044600780D46FFF7EAFF26
:1096300040B920782946FEF7D3FC2078BDE83840B1
:10964000FFF7E3BF38BD0078FFF7DFBF400830B554
:109650001860002418688842E5B206D90134082C45
:1096600002D040081860F5E70725024B5B5D1370D8
:1096700030BD00BF5ED90D002DE9F04307468FB025
:1096800000780E46FFF7BEFF002862DB3C7814220C
:10969000002109A801F042FE0B232046002209A95F
:1096A000ADF82430FEF7BCFC9DF82D4054B19DF878
:1096B0002C5035B9DDF830809DF834909DF8354058
:1096C00003E00024A146A0460125337905B1BBB9CA
:1096D0009D420BD1B268424508D18DF820908DF89B
:1096E0002140BDF82010B289914209D053B1002425
:1096F000387801940094234622460121FEF798FC15
:10970000002026E08DF80F30B1680A9804AB0DF107
:109710000F02FFF79BFF317905B1B1B9A94208D01B
:10972000002438780194747B337B9DF80F200094DB
:10973000E4E7B3684345F3D38DF820908DF82140DA
:10974000BDF82020B3899A42EAD1049B4345E7D172
:10975000D6E70FB0BDE8F08308B50078FEF748FC07
:10976000C0B208BD0078FEF753BC10B504460068CF
:10977000FEF72EFE204610BD10B50446006808B165
:10978000FEF726FE00232360A360636010BD38B59A
:1097900004460D4600680131FEF722FE10B184E850
:1097A0002100012038BD10B50368044613B1436899
:1097B0008B4207D22046FFF7EAFF20B1A3680BB91E
:1097C00022681370012010BD70B50E461146044684
:1097D0001546FFF7E8FF18B92046FFF7CDFF09E06F
:1097E0002A463146A560206801F072FD2268A36810
:1097F0000021D154204670BD38B5002304460360D3
:109800004360836003730D4639B1084602F046FD9C
:10981000294602462046FFF7D7FF204638BD88423A
:1098200010B50B46044607D0096819B19A68FFF7CE
:10983000CBFF01E0FFF7A0FF204610BD10B50023CD
:1098400004460360436083600373FFF7E8FF20462C
:1098500010BD08B582680B4612B919B9012008BDC0
:1098600011B90368187802E0006801F0D5FFB0FA7A
:1098700080F0400908BD70B50E469AB191B1856877
:109880009D4202D800230B7070BD541EED1A016872
:10989000AC4228BF2C4619442246304602F01BFD3C
:1098A0000023335570BD10B50446006818B1FEF7AB
:1098B0008FFD0023236010BD38B5B1F904308380DB
:1098C0000B460D4653F8062FC0F806209B884381AF
:1098D0000446FFF7E8FF2B6813B1236000232B60D9
:1098E000204638BDB1F9043010B50BB90A689AB1F9
:1098F0000C685CB1A288012A03D0042A06D1022296
:1099000005E0A4894C818A710B8105E004220B815A
:109910004FF6FF738A714B8151F8063F03608B88C5
:10992000838010BD014600228C20FEF731BA002052
:10993000FFF7F8BF30B5044685B0084611461A4611
:109940000023FEF737FC0D4DADF80C00002301A9F4
:109950000193ADF808308DF80A3028464FF6FF73B2
:10996000ADF80E30FFF7A8FF01A8FFF79CFF2046D7
:109970002946FFF7B7FF204605B030BD88E4032035
:1099800010B5094C00204FF6FF732060A080A07135
:1099900020816381FEF7FEFB2046044A0449BDE8AE
:1099A000104000F035BC00BF88E40320A8DE03208F
:1099B000A9410D00F0B5144B144F1E68144B06441A
:1099C00018683B6806449E428BB01BD00AA801ADC4
:1099D00040F8286D01F084FB436903F26C73436126
:1099E00004460FCC0FC50FCC0FC5D4F800E0C5F866
:1099F00000E001AD0FCD074C0FC40FCD0FC43E608A
:109A0000C4F800E00BB0F0BDC4E40320C0E40320C0
:109A1000BCE4032094E4032008B50020FEF768FCB2
:109A200028B1FEF73DFC80F00100C0B208BD012066
:109A300008BD000008B5FFF7BDFF024B9869013073
:109A400008BD00BF94E4032008B5FFF7B3FF024B45
:109A50001869013008BD00BF94E4032008B5FEF783
:109A6000C7F9034B1B681844024B1B68184408BD18
:109A7000C4E40320BCE40320FAEE087AB4EEE70A5B
:109A8000F1EE10FA0FD4F2EE0C7AB4EEE70AF1EE32
:109A900010FA08DCDFED047A044B20EE270ABDEE55
:109AA000C00A83ED000A704700006145C4E403204A
:109AB000B5EEC00AF1EE10FA0FD4F0EE007AB4EE73
:109AC000E70AF1EE10FA08DCDFED047A044B20EE31
:109AD000270ABDEEC00A83ED000A70470000614509
