:02000002D0002C
:1040000000400D00A0E80D00000006000D000501B5
:084010000401E70500000000B7
:04401800D8C90D00F6
:1040200009480A49884208B505D0094A824202D0A7
:10403000121A07F0FDF80748074A0021121A07F084
:104040001DF9014808BD00BF50DD03201CE70D002D
:10405000A8DE0320A8DE0320F0E7032070B505F0FA
:104060008FFF074C074BE41AA40800251E46A54203
:1040700004D056F8253098470135F8E770BD00BFE9
:10408000FCDE0D0090DE0D0001F062B908B500F015
:1040900067FFBDE8084005F035BF04F041B904F002
:1040A00047B904F045B9000008B5034A00210C20C7
:1040B00003F0FEFFFEE700BF317D0D000078B0FA8F
:1040C00080F040097047012303707047014B0122C3
:1040D0001A70704764DF032010B503682F2B044665
:1040E00004D9074A00210A2003F0E2FF23681F2BAE
:1040F00083BF03F01F03236002484FF0A04010BDB0
:10410000317D0D000003005038B50446006928B128
:1041100085680C2106F031F82846F8E7204638BDBE
:1041200008B5044905F045FB18B1034801F0AAFCA5
:10413000012008BD97CE0D0018E0032008B5044902
:1041400005F037FB18B1034B03221A70012008BD9C
:1041500097CE0D0059DF032010B5034B03600446D2
:1041600002F0E6FC204610BD10CA0D0010B5044652
:10417000FFF7F2FF2046382105F0FFFF204610BD73
:1041800010B5034B0360044601F05CFC204610BDF3
:10419000F4C90D0010B50446FFF7F2FF20461021C8
:1041A00005F0EBFF204610BD10B50446006808B1CD
:1041B00004F0BEF8204610BD08B504F021F820B187
:1041C0000020BDE8084004F03BB808BD08B5002059
:1041D00004F03EF828B104F013F880F00100C0B2FA
:1041E00008BD012008BD10B500210446084603F0B3
:1041F0003FFDD4F8A0400021012003F039FDE0B2DA
:1042000010BD30B500218FB00446084603F030FDE4
:104210000FCC6D460FC50FCC0FC50FCC0FC594E862
:10422000030085E803000021012003F021FD68461A
:1042300003F0C6F951EC100B06F0B6FD00EE100AC3
:104240000FB030BD30B500218FB00446084603F0F2
:104250000FFD0FCC6D460FC50FCC0FC50FCC0FC592
:1042600094E8030085E803000021012003F000FD2D
:10427000684603F0CDF951EC100B06F095FD00EE09
:10428000100A0FB030BD002003F08ABD08B52DED37
:10429000028BB0EE408A28B10138FFF7F7FF28EE15
:1042A000000A01E0B7EE000ABDEC028B08BD0EB4B7
:1042B00000B58CB00DAA202352F8041B03928DE8A0
:1042C000060004930168002304AA1E20059303F04E
:1042D000F7FE0CB05DF804EB03B0704737B5046827
:1042E0009DF818508DF800308DF80450E4683C2398
:1042F000A04703B030BD000010B50B7892B00C465B
:1043000023B9194902A807F041FA17E0084606F058
:10431000D7FDC82804D0204606F0D2FDC92819D1FF
:10432000124902A807F032FA05F07DFC104BD86163
:10433000104B01221A70104B00221A700F4B1049BB
:104340001B78104800228DF8002002AAFFF7C6FF54
:1043500012B010BD204606F0B3FD0B4A03464021C3
:1043600002A804F005F8E9E778CA0D008DCA0D002F
:104370004CE0032058DF032028E003200CDF03205B
:1043800080CA0D00ACDE03209FCA0D0013B50B4997
:1043900005F00FFA002478B1094B0A4A1B780A4944
:1043A0008DF800400948FFF799FF234601220A21B2
:1043B000074802F080F8012002B010BD97CE0D0032
:1043C0000CDF0320BCCA0D0000CD0D00ACDE0320C5
:1043D000F0DE032037B51A49044605F0EAF9054630
:1043E000A0B1184B01241C71174B1C7003F008FF7F
:1043F00008B9012022E0154B15491B781548002209
:104400008DF80020144AFFF769FFF2E713492046B0
:1044100005F0CFF990B10B4B1D710B4B01241C70B3
:1044200003F0EEFE0028E4D0084B0D4A1B78084943
:104430008DF800500748FFF751FF204603B030BD0C
:1044400097CE0D004CE0032058DF03200CDF032043
:10445000F7CA0D00ACDE0320D4CA0D00E5CA0D007A
:10446000E7CA0D00000000002DE9F043CBB0044680
:10447000FFF7A2FEFFF707FF0027064647F22F5877
:104480004FF00009FFF7FFFE801B61EB0701894534
:1044900008BF804505D3FFF799FE10B903F098FED9
:1044A000F0E7FFF793FE0A2205A9206807F05CFFFA
:1044B00000F10C03DBB2182B49D845B207EE905A35
:1044C000274BB8EEE70A012483ED050A05F084FACC
:1044D000244B1C7005F072FA064605F0A4FB301A56
:1044E00006F004F91CA3D3E9002306F08FFA1E4A54
:1044F000CDE900010A211D4803F03AFF03F080FED8
:1045000018B31B4E1B4A2B464FF4807100250AA896
:1045100003F02EFF337818498DF800500AAA174887
:10452000FFF7DCFE05F07FFB014606A805F0A4FAC4
:10453000069B0393039A33780F498DF800500F4878
:10454000FFF7CCFE06A805F0C0F8204600E00020EA
:104550004BB0BDE8F08300BF000000000020AC407D
:104560004CE0032058DF0320FCCA0D00E4DE0320EA
:104570000CDF032006CB0D001ACB0D00ACDE0320B0
:1045800010B5C4B00A2203A9006807F0EDFEC3B25B
:104590005A1E3B2A18D80F4A93710F4A01241470EF
:1045A0004FF480710D4A04A803F0E2FE03F028FEE8
:1045B00060B10B4B0B491B780B4800228DF8002093
:1045C00004AAFFF78BFE01E0002000E0204644B083
:1045D00010BD00BF4CE0032058DF03201FCB0D00AF
:1045E0000CDF03206ACD0D00ACDE03202DE9F04F77
:1045F000234B244C9D68A2691B69D3B0D4E90067A2
:10460000D4E90289D4E904AB1193109205F00BFBB5
:1046100094ED0A7B8DED0E7B94ED087B119B109A37
:104620000893194B0A908DED0C7B09920793069520
:10463000CDE904ABCDE90289CDE90067134A4FF417
:10464000807112A803F094FE114B12491B78124896
:1046500000228DF8002012AAFFF740FE0F4B012226
:104660001A7003F06DFB0E4B186005F0E3FA0D4B6A
:10467000186005F0E9FA0C4B186053B0BDE8F08FF4
:104680004CE00320E8DF032041DF032041CB0D0095
:104690000CDF0320D1CB0D00ACDE032028E003208B
:1046A00054DF032060DF0320E4DF0320000000006C
:1046B00038B52DED028B054600241B480022294603
:1046C00001F0E0F81848B0EE408A01F0B3F950B9B3
:1046D0000134042CF1D105F0D1FB144904F0FFFDA5
:1046E0009FED0F8B15E0032CF5D0B0EE480A0E4875
:1046F00001F086F910EE100A06F00AF841EC180BEA
:1047000005F0BCFBB0EE480AF0EE680A022104F0A6
:10471000CFFEB0EE480AF0EE680ABDEC028B38BD61
:10472000000000000000F87F2CE00320E6CB0D0025
:1047300030B5194D0FCD99B004AC0FC40FCD0FC4D7
:1047400095E8030084E8030014490EA803F0C2FEB4
:104750000EA803F012FF04460EA803F05FFF0EA898
:1047600010EE105A03F040FF18AB10EE100A03EBE6
:10477000840405F0CDFFCDE90201284605F0C8FF0D
:10478000CDE90001064A54F8503C0648402103F0A8
:10479000EFFD19B030BD00BF30CA0D005CE2032050
:1047A000F6CB0D0098DF032037B5164D2A6892F836
:1047B000513092F8501002A803F01F0343EA41134E
:1047C00040F8083DFFF788FC009B2A68012404FAA2
:1047D00003F3C0F8083592F8513092F8501002A84F
:1047E00003F01F0343EA411340F8043DFFF774FC54
:1047F000019B9C40044BC0F80C4500221A7003B08A
:1048000030BD00BF94DF032064DF032010B52024F7
:1048100090B022460021684606F030FD2246002175
:104820000DEB04008DF8054006F028FD00210DEB8E
:1048300004008DF8254003F0B1FC4FF46173ADF82E
:104840000830ADF80A3041F21003ADF80C30009B8F
:1048500041F2700243F4007300216846ADF806206F
:10486000009303F09BFC10B010BD00002DE9F8434D
:104870001D481E4D406800231A46194603F020FDCE
:1048800003F0AEFC4FF4967440F2E7360027FFF7D2
:10489000FAFC4FF000098046FFF7F5FCB0EB08008A
:1048A00061EB09018F4208BF864205D303F0A8FCE3
:1048B00010B903F08DFCEFE703F0A2FC58B103F050
:1048C0009FFC30B10A4A0123D3700A4A1370BDE835
:1048D000F883BDE8F88303F033FA286003F078FC2E
:1048E000013CECD0D3E700BF5CE2032008E60320E4
:1048F0004CE0032058DF032008B503F081FC80F072
:104900000100C0B208BD0000F8B503F071FCFFF76C
:10491000BAFC0025044643F697260027FFF7B3FCB0
:10492000001B61EB05018F4208BF864205D3FFF7EC
:10493000E3FF10B903F04CFCF0E7FFF7DDFF094897
:10494000002319461A46406803F0C2FC064B0022B9
:10495000DA70064B01244FF4FA601C7003F030FD4E
:104960002046F8BD5CE203204CE0032058DF032022
:1049700030B5134D134C14492A7820788DB00E238E
:1049800003FB0212009203FB0013104A282102A825
:1049900003F0EEFC2B78237003F032FC48B10C4B93
:1049A0000C491B780C4800228DF8002002AAFFF762
:1049B00095FC05F063FA02A904F091FC0DB030BD3E
:1049C00059DF032040DF032050DD03200FCC0D0012
:1049D0000CDF03201DCC0D00ACDE032037B503F047
:1049E00007FC03F0ADF943F69725044603F008FCF5
:1049F00040B103F0A5F9001BA84203D8642003F0DE
:104A0000DFFCF3E70021094B47F23052084603F080
:104A1000FFF84FF47A7003F0D3FC054B0A221B68B1
:104A20000121684604F036FF03B030BD2ECC0D00E6
:104A300080DF0320F7B5154B154A1B78154916483A
:104A400000248DF80040FFF749FC144B1C71FFF760
:104A5000B3FBFFF718FC0025044647F22F5600274A
:104A6000FFF711FC001B61EB05018F4208BF864276
:104A700005D3FFF7ABFB10B903F0AAFBF0E7FFF794
:104A8000A5FB074B01221A7003B0F0BD0CDF032019
:104A90003BCC0D0043CC0D00ACDE03204CE00320EA
:104AA00058DF032038B505F0D9F8054605F0E7F8DA
:104AB000044605F0DDF8231F062B0ED9E31E082B54
:104AC0000DD801382D1A01D50B2C02E0072D06DD7B
:104AD000032C14BF0020012038BD012038BD002068
:104AE00038BD00000000000070B52DED028BCAB08B
:104AF000044605F098F80A22064605A9206807F042
:104B000033FCC3B2022B58D840B207EE900AB8EE7D
:104B1000E78AB0EE480A04F07BFF2D4B83ED068A4E
:104B20002C4B01221A7018EE100A05F0F1FD2A4AEA
:104B3000CDE900014FF480710AA803F019FC05F0DB
:104B400051F838B1FFF7AEFF10B104F07BFF01E080
:104B500004F082FF04F032FF044605F064F8201AE6
:104B600005F0C4FD18A3D3E9002305F04FFF1B4A4D
:104B7000CDE900010A211A4803F0FAFB03F040FBDB
:104B8000E8B1184D18492B78184800240AAA8DF866
:104B90000040FFF7A3FB314606A804F06DFF069B1B
:104BA00003938DF800402B78039A0F490F48FFF7C5
:104BB00095FB06A804F089FD01E0002000E001203B
:104BC0004AB0BDEC028B70BD000000000020AC407C
:104BD0004CE0032058DF032051CC0D00FCCA0D002F
:104BE000E4DE03200CDF03201ACB0D00ACDE032033
:104BF0002DE9F041694CACB003F0A2F82368C01A6B
:104C000041F28733984240F2C68003F099F8206061
:104C1000634C00216568084603F02AF895F8008087
:104C20006E6B604D0021012003F022F82746B8F199
:104C3000000F70D003F084F842F20F73801B98428B
:104C400069D86068584EFFF7DCFA10EE100A05F0DC
:104C50005FFDC6E908016068FFF7F4FA10EE100A7C
:104C600005F056FDC6E90A016068FFF7CAFA6068F8
:104C700010EE106AFFF7E6FA002167688DED090A69
:104C8000084602F0F5FF00210120D7F8807002F0FD
:104C9000EFFF6068FFF7A7FA8046204602F0D0FADF
:104CA00000210446084602F0E3FF00210120D4F869
:104CB000B04002F0DDFF38460794CDF8188005F0CB
:104CC00015FD3A4B002205F0A1FE06F06DF805F047
:104CD0001FFD9DED090ACDE9040110EE100A05F053
:104CE00017FDCDE90201304605F012FD304ACDE94D
:104CF000000180210CA803F03BFB2B78EBB10023D3
:104D00002B7003F01DF82B4B2B491A68821A2B4885
:104D1000FFF7CDFA11E07868FFF765FA284A0346F5
:104D200080210CA803F024FB2B7833B91D4B012202
:104D30001A7003F005F81F4B18600CA91F48FFF705
:104D4000B6FA03F05DFA30B31E4C02F0F9FF2368A7
:104D5000C01A1D4B98421ED902F0F2FF1B4B206077
:104D60001B788DF800300CAA3C2319490AA803F0DF
:104D700021FE0B9C7CB16368013B63605BB92368D7
:104D800020469B689847A368013BA3601BB9236832
:104D90002046DB6898472CB0BDE8F0815CDF03203B
:104DA00010DF032090DF0320E8DF032000005940DC
:104DB00062CC0D00D8DF032093CC0D0094E20320D9
:104DC000B3CC0D0048E00320BFD401000CDF03206A
:104DD000CDCC0D0030B585B00D4604A9002241F8B8
:104DE000102D03F075F9A8B9009C0CB1236923B903
:104DF000094A00210A2003F05BF9002301930C23E8
:104E0000ADF80430042303930295236901AA01211C
:104E10002046984705B030BD317D0D0030B50E4DB0
:104E20000FCD89B001AC0FC495E8070084E80700F6
:104E300069460720FFF7CEFF0028A8BF0098074A61
:104E400008AB03EB8000102150F81C3C044803F031
:104E50008FFA09B030BD00BF58CA0D0002D00D0056
:104E600041DF0320F0B585B0FFF7C2FE324B0022D0
:104E70001146586803F01CFA08B1FFF759FC2F4E91
:104E80002F4F00243019FFF713FC51EC100B05F0E5
:104E90008BFF07EE900AF4EE677AF1EE10FA04D673
:104EA00005F036FC3D19C5E900010834182CE9D19C
:104EB000234C2448D4E900230C21CDE90023224AC5
:104EC00003F056FAD4E902230C21CDE900231F4850
:104ED0001D4A03F04DFAD4E904230C21CDE9002347
:104EE0001B48194A03F044FAFFF798FF03A903206F
:104EF000FFF770FF88B90620B0EE000AFFF7C6F989
:104F0000BDF80C3030EE000A07EE103A30EE000A21
:104F1000B8EE477AC7EE007A01E0FFEE007AFDEEC8
:104F2000E77A0C4B0C4AC3ED027A012313700B4A4B
:104F3000137005B0F0BD00BF5CE2032000F4032055
:104F4000E8DF0320D1DD0320D1CC0D00DDDD03201F
:104F5000C0DD03204CE0032058DF0320E0DF032006
:104F600073B5984C2378013B052B00F21881DFE8DC
:104F700003F0B303693A6D8C934B1A791E462AB13C
:104F8000924B1B78022B01D0FFF7F2FC904B1B7861
:104F90000BB1FFF709FC8F4D2B783BB120238A4AD8
:104FA0008D48012100F0FCFD00232B708B4D2B78E8
:104FB0003BB130238A4A8848502100F0F1FD00239C
:104FC0002B7004F041FEB37990FBF3F202FB130067
:104FD000002840F0EA8004F037FE824B1B689842BC
:104FE00040F0ED80E1E0784C23792BB1774B1B78D2
:104FF000042B01D0FFF7BCFCE3780BB1FFF784FC76
:105000000021072005F047F8FFF7CEFBA57904F053
:105010000AFEA37990FBF3F202FB13006FF03B0250
:1050200050433C2212FB0501C3EB031300294FEA56
:10503000830303DD9942A8BF194600E00121002344
:10504000012291E0FFF70EFF0523B9E05E4B1A79CC
:105050001D462AB15D4B1B78052B01D0FFF788FC5C
:10506000EB780BB9FFF702FC03F0CAF840B104F08B
:10507000E1FD08B9FFF7DEFCFFF7B8FA06239FE071
:1050800002F05EFE584B186024E04F4B1B792BB1A9
:105090004E4B1B78062B01D0FFF76AFC534B1B7855
:1050A0000BB902238CE002F04BFE514B1B68C01A77
:1050B0004AF6C873984272D902F042FE4A4B4D49F3
:1050C00018604D4B4D481B7800228DF800204C4A4B
:1050D000FFF704F9012373E03B4C23792BB13B4BE1
:1050E0001B78012B01D0FFF743FC02F029FE3E4B59
:1050F0001B6803F5EA433033984250D92369032BE8
:1051000013DC03F07DF848B13B4B3E491B783B482C
:1051100000228DF800203C4AFFF7E0F84FF4FA60D7
:1051200003F04EF904F0B3FB39E004F07CFD264BAC
:10513000284DDB69C01AB0F5E15F19D903F060F8BA
:1051400048B12D4B2F491B782C4800228DF80020A8
:105150002E4AFFF7C3F84FF4FA6003F031F9002349
:10516000012223612A700A21294801F0A4F916E0DE
:1051700003F046F848B1204B22491B781F48002213
:105180008DF80020234AFFF7A9F84FF4FA6003F0E6
:1051900017F90023236101232B70FFF71FFC1C4824
:1051A00002B0BDE8704001F0BFB804F04DFD00282A
:1051B000F5D104F049FD0B4B1B689842EFD0032357
:1051C0002370ECE759DF03204CE0032040DF03208D
:1051D00064DF032058DF032018E00320E0DF032012
:1051E000E8DF0320E4DF0320DCDF032028E00320E6
:1051F00054DF0320D9CC0D000CDF0320ACDE0320EC
:10520000A2D50D0006CD0D00F2CC0D000CCD0D0089
:10521000F0DE032026CD0D0007B5FFF727FBFFF7D3
:1052200021FE02F0EDFF48B1104B11491B781148E7
:1052300000228DF80020104AFFF750F80F4A10485E
:105240000023937093681D2BCCBF0023012353715F
:105250000C4B53614FF07E53012193612023117059
:10526000117103B05DF804EB00F09ABC0CDF032071
:10527000F7CA0D00ACDE032045CD0D004CE0032045
:1052800018E003200000A0C038B5274C264DFFF7DA
:10529000E9FDA378012B84BF0023A370E378012BE1
:1052A00006D902F0ADFF10B10123EB7000E0E87009
:1052B0002379D4ED057A012B82BF1B4B00221A7192
:1052C000A268194B1D2AD4BF012200225A712369FA
:1052D000FF2B88BF144BBAEE087A88BF0022F4EE89
:1052E000C77A88BF1A61F1EE10FA06D4B2EE087AD6
:1052F000F4EEC77AF1EE10FA01DD0C4B6361D4EDE8
:10530000067AF5EEC07AF1EE10FA06D4B0EE007A25
:10531000F4EEC77AF1EE10FA02DD4FF07E53A3618E
:10532000034B01221A7038BD4CE003200000A0C0DE
:1053300058DF03200023022202F03ABF0023042298
:1053400002F036BF0246014803F024BA69870D0017
:10535000F0B5A9B004F092FD4FF4165104F082FDAF
:105360000021082004F086FE0021042004F082FEC3
:105370000121072004F07EFE01210520002504F014
:1053800079FE0121072004F086FEFFF70DFA4FF0A9
:10539000FF33012294490095082003F05FFD04A823
:1053A00002F036FF2B467D2208A904A804F013FA68
:1053B0008E4C8F4901952B462A46009508A802F08D
:1053C00037FF28AE8B498C488C4FFFF7B7FFA37986
:1053D00046F8943D02222B463146894802F0E8FE09
:1053E00004F110018748FFF7A5FF87498748FFF7B9
:1053F000A5FF87498748FFF7A1FF87498748FFF73F
:105400009DFF87498748FFF799FF04F10801864807
:10541000FFF790FF85498648FFF78CFF854986484E
:10542000FFF78CFF85498648FFF788FF8549864846
:10543000FFF788FF85498648FFF784FF854986483E
:10544000FFF780FF85498648FFF77CFF854986483E
:10545000FFF778FF85498648FFF774FF854986483E
:10546000FFF770FF854800F003FB294601230DF18B
:105470000B02824800F03EFB9DF80B10012919D069
:105480007E4800F0FFFA04237D4A7C48294600F05C
:1054900087FB01230DF10B022946784800F02AFB17
:1054A0009DF80B30012B02D001233B7007E0FFF782
:1054B000B3FE04E020232246704800F01BFB0025C9
:1054C000FFF7E2FE2A4629463046039502F018FC13
:1054D000039B142B7DD02A4629463046039502F0C3
:1054E0000FFC039B8C2B74D0664800F005FE002156
:1054F000644800F056FF94ED060A04F089FA04F0BF
:1055000071FB20B95F4800F0E7FD04F0ABFAFFF74C
:10551000C9FA10B104F096FA01E004F09DFA94ED96
:10552000050A04F059FA04F049FA044604F07BFB3A
:10553000201A05F0DBF82AA3D3E9002305F066FA68
:10554000514ACDE900010A213A4802F011FF302307
:105550004E4A4A48502100F0CDFA04F06BFB4C4B08
:105560001860FFF753F9042004F0AEFD08B9FFF707
:1055700053FE484800F082F94749464800F063F975
:105580004649444800F05FF94549424800F05BF95C
:1055900004F0C8FD42220146424801F0BFFD4148E7
:1055A00001F070FD02F0CCFB3F4B18603F4B012235
:1055B0001A70FFF75BF93B7813B9104B02221A708F
:1055C0000021072004F067FD04A804F07EF829B04C
:1055D000F0BD236901332361354B01221A7083E743
:1055E000000000000020AC40CD400D004CE0032046
:1055F000F9420D0098DF03205DCD0D0059DF032037
:1056000064CD0D0073CD0D00D1DD03207ECD0D00E6
:10561000DDDD032088CD0D00C0DD032091CD0D0020
:10562000CCDD03209DCD0D00A5CD0D0000E00320B5
:10563000B0CD0D00E4DE0320B7CD0D0041DF032027
:10564000C2CD0D0021410D00D1CD0D008D430D00C7
:10565000DBCD0D003D410D00E5CD0D00D5430D0026
:10566000EDCD0D0069440D00FACD0D00E94A0D00A5
:1056700007CE0D0081450D0015CE0D0018E003206A
:1056800074CA0D00F0DE0320FCCA0D00E8DF032021
:1056900060DF03202CE0032000F4032008F4032043
:1056A00010F4032010DF0320D8DF032090DF032055
:1056B00058DF0320434B2DE9F04100241C60424B8E
:1056C000424E434D01271F7002F072FB414B1860A0
:1056D00004F082FC2346224642F6DF5104F084FCAB
:1056E00004F07AFC22462346022104F085FC4FF6A2
:1056F000FF7373813460B480B4713481022002F08E
:10570000F9FC2A463449304604F032FD334E214636
:10571000384602F007FD3946042002F0E1FA4FF066
:105720001008301D42462146306005F0A7FD0223D7
:105730002A462B49F38030463775A6F8048004F0DA
:1057400017FD04F0EFFC274E0146304600F012FC36
:105750002A462549304604F00BFD04F0E3FC234EB5
:10576000234601464FF40052304600F077F9204BB3
:10577000336030461F4E20492A4604F0F9FC4FF4AE
:1057800000621E49304601F0FFFA1D4B336030467F
:105790001C4E1D492A4604F0EBFC224641461B4C98
:1057A000304600F039F82A461949304604F0E0FC4A
:1057B000204601F049FC2A4620461649BDE8F04142
:1057C00004F0D6BC80DF03200CDF032084DF03203D
:1057D000A8DE032094DF0320A9410D0068DF032029
:1057E00009410D00F0DE0320E75C0D0018E0032006
:1057F000F4C90D00ACDE032081410D0018F4032034
:1058000010CA0D002CE0032059410D0010DF0320C9
:105810006D580D0011700D0070B5044600236360D3
:10582000A360E3602361636123766376A2760E2032
:105830000E46FEF732FC054610B1314600F030FF4F
:105840002560204670BD38B500F110050C46006893
:10585000294601F019F8031E1DBF2B6823606B68F1
:105860002360636014BF0120002038BD10B50E21F5
:105870000446006804F081FC204610BD006800F07A
:10588000F7BF0000F8B5837E04460D4616461BB9E7
:105890000B78002B00F0A680206800F00BFFA37EA1
:1058A00023B11EB9206800F0DFFF03E0294620681D
:1058B00000F0C8FF00224421206800F090FF40F271
:1058C000EE2002F07DFD206800F0F4FEA37E23B1FF
:1058D0001EB9206800F0C8FF03E02946206800F0E8
:1058E000B1FF0022BE21206800F079FF2B78262B23
:1058F00004D100221146206800F071FFE61C04F17B
:105900000C07206800F08EFF06F8010FBE42F8D1A8
:105910000821201D01F033F8237B2076984263761E
:1059200060D12B78222B19D014D8102B5AD1E27ABF
:10593000A388102A08BFA27A4FEAC30302BF23F04C
:105940000F03C2F10C029B181BB200EE103ABAEE24
:10595000CE0AF8BD262B1FD0282B43D1227A2379DB
:1059600002F06002202A05D0402A06D042B923F076
:10597000070304E023F0030301E023F00103237194
:105980002379607943EA002000B204F0AFFE0022E0
:10599000164B04F011FF20E0A579284604F0A6FE7E
:1059A00006466079C01007EE900AF8EEE77A0F46D7
:1059B00017EE900A04F0ACFE00220D4B04F0FCFE42
:1059C0000B46290602464CBF0A490B49002004F049
:1059D000F3FE32463B4604F03DFD05F0E5F900EEEE
:1059E000100AF8BD9FED050AF8BD00BF0000B03FEA
:1059F0000000A03F0000F0BF0000F03F0000C07FAB
:105A000008B510EE100A04F083FE08A3D3E90023C2
:105A100004F0D2FE0022044B04F01CFD05F0C4F992
:105A200000EE100A08BD00BF00004040CDCCCCCC39
:105A3000CCCCFC3F027E407E131A5842584170473E
:105A400002F0B6B9704710B51021044604F095FB7A
:105A5000204610BD0368C9B29B68184730B5034D96
:105A6000056041608260C36030BD00BF1CCF0D0087
:105A7000406803F09DB910B50446006803F0E4F9EE
:105A8000204610BD2DE9F0418AB0074640680190DC
:105A900003F0D1F91E22002102A8BE6805F0EEFB3A
:105AA0000025DEB13B681E2EB04628BF4FF01E0811
:105AB000DC6802AA434629463846A047044648B94E
:105AC0002A460A490A48FEF7F2FB01A8FFF7D3FF6E
:105AD000204607E0C8EB06064544E2E701A8FFF7C9
:105AE000CAFF01200AB0BDE8F08100BF99CE0D00C9
:105AF00094E203202DE9F3470446406801900E46E6
:105B00001746984603F097F9B8F1000F01D1012428
:105B10003FE0E168606841F0500103F081F9310A2B
:105B20006068FFF797FF31466068FFF793FF002139
:105B3000606803F078F908B100242AE0E168606841
:105B4000B8F1200FC14641F0500128BF4FF02009A5
:105B500001234A46C9B203F04DF904F0E3FA0368A1
:105B60001B6998474845E7DB3D46C7EB060A04F04A
:105B7000D9FA03685B69984705F8010BEA1BC5EB86
:105B80000803914505EB0A063B44F0D898462F469A
:105B9000BAE701A8FFF76FFF204602B0BDE8F08723
:105BA0002DE9F3470446406801900D4690461F4694
:105BB00003F041F94FB3E168606841F0500103F030
:105BC0002FF9290A6068FFF745FF29466068FFF74B
:105BD00041FF08F11E094646C8EB050A606816F841
:105BE000011B03689B689847B14506EB0A05B04660
:105BF00007F1FF3701D0002FF0D10121606803F0D9
:105C000012F90028D6D0002400E0012401A8FFF7F3
:105C100032FF204602B0BDE8F0872DE9F0438BB09B
:105C20000E4615468046406801901C4603F003F975
:105C3000AE4223D2264425440CB901243FE01E2C59
:105C40002746D8F8003028BF1E27F61BD3F8089047
:105C500002AA3B4631464046ED1BC84708B900241E
:105C60002DE0D8F8003002AAD3F80C9029463B4624
:105C70004046C8470028F2D0E41BDDE7DDD9002C00
:105C8000DBD01E2CD8F80030274628BF1E27D3F8BB
:105C9000089002AA3B4631464046C8470028DED05D
:105CA000D8F8003002AAD3F80C9029463B4640466B
:105CB000C8470028D3D03E443D44E41BDFE701A899
:105CC000FFF7D9FE20460BB0BDE8F08302F070B8B4
:105CD000402070470020704780207047FF207047A9
:105CE000704770477047704710B51421044604F0A0
:105CF00044FA204610BD10B50821044604F03DFAD0
:105D0000204610BD10B50821044604F036FA20469E
:105D100010BD10B51C21044604F02FFA204610BD1A
:105D20002DE9FF410368DB680546984710220146CC
:105D3000684605F0A3FA2B6828469B68984700241C
:105D400007462046BC420ED23E1B102E2B6828BFB1
:105D50001026D3F818806A46334621462846C047A5
:105D600008B13444EEE704B0BDE8F081002301221D
:105D70008372C272027342738373C3730374437476
:105D800070470000012208B542710222827103228D
:105D9000064BC271042203600272002307220371C2
:105DA00042724374FFF7E2FF08BD00BF7CD00D00D4
:105DB00003090A2200F00F0002FB0300704708B538
:105DC000807AFFF7F5FF00F5FA6008BDC07A00F0B1
:105DD0001F00FFF7EDBF007B00F03F00FFF7E8BFBB
:105DE00008B5817B4A060DD501F01F00FFF7E0FFE3
:105DF0008B0603D50C280BD00C3008BD0C2808BF2F
:105E0000002008BD01F03F00BDE80840FFF7D0BF0B
:105E100008BDC07B00F07F00FFF7CABF007C00F028
:105E20007F00FFF7C5BF10B58AB0242200210446C9
:105E300001A805F023FA2046FFF7C1FFA0F26C701D
:105E400006902046FFF7C2FF013805902046FFF775
:105E5000C2FF04902046FFF7C3FF03902046FFF7E0
:105E6000D8FF02902046FFF7D9FF019001A805F066
:105E7000E9FA0AB010BD0A2290FBF2F393FBF2F1AB
:105E800002FB113102FB130343EA0110C0B2704759
:105E9000642310B5044691FBF3F000FB1310FFF7E9
:105EA000EAFFA07210BD10B504460846FFF7E3FFF5
:105EB000E07210BD10B504460846FFF7DCFF237BF7
:105EC00023F03F031843207310BD10B50446481C4F
:105ED000FFF7D1FF637B23F007031843607310BD06
:105EE00010B504460846FFF7C6FFA07310BD10B5F5
:105EF00004460846FFF7BFFFE07310BD10B5044627
:105F00000846FFF7B8FF237C23F07F031843207473
:105F100010BD37B5044602A840F8041D04F0E6FFA2
:105F2000054641692046FFF7B3FF29692046013144
:105F3000FFF7B9FFE9682046FFF7BCFFA9692046D3
:105F4000FFF7C3FFA9682046FFF7CAFF696820462C
:105F5000FFF7CDFF29683B29A8BF3B212046FFF76B
:105F6000CDFF03B030BD10B50446FFF7D2FF637A12
:105F7000637410BD084A026000220272427201225C
:105F8000827203460322C272044A41601861C260F1
:105F9000034A9861426170478CD00D005CCF0D00C0
:105FA00038CF0D002DE9F84F05460F4691469A4629
:105FB00000240A9B9C4230D23946686802F02CFFCC
:105FC00009EB04016868FFF745FD0021686802F0ED
:105FD0002AFF0646D8B90A9B68681A1B202A4FF088
:105FE000010328BF2022394602F004FF0AEB04080F
:105FF00083464646C8EB06039B4506D96868036896
:106000005B69984706F8010BF4E75C44D1E7024668
:1060100004490548FEF74BF900E000263046BDE88C
:10602000F88F00BFD6CF0D006CE003201FB5012311
:1060300000930A4603AB6F21FFF7B4FF10B99DF838
:106040000C0000E0002005B05DF804FB08B503215A
:10605000FFF7ECFFC0F3401008BD7FB51E46002BD4
:106060000CBF072306230093144602AB0A466F2198
:10607000FFF798FF0546D8B99DF8083023749DF8BE
:106080000930E3739DF80A30A3739DF80B306373F6
:106090009DF80C3023739DF80D30E3721EB99DF806
:1060A0000E30A37204E003F0F1FDFFF7E4FEA072EE
:1060B000284604B070BD38B500230C460A46194680
:1060C0000546FFF7CAFF28B9A37A1BB12846FFF798
:1060D000BDFF00B9002038BD10B586B0044601A848
:1060E000FFF750FE01A92046FFF7E5FF10B101A818
:1060F000FFF799FE06B010BD30B5044685B0406884
:1061000002F056FE03F06EFDC0B9E37A9B0715D589
:106110002046FFF7E1FF054680B103F0A3FC094BE1
:1061200009491B682A46684603F02AFD0748009A79
:106130000749FEF7BCF8684603F0C7FA012323724B
:1061400005B030BDF0DD0320C4E403206CE0032083
:10615000F0CF0D002DE9F34101EB03081E46036863
:106160009B6804460D461746984780450AD8009616
:106170003B46EAB257216068FFF714FFB0FA80F09F
:10618000400900E0002002B0BDE8F0812DE9F341B4
:1061900001EB03081E4603689B6805460C4617463C
:1061A000984780450CD804F1200200963B46D2B2B5
:1061B0006F216868FFF7F6FEB0FA80F0400900E052
:1061C000002002B0BDE8F0812DE9F84F074689466E
:1061D00092469B4600240A9B9C4228D249467868F6
:1061E00002F01AFE0AEB04017868FFF733FC0A9B01
:1061F0001E1B1F2E0BEB040828BF1F264546786880
:1062000015F8011B026892689047C8EB0502B2427C
:10621000F5D30121786802F006FE054628B1024652
:1062200005490648FEF743F802E03444D3E7002569
:106230002846BDE8F88F00BF05D00D006CE00320B4
:106240001FB5137C8DF80830D37B8DF80930937B14
:106250008DF80A30537B8DF80B30137B8DF80C30A2
:10626000D37A8DF80D30937A8DF80E300723009392
:106270000A4602AB6F21FFF7A7FF05B05DF804FBEC
:1062800010B586B0044601A8FFF77CFD01A8FFF712
:1062900040FE9DF81430A27A63F07F038DF814302D
:1062A0009DF8113012B143F0080301E023F0080318
:1062B00001AA002120468DF81130FFF7C1FFB0FA86
:1062C00080F0400906B010BD7FB5064603F08AFC99
:1062D0000446B8B103F0A7FC054601463046FFF777
:1062E000CFFF0C4B0C491B682A460446684603F056
:1062F00047FC009A09490A48FDF7D9FF684603F0B0
:10630000E4F903E007490648FDF7D1FF204604B051
:1063100070BD00BFF0DD0320C4E4032020D00D00D9
:106320006CE0032036D00D0037B5457A04468DB9B0
:1063300003F058FC70B102A8294640F8045D01F052
:106340008FFF38B1E37ADB0702D52046FFF7BCFFA9
:106350000123637203B030BD1FB504AB03F8042DF5
:10636000012200920A466F21FFF72EFF05B05DF86B
:1063700004FBF8B5144605460E461F46FFF756FEC9
:10638000204040EA070231462846BDE8F840FFF7C2
:10639000E3BF13B11346FF2201E0D243D2B2FFF7AD
:1063A000E8BF012908B50CD800294FF000030CBF45
:1063B000102220220721FFF7ECFFB0FA80F04009FD
:1063C00008BD002008BD00294FF000034FF008026F
:1063D00014BF14210D21FFF7DCBF2DE9F34101EBC0
:1063E00003081E4603689B6805460C4617469847F7
:1063F00080450CD804F1200200963B46D2B26F21B2
:106400006868FFF7E1FEB0FA80F0400900E0002084
:1064100002B0BDE8F081F0B5012B85B006460C4610
:1064200017461D4601D9002043E0FFF70FFE002864
:10643000F9D029463046FFF7C6FF237C227B8DF832
:106440000830E37B8DF809308DF80C20A37BE27ACD
:106450008DF80A308DF80D20637B17B163F07F0350
:1064600001E003F07F038DF80B30637C9DF80B2077
:106470001B0103F070031343002D8DF80B304FF018
:106480000603009308BF0A2202AB18BF11226F2136
:106490003046FFF799FE044640B9002D0CBF10238B
:1064A0002023FF2207213046FFF763FFB4FA84F070
:1064B000400905B0F0BDF0B5012B87B006460C468B
:1064C00017461D4601D9002010E0FFF705FE002801
:1064D000F9D0011901A8FFF755FC01A8FFF743FD0A
:1064E0002B463A4601A93046FFF795FF07B0F0BDAD
:1064F00038B5054632245721686802F08DFC012129
:10650000686802F090FC08B1013CF4D138BD00008D
:106510002DE9F0410546D7181446C2EB0108BC42EC
:106520001ED05721686802F077FC08EB0401686808
:10653000FFF790FA686814F8011B03689B68984796
:106540000121686802F06FFC064628B10246064940
:106550000648FDF7ACFE04E02846FFF7C9FFDEE77A
:1065600000263046BDE8F0814BD00D006CE00320E2
:106570002DE9F04101EB03081E4603689B680446C1
:106580000D461746984780450AD833463A46E9B241
:106590006068FFF7BDFFB0FA80F04009BDE8F08108
:1065A0000020BDE8F081000008B501F001FC024BBD
:1065B000024A1A6008BD00BF6CE003206CD00D00D9
:1065C00001F0F6BB10B503682F2B044604D9074A27
:1065D00000210A2001F06CFD23681F2B83BF03F00C
:1065E0001F03236002484FF0A04010BD317D0D0015
:1065F0000003005007B50B4B1B68000119181A5C0B
:106600004B7802A803F01F0343EA421340F8043D0D
:10661000FFF7D8FF019A01239340C0F80C3503B06F
:106620005DF804FB70E0032007B50B4B1B6800010D
:1066300019181A5C4B7802A803F01F0343EA4213AF
:1066400040F8043DFFF7BEFF019A01239340C0F8D4
:10665000083503B05DF804FB70E0032013B50F4B61
:106660001B6800011A181C5C537802A803F01F0372
:1066700043EA441440F8044DFFF7A4FFD0F8103566
:1066800002A840F8084DFFF79DFFD0F8103500989C
:1066900023FA00F000F0010002B010BD70E003200A
:1066A00038B504460D462846002103F0E3FC25805A
:1066B000204638BD70B5054602F0F8FB0021288859
:1066C00001F07EFB02F0F4FB7D24013C14F0FF049A
:1066D0002DD0022001F02CFB2888FFF7BFFF0028F7
:1066E000F3D002F0E3FB2888FFF784FF012128881C
:1066F00001F066FB02F0DCFB4FF4F07001F018FBD8
:1067000001F036FB00210646288801F059FB46209F
:1067100001F00EFB2888FFF7A1FFB0FA80F43046A5
:1067200001F02EFB4FF4CD70640901F001FB20460F
:1067300070BD70B511F00106044615D001F018FBCC
:1067400005462088FFF756FF0121208801F038FB1D
:10675000012001F0EDFA0021208801F031FB2846EC
:1067600001F00EFB3B2014E001F002FB05462088FF
:10677000FFF740FF0121208801F022FB412001F0BA
:10678000D7FA3146208801F01BFB284601F0F8FAC1
:106790000520BDE8704001F0CBBA38B5044601F0E1
:1067A000E7FA05462088FFF725FF0121208801F040
:1067B00007FB012001F0BCFA0021208801F000FB5A
:1067C0000D2001F0B5FA2088FFF748FF044628465F
:1067D00001F0D6FA2E2001F0ABFA204638BD2DE9A3
:1067E000F0410546884617460826012418EA040F9A
:1067F00014BF012100212846FFF79BFF6400013EE2
:10680000E4B2F3D167B102F051FB2888FFF70CFF27
:106810002888012101F0D4FABDE8F04102F048BB1C
:10682000BDE8F081F8B50746082600250124384662
:10683000FFF7B3FF00B125436400013EE4B2F6D197
:106840002846F8BD70B500220C4655210646FFF7D4
:10685000C6FF651E073415F8011F00223046FFF7FA
:10686000BEFFA542F7D170BD0022CC21FFF7B7BF14
:10687000002383720373C37200F10A02023002F82C
:10688000013D8242FBD170472DE9F047057B04466C
:106890008846002D5ED1FFF70DFF20B9A07220734E
:1068A000E072BDE8F0872A46F0212046FFF797FF07
:1068B0000126AA4637462046FFF76FFF814620464D
:1068C000FFF76BFFB9F1010F02D101281BD137E0AF
:1068D000814504EB05031ED1A27A974207D29A782C
:1068E000164214BF4FF001094FF0000904E00CBF3D
:1068F0004FF001094FF00009B9F1000F03D1082F43
:1069000008D8E77206E062194FF001099378334323
:10691000937004E0BA469A7822EA06029A704946D1
:1069200020467600FFF705FF16F0FF0604BF01358D
:10693000EDB207F1010708BF0126072DFFB2BAD952
:10694000402F07D984F80AA0BAF1000F12D1012311
:1069500023730FE00020A0722073E072631C08F123
:10696000FF38093413F8012F08F8012FA342F9D199
:10697000BDE8F087A378002BECD00120EEE730B51E
:10698000054600200139C9B2FF2913D015F8014B83
:10699000082280EA040313F0010F4FEA50001CBFE5
:1069A00080F08C03D8B2531E13F0FF024FEA540458
:1069B000EFD1E7E730BD000008B501F0F9F9014B70
:1069C000186008BD70E0032042680368501012F0A0
:1069D000010F18BF0A58084418BFD358184710B5FC
:1069E00001230374836804460BB1C06806E00068A5
:1069F00028B183680BB903F0DCFBC3689847012317
:106A000063740020BDE8104001F062B9012A03461A
:106A100001D1016005E0022A03D110B103C983E866
:106A200003000020704710B58368044613B10322A9
:106A300001469847204610BD0123F7B580F829305C
:106A40000546083001F01CF90420FDF726FB04463A
:106A5000002835D01C49142003F09AFB30B10023E4
:106A60000374036043608360C36043742060B0B10B
:106A7000164B836023681649DD6020684FF400637D
:106A80008DE809000222134B043001F0C9F830B937
:106A900023681B7CA3B9012001F042F9F8E72668BE
:106AA0000023236066B1376837B13846FFF7BBFF74
:106AB0001021384603F061FB1421304603F05DFBE2
:106AC0006C6003B0F0BD00BF54D90D00EB6C0D003D
:106AD000BCD00D00DF690D0047F23051C1600A499A
:106AE0000A4A01610A490260C16100220949426003
:106AF000426181610262426280F8282080F8292088
:106B000080F82A20704700BF456E0D0080D10D002F
:106B1000C9690D000D6A0D0010B5044B044640F81C
:106B2000103BFFF780FF204610BD00BF80D10D0055
:106B300010B5034B03600446FFF7EEFF204610BD7F
:106B40009CD00D0010B50446FFF7F2FF2046382117
:106B500003F013FB204610BD806801F099B88068EF
:106B600001F09EB810B504460068FFF7F8FF204614
:106B700010BD13B504460190FFF7EEFFE36ADC8811
:106B8000A4B20CB103F1080401A8FFF7EBFF204603
:106B900002B010BD13B504460190FFF7DDFF94F875
:106BA00028301BB9E26A0124D38000E0002401A848
:106BB000FFF7D8FF204602B010BD37B502AC05463E
:106BC00044F8040DFFF7C8FFEB6A2046DD88FFF7A5
:106BD000C9FF284603B030BD2DE9F0479A4686B07C
:106BE00090F829309DF838909DF83C70044688460E
:106BF000164613B903689B689847314B4046002EF0
:106C000008BF1E4605F0FAFA0546304605F0F6FACA
:106C1000284400F10A05AB071CBF25F00305043525
:106C2000334603950297CDF80490CDF800A0424674
:106C300024492548FDF73BFB238E083B9D420FD995
:106C4000002438E0CB88012B31D005A8FFF78AFF5C
:106C5000236894F828109B69204698470028EFD0B5
:106C600020460594FFF778FFE16A238E626B0B44A0
:106C70009B1A9D42E6D847EA0907C2F800A017719F
:106C8000676B08374146384604F080FD384605F00A
:106C9000B5FA01303146384404F078FD606BE26AA1
:106CA00028446063D3880133D380012400E00024AA
:106CB00005A8FFF757FF204606B0BDE8F08700BFE4
:106CC000A2D50D00CED00D0074E0032008B5044617
:106CD00000F11005A3690BB903F06BFAE3692146D3
:106CE0002846984700F0ACFFF4E708B5FFF7EEFF41
:106CF00038B501F108040546204605F07FFA013059
:106D00000444204605F07AFAEB6A01302044C31AA5
:106D100013F003031CBFC3F10403C01838BD2DE9F1
:106D2000F341054688460190FFF716FFEE6A06F12B
:106D30000807F488B8F1000F07D0012C1CD9394698
:106D40002846FFF7D5FF074600E0B4B1394628468C
:106D5000FFF7CEFF2A8E3244121A0146A0EB070439
:106D600002D0384604F06FFA6B6B1B1B6B63F38821
:106D7000013BF380012400E0002401A8FFF7F2FEAC
:106D8000204602B0BDE8F0812DE9F04704460D46EB
:106D900090460026FFF7A0FE2F46154B2360E562C4
:106DA000A4F830806663134B57F8082B9A42994633
:106DB00014D1AB889BB2984510D105EB080A6763E4
:106DC000EB88B2B29BB29A420FD2616B2046FFF7BA
:106DD0008FFF8245606306F10106F1D20023C5F8FA
:106DE0000090A5F80480EB8067632046BDE8F0873B
:106DF0009CD00D0061AB9CD110B591E80C0086B021
:106E000004460292039302AB93E803008DE803006B
:106E100094E80300A26883E803009DE8030004925D
:106E2000064AA260E2680592054AE26084E803002F
:106E30001846FFF7F8FD204606B010BD0D6A0D009C
:106E4000C9690D0007B5054B009369460023103052
:106E50000193FFF7D1FF03B05DF804FB8D6E0D00C9
:106E600013B5044600F06CFF636AC01AE3689842E9
:106E700008D3054B00936946002304F110000193E9
:106E8000FFF7BAFF02B010BD8D6E0D002DE9F04185
:106E900090F82A3086B00446002B73D101F0B0F987
:106EA00000286FD000F04CFF636AC01A40F2F13343
:106EB000984267D9236820465B69984705460028B1
:106EC00060D005F10806012384F82830304605F02B
:106ED00095F995F80480CDF80480013037182B68B7
:106EE000009332463B4629492948FDF7E0F92B68D3
:106EF0008DF800803A46314602A801F05BFD029D04
:106F00006B781BB9012001F05BFAF8E7002001F073
:106F100011F920B16B7813B901F05AF9FAE72B781F
:106F2000012B09D11B491A48FDF7C1F9236800213B
:106F30009B69204698470DE017491548E268FDF720
:106F4000B6F9164B049304A9002304F1100005932D
:106F5000FFF752FF002384F8283000F0F1FE606252
:106F6000039C7CB16368013B63605BB92368204686
:106F70009B689847A368013BA3601BB92368204620
:106F8000DB68984706B0BDE8F08100BF0FD10D0067
:106F900074E0032030D10D0047D10D00616E0D006B
:106FA00008B500F005FF024B024A1A6008BD00BF99
:106FB00074E003206ED10D007FB5024608461379B8
:106FC000956833B13DB90C4904B0BDE8704002F09A
:106FD00073B90A4B00E00A4B167B0A4C0A49527BF4
:106FE0000292012E08BF214601910095074A002117
:106FF00002F069FA04B070BDBDD10D00A2D50D003C
:10700000ACD10D00B5D10D00B9D10D00D3D10D001B
:1070100010B5054B044640F8203BFFF704FD204621
:1070200000F0C2F9204610BD90D20D0010B5044604
:10703000FFF7EEFF2046302103F09FF8204610BDF9
:107040000368C9B29B68184738B50B490446002548
:1070500000F0B2F9094B2360257203F063F8422374
:107060002374E06002F082FE054B6061A561E5617A
:10707000A5621C60204638BDB0E0032090D20D0010
:1070800084E00320F7B585690646002D3BD1042036
:10709000FDF703F80446002834D01C49142003F0FF
:1070A00077F828B10574056045608560C560457452
:1070B0002060B0B1164B836023681649DE602068FB
:1070C0004FF400638DE809000222134B043000F0F6
:1070D000A7FD30B923681B7CA3B9012000F020FE76
:1070E000F8E725680023236065B12F6837B138467B
:1070F000FFF799FC1021384603F03FF81421284689
:1071000003F03BF8B46103B0F0BD00BF54D90D00EB
:1071100015730D00F1D10D00DF690D0010B50123CD
:107120000372C36804464868586088689860C868F5
:10713000D860087C18740846227401F039FE204695
:1071400010BD000038B50546017CC06801F064FE42
:10715000FD21E868FFF774FF0021E86801F063FE95
:1071600030B10F4902460F48FDF7A1F8002038BDA5
:1071700002220123297CE86801F03CFEC2B2022A07
:1071800001D00949EFE7E86803685B69984704465E
:10719000E86803685B69984740EA042080B238BD1C
:1071A000FED10D0094E2032022D20D002DE9F0471C
:1071B00006468946017CC068154601F02DFEFF2178
:1071C000F068FFF73DFF0021F06801F02CFE024659
:1071D00008B1184915E00446AC4227D22F1B202FD6
:1071E00028BF202704EB070ACAEB0502534253418C
:1071F000317CF0683A4601F0FDFDC2B2974207D0FB
:107200000D490E48FDF753F84FF0FF30BDE8F08709
:107210004C44A046F06803685B69984708F8010B86
:10722000C4EB08039F42F5D85446D5E72846BDE88D
:10723000F08700BF4CD20D0067D20D0094E203200E
:1072400000487047B0E0032007B582688DF807104A
:107250000AB902F0AEFFC3680DF10701984703B009
:107260005DF804FB2DE9F043037A89B0044613B9B5
:1072700000F120063BE0D0F80C80404601F0DBFD39
:107280002046FFF75FFF202804F12009054601D8BA
:1072900008B919E020252A4669462046FFF786FFEF
:1072A000A8426F4610D16E4616F8011B144800F034
:1072B00091FBA36A23B116F8011C4846FFF7C4FFEF
:1072C000F31B9BB2AB42EFD3404601F0BDFD14E08F
:1072D000606903685B699847C5B22946084800F0B1
:1072E00079FBA36A1BB129463046FFF7ADFF606901
:1072F00003681B6998470028EADC09B0BDE8F08301
:10730000B0E0032008B504462046FFF7ABFF00F0CD
:1073100097FCF9E708B5FFF7F5FF000070B5194CC9
:10732000194E00F045FD0821204600F02FFC316881
:10733000164B236011F001050AD13046FCF7BEFE62
:1073400030B12946124802F013F93046FCF7BBFE73
:10735000104AA2610E4B104AE360226211230122FF
:10736000236184F8242000230C4A0D490548237525
:10737000237784F8253002F0FBFE0A48BDE8704010
:1073800000F078B888E0032078E003204CD60D00A8
:107390007CE00320A8D10D0080969800A8DE032091
:1073A000CD7A0D00B0E00320704710B508210446E7
:1073B00002F0E3FE204610BD014A026041607047C2
:1073C000A0D20D0000F0F4BC002202704270828056
:1073D000826002730282426102768283026280F8D6
:1073E00024200285C26280F83020426380F8382071
:1073F00080F83920C2630264426480F8482080F833
:107400004920C2640265426580F8582080F85920FE
:10741000C2650266426680F8682080F86920C2660C
:107420000267426780F8782080F87920C267C0F848
:107430008020C0F8842080F8882080F88920C0F857
:107440008C20C0F89020C0F8942080F8982080F814
:107450009920C0F89C20C0F8A020C0F8A42080F893
:10746000A82080F8A920C0F8AC20C0F8B020C0F84F
:10747000B420704710B50446FFF7A6FF04F1B8002A
:10748000FFF7A2FF0023022284F8703184F87131E3
:1074900084F8812184F8823184F8833184F884313E
:1074A000C4F88831C4F88C31C4F89031C4F89431F0
:1074B000C4F89831C4F89C3184F87231204610BD6C
:1074C000A1F14103052B02D8A1F137007047A1F1CA
:1074D0006103052B94BFA1F15700A1F13000704763
:1074E00038B5057804462D2D08BF0134204603F039
:1074F000EBFC64235843224614F8013BA3F130010E
:107500000929F8D92E2B0BD15378303B092B07D8FA
:107510000A2101FB03009378303B092B98BFC01868
:107520002D2D08BF404238BD38B504460D4603F046
:10753000CBFC6423B0FBF3F203FB1200114B2A8057
:10754000434320460278A2F130010929044600F1A4
:107550000100F7D92E2A0BD10A490A2014F8012F6D
:10756000303A092A04D8B1FBF0F101FB0233F5E708
:1075700003EB830301330322B3FBF2F36B600023BD
:107580002B7238BD8096980010B50346044653F818
:107590001C2F42605A6882601B7A0373034653F8BB
:1075A000282F02615A6842611B7A037600F0C8FBFB
:1075B000012360636370237010BD000000000000B1
:1075C000D0B5002304464370806803F07FF80EA313
:1075D000D3E9002303F01AFA0646A0880F4603F009
:1075E00085F80B4602463946304602F033FF237BCE
:1075F0001BB1024601F1004301E002460B4643EC99
:10760000102BD0BDAFF300800000000065CDCD4150
:10761000D0B5002304464370406903F057F80EA329
:10762000D3E9002303F0F2F90646208A0F4603F05F
:107630005DF80B4602463946304602F00BFF237ECA
:107640001BB1024601F1004301E002460B4643EC48
:10765000102BD0BDAFF300800000000065CDCD4100
:1076600010B583684360044600F06AFB0123E060C4
:107670006370237010BD10B583684360044600F04A
:107680005FFB0123E0606370237010BD10B50446FA
:107690000846FFF725FFA06010BD10B50446084658
:1076A00003F012FCA06010BD10B5C36883600446EF
:1076B00000F046FB012360606370237010BD10B5BD
:1076C00004460846FFF70CFFE06010BD10B5C36824
:1076D0008360044600F034FB012360606370237014
:1076E00010BD10B50446084603F0EEFBE06010BD87
:1076F00010B501460446103004F048F800F020FBB5
:107700000123206284F8253084F8243010BD102233
:1077100004F091BDF8B590F871510446002D00F0C9
:107720008B8090F87211FFF7CBFE94F8731102462C
:107730002046FFF7C5FE94F8703100EB0210C0B28E
:10774000834272D1D4F89C310133C4F89C3194F84F
:10775000843123B1D4F894310133C4F8943194F8CE
:107760008131FBB1012B4DD104F1F000FFF778FF1F
:1077700004F58070FFF77FFF94F8843104F1B806B8
:107780004BB13046FFF700FF04F58870FFF78CFF20
:1077900004F5907027E084F8B83084F8103184F84C
:1077A000203122E004F58070FFF765FF94F8843102
:1077B00004F1B8065BB13046FFF7E6FE04F59870B9
:1077C000FFF772FF04F5A070FFF76EFF05E084F885
:1077D000B83084F8303184F8403104F5A870FFF7F0
:1077E00075FF04F5B070FFF75FFF0021084600F059
:1077F0003FFA3146B822204603F01AFD002101204D
:1078000000F036FAD4F88C61002E00F0D980D4F85C
:107810008C31B06A996A03F0AFFF002840F0D08045
:107820003046FFF765FF366BEEE7D4F89831013349
:10783000C4F898310025C3E090F8822172BB00F5AE
:10784000B9766049304603F097FF20B15E49304673
:1078500003F092FF08B901230CE05C49304603F0C5
:107860008BFF20B15A49304603F086FF08B9002348
:1078700000E0022384F88131D4F88831C4F88C31D7
:10788000D4F88C71002F00F09B803146B86A03F069
:1078900073FF002880F290803B6BEFE790F8811136
:1078A000022971D090F87231002B6DD042EA41125A
:1078B000013A282A68D8DFE802F01521242B324942
:1078C00050575C6761676767676767676767676780
:1078D00067676767676767676767151C21242B32CF
:1078E000393E430000F5B97100F58070FFF7CEFE18
:1078F0004AE0A3F14100434243412BE000F1D401AF
:1079000008E0A3F153014B424B4180F8DC303BE0EF
:1079100000F1E00104F5B970FFF706FE34E0A3F1D1
:1079200057025342534180F8E8302DE000F5B97119
:1079300000F5887026E000F5B97100F5907021E03F
:1079400000F5B971F030FFF7A8FE1DE0302B94BFB1
:107950000023012384F8843116E000F5B97100F5A5
:10796000A870FFF7BEFE0FE000F5B97100F5B0702A
:1079700008E000F5B97100F5987003E000F5B97101
:1079800000F5A070FFF79BFED4F88C6104F5B97781
:10799000B6B1D4F88C31B06A996A03F0EDFE78B9CB
:1079A000F26A94F882319A420ADC03D139463046B1
:1079B000FFF7ADFE366BEBE702D00023C4F88C3145
:1079C0002846F8BDA8D20D00AED20D00B4D20D00ED
:1079D000BAD20D0038B5D0F89031242903F1010353
:1079E00004460D46C0F890312AD090F8833104D86F
:1079F0000A290CD00D2932D109E02A2907D02C29D7
:107A00002DD190F8702182F02C0280F870210E2B7D
:107A10004FF0000005D8234483F872012046FFF799
:107A200079FE94F88231013384F88231002384F89E
:107A30008331A5F12A035D425D4184F8715138BD5F
:107A40000020022384F8830184F8820184F8700105
:107A500084F8813184F8710184F8840138BD0D2BDC
:107A60009FBF5A1C1B1984F8832183F8725194F824
:107A7000710128B994F870114D4084F8705138BDE7
:107A8000002038BD00F094B913B50B46044603C876
:107A90008DE8030093E8030084E803009DE80300F9
:107AA00083E8030002B010BD08B5044B01221A7030
:107AB00000F07EF9024B034A1A6008BD54E203202D
:107AC00050E2032039D60D0000F072B9704710B5AE
:107AD0002821044602F051FB204610BD10B5044693
:107AE00000F11801C06801F077FD208A0021BDE88F
:107AF000104002F0D0BA10B504460121008A02F00D
:107B0000CAFAE068BDE8104001F04DBDF8B51E4668
:107B100003685B690F46144605469847012E88BFE7
:107B200047F0400747F08001E86801F0C5FD2644B2
:107B3000B44206D00021E86801F0BEFD04F8010B54
:107B4000F6E72B6828469B6998470120F8BDF8B5F1
:107B50001E4603685B690F46144605469847012E8A
:107B600088BF47F040073946E86801F0A5FD264484
:107B7000B44205D014F8011BE86801F09DFDF7E759
:107B80002B6828469B6998470120F8BD024A02608D
:107B9000002241600272704770D60D0013B5036871
:107BA00001AADC680123A0479DF8040002B010BDC3
:107BB00038B505460A240F212846FFF7EFFF332882
:107BC0004FF0010005D000F0FBFB013CF3D1204653
:107BD00038BD38BD10B50446018AC06801F0D2FC3A
:107BE0002046BDE81040FFF7E3BF00F0E1B8000019
:107BF000024B01221A7000F0DBB800BF55E20320EF
:107C000008B5024B1B685B6C019308BD740203004E
:107C100008B5024B1B689B6C019308BD74020300FE
:107C200008B5024B1B685B68019308BD480203005E
:107C300008B5024B1B689B68019308BD480203000E
:107C400008B5024B1B68DB68019308BD48020300BE
:107C500008B5024B1B681B69019308BD480203006D
:107C600008B5024B1B685B69019308BD480203001D
:107C700008B5024B1B68DB69019308BD480203008D
:107C800008B5024B1B681B6B019308BD480203003B
:107C900008B5024B1B689B6B019308BD48020300AB
:107CA00008B5024B1B681B6C019308BD480203001A
:107CB00008B5024B1B685B6C019308BD48020300CA
:107CC00008B5024B1B689B6C019308BD480203007A
:107CD00008B5024B1B68DB6E019308BD4802030028
:107CE00008B5024B1B685B6E019308BD34020300AC
:107CF00008B5024B1B689B6E019308BD340203005C
:107D000008B5024B1B68DB6E019308BD340203000B
:107D100008B5024B1B685B68019308BD180203009D
:107D200008B5024B1B689B68019308BD180203004D
:107D300008B5024B1B68DB68019308BD18020300FD
:107D400008B5024B1B685B69019308BD180203006C
:107D500008B5024B1B68DB69019308BD18020300DC
:107D600008B5024B1B681B6A019308BD180203008B
:107D700008B5024B1B689B6B019308BD18020300FA
:107D800008B5024B1B68DB6B019308BD18020300AA
:107D900008B5024B1B689B6D019308BD18020300D8
:107DA00008B5024B1B68DB6D019308BD1802030088
:107DB00008B5024B1B681B68019308BD2C02030029
:107DC00008B5024B1B689B68019308BD2C02030099
:107DD00008B5024B1B68DB68019308BD2C02030049
:107DE00008B5024B1B681B69019308BD2C020300F8
:107DF00008B5024B1B685B69019308BD2C020300A8
:107E000008B5024B1B689B69019308BD2C02030057
:107E100008B5024B1B68DB69019308BD2C02030007
:107E200008B5024B1B681B6A019308BD2C020300B6
:107E300008B5024B1B685B6A019308BD2C02030066
:107E400008B5024B1B68DB68019308BD28020300DC
:107E500008B5024B1B689B69019308BD280203000B
:107E600008B5024B1B68DB69019308BD28020300BB
:107E700008B5024B1B681B6A019308BD280203006A
:107E800008B5024B1B685B6A019308BD280203001A
:107E900008B5024B1B689B6A019308BD28020300CA
:107EA00008B5024B1B68DB6A019308BD280203007A
:107EB00008B5024B1B681B6B019308BD2802030029
:107EC00008B5024B1B685B6B019308BD28020300D9
:107ED00008B5024B1B681B6C019308BD2802030008
:107EE00008B5024B1B689B6C019308BD2802030078
:107EF00008B5024B1B68DB6C019308BD2802030028
:107F000008B5024B1B681B6D019308BD28020300D6
:107F100008B5024B1B685B69019308BD640203004E
:107F200008B5024B1B689B68019308BD68020300FB
:107F300008B5024B1B68DB68019308BD68020300AB
:107F400008B5024B1B681B68019308BD3002030093
:107F500008B5024B1B685B69019308BD3002030042
:107F600008B5024B1B68DB69019308BD30020300B2
:107F700008B5024B1B681B6A019308BD3002030061
:107F800008B5024B1B685B6A019308BD3002030011
:107F900008B5024B1B68DB6B019308BD3002030080
:107FA00008B5024B1B681B6C019308BD300203002F
:107FB00008B5024B1B685B6C019308BD30020300DF
:107FC00008B5024B1B681B68019308BD3C02030007
:107FD00008B5024B1B68DB68019308BD3C02030037
:107FE00008B5024B1B681B69019308BD3C020300E6
:107FF00008B5024B1B685B69019308BD3C02030096
:1080000008B5024B1B689B69019308BD3C02030045
:1080100008B5024B1B68DB69019308BD3C020300F5
:1080200008B5024B1B681B6A019308BD3C020300A4
:1080300008B5024B1B689B6A019308BD3C02030014
:1080400008B5024B1B681B68019308BD4C02030076
:1080500008B5024B1B685B68019308BD4C02030026
:1080600008B5024B1B681B69019308BD4C02030055
:1080700008B5024B1B685B69019308BD4C02030005
:1080800008B5024B1B689B69019308BD4C020300B5
:1080900008B5024B1B68DB69019308BD4C02030065
:1080A00008B5024B1B681B6A019308BD4C02030014
:1080B00008B5024B1B685B6B019308BD60020300AF
:1080C00008B5024B1B685B6D019308BD600203009D
:1080D00008B5034B1B68D3F89830019308BD000026
:1080E0006002030008B5024B1B681B68019308BDC2
:1080F0002002030008B5024B1B685B68019308BDB2
:108100002002030008B5024B1B685B69019308BDA0
:108110002002030008B5024B1B689B69019308BD50
:108120002002030008B5024B1B68DB6A019308BDFF
:108130002002030008B5024B1B68DB6C019308BDED
:108140002002030008B5024B1B685B6D019308BD5C
:108150002002030008B5024B1B689B6D019308BD0C
:108160002002030008B5024B1B68DB6D019308BDBC
:108170002002030008B5034B1B68D3F88830019335
:1081800008BD00002002030008B5034B1B68D3F8AC
:108190009430019308BD00002002030008B5034B92
:1081A0001B68D3F8A830019308BD0000200203002B
:1081B00008B5024B1B681B68019308BD440203000D
:1081C00008B5024B1B685B68019308BD44020300BD
:1081D00008B5024B1B689B68019308BD440203006D
:1081E00008B5024B1B68DB68019308BD440203001D
:1081F00008B5024B1B681B69019308BD44020300CC
:1082000008B5024B1B685B69019308BD440203007B
:1082100008B5024B1B68DB69019308BD44020300EB
:1082200008B5024B1B681B6A019308BD440203009A
:1082300008B5024B1B685B6A019308BD440203004A
:1082400008B5024B1B68DB6A019308BD44020300BA
:1082500008B5024B1B681B6B019308BD4402030069
:1082600008B5024B1B685B6B019308BD4402030019
:1082700008B5024B1B68DB6B019308BD4402030089
:1082800008B5024B1B685B68019308BD4002030000
:1082900008B5024B1B689B68019308BD40020300B0
:1082A00008B5024B1B68DB68019308BD4002030060
:1082B00008B5024B1B681B69019308BD400203000F
:1082C00008B5024B1B685B69019308BD40020300BF
:1082D00008B5024B1B689B69019308BD400203006F
:1082E00008B5024B1B68DB69019308BD400203001F
:1082F00008B5024B1B681B6A019308BD40020300CE
:1083000008B5024B1B681B6B019308BD40020300BC
:1083100008B5024B1B685B6B019308BD400203006C
:1083200008B5024B1B681B68019308BD1C020300C3
:1083300008B5024B1B685B68019308BD1C02030073
:1083400008B5024B1B689B68019308BD1C02030023
:1083500008B5024B1B681B69019308BD1C02030092
:1083600008B5024B1B689B69019308BD1C02030002
:1083700008B5024B1B68DB69019308BD1C020300B2
:1083800008B5024B1B681B6A019308BD1C02030061
:1083900008B5024B1B685B6A019308BD1C02030011
:1083A00008B5024B1B68DB6A019308BD1C02030081
:1083B00008B5024B1B681B6B019308BD1C02030030
:1083C0000021FFF79FBE10B5836804460BB901F08A
:1083D000F0FEC3689847A3681BB1032221462046DC
:1083E000984720461021BDE8104001F0C6BE10B5E8
:1083F0000446006808B1FFF763FC204610BD10B5C5
:10840000036804469B689847A368013BA3602BB9A7
:1084100023682046DB68BDE81040184710BD0B6894
:10842000036013B15A6801325A60704710B50446B0
:10843000006828B14368013B43600BB9FFF7DFFFD9
:10844000204610BD10B5064C002320462360FFF7E0
:108450002FFC2046034A0449BDE8104001F088BEC5
:1084600058E20320A8DE0320EF830D00002211460E
:108470004068FFF71DBF002211464068FFF738BF74
:10848000002211464068FFF743BF00224068FFF713
:1084900037BF002281F001014068FFF721BF0023B0
:1084A0001A4619464068FFF713BF00231A461946BB
:1084B0004068FFF705BF002211464068FFF7E8BE9D
:1084C000002202214068FFF7EBBE00231A464068F5
:1084D000FFF7D6BEF0B51B4B036000250F462833CF
:1084E000182689B043608560C56032462946044637
:1084F000103002F0C3FE2A4629467868FFF7D8FEFE
:1085000008B9A0601BE02946324602A800950195F3
:1085100002F0B4FE02A96846ADF80860FFF770FBF0
:1085200010B10123A3600AE0009B019AA360E260FE
:108530000BB90223A36002A9204600F089F8204667
:1085400009B0F0BDC0D60D0038B5084C28252A4624
:108550000021204602F092FE4FF0FF336360044B8F
:10856000258004225A60034A1A6038BD64E2032061
:108570005CE203208CD60D007047007D7047000040
:10858000037D1BB18369B3F1004F02D19FED050A52
:10859000704707EE903A9FED047AF8EEE77A87EE9F
:1085A000870A7047000000000000C842037D1BB12D
:1085B000036AB3F1004F02D19FED050A704707EE41
:1085C000903A9FED047AF8EEE77A87EE870A7047D3
:1085D000000000000000C84210B52821044601F048
:1085E000CCFD204610BD0000037D7BB1436A002B0B
:1085F0000CDB07EE903ADFED076A9FED070AB8EE55
:10860000E77AC7EE267A27EE800A7047BFEE000AA7
:10861000704700BF00FF7F470000C842037D7BB169
:10862000C369002B0CDB07EE903ADFED076A9FED84
:10863000070AB8EEE77AC7EE267A27EE800A704777
:10864000BFEE000A704700BF00FF7F470000C8422E
:1086500030B50D4600F110040FCD0FC495E80300AE
:1086600084E80300012030BD2DE9F04107460C46A7
:1086700015462AB90368C9B29B68BDE8F04118479E
:10868000002907DA0A2A05D12D2100F019FE6142DE
:10869000064601E021460026EAB2384600F029FEEF
:1086A0003044BDE8F08170B50D4606460A22816867
:1086B0002846FFF7D9FF2C210446284600F000FE8B
:1086C0000A220444F1682846FFF7CEFF204470BD1B
:1086D000A0F10400FFF7E7BF70470020704710B516
:1086E0001021044601F049FD204610BD08B508B12F
:1086F000FFF7F5FF08BD0022026010B54FF69C722F
:108700008280B1F9044084808A8002680C68046029
:108710000A6010BD10B504460068FFF709FE204648
:1087200010BD38B5C468F4B12378022B03D104F12D
:108730000C00FFF7EFFF656835B12846FEF773F9C7
:108740001021284601F019FDA56835B12846FEF72D
:108750006AF91021284601F010FD20461421BDE8D9
:10876000384001F00ABD38BD10B588B004466846EF
:1087700000F0F2FF694604A801F010F804A8A04731
:10878000044604A800F0A1FF684600F09EFF2046C2
:1087900008B010BDF0B5102485B007460E4615464A
:1087A00000212246684602F069FD00226946104613
:1087B000ADF80040029703960195FFF701FD05B063
:1087C000F0BD13B5044691E8050000234B600B6033
:1087D0002060626001A801930093FFF727FE204606
:1087E00002B010BDF7B50C4602AD54F8043B45F895
:1087F000083D06460F4601A82146FFF710FE294610
:108800003046FFF7DEFF01A8FFF710FE2046FFF716
:108810000DFE3846082101F0B0FC304603B0F0BD33
:1088200038B500230446036010200D46FBF735FCE5
:1088300028B1012343608360024B0360C560206060
:10884000204638BDF4D60D00826810B50AB901F093
:10885000B0FCC368BDE81040184708B5006800F1D7
:108860001001FFF7F1FF08BD826810B50AB901F0E9
:10887000A0FCC368BDE81040184708B5006800F1C7
:108880001001FFF7F1FF08BD38B5002383608B6846
:1088900004460D462BB102229847EB68E360AB68B3
:1088A000A360204638BD0000F0B589B00468684672
:1088B000FFF721FF00238DF808304FF00202D4E8C3
:1088C0004F3F002B03D1C4E8412F0029F7D102D03C
:1088D0008DF8083063E014F10C0503D06946284692
:1088E000FFF709FFBFF35F8F01236370002004F1DE
:1088F0000803BFF35F8F53E8006F43E80002002ACC
:10890000F9D1BFF35F8F002E49D0FFF713FC20B1E0
:1089100029463046FFF798FF3AE0314602A8FFF7B4
:10892000B3FFE068B4F9105008B102F037FF0690C9
:108930001020ADF81C50FBF7B0FB0546E8B100274E
:1089400087601820FBF7A9FB044688B101468760C1
:1089500002A8FFF799F8049BA268A360059B049204
:1089600006A9E268E36004F110000592FFF7C3FE78
:108970000D4BEB600D4B2C60AB6006A8FFF7CAFEF9
:1089800002A8FEF750F8002229460948FFF7DAFB53
:108990003046FEF748F81021304601F0EEFB6846FD
:1089A000FFF7B8FE09B0F0BD5B880D00D18A0D005D
:1089B000C7830D002DE9F04F8BB006460F46904659
:1089C00099469DF850A0FFF71BFC07AD834630BBCE
:1089D0004FF62E73059005A92846ADF81830FFF71D
:1089E0008AFE1420FBF759FB044658B1022303709A
:1089F00001234370C0F804B0C0F808B029460C3019
:108A0000FFF779FE3046214640F8044BFFF708FF98
:108A10002846FFF77FFE05A8FFF77CFE52E0002402
:108A20000C2314206C60AC600793FBF736FB014607
:108A300018B1047044704460846004A80391FFF787
:108A4000EFFE224B08930820FBF727FB044628B1D2
:108A5000039B40F8043B04A9FFF7E1FC00955FFA93
:108A60008AF34A46414638460994FFF7D9FB20B9B4
:108A7000039B5B7803F0FF0283B1039B059304A97A
:108A800006A8FFF7CCFC05A93046FFF79AFE06A81A
:108A9000FFF7CCFC04A8FFF7C9FC13E04FF69C736A
:108AA00005A903A80592ADF81830FFF7FDFE05A84B
:108AB000FFF730FE05A80999FFF794FE06A8FFF717
:108AC000B5FCDAE730460BB0BDE8F08F418C0D0005
:108AD000022AF8B5044606D0032A17D0012A22D16B
:108AE0000B6803601FE018200E68FBF7D6FA0546F6
:108AF00050B13146FFF7C8FE3069B6F9147008B1BD
:108B000002F04CFE2861AF8225600CE0046854B18D
:108B100004F11000FFF7FEFD2046FDF784FF182149
:108B2000204601F02AFB0020F8BD38B50023836001
:108B30008B6804460D462BB102229847EB68E36030
:108B4000AB68A360204638BD022A70B5044606D043
:108B5000032A11D0012A18D10B68036015E01420F4
:108B60000E68FBF79AFA054620B13146FFF7DDFFA4
:108B7000337C2B74256008E0046834B12046FDF78F
:108B800052FF1421204601F0F8FA002070BD0000C9
:108B9000F0B5002387B00C46BFF35F8F50E8006F3D
:108BA00040E80032002AF9D1BFF35F8F002E3FD09A
:108BB0001846FFF7BFFA074620B121463046FFF7B7
:108BC00053FE2EE0314601A8FFF7AFFF23788DF862
:108BD00014301020FBF761FA0546D0B187601420ED
:108BE000FBF75BFA044678B18760014601A8FEF7FF
:108BF0004BFF039BA268A360049B0392E268E360BF
:108C00009DF81430049223740A4BEB600A4B2C60DD
:108C1000AB6001A8FDF707FF002229460748FFF7D0
:108C200091FA3046FDF7FFFE1021304601F0A5FA1B
:108C300007B0F0BD7B880D00498B0D00C7830D0088
:108C400030B585B004460D4668461146FFF7CAFDAB
:108C50007CB124B228460DB102F0A0FD029002A919
:108C60006846ADF80C40FFF71FFE02A8FFF752FD63
:108C70001DE000988DF808404FF00102D0E84F3F0A
:108C8000A34203D1C0E8412F0029F7D102D08DF8CB
:108C900008300CE010F10C014FF0010318BF037312
:108CA000BFF35F8F043000F8033CFFF771FF01A8AA
:108CB000FFF7BCFB05B030BD002211464068FFF74E
:108CC00017BB002211464068FFF722BB0022406814
:108CD000FFF716BB002281F001014068FFF700BBDF
:108CE00000231A4619464068FFF7F2BA00231A46D5
:108CF00019464068FFF7E4BA002211464068FFF7C2
:108D0000D7BA002211464068FFF7C2BA00220221FA
:108D10004068FFF7C5BA00231A464068FFF7B0BAAB
:108D2000024B03225A60024A1A6070478CE2032009
:108D300010D70D007047F8B5064615460C468F183B
:108D4000BC4206D0336814F8011B9B683046984734
:108D5000F6E72846F8BD0022007CFFF789B800211D
:108D6000007CFFF78DB80021007CFFF791B800214F
:108D7000007CFFF795B80021007CFFF799B810B58B
:108D80001421044601F0F9F9204610BD10B504463F
:108D9000002363604FF47A73A360044B2174084688
:108DA00023601146FFF794F8204610BD44D70D000C
:108DB00000231A461946007CFFF742B870B50C46EE
:108DC00086B0142506462A46002101A802F056FA6C
:108DD00023788DF8083063680393E36804930022D6
:108DE000237A307CADF8045001A90593FFF788F889
:108DF00006B070BD1FB500338DF800104FF0640150
:108E0000039118BF0123694601928DF80830FFF7DE
:108E1000D5FF05B05DF804FB0022007CFFF718B811
:108E2000C9B2FFF7F9BF0022007CFFF719B8002193
:108E3000007CFFF745B808B50021007CFFF750F82B
:108E4000B0FA80F0400908BD08B50021007CFFF7AA
:108E50004FF8B0FA80F0400908BD0047F0B585B082
:108E60001C460E4617460546FEF7D2FF00208442F8
:108E70004FF0040303908DF80C30A5BF9DF8283007
:108E80008DF80E30034603AB009332463B4606494D
:108E9000A8BF8DF80D402846FEF7B2FFB0FA80F06B
:108EA000400905B0F0BD00BF5B8E0D00FEF7C0BFEE
:108EB000FEF7B6BF704710B51821044601F05DF902
:108EC000204610BDF0B5037D062B8DB00E4600F197
:108ED00004074FF0000402D000F1080518E00CADC3
:108EE000394605F8304D2F232A460A20FFF710F89F
:108EF000284603F083F933680246DB68294630468A
:108F000098470FE024B12E21304600F0D9F90444EF
:108F100015F8011D0A22304600F0EBF9BD42044469
:108F2000F0D120460DB0F0BD10B5054B044611221E
:108F300040F8043B002102F0A1F9204610BD00BF1B
:108F40006CD70D000346074A10B543F8042B01F116
:108F5000100251F8044B43F8044B9142F9D10A78BE
:108F60001A7010BD6CD70D0010B59DF8084044EA8A
:108F7000032343EA024242EA01610423416003758C
:108F800010BD37B50D788B784A78C978009129469D
:108F9000FFF7EAFF03B030BD014B024A1A60704789
:108FA00094E20320E8D70D00002211464068FFF745
:108FB0009FB9002211464068FFF7AAB90022406815
:108FC000FFF79EB9002281F001014068FFF788B9E0
:108FD00000231A4601214068FFF77AB900231A4698
:108FE00019464068FFF76CB9002211464068FFF748
:108FF0005FB9002211464068FFF74AB900220221FA
:109000004068FFF74DB900231A464068FFF738B9AA
:1090100038B5054688B104684CB1A3681BB103227A
:109020002146204698471021204601F0A6F8284600
:109030001421BDE8384001F0A0B838BD10B1036874
:109040005B681847704710B503680446BBB15868A1
:10905000FEF7EEFD78B923685A7C12B95868FEF71E
:10906000F7FD23685868FEF7FBFD206800232360A6
:1090700028B1FFF7CDFF206808B1FFF7C9FF2046F0
:1090800010BD38B50446D0F8C40108B1FBF709F8A3
:10909000D4F8C00108B1FEF713FED4F8BC5135B1C5
:1090A0002846FFF7D0FF0421284601F066F8206823
:1090B00008B1FFF7C3FF204638BD000010B5044BD0
:1090C000044640F8083BFFF7DCFF204610BD00BF18
:1090D00054D80D0038B50E4C0E4B236000250223EA
:1090E00004F5E4706360A560C4F8C451C4F8C851C5
:1090F000FEF7DEFD084BC4F8CC5184F8D051236054
:109100002046064A0649BDE8384001F031B800BFA4
:1091100098E2032088D80D0054D80D00A8DE032063
:10912000BD900D0000231A464068FFF7A9B8002241
:1091300002214068FFF7B4B8002211464068FFF7EB
:10914000A7B8002211464068FFF7B2B800231A46BC
:1091500019464068FFF7B4B800231A46194640681C
:10916000FFF7B6B8002281F001014068FFF7B8B8F8
:1091700000224068FFF7C4B8002211464068FFF79C
:10918000C7B8002211464068FFF7B2B82DE9F04396
:10919000002495B016460D460746FFF7C5FE21464A
:1091A00020220CA8009402F069F840230C93214679
:1091B0006B460CAA3046FEF7BBFE0446002844D19D
:1091C000024601216868FFF773F8022180462246B3
:1091D0006868FFF76DF8009E81462146002E34D066
:1091E000002932D17368022B02D00A2B09D02AE061
:1091F000B8F1000F27D0716938460431FFF7C1FE7E
:1092000020E0B9F1000F1ED07469112201A802F00C
:1092100035F806238DF8143001AD04F10803183435
:10922000186859682A4603C20833A3421546F7D185
:1092300001A906A807ADFFF785FE0FCD3C1D0FC4A1
:109240002B6823700121F669C8E70098FEF768FED5
:10925000384615B0BDE8F083024B034A1A6000227D
:109260005A6070476CE4032088D80D00F8B50646B4
:109270000D468F180024BD420CD0336815F8011B31
:109280009B6830469847002801DB0444F3E7002C34
:1092900008BF04462046F8BD70B505460C46084692
:1092A00049B102F0ABFF2B68024621462846DB6835
:1092B000BDE87040184770BD08B5FFF7EDFF08BD69
:1092C00003689B68184738B50D210546FFF7F8FF7E
:1092D0000A2104462846FFF7F3FF204438BD38B57D
:1092E0000546FFF7D9FF04462846FFF7ECFF204468
:1092F00038BD30B58BB00B4600218DF82410012A03
:1093000098BF0A220DF12304B3FBF2F505FB1233DB
:1093100003F0FF03092B94BF30333733DBB2214610
:1093200004F801392B46002DEED1FFF7B5FF0BB045
:1093300030BD00002DE9F04757EC106B82460D461A
:1093400010EE102A3B4610EE100A394601F0CEFC12
:1093500008B14E4912E027F000494FF0FF324C4B64
:109360003046494601F0C2FC68B94FF0FF32484B25
:109370003046494601F09CFC28B946495046FFF763
:109380008BFFBDE8F0874FF06042434B30463946D3
:1093900001F0A2FC08B14149F0E74FF06042404BB8
:1093A0003046394601F07AFC0028F4D1002200232F
:1093B0003046394601F072FC40B12D215046FFF78E
:1093C0007FFF07F1004304461F4600E0044635498D
:1093D0004FF0000800205FFA88F39D4206D9002272
:1093E000314B01F013FB08F10108F4E732463B462C
:1093F00001F030F80F46064601F0B6FC0A2201469D
:1094000080465046FFF775FF0444E5B3404601F03F
:109410005DF902460B463046394601F019F806461A
:109420000F4650462149FFF737FF044400221E4BE8
:109430003046394601F0C0F906460F4601F06CFC93
:10944000B0F1000907DA2D215046FFF739FFC9F1C5
:109450000001804602E049464FF000080A225046CB
:10946000FFF747FF40440444484601F03FF90246F5
:109470000B463046394600F0EBFF013D15F0FF0585
:1094800006460F46D2D12046BDE8F087B4D80D007D
:10949000FFFFEF7FBED80D00FFFFEF41B8D80D00F2
:1094A000FFFFEFC10000E03F00002440BCD80D00EA
:1094B00038B5C9B20546FFF73DFF04462846FFF719
:1094C00002FF204438BD0CB42DE9F04387B000AF53
:1094D00007F13804054654F8049B3C600E462346C9
:1094E0004A461421381DFEF753FF132805D8391DAD
:1094F0002846FFF7D1FE044613E000F1080323F0ED
:109500000703E846ADEB030D411C23464A46684677
:109510003C60FEF73DFF69462846FFF7BDFE044666
:10952000C5461EB12846FFF7CEFE044420461C3730
:10953000BD46BDE8F04302B0704710B50446FDF7E4
:1095400072FA204610BD00000348044A0449002373
:10955000836000F00DBE00BF74E40320A8DE03208A
:109560003B950D000021FEF71BBD0021FEF720BD3D
:1095700010B5044601700846FEF7F2FC0023636054
:10958000204610BD38B5044600780D46FFF7EAFFC7
:1095900040B920782946FEF7D3FC2078BDE8384052
:1095A000FFF7E3BF38BD0078FFF7DFBF400830B5F5
:1095B0001860002418688842E5B206D90134082CE6
:1095C00002D040081860F5E70725024B5B5D137079
:1095D00030BD00BFC2D80D002DE9F04307468FB063
:1095E00000780E46FFF7BEFF002862DB3C781422AD
:1095F000002109A801F042FE0B232046002209A900
:10960000ADF82430FEF7BCFC9DF82D4054B19DF818
:109610002C5035B9DDF830809DF834909DF83540F8
:1096200003E00024A146A0460125337905B1BBB96A
:109630009D420BD1B268424508D18DF820908DF83B
:109640002140BDF82010B289914209D053B10024C5
:10965000387801940094234622460121FEF798FCB5
:10966000002026E08DF80F30B1680A9804AB0DF1A8
:109670000F02FFF79BFF317905B1B1B9A94208D0BC
:10968000002438780194747B337B9DF80F2000947C
:10969000E4E7B3684345F3D38DF820908DF821407B
:1096A000BDF82020B3899A42EAD1049B4345E7D113
:1096B000D6E70FB0BDE8F08308B50078FEF748FCA8
:1096C000C0B208BD0078FEF753BC10B50446006870
:1096D000FEF72EFE204610BD10B50446006808B106
:1096E000FEF726FE00232360A360636010BD38B53B
:1096F00004460D4600680131FEF722FE10B184E8F1
:109700002100012038BD10B50368044613B1436839
:109710008B4207D22046FFF7EAFF20B1A3680BB9BE
:1097200022681370012010BD70B50E461146044624
:109730001546FFF7E8FF18B92046FFF7CDFF09E00F
:109740002A463146A560206801F072FD2268A368B0
:109750000021D154204670BD38B500230446036073
:109760004360836003730D4639B1084602F046FD3D
:10977000294602462046FFF7D7FF204638BD8842DB
:1097800010B50B46044607D0096819B19A68FFF76F
:10979000CBFF01E0FFF7A0FF204610BD10B500236E
:1097A00004460360436083600373FFF7E8FF2046CD
:1097B00010BD08B582680B4612B919B9012008BD61
:1097C00011B90368187802E0006801F0D5FFB0FA1B
:1097D00080F0400908BD70B50E469AB191B1856818
:1097E0009D4202D800230B7070BD541EED1A016813
:1097F000AC4228BF2C4619442246304602F01BFDDD
:109800000023335570BD10B50446006818B1FEF74B
:109810008FFD0023236010BD38B5B1F9043083807B
:109820000B460D4653F8062FC0F806209B8843814F
:109830000446FFF7E8FF2B6813B1236000232B6079
:10984000204638BDB1F9043010B50BB90A689AB199
:109850000C685CB1A288012A03D0042A06D1022236
:1098600005E0A4894C818A710B8105E004220B81FB
:109870004FF6FF738A714B8151F8063F03608B8866
:10988000838010BD014600228C20FEF731BA0020F3
:10989000FFF7F8BF30B5044685B0084611461A46B2
:1098A0000023FEF737FC0D4DADF80C00002301A995
:1098B0000193ADF808308DF80A3028464FF6FF7353
:1098C000ADF80E30FFF7A8FF01A8FFF79CFF204678
:1098D0002946FFF7B7FF204605B030BD84E40320DA
:1098E00010B5094C00204FF6FF732060A080A071D6
:1098F00020816381FEF7FEFB2046044A0449BDE84F
:10990000104000F035BC00BF84E40320A8DE032033
:10991000A9410D00F0B5144B144F1E68144B0644BA
:1099200018683B6806449E428BB01BD00AA801AD64
:1099300040F8286D01F084FB436903F26C734361C6
:1099400004460FCC0FC50FCC0FC5D4F800E0C5F806
:1099500000E001AD0FCD074C0FC40FCD0FC43E602A
:10996000C4F800E00BB0F0BDC0E40320BCE4032069
:10997000B8E4032090E4032008B50020FEF768FC5B
:1099800028B1FEF73DFC80F00100C0B208BD012007
:1099900008BD000008B5FFF7BDFF024B9869013014
:1099A00008BD00BF90E4032008B5FFF7B3FF024BEA
:1099B0001869013008BD00BF90E4032008B5FEF728
:1099C000C7F9034B1B681844024B1B68184408BDB9
:1099D000C0E40320B8E40320FAEE087AB4EEE70A04
:1099E000F1EE10FA0FD4F2EE0C7AB4EEE70AF1EED3
:1099F00010FA08DCDFED047A044B20EE270ABDEEF6
:109A0000C00A83ED000A704700006145C0E40320EE
:109A1000B5EEC00AF1EE10FA0FD4F0EE007AB4EE13
:109A2000E70AF1EE10FA08DCDFED047A044B20EED1
:109A3000270ABDEEC00A83ED000A704700006145A9
:109A4000ECDD0320024B1A68024B1A60704700BF1E
:109A5000ECDD0320B8E40320014B00221A607047BC
:109A6000B8E4032008B5FEF77BF900221146104642
:109A7000BDE80840FEF776BB37B50E4B1B681944AE
:109A80000D4B1B68044602A8194440F8041D01F060
:109A9000D7FA01F0D9F9054602F0B0FB28440023BB
:109AA00000F8013C29462046FFF756FE204603B049
:109AB00030BD00BFC0E40320B8E403202DE9F04727
:109AC000A4B014AC07468946204611463F221D46E5
:109AD00002F0B1FB002320468DF88F3002F08EFBA0
