:02000002D0002C
:1040000000400D0030E50D00000006000D00050128
:084010000401D50700000000C7
:0440180058CA0D0075
:1040200009480A49884208B505D0094A824202D0A7
:10403000121A07F063F80748074A0021121A07F01E
:1040400085F8014808BD00BF08DF032014E20D0019
:10405000F8E10320F8E10320EDE7032070B5074EF7
:10406000074C05F0A7FEA41BA4080025A54200D11B
:1040700070BD56F8043B98470135F7E7B4D90D00F9
:10408000ECD90D0001F0C4B908B500F0F1FFBDE8AE
:10409000084005F051BE04F055B904F053B904F0DE
:1040A00059B9000008B5034A00210C2004F010F8AB
:1040B000FEE700BF517D0D000078B0FA80F04009A6
:1040C0007047012303707047014B01221A7070473B
:1040D000BCE3032038B50446006928B185680C218B
:1040E00005F073FF2846F8E7204638BD10B5036891
:1040F0002F2B044604D9074A00210A2003F0E8FFC9
:1041000023681F2B83BF03F01F03034823604FF076
:10411000A04010BD517D0D000003005008B50449BA
:1041200005F05DFA18B1034802F048FB012008BD14
:10413000B0CA0D00E4E2032008B5044905F04FFAC7
:1041400018B1034B03221A70012008BDB0CA0D003C
:1041500064E3032010B5034B0360044603F03CFB0B
:10416000204610BDD0CE0D0010B50446FFF7F2FF7B
:104170002046382105F029FF204610BD10B5034B1D
:104180000360044602F0FAFA204610BDB4CE0D00DA
:1041900010B50446FFF7F2FF2046102105F015FF89
:1041A000204610BD10B50446006808B104F0D2F8EE
:1041B000204610BD08B504F02DF820B1BDE8084038
:1041C000002004F047B808BD08B5002004F04AF804
:1041D00028B104F01FF880F00100C0B208BD012032
:1041E000FCE70023042203F0F5BF10B500210446CC
:1041F000084603F055FDD4F8A0400021012003F04B
:104200004FFDE0B210BD30B500218FB00446084626
:1042100003F046FD0FCC6D460FC50FCC0FC50FCC7C
:104220000FC594E8030085E803000021012003F096
:1042300037FD684601F088FE51EC100B06F082FB5A
:1042400000EE100A0FB030BD30B500218FB004462B
:10425000084603F025FD0FCC6D460FC50FCC0FC5EA
:104260000FCC0FC594E8030085E80300002101206E
:1042700003F016FD684601F08BFE51EC100B06F0C2
:1042800061FB00EE100A0FB030BD002003F088BDC6
:104290000EB410B58DB00FAA016852F8044B03920A
:1042A00000232020CDE90403CDE900421E2004AA0A
:1042B00003F016FF0DB0BDE8104003B070470000DA
:1042C00038B50A4C0A4D2378BFF35B8F13F0010F0A
:1042D00009D12046FFF7F0FE28B103F079FD2860F0
:1042E0002046FFF7EEFE286838BD00BFFCE1032042
:1042F00000E2032037B504689DF818508DF80030AF
:104300008DF80450E4683C23A04703B030BD0000A2
:1043100010B50B7892B00C467BB9194902A807F08A
:10432000C9F900238DF80030164B17491B78174840
:1043300002AAFFF7DFFF12B010BD084606F010FD1D
:10434000C8280ED1124902A807F0B4F905F063FBA2
:10435000104BD861104B01221A70104B00221A70BA
:10436000DFE7204606F0FCFCC928EBD0204606F02B
:10437000F7FC0B4A0346402102A804F00BF8D0E7F3
:10438000F0CA0D0054E2032027CB0D0008E3032000
:10439000F8CA0D0068E3032088E30320C6E2032087
:1043A0000ACB0D0013B50D4905F019F9002498B199
:1043B0000B4B8DF800401B780A4A0B490B48FFF75E
:1043C00099FF4FF4FA6004F015F8094823460122DA
:1043D0000A2102F001FF012002B010BDB0CA0D0099
:1043E00054E2032034CB0D008CCD0D0008E30320F4
:1043F00044E3032037B51949044605F0F0F80546B3
:10440000B0B1174B01241C71164B1C7003F002FF56
:1044100010B9012003B030BD00238DF80030124BDD
:10442000124A1B7812491348FFF764FF2046F1E750
:104430001149204605F0D3F80028EBD0084B1D7138
:10444000084B01241C7003F0E5FE0028E1D0064B68
:104450008DF800501B78094AE4E700BFB0CA0D0090
:1044600068E3032088E3032054E203204CCB0D00D3
:104470006FCB0D0008E303205DCB0D005FCB0D007B
:104480002DE9F047C8B08046FFF794FEFFF7FDFE28
:104490004FF0000A814647F22F560027FFF7F5FE3E
:1044A000B0EB090461EB0A05AF4208BFA64205D391
:1044B000FFF78AFE10B903F09DFEEFE7FFF784FED9
:1044C000D8F800000A2203A907F01EFF00F10C0330
:1044D000DBB2182B48D845B207EE905A264BB8EEFF
:1044E000E70A012483ED050A05F02CF9234B1C7023
:1044F00005F0E2FA064605F08EFA301A05F0C0FE25
:104500001BA3D3E9002306F04FF81D4ACDE90001B3
:104510000A211C4803F03EFF03F07CFE10B32B463B
:10452000194A1A4D4FF48071002608A803F032FF93
:104530008DF8006016492B78164808AAFFF7DAFEB6
:1045400005F069FA0246C31704A805F061F98DF871
:1045500000602B78049A0E490E48FFF7CBFE04A8A2
:1045600004F0C4FF204600E0002048B0BDE8F0871A
:10457000000000000020AC4068E3032088E3032033
:1045800074CB0D00BCE203207ECB0D0054E203206F
:1045900092CB0D0008E3032030B5C5B00A220068B5
:1045A00003A907F0B1FEC3B25A1E3B2A1FD8114A15
:1045B000114D1248AB71012414700C21104A03F004
:1045C000E9FEAB790F4A4FF4807104A803F0E2FED4
:1045D00003F020FE48B100238DF800300A4B0B4950
:1045E0001B780B4804AAFFF785FE204600E0002058
:1045F00045B030BD88E3032068E3032025DF0320B6
:10460000AECB0D0097CB0D0054E20320F0CD0D0092
:1046100008E303202DE9F04F234B244C9D68A26949
:104620001B69D3B0D4E90067D4E90289D4E904ABAB
:104630001193109205F0EFF994ED0A7B119B08930A
:104640008DED0E7B94ED087B194B109A0A908DED41
:104650000C7BCDE906530992CDE904ABCDE9028983
:10466000CDE90067134A4FF4807112A803F092FE5F
:1046700000238DF80030104B10491B78104812AA07
:10468000FFF738FE0F4B01221A7003F069FB0E4B47
:10469000186005F0D1F90D4B186005F0D9F90C4BF5
:1046A000186053B0BDE8F08F68E3032080E2032078
:1046B00056E20320B9CB0D0054E2032049CC0D0093
:1046C00008E30320C6E20320C0E30320B4E2032092
:1046D000B8E203200000000070B52DED028B1E4EE5
:1046E00082B00546002400222946304601F0D4FE5F
:1046F00030468DED010A01F0ADFF9DED010A50B984
:104700000134042CEFD105F0CBFA144904F0FDFC80
:104710009FED0F8B13E0032CF5D00F4801F080FFC5
:1047200010EE100A05F0BEFD41EC180B05F0B8FACA
:10473000B0EE480AF0EE680A022104F0D7FDB0EEB0
:10474000480AF0EE680A02B0BDEC028B70BD00BFF3
:10475000000000000000F87FC8E2032064CC0D00D8
:1047600030B5194D0FCD99B004AC0FC40FCD0FC4A7
:1047700095E8030084E8030014490EA803F0A8FE9E
:104780000EA803F0F8FE04460EA803F0FDFE0EA8E6
:1047900010EE105A03F028FF18AB10EE100A03EBCE
:1047A000840405F07FFDCDE90201284605F07AFD7D
:1047B000CDE90001064A54F8503C0648402103F078
:1047C000E9FD19B030BD00BFF0CE0D00B4E5032007
:1047D00074CC0D0004E2032037B5FFF771FD90F8AB
:1047E00050305C01FFF76CFD90F8513003F01F036F
:1047F000234301A80193FFF779FC019B012404FAEC
:1048000003F3C0F80835FFF75BFD90F850305D0109
:10481000FFF756FD90F8513003F01F032B4301A81A
:104820000193FFF763FC019B9C40034BC0F80C45D0
:1048300000221A7003B030BDBCE3032010B5202461
:1048400090B022460021684606F080FC22460021F6
:104850000DEB04008DF8054006F078FC00210DEB0F
:1048600004008DF8254003F0A1FC41F27003ADF87F
:104870000630084B029341F21003ADF80C30009B58
:10488000002143F400736846009303F08FFC10B0DE
:1048900010BD00BF840384032DE9F84F1D48DFF8E5
:1048A00080A0406800231A46194603F01BFD03F060
:1048B000A9FC4FF496744FF0000B40F2E7384FF02C
:1048C0000009FFF7E2FC0546FFF7DFFC461B61EB42
:1048D0000B07B94508BFB04505D303F09BFC10B9E1
:1048E00003F088FCF0E703F095FC20B103F092FCA4
:1048F00050B9BDE8F88F03F033FACAF8000003F0AE
:1049000079FC013CDDD1F1E7034A0123D370034A6E
:104910001370EEE7B4E5032068E3032088E3032087
:10492000A0E7032008B503F075FC80F00100C0B2D9
:1049300008BD00002DE9F04385B0002601A8CDE9AF
:1049400001668DF80C6003F020FFFFF79EFCB14676
:10495000804643F697260027FFF797FCB0EB080444
:1049600061EB0905AF4208BFA64205D3FFF7DAFFA6
:1049700010B903F03FFCEFE7FFF7D4FF0A4800232C
:1049800019461A46406803F0B5FC084B0022DA705D
:10499000074B01244FF4FA601C7003F02BFD2046F6
:1049A00005B0BDE8F08300BFB4E5032068E3032051
:1049B00088E3032030B5134D134C14492A7820782E
:1049C0008DB00E2303FB0212009203FB0013104A6A
:1049D000282102A803F0DEFC2B78237003F01AFCD8
:1049E00048B100238DF800300A4B0B491B780B4867
:1049F00002AAFFF77FFC05F053F902A904F085FB3A
:104A00000DB030BD64E3032004E3032031DF032055
:104A10008DCC0D0054E203209BCC0D0008E3032055
:104A20002DE9F347174B184D184A19491948002426
:104A30008DF800401B78FFF75DFC2C71FFF7BAFB87
:104A4000FFF723FC47F22F5882464FF00009FFF78B
:104A50001CFCB0EB0A0661EB0407B94508BFB04582
:104A600005D3FFF7B1FB10B903F0C4FBEFE7FFF785
:104A7000ABFB00232B61084B01221A7002B0BDE88A
:104A8000F08700BF54E2032068E30320ACCC0D00A4
:104A9000B4CC0D0008E3032088E3032038B504F00C
:104AA000E3FF054604F0F4FF044604F0E9FF231F8A
:104AB000062B0ED9E31E082B0DD801382D1A04D56C
:104AC0000B2C14BF0020012038BD072D03DD032C63
:104AD000F7E70120F8E70020F6E7000000000000FB
:104AE00070B52DED028BC8B0054604F094FF0A2284
:104AF000044603A9286807F007FCC3B2022B59D863
:104B000043B208EE103AB8EEC88AB0EE480A04F094
:104B100039FE2D4B83ED068A2C4B01221A7018EEBC
:104B2000100A05F0BFFB2A4ACDE900014FF480715D
:104B300008A803F02FFC04F051FF28B1FFF7AEFFE7
:104B4000002834D004F03CFE04F0B6FF054604F023
:104B500062FF281A05F094FB19A3D3E9002305F09E
:104B600023FD1C4ACDE900010A211B4803F012FC79
:104B700003F050FBC8B1194D19491A4800268DF8A9
:104B800000602B7808AAFFF7B5FB2246E31704A8BC
:104B900004F03EFE8DF800602B78049A104911480D
:104BA000FFF7A8FB04A804F0A1FC012003E004F037
:104BB00013FEC9E7002048B0BDEC028B70BD00BFFA
:104BC000000000000020AC4068E3032088E30320DD
:104BD000C2CC0D0074CB0D00BCE2032054E20320D4
:104BE00092CB0D0008E3032030B585B00D460022BE
:104BF0006946009203F07CFAB0B9009C0CB12369BD
:104C000023B90A4A00210A2003F062FA0023ADF812
:104C100006300C23ADF80430042303930295236976
:104C200001AA01212046984705B030BD517D0D00F5
:104C300007B5072001A9FFF7D7FF0028A8BF0198F3
:104C400003B05DF804FB0000F0B589B001A90320B2
:104C5000FFF7CAFF002839D1BDF8043007EE903ABB
:104C6000FBEECC7A234D244E0FCD01AC0FC495E85A
:104C70000700FDEEE77A84E80700C6ED027AFFF749
:104C8000D7FF08AB03EB80001C4D50F81C3C1C4ABE
:104C90001C48102103F07EFB2B7834462F461A4E19
:104CA000BBB9FFF7C5FF042813D101232B7003F014
:104CB00057F83368C01A154B984219D8A368322B9D
:104CC000CCBF00230123637109B0F0BDFFEE007A71
:104CD000C8E7FFF7ADFF022805D100233B7003F0C2
:104CE0003FF83060E3E7FFF7A3FF0328DFD1F4E7E5
:104CF0000123E8E718CF0D0068E3032055E2032005
:104D000020D10D0056E2032000E3032000BADB00AF
:104D100038B5046805467CB16368013B63605BB9E4
:104D2000236820469B689847A368013BA3601BB992
:104D300023682046DB689847284638BD2DE9F043B4
:104D4000604CABB003F00CF82368C01A41F2873313
:104D5000984240F2B48003F003F820605A4C0021DE
:104D60006568084602F09CFF95F800806E6B574D11
:104D70000021012002F094FF2746B8F1000F12D164
:104D80007868FFF732FA524A034680210AA803F0F6
:104D900001FB2B78002B73D101232B7002F0E0FF75
:104DA0004C4B18606CE002F0DBFF42F20F73801B8B
:104DB0009842E5D86068484EFFF725FA10EE100AD1
:104DC00005F070FAC6E908016068FFF73DFA10EED9
:104DD000100A05F067FAC6E90A016068FFF713FADE
:104DE000606810EE106AFFF72FFA0021D4F80480F3
:104DF000084610EE107A02F053FF00210120D8F887
:104E0000809002F04DFF6068FFF7EFF98046204682
:104E100000F0FAFE00210446084602F041FFD4F8F3
:104E2000B0400021012002F03BFF4846CDE9068456
:104E300005F026FA294B002205F0B6FB05F082FDAD
:104E400005F030FACDE90401384605F02BFACDE93A
:104E50000201304605F026FA214ACDE90001802101
:104E60000AA803F097FA2B7853B100232B7002F0B5
:104E700077FF184B1B491A68821A1B48FFF708FA7C
:104E800019480AA9FFF704FA03F0C4F9B8B1174C9E
:104E900002F066FF2368C01A154B98420FD902F042
:104EA0005FFF144B20601B788DF8003008A8124972
:104EB0003C230AAA03F05EFD09A8FFF729FF2BB0E7
:104EC000BDE8F083FCE203208CE30320F4E203203E
:104ED000D3CC0D0060E3032080E2032000005940A2
:104EE000EDCC0D001ECD0D00ECE50320F8E2032013
:104EF000BFD4010054E203203ECD0D00F7B5FFF70B
:104F00001DFF244B00225868114603F0E3F908B155
:104F1000FFF726FC204D214F00242E463819FFF7BD
:104F2000DBFB51EC100B05F00DFD07EE900AF4EEE3
:104F3000677AF1EE10FA03D605F0B4F9C5E900017D
:104F40000834182C05F10805E8D1D6E900230C2116
:104F5000CDE900231248134A03F01CFAD6E90223D4
:104F60000C21CDE9002310480E4A03F013FAD6E9CC
:104F700004230C21CDE900230C480A4A03F00AFA65
:104F8000FFF762FE0A4A012313700A4A137003B046
:104F9000F0BD00BFB4E5032080E2032000F403204D
:104FA00008DF032042CD0D00A1DF032019DF03201D
:104FB00088E30320B0E2032010B5264CFFF79EFFE4
:104FC000A378012B84BF0023A370E378012B05D9BC
:104FD00003F020F900283BD00123E3702379D4EDBE
:104FE000057A012B84BF00232371A3681D2BCCBF3E
:104FF0000023012363712369BAEE087AFF2B88BF6F
:105000000023F4EEC77A88BF2361F1EE10FA06D4CC
:10501000B2EE087AF4EEC77AF1EE10FA01DD0E4B2B
:105020006361D4ED067AF5EEC07AF1EE10FA06D49B
:10503000B0EE007AF4EEC77AF1EE10FA02DD4FF02E
:105040007E53A3610A23A371044B01221A7010BD81
:10505000E070C3E768E303200000A0C088E30320FA
:1050600038B503681446DD682023A847204638BDBC
:1050700070B59C4C2378013B86B0052B48D8DFE8FF
:1050800013F0E400060097004C009A00BE00964D15
:105090002B792BB1954B1B78022B01D0FFF78AFCA3
:1050A000934B1B780BB1FFF797FB924E337833B1DC
:1050B0008D4A91480121FFF7D3FF002333708F4EB3
:1050C00033783BB130238E4A8B48502101F0F9FBF5
:1050D000002333706B790BB10423237004F0B8FC08
:1050E000AB7990FBF3F202FB130343B904F0B0FC7D
:1050F000844B1B68984202D00323237008E004F01D
:10510000A7FC28B904F0A4FC7E4B1B689842F3D19D
:105110007D4801F0B9FF06B070BD734D2B792BB1FE
:10512000724B1B78042B01D0FFF744FCFFF78CFD7A
:105130006B790BB90223E0E704F06DFCEB69C01A50
:10514000B0F5E15F10D9FFF7A7FB704B704A1B78F1
:105150008DF8003002A86F493C2303F00BFC03A834
:10516000FFF7D6FD0523C8E704F072FC012803DD34
:10517000EB780BB1FFF7DEFB0021072004F0B3FE54
:10518000FFF72AFB04F064FC3C21C0F13C004143E2
:10519000B1F5616F4FF00102A8BF4FF46161914218
:1051A0004FF00003B8BF1146574802F015F8AFE7BB
:1051B000FFF7A4FED6E74C4D2A792AB14B4B1B785A
:1051C000052B01D0FFF7F6FBEB780BB9FFF764FB7B
:1051D00003F020F808B9FFF75FFB03F01BF840B1BC
:1051E00004F02AFC08B9FFF71BFCFFF713FA0623AB
:1051F00083E702F0B5FD484B186001237DE73A4B89
:105200001B792BB1394B1B78062B01D0FFF7D2FB52
:10521000424B1B78002B8DD002F0A2FD404B1B6847
:10522000C01A4AF6C87398427FF672AF02F098FD32
:10523000394B3C4A186000238DF80030334B3A4913
:105240001B783A48FFF756F8D7E7274C23792BB15C
:10525000264B1B78012B01D0FFF7ACFB02F080FD41
:105260002D4B1B6803F5EA4330338342BFF450AF44
:105270002369032B13DC02F0CDFF48B100238DF826
:105280000030224B2A4A1B7822492848FFF732F87F
:105290004FF4FA6003F0AEF804F0DBF938E704F0FD
:1052A000BAFBE369C01AB0F5E15F45D902F0B2FF7D
:1052B00048B100238DF80030144B1E4A1B78154965
:1052C0001A48FFF717F84FF4FA6003F093F8002537
:1052D000054A094825610121FFF7C2FE2B4601223C
:1052E0000A2161E764E3032068E3032004E3032069
:1052F000BCE3032088E30320E4E20320B0E20320C0
:1053000080E20320B8E2032044E3032054E20320B8
:105310004ACD0D005FCD0D0040E30320C6E203201F
:10532000C0E30320F4D40D0065CD0D0008E3032095
:105330007ECD0D0092CD0D0002F06CFF48B1002330
:105340008DF800300E4B0F4A1B780F490F48FEF7BF
:10535000D1FF4FF4FA6003F04DF800230C4A0D48DA
:1053600023610121FFF77CFE0B4902A804F009F933
:1053700002A8FFF717F802A804F0B8F8C8E600BFC3
:1053800054E20320ACCD0D005FCD0D0008E30320F7
:1053900068E30320E4E20320B0CA0D0007B5FFF77D
:1053A0007BFAFFF7ABFD02F035FF48B100238DF823
:1053B0000030104B104A1B7810491148FEF79AFF35
:1053C000104A11480023937093681D2BCCBF002313
:1053D000012353710A2393710C4B536101214FF048
:1053E0007E53117011719361FFF73AFE03B05DF8BF
:1053F00004FB00BF54E20320CBCD0D006FCB0D00AA
:1054000008E3032068E30320E4E203200000A0C0D7
:1054100070B5A8B004F044FC4FF4165104F034FC0D
:105420000021082004F04EFD0021042004F04AFD74
:105430000121072004F046FD01210520002404F08D
:1054400041FD0121072004F04EFDFFF7C5F9A449F5
:1054500000944FF0FF330122082003F0CBFC04A896
:1054600002F0E0FE23467D2208A904A804F0C9F852
:10547000234622469B499C4D9C4ECDE9004408A8FA
:1054800002F0E0FE9A499B48FEF7ABFE9A499B4822
:10549000FEF7A7FE2346022299499A4802F09AFE97
:1054A00099499A48FEF79DFE99499A48FEF799FE58
:1054B00099499A48FEF795FE99499A48FEF791FE58
:1054C00099499A482346022202F084FE234602228A
:1054D0009749984802F07EFE97499848FEF781FE6A
:1054E00097499848FEF77DFE974A9849984803F0F7
:1054F0003BF9984A9849964803F036F9974A9849F3
:10550000934803F031F9974A9749914803F02CF9F1
:10551000964A97498E4803F027F9964A96498C484F
:1055200003F022F9754A9549894803F01DF994481A
:1055300001F03AF92146924801230DF10B0201F0E6
:1055400075F99DF80B10012900F0B2808C4801F02C
:1055500035F98C4A8A480423214601F0B2F9012327
:1055600087480DF10B02214601F060F99DF80B30E0
:10557000012B00F09A8001233370FFF71DFDFFF728
:1055800063FB0022114603A8039202F0C9FB039BB0
:10559000142B4FF0000240F091802B6901332B61F6
:1055A000794B01221A70AB79784A53480C2102F0EA
:1055B000F1FE774801F062FC0021754801F0ADFD75
:1055C00095ED060A04F0DEF804F008FA20B97048F8
:1055D00001F041FC04F008F9FFF760FA002877D0E9
:1055E00004F0EEF895ED050A04F0ACF804F064FA66
:1055F000044604F010FA201A04F042FE36A3D3E960
:10560000002304F0D1FF634ACDE900010A214A4892
:1056100002F0C0FE604A5A483023502101F006F9DA
:1056200004F00AFA5D4B1860FFF708F9042004F053
:1056300073FC08B9FFF7B2FE594800F02AFF594938
:10564000574800F00AFF5849554800F006FF5749EF
:10565000534800F002FF04F08BFC422201465448FC
:1056600000F044FA524800F0F9F902F079FB514B8E
:105670001860514B01221A70FFF70EF900238DF8C4
:1056800000304E4B4E4A1B784E494F48FEF732FED3
:1056900033780BB9022333700021072004F023FC78
:1056A00004A803F023FF28B070BDFFF777FE64E77E
:1056B00020232A46324801F0B9F85EE7114603A8D4
:1056C000039202F02DFB039B8C2B7FF46CAF64E7FD
:1056D00004F082F886E700BF000000000020AC4024
:1056E000C9400D0011430D0068E3032064E303206B
:1056F00004E20320E3CD0D0025DF0320EACD0D00F9
:1057000078E30320F9CD0D0008DF032004CE0D005F
:10571000A1DF03200ECE0D0019DF032017CE0D00F0
:1057200014DF032023CE0D0070E303202BCE0D00E9
:1057300098E2032036CE0D00BCE203203DCE0D00E2
:1057400056E2032048CE0D0057CE0D001D410D003E
:105750003D870D0061CE0D00A5430D006BCE0D0001
:1057600039410D0073CE0D00F5430D0080CE0D00C4
:1057700081440D008DCE0D00E14A0D0099450D00CC
:10578000E4E2032034CF0D0088E30320AECB0D000C
:1057900044E3032074CB0D0080E20320B4E2032035
:1057A000C8E2032000F4032008F4032010F40320CF
:1057B0008CE3032060E30320F4E2032054E203209F
:1057C0009BCE0D005FCD0D0008E30320F8B53F4BE5
:1057D0003F4E404D00241C603F4B01271F7004F0DA
:1057E0001BFB2346224642F6DF5104F01DFB04F06A
:1057F00013FB22462346072104F01EFB374BB36000
:105800003460B480B471022002F084FC2A4634492A
:10581000304604F0D5FB2146384602F08BFC394671
:10582000042002F075FA2F482F49A0F809400346DA
:10583000021D43F8092B9C702C4B43602A46C0E99B
:1058400003440775047204F0BBFB04F091FB284E7F
:105850000146304601F01AFA2A462649304604F03D
:10586000AFFB04F085FB244E014623464FF4005263
:10587000304600F08FFF214B33603046204E2149E7
:105880002A4604F09DFB20494FF40062304602F0A6
:10589000CBF81E4B336030461D4E1E492A4604F09D
:1058A0008FFB224610211C4C304600F0BFFD2A46DB
:1058B0001A49304604F084FB204600F0B1F82A462D
:1058C00020461749BDE8F84004F07ABB50E20320B7
:1058D00044E20320F8E1032054E203200000FFFF2C
:1058E000A5410D0068E20320D5400D001000030023
:1058F00044E303200B6A0D00E4E20320B4CE0D0064
:1059000008E303207D410D0018F40320D0CE0D00E4
:10591000C8E2032055410D008CE3032081640D0093
:10592000E9590D00704710B51021044604F04DFBF5
:10593000204610BD10B5012303748368044643B1AB
:10594000C0689847012363740020BDE8104002F04E
:10595000D7B900680028F5D083680BB904F03BFB89
:10596000C368EEE70EB403B503AB002153F8042B74
:10597000019303F0C6FC02B05DF804EB03B070477E
:1059800073B5044608462279A36832B1A3B90B491E
:1059900002B0BDE8704003F0A5BB094A267B094D63
:1059A0000949647B012E18BF2946CDE90014074937
:1059B000FFF7D8FF02B070BD054AEFE749CF0D00F1
:1059C000F4D40D0045CF0D0041CF0D005FCF0D0089
:1059D00038CF0D0010B58368044613B10322014689
:1059E0009847204610BD000010B5054B044640F80E
:1059F000203BFFF7EFFF204600F0BEF9204610BD28
:105A000030D00D0010B50446FFF7EEFF20463021E0
:105A100004F0DBFA204610BD0368C9B29B68184742
:105A200038B50B490446002500F0AEF9094B236058
:105A3000257204F09DFA42232374E06004F0A8F874
:105A4000054BE5611C60C4E90505A562204638BD2B
:105A5000D0E3032030D00D0098E50320F7B5866928
:105A60000746002E38D10420FEF715FB054690B3FB
:105A70001A49142004F0ABFA28B1C0E90066C0E965
:105A80000266067446742860A0B1154B1549C0E93A
:105A900002374FF40063CDE900030222124B0430B9
:105AA00002F0EEF830B92B681B7CA3B9012002F09C
:105AB00047F9F8E72C6800232B6064B1266836B1FB
:105AC0003046FFF787FF1021304604F07EFA14219C
:105AD000204604F07AFABD6103B0F0BDD4D40D00C5
:105AE000E55C0D007CCF0D0035590D0010B501238C
:105AF0000372C36804464868586088689860C8683C
:105B0000D860087C18740846227403F025F92046F2
:105B100010BD000038B50546017CC06803F04BF9A4
:105B2000FD21E868FFF778FFE868002103F04AF9F3
:105B300030B10F4902460F48FEF7AAFB002038BDDE
:105B40000222297CE868012303F023F9C2B2022A69
:105B500001D00949EFE7E86803685B6998470446A4
:105B6000E86803685B69984740EA042080B2E6E78A
:105B700089CF0D00ECE50320ADCF0D002DE9F843F2
:105B800006468846017CC068154603F014F9FF21DB
:105B9000F068FFF741FFF068002103F013F90246B7
:105BA00038B116491648FEF773FB4FF0FF30BDE8D9
:105BB000F8830446A5421FD92F1B202F28BF20277A
:105BC00004EB0709A5EB090253425341317CF0680D
:105BD0003A4603F0DEF8C2B2974201D00949E1E744
:105BE00044442744F06803685B69984704F8010B54
:105BF000BC42F7D14C46DDE72846D8E7D7CF0D00A9
:105C0000ECE50320F2CF0D0000487047D0E30320FD
:105C100007B582688DF807100AB904F0DCF9C3688B
:105C20000DF10701984703B05DF804FB2DE9F0473B
:105C3000037A8AB00446CBB9254E00F1200560698D
:105C400003681B69984700281FDD606903685B696A
:105C50009847C1B23046019100F074FBA36A0199E4
:105C6000002BECD02846FFF7D3FFE8E7D0F80C80F4
:105C7000404603F0ABF82046FFF74CFF20280546CE
:105C800006D830B9404603F0AAF80AB0BDE8F0875C
:105C900020252A4602A92046FFF770FFA842F1D12D
:105CA000DFF82C9002AE002704F1200A16F8011B41
:105CB000484600F047FBA36A23B116F8011C504682
:105CC000FFF7A6FF0137BFB2BD42EFD1DAE700BF51
:105CD000D0E3032008B504462046FFF7A7FF01F0F4
:105CE000D7FFF9E708B5FFF7F5FF000037B5194C06
:105CF000194D0821204600F013FD184B2360297828
:105D0000BFF35B8F11F001010BD128460191FEF723
:105D1000D3F9019928B1124803F03EFB2846FEF75B
:105D2000D0F90F4BE3601123236100232375237700
:105D30000C4A0D4BA26123620C4A0D490548012310
:105D4000A38404F03DF90B4803B0BDE8304000F0F7
:105D50005EB800BF70E50320C4E3032090D00D00BF
:105D6000C8E303201CD00D0080969800F8E10320C2
:105D700061660D00D0E30320704710B5082104468A
:105D800004F023F9204610BD014AC0E90021704704
:105D900040D00D000022C0E90F22C0E91322C0E963
:105DA0001722C0E91B220280828082600273028275
:105DB000426102768283026280F824200285C262F8
:105DC00080F83020426302874264A0F84820426590
:105DD000A0F858204266A0F868204267A0F8782012
:105DE000C0E91F22C0E92322C0E92722C0E92B22F3
:105DF000C0F88420A0F88820C0F89420A0F898204B
:105E0000C0F8A420A0F8A820C0F8B420704710B5AE
:105E10000446FFF7BFFF04F1B800FFF7BBFF022302
:105E200084F881310023C4E96233C4E96433C4E9EE
:105E30006633A4F8823184F88431A4F8703184F890
:105E40007231204610BDA1F14103052B02D8A1F10A
:105E500037007047A1F16103052B94BFA1F15700F2
:105E6000A1F13000704738B5057804462D2D08BFE4
:105E70000134204604F078FF64235843224614F886
:105E8000013BA3F130010929F8D92E2B0BD153780E
:105E9000303B092B07D80A2101FB03009378303BE4
:105EA000092B98BFC0182D2D08BF404238BD0000F7
:105EB00038B50D46044604F057FF6422134BB0FB7F
:105EC000F2F102FB11004343298020460278A2F13F
:105ED0003004092C014600F10100F7D92E2A0BD11C
:105EE0000A480A2411F8012F303A092A04D8B0FBD5
:105EF000F4F000FB0233F5E703EB830301330322E5
:105F0000B3FBF2F36B6000232B7238BD80969800D0
:105F100010B50346044653F81C2F42605A6882604D
:105F20001B7A0373034653F8282F02615A684261B3
:105F30001B7A037601F014FF40F2011360632380A3
:105F400010BD000000000000D0B5002304464370DF
:105F5000806804F085F90CA3D3E9002304F024FB46
:105F60000646A0880F4604F08BF90B4602463946D8
:105F7000304604F039F8237B13B101F10043194690
:105F800041EC100BD0BD00BF0000000065CDCD413D
:105F9000D0B5002304464370406904F061F90CA3B6
:105FA000D3E9002304F000FB0646208A0F4604F0E4
:105FB00067F90B4602463946304604F015F8237E51
:105FC00013B101F10043194641EC100BD0BD00BFE5
:105FD0000000000065CDCD4110B5836843600446E4
:105FE00001F0BEFE40F20113E060238010BD10B549
:105FF00083684360044601F0B3FE40F20113E060A1
:10600000238010BD10B504460846FFF72CFFA060A2
:1060100010BD10B50446084604F0A6FEA06010BDF1
:1060200010B5C3688360044601F09AFE40F2011384
:106030006060238010BD10B504460846FFF713FFCB
:10604000E06010BD10B5C3688360044601F088FEAF
:1060500040F201136060238010BD10B5044608466D
:1060600004F082FEE06010BD10B501460446103019
:1060700005F020FB01F074FE40F201132062A384BE
:1060800010BD102206F0B2B8F8B590F87151044670
:10609000002D00F0888090F87211FFF7D4FE94F87C
:1060A000731102462046FFF7CEFE94F8703100EBE4
:1060B0000210C0B283426ED1D4F89C310133C4F8CF
:1060C0009C3194F8843123B1D4F894310133C4F86D
:1060D000943194F88131E3B3012B2BD104F1F0001A
:1060E000FFF77AFF04F58070FFF781FF94F88431A1
:1060F00004F1B8065BB13046FFF70AFF04F588707B
:10610000FFF78EFF04F59070FFF78AFF05E084F833
:10611000B83084F8103184F820310021084601F0AD
:10612000BFFD3146B822204604F0E8FF00210120DF
:1061300001F0B6FDD4F88C619EB3D4F88C31B06A0E
:10614000996A05F0ADFA60BB3046FFF78DFF366BFC
:10615000F2E704F58070FFF74AFF94F8843104F108
:10616000B8068BB13046FFF7D3FE04F59870FFF701
:1061700057FF04F5A070FFF753FF04F5A870FFF771
:1061800061FF04F5B070BFE784F8B83084F83031AF
:1061900084F84031F1E7D4F898310133C4F89831EC
:1061A00000252846F8BD90F882216ABB00F5B97633
:1061B0006049304605F074FA20B15F49304605F079
:1061C0006FFA98B9012384F88131D4F88831C4F882
:1061D0008C31D4F88C71002FE3D0B86A314605F0C9
:1061E0005FFA002880F29F803B6BF0E7534930460E
:1061F00005F056FA20B15249304605F051FA08B977
:106200000023E0E70223DEE790F88111022924D081
:1062100090F872310BB342EA4112013A282A1CD895
:10622000DFE802F0153C434A4D666B72771B7C1B1E
:106230001B1B1B1B1B1B1B1B1B1B1B1B1B1B1B1BAE
:106240001B1B1B1B15353C434A4D545B600000F57E
:10625000B97100F58070FFF7D5FED4F88C6104F5B4
:10626000B977002E9DD0D4F88C31B06A996A05F0C8
:1062700017FA002895D1F26A94F882319A4290DC9C
:1062800003D139463046FFF7FCFE366BE9E7A3F150
:1062900041004342434184F88431DEE700F1D401F8
:1062A00004F5B970FFF704FED7E7A3F153014B42A1
:1062B0004B4180F8DC30D0E700F1E001F0E7A3F1DA
:1062C00057025342534180F8E830C6E700F5B971F0
:1062D00000F58870FFF7AFFEBFE700F5B97100F574
:1062E0009070F7E700F5B971F030FFF792FEB4E770
:1062F000302B94BF00230123CDE700F5B97100F5E1
:10630000A870FFF7AAFEA8E700F5B97100F5B07014
:10631000E0E700F5B97100F59870DBE700F5B971B9
:1063200000F5A070D6E73FF43CAF0023C4F88C31F1
:1063300037E700BF48D00D004ED00D0054D00D00FF
:106340005AD00D0038B5D0F89031242903F101035B
:1063500004460D46C0F890313AD090F8833114D8F5
:106360000A291CD00D291AD00D2B9FBF5A1C1B19AE
:1063700084F8832183F8725194F8710198BB94F8E2
:1063800070114D4084F8705121E02A2907D02C2942
:10639000EAD190F8702182F02C0280F870210E2B47
:1063A0004FF0000005D8234483F872012046FFF720
:1063B0006BFE94F88231013384F88231002384F833
:1063C0008331A5F12A035D425D4184F8715138BDE6
:1063D00000200223A4F8700184F88131A4F882011E
:1063E00084F88401F3E70020F1E713B50B46024679
:1063F000D0E900016C4684E8030093E8030082E8DA
:10640000030094E8030083E8030002B010BD00001D
:10641000034B01221A70034B034A1A60704700BFF6
:10642000A0E503209CE5032060D00D0037B50023D4
:1064300043608360C36003614361038382760446E3
:106440000E200191FDF727FE054610B1019900F0DD
:10645000B3FF2046256003B030BD38B500F110050C
:106460000C460068294601F097F8031E1DBF2B68F3
:1064700023606B68236014BF01200020636038BD77
:1064800010B50446006810B10E2103F09EFD2046B1
:1064900010BD006801F078B82DE9F041837E044614
:1064A0000D4616462BB90B781BB99FED570ABDE870
:1064B000F081206800F08AFFA37E002B5DD0002EC3
:1064C0005BD1206801F05CF800224421206801F0D3
:1064D00012F840F2EE2001F08DFF206800F076FF08
:1064E000A37E002B4ED0002E4CD1206801F048F83E
:1064F00020680022BE2100F0FEFF2B78262B04D15D
:1065000000222068114600F0F6FF261D04F10D0858
:106510003746206801F012F806F8010B4645F8D11D
:106520000821384601F0ACF8237B20769842637648
:10653000BBD12B78262B47D029D8102B29D0222B42
:10654000B3D1227A237902F06002202A36D0402A81
:1065500037D012B923F0070323716379207940EA19
:10656000032000B203F08CFE284B002203F0F2FE61
:1065700004F0E8F900EE100A99E72068294600F0D7
:10658000EDFFA1E72068294600F0E8FFB0E7282BDF
:10659000D6E7E37AA288102B08BFA37A4FEAC2029B
:1065A00003BFC3F10C0322F00F029B1813B208BF04
:1065B0001BB200EE103ABAEECE0A78E723F00303DE
:1065C000CAE723F00103C7E7A579284603F058FE80
:1065D00006466079C01007EE900AF8EEE77A0F469B
:1065E00017EE900A03F05EFE094B002203F0B2FEA4
:1065F0002B0654BF074B084B002203F0ABFE32467C
:106600003B4603F0F1FCB3E70000C07F0000B03F61
:106610000000A03F0000F03F0000F0BF00000000BD
:1066200008B510EE100A03F03DFE08A3D3E90023DD
:1066300003F090FE044B002203F0D6FC04F082F934
:1066400000EE100A08BD00BF00004040CDCCCCCC0D
:10665000CCCCFC3F027E407E131A58425841704712
:10666000704710B52821044603F0AFFC204610BD4A
:1066700010B5044600F11801C06802F0C3FE208A7C
:106680000021BDE8104003F02EBC10B504460121E6
:10669000008A03F028FCE068BDE8104002F099BED3
:1066A000F8B51E4603685B690F46144605469847D1
:1066B000012E88BF47F04007E86847F0800102F0EC
:1066C0000FFF2644B44206D0E868002102F008FF1C
:1066D00004F8010BF6E72B6828469B6998470120D0
:1066E000F8BDF8B51E4603685B690F4614460546BB
:1066F0009847012E88BF47F04007E868394602F006
:10670000EFFE2644B44205D014F8011BE86802F0FD
:10671000E7FEF7E72B6828469B6998470120F8BDFC
:10672000024AC0E9002100220272704774D00D00B5
:1067300013B5036801AADC680123A0479DF8040093
:1067400002B010BD38B505460A240F212846FFF7D0
:10675000EFFF33284FF0010004D001F04BFE013C65
:10676000F3D1204638BD10B50446018AC06802F056
:106770001DFE2046BDE81040FFF7E4BF704710B58E
:106780001021044603F021FC204610BD0368C9B265
:106790009B68184730B5034DC0E90223C0E900519A
:1067A00030BD00BFE0D00D00406802F0D5BA10B592
:1067B0000446006802F013FB204610BD2DE9F041AD
:1067C0008AB004464068019002F000FB1E220021BE
:1067D00002A8A76804F0BAFC0026EFB123681E2FB8
:1067E000B84628BF4FF01E08DD6802AA434631466E
:1067F0002046A847054658B90A480B493246FDF7D6
:1068000047FD01A8FFF7D3FF28460AB0BDE8F08195
:10681000A7EB08074644E0E701A8FFF7C8FF0125FA
:10682000F2E700BFECE50320ACD00D002DE9F74303
:106830000446406801900D4616461F4602F0C6FA0F
:10684000A7B1E168606841F0500102F0B8FA290A86
:106850006068FFF79BFF29466068FFF797FF606855
:10686000002102F0AFFA48B1002400E0012401A8A1
:10687000FFF79DFF204603B0BDE8F083202F217B6A
:106880006068B84628BF4FF020080123424641F017
:10689000500102F07EFA03F06BFB03681B69984716
:1068A0004045E1DB06EB080903F062FB03685B6926
:1068B000984706F8010B4E45F6D14544A7EB08076B
:1068C000BEE72DE9F74F0446406801900E4690461A
:1068D0001D4602F07BFA4FF00109B9F1000F2AD0F2
:1068E0004DB3E168606841F0500102F068FA310A86
:1068F0006068FFF74BFF60683146FFF747FFA5F17F
:106900001E0A4746A6EB080B606817F8011B0368D0
:10691000013D9B68984755450BEB0706B84601D0EB
:10692000002DF1D16068012102F04CFA0028D7D087
:106930004FF00009D1E701A8FFF739FF484603B03F
:10694000BDE8F08F2DE9F0438BB00E46154680462A
:10695000406801901C4602F039FAAE4229D2264422
:1069600025448CB11E2C2746D8F8003028BF1E279E
:10697000F61BD3F8089002AA3B4631464046ED1B71
:10698000C84748B9002400E0012401A8FFF70FFF21
:1069900020460BB0BDE8F083D8F8003002AAD3F847
:1069A0000C9029463B464046C8470028EAD0E41BE5
:1069B000D7E7E9D9002CE7D0D8F800301E2C2746BD
:1069C00028BF1E27D3F8089002AA3B46314640460E
:1069D000C8470028D6D0D8F8003002AAD3F80C90C7
:1069E00029463B464046C8470028CBD03E443D445C
:1069F000E41BDFE74020704700207047802070478D
:106A0000FF207047704770477047704710B51421DA
:106A1000044603F0DAFA204610BD10B508210446FA
:106A200003F0D3FA204610BD10B50821044603F048
:106A3000CCFA204610BD10B51C21044603F0C5FA5F
:106A4000204610BD2DE9FF410368DB6804469847E6
:106A500010220146684604F079FB236820469B68B3
:106A60009847002507462846BD420ED27E1B236864
:106A7000102E28BF1026D3F818806A4633462946C0
:106A80002046C04708B13544EEE704B0BDE8F081C8
:106A90004FF48073438140F20113C36000230382EB
:106AA0007047000008B5064B0360064B436040F298
:106AB0000473038100234374FFF7EAFF08BD00BF9E
:106AC000C0D10D000001020303090A2200F00F00EB
:106AD00002FB0300704708B5807AFFF7F5FF00F569
:106AE000FA6008BDC07A00F01F00FFF7EDBF007B21
:106AF00000F03F00FFF7E8BF08B5817B4A060DD5DF
:106B000001F01F00FFF7E0FF8B0603D50C2800D033
:106B10000C3008BD0C2808BF0020FAE7BDE808408B
:106B200001F03F00FFF7D0BFC07B00F07F00FFF710
:106B3000CBBF007C00F07F00FFF7C6BF10B58AB066
:106B400024220446002101A804F000FB2046FFF7A0
:106B5000C2FFA0F26C7006902046FFF7C3FF013819
:106B600005902046FFF7C3FF04902046FFF7C4FFBF
:106B700003902046FFF7D8FF02902046FFF7D9FF89
:106B8000019001A804F0C2FB0AB010BD0A2190FBDD
:106B9000F1F292FBF1F301FB13231B01DBB201FBCA
:106BA00012001843C0B27047642310B5044691FB2D
:106BB000F3F000FB1310FFF7E9FFA07210BD10B552
:106BC00004460846FFF7E2FFE07210BD10B5044628
:106BD0000846FFF7DBFF237B23F03F0318432073B6
:106BE00010BD10B50446481CFFF7D0FF637B23F0AF
:106BF00007031843607310BD10B504460846FFF73D
:106C0000C5FFA07310BD10B504460846FFF7BEFFD0
:106C1000E07310BD10B504460846FFF7B7FF237CAC
:106C200023F07F031843207410BD37B5044668462F
:106C3000CDE9002304F0AAF8054641692046FFF794
:106C4000B3FF296920460131FFF7B9FFE968204603
:106C5000FFF7BCFFA9692046FFF7C3FFA9682046DC
:106C6000FFF7CAFF69682046FFF7CDFF29683B2977
:106C7000A8BF3B212046FFF7CDFF03B030BD10B5C4
:106C80000446FFF7D2FF637A637410BD054A0061C2
:106C9000C0E90021044A8260044AC260044A80615B
:106CA00042617047F4D10D00000001039CD10D003A
:106CB000D0D10D002DE9F84F04460F469046994675
:106CC00000260A9B9E4231D26068394602F073F872
:106CD00008EB06016068FFF759FD6068002102F0CB
:106CE00071F80546D0B90A9B60689A1B202A4FF0BC
:106CF000010328BF2022394602F04BF809EB060BAE
:106D0000054600EB0B0AD34506D0606803685B6953
:106D100098470BF8010BF6E72E44D2E702460449E8
:106D20000448FDF7B5FA2846BDE8F88F0025FAE7D4
:106D3000F4D00D00A4E503202DE9F34101EB030895
:106D40001E4603689B6805460C46174698478045D3
:106D50000DD82034686800963B46E2B26F21FFF7F9
:106D6000A9FFB0FA80F0400902B0BDE8F081002030
:106D7000FAE72DE9F34101EB03081E4603689B681F
:106D800004460D461746984780450CD86068009623
:106D90003B46EAB25721FFF78DFFB0FA80F0400979
:106DA00002B0BDE8F0810020FAE77FB51E1E0CBFDF
:106DB000072306230093144602AB0A466F21FFF710
:106DC00079FF0546A8B99DF8083023749DF809306D
:106DD000E3739DF80A30A3739DF80B3063739DF83D
:106DE0000C3023739DF80D30E3722EB99DF80E30F0
:106DF000A372284604B070BD02F052FEFFF7C6FE33
:106E0000A072F6E71FB501230A4600936F2103AB7A
:106E1000FFF750FF20B99DF80C0005B05DF804FBAA
:106E20000020FAE708B50321FFF7ECFFC0F340109C
:106E300008BD38B500230C460A4619460546FFF73B
:106E4000B4FF30B9A37A23B12846BDE83840FFF734
:106E5000E9BF002038BD7FB5024601A8FFF722FE3A
:106E600001A91046FFF7E5FF28B101A8FFF766FE6C
:106E700007B05DF804FB00200146F9E7D0B50446F1
:106E800086B0406801F068FF02F0A8FDE8B9E37A37
:106E90009B071AD52046FFF7DEFF06460F4656EA47
:106EA000070312D002F0A0FC0A4B0B491B680093A9
:106EB00032463B4602A802F04FFD0848029A0849B4
:106EC000FDF7E6F902A802F011FB0123237206B0D8
:106ED000D0BD00BFB0DF032018E60320A4E50320E7
:106EE0000ED10D002DE9F84F0646884691469A4688
:106EF00000250A9B9D4229D27068414601F05BFF44
:106F0000706809EB0501FFF741FC0A9B5F1B1F2F0F
:106F100028BF1F270AEB050407EB040B706814F861
:106F2000011B026892689047A345F7D17068012160
:106F300001F048FF044638B1024605490548FDF70F
:106F4000A7F92046BDE8F88F3D44D2E70024F8E7D2
:106F500023D10D00A4E503202DE9F34101EB030843
:106F60001E4603689B6805460C46174698478045B1
:106F70000DD82034686800963B46E2B26F21FFF7D7
:106F8000B1FFB0FA80F0400902B0BDE8F081002006
:106F9000FAE71FB5137C8DF80830D37B8DF80930E4
:106FA000937B8DF80A30537B8DF80B30137B8DF873
:106FB0000C30D37A8DF80D30937A8DF80E3007238C
:106FC00000930A4602AB6F21FFF78CFF05B05DF816
:106FD00004FB10B588B0044603A80193FFF762FDD7
:106FE000019B03A8FFF721FE9DF81C30A27A63F0F5
:106FF0007F038DF81C309DF819306AB143F0080307
:1070000003AA002120468DF81930FFF7C2FFB0FA1D
:1070100080F0400908B010BD03F0F703F0E700006E
:10702000F0B587B0054602F0D9FC0446E8B102F09D
:10703000F2FCC717024606463B462846FFF7C9FF43
:107040000C4B0D491B68009332463B46044602A890
:1070500002F082FC0948029A0949FDF719F902A8D1
:1070600002F044FA204607B0F0BD06490348FDF798
:107070000FF9F7E7B0DF032018E60320A4E50320AB
:107080003ED10D0054D10D0037B5457A04469DB967
:1070900002F0A4FC80B10022002369462846CDE915
:1070A000002301F0E7F838B1E37ADB0702D5204688
:1070B000FFF7B6FF0123637203B030BD1FB5012394
:1070C0008DF80C2000930A4603AB6F21FFF70AFFEF
:1070D00005B05DF804FBF8B504460D4617461E469C
:1070E000FFF790FE00EA0702324329462046BDE83A
:1070F000F840FFF7E3BF1BB11346FF22FFF7EBBFDA
:10710000D243D2B2FAE700294FF000034FF0F70262
:1071100014BF14210D21FFF7DEBF012908B50CD8DB
:1071200000294FF0000314BFDF22EF220721FFF7F1
:10713000D2FFB0FA80F0400908BD0020FCE7F0B5AE
:10714000012B85B006460C4617461D4602D9002085
:1071500005B0F0BDFFF766FE0028F8D0294630469E
:10716000FFF7D1FF237C227B8DF80830E37B8DF87D
:1071700009308DF80C20A37BE27A8DF80A308DF867
:107180000D20637B2FB343F08003627C120102F079
:1071900070021A43002D4FF006038DF80B20009368
:1071A00008BF0A2202AB18BF11226F213046FFF739
:1071B00099FE044648B9002D4FF001030CBF102280
:1071C000202207213046FFF796FFB4FA84F04009E9
:1071D000BEE703F07F03D8E72DE9F043012B87B02A
:1071E0000746894690461E4603D9002007B0BDE8F1
:1071F000F083FFF730FE04460D4654EA0503F4D051
:1072000010EB090441EBE97501A8FFF74BFC22469E
:107210002B4601A8FFF733FD3346424601A9384605
:10722000FFF78DFFE2E738B5044632256068572145
:1072300001F0C1FD6068012101F0C4FD08B1013D0C
:10724000F4D138BD2DE9F04104460F46164602EB55
:107250000308B04520D06068572101F0ACFD3946E5
:107260006068FFF793FA606816F8011B03689B6873
:1072700098476068012101F0A5FD0137054638B146
:10728000024606490648FDF703F82846BDE8F081A6
:107290002046FFF7C8FFDCE70025F6E769D10D00BF
:1072A000A4E50320F7B5CF181E46036801929B683A
:1072B00004460D46984787420AD8019A60683346CB
:1072C000E9B2FFF7BFFFB0FA80F0400903B0F0BDAC
:1072D0000020FBE7014B024A1A607047A4E5032037
:1072E0008AD10D0010B503682F2B044604D9074A34
:1072F00000210A2000F0ECFE23681F2B83BF03F05F
:107300001F03034823604FF0A04010BD517D0D00C6
:107310000003005037B50446FCF7D2FF2401035D9B
:107320005D01FCF7CDFF2044437803F01F032B439E
:1073300001A80193FFF7D6FF019A01239340C0F8FB
:107340000C3503B030BD37B50446FCF7B9FF240156
:10735000035D5D01FCF7B4FF2044437803F01F0395
:107360002B4301A80193FFF7BDFF019A012393402E
:10737000C0F8083503B030BD73B50546FCF7A0FF73
:107380002D01445DFCF79CFF28446601447804F01D
:107390001F04344301A80194FFF7A4FFD0F810356F
:1073A000019401A8FFF79EFF019BD0F81005D8407B
:1073B00000F0010002B070BD38B504460D46284605
:1073C000002102F07FFD2580204638BD70B50546BE
:1073D00001F03AFD2888002100F002FD01F036FDA1
:1073E0007D24013C14F0FF042DD0022000F0B0FCFD
:1073F0002888FFF7C1FF0028F3D001F025FD288879
:10740000FFF788FF0121288800F0EAFC01F01EFD4B
:107410004FF4F07000F09CFC00F0AAFC002106463E
:10742000288800F0DDFC462000F092FC2888FFF759
:10743000A3FFB0FA80F4304600F0A2FC4FF4CD7008
:10744000640900F085FC204670BD70B511F001059F
:10745000044618D000F08CFC05462088FFF75AFF40
:107460000121208800F0BCFC012000F071FC208884
:10747000002100F0B5FC284600F082FC3B20BDE86E
:10748000704000F065BC00F073FC06462088FFF7F2
:1074900041FF0121208800F0A3FC412000F058FCAE
:1074A0002088294600F09CFC304600F069FC05204D
:1074B000E5E738B5044600F05BFC05462088FFF799
:1074C00029FF2088012100F08BFC012000F040FC06
:1074D0000021208800F084FC0D2000F039FC208879
:1074E000FFF74AFF0446284600F04AFC2E2000F031
:1074F0002FFC204638BD2DE9F0410446884616464B
:107500000827012518EA050F14BF01210021204694
:10751000FFF79BFF6D00013FEDB2F3D166B101F0C3
:1075200093FC2088FFF70FFF2088012100F058FC12
:10753000BDE8F04101F08ABCBDE8F081F8B507462E
:107540000826002501243846FFF7B3FF00B1254384
:107550006400013EE4B2F6D12846F8BD70B50022C1
:107560000C4655210646FFF7C6FF651E073415F881
:10757000011F00223046FFF7BEFFA542F7D170BDC4
:107580000022CC21FFF7B7BF002343808380C38054
:1075900003814381037370472DE9F04790F80C9005
:1075A00004468846B9F1000F0DD000206081207399
:1075B000A31C08F1FF380A3413F8012B08F8012F37
:1075C000A342F9D104E0FFF701FF18B960812073ED
:1075D000BDE8F0874A46F0212046FFF78CFF0126E0
:1075E000CA4635462046FFF764FF07462046FFF7A8
:1075F00060FF012F0FD1012827D1402DD5D984F864
:107600000A90B9F1000F01D101232373A378002B55
:10761000CBD00120CCE7874204EB0A030CD1A27A3D
:10762000AA420ED99A78164214BF0127002767B9DB
:10763000082D00D8E572A9469A7822EA06029A70C7
:1076400009E00CBF01270027F1E704EB0A0201273C
:10765000937833439370394620467600FFF7F5FE62
:1076600016F0FF0604BF0AF1010A5FFA8AFA05F173
:10767000010508BF0126BAF1070FEDB2B2D9BCE788
:1076800030B50246014400208A4213D012F8015B53
:10769000082480EA050313F0010F4FEA50001CBFD5
:1076A00080F08C03D8B2631E13F0FF044FEA550537
:1076B000EFD1E9E730BD012A034602D10160002085
:1076C0007047022A04BFD1E90001C3E90001F6E7CF
:1076D00010B442680346541001EB6200D20748BF61
:1076E0000A591B685DF8044B48BFD358184700007F
:1076F0000123F7B580F829300646083000F0D8FAA3
:107700000420FCF7C8FC054698B31B49142002F07E
:107710005EFC30B10023C0E90033C0E902330374DA
:1077200043742860A0B1154B1549C0E902364FF4E7
:107730000063CDE900030222124B043000F0A0FAEE
:1077400030B92B681B7CA3B9012000F0F9FAF8E7E7
:107750002C6800232B6064B1276837B13846FEF7E8
:1077600039F91021384602F030FC1421204602F08D
:107770002CFC756003B0F0BDD4D40D008F790D00E2
:10778000FCD10D0035590D0047F23051084AC16057
:10779000084902600022C0E904120749C161074993
:1077A0004260C0E908228161028580F82A20704782
:1077B000C0D20D00F97A0D00D1760D00B7760D001C
:1077C00010B5044B044640F8103BFEF703F9204681
:1077D00010BD00BFC0D20D0010B5034B03600446BE
:1077E000FFF7EEFF204610BDE8D20D0010B50446AD
:1077F000FFF7F2FF2046382102F0E7FB204610BDDC
:10780000806800F05DBA806800F062BA10B5044686
:107810000068FFF7F8FF204610BD13B5044601903D
:10782000FFF7EEFFE36ADC88A4B20CB103F10804B1
:1078300001A8FFF7EBFF204602B010BD13B50446C8
:107840000190FFF7DDFF94F8283043B9E26A012484
:10785000D38001A8FFF7DAFF204602B010BD002454
:10786000F7E713B504460190FFF7CAFFE36A01A8E2
:10787000DC88FFF7CBFF204602B010BD2DE9F047B2
:10788000994686B090F829309DF838A09DF83C8044
:1078900004460F46164613B903689B689847314B58
:1078A0003846002E08BF1E4604F086FC05463046CA
:1078B00004F082FC284400F10A05AB071CBF25F048
:1078C000030504353346CDE90285CDE9009A264902
:1078D00026483A46FCF7DCFC238E083BAB4212D22A
:1078E0000024204606B0BDE8F087CB88012B36D0B7
:1078F00005A8FFF78BFF236894F828109B692046A2
:1079000098470028ECD020460594FFF779FFE16AFC
:10791000228E636B0A44D21AAA42E6D348EA0A08C6
:1079200083F80480C3F80090636B03F108083946BC
:10793000404603F0BFFE404604F03EFC01303146B5
:10794000404403F0B7FE636BE26A1D446563D3886D
:107950000133D380012405A8FFF758FFC1E70024B5
:10796000F9E700BFF4D40D000ED20D00A8E5032006
:1079700008B5044600F11005A3690BB902F02BFB12
:10798000E36921462846984700F082F9F4E708B5F4
:10799000FFF7EEFF68B501F108050646284604F03A
:1079A0000BFC01300544284604F006FCF36A013064
:1079B0002844C31A13F003031CBFC3F10403C01807
:1079C00068BDF7B504460E460190FFF719FFE76A58
:1079D000FB8807F10805E6B1012B22D9294620468C
:1079E000FFF7D8FF054629462046FFF7D3FF228E32
:1079F0003A44121A0146A0EB050602D0284603F0CD
:107A00008BFB636B9B1B6363FB88013BFB80012645
:107A100001E0002BE7D101A8FFF7F8FE304603B0E4
:107A2000F0BD0026F7E700002DE9F0470D460446BB
:107A30002F461646FFF7A8FE154B57F8082B236074
:107A4000144BE5629A422686984617D1AB889BB2C2
:107A5000B34213D105EB060A67634FF00009EB88C8
:107A60001FFA89F29BB29A420ED2616B2046FFF751
:107A700091FF5045606309F10109F0D90023C5F871
:107A800000806763AE80EB802046BDE8F08700BFD2
:107A9000E8D20D0061AB9CD110B5D1E9002386B0CE
:107AA0000021044604910AB9D90705D5CDE902237E
:107AB0000F4B05930F4B049302AB93E803006A4608
:107AC00082E8030094E8030083E8030092E80300DF
:107AD000049A84E80300A168A260059A04911846FC
:107AE000E168E2600591FDF775FF204606B010BD24
:107AF000D1760D00B7760D0007B5054B00936946AA
:107B0000002310300193FFF7C7FF03B05DF804FBBB
:107B1000417B0D0013B5044600F022F9636AC01AD8
:107B2000E368984208D3054B00936946002304F1AB
:107B300010000193FFF7B0FF02B010BD417B0D00B4
:107B40002DE9F04190F82A3086B00446002B64D12C
:107B500000F060FB002860D000F002F9636AC01AF0
:107B600040F2F133984258D9236820465B69984720
:107B70000546002851D000F10807012384F8283079
:107B8000384604F019FB95F80480CDF804800130E4
:107B90002B682B4900933E1833462A483A46FCF797
:107BA00077FB2B688DF800803246394602A800F03A
:107BB000E1FE029D6B781BB9012000F01BFCF8E789
:107BC000002000F0BFFA20B16B7813B900F012FB6F
:107BD000FAE72B78012B23D11B491A48FCF758FBF5
:107BE000236800219B6920469847002384F82830A9
:107BF00000F0B6F86062039C7CB16368013B63608F
:107C00005BB9236820469B689847A368013BA36043
:107C10001BB923682046DB68984706B0BDE8F081B1
:107C2000E2680A490748FCF733FB094B049304A9AF
:107C3000002304F110000593FFF72EFFD5E700BFE6
:107C40004FD20D00A8E5032070D20D0087D20D00A1
:107C5000157B0D00014B024A1A607047A8E503200E
:107C6000AED20D00014B01221A707047ACE5032023
:107C700008B5024B1B685B6C019308BD74020300DE
:107C800008B5024B1B685B68019308BD48020300FE
:107C900008B5024B1B68DB68019308BD480203006E
:107CA00008B5024B1B68DB69019308BD480203005D
:107CB00008B5024B1B681B6B019308BD480203000B
:107CC00008B5024B1B689B6B019308BD480203007B
:107CD00008B5024B1B681B6C019308BD48020300EA
:107CE00008B5024B1B685B6C019308BD480203009A
:107CF00008B5024B1B689B6C019308BD480203004A
:107D000008B5024B1B68DB6E019308BD48020300F7
:107D100008B5024B1B685B6E019308BD340203007B
:107D200008B5024B1B68DB6E019308BD34020300EB
:107D300008B5024B1B685B68019308BD180203007D
:107D400008B5024B1B689B68019308BD180203002D
:107D500008B5024B1B68DB68019308BD18020300DD
:107D600008B5024B1B685B69019308BD180203004C
:107D700008B5024B1B689B6B019308BD18020300FA
:107D800008B5024B1B68DB6B019308BD18020300AA
:107D900008B5024B1B689B6D019308BD18020300D8
:107DA00008B5024B1B68DB6D019308BD1802030088
:107DB00008B5024B1B685B6E019308BD18020300F7
:107DC00008B5024B1B689B6E019308BD18020300A7
:107DD00008B5024B1B681B68019308BD2C02030009
:107DE00008B5024B1B689B68019308BD2C02030079
:107DF00008B5024B1B68DB68019308BD2C02030029
:107E000008B5024B1B681B69019308BD2C020300D7
:107E100008B5024B1B685B69019308BD2C02030087
:107E200008B5024B1B689B69019308BD2C02030037
:107E300008B5024B1B68DB69019308BD2C020300E7
:107E400008B5024B1B681B6A019308BD2C02030096
:107E500008B5024B1B685B6A019308BD2C02030046
:107E600008B5024B1B68DB68019308BD28020300BC
:107E700008B5024B1B689B69019308BD28020300EB
:107E800008B5024B1B68DB69019308BD280203009B
:107E900008B5024B1B681B6A019308BD280203004A
:107EA00008B5024B1B685B6A019308BD28020300FA
:107EB00008B5024B1B689B6A019308BD28020300AA
:107EC00008B5024B1B68DB6A019308BD280203005A
:107ED00008B5024B1B681B6B019308BD2802030009
:107EE00008B5024B1B685B6B019308BD28020300B9
:107EF00008B5024B1B681B6C019308BD28020300E8
:107F000008B5024B1B689B6C019308BD2802030057
:107F100008B5024B1B68DB6C019308BD2802030007
:107F200008B5024B1B681B6D019308BD28020300B6
:107F300008B5024B1B685B69019308BD640203002E
:107F400008B5024B1B689B68019308BD68020300DB
:107F500008B5024B1B68DB68019308BD680203008B
:107F600008B5024B1B681B68019308BD3002030073
:107F700008B5024B1B685B69019308BD3002030022
:107F800008B5024B1B68DB69019308BD3002030092
:107F900008B5024B1B681B6A019308BD3002030041
:107FA00008B5024B1B685B6A019308BD30020300F1
:107FB00008B5024B1B68DB6B019308BD3002030060
:107FC00008B5024B1B681B6C019308BD300203000F
:107FD00008B5024B1B685B6C019308BD30020300BF
:107FE00008B5024B1B681B68019308BD3C020300E7
:107FF00008B5024B1B68DB68019308BD3C02030017
:1080000008B5024B1B681B69019308BD3C020300C5
:1080100008B5024B1B685B69019308BD3C02030075
:1080200008B5024B1B689B69019308BD3C02030025
:1080300008B5024B1B68DB69019308BD3C020300D5
:1080400008B5024B1B681B6A019308BD3C02030084
:1080500008B5024B1B689B6A019308BD3C020300F4
:1080600008B5024B1B681B68019308BD4C02030056
:1080700008B5024B1B685B68019308BD4C02030006
:1080800008B5024B1B681B69019308BD4C02030035
:1080900008B5024B1B685B69019308BD4C020300E5
:1080A00008B5024B1B689B69019308BD4C02030095
:1080B00008B5024B1B68DB69019308BD4C02030045
:1080C00008B5024B1B681B6A019308BD4C020300F4
:1080D00008B5024B1B685B6B019308BD600203008F
:1080E00008B5024B1B685B6D019308BD600203007D
:1080F00008B5034B1B68D3F89830019308BD000006
:108100006002030008B5024B1B681B68019308BDA1
:108110002002030008B5024B1B685B68019308BD91
:108120002002030008B5024B1B685B69019308BD80
:108130002002030008B5024B1B68DB6A019308BDEF
:108140002002030008B5024B1B68DB6C019308BDDD
:108150002002030008B5024B1B685B6D019308BD4C
:108160002002030008B5024B1B689B6D019308BDFC
:108170002002030008B5024B1B68DB6D019308BDAC
:108180002002030008B5034B1B68D3F88830019325
:1081900008BD00002002030008B5034B1B68D3F89C
:1081A0009430019308BD00002002030008B5034B82
:1081B0001B68D3F8A830019308BD0000200203001B
:1081C00008B5034B1B68D3F8B030019308BD00001D
:1081D0002002030008B5024B1B681B68019308BD11
:1081E0004402030008B5024B1B685B68019308BD9D
:1081F0004402030008B5024B1B689B68019308BD4D
:108200004402030008B5024B1B68DB68019308BDFC
:108210004402030008B5024B1B685B69019308BD6B
:108220004402030008B5024B1B68DB69019308BDDB
:108230004402030008B5024B1B681B6A019308BD8A
:108240004402030008B5024B1B685B6A019308BD3A
:108250004402030008B5024B1B68DB6A019308BDAA
:108260004402030008B5024B1B681B6B019308BD59
:108270004402030008B5024B1B685B6B019308BD09
:108280004402030008B5024B1B68DB6B019308BD79
:108290004402030008B5024B1B685B6C019308BDE8
:1082A0004402030008B5024B1B685B68019308BDDC
:1082B0004002030008B5024B1B689B68019308BD90
:1082C0004002030008B5024B1B68DB68019308BD40
:1082D0004002030008B5024B1B681B69019308BDEF
:1082E0004002030008B5024B1B685B69019308BD9F
:1082F0004002030008B5024B1B689B69019308BD4F
:108300004002030008B5024B1B68DB69019308BDFE
:108310004002030008B5024B1B681B6A019308BDAD
:108320004002030008B5024B1B681B6B019308BD9C
:108330004002030008B5024B1B685B6B019308BD4C
:108340004002030008B5024B1B681B68019308BD7F
:108350001C02030008B5024B1B685B68019308BD53
:108360001C02030008B5024B1B689B68019308BD03
:108370001C02030008B5024B1B681B69019308BD72
:108380001C02030008B5024B1B689B69019308BDE2
:108390001C02030008B5024B1B68DB69019308BD92
:1083A0001C02030008B5024B1B681B6A019308BD41
:1083B0001C02030008B5024B1B685B6A019308BDF1
:1083C0001C02030008B5024B1B68DB6A019308BD61
:1083D0001C02030008B5024B1B681B6B019308BD10
:1083E0001C02030008B5024B1B685B6C019308BDBF
:1083F0001C0203000021FFF795BE10B583680446F8
:108400000BB901F0E8FDC3689847A3681BB10322CC
:1084100021462046984720461021BDE8104001F033
:10842000D4BD10B50446006808B1FFF761FC2046D2
:1084300010BD0B68036013B15A6801325A6070476F
:1084400010B5064C002320462360FFF749FC204668
:10845000034A0449BDE8104001F0B2BDB0E5032075
:10846000F8E1032023840D00002240681146FFF745
:1084700031BF002240681146FFF74CBF0022406820
:108480001146FFF757BF40680022FFF74BBF406817
:10849000002281F00101FFF735BF002340681A4632
:1084A0001946FFF727BF002340681A461946FFF711
:1084B00019BF002240681146FFF7FCBE4068002249
:1084C0000221FFF7FFBE002340681A46FFF7EABE0D
:1084D000F0B51B4B036000250F4628331826C0E972
:1084E000025589B04360324629460446103002F0F6
:1084F0002DFE78682A462946FFF7ECFE18B9A060E1
:10850000204609B0F0BD2946324602A8CDE9005503
:1085100002F01CFE02A96846ADF80860FFF7A8FB50
:1085200010B10123A360EBE7009B019AA360E26016
:108530000BB90223A36002A9204600F0AEF8DFE7E2
:1085400044D30D00084B10B52824224618460021BC
:1085500002F0FCFD054B04804FF0FF324260042224
:108560005A60034A1A6010BDBCE50320B4E503203D
:1085700010D30D007047007D704710B528210446C8
:1085800001F023FD204610BD037D7BB1C369002BA4
:108590000CDB07EE903A9FED077AF8EEE77A87EE6C
:1085A000870ADFED057A20EE270A7047BFEE000A42
:1085B000704700BF00FF7F470000C842037D63B1E2
:1085C0008369B3F1004F08D007EE903A9FED047A2B
:1085D000F8EEE77A87EE870A70479FED020A704748
:1085E0000000C84200000000037D7BB1436A002BFD
:1085F0000CDB07EE903A9FED077AF8EEE77A87EE0C
:10860000870ADFED057A20EE270A7047BFEE000AE1
:10861000704700BF00FF7F470000C842037D63B181
:10862000036AB3F1004F08D007EE903A9FED047A49
:10863000F8EEE77A87EE870A70479FED020A7047E7
:108640000000C8420000000070B50C1E06460ADAA1
:108650002D2100F04BFD614205460A22304600F014
:108660005EFD284470BD21460025F6E770B50C4636
:10867000054681682046FFF7E7FF2C210646204685
:1086800000F034FDE96806442046FFF7DDFF304482
:1086900070BDA0F10400FFF7E9BF30B50D4600F151
:1086A00010040FCD0FC495E8030084E803000120F7
:1086B00030BD70470020704710B51021044601F00E
:1086C00084FC204610BD08B5FFF7F6FF08BD30B5A5
:1086D00000224FF69C74026084808D888C800C6828
:1086E000858004600A6030BD10B504460068FFF75D
:1086F00031FE204610BD38B5C468F4B12378022B92
:1087000003D104F10C00FFF7EFFF656835B128468F
:10871000FDF760F91021284601F057FCA56835B136
:108720002846FDF757F91021284601F04EFC204657
:108730001421BDE8384001F048BC38BD10B588B000
:108740000446684600F01DFF694604A800F03CFF9F
:1087500004A8A047044604A800F0C8FE684600F03C
:10876000C5FE204608B010BD1FB50023CDE90201AB
:10877000019210241A4669461846ADF80230ADF849
:108780000040FFF72FFD04B010BD07B50823ADF87A
:10879000003003688DF80230037A8DF80330002131
:1087A000436801936846FFF775FD03B05DF804FB6D
:1087B00073B50E46044656F8043B00930D4601A8D7
:1087C0003146FFF736FE019A009B6260236001A8E4
:1087D000002301930093FCF79BFA3046FCF798FACC
:1087E0002846082101F0F1FB204602B070BD8268E6
:1087F00010B50AB901F0EFFBBDE81040C368184797
:1088000008B5006800F11001FFF7F1FF08BD8268AC
:1088100010B50AB901F0DFFBBDE81040C368184786
:1088200008B5006800F11001FFF7F1FF08BD000076
:1088300038B500230446036010200D46FBF72BFCDF
:1088400028B10123C0E90133024B0360C5602060F9
:10885000204638BD78D30D0038B5002383608B687F
:1088600004460D462BB102229847EB68E360AB68E3
:10887000A360204638BD0000F0B589B004686846A2
:10888000FFF725FF4FF00203D4E84F2F002A03D152
:10889000C4E8413F0029F7D125D104F10C05694610
:1088A0002846FFF714FFBFF35B8F0123637000209E
:1088B00004F10803BFF35B8F53E8006F43E8000245
:1088C000002AF9D1BFF35B8F6EB1FFF73BFC78B1A3
:1088D00029463046FFF78BFF3046FDF77BF8102125
:1088E000304601F072FB6846FFF7FEFE09B0F0BDAE
:1088F000314602A8FFF7B0FFE068B4F9105008B1A4
:1089000002F0E0FE06901020ADF81C50FBF7C3FB10
:108910000546E8B1002787601820FBF7BCFB04463A
:1089200088B10146876002A8FDF75FFD049BA2683D
:10893000A360059B049206A9E268E36004F11000BD
:108940000592FFF7C4FE084BEB60084B2C60AB6050
:1089500006A8FFF7C9FE02A8FDF73CF80022294649
:108960000348FFF7F7FBB7E701880D00998A0D0070
:10897000FB830D002DE9F0478AB005469DF848902D
:108980000C4617469846FFF745FC07AE824638BBB3
:108990004FF62E73059005A93046ADF81830FFF755
:1089A00096FE1420FBF777FB044648B102230370C0
:1089B0000123C0E901AA437031460C30FFF787FE5E
:1089C0002846214640F8044BFFF732FF3046FFF7B8
:1089D0008BFE05A8FFF788FE28460AB0BDE8F087A1
:1089E0000C234FF0000A1420CDE908AA0793FBF7E7
:1089F00052FB014628B1C0E901AA80F800A080F826
:108A000001A004A80391FFF713FF224B089308204D
:108A1000FBF741FB824628B1039B40F8043B04A9C5
:108A2000FFF707FD00965FFA89F342463946204674
:108A3000CDF824A0FFF7FEFBB8B9039B5B7803F0E9
:108A4000FF0293B94FF69C7305A903A80592ADF8F0
:108A50001830FFF711FF05A8FFF746FE05A8099992
:108A6000FFF7A6FE06A8FCF753F9039B059304A99C
:108A700006A8FFF7DEFC059B069A2B606A600023C0
:108A800006A806930593FCF743F904A8FCF740F900
:108A9000A2E700BF5D8B0D00022AF8B5054607D09E
:108AA000032A18D0012A01D10B6803600020F8BD09
:108AB00018200E68FBF7EFFA044650B13146FFF775
:108AC000CBFE3069B6F9147008B102F0FBFD2061ED
:108AD000A7822C60EAE70468002CE7D004F11000BC
:108AE000FFF702FE2046FCF775FF1821204601F033
:108AF0006CFADBE738B5002383608B6804460D46CB
:108B00002BB102229847EB68E360AB68A360204674
:108B100038BD022A70B5044607D0032A12D0012AB4
:108B200001D10B680360002070BD14200E68FBF7B4
:108B3000B2FA054620B13146FFF7DCFF337C2B74D7
:108B40002560F0E70468002CEDD02046FCF742FFDA
:108B50001421204601F039FAE5E70000F0B589B0AC
:108B600004460D4601A81146FFF722FEA4B124B227
:108B70001DB1284602F0A6FD054601A803A90395EC
:108B8000ADF81040FFF778FE03A8FFF7ADFD02A88F
:108B9000FCF7BEF809B0F0BD019D0123D5E84F2FC9
:108BA000002A03D1C5E8413F0029F7D1EFD12B734B
:108BB000BFF35B8F6B702B1DBFF35B8F53E8006FB0
:108BC00043E80042002AF9D1BFF35B8F002EDED0CC
:108BD0002046FFF7B7FA074660B105F10C013046B1
:108BE000FFF715FE3046FCF7F5FE1021304601F088
:108BF000ECF9CCE7314603A8FFF77CFF2B7B8DF81F
:108C00001C301020FBF747FA0546D0B187601420CE
:108C1000FBF741FA044678B18760014603A8FDF7E7
:108C2000E4FB059BA268A360069B0592E268E360F3
:108C30009DF81C3006922374064BEB60064B2C60AB
:108C4000AB6003A8FCF7C6FE002229460348FFF7E5
:108C500081FAC7E721880D00138B0D00FB830D00FF
:108C6000002240681146FFF755BB002240681146BC
:108C7000FFF760BB40680022FFF754BB406800224A
:108C800081F00101FFF73EBB002340681A461946F8
:108C9000FFF730BB002340681A461946FFF722BB96
:108CA000002240681146FFF715BB002240681146BC
:108CB000FFF700BB406800220221FFF703BB00233F
:108CC00040681A46FFF7EEBA024B03225A60024A86
:108CD0001A607047E4E5032094D30D007047F8B59F
:108CE000064615460C468F18BC4206D0336814F869
:108CF000011B9B6830469847F6E72846F8BD007C84
:108D00000022FFF7C5B8007C0021FFF7C9B8007C3E
:108D10000021FFF7CDB8007C0021FFF7D1B8007C1F
:108D20000021FFF7D5B810B51421044601F04DF924
:108D3000204610BD10B54FF47A7304460846002152
:108D4000C4E90113034B236020741146FFF7D0F8E8
:108D5000204610BDC8D30D000023007C1A461946DA
:108D6000FFF77EB87FB500221423CDE90122ADF8CC
:108D700004300B788DF808304B680393CB6804936C
:108D8000007C0B7A059301A9FFF7CAF807B05DF8DC
:108D900004FB1FB5003B8DF800104FF064010391F8
:108DA00018BF0123694601928DF80830FFF7DAFFFA
:108DB00005B05DF804FB007C0022FFF759B8C9B28A
:108DC000FFF7F9BF007C0022FFF75AB808B5002171
:108DD000007CFFF795F8B0FA80F0400908BD08B5AF
:108DE0000021007CFFF794F8B0FA80F0400908BD3C
:108DF000004700002DE9FF4100241D460F46904624
:108E00000646FFF715F8A5424FF00403ADF80D40F4
:108E10008DF80C308DF80F40A2BF9DF828308DF8EA
:108E20000E3003AC0749009443463A463046A8BF8B
:108E30008DF80D50FEF7F4FFB0FA80F0400904B051
:108E4000BDE8F081F18D0D00FFF702B8FEF7F8BF25
:108E5000704710B51821044601F0B7F8204610BD40
:108E6000F0B5037D062B8DB00E4600F104074FF0E0
:108E7000000412D000F1080515F8011D0A22304641
:108E800000F04DF9AF42044419D0002CF4D02E214B
:108E9000304600F02BF90444EEE72F236A463946AA
:108EA0000A208DF80040FFF743F8684603F084F984
:108EB00033680246DB6869463046984704462046D8
:108EC0000DB0F0BD10B5054B0446112240F8043B2F
:108ED000002102F03BF9204610BD00BFF0D30D0089
:108EE0000346074A10B543F8042B01F1100251F86C
:108EF000044B43F8044B9142F9D10A781A7010BD23
:108F0000F0D30D0010B59DF8084044EA032343EA6E
:108F1000024242EA016104234160037510BD13B5AA
:108F2000CB7800938B784A780978FFF7EBFF02B093
:108F300010BD0000014B024A1A607047ECE50320A7
:108F4000FCD30D00002340681A46FFF7ABB9406818
:108F500000220221FFF7B6B9002240681146FFF750
:108F6000A9B9002240681146FFF7B4B90023406850
:108F70001A461946FFF7B6B9002340681A46194643
:108F8000FFF7B8B94068002281F00101FFF7BAB9D4
:108F900040680022FFF7C6B9002240681146FFF77B
:108FA000C9B9002240681146FFF7B4B92DE9F04372
:108FB000002495B016460D460746FFF783FF21466D
:108FC00018220EA8009402F0C1F84023CDE90C3419
:108FD00021466B460CAA3046FEF7BAFF044600282D
:108FE00046D1024601216868FFF774F902218046E4
:108FF00022466868FFF76EF9009E81462146002EE2
:1090000036D0002934D17368022B03D00A2B0BD041
:10901000F669F4E7B8F1000F04D0716938460431FD
:10902000FFF77DFF4146F3E7B9F1000F01D1494653
:10903000EEE77469102201A802F088F806238DF883
:10904000143001AD04F108031834186859682A4631
:1090500003C20833A3421546F7D101A906A807ADFC
:10906000FFF73EFF0FCD3C1D0FC42B682370DEE7DA
:109070000098FEF765FF384615B0BDE8F0830000A4
:10908000024B034A1A6000225A607047F0E5032041
:1090900008D40D00F8B506460D468F180024BD42D1
:1090A0000CD0336815F8011B9B6830469847031EA7
:1090B00001DB1C44F3E7002C08BF1C462046F8BD2A
:1090C00013B50446084659B1019103F075F82368B9
:1090D0000199DB680246204602B0BDE810401847FF
:1090E00002B010BD08B5FFF7EBFF08BD03689B6831
:1090F000184738B50D210546FFF7F8FF0A21044649
:109100002846FFF7F3FF204438BD38B50546FFF782
:10911000D7FF04462846FFF7ECFF204438BD30B5A2
:109120008BB000238DF82430012A98BF0A2209ACA5
:109130000D46B1FBF2F101FB125303F0FF03092BC3
:1091400094BF30333733DBB2AA4204F8013DEFD984
:109150002146FFF7B5FF0BB030BD00002DE9F74FFA
:1091600055EC104B06460F4610EE102A10EE100A72
:109170002B46294601F088FB40B153493046FFF7A2
:109180009FFF8246504603B0BDE8F08F25F00049AE
:109190004E4B4FF0FF322046494601F075FB48B96F
:1091A0004A4B4FF0FF322046494601F04FFB08B9C9
:1091B0004749E3E7474B4FF060422046294601F01C
:1091C00059FB08B14449D9E7444B4FF0604220466F
:1091D000294601F031FB0028F4D10022002320466B
:1091E000294601F029FBD0B12D213046FFF77EFF43
:1091F00005F1004382461D463949DFF8EC904FF0F7
:10920000000B00204FF000085FFA8BF39F4208D953
:1092100042464B4601F0C8F90BF1010BF4E78246D8
:10922000EAE722462B4600F0DFFE0D46044601F039
:1092300069FB804601F014F802460B462046294699
:1092400000F0D0FE0A2204460D4630464146FFF7A4
:1092500066FF824427B123493046FFF731FF82443D
:10926000DFF884904FF00008013FFFB2FF2F89D054
:1092700042464B462046294601F06CF804460D460E
:1092800001F018FBB0F1000B1ADA2D213046FFF780
:109290002DFFCBF1000103460A2230460193FFF770
:1092A0003EFF019B18448244584600F0E9FF024605
:1092B0000B462046294600F095FE04460D46D3E7AE
:1092C00059460023E8E700BF34D40D00FFFFEF7FCD
:1092D00038D40D00FFFFEF413CD40D00FFFFEFC17C
:1092E0000000E03F40D40D000000244038B5C9B272
:1092F0000546FFF733FF04462846FFF7FAFE2044F1
:1093000038BD2DE9F04186B000AF05460E46381D48
:10931000142114463B60FFF74DF813280ED8391D71
:109320002846FFF7CDFE04461EB12846FFF7E1FEB2
:10933000044420461837BD46BDE8F08100F108031B
:1093400023F00703E846ADEB030D2246411C3B68C2
:109350006846FFF72FF869462846FFF7B1FE044636
:10936000C546E1E710B50446FCF734FB204610BDC6
:109370000348044A04490023836000F021BE00BF73
:10938000F8E50320F8E1032065930D000021FEF7C6
:1093900017BE0021FEF71CBE10B50446084621701A
:1093A000FEF7EEFD00236360204610BD13B50446B2
:1093B00000780191FFF7EAFF019940B92078FEF7A4
:1093C000CFFD207802B0BDE81040FFF7E2BF02B049
:1093D00010BD0078FFF7DDBF400830B518600024ED
:1093E00018688842E5B206D90134082C02D040083A
:1093F0001860F5E70725024B5B5D137030BD00BFB9
:1094000042D40D002DE9F04306468FB000780D469A
:10941000FFF7BCFF00281BDB34781422002109A8C9
:1094200001F094FE0B23002209A92046ADF8243058
:10943000FEF7B6FD9DF82D3013B19DF82C4054B1C8
:109440000027B946B84601242B795CB1C3B100208E
:109450000FB0BDE8F083DDF830809DF834909DF8C2
:109460003570F1E7002B35D1AB68434508D18DF855
:1094700020908DF82170BDF82020AB899A42E6D06B
:109480000023A9688DF80F300A9804AB0DF10F0284
:10949000FFF7A2FF297984B989B9AB6843450ED398
:1094A0008DF820908DF82170BDF82020AB899A426C
:1094B00005D1049B434502D1C9E70029F9D1002316
:1094C00001936B7B00939DF80F202B7B3078FEF788
:1094D0006FFDBCE7CDE90044234622460121F5E7B4
:1094E00008B50078FEF744FDC0B208BD10B50446CB
:1094F0000068FEF72FFF204610BD10B50446006837
:1095000008B1FEF727FF0023C4E90133236010BD33
:1095100038B504460D4600680131FEF723FF10B14F
:10952000C4E90005012038BD10B50368044623B125
:1095300043688B4201D3012010BD2046FFF7E8FFAE
:109540000028F9D0A368002BF5D122681370F2E748
:1095500037B50D46114601920446FFF7E5FF019A23
:1095600028B92046FFF7C9FF204603B030BDA260EE
:109570002946206801F0C2FD2268A3680021D15469
:10958000F2E7002313B5C0E9003304468360037398
:1095900041B10846019102F00FFE019902462046B2
:1095A000FFF7D6FF204602B010BD884210B5044632
:1095B00005D00B682BB18A681946FFF7C9FF204612
:1095C00010BDFFF79AFFFAE710B500230446C0E983
:1095D000003383600373FFF7E8FF204610BD08B532
:1095E00082683AB921B10878B0FA80F0400900E009
:1095F000012008BD006809B90078F5E702F050F8CD
:10960000F2E758B50E462AB121B184689C4202D8CF
:1096100000230B7058BDE41A013A0168944228BF38
:10962000144619442246304602F0E0FD002333552B
:10963000F0E707B50B4600210246009101208C217E
:10964000FEF7BEFD03B05DF804FB01460020FFF706
:10965000F0BF0020FFF7F9BF10B5094B094C0222FB
:1096600000201A60084B2060A080A071A360FEF764
:1096700051FD2046054A0649BDE8104000F0A0BC57
:1096800014E6032008E603200000FFFFF8E10320B2
:10969000A5410D002DE9F041154ADFF86080D2E9BF
:1096A0000032C01842EB0101124AD2E90032C6185A
:1096B00041EB0207D8E90023BB4208BFB2428CB09D
:1096C00013D003A96846CDE9006701F021FC089B8F
:1096D000094D03F26C7303AC08930FCC0FC50FCC8C
:1096E0000FC5C8E9006723682B600CB0BDE8F081A6
:1096F00050E6032048E6032020E6032058E6032036
:1097000008B50020FEF7AEFD28B1FEF783FD80F01E
:109710000100C0B208BD0120FCE7000008B5FFF75A
:10972000B9FF024B9869013008BD00BF20E6032055
:1097300008B5FFF7AFFF024B1869013008BD00BF45
:1097400020E60320FAEE087AB4EEE70AF1EE10FA0A
:1097500008B511D4F2EE0C7AB4EEE70AF1EE10FA85
:109760000ADCDFED067A60EE277A17EE900A01F048
:1097700039F9034BC3E9000108BD00BF0000614592
:1097800050E60320B5EEC00AF1EE10FA08B511D488
:10979000F0EE007AB4EEE70AF1EE10FA0ADCDFED43
:1097A000067A60EE277A17EE900A01F01BF9034B58
:1097B000C3E9000108BD00BF00006145B8DF032018
:1097C000034BD3E90001034BC3E90001704700BF1D
:1097D000B8DF032048E60320024B00200021C3E944
:1097E0000001704748E603201FB502460B46684655
:1097F0000021CDE90023CDE90211FEF7E1FA02468E
:1098000010B90146FEF7B6FC05B05DF804FB000098
:1098100030B504461848D0E90010521840EB030355
:109820001648D0E90010521893B040EB0303CDE97D
:10983000002324220DEB0200002101F087FC00250B
:1098400009A9684601F064FB1622294603A802957F
:1098500001F07CFC02A909A801F05CFA02A802F060
:10986000ABFC12AB184402A900F8415C2046FFF79C
:1098700088FE204613B030BD50E6032048E60320A2
:109880002DE9F04FA5B00746884614A811463F229F
:109890001D4602F0ABFC002314A88DF88F3002F0B7
:1098A0008BFC04465DBB2A4903A801F003FF14AEFC
:1098B000002504F1FF3BAB4536D9B14605F1010A5D
:1098C00019F8013B252B17D173787A2B14D103A8F3
:1098D00002F072FC14AB044628181844ABEB0502E6
:1098E000B11C01F00BFC224603A9304601F006FC36
:1098F00014A802F061FC04464E465546D9E73C21C7
:1099000095FBF1F3002BB8BF5B42B3FBF1F201FB17
:10991000123300930F4A4FF46163102103A895FBA3
:10992000F3F3FEF737FDC2E700212E2208A80791C6
:1099300001F00CFC434614AA322107A802F032FCC5
:1099400007A93846FFF71DFE384625B0BDE8F08F61
:1099500071D80D004AD40D00F0B58DB0CDE90023CB
:10996000129D044615B9194B1D682DB1184B284698
:10997000196801F095FE38B9DDE900232046FFF7AC
:1099800047FF20460DB0F0BD124E0099124FD6E9A8
:1099900000325B18019941EB0202D7E900011B1864
:1099A00041EB0202CDE900320021242203A801F09C
:1099B000CDFB03A9684601F0ABFA32683B6803A906
:1099C000134420462A46FFF75BFFDAE71CE6032034
:1099D000B0DF032050E6032048E6032010B5002046
:1099E000FEF7D6F90446A0B9FEF78CFB012810D18A
:1099F0002046FEF7B7FB60B9FFF782FE10B9FEF70D
:109A0000F9FBF9E7FFF77CFEBDE810400020FEF708
:109A1000BFB9204610BD1FB5FFF7E0FF102200219F
:109A2000684601F093FB00216846FEF7C1F90098F3
:109A300005B05DF804FB000008B5FFF7ECFFC117A7
:109A4000FFF728FE014B986808BD00BF20E6032001
:109A500008B5FFF7E0FFC117FFF71CFE014B586880
:109A600008BD00BF20E6032008B5FFF7D4FFC117EB
:109A7000FFF710FE014BD86808BD00BF20E60320A9
:109A800008B5FFF7C8FFBDE80840C117FFF746BE9D
:109A900008B5FFF7C0FFBDE80840C117FFF748BE93
:109AA00008B5FFF7B8FFC117FFF7F4FD014B586980
:109AB00008BD00BF20E6032008B5FFF7ACFF034B4D
:109AC000034A1B6812681344184408BD50E603207B
:109AD00048E60320024B1A68024B1A60704700BF29
