:02000002D0002C
:1040000000400D0054DE0D00000006000D0005010B
:084010000401DC0500000000C2
:04401800B8CC0D0013
:1040200009480A49884208B505D0094A824202D0A7
:10403000121A05F027FD0748074A0021121A05F059
:104040002CFD014808BD00BFF0DE0320B4DC0D00EC
:1040500064E0032064E00320F0E7032070B504F07F
:10406000ADFB074C074BE41AA40800251E46A542E9
:1040700004D056F8253098470135F8E770BD00BFE9
:10408000B0DC0D006CDC0D0001F08EBA08B500F05C
:10409000D9FFBDE8084004F053BB02F053BE02F064
:1040A00059BE02F057BE0078B0FA80F04009704760
:1040B0000123037070470000014B01221A70704702
:1040C00068E00320014B01221A707047BCE0032016
:1040D00010B503682F2B044604D9074A00210A2093
:1040E00002F0F8FC23681F2B83BF03F01F0323603B
:1040F00002484FF0A04010BDC5670D0000030050FE
:1041000007B502AB43F8040D1846FFF7E1FF019A2B
:1041100001239340C0F8083503B05DF804FB07B5F0
:1041200002AB43F8040D1846FFF7D2FF019A0123B2
:104130009340C0F80C3503B05DF804FB08B50449A2
:1041400003F0F9FE18B1034801F062FD012008BD3B
:1041500001D10D0074E0032008B5044903F0EBFE23
:1041600018B1034B05221A70012008BD01D10D00C2
:10417000B5E0032010B5034B0360044601F010FDC9
:10418000204610BDD4CC0D0010B50446FFF7F2FF59
:104190002046102104F035FC204610BD08B50A4920
:1041A00003F0C9FE002368B1084A0949136093600F
:1041B00053615360074A4B611370074B012018701D
:1041C000064B187008BD00BF01D10D002CE1032083
:1041D0006CE1032048E1032028E1032049E10320AA
:1041E00010B50446006808B102F0B4FD204610BDC9
:1041F00008B5002002F03EFD28B102F013FD80F06A
:104200000100C0B208BD012008BD37B59DF81840B7
:1042100023438DF800303C23054603F0BFF82846C1
:1042200003B030BD30B5194D0FCD99B004AC0FC4FB
:104230000FCD0FC495E8030084E8030014490EA8CD
:1042400002F022FE0EA802F072FE04460EA802F052
:10425000BFFE0EA810EE105A02F0A0FE18AB10EE32
:10426000100A03EB840404F07DFECDE90201284628
:1042700004F078FECDE90001064A54F8503C0648A7
:10428000402102F087FD19B030BD00BFE8CC0D0021
:10429000A0E1032014CD0D00DCE0032000000000AD
:1042A00008B50F2004F02FFB04F04AFE20A3D3E949
:1042B000002304F0ABFE05F0A1F9DFED157A07EE5F
:1042C000100A67EE277A17EE900A04F04BFE0022E0
:1042D000104B04F0E7FC00220F4B04F097FE05F0B2
:1042E00045F904F02DFE00220C4B04F08FFE002255
:1042F0000B4B04F0B5FF00220A4B04F0D5FC05F08F
:1043000035F9094B1861094B01221A7008BD00BF2D
:10431000000080390000E03F0000594000002240CA
:1043200000001440000040402CE1032028E103205D
:104330006666666666660A4008B50B4B0022114643
:10434000586802F0C7FC08B1FFF76CFFFFF7A8FF41
:10435000064803F02FFA064BBDEEC00A012283ED9A
:10436000020A044B1A7008BDA0E10320A4E0032058
:104370006CE1032049E1032010B50D4C236893F84C
:10438000500093F8513003F01F0343EA4010FFF749
:10439000B7FE236893F8500093F8513003F01F03E1
:1043A00043EA4010FFF7BBFE024B00221A7010BD1B
:1043B000D4E00320BCE00320154B1648597999B18D
:1043C0004FF46173038141F2D833C3804FF48063AB
:1043D000438141F270038381036843F4007343F027
:1043E00001030360002111E040F2DC53038141F23C
:1043F0007003C3804FF48063438141F210038381D3
:10440000036843F4007343F00103036002F0D8BB78
:104410006CE103204CE1032038B5384C374DFFF7F1
:104420008BFFA378012B84BF0023A370E378012BBB
:1044300006D902F0F7FB10B10123EB7000E0E87041
:104440002379D4ED067A012B82BF2C4B00221A71FE
:104450006379012B82BF294B00225A71A379012B6A
:1044600082BF264B00229A71A268244B1D2AD4BF1A
:1044700001220022DA71226941F270739A4282BFEE
:104480001E4B4FF47A721A616369FF2B88BF1B4B76
:10449000BAEE087A88BF0022F4EEC77A88BF5A6164
:1044A000F1EE10FA06D4B2EE087AF4EEC77AF1EE25
:1044B00010FA01DD124BA361D4ED077AF5EEC07A54
:1044C000F1EE10FA06D4B0EE007AF4EEC77AF1EE0F
:1044D00010FA02DD4FF07E53E361236A0C2B82BF9A
:1044E000064B00221A62636A0C3B0C2B82BF034B03
:1044F00018225A62034B01221A7038BD6CE1032066
:104500000000A0C049E1032008B502F08BFB80F059
:104510000100C0B208BD0000F8B502F07BFB00202E
:1045200002F078F90025044643F69726002700207C
:1045300002F070F9001B61EB05018F4208BF864253
:1045400005D3FFF7E1FF10B902F054FBEFE7FFF7E7
:10455000DBFF0948002319461A46406802F0CAFBEF
:10456000064B0022DA70064B01244FF4FA601C70EF
:1045700002F030FC2046F8BDA0E103206CE10320EE
:1045800049E1032038B5084D0024AC602C606C6014
:1045900003F06BFF054B064A5C6101231370054A6B
:1045A000E8606C61137038BD2CE103206CE10320DE
:1045B00028E1032049E1032010B5074C02F00AF975
:1045C0002368C01AB0F57A7F04D302F003F92060A3
:1045D000012010BD002010BD1CE1032008B5FFF72D
:1045E000EBFF18B1BDE80840FFF7E6BF02F002FBA1
:1045F000F5E7000037B502F00DFB02F0EBF843F6EB
:104600009725044602F00EFB40B102F0E3F8001BD0
:10461000A84203D8642002F0DDFBF3E70021094B38
:1046200047F23052084602F085F84FF47A7002F0F3
:10463000D1FB054B0A221B680121684603F0ECFC04
:1046400003B030BD2DCD0D00C4E0032038B503F01C
:1046500027FF054603F035FF044603F02BFF231F19
:10466000062B0ED9E31E082B0DD801382D1A01D5C3
:104670000B2C02E0072D06DD032C14BF00200120C7
:1046800038BD012038BD002038BD38B50468054666
:104690007CB16368013B63605BB9236820469B681B
:1046A0009847A368013BA3601BB923682046DB68D9
:1046B0009847284638BD000010B5194CC8B0A3690A
:1046C000059363690493174B5A6903922269029216
:1046D0009B680193A3680093134A23684FF4807189
:1046E00008A802F057FB114B11491B7800228DF8E6
:1046F000002006A808AAFFF788FD07A8FFF7C5FF56
:104700000C4B01221A7002F065F80B4B186003F095
:10471000B3FE0A4B18602368636048B010BD00BF49
:104720002CE103206CE103203ACD0D00A0E0032032
:1047300093CD0D0048E10320B0E00320B8E0032052
:1047400010B50B7894B00C4623B91C4904A805F0A9
:104750002DFC17E0084604F0DDFFC82804D02046F1
:1047600004F0D8FFC9281ED1154904A805F01EFC85
:1047700003F07BFE134B9862134B01221A70134B0C
:1047800000221A70FFF72AFF114B12491B780022F2
:104790008DF8002002A804AAFFF737FD03A8FFF751
:1047A00074FF14B010BD204604F0B4FF0A4A03465B
:1047B000402104A802F0EEFAE4E700BFA4CD0D000A
:1047C000B9CD0D006CE1032049E1032048E103204D
:1047D000A0E00320ACCD0D00CBCD0D002DE9F041C4
:1047E000444DDFF840812B6893F8700093F87130E6
:1047F00003F01F0343EA4010C4B0FFF781FC01F04F
:10480000E9FF3D4B1A68801A3C4A116988421C46F0
:10481000164622D298F80070FFB913791BB102F046
:1048200001FA002856D1042004F05AF808B900F023
:10483000C9F8334B01221A702B6893F8700093F873
:10484000713003F01F0343EA4010FFF768FC2D4B63
:1048500000221A7044B0BDE8F08101F0BBFF2A4F7E
:10486000206000233C7888F8003003F00FFE84427B
:10487000264C04D003F00AFE01233870A361A3691B
:10488000224F0133A36103F0F0FD2368E0600133A0
:104890002360A3680133A3603379002BC3D002F0F7
:1048A000C1F90028BFD0BB6800933B68184A4FF499
:1048B000807104A802F06EFAFFF790FE154B1649BE
:1048C0001B7800228DF8002002A804AAFFF79DFCA7
:1048D00003A80BE0FFF782FE0E4B104A1B7810492D
:1048E0008DF8007004A8FFF790FC05A8FFF7CDFE37
:1048F00099E700BFD4E0032020E103206CE103200E
:1049000028E1032068E00320B6E003202CE1032027
:10491000E8CD0D00A0E00320E3CF0D0005CE0D0093
:104920000FCE0D00B4E003202DE9D0432048002332
:104930001A461946406802F0D5F902F063F94FF4BF
:10494000967440F2E7360027002001F063FF4FF035
:1049500000098046002001F05DFFB0EB080061EB2C
:1049600009018F4208BF864205D302F05BF910B9F6
:1049700002F040F9EEE702F055F948B102F052F9C1
:10498000A0B10C4A0123D3700B4A1370BDE8D08349
:104990000A4B1B780BB1FFF721FF01F01BFF084BFF
:1049A000186002F027F9013CE8D0CDE7BDE8D083DC
:1049B000A0E103206CE1032049E1032068E003202B
:1049C000DCE503201FB5FFF7AFFFFFF7B5FCFFF7EE
:1049D00005FE02F027F960B1154B16491B7800223D
:1049E0008DF8002002A8144AFFF70FFC03A8FFF778
:1049F0004CFE124A90681D28CCBF00200120D071C7
:104A00004FF47A70002310610D4893709371906198
:104A100013624FF07E5018230121D0615362094880
:104A200011702C23117101F080F905B05DF804FBC1
:104A3000A0E003207ECE0D0015CE0D006CE103201A
:104A40000000A0C074E003201FB50F4903F073FA03
:104A50000024B0B10D4B0E4A1B780E498DF8004072
:104A600002A8FFF7D2FB03A8FFF70FFE01210620E3
:104A700003F01DFF234601220A21074801F0CDFD66
:104A8000012004B010BD00BF01D10D00A0E0032043
:104A90002DCE0D006ACF0D0084E0032070B586B0E6
:104AA00003A9006806F008FEB5EEC00AF1EE10FAA0
:104AB00035D4F1EE047AB4EEE70AF1EE10FACCBF89
:104AC000012500255DBBDFED187A184B184E60EE0E
:104AD000277A0124FDEEE77A1C7010EE100AC6ED6D
:104AE000047A04F03FFA134ACDE900010821124884
:104AF00002F050F93379A3B102F094F888B1FFF7CE
:104B00006DFD0E4B0C4A1B780D498DF8005004A822
:104B1000FFF77BFB05A8FFF7B8FD204602E0002069
:104B200000E0012006B070BD00007A4449E1032096
:104B30006CE1032045CE0D0065DF0320A0E00320DB
:104B4000B4D00D0030B5224985B0044603F0F3F926
:104B50000546D8B11F4B01245C71FFF72DFC1E4B9D
:104B60001C70FFF73BFD02F05DF808B901202CE056
:104B70001A4B1B491B7800228DF8002002A8194A05
:104B8000FFF743FB03A8FFF780FDEFE71649204638
:104B900003F0D1F9C8B10F4B5D710F4B01241C70AC
:104BA000FFF70AFCFFF71AFD02F03CF80028DDD001
:104BB0000A4B0E4A1B780A498DF8005002A8FFF7ED
:104BC00024FB03A8FFF761FD204605B030BD00BF00
:104BD00001D10D006CE1032049E10320A0E0032096
:104BE0007ECE0D004FCE0D0066CE0D0068CE0D00BE
:104BF00030B5204985B0044603F09DF90546C8B19B
:104C00001D4B01241C711D4B1C70FFF7E7FC02F0CB
:104C100009F808B901202AE0194B1A491B7800222B
:104C20008DF8002002A8184AFFF7EFFA03A8FFF753
:104C30002CFDEFE71549204603F07DF9B8B10E4B86
:104C40001D710E4B01241C70FFF7C8FC01F0EAFF38
:104C50000028DFD00A4B0E4A1B780A498DF8005015
:104C600002A8FFF7D2FA03A8FFF70FFD204605B010
:104C700030BD00BF01D10D006CE1032049E10320EC
:104C8000A0E003207ECE0D0083CE0D0066CE0D0089
:104C900094CE0D000000000070B5CCB0044603F0C7
:104CA000E4FB0A22054605A9206806F0ABFD00F1E9
:104CB0000C03DBB2182B55D844B207EE904A2E4BAA
:104CC000B8EEE70A83ED060A03F0A8FA2B4B01229F
:104CD0001A7003F095FA064603F0C7FB301A04F089
:104CE0002FF923A3D3E9002304F0BAFA244ACDE92B
:104CF00000010A21234802F04DF82346224A4FF4CE
:104D000080710CA802F046F8FFF768FC01F08AFFFA
:104D100060B11E4B1E491B7800228DF8002008A8A8
:104D20000CAAFFF772FA09A8FFF7AFFCFFF756FCD1
:104D300001F078FFC0B1294608A803F0BFFA089B2C
:104D40000393124B12491B7800228DF8002006A80D
:104D5000039AFFF75AFA07A8FFF797FC08A803F091
:104D600076F801E0002000E001204CB070BD00BFEB
:104D7000000000000020AC406CE1032049E103206A
:104D8000A9CE0D0069E00320B3CE0D00A0E0032002
:104D90001AD00D0010B5C6B00A2203A9006806F0AB
:104DA00031FD172803461DD8114A1062114A01240B
:104DB0004FF48071147006A80F4A01F0EBFFFFF763
:104DC0000DFC01F02FFF78B10C4B0D491B78002230
:104DD0008DF8002004A806AAFFF717FA05A8FFF728
:104DE00054FC01E0002000E0204646B010BD00BFAA
:104DF0006CE1032049E10320C7CE0D00A0E00320B1
:104E00001AD00D0010B5C6B00A2203A9006806F03A
:104E1000F9FC182803461DD8114A5062114A012492
:104E20004FF48071147006A80F4A01F0B3FFFFF72A
:104E3000D5FB01F0F7FE78B10C4B0D491B78002231
:104E40008DF8002004A806AAFFF7DFF905A8FFF7F0
:104E50001CFC01E0002000E0204646B010BD00BF71
:104E60006CE1032049E10320DBCE0D00A0E003202C
:104E70001AD00D0030B5274985B0044603F05BF821
:104E800028B92549204603F056F800283FD021498B
:104E9000204603F050F8054640B1204B1A791C46D5
:104EA00012B101F0BFFE98B901230CE01A49204667
:104EB00003F041F840B1194B1A791C4612B101F0C8
:104EC000B1FEA8B90023A371154B012018701EE094
:104ED000FFF784FB134B14491B7800228DF8002048
:104EE00002A8124AFFF791F903A8FFF7CEFBDBE710
:104EF000FFF774FB0B4B0E4A1B780B498DF80050E3
:104F000002A8FFF782F903A8FFF7BFFBDAE705B0B5
:104F100030BD00BF01D10D0066CE0D006CE1032055
:104F200049E10320A0E003207ECE0D00F2CE0D006B
:104F3000FCCE0D0030B5164D164C17492A78207856
:104F40008FB00E2303FB0212009203FB0013134ADF
:104F5000282104A801F01EFF2B78237001F062FEC7
:104F600070B1FFF73BFB0E4B0E491B7800228DF80A
:104F7000002002A804AAFFF748F903A8FFF785FB61
:104F800003F09AFB04A902F0F6FE0FB030BD00BF9B
:104F9000B5E00320ACE00320F0DE03200ECF0D00CF
:104FA000A0E003201CCF0D002DE9F04385B0FFF7F2
:104FB00015FB1F4B1F4A1B781F49204C002502A8D8
:104FC0008DF80050FFF721F903A8FFF75EFB25716C
:104FD00001F028FE10B1284601F044FE002001F047
:104FE00019FC0027064647F22F584FF00009002011
:104FF00001F010FC801B61EB0701894508BF80456B
:1050000005D3FFF7F5F810B901F0F4FDEFE7FFF76E
:10501000EFF863791BB9094B9B68462B01DC012330
:10502000A371074B01221A7005B0BDE8F08300BFE1
:10503000A0E003202DCF0D0035CF0D006CE1032043
:1050400049E10320F0B5974C2378013B89B0052B4B
:1050500000F2E681DFE813F06C0106006300A600B1
:10506000E8001501904D2B792BB1904B1B78022B4A
:1050700001D0FFF75FFF8E4B1B780BB1FFF77CF978
:105080008C4B1B780BB1FFF7A9FB8B4B8B4F5968EF
:1050900069B11A68521A1A6000225A619A615A60FC
:1050A00001233B7003F0E8F908B9FFF76BFA844E6F
:1050B00033783BB12C237C4A8248012100F035FE35
:1050C000002333703B782BB11C237B4A7D48502151
:1050D00000F02BFE00233B703370AB794BB101F035
:1050E00079FB794B1B68C01A784B1B68984200F219
:1050F0009C8103F0C1F9764B1B6898421CBF0523C5
:10510000237003F0B9F96B6A984280F2918103F041
:10511000B3F9654B1B6A9842C0F28A8180E1624B09
:105120001A791D462AB1614B1B78032B01D0FFF77A
:1051300001FF0D2002F000FC664B1B6893F8C000D5
:1051400093F8C13003F01F0343EA4010FEF7D8FF85
:10515000594B1B680BB10523E8E0EB780BB1FFF767
:10516000DBF90021072003F0A2FBFFF705F903F0AC
:105170007CF94FF4616390FBF3F101FB1300191A02
:10518000B1F5616FA8BF4FF461610023012252485D
:1051900001F043FA514B00221B68022106A802F0DD
:1051A0003BFF3DE1404D2B792BB1404B1B78042B4D
:1051B00001D0FFF7BFFE3F4B1A781E46002A40F091
:1051C0002F81EB780BB1FFF7A7F9404B2A691A60E2
:1051D00003F04BF90546FFF7CFF8404B0D221B6853
:1051E000ADF816204FF46162029395FBF2F302FBD7
:1051F0001350101A9042A8BF1046012701900DF1DC
:10520000150300973A460DF1160106A88DF81570A2
:1052100002F040FF33782BB1314B1F7001F0DAFA06
:10522000294B1860022381E01F4D2B792BB11F4BB6
:105230001B78052B01D0FFF77DFEEB780BB9FFF74C
:1052400073FB01F0EFFC60B103F016F92B6A984292
:1052500001D1FFF7A9FEFFF76FF8FFF72DFA06233C
:1052600004E001F0B7FA1F4B186001232370AB79FB
:10527000002B00F0D580184800F0F2FF03F014F87E
:10528000CEE0094B1B792BB1084B1B78062B01D0C4
:10529000FFF750FE144B1B7853BB0C4B134A1A609C
:1052A000BCE700BFB5E003206CE10320ACE00320C5
:1052B000BCE0032068E003202CE1032028E1032068
:1052C00049E1032074E00320D8E00320C0E003207C
:1052D000B8E00320D4E0032084E00320C4E00320EE
:1052E000B4E0032024E1032048E10320905F0100A3
:1052F00001F070FA4F4B1B68C01A4AF6C873984207
:1053000040F28E8001F066FA4B4B1860FFF766F9A9
:105310004A4B4B491B7800228DF8002006A8494AC9
:10532000FEF773FF07A8FFF7B0F90123237077E0BA
:10533000454C23792BB1454B1B78012B01D0FFF74E
:10534000F9FD01F047FA3C4B1B6803F5EA433033A3
:10535000984265D96369032B18DCFFF73FF901F028
:1053600061FC60B1354B3A491B7800228DF8002072
:1053700006A8384AFEF749FF07A8FFF786F94FF459
:10538000FA6001F027FD02F044FE49E003F06DF8F9
:105390002D4B314E9B6AC01AB0F5E15F24D9FFF75F
:1053A0001DF901F03FFC60B1244B29491B78002214
:1053B0008DF8002006A8294AFEF727FF07A8FFF767
:1053C00064F900254FF4FA6001F004FD65610124E1
:1053D00021460620347003F06AFA2B4622460A2141
:1053E0001F4801F01AF91BE0FFF7F8F801F01AFC6A
:1053F00060B1124B16491B7800228DF8002006A8D8
:10540000184AFEF702FF07A8FFF73FF94FF4FA60CA
:1054100001F0E0FC0023636101233370FFF7EAF839
:105420000F4801F045F809B0F0BD0423237060E691
:1054300003237BE7B0E0032024E10320A0E0032066
:1054400043CF0D0039CD0D006CE10320ACE003200B
:1054500070CF0D005CCF0D0049E1032076CF0D0029
:1054600084E0032090CF0D0030B52DED028BCDB040
:10547000054602F0FAFF0A22044605A9286806F04C
:10548000C1F9C3B2022B67D840B207EE900AB8EE5A
:10549000E78AB0EE480A02F0DDFE354B83ED078A5D
:1054A000344B01221A7018EE100A03F05BFD324AE9
:1054B000CDE900014FF480710CA801F06BFCFFF7FF
:1054C0008DF802F0B1FF38B1FFF7C0F810B102F06B
:1054D000DBFE01E002F0E2FE02F092FE054602F081
:1054E000C4FF281A03F02CFD1FA3D3E9002303F007
:1054F000B7FE224ACDE900010A21214801F04AFC09
:1055000001F090FB60B11F4B1F491B7800228DF802
:10551000002008A80CAAFEF778FE09A8FFF7B5F846
:10552000FFF75CF801F07EFBC0B1214608A802F04D
:10553000C5FE089B0393134B13491B7800228DF87B
:10554000002006A8039AFEF760FE07A8FFF79DF863
:1055500008A802F07CFC01E0002000E001204DB032
:10556000BDEC028B30BD00BF000000000020AC404D
:105570006CE1032049E10320AFCF0D00A9CE0D005F
:1055800069E00320A0E003201AD00D0000230222CE
:1055900001F020BB0023042201F01CBB024601489D
:1055A00001F0DBBD2F710D002DE9F043B84FB94C70
:1055B0003B68DFF8B88393F8600093F8613003F03C
:1055C0001F03ADB043EA4010FEF7A9FD00210820FB
:1055D00003F05CF90021042003F058F901210720B1
:1055E00003F054F90121052003F050F901210620B0
:1055F00003F04CF903210D2003F048F901210C20A0
:1056000003F044F93B6893F8C00093F8C13003F00D
:105610001F0343EA4010FEF782FD01210B2003F037
:1056200035F93B6893F8B00093F8B13003F01F03ED
:10563000002543EA4010FEF763FDFEF79DFE4FF0A4
:10564000FF33012294490095082002F04DF904A887
:1056500001F0F0FA2B467D220CA904A802F07DFC93
:105660002B462A468D49019500950CA801F0F2FAC7
:105670008B498C48FFF78AFF8B498C48FFF786FFE0
:105680008B498C48FFF786FF04F114018A48FFF725
:105690007DFF8A498A48FFF779FF8A498A48FFF7E0
:1056A00079FF04F108018948FFF770FFA379884862
:1056B0005B1B2CAE18BF012306F8903D01222B4640
:1056C000314601F087FA04F120018248FFF75EFFBE
:1056D00004F124018048FFF759FF80498048FFF713
:1056E00059FF80498048FFF751FF80498048FFF704
:1056F00051FF80498048FFF751FF80498048FFF7FC
:105700004DFF80498048FFF749FF80498048FFF7F7
:1057100045FF80498048FFF741FF80498048FFF7F7
:105720003DFF80498048FFF739FF80498048FFF7F7
:1057300035FF80498048FFF731FF80498048FFF7F7
:105740002DFF80498048FFF729FF80498048FFF7F7
:1057500025FF804800F052FA01230DF10F0229467F
:105760007C4800F08DFA9DF80F30022B1AD0794852
:1057700000F04EFA0423784A7648294600F0D5FA1C
:1057800001230DF10F022946724800F079FA9DF8C5
:105790000F30022B03D0012388F8003008E0FFF718
:1057A00011F905E02C23224601216A4800F068FA2D
:1057B0000025FEF731FE2A4629463046089500F0BE
:1057C000F1FF089B142B00F050812A4629463046F1
:1057D000089500F0E7FF089B8C2B00F04681D4ED84
:1057E000047AF8EEE77A17EE900A03F0BBFB5B4B06
:1057F000002203F035FD5A4ACDE90001082137485F
:1058000001F0C8FA94ED070A02F024FD02F00CFE44
:1058100020B9544800F024FD02F046FDFEF716FFC3
:1058200010B102F031FD01E002F038FD94ED060AFE
:10583000DFF83C9102F0F2FC02F0E2FC054602F0D7
:1058400014FE281A03F07CFB0FA3D3E9002303F016
:1058500007FD134D444ACDE900010A21234801F018
:1058600099FA404800F00CFD1C232A465021394883
:1058700000F006FA2B68002B7CD0E86802F09CFC54
:105880007AE000BFAFF30080000000000020AC40D1
:10589000D4E003206CE10320C5400D0041470D001A
:1058A0002CE10320C0CF0D0034E10320CCCF0D004C
:1058B000DCE00320D7CF0D00DECF0D003CE103205C
:1058C000E9CF0D0060DF0320F5CF0D00FDCF0D0007
:1058D00008D00D009DD00D0015D00D0065DF032010
:1058E000B4D00D0040E103201FD00D0069E003207B
:1058F00026D00D003D410D0031D00D009D410D0021
:105900003BD00D00494A0D0047D00D0059410D0014
:1059100051D00D00754E0D0059D00D00454B0D00B6
:1059200066D00D00F14B0D0071D00D00994C0D00AB
:105930007ED00D0069540D008BD00D00954D0D00EB
:1059400099D00D00054E0D00A6D00D009D4A0D000A
:10595000B0D00D0074E0032010CD0D0000408F404A
:1059600045CE0D0084E00320A9CE0D00B5E0032054
:10597000B8E0032002F080FDC9F8000002F09CFEB0
:1059800081463F4800F06CFC0146304602F096FC30
:105990000899484602F0EFF9304602F058FA02F052
:1059A0008BFE814602F02CFC0146304602F086FC5C
:1059B0000899484602F0DFF9304602F048FAFEF74F
:1059C000FBFC042002F08CFF08B9FEF7FBFF02F09D
:1059D00067FD8146E86802F0F7FB814510D0FEF7CD
:1059E000D1FD637963B1274B9B794BB9264930468A
:1059F00002F074FA3046FFF73DFA304602F027FA1B
:105A000002F03AFD636A1F4D984217DA02F034FD46
:105A10002B6A984212DB0023009301224FF0FF33E0
:105A20001A490D2001F060FFEB7813B101F0FAF88C
:105A300010B3FEF781FC164B164A1A603B6893F8C8
:105A4000B00093F8B13003F01F0343EA4010FEF7B3
:105A500066FB98F8003013B90F4B02221A7004A8A5
:105A600002F0F5F92DB0BDE8F0836369013363619D
:105A70000A4B01221A70B2E6FEF756FFD9E700BFC3
:105A800084E003206CE1032001D10D00B9400D003A
:105A9000C0E00320905F0100B5E0032049E103204E
:105AA000F8B5314B314D324E00241C60314B01278B
:105AB0001F7000F0B7FE304B186002F0ABFE2346BB
:105AC000224642F6702102F0ADFE02F0A3FE22460D
:105AD0002346022102F0AEFE4FF6FF736B812C606D
:105AE000AC80AC712C81022001F00CF832462349C5
:105AF000284602F081FF224D2146384601F01AF86F
:105B00003946042000F03EFE2146284601F012FEF0
:105B100028461C4D1C493246202702F06DFF3A46AC
:105B20002146284603F0B9FF6F7102F003FF174DBD
:105B30000146284600F0E2FA32461549284602F0AE
:105B40005BFF02F0F7FE134D234601464FF400526F
:105B5000284600F049F8104B2B60324628460F4982
:105B6000BDE8F84002F048BFC4E00320C8E00320CD
:105B700064E00320A0E00320D4E00320E1410D0015
:105B8000A4E003204CE1032053770D0084E00320C0
:105B9000715E0D0074E00320D4CC0D0075410D0042
:105BA000704710B51021044602F02BFF204610BDAF
:105BB0000368C9B29B6818470EB400B58CB00DAA33
:105BC000202352F8041B03928DE806000493016819
:105BD000002304AA1E20059300F084FF0CB05DF89A
:105BE00004EB03B07047000030B5034D0560416021
:105BF0008260C36030BD00BF88D10D00406801F0F5
:105C00003DBE10B50446006801F064FE204610BD9C
:105C10002DE9F0418AB007464068019001F051FE3D
:105C20001E22002102A8BE6803F037FF0025DEB166
:105C30003B681E2EB04628BF4FF01E08DC6802AA43
:105C4000434629463846A047044648B92A460A49E9
:105C50000A48FFF7B1FF01A8FFF7D3FF204607E08E
:105C6000C8EB06064544E2E701A8FFF7CAFF01209A
:105C70000AB0BDE8F08100BF03D10D0068E2032047
:105C80002DE9F3470446406801900E4617469846B2
:105C900001F017FEB8F1000F01D101243EE0E168E8
:105CA000606841F0500101F001FE310A6068FFF7C1
:105CB0007FFF31466068FFF77BFF0021606801F0DD
:105CC000F8FD08B1002429E0B8F1200FE168606810
:105CD000C14628BF4FF0200901234A4641F0500138
:105CE00001F0DBFD02F026FE03681B699847814541
:105CF000E8DC3D46C7EB060A02F01CFE03685B6960
:105D0000984705F8010BEA1BC5EB0803914505EB25
:105D10000A063B44F0D898462F46BBE701A8FFF798
:105D200070FF204602B0BDE8F0872DE9F347044636
:105D3000406801900D4690461F4601F0C2FD4FB3EA
:105D4000E168606841F0500101F0B0FD290A606827
:105D5000FFF72EFF29466068FFF72AFF08F11E09AA
:105D60004646C8EB050A606816F8011B03689B6885
:105D70009847B14506EB0A05B04607F1FF3701D059
:105D8000002FF0D10121606801F093FD0028D6D0EA
:105D9000002400E0012401A8FFF733FF204602B0F1
:105DA000BDE8F0872DE9F0438BB00E4615468046DE
:105DB000406801901C4601F084FDAE4223D2264487
:105DC00025440CB901243FE01E2C2746D8F80030AA
:105DD00028BF1E27F61BD3F8089002AA3B4631467F
:105DE0004046ED1BC84708B900242DE0D8F8003024
:105DF00002AAD3F80C9029463B464046C8470028E3
:105E0000F2D0E41BDDE7DDD9002CDBD01E2CD8F866
:105E10000030274628BF1E27D3F8089002AA3B4629
:105E200031464046C8470028DED0D8F8003002AAE4
:105E3000D3F80C9029463B464046C8470028D3D0AB
:105E40003E443D44E41BDFE701A8FFF7DAFE2046AD
:105E50000BB0BDE8F08300F0E5BC402070470020A7
:105E6000704780207047FF20704770477047704729
:105E7000704710B51421044602F0C3FD204610BD42
:105E800010B50821044602F0BCFD204610BD10B537
:105E90000821044602F0B5FD204610BD10B51C21B6
:105EA000044602F0AEFD204610BD2DE9FF41036817
:105EB000DB680546984710220146684603F0EDFD71
:105EC0002B6828469B689847002407462046BC421A
:105ED0000ED23E1B102E2B6828BF1026D3F8188038
:105EE0006A46334621462846C04708B13444EEE7A7
:105EF00004B0BDE8F081002301228372C2720273F4
:105F000042738373C373037443747047012208B5EB
:105F10004271022282710322064BC2710422036085
:105F2000027200230722037142724374FFF7E3FFFA
:105F300008BD00BFE8D20D0003090A2200F00F00DF
:105F400002FB0300704708B5807AFFF7F5FF00F504
:105F5000FA6008BDC07A00F01F00FFF7EDBF007BBC
:105F600000F03F00FFF7E8BF08B5817B4A060DD57A
:105F700001F01F00FFF7E0FF8B0603D50C280BD0C4
:105F80000C3008BD0C2808BF002008BD01F03F0000
:105F9000BDE80840FFF7D0BF08BDC07B00F07F0020
:105FA000FFF7CABF007C00F07F00FFF7C5BF10B548
:105FB0008AB024220021044601A803F06EFD204689
:105FC000FFF7C1FFA0F26C7006902046FFF7C2FFFA
:105FD000013805902046FFF7C2FF04902046FFF7E6
:105FE000C3FF03902046FFF7D8FF02902046FFF73B
:105FF000D9FF019001A803F035FE0AB010BD0A22B6
:1060000090FBF2F393FBF2F102FB113102FB13035D
:1060100043EA0110C0B27047642310B5044691FBF7
:10602000F3F000FB1310FFF7EAFFA07210BD10B5EC
:1060300004460846FFF7E3FFE07210BD10B50446C2
:106040000846FFF7DCFF237B23F03F031843207350
:1060500010BD10B50446481CFFF7D1FF637B23F049
:1060600007031843607310BD10B504460846FFF7D8
:10607000C6FFA07310BD10B504460846FFF7BFFF6A
:10608000E07310BD10B504460846FFF7B8FF237C47
:1060900023F07F031843207410BD37B5044602A8CF
:1060A00040F8041D03F048FB054641692046FFF710
:1060B000B3FF296920460131FFF7B9FFE96820469F
:1060C000FFF7BCFFA9692046FFF7C3FFA968204678
:1060D000FFF7CAFF69682046FFF7CDFF29683B2913
:1060E000A8BF3B212046FFF7CDFF03B030BD10B560
:1060F0000446FFF7D2FF637A637410BD084A02605A
:106100000022027242720122827203460322C2728C
:10611000044A41601861C260034A98614261704755
:10612000F8D20D00C8D10D00A4D10D002DE9F84F13
:1061300005460F4691469A4600240A9B9C4230D25F
:106140003946686801F0AEFB09EB04016868FFF7A7
:106150002FFD0021686801F0ACFB0646D8B90A9B08
:1061600068681A1B202A28BF20220123D2B2394690
:1061700001F08AFB0AEB040883464646C8EB060397
:106180009B4506D9686803685B69984706F8010B68
:10619000F4E75C44D1E7024604490548FFF70CFDEB
:1061A00000E000263046BDE8F88F00BF42D20D0067
:1061B00098E103201FB5012300930A4603AB6F212A
:1061C000FFF7B4FF10B99DF80C0000E0002005B007
:1061D0005DF804FB08B50321FFF7ECFFC0F34010A6
:1061E00008BD7FB51E46002B0CBF07230623009376
:1061F000144602AB0A466F21FFF798FF0546D8B94F
:106200009DF8083023749DF80930E3739DF80A3037
:10621000A3739DF80B3063739DF80C3023739DF8C6
:106220000D30E3721EB99DF80E30A37204E002F047
:106230004FF9FFF7E4FEA072284604B070BD38B5F0
:1062400000230C460A4619460546FFF7CAFF28B93F
:10625000A37A1BB12846FFF7BDFF00B9002038BD67
:1062600010B586B0044601A8FFF750FE01A92046EC
:10627000FFF7E5FF10B101A8FFF799FE06B010BDCA
:1062800030B5044685B0406801F0F8FA02F0CCF869
:10629000C0B9E37A9B0715D52046FFF7E1FF054615
:1062A00080B102F001F8094B09491B682A4668468B
:1062B00002F088F80748009A0749FFF77DFC684616
:1062C00001F0C5FD0123237205B030BD74DF03204A
:1062D00088E4032098E103205CD20D002DE9F3410E
:1062E00001EB03081E4603689B6804460D461746EB
:1062F000984780450AD800963B46EAB25721606825
:10630000FFF714FFB0FA80F0400900E0002002B06F
:10631000BDE8F0812DE9F34101EB03081E46036857
:106320009B6805460C461746984780450CD804F1F3
:10633000200200963B46D2B26F216868FFF7F6FE56
:10634000B0FA80F0400900E0002002B0BDE8F08122
:106350002DE9F84F0746894692469B4600240A9B42
:106360009C4228D24946786801F09CFA0AEB040165
:106370007868FFF71DFC0A9B1E1B1F2E0BEB040801
:1063800028BF1F264546786815F8011B02689268E9
:106390009047C8EB0502B242F5D30121786801F0BD
:1063A00088FA054628B1024605490648FFF704FC6D
:1063B00002E03444D3E700252846BDE8F88F00BF4B
:1063C00071D20D0098E103201FB5137C8DF80830C1
:1063D000D37B8DF80930937B8DF80A30537B8DF891
:1063E0000B30137B8DF80C30D37A8DF80D30937A07
:1063F0008DF80E30072300930A4602AB6F21FFF79A
:10640000A7FF05B05DF804FB10B586B0044601A8EF
:10641000FFF77CFD01A8FFF740FE9DF81430A27A3B
:1064200063F07F038DF814309DF8113012B143F002
:10643000080301E023F0080301AA002120468DF89B
:106440001130FFF7C1FFB0FA80F0400906B010BD6F
:106450007FB5064601F0E8FF0446B8B102F005F842
:10646000054601463046FFF7CFFF0C4B0C491B6831
:106470002A460446684601F0A5FF009A09490A48E1
:10648000FFF79AFB684601F0E2FC03E00749064883
:10649000FFF792FB204604B070BD00BF74DF0320FD
:1064A00088E403208CD20D0098E10320A2D20D00D5
:1064B00037B5457A04468DB901F0B6FF70B102A830
:1064C000294640F8045D00F0DDFB38B1E37ADB07D4
:1064D00002D52046FFF7BCFF0123637203B030BD35
:1064E0001FB504AB03F8042D012200920A466F2168
:1064F000FFF72EFF05B05DF804FBF8B5144605461E
:106500000E461F46FFF756FE204040EA070231467E
:106510002846BDE8F840FFF7E3BF13B11346FF225A
:1065200001E0D243D2B2FFF7E8BF00294FF00003E9
:106530004FF0080214BF14210D21FFF7EEBF2DE923
:10654000F34101EB03081E4603689B6805460C46B1
:106550001746984780450CD804F1200200963B4628
:10656000D2B26F216868FFF7F3FEB0FA80F04009FD
:1065700000E0002002B0BDE8F081F0B5012B85B04D
:1065800006460C4617461D4601D9002043E0FFF79A
:1065900021FE0028F9D029463046FFF7C6FF237CAC
:1065A000227B8DF80830E37B8DF809308DF80C20C4
:1065B000A37BE27A8DF80A308DF80D20637B17B14A
:1065C00063F07F0301E003F07F038DF80B30637C01
:1065D0009DF80B201B0103F070031343002D8DF871
:1065E0000B304FF00603009308BF0A2202AB18BF1E
:1065F00011226F213046FFF7ABFE044640B9002D53
:106600000CBF10232023FF2207213046FFF775FF20
:10661000B4FA84F0400905B0F0BDF0B5012B87B0A5
:1066200006460C4617461D4601D9002010E0FFF72C
:1066300017FE0028F9D0011901A8FFF767FC01A88F
:10664000FFF755FD2B463A4601A93046FFF795FF67
:1066500007B0F0BD38B5054632245721686801F00F
:1066600021F90121686801F024F908B1013CF4D155
:1066700038BD00002DE9F0410546D7181446C2EB9D
:106680000108BC421ED05721686801F00BF908EBE5
:1066900004016868FFF78CFA686814F8011B036846
:1066A0009B6898470121686801F003F9064628B104
:1066B000024606490648FFF77FFA04E02846FFF73E
:1066C000C9FFDEE700263046BDE8F081B7D20D00F5
:1066D00098E103202DE9F04101EB03081E46036811
:1066E0009B6804460D461746984780450AD83346AE
:1066F0003A46E9B26068FFF7BDFFB0FA80F04009A2
:10670000BDE8F0810020BDE8F081000008B500F090
:1067100089F8024B024A1A6008BD00BF98E10320C5
:10672000D8D20D0008B5024B1B685B6C019308BD05
:106730007402030008B5024B1B689B6C019308BDF3
:106740007402030008B5024B1B689B68019308BDE7
:106750004802030008B5024B1B681B69019308BD82
:106760004802030008B5024B1B685B69019308BD32
:106770004802030008B5024B1B685B6C019308BD1F
:106780004802030008B5024B1B685B6E019308BD0D
:106790003402030008B5024B1B689B6E019308BDD1
:1067A0003402030008B5024B1B68DB6E019308BD81
:1067B0003402030008B5024B1B685B68019308BDF7
:1067C0001802030008B5024B1B68DB68019308BD83
:1067D0001802030008B5024B1B685B69019308BDF2
:1067E0001802030008B5024B1B68DB69019308BD62
:1067F0001802030008B5024B1B681B6A019308BD11
:106800001802030008B5024B1B689B6D019308BD7D
:106810001802030008B5024B1B68DB6D019308BD2D
:106820001802030008B5024B1B681B68019308BDE2
:106830002C02030008B5024B1B685B68019308BD7E
:106840002C02030008B5024B1B689B68019308BD2E
:106850002C02030008B5024B1B68DB68019308BDDE
:106860002C02030008B5024B1B681B69019308BD8D
:106870002C02030008B5024B1B685B69019308BD3D
:106880002C02030008B5024B1B689B69019308BDED
:106890002C02030008B5024B1B68DB69019308BD9D
:1068A0002C02030008B5024B1B681B6B019308BD4B
:1068B0002C02030008B5024B1B68DB68019308BD7E
:1068C0002802030008B5024B1B685B69019308BDF1
:1068D0002802030008B5024B1B689B69019308BDA1
:1068E0002802030008B5024B1B68DB69019308BD51
:1068F0002802030008B5024B1B681B6A019308BD00
:106900002802030008B5024B1B685B6A019308BDAF
:106910002802030008B5024B1B689B6A019308BD5F
:106920002802030008B5024B1B68DB6A019308BD0F
:106930002802030008B5024B1B681B6B019308BDBE
:106940002802030008B5024B1B685B6B019308BD6E
:106950002802030008B5024B1B681B6C019308BD9D
:106960002802030008B5024B1B689B6C019308BD0D
:106970002802030008B5024B1B68DB6C019308BDBD
:106980002802030008B5024B1B685B69019308BD30
:106990006402030008B5024B1B689B68019308BDA5
:1069A0006802030008B5024B1B68DB68019308BD51
:1069B0006802030008B5024B1B68DB69019308BD40
:1069C0003002030008B5024B1B681B6A019308BD27
:1069D0003002030008B5024B1B681B6C019308BD15
:1069E0003002030008B5024B1B685B6C019308BDC5
:1069F0003002030008B5024B1B681B68019308BDF9
:106A00003C02030008B5024B1B68DB68019308BD1C
:106A10003C02030008B5024B1B681B69019308BDCB
:106A20003C02030008B5024B1B685B69019308BD7B
:106A30003C02030008B5024B1B689B69019308BD2B
:106A40003C02030008B5024B1B68DB69019308BDDB
:106A50003C02030008B5024B1B681B6A019308BD8A
:106A60003C02030008B5024B1B689B6A019308BDFA
:106A70003C02030008B5024B1B681B68019308BD6C
:106A80004C02030008B5024B1B681B69019308BD4B
:106A90004C02030008B5024B1B685B69019308BDFB
:106AA0004C02030008B5024B1B689B69019308BDAB
:106AB0004C02030008B5024B1B68DB69019308BD5B
:106AC0004C02030008B5024B1B681B6A019308BD0A
:106AD0004C02030008B5024B1B685B6B019308BDB9
:106AE0006002030008B5024B1B685B6D019308BD93
:106AF0006002030008B5024B1B681B68019308BDC8
:106B00002002030008B5024B1B685B68019308BDB7
:106B10002002030008B5024B1B685B69019308BDA6
:106B20002002030008B5024B1B689B69019308BD56
:106B30002002030008B5024B1B68DB6A019308BD05
:106B40002002030008B5024B1B68DB6C019308BDF3
:106B50002002030008B5024B1B685B6D019308BD62
:106B60002002030008B5024B1B689B6D019308BD12
:106B70002002030008B5024B1B68DB6D019308BDC2
:106B80002002030008B5034B1B68D3F8883001933B
:106B900008BD00002002030008B5034B1B68D3F8B2
:106BA0009430019308BD00002002030008B5034B98
:106BB0001B68D3F8A030019308BD00002002030039
:106BC00008B5034B1B68D3F8A830019308BD00003B
:106BD0002002030008B5024B1B681B68019308BD27
:106BE0004402030008B5024B1B685B68019308BDB3
:106BF0004402030008B5024B1B689B68019308BD63
:106C00004402030008B5024B1B68DB68019308BD12
:106C10004402030008B5024B1B681B69019308BDC1
:106C20004402030008B5024B1B685B69019308BD71
:106C30004402030008B5024B1B68DB69019308BDE1
:106C40004402030008B5024B1B681B6A019308BD90
:106C50004402030008B5024B1B685B6A019308BD40
:106C60004402030008B5024B1B68DB6A019308BDB0
:106C70004402030008B5024B1B681B6B019308BD5F
:106C80004402030008B5024B1B685B6B019308BD0F
:106C90004402030008B5024B1B68DB6B019308BD7F
:106CA0004402030008B5024B1B685B68019308BDF2
:106CB0004002030008B5024B1B689B68019308BDA6
:106CC0004002030008B5024B1B68DB68019308BD56
:106CD0004002030008B5024B1B681B69019308BD05
:106CE0004002030008B5024B1B685B69019308BDB5
:106CF0004002030008B5024B1B689B69019308BD65
:106D00004002030008B5024B1B68DB69019308BD14
:106D10004002030008B5024B1B681B6A019308BDC3
:106D20004002030008B5024B1B681B6B019308BDB2
:106D30004002030008B5024B1B685B6B019308BD62
:106D40004002030008B5024B1B681B68019308BD95
:106D50001C02030008B5024B1B685B68019308BD69
:106D60001C02030008B5024B1B689B68019308BD19
:106D70001C02030008B5024B1B681B69019308BD88
:106D80001C02030008B5024B1B689B69019308BDF8
:106D90001C02030008B5024B1B68DB69019308BDA8
:106DA0001C02030008B5024B1B681B6A019308BD57
:106DB0001C02030008B5024B1B68DB6A019308BD87
:106DC0001C02030008B5024B1B681B6B019308BD36
:106DD0001C0203000021FFF79DBE10B58368044626
:106DE0000BB901F010FEC3689847A3681BB10322DA
:106DF00021462046984720461021BDE8104001F06A
:106E000000BE0B68036013B15A6801325A607047C4
:106E1000024800230360FFF7ADBC00BF9CE10320E4
:106E2000002211464068FFF755BF00221146406816
:106E3000FFF770BF002211464068FFF77BBF0022BA
:106E40004068FFF76FBF002281F001014068FFF743
:106E500059BF00231A4619464068FFF74BBF00236D
:106E60001A4619464068FFF73DBF002211464068A8
:106E7000FFF720BF002202214068FFF723BF002355
:106E80001A464068FFF70EBFF0B51B4B03600025A4
:106E90000F462833182689B043608560C5603246A6
:106EA00029460446103002F0F8FD2A462946786843
:106EB000FFF710FF08B9A0601BE02946324602A880
:106EC0000095019502F0E9FD02A96846ADF8086059
:106ED000FFF728FC10B10123A3600AE0009B019A90
:106EE000A360E2600BB90223A36002A9204600F070
:106EF00089F8204609B0F0BD3CD30D0038B5084CE8
:106F000028252A460021204602F0C7FD4FF0FF3316
:106F10006360044B258004225A60034A1A6038BD1E
:106F2000A8E10320A0E1032008D30D007047007DF5
:106F300070470000037D1BB18369B3F1004F02D19C
:106F40009FED050A704707EE903A9FED047AF8EE40
:106F5000E77A87EE870A7047000000000000C84209
:106F6000037D1BB1036AB3F1004F02D19FED050A07
:106F7000704707EE903A9FED047AF8EEE77A87EED5
:106F8000870A7047000000000000C84210B52821A1
:106F9000044601F036FD204610BD0000037D7BB1A4
:106FA000436A002B0CDB07EE903ADFED076A9FED9A
:106FB000070AB8EEE77AC7EE267A27EE800A70470E
:106FC000BFEE000A704700BF00FF7F470000C842C5
:106FD000037D7BB1C369002B0CDB07EE903ADFED3C
:106FE000076A9FED070AB8EEE77AC7EE267A27EE22
:106FF000800A7047BFEE000A704700BF00FF7F475E
:107000000000C84230B50D4600F110040FCD0FC48A
:1070100095E8030084E80300012030BD2DE9F0412C
:1070200007460C4615462AB90368C9B29B68BDE8F5
:10703000F0411847002907DA0A2A05D12D2100F06E
:107040008BFE6142064601E021460026EAB2384640
:1070500000F09BFE3044BDE8F08170B50D46064659
:107060000A2281682846FFF7D9FF2C2104462846CA
:1070700000F072FE0A220444F1682846FFF7CEFFB2
:10708000204470BDA0F10400FFF7E7BF7047002067
:10709000704710B51021044601F0B3FC204610BD26
:1070A00008B508B1FFF7F5FF08BD10B583680446C1
:1070B00013B1032201469847204610BD002202600A
:1070C00010B54FF69C728280B1F9044084808A80AA
:1070D00002680C6804600A6010BD10B504460068C0
:1070E000FFF738FE204610BD38B5C468F4B12378E8
:1070F000022B03D104F10C00FFF7EFFF656835B1F7
:107100002846FFF7D2FF1021284601F07AFCA56837
:1071100035B12846FFF7C9FF1021284601F071FC60
:1071200020461421BDE8384001F06BBC38BD10B5D5
:1071300088B00446684600F0D1FE694604A800F015
:10714000EFFE04A8A047044604A800F080FE6846AD
:1071500000F07DFE204608B010BDF0B5102485B0CB
:1071600007460E46154600212246684602F095FC69
:10717000002269461046ADF800400297039601953B
:10718000FFF730FD05B0F0BD13B5044691E80500EA
:1071900000234B600B602060626001A801930093A4
:1071A000FDF773FA204602B010BDF7B50C4602ADEC
:1071B00054F8043B45F8083D06460F4601A8214611
:1071C000FFF71FFE29463046FFF7DEFF01A8FDF757
:1071D0005CFA2046FDF759FA3846082101F011FC07
:1071E000304603B0F0BD13B50B46044603C88DE826
:1071F000030093E8030084E803009DE8030083E8AC
:10720000030002B010BD000038B50023044603603F
:1072100010200D46FCF741FF28B101234360836035
:10722000024B0360C5602060204638BD70D30D005E
:10723000826810B50AB901F0E6FBC368BDE81040EA
:10724000184708B5006800F11001FFF7F1FF08BD0D
:10725000826810B50AB901F0D6FBC368BDE81040DA
:10726000184708B5006800F11001FFF7F1FF08BDED
:1072700038B5002383608B6804460D462BB102228B
:107280009847EB68E360AB68A360204638BD000018
:10729000F0B589B004686846FFF710FF00238DF849
:1072A00008304FF00202D4E84F3F002B03D1C4E86E
:1072B000412F0029F7D102D08DF8083063E014F196
:1072C0000C0503D069462846FFF7F8FEBFF35F8F31
:1072D00001236370002004F10803BFF35F8F53E8BC
:1072E000006F43E80002002AF9D1BFF35F8F002E40
:1072F00049D0FFF727FC20B129463046FFF798FF19
:107300003AE0314602A8FFF7B3FFE068B4F9105045
:1073100008B102F053FE06901020ADF81C50FCF7A7
:10732000BCFE0546E8B1002787601820FCF7B5FED3
:10733000044688B10146876002A8FFF754FF049B0A
:10734000A268A360059B049206A9E268E36004F1C9
:1073500010000592FFF7B2FE0D4BEB600D4B2C6059
:10736000AB6006A8FFF7B9FE02A8FFF79EFE002259
:1073700029460948FFF7EEFB3046FFF796FE10213D
:10738000304601F03EFB6846FFF7A7FE09B0F0BDAE
:1073900043720D00B9740D00DB6D0D002DE9F04F47
:1073A0008BB006460F46904699469DF850A0FFF7D1
:1073B00039FC07AD834630BB4FF62E73059005A907
:1073C0002846ADF81830FFF779FE1420FCF765FE6B
:1073D000044658B10223037001234370C0F804B07F
:1073E000C0F808B029460C30FFF768FE3046214649
:1073F00040F8044BFFF708FF2846FFF76EFE05A88C
:10740000FFF76BFE52E000240C2314206C60AC608C
:107410000793FCF742FE014618B1047044704460C3
:10742000846004A80391FFF7EFFE224B0893082025
:10743000FCF733FE044628B1039B40F8043B04A943
:10744000FFF7DFFC00955FFA8AF34A46414638466B
:107450000994FFF7F7FB20B9039B5B7803F0FF0269
:1074600083B1039B059304A906A8FFF7CAFC05A9ED
:107470003046FFF789FE06A8FDF707F904A8FDF7D7
:1074800004F913E04FF69C7305A903A80592ADF823
:107490001830FFF7FDFE05A8FFF71FFE05A80999A4
:1074A000FFF783FE06A8FDF7F0F8DAE730460BB0E9
:1074B000BDE8F08F29760D00022AF8B5044606D003
:1074C000032A17D0012A22D10B6803601FE018207D
:1074D0000E68FCF7E2FD054650B13146FFF7C8FEE5
:1074E0003069B6F9147008B102F068FD2861AF8206
:1074F00025600CE0046854B104F11000FFF7EDFDC5
:107500002046FFF7D2FD1821204601F07AFA00202C
:10751000F8BD38B5002383608B6804460D462BB157
:1075200002229847EB68E360AB68A360204638BD51
:10753000022A70B5044606D0032A11D0012A18D1B8
:107540000B68036015E014200E68FCF7A6FD0546E5
:1075500020B13146FFF7DDFF337C2B74256008E056
:10756000046834B12046FFF7A0FD1421204601F045
:1075700048FA002070BD0000F0B5002387B00C462B
:10758000BFF35F8F50E8006F40E80032002AF9D166
:10759000BFF35F8F002E3FD01846FFF7D3FA0746A0
:1075A00020B121463046FFF753FE2EE0314601A8B8
:1075B000FFF7AFFF23788DF814301020FCF76DFD36
:1075C0000546D0B187601420FCF767FD044678B10A
:1075D0008760014601A8FFF706FE039BA268A3602F
:1075E000049B0392E268E3609DF8143004922374D4
:1075F0000A4BEB600A4B2C60AB6001A8FFF755FD0E
:10760000002229460748FFF7A5FA3046FFF74DFD4F
:107610001021304601F0F5F907B0F0BD63720D009E
:1076200031750D00DB6D0D0030B585B004460D469B
:1076300068461146FFF7B9FD7CB124B228460DB16A
:1076400002F0BCFC029002A96846ADF80C40FFF7BE
:107650001FFE02A8FFF741FD1DE000988DF80840CD
:107660004FF00102D0E84F3FA34203D1C0E8412FC1
:107670000029F7D102D08DF808300CE010F10C0190
:107680004FF0010318BF0373BFF35F8F043000F89E
:10769000033CFFF771FF01A8FCF7F7FF05B030BD11
:1076A000002211464068FFF735BB002211464068B2
:1076B000FFF740BB00224068FFF734BB002281F097
:1076C00001014068FFF71EBB00231A4619464068B7
:1076D000FFF710BB00231A4619464068FFF702BBAC
:1076E000002211464068FFF7F5BA002211464068B3
:1076F000FFF7E0BA002202214068FFF7E3BA002357
:107700001A464068FFF7CEBA024B03225A60024A7B
:107710001A607047D0E103208CD30D00006800F0A0
:10772000D0B810B50446016002710AB1FFF7F6FF48
:10773000204610BD38B504460D4601F01BF92A4617
:1077400001462046FFF7EDFF204638BD006800F0F7
:10775000C1B810B5037904460BB1FFF7F7FF204617
:1077600010BDF8B5044616461D460F46FFF7D6FF76
:107770002068362100F09AF82068036839469B6833
:1077800098470121206800F094F802223621012355
:10779000206800F082F8206803685B6998473070C1
:1077A000206803685B69984728702046BDE8F84068
:1077B000FFF7CCBF07B502AB002203F8012D8DF80F
:1077C000062004210DF10602FFF7CBFF9DF807000C
:1077D00001F0B6FB0022094B01F018FC01F00EFF8E
:1077E0009DF8063000EE103A07EE900AB8EEC00A97
:1077F00037EE800A03B05DF804FB00BF0000703F65
:107800007047F8B5064615460C468F18BC4206D0A0
:10781000336814F8011B9B6830469847F6E7284602
:10782000F8BD0022007CFFF765B80021007CFFF75F
:1078300069B80021007CFFF76DB80021007CFFF7DC
:1078400071B80021007CFFF775B810B5142104460B
:1078500001F0D7F8204610BD10B504464FF47A73F6
:107860000846A3600021044B207461602360FFF789
:1078700071F8204610BD00BFC0D30D0000231A468A
:107880001946007CFFF716B813B50024007C00945D
:10789000FFF718F8C0B202B010BDDBB2D2B2C9B265
:1078A000FFF7F2BF0022007CFFF714B8C9B2FFF760
:1078B000F9BF0022007CFFF715B80021007CFFF71C
:1078C00041B808B50021007CFFF74CF8B0FA80F011
:1078D000400908BD08B50021007CFFF74BF8B0FA5D
:1078E00080F0400908BD0047F0B585B01C460E4643
:1078F00017460546FEF7CEFF002084424FF00403F2
:1079000003908DF80C30A5BF9DF828308DF80E300F
:10791000034603AB009332463B460649A8BF8DF8A9
:107920000D402846FEF7AEFFB0FA80F0400905B0E2
:10793000F0BD00BFE7780D00F8B50646FEF7AAFFD8
:10794000074668B9084D55F826405CB12046FFF758
:10795000ACFB1021204601F054F845F8267001E0F8
:107960000020F8BD0120F8BDD8E10320704710B514
:107970001821044601F045F8204610BDF0B5037DFE
:10798000062B8DB00E4600F104074FF0000402D024
:1079900000F1080518E00CAD394605F8304D2F23ED
:1079A0002A460A20FEF7EEFF284603F037F8336830
:1079B0000246DB682946304698470FE024B12E2165
:1079C000304600F0C9F9044415F8011D0A2230467A
:1079D00000F0DBF9BD420444F0D120460DB0F0BD0B
:1079E00010B5054B0446112240F8043B002102F07B
:1079F00054F8204610BD00BFE8D30D000346074AE7
:107A000010B543F8042B01F1100251F8044B43F870
:107A1000044B9142F9D10A781A7010BDE8D30D00D9
:107A200010B59DF8084044EA032343EA024242EAC3
:107A3000016104234160037510BD37B50D788B7863
:107A40004A78C97800912946FFF7EAFF03B030BDB4
:107A5000014B024A1A60704768E2032064D40D00AB
:107A6000002211464068FFF755B9002211464068D0
:107A7000FFF760B900224068FFF754B9002281F097
:107A800001014068FFF73EB900231A460121406812
:107A9000FFF730B900231A4619464068FFF722B9AC
:107AA000002211464068FFF715B9002211464068D0
:107AB000FFF700B9002202214068FFF703B9002355
:107AC0001A464068FFF7EEB838B5054688B1046835
:107AD0004CB1A3681BB103222146204698471021D0
:107AE000204600F08EFF28461421BDE8384000F003
:107AF00088BF38BD10B103685B681847704710B580
:107B000003680446BBB15868FEF71CFE78B92368C9
:107B10005A7C12B95868FEF71DFE23685868FEF7B4
:107B200021FE20680023236028B1FFF7CDFF2068E5
:107B300008B1FFF7C9FF204610BD000038B50C4B57
:107B400003600446D0F8CC0108B1FCF7AAFAD4F8D7
:107B5000C45135B12846FFF7D2FF0421284600F072
:107B600050FFA06808B1FFF7C5FF204638BD00BF31
:107B7000D0D40D0038B50E4C0E4B236000250223E7
:107B800004F5E4706360A560C4F8C451C4F8C8513A
:107B9000FEF7F0FD084BC4F8CC5184F8D0512360B7
:107BA0002046064A0649BDE8384000F025BF00BF20
:107BB0006CE2032004D50D00D0D40D0064E0032056
:107BC0003D7B0D0000231A464068FFF76BB800228A
:107BD00002214068FFF776B8002211464068FFF79F
:107BE00069B8002211464068FFF774B800231A46AE
:107BF00019464068FFF776B800231A4619464068D0
:107C0000FFF778B8002281F001014068FFF77AB8E9
:107C100000224068FFF786B8002211464068FFF74F
:107C200089B8002211464068FFF774B82DE9F04387
:107C3000002495B016460D460746FFF7D1FE2146B3
:107C400020220CA8009401F028FF40230C93214629
:107C50006B460CAA3046FEF7A5FE0446002844D128
:107C6000024601216868FFF735F802218046224666
:107C70006868FFF72FF8009E81462146002E34D019
:107C8000002932D17368022B02D00A2B09D02AE0D6
:107C9000B8F1000F27D0716938460431FFF7CDFEE7
:107CA00020E0B9F1000F1ED07469112201A801F083
:107CB000F4FE06238DF8143001AD04F108031834E6
:107CC000186859682A4603C20833A3421546F7D1FB
:107CD00001A906A807ADFFF791FE0FCD3C1D0FC40B
:107CE0002B6823700121F669C8E70098FEF752FE61
:107CF000384615B0BDE8F083024B034A1A600022F3
:107D00005A60704740E4032004D50D00F8B50646DC
:107D10000D468F180024BD420CD0336815F8011BA6
:107D20009B6830469847002801DB0444F3E7002CA9
:107D300008BF04462046F8BD70B505460C46084607
:107D400049B102F06BFE2B68024621462846DB68EB
:107D5000BDE87040184770BD03689B68184738B588
:107D60000D210546FFF7F8FF0A2104462846FFF7D4
:107D7000F3FF204438BD38B50546FFF7DDFF044664
:107D80002846FFF7ECFF204438BD30B58BB00B46DA
:107D900000218DF82410012A98BF0A220DF1230436
:107DA000B3FBF2F505FB123303F0FF03092B94BF7D
:107DB00030333733DBB2214604F801392B46002D2E
:107DC000EED1FFF7B9FF0BB030BD10B50446FFF799
:107DD0006CF9204610BD00000348044A0449002302
:107DE000836000F009BE00BF48E4032064E0032084
:107DF000CB7D0D00704710B50C21044600F001FE4C
:107E0000204610BD0021FEF7E5BD0021FEF7EABDCA
:107E100010B5054B0360044601710846FEF7CAFD24
:107E20000023A360204610BD38D50D0038B50446A8
:107E30000079FFF7E7FF38B92079FEF7C3FD054663
:107E40002079FFF7E2FF00E00025284638BD10B595
:107E500004460068FEF77EFF204610BD10B50446BC
:107E6000006808B1FEF776FF00232360A36063601B
:107E700010BD38B504460D4600680131FEF772FFAB
:107E800010B184E82100012038BD10B50368044614
:107E900013B143688B4207D22046FFF7EAFF20B1B7
:107EA000A3680BB922681370012010BD70B50E468F
:107EB000114604461546FFF7E8FF18B92046FFF7BC
:107EC000CDFF09E02A463146A560206801F0DAFDC1
:107ED0002268A3680021D154204670BD38B5002324
:107EE000044603604360836003730D4639B108465E
:107EF00002F094FD294602462046FFF7D7FF2046B0
:107F000038BD884210B50B46044607D0096819B140
:107F10009A68FFF7CBFF01E0FFF7A0FF204610BDF6
:107F200010B5002304460360436083600373FFF7CA
:107F3000E8FF204610BD08B582680B4612B919B992
:107F4000012008BD11B90368187802E0006802F04A
:107F500023F8B0FA80F0400908BD70B50E469AB11A
:107F600091B185689D4202D800230B7070BD541EEC
:107F7000ED1A0168AC4228BF2C461944224630460F
:107F800002F069FD0023335570BD10B5044600684A
:107F900018B1FEF7DFFE0023236010BD38B5B1F93C
:107FA000043083800B460D4653F8062FC0F8062098
:107FB0009B8843810446FFF7E8FF2B6813B12360D9
:107FC00000232B60204638BDB1F9043010B50BB941
:107FD0000A689AB10C685CB1A288012A03D0042A0D
:107FE00006D1022205E0A4894C818A710B8105E04B
:107FF00004220B814FF6FF738A714B8151F8063FC3
:1080000003608B88838010BD014600228C20FEF720
:10801000C1BB0020FFF7F8BF30B5044685B0084665
:1080200011461A460023FEF77DFD0D4DADF80C00FC
:10803000002301A90193ADF808308DF80A302846D5
:108040004FF6FF73ADF80E30FFF7A8FF01A8FFF75A
:108050009CFF20462946FFF7B7FF204605B030BDFC
:1080600058E4032010B500240470448000294FF622
:10807000FF74848007DD0139994209D232F811304A
:108080008380012301E002D10223037010BD4180EF
:1080900010BD0000F0B58BB017461A46129B019335
:1080A0000E460024119B0294054600933946109B0E
:1080B0003046FEF77BFD3B463246014605A8FFF7FA
:1080C000D1FF0794ADF820400D4C9DF81410BDF978
:1080D0001620BDF818308DF82210204607A9ADF8FB
:1080E0002420ADF82630FFF759FF07A8FFF74DFF12
:1080F00028462146FFF768FF28460BB0F0BD00BFB9
:1081000058E4032010B5094C00204FF6FF7320609F
:10811000A080A07120816381FEF7F4FC2046044A10
:108120000449BDE8104000F067BC00BF58E40320DC
:1081300064E00320E1410D00F0B5144B144F1E68BC
:10814000144B064418683B6806449E428BB01BD013
:108150000AA801AD40F8286D01F098FB436903F2CD
:108160006C73436104460FCC0FC50FCC0FC5D4F818
:1081700000E0C5F800E001AD0FCD074C0FC40FCDF6
:108180000FC43E60C4F800E00BB0F0BD98E40320DB
:1081900094E4032090E4032064E4032008B5002065
:1081A000FEF768FD28B1FEF73DFD80F00100C0B28A
:1081B00008BD012008BD000008B5FFF7BDFF014B59
:1081C000986808BD64E4032008B5FFF7B5FF014BCC
:1081D000D86808BD64E4032008B5FFF7ADFF024B83
:1081E0009869013008BD00BF64E4032008B5FFF7BB
:1081F000A3FF024B1869013008BD00BF64E40320EF
:1082000008B5FEF7EFFA034B1B681844024B1B68D6
:10821000184408BD98E4032090E40320FAEE087A9D
:10822000B4EEE70AF1EE10FA0FD4F2EE0C7AB4EEE7
:10823000E70AF1EE10FA08DCDFED047A044B20EED9
:10824000270ABDEEC00A83ED000A704700006145B1
:1082500098E40320B5EEC00AF1EE10FA0FD4F0EE68
:10826000007AB4EEE70AF1EE10FA08DCDFED047AEA
:10827000044B20EE270ABDEEC00A83ED000A7047CA
:108280000000614570DF0320024B1A68024B1A6040
:10829000704700BF70DF032090E40320014B0022F1
:1082A0001A60704790E4032008B5FEF7A3FA002295
:1082B00011461046BDE80840FEF75CBC37B50E4BD2
:1082C0001B6819440D4B1B68044602A8194440F86A
:1082D000041D01F0DBFA01F0E1F9054602F09EFB16
:1082E0002844002300F8013C29462046FFF7F6FD0C
:1082F000204603B030BD00BF98E4032090E4032083
:108300002DE9F047A4B014AC074689462046114633
:108310003F221D4602F09FFB002320468DF88F3040
:1083200002F07CFB804625B9244903A801F03EFEFB
:1083300013E03C2195FBF1F2002AB8BF524292FBB8
:10834000F1F301FB132200924FF461631C4A95FB89
:10835000F3F3102103A8FEF71DFD25462E1B08F19F
:10836000FF3AB2451BD92B78252B16D16B787A2B87
:1083700013D103A802F052FB80463044C6EB0A0238
:10838000A91C204401F07EFB424603A9284601F0C7
:1083900079FB204602F042FB80460135DEE74B4682
:1083A0002246322107A801F085FE07A93846FFF7CB
:1083B00095FD384624B0BDE8F08700BF35DB0D00E1
:1083C00040D50D00F7B5054601921C4613B9124B76
:1083D0001C682CB1114B2046196801F0DDFD20B955
:1083E00001992846FFF76AFF13E00D4F019A3B6899
:1083F0000C4E1A44336802A8134440F8043D01F0BF
:1084000045FA3A6833680146134428462246FFF786
:1084100077FF284603B0F0BD8CE4032074DF03200F
:1084200098E4032090E4032010B50020FEF7EAF959
:10843000044668B9FEF75EFB01280BD12046FEF723
:1084400091FB38B9FFF7AAFE30B9FEF7D3FBF9E785
:10845000012010BD002010BDFFF7A0FE0020FEF798
:10846000D1F9003018BF012010BD08B5FFF7DCFFBF
:10847000BDE80840FEF7B6B908B5FFF7F6FFFFF70D
:108480005BFE014B986808BD64E4032008B5FFF764
:10849000ECFFFFF751FE014B586808BD64E4032070
:1084A00008B5FFF7E2FFFFF747FE014BD86808BDAC
:1084B00064E4032008B5FFF7D8FFBDE80840FFF7E4
:1084C0008BBE08B5FFF7D1FFBDE80840FFF78EBEB1
:1084D00008B5FFF7CAFFFFF72FFE014B586908BD2B
:1084E00064E40320024B1A68024B1A60704700BF15
:1084F00074DF03208CE4032070474174704708B593
:10850000007CFEF7AFFA20EAE07008BD08B5007CF9
:10851000FEF780FA20EAE07008BD08B5007CFEF79F
:1085200089FA30EA200028BF4FF0FF3008BD08B5B7
:10853000007CFEF777FA30EA200028BF4FF0FF30CA
:1085400008BD007CFEF77EBA10B51421044600F089
:1085500058FA204610BD70B5457C04460E4625B934
:10856000007CFEF77FFA002805DD3146207CBDE85F
:108570007040FEF747BA284670BD000010B50446AB
:1085800008461146002262604FF47A72A260054AE2
:1085900022600122207462741A46FEF72BFA2046EC
:1085A00010BD00BF70D50D00007CFEF753BA00006F
:1085B00038B50C4D296811F0010411D12846FBF79C
:1085C00072FD68B1084A094B09482146FFF7D6FFFA
:1085D0002846FBF76DFD074A0749054800F00CFAED
:1085E000034838BD34E5032038E50320B0E4032018
:1085F0009CE4032064E00320F9840D00417470477B
:10860000704708B50021007CFEF74CFA30EA2000E4
:1086100028BF4FF0FF3008BD08B50121007CFEF7F0
:1086200041FA30EA200028BF4FF0FF3008BD08B5FE
:10863000007CFEF72FFA20EAE07008BD08B5007C48
:10864000FEF720FA20EAE07008BD007CFEF73ABA97
:1086500010B51421044600F0D4F9204610BD38B5F9
:108660000446007C0D46FEF715FA002801DC607C0C
:1086700028B12946207CFEF71DFA20EAE07038BDBB
:1086800010B50446002363604FF47A73A360054B72
:10869000236001230846217463741146FEF7EAF94A
:1086A000204610BDA0D50D0010B5142204460021AF
:1086B00001F0F3F9204610BD30B50E4D87B001A88A
:1086C000FFF7F2FF296811F0010410D12846FBF7EB
:1086D000EAFC60B101AA21460748FFF7D1FF28460E
:1086E000FBF7E6FC054A0649034800F085F9024815
:1086F00007B030BDBCE50320C0E5032064E00320E3
:1087000001860D0008B50C4B33B1FFF7D5FF0368A8
:108710001B699847002809DC084B63B1FFF748FF45
:1087200003681B699847002803DC08BDAFF300808D
:10873000F2E7AFF3008008BD000000000000000079
:1087400008B5FFF7DFFFFEF745F8014B186008BDDD
:10875000DCE503200248034A0349121A01F092B9EA
:1087600000F4032004F40320B0DC0D0007B500235F
:1087700000931A466FF07701FEF70EFA03B05DF82A
:1087800004FB000007B543880A2B08D0502B09D101
:10879000094B1B683BB103B05DF804EB1847FFF7CA
:1087A000E5FF06E0002300931A466FF07701FEF71D
:1087B000F3F903B05DF804FBD4E5032038B5104CA1
:1087C000104D2368AB42104B0CBF012200221A70DF
:1087D00002D0FFF7BFFF2560FDF7ECFF044601F074
:1087E000B3FB0A4B13B12046AFF3008000210748CA
:1087F000FEF750FA00210648BDE83840FEF7C2B93E
:1088000000F403201E1C279AD8E503200000000076
:1088100085870D0008B5024B1B681B68019308BDD6
:108820005C02030008B5024B1B685B68019308BD3E
:108830005C02030008B5024B1B689B68019308BDEE
:108840005C02030010B504460F48FFF7EFFA28B1A9
:10885000A4F10B03022B01D8002010BD00F06AF830
:10886000FFF72BF808B1012CF6D9FFF7A1FEFFF7AF
:108870009BFE18B1A4F10903012BEDD9232C8CBF69
:108880000020012010BD00BF10E60320232838B5CA
:1088900004460D460AD8FF2908D0FFF7D3FF28B1B8
:1088A00029462046BDE83840FDF7CCBF38BD38B575
:1088B00004460D46FDF7CEFFFF2810D0062804D849
:1088C0004D2323FA00F0C30709D42046FFF7BAFF6F
:1088D00028B129462046BDE83840FDF7C3BF38BD62
:1088E00010B50446FDF7B6FF0438C0B2012808D918
:1088F0002046FFF7A7FF20B12046BDE81040FDF756
:10890000B9BF002010BD0D2810B504469CBF0E3421
:10891000A4B22046FFF796FF50B103212046FDF791
:1089200089FF032804D12046BDE81040FDF7BABFF7
:10893000002010BD38B50B4D296811F001040FD18E
:108940002846FBF7B0FB58B121460748FEF784FFE5
:108950002846FBF7ADFB054A0549034800F04CF8F3
:10896000014838BDE0E50320F8E5032064E003207A
:1089700001780D0010B50B4C2368DB070FD420469F
:10898000FBF791FB58B101210748FEF765FF204630
:10899000FBF78EFB054A0649034800F02DF8024814
:1089A00010BD00BF0CE60320E4E5032064E00320D3
:1089B00001780D0070B50C4C0C4E0D4D0021204679
:1089C000FFF726FA20460B4C3246294600F014F8F1
:1089D00001212046FFF71CFA324629462046BDE811
:1089E000704000F009B800BF10E6032064E00320E7
:1089F000F57D0D001CE603200B460146184600F0ED
:108A00008DBEFBF74CBB08B5FEF7D4F9244B1A68B2
:108A1000D0075CBF01221A60224B1A68D1075CBFE5
:108A200001221A60204B1A68D2075CBF01221A602B
:108A30001E4B1A68D0075CBF01221A601C4B1A68D3
:108A4000D1075CBF01221A601A4B1A68D2075CBFBB
:108A500001221A60184B1A68D0075CBF01221A6005
:108A6000164B1A68D1075CBF01221A60144B1A68B2
:108A7000D2075CBF01221A60124B1A68D0075CBF94
:108A800001221A60104B1A68D1075CBF01221A60DC
:108A90000E4B1A68D2075CBF01221A60704700BFF4
:108AA00054E6032050E603204CE6032048E603206A
:108AB00044E6032040E603203CE6032038E603209A
:108AC00034E6032030E603202CE6032028E60320CA
:108AD000184B1A68D1075CBF01221A60164B1A683E
:108AE000D2075CBF01221A60144B1A68D0075CBF22
:108AF00001221A60124B1A68D1075CBF01221A606A
:108B0000104B1A68D2075CBF01221A600E4B1A681C
:108B1000D0075CBF01221A600C4B1A68D1075CBFFA
:108B200001221A600A4B1A68D2075CBF01221A6040
:108B3000704700BF74E6032070E603206CE6032054
:108B400068E6032064E6032060E603205CE6032079
:108B500058E60320184B1A68D1075CBF01221A603F
:108B6000164B1A68D2075CBF01221A60144B1A68B0
:108B7000D0075CBF01221A60124B1A68D1075CBF94
:108B800001221A60104B1A68D2075CBF01221A60DA
:108B90000E4B1A68D0075CBF01221A600C4B1A6892
:108BA000D1075CBF01221A600A4B1A68D2075CBF6A
:108BB00001221A60704700BF94E6032090E603206C
:108BC0008CE6032088E6032084E6032080E6032069
:108BD0007CE6032078E60320244B1A68D0075CBFAC
:108BE00001221A60224B1A68D1075CBF01221A6069
:108BF000204B1A68D2075CBF01221A601E4B1A680C
:108C0000D0075CBF01221A601C4B1A68D1075CBFF9
:108C100001221A601A4B1A68D2075CBF01221A603F
:108C2000184B1A68D0075CBF01221A60164B1A68ED
:108C3000D1075CBF01221A60144B1A68D2075CBFCF
:108C400001221A60124B1A68D0075CBF01221A6019
:108C5000104B1A68D1075CBF01221A600E4B1A68CC
:108C6000D2075CBF01221A60704700BFC4E6032030
:108C7000C0E60320BCE60320B8E60320B4E60320E8
:108C8000B0E60320ACE60320A8E60320A4E6032018
:108C9000A0E603209CE6032098E6032081F0004133
:108CA00002E000BF83F0004330B54FEA41044FEAD1
:108CB000430594EA050F08BF90EA020F1FBF54EA6C
:108CC000000C55EA020C7FEA645C7FEA655C00F008
:108CD000E2804FEA5454D4EB5555B8BF6D420CDDD9
:108CE0002C4480EA020281EA030382EA000083EA5C
:108CF000010180EA020281EA0303362D88BF30BDFC
:108D000011F0004F4FEA01314FF4801C4CEA113151
:108D100002D0404261EB410113F0004F4FEA0333B0
:108D20004CEA133302D0524263EB430394EA050F3B
:108D300000F0A780A4F10104D5F1200E0DDB02FAAA
:108D40000EFC22FA05F2801841F1000103FA0EF23E
:108D5000801843FA05F359410EE0A5F120050EF104
:108D6000200E012A03FA0EFC28BF4CF0020C43FA35
:108D700005F3C01851EBE37101F0004507D54FF042
:108D8000000EDCF1000C7EEB00006EEB0101B1F592
:108D9000801F1BD3B1F5001F0CD349085FEA3000D8
:108DA0004FEA3C0C04F101044FEA445212F5800FE3
:108DB00080F09A80BCF1004F08BF5FEA500C50F180
:108DC000000041EB045141EA050130BD5FEA4C0C63
:108DD000404141EB010111F4801FA4F10104E9D1EC
:108DE00091F0000F04BF01460020B1FA81F308BFE3
:108DF0002033A3F10B03B3F120020CDA0C3208DDAF
:108E000002F1140CC2F10C0201FA0CF021FA02F189
:108E10000CE002F11402D8BFC2F1200C01FA02F1F9
:108E200020FA0CFCDCBF41EA0C019040E41AA2BF1E
:108E300001EB0451294330BD6FEA04041F3C1CDAE6
:108E40000C340EDC04F11404C4F1200220FA04F006
:108E500001FA02F340EA030021FA04F345EA0301B0
:108E600030BDC4F10C04C4F1200220FA02F001FA72
:108E700004F340EA0300294630BD21FA04F02946F4
:108E800030BD94F0000F83F4801306BF81F480118D
:108E90000134013D4EE77FEA645C18BF7FEA655C00
:108EA00029D094EA050F08BF90EA020F05D054EAD2
:108EB000000C04BF1946104630BD91EA030F1EBFD7
:108EC0000021002030BD5FEA545C05D140004941DB
:108ED00028BF41F0004130BD14F580043CBF01F5CE
:108EE000801130BD01F0004545F0FE4141F47001B4
:108EF0004FF0000030BD7FEA645C1ABF194610468F
:108F00007FEA655C1CBF0B46024650EA013406BF8F
:108F100052EA033591EA030F41F4002130BD00BF4E
:108F200090F0000F04BF0021704730B54FF480640B
:108F300004F132044FF000054FF0000150E700BF8C
:108F400090F0000F04BF0021704730B54FF48064EB
:108F500004F1320410F0004548BF40424FF00001D8
:108F60003EE700BF42004FEAE2014FEA31014FEA1B
:108F700002701FBF12F07F4393F07F4F81F060516A
:108F8000704792F0000F14BF93F07F4F704730B5D9
:108F90004FF4607401F0004521F0004120E700BF6C
:108FA00050EA010208BF704730B54FF000050AE0F3
:108FB00050EA010208BF704730B511F0004502D5F4
:108FC000404261EB41014FF4806404F132045FEAF6
:108FD000915C3FF4DCAE4FF003025FEADC0C18BF9B
:108FE00003325FEADC0C18BF033202EBDC02C2F191
:108FF000200300FA03FC20FA02F001FA03FE40EA23
:109000000E0021FA02F11444C1E600BF70B54FF022
:10901000FF0C4CF4E06C1CEA11541DBF1CEA135504
:1090200094EA0C0F95EA0C0F00F0DEF82C4481EA6C
:10903000030621EA4C5123EA4C5350EA013518BF8C
:1090400052EA033541F4801143F4801338D0A0FB79
:1090500002CE4FF00005E1FB02E506F00042E0FB26
:1090600003E54FF00006E1FB03569CF0000F18BF2C
:109070004EF0010EA4F1FF04B6F5007F64F54074D4
:1090800004D25FEA4E0E6D4146EB060642EAC62167
:1090900041EA55514FEAC52040EA5E504FEACE2ED4
:1090A000B4F1FD0C88BFBCF5E06F1ED8BEF1004FD7
:1090B00008BF5FEA500E50F1000041EB045170BD53
:1090C00006F0004646EA010140EA020081EA030197
:1090D000B4EB5C04C2BFD4EB0C0541EA045170BD93
:1090E00041F480114FF0000E013C00F3AB8014F10D
:1090F000360FDEBF002001F0004170BDC4F1000456
:10910000203C35DA0C341BDC04F11404C4F12005D6
:1091100000FA05F320FA04F001FA05F240EA020031
:1091200001F0004221F0004110EBD37021FA04F667
:1091300042EB06015EEA430E08BF20EAD37070BD21
:10914000C4F10C04C4F1200500FA04F320FA05F080
:1091500001FA04F240EA020001F0004110EBD37082
:1091600041F100015EEA430E08BF20EAD37070BDF2
:10917000C4F1200500FA05F24EEA020E20FA04F3CB
:1091800001FA05F243EA020321FA04F001F000417A
:1091900021FA04F220EA020000EBD3705EEA430EEB
:1091A00008BF20EAD37070BD94F0000F0FD101F01A
:1091B0000046400041EB010111F4801F08BF013C53
:1091C000F7D041EA060195F0000F18BF704703F091
:1091D0000046520043EB030313F4801F08BF013D18
:1091E000F7D043EA0603704794EA0C0F0CEA1355D4
:1091F00018BF95EA0C0F0CD050EA410618BF52EA8E
:109200004306D1D181EA030101F000414FF0000093
:1092100070BD50EA410606BF1046194652EA4306A1
:1092200019D094EA0C0F02D150EA013613D195EA15
:109230000C0F05D152EA03361CBF104619460AD15D
:1092400081EA030101F0004141F0FE4141F4700167
:109250004FF0000070BD41F0FE4141F4780170BD57
:1092600070B54FF0FF0C4CF4E06C1CEA11541DBFBC
:109270001CEA135594EA0C0F95EA0C0F00F0A7F8BE
:10928000A4EB050481EA030E52EA03354FEA0131EB
:1092900000F088804FEA03334FF0805545EA1313FE
:1092A00043EA12634FEA022245EA111545EA1065C6
:1092B0004FEA00260EF000419D4208BF964244F15D
:1092C000FD0404F5407402D25B084FEA3202B61A7C
:1092D00065EB03055B084FEA32024FF480104FF450
:1092E000002CB6EB020E75EB030E22BFB61A7546C4
:1092F00040EA0C005B084FEA3202B6EB020E75EB57
:10930000030E22BFB61A754640EA5C005B084FEABE
:109310003202B6EB020E75EB030E22BFB61A75468B
:1093200040EA9C005B084FEA3202B6EB020E75EB96
:10933000030E22BFB61A754640EADC0055EA060E57
:1093400018D04FEA051545EA16754FEA06164FEA9A
:10935000C30343EA52734FEAC2025FEA1C1CC0D146
:1093600011F4801F0BD141EA00014FF000004FF0D3
:10937000004CB6E711F4801F04BF01430020B4F194
:10938000FD0C88BFBCF5E06F3FF6AFAEB5EB030C4C
:1093900004BFB6EB020C5FEA500C50F1000041EB49
:1093A000045170BD0EF0004E4EEA113114EB5C0416
:1093B000C2BFD4EB0C0541EA045170BD41F48011E9
:1093C0004FF0000E013C90E645EA060E8DE60CEAF1
:1093D000135594EA0C0F08BF95EA0C0F3FF43BAF0E
:1093E00094EA0C0F0AD150EA01347FF434AF95EAC5
:1093F0000C0F7FF425AF104619462CE795EA0C0FA9
:1094000006D152EA03353FF4FDAE1046194622E775
:1094100050EA410618BF52EA43067FF4C5AE50EA4F
:1094200041047FF40DAF52EA43057FF4EBAE12E73F
:109430004FF0FF3C06E000BF4FF0010C02E000BF20
:109440004FF0010C4DF804CD4FEA410C7FEA6C5C03
:109450004FEA430C18BF7FEA6C5C1BD001B050EAA6
:10946000410C0CBF52EA430C91EA030F02BF90EA91
:10947000020F0020704710F1000F91EA030F58BF50
:10948000994208BF90422CBFD8176FEAE37040F0B2
:10949000010070474FEA410C7FEA6C5C02D150EA50
:1094A000013C07D14FEA430C7FEA6C5CD6D152EA0B
:1094B000033CD3D05DF8040B704700BF84461046D0
:1094C00062468C461946634600E000BF01B5FFF7CF
:1094D000B7FF002848BF10F1000F01BD4DF808ED9F
:1094E000FFF7F4FF0CBF012000205DF808FB00BF70
:1094F0004DF808EDFFF7EAFF34BF012000205DF8CA
:1095000008FB00BF4DF808EDFFF7E0FF94BF012016
:1095100000205DF808FB00BF4DF808EDFFF7CEFF17
:1095200094BF012000205DF808FB00BF4DF808ED56
:10953000FFF7C4FF34BF012000205DF808FB00BF27
:109540004FEA410C7FEA6C5C02D150EA013C0AD13F
:109550004FEA430C7FEA6C5C02D152EA033C02D131
:109560004FF0000070474FF0010070474FEA410292
:1095700012F5001215D211D56FF47873B3EB625265
:1095800012D94FEAC12343F0004343EA505311F08C
:10959000004F23FA02F018BF404270474FF000001E
:1095A000704750EA013005D111F0004008BF6FF05C
:1095B000004070474FF00000704700BF4A0011D2D2
:1095C00012F5001211D20DD56FF47873B3EB62521D
:1095D0000ED44FEAC12343F0004343EA505323FA29
:1095E00002F070474FF00000704750EA013002D19E
:1095F0004FF0FF3070474FF0000070474FEA4102D4
:10960000B2F1E04324BFB3F5001CDCF1FE5C0DD9E0
:1096100001F0004C4FEAC0024CEA5070B2F1004F2A
:1096200040EB830008BF20F00100704711F0804F2D
:1096300021D113F13872BCBF01F00040704741F4F2
:1096400080114FEA5252C2F11802C2F1200C10FAF6
:109650000CF320FA02F018BF40F001004FEAC123DA
:109660004FEAD32303FA0CFC40EA0C0023FA02F37E
:109670004FEA4303CCE77FEA625307D150EA013354
:109680001EBF4FF0FE4040F44000704701F0004024
:1096900040F0FE4040F40000704700BF094B70B539
:1096A0001C68256C06463DB91A20FDF74BFB1A22B3
:1096B0002064294600F0F1F9216C3046BDE8704085
:1096C00000F002B8DCDF032010B50C4641690369E5
:1096D000826986B001F26C7104910168039141685E
:1096E000029181680191C1680091074903EB43032E
:1096F0000B44064902EB42020A4420460449FDF7A6
:1097000039FB204606B010BDDDD50D00C8D50D00D3
:1097100001D60D000A22002102F074B810B5054CE4
:1097200013462CB10A4601460220AFF3008010BD5B
:10973000204610BD0000000038B5074B1C68E36BE5
:1097400005461BB92420FDF7FDFAE063E16B2846CE
:10975000BDE8384000F002B8DCDF03200268474B68
:10976000F0B592FBF3F403FB1422002ABCBF02F510
:10977000A83202F5C0724FF4616004F52F2492FB09
:10978000F0F300FB13224FF03C00ACBF04F66C2456
:1097900004F66B248B6092FBF0F300FB13224B600A
:1097A0000A600723E21C92FBF3F3C3EBC303D31A53
:1097B0008B61334B334D94FBF5F503FB054448F6C1
:1097C000AC62B4FBF2F2224440F2B457B4FBF7F3BC
:1097D000D21A2D48B4FBF0F048F69466131AB3FB86
:1097E000F6F6344440F26D12B3FBF2F0B3FBF7F33C
:1097F000E31A02FB1033992403EB83020232B2FB1B
:10980000F4F20A2A04FB02F404F102064FF0050404
:10981000B6FBF4F434BF02266FF0090616444FF489
:10982000C87202FB05055F1C012E98BF0135B3F518
:10983000997FA7EB040702D3A3F5997214E082077E
:1098400005D16424B0FBF4F204FB12024AB94FF4D0
:10985000C872B0FBF2F402FB1400B0FA80F25209B5
:1098600000E001223B331A44A5F26C750023CA6163
:109870004D610E61CF600B620846F0BD8051010062
:109880004FC5FDFFB13A0200B03A020038B5074BB0
:109890001C68E36B05461BB92420FDF753FAE0630F
:1098A000E16B2846BDE8384000F002B8DCDF032059
:1098B0002DE9F0410C46804602F0F0FD21460746B6
:1098C0004046FFF74BFF466906F26C76B307044645
:1098D00005D1642296FBF2F302FB13634BB94FF4FC
:1098E000C87596FBF5F305FB1365B5FA85F35B09BF
:1098F00000E001235F4A302505FB032502F0CCF888
:1099000002F0CCF85C4B1B68F3B17B689E4205D13A
:109910003968D8F80030FA6941B90AE0304602F0F7
:1099200013F80028F4D14FF0FF330DE0934208DB29
:1099300001E0934207DABA6B9342ACBF00230123E4
:1099400002E0002300E001232362236A012B0CBF05
:10995000F96B396A4FF461633C2091FBF3F603FB2A
:109960001613616893FBF0F200FB12302368891A2A
:10997000A26861601B1A921B3B2B2360A26003DD6F
:10998000013161603C3B04E0002B03DA0139616086
:109990003C33236063683B2B03DD0132A2603C3B18
:1099A00004E0002B03DA013AA2603C336360A36851
:1099B000172B22DDE2690132E261A2690132062A37
:1099C000C8BF0022A261E268183B0132A36023698C
:1099D000E26055F823108A4246DD01330C2B0CBFA0
:1099E00063692361A2EB0102E26001BF013300223F
:1099F0002261636108BFE26136E0002B34DAE2697C
:109A0000013AE261A269013A48BF0622A261E26816
:109A10001833013AE260A36032BB2369013B01D4F1
:109A200023611DE00B23236163695A1E12F0030FAB
:109A3000626103F26B7305D1642193FBF1F201FBC8
:109A400012324AB94FF4C87193FBF1F201FB1233A1
:109A5000B3FA83F35B0900E0012303F5B673E36116
:109A6000236955F82330E36002F017F82046BDE87B
:109A7000F08100BFECD70D00E4E7032000487047F9
:109A8000E0DF032010B5431E0A44914204D011F8D0
:109A9000014B03F8014FF8E710BD0244034693421F
:109AA00002D003F8011BFAE770470000F7B5016820
:109AB0003B29044611D93C22684602F079F9019A03
:109AC00063680099002A0B446360BBBF3C3203F11A
:109AD000FF3322602260B8BF636061683B2911D9FF
