:02000002D0002C
:1040000000400D0030E20D00000006000D0005012B
:0840100004017E050000000020
:0440180028D00D009F
:1040200009480A49884208B505D0094A824202D0A7
:10403000121A05F0DFFE0748074A0021121A05F0A0
:10404000E4FE014808BD00BF14DF032090E00D002E
:1040500088E0032088E00320F0E7032070B504F037
:1040600077FD074C074BE41AA40800251E46A5421D
:1040700004D056F8253098470135F8E770BD00BFE9
:1040800090E00D004CE00D0001F0D6BA08B501F04B
:104090002BF8BDE8084004F029BD02F0C5BE02F0CF
:1040A000CBBE02F0C9BE0078B0FA80F0400970477C
:1040B0000123037070470000014B01221A70704702
:1040C0008CE00320014B01221A707047C4E00320EA
:1040D00010B503682F2B044604D9074A00210A2093
:1040E00002F074FD23681F2B83BF03F01F032360BE
:1040F00002484FF0A04010BDCD680D0000030050F5
:1041000007B502AB43F8040D1846FFF7E1FF019A2B
:1041100001239340C0F8083503B05DF804FB07B5F0
:1041200002AB43F8040D1846FFF7D2FF019A0123B2
:104130009340C0F80C3503B05DF804FB08B50449A2
:1041400004F03BF918B1034801F0DEFD012008BD81
:10415000E6D40D0098E0032008B5044904F02DF9D9
:1041600018B1034B05221A70012008BDE6D40D00DA
:10417000BDE0032010B5034B0360044601F08CFD45
:10418000204610BD44D00D0010B50446FFF7F2FFE5
:104190002046102104F0EDFD204610BD08B50A4967
:1041A00004F00BF9002368B1084A094913609360D1
:1041B00053615360074A4B611370074B012018701D
:1041C000064B187008BD00BFE6D40D004CE103207B
:1041D0006CE1032068E1032048E1032069E103204A
:1041E00008B5002002F0B8FD28B102F08DFD80F086
:1041F0000100C0B208BD012008BD37B59DF81840C8
:1042000023438DF800303C23054603F013F928467C
:1042100003B030BD00231A461946406802F0DCBDE9
:10422000002002F07BBB000030B5194D0FCD99B0D6
:1042300004AC0FC40FCD0FC495E8030084E803005D
:1042400014490EA802F08CFE0EA802F0DCFE044613
:104250000EA802F041FF0EA810EE105A02F022FF45
:1042600018AB10EE100A03EB840405F033F8CDE927
:104270000201284605F02EF8CDE90001064A54F85F
:10428000503C0648402102F0F7FD19B030BD00BF98
:1042900058D00D00A0E10320B0D00D00FCE00320B9
:1042A00008B50F2004F0E7FC05F002F820A3D3E9DD
:1042B000002305F063F805F059FBDFED157A07EEF2
:1042C000100A67EE277A17EE900A05F003F800222D
:1042D000104B04F09FFE00220F4B05F04FF805F045
:1042E000FDFA04F0E5FF00220C4B05F047F8002230
:1042F0000B4B05F06DF900220A4B04F08DFE05F022
:10430000EDFA094B1861094B01221A7008BD00BF74
:10431000000080390000E03F0000594000002240CA
:1043200000001440000040404CE1032048E103201D
:104330006666666666660A4008B50B4B0022114643
:10434000586802F039FD08B1FFF76EFFFFF7A8FFCC
:10435000064803F07BFA064BBDEEC00A012283ED4E
:10436000020A044B1A7008BDA0E10320ACE0032050
:104370006CE1032069E1032010B50D4C236893F82C
:10438000500093F8513003F01F0343EA4010FFF749
:10439000B7FE236893F8500093F8513003F01F03E1
:1043A00043EA4010FFF7BBFE024B00221A7010BD1B
:1043B000F4E00320C4E003201FB51D4803F0F2FC25
:1043C0001B4803F09CFE1B4B5C79ACB141F2E82129
:1043D000174803F069FD4FF46171154803F0EEFDD5
:1043E000002211460292019200920123104803F02C
:1043F0002DFE41F2700114E041F270010C4803F00F
:1044000053FD40F2DC510A4803F0D8FD0123214658
:104410000294019400941A46054803F017FE41F2F5
:104420001001034804B0BDE8104003F042BE00BFD5
:10443000BEE003206CE10320334B9A78D3ED067A7B
:10444000012A84BF00229A70DA78012A82BF2E4A9C
:104450000121D1701A79012A82BF2B4A0121D17022
:104460005A79012A82BF284A002151719A79012A7A
:1044700082BF254A00219171DA79012A82BF224A3E
:104480000021D171196941F27072914282BF1E4AB6
:104490004FF47A7111615A69FF2A88BF1A4ABAEE3D
:1044A000087A88BF0021F4EEC77A88BF5161F1EE27
:1044B00010FA06D4B2EE087AF4EEC77AF1EE10FAEA
:1044C00001DD124A9A61D3ED077AF5EEC07AF1EE7A
:1044D00010FA06D4B0EE007AF4EEC77AF1EE10FAD4
:1044E00002DD4FF07E52DA611A6A5B6A0C2A88BFDD
:1044F000054AA3F10C0384BF002111620B2B82BF7C
:10450000014B17225A6270476CE103200000A0C0E3
:1045100008B502F0F9FB80F00100C0B208BD000050
:10452000F8B502F0E9FBFFF77BFE0025044643F6F1
:1045300097260027FFF774FE001B61EB05018F42F1
:1045400008BF864205D3FFF7E3FF10B902F0C4FBB2
:10455000F0E7FFF7DDFF0448FFF75CFE4FF4FA6079
:1045600002F0AAFC0120F8BDA0E1032038B5084DF7
:104570000024AC602C606C6004F049F9054B064ADD
:104580005C6101231370054AE8606C61137038BDEB
:104590004CE103206CE1032048E1032069E10320A2
:1045A00010B5074C02F09AF92368C01AB0F57A7F6B
:1045B00004D302F093F92060012010BD002010BD4B
:1045C0003CE1032008B5FFF7EBFF18B1BDE8084058
:1045D000FFF7E6BF02F080FBF5E7000037B502F019
:1045E0008BFB02F07BF943F69725044602F08CFB27
:1045F00040B102F073F9001BA84203D8642002F016
:104600005BFCF3E70021094B47F23052084602F009
:104610000DF94FF47A7002F04FFC054B0A221B682B
:104620000121684603F0FCFE03B030BDC9D00D0087
:10463000CCE0032038B504F005F9054604F013F981
:10464000044604F009F9231F062B0ED9E31E082B9C
:104650000DD801382D1A01D50B2C02E0072D06DDEF
:10466000032C14BF0020012038BD012038BD0020DC
:1046700038BD38B5046805467CB16368013B6360AA
:104680005BB9236820469B689847A368013BA360F9
:104690001BB923682046DB689847284638BD0000D0
:1046A00070B5254C254EA369CEB0002505936369EE
:1046B0000493234B5A690392226902929B680193E7
:1046C000A36800931F4A23684FF480710EA802F07C
:1046D000D3FB0EAA1C4933788DF800500AA8FFF7C7
:1046E0008CFD0BA8FFF7C5FF02F0F8F8174B186018
:1046F00004F094F8164B1860FFF764FF04F087F895
:1047000001460AA803F0B0FF0A9B0793079A337883
:1047100010498DF8005008A8FFF76FFD09A8FFF7B2
:10472000A8FF0AA803F0D5FD236863600A4B0122A5
:104730001A704EB070BD00BF4CE10320A8E003200A
:104740006CE10320D6D00D002FD10D00B8E003207E
:10475000C0E00320A6D30D0068E10320F0B585B0CA
:10476000084602AF0E4606F011FB00F1080323F0E5
:1047700007036D46ADEB030D02AC421C31462046EB
:1047800006F021FB9DF808605EB9FFF71BFF02F001
:10479000BBFA002835D01D4B1D4A1B788DF80060F0
:1047A00028E0204605F06EF9C838012819D8FFF72F
:1047B00009FF02F0A9FA60B1144B16491B780022D8
:1047C0008DF800203846144AFFF717FD381DFFF713
:1047D00050FF04F01CF8114BD860114B00221A70E6
:1047E0000FE002F091FA60B1084B00221B788DF8BF
:1047F0000020224638460B49FFF7FFFC381DFFF723
:1048000038FF0C37AD46BD46F0BD00BFA8E0032021
:1048100040D10D0067D10D0055D10D004CE10320B2
:1048200068E1032048D10D002DE9F041444DDFF847
:1048300040812B6893F8700093F8713003F01F03E8
:1048400043EA4010C4B0FFF75BFC02F047F83D4B71
:104850001A68801A3C4A116988421C46164622D2C0
:1048600098F80070FFB913791BB102F04DFA0028D7
:1048700056D1042004F0ECF908B900F0C7F8334B26
:1048800001221A702B6893F8700093F8713003F0CE
:104890001F0343EA4010FFF742FC2D4B00221A7021
:1048A00044B0BDE8F08102F019F82A4F20600023DF
:1048B0003C7888F8003003F0BBFF8442264C04D0DB
:1048C00003F0B6FF01233870A361A369224F0133BF
:1048D000A36103F09CFF2368E06001332360A368B9
:1048E0000133A3603379002BC3D002F00DFA002806
:1048F000BFD0BB6800933B68184A4FF4807104A88E
:1049000002F0BAFAFFF75EFE154B16491B7800223B
:104910008DF8002002A804AAFFF76FFC03A80BE0A3
:10492000FFF750FE0E4B104A1B7810498DF80070AF
:1049300004A8FFF762FC05A8FFF79BFE99E700BFFC
:10494000F4E0032040E103206CE1032048E1032070
:104950008CE00320BFE003204CE103206DD10D006B
:10496000A8E003206FD30D008AD10D0094D10D0073
:10497000BCE003202DE9F8431F48204D4068002388
:104980001A46194602F020FA02F0AEF94FF4967476
:1049900040F2E7360027FFF743FC4FF0000980465E
:1049A000FFF73EFCB0EB080061EB09018F4208BF46
:1049B000864205D302F0A8F910B902F08DF9EFE7AD
:1049C00002F0A2F948B102F09FF998B10C4A012314
:1049D000D3700C4A1370BDE8F8832B780BB1FFF746
:1049E00023FF01F07BFF084B186002F075F9013CD2
:1049F000E9D0D0E7BDE8F883A0E103208CE00320F4
:104A00006CE1032069E10320D4E5032030B585B0D3
:104A1000FFF7B0FFFFF7D6FD02F076F960B1114B5A
:104A200011491B7800228DF8002002A80F4AFFF7D9
:104A3000E4FB03A8FFF71DFE0D4D0E4C0FCD0FC478
:104A40000FCD0FC495E8070084E80700FFF774FC5A
:104A50002C23A4F120020121074801F0E2F905B05E
:104A600030BD00BFA8E0032003D20D009AD10D0095
:104A700080D00D006CE1032098E003201FB50F49A2
:104A800003F09BFC0024B0B10D4B0E4A1B780E497D
:104A90008DF8004002A8FFF7B0FB03A8FFF7E9FD7F
:104AA0000121062004F0BBF8234601220A21074811
:104AB00001F02FFE012004B010BD00BFE6D40D00B0
:104AC000A8E00320B2D10D00EFD20D00D0E003200A
:104AD00070B586B003A9006806F0A6FFB5EEC00A5F
:104AE000F1EE10FA35D4F1EE047AB4EEE70AF1EE05
:104AF00010FACCBF012500255DBBDFED187A184BFD
:104B0000184E60EE277A0124FDEEE77A1C7010EE55
:104B1000100AC6ED047A04F0DDFB134ACDE900016A
:104B20000821124802F0A8F93379A3B102F0ECF899
:104B300088B1FFF747FD0E4B0C4A1B780D498DF8E5
:104B4000005004A8FFF759FB05A8FFF792FD204687
:104B500002E0002000E0012006B070BD00007A44B1
:104B600069E103206CE10320CAD10D0089DF032035
:104B7000A8E0032040D40D0030B5224985B004469A
:104B800003F01BFC0546D8B11F4B01245C71FFF7F5
:104B900013FC1E4B1C70FFF715FD02F0B5F808B9A9
:104BA00001202CE01A4B1B491B7800228DF80020B5
:104BB00002A8194AFFF721FB03A8FFF75AFDEFE708
:104BC0001649204603F0F9FBC8B10F4B5D710F4B3E
:104BD00001241C70FFF7F0FBFFF7F4FC02F094F8DF
:104BE0000028DDD00A4B0E4A1B780A498DF8005088
:104BF00002A8FFF702FB03A8FFF73BFD204605B024
:104C000030BD00BFE6D40D006CE1032069E1032054
:104C1000A8E0032003D20D00D4D10D00EBD10D008C
:104C2000EDD10D0030B5204985B0044603F0C5FB39
:104C30000546C8B11D4B01241C711D4B1C70FFF7AC
:104C4000C1FC02F061F808B901202AE0194B1A49A9
:104C50001B7800228DF8002002A8184AFFF7CDFA31
:104C600003A8FFF706FDEFE71549204603F0A5FB73
:104C7000B8B10E4B1D710E4B01241C70FFF7A2FC46
:104C800002F042F80028DFD00A4B0E4A1B780A498E
:104C90008DF8005002A8FFF7B0FA03A8FFF7E9FC6F
:104CA000204605B030BD00BFE6D40D006CE1032006
:104CB00069E10320A8E0032003D20D0008D20D0013
:104CC000EBD10D0019D20D0070B5CCB0044603F045
:104CD0009EFD0A22054605A9206806F04BFF00F15B
:104CE0000C03DBB2182B55D844B207EE904A2E4B7A
:104CF000B8EEE70A83ED060A03F066FC2B4B0122AF
:104D00001A7003F053FC064603F081FD301A04F0DC
:104D1000CFFA23A3D3E9002304F05AFC244ACDE9B7
:104D200000010A21234802F0A7F82346224A4FF443
:104D300080710CA802F0A0F8FFF744FC01F0E4FF3A
:104D400060B11E4B1E491B7800228DF8002008A878
:104D50000CAAFFF752FA09A8FFF78BFCFFF732FC09
:104D600001F0D2FFC0B1294608A803F07DFC089BE2
:104D70000393124B12491B7800228DF8002006A8DD
:104D8000039AFFF73AFA07A8FFF773FC08A803F0A5
:104D9000A0FA01E0002000E001204CB070BD00BF8F
:104DA000000000000020AC406CE1032069E103201A
:104DB0002ED20D008DE0032038D20D00A8E0032094
:104DC000A6D30D0010B5C6B00A2203A9006806F0EC
:104DD000D1FE172803461DD8114A1062114A01243A
:104DE0004FF48071147006A80F4A02F045F8FFF7DF
:104DF000E9FB01F089FF78B10C4B0D491B780022CB
:104E00008DF8002004A806AAFFF7F7F905A8FFF718
:104E100030FC01E0002000E0204646B010BD00BF9D
:104E20006CE1032069E103204CD20D00A8E00320CF
:104E3000A6D30D0010B5C6B00A2203A9006806F07B
:104E400099FE172803461DD8114A5062114A0124C1
:104E50004FF48071147006A80F4A02F00DF8FFF7A6
:104E6000B1FB01F051FF78B10C4B0D491B780022CA
:104E70008DF8002004A806AAFFF7BFF905A8FFF7E0
:104E8000F8FB01E0002000E0204646B010BD00BF66
:104E90006CE1032069E1032060D20D00A8E003204B
:104EA000A6D30D002DE9F043414985B0044603F037
:104EB00084FA28B93F49204603F07FFA002873D0CE
:104EC0003B49204603F079FA0546B0B13A4C2379C4
:104ED0001BB101F019FF002844D1E3785BB101F068
:104EE0000BFF354B35480022DA70FFF793F94FF48A
:104EF0007A7001F0E1FF01232FE02E49204603F0F4
:104F00005CFA58B32C4C23791BB101F0FDFE00284C
:104F100038D1E37803BB284B0122DA7001F0E4FEBC
:104F2000FFF77EF9002706464EF65F284FF000098E
:104F3000FFF776F9801B61EB0701894508BF8045C3
:104F400002D301F0E1FE60B301F0DEFE01F0C6FC29
:104F50001B4B186001F0C0FE0023A371194B012008
:104F6000187021E0FFF72EFB174B18491B78002221
:104F70008DF8002002A8164AFFF73FF903A8FFF7B3
:104F800078FBAAE7FFF71EFB0F4B124A1B780F496D
:104F90008DF8005002A8FFF730F903A8FFF769FB6E
:104FA000B7E701F099FEC3E705B0BDE8F08300BFA5
:104FB000E6D40D00EBD10D006CE10320A0E103204D
:104FC000D4E5032069E10320A8E0032003D20D000B
:104FD00077D20D0081D20D0030B5164D164C174911
:104FE0002A7820788FB00E2303FB0212009203FB75
:104FF0000013134A282104A801F03EFF2B782370E8
:1050000001F082FE70B1FFF7DDFA0E4B0E491B78FE
:1050100000228DF8002002A804AAFFF7EEF803A8EA
:10502000FFF727FB03F01EFD04A903F0B8F80FB04B
:1050300030BD00BFBDE00320B4E0032014DF032037
:1050400093D20D00A8E00320A1D20D002DE9F0437A
:1050500085B0FFF7B7FA1F4B1F4A1B781F49204C3A
:10506000002502A88DF80050FFF7C7F803A8FFF746
:1050700000FB257101F048FE10B1284601F064FEE6
:10508000FFF7CEF80027064647F22F584FF00009E9
:10509000FFF7C6F8801B61EB0701894508BF804513
:1050A00005D3FFF79DF810B901F016FEF0E7FFF702
:1050B00097F863791BB90A4B9B68462B03DC0123E5
:1050C000A3710023E370074B01221A7005B0BDE8FD
:1050D000F08300BFA8E00320B2D20D00BAD20D00C9
:1050E0006CE1032069E103202DE9F043974C984ED1
:1050F0002378984D013B89B0052B00F2C881DFE889
:1051000013F04F0106004C008700D100EF00924FD2
:105110003B792BB1914B1B78022B01D0FFF75CFF41
:105120008F4B1B780BB1FFF727F98E4B1B780BB118
:10513000FFF77AFB8C4B596869B11A68521A1A60EA
:1051400000225A619A615A600123337003F066FBB2
:1051500008B9FFF70BFABB794BB101F0BFFB834BEA
:105160001B68C01A824B1B68984200F2A98103F0A9
:1051700055FB804B1B6898421CBF0523237003F02E
:105180004DFB7B6A984200F39E8103F047FB724B14
:105190001B6A9842C0F2978179E16F4B1A791F46DA
:1051A0002AB16E4B1B78032B01D0FFF715FF0C20A3
:1051B00002F00EFC704B1B6893F8E00093F8E130AE
:1051C00003F01F0343EA4010FEF79AFF664B1B688B
:1051D0000BB10523B8E0FB780BB1FFF7A1F9002173
:1051E000072003F01CFD03F012FB4FF4616390FBFA
:1051F000F3F202FB13001A1A604BB2F5616F1B68E1
:10520000A8BF4FF46162012106A803F009F93EE14D
:10521000514F3B792BB1514B1B78042B01D0FFF739
:10522000DBFE504A1378904603F0FF09002B40F054
:105230002E81FB7833B1FFF773F9474B83F8039066
:1052400001232B704A4B3A691A6003F0E0FA814659
:10525000FFF792F8494B0C221B68ADF816204FF46B
:105260006162029399FBF2F302FB1390101A9042D1
:10527000A8BF1046012701900DF1150300973A468B
:105280000DF1160106A88DF8157003F0F9F898F8DD
:1052900000302BB13A4B1F7001F020FB334B1860EC
:1052A000022351E02C4F3B792BB12C4B1B78052B63
:1052B00001D0FFF791FEFB780BB9FFF75BFB01F024
:1052C00023FD00283FD003F0A9FA7B6A984201D160
:1052D000FFF7BCFEFFF730F8FFF7E2F9062333E0F3
:1052E0001D4B1B792BB11D4B1B78062B01D0FFF7F3
:1052F00073FE244B1B784BB9022323701C4B224AAC
:105300001A6001F0EBFA194B1860C0E001F0E6FA00
:105310001E4B1B68C01A4AF6C873984240F2B78009
:1053200001F0DCFA1A4B1860FFF74CF9194B1A49D7
:105330001B7800228DF8002006A8184AFEF75DFFB2
:1053400007A8FFF796F901232370A0E0BDE0032032
:1053500048E1032069E103206CE10320B4E003206D
:10536000C4E003208CE003204CE10320F8E003209C
:10537000C8E00320C0E00320F4E00320CCE00320D9
:10538000BCE0032068E10320905F0100B8E0032047
:1053900044E10320A8E00320C8D20D00D5D00D00C1
:1053A0004A4C23792BB14A4B1B78012B01D0FFF7D4
:1053B00013FE01F093FA474B1B6803F5EA433033C1
:1053C000984264D96369032B18DCFFF7FBF801F0FE
:1053D0009BFC60B1404B41491B7800228DF80020B6
:1053E00006A83F4AFEF709FF07A8FFF742F94FF466
:1053F000FA6001F061FD03F00FF848E003F007FAEE
:10540000324B9B6AC01AB0F5E15F24D9FFF7DAF896
:1054100001F07AFC60B1304B30491B7800228DF8E6
:10542000002006A82F4AFEF7E8FE07A8FFF721F99B
:1054300000274FF4FA6001F03FFD67610124214627
:1054400006202C7003F0EBFB3B4622460A2126483F
:1054500001F05FF91BE0FFF7B5F801F055FC60B112
:105460001D4B1E491B7800228DF8002006A81F4AFC
:10547000FEF7C3FE07A8FFF7FCF84FF4FA6001F04F
:105480001BFD0023636101232B70FFF7A7F816486B
:1054900001F08AF82B782BB12C230C4A14480121F7
:1054A00000F0BFFC33782BB11C23124A1048502166
:1054B00000F0B7FC002333702B7009B0BDE8F08317
:1054C0000423237053E603233EE700BF6CE103206F
:1054D000B4E0032044E10320A8E0032067D10D00DD
:1054E000E1D20D00F5D20D00D0E003200FD30D0066
:1054F00098E003204CE1032030B52DED028BCDB0B8
:10550000054603F084F90A22044605A9286806F036
:1055100031FBC3B2022B67D840B207EE900AB8EE57
:10552000E78AB0EE480A03F06BF8354B83ED078A43
:10553000344B01221A7018EE100A03F0CBFE324AE7
:10554000CDE900014FF480710CA801F095FCFFF744
:1055500039F803F03BF938B1FFF76CF810B103F0FC
:1055600069F801E003F070F803F020F8054603F055
:105570004EF9281A03F09CFE1FA3D3E9002304F080
:1055800027F8224ACDE900010A21214801F074FCE4
:1055900001F0BAFB60B11F4B1F491B7800228DF848
:1055A000002008A80CAAFEF728FE09A8FFF761F85A
:1055B000FFF708F801F0A8FBC0B1214608A803F0E6
:1055C00053F8089B0393134B13491B7800228DF863
:1055D000002006A8039AFEF710FE07A8FFF749F877
:1055E00008A802F076FE01E0002000E001204DB0A6
:1055F000BDEC028B30BD00BF000000000020AC40BD
:105600006CE1032069E103202ED30D002ED20D00A2
:105610008DE00320A8E00320A6D30D000023022282
:1056200001F04ABB0023042201F046BB02460148B8
:1056300001F0DFBDC7710D002DE9F047ACB003F0FC
:1056400011FAAE4FAE4CDFF890834FF4165103F0D1
:10565000FDF903F007FAAB4902F0A1FD3B6893F8AE
:10566000600093F8613003F01F0343EA4010FEF737
:1056700056FD0021082003F0C1FA0021042003F0A8
:10568000BDFA0121072003F0B9FA0121052003F03A
:10569000B5FA0121062003F0B1FA03210C2003F032
:1056A000ADFA01210E2003F0A9FA3B6893F8E0005F
:1056B00093F8E13003F01F0343EA4010FEF72FFD9B
:1056C00001210B2003F09AFA3B6893F8B00093F89D
:1056D000B13003F01F03002543EA4010FEF710FD30
:1056E000FEF74AFE4FF0FF3301228749009508205C
:1056F00002F046F904A801F00FFB2B467D220CA90D
:1057000004A802F06CFE2B462A46804901950095BC
:105710000CA801F011FB7E497E48FFF77FFF7E4910
:105720007E48FFF77BFF7E497E48FFF77BFF04F151
:1057300014017D48FFF772FF7C497D48FFF76EFF3B
:105740007C497D48FFF76EFF2CAE04F108017B48D1
:10575000FFF764FFA37946F8903D02222B463146BD
:10576000774801F0A9FA04F120017648FFF756FFC7
:1057700004F124017448FFF751FF74497448FFF79E
:1057800051FF74497448FFF749FF74497448FFF7A3
:1057900049FF74497448FFF749FF74497448FFF79B
:1057A00045FF74497448FFF741FF74497448FFF797
:1057B0003DFF74497448FFF739FF74497448FFF797
:1057C00035FF74497448FFF731FF74497448FFF797
:1057D0002DFF74497448FFF729FF74497448FFF797
:1057E00025FF74497448FFF721FF74497448FFF797
:1057F0001DFF232002F0ECF84FF4FA6001F05CFB8F
:105800004FF491516F4802F04FFB6F4800F072FA6D
:10581000042303AA29466C4800F0AEFA039B022B2E
:1058200018D0694800F070FA0423684A664829468F
:1058300000F0F7FA042303AA2946634800F09CFA13
:10584000039B022B03D0012388F8003008E0FFF708
:10585000DDF805E02C23224601215B4800F08CFA9C
:105860000025FEF7E9FD2A4629463046089501F055
:105870001DF8089B142B00F069812A462946304602
:10588000089501F013F8089B8C2B00F05F81D4ED94
:10589000047AF8EEE77A17EE900A03F01BFD4C4B02
:1058A000002203F095FE4B4ACDE90001082127486C
:1058B00001F0E2FA94ED070A02F0A2FE02F086FF80
:1058C00038B1FEF7B7FE10B102F0B4FE01E002F00D
:1058D000BBFE0F4D94ED060ADFF8009102F074FE56
:1058E0001C232A465021384800F046FA2B68002B2A
:1058F00076D0E86802F036FE74E000BFF4E00320E2
:105900006CE103203FD30D00C5400D005D470D0045
:105910004CE103204CD30D0054E1032058D30D007B
:10592000FCE0032063D30D006AD30D005CE103208B
:1059300075D30D0084DF032081D30D0089D30D00C2
:1059400094D30D0029D40D00A1D30D0089DF0320CD
:1059500040D40D0060E10320ABD30D008DE00320A7
:10596000B2D30D003D410D00BDD30D009D410D0092
:10597000C7D30D007D4A0D00D3D30D0059410D0052
:10598000DDD30D00A54E0D00E5D30D00794B0D00C4
:10599000F2D30D00254C0D00FDD30D00C94C0D00B8
:1059A0000AD40D00F9540D0017D40D00C54D0D009B
:1059B00025D40D00354E0D0032D40D00D14A0D0016
:1059C0003CD40D00BEE0032098E00320ACD00D00D5
:1059D00000408F40CAD10D00BDE00320C0E003208D
:1059E00002F01CFFC9F800005F4800F0C5FC03F09E
:1059F00039F881465C4800F0AFFC0146304602F0C1
:105A000033FE0899484602F0CAFB304602F061FCBA
:105A100003F028F8814602F0C9FD0146304602F045
:105A200023FE0899484602F0BAFB304602F051FCCA
:105A3000FEF7C2FC042003F00BF908B9FEF7E6FFFD
:105A400002F000FF8246E868DFF8509102F092FD14
:105A500082453FD003F006F8444902F0A0FB03F072
:105A600001F8434902F088FB02F0FCFF054602F012
:105A7000E9FE0A220146284602F0F6FB02F0F2FF98
:105A80003C4902F079FB02F0EDFF0546D9F80C0025
:105A900002F070FD0A220146284602F0E5FB02F002
:105AA000E1FF354902F068FB02F0DCFF0A22D9F879
:105AB0000C1002F0ADFB637963B1304B9B794BB9AD
:105AC0002F49304602F04CFC3046FFF7EBF93046E8
:105AD00002F0FFFB02F0A2FE636A284D984217DC39
:105AE00002F09CFE2B6A984212DB002300930122F5
:105AF0004FF0FF3323490C2001F042FFEB7813B144
:105B000001F002F960B3FEF717FC1F4B1F4A1A6041
:105B10003B6893F8B00093F8B13003F01F0343EAF9
:105B20004010FEF7FCFA98F8003013B9184B022227
:105B30001A7002F097FF174902F031FB012304A805
:105B4000237102F0C6FB2CB0BDE8F08763690B4AF5
:105B500011480133636101212C2300F062F996E6BC
:105B6000FEF708FFCFE700BFD0E0032049D40D00C7
:105B700065D40D0073D40D008AD40D006CE10320B0
:105B8000E6D40D00B9400D00C8E00320905F01008D
:105B9000BDE0032094D40D0098E003204CE10320E5
:105BA0002F4B70B500241C602E4B2F4E01251D700D
:105BB00000F0BCFE2D4B186002F0E4FF23462246A5
:105BC00042F6702102F0E6FF02F0DCFF2946234690
:105BD000224602F0E7FF264B4FF6FF721C705C80F6
:105BE0009A80022001F00AF82146284601F01EF8AA
:105BF0002946042000F04AFE1E4D2146304601F0A1
:105C0000E5FD30461C4E1D492A4603F0ADF82146FD
:105C1000304602F0DEF82A461949304603F0A4F86F
:105C200003F040F8174E0146304600F0E3FA2A46EA
:105C30001549304603F098F803F034F8134E234624
:105C400001464FF40052304600F04AF8104B3360E2
:105C50002A4630460F49BDE8704003F085B800BFC2
:105C6000CCE00320A8E00320ACE00320F4E0032014
:105C7000ECE0032088E00320BEE00320EB770D007A
:105C8000F17D0D00D0E00320695F0D0098E0032056
:105C900044D00D0075410D00704710B51021044629
:105CA00003F067F8204610BD0368C9B29B68184727
:105CB0000EB400B58CB00DAA202352F8041B039239
:105CC0008DE8060004930168002304AA1E200593B2
:105CD00000F084FF0CB05DF804EB03B070470000E7
:105CE00030B5034D056041608260C36030BD00BFC8
:105CF0006CD50D00406801F00DBE10B5044600687B
:105D000001F034FE204610BD2DE9F0418AB007466F
:105D10004068019001F021FE1E22002102A8BE6809
:105D200004F073F80025DEB13B681E2EB04628BF94
:105D30004FF01E08DC6802AA434629463846A047B1
:105D4000044648B92A460A490A48FFF7B1FF01A8A4
:105D5000FFF7D3FF204607E0C8EB06064544E2E71D
:105D600001A8FFF7CAFF01200AB0BDE8F08100BF1B
:105D7000E8D40D0068E203202DE9F34704464068AB
:105D800001900E461746984601F0E7FDB8F1000F66
:105D900001D101243EE0E168606841F0500101F06A
:105DA000D1FD310A6068FFF77FFF31466068FFF779
:105DB0007BFF0021606801F0C8FD08B1002429E0E4
:105DC000B8F1200FE1686068C14628BF4FF0200994
:105DD00001234A4641F0500101F0ABFD02F062FFA1
:105DE00003681B6998478145E8DC3D46C7EB060A16
:105DF00002F058FF03685B69984705F8010BEA1B3E
:105E0000C5EB0803914505EB0A063B44F0D89846DC
:105E10002F46BBE701A8FFF770FF204602B0BDE8A0
:105E2000F0872DE9F3470446406801900D469046FF
:105E30001F4601F092FD4FB3E168606841F05001E8
:105E400001F080FD290A6068FFF72EFF294660688F
:105E5000FFF72AFF08F11E094646C8EB050A6068ED
:105E600016F8011B03689B689847B14506EB0A05C5
:105E7000B04607F1FF3701D0002FF0D10121606853
:105E800001F063FD0028D6D0002400E0012401A821
:105E9000FFF733FF204602B0BDE8F0872DE9F0435D
:105EA0008BB00E4615468046406801901C4601F0B6
:105EB00054FDAE4223D2264425440CB901243FE0D0
:105EC0001E2C2746D8F8003028BF1E27F61BD3F813
:105ED000089002AA3B4631464046ED1BC84708B928
:105EE00000242DE0D8F8003002AAD3F80C902946FF
:105EF0003B464046C8470028F2D0E41BDDE7DDD929
:105F0000002CDBD01E2CD8F80030274628BF1E27D7
:105F1000D3F8089002AA3B4631464046C8470028BD
:105F2000DED0D8F8003002AAD3F80C9029463B46C0
:105F30004046C8470028D3D03E443D44E41BDFE739
:105F400001A8FFF7DAFE20460BB0BDE8F08300F0B1
:105F5000EDBC402070470020704780207047FF2034
:105F60007047704770477047704710B5142104465A
:105F700002F0FFFE204610BD10B50821044602F0D5
:105F8000F8FE204610BD10B50821044602F0F1FECF
:105F9000204610BD10B51C21044602F0EAFE204642
:105FA00010BD2DE9FF410368DB68054698471022C4
:105FB0000146684603F029FF2B6828469B689847EE
:105FC000002407462046BC420ED23E1B102E2B68F2
:105FD00028BF1026D3F818806A4633462146284643
:105FE000C04708B13444EEE704B0BDE8F0810023B7
:105FF00001228372C272027342738373C373037488
:1060000043747047012208B5427102228271032253
:10601000064BC2710422036002720023072203713F
:1060200042724374FFF7E3FF08BD00BFCCD60D00FA
:1060300003090A2200F00F0002FB0300704708B5B5
:10604000807AFFF7F5FF00F5FA6008BDC07A00F02E
:106050001F00FFF7EDBF007B00F03F00FFF7E8BF38
:1060600008B5817B4A060DD501F01F00FFF7E0FF60
:106070008B0603D50C280BD00C3008BD0C2808BFAC
:10608000002008BD01F03F00BDE80840FFF7D0BF89
:1060900008BDC07B00F07F00FFF7CABF007C00F0A6
:1060A0007F00FFF7C5BF10B58AB024220021044647
:1060B00001A803F0AAFE2046FFF7C1FFA0F26C7012
:1060C00006902046FFF7C2FF013805902046FFF7F3
:1060D000C2FF04902046FFF7C3FF03902046FFF75E
:1060E000D8FF02902046FFF7D9FF019001A803F0E6
:1060F00071FF0AB010BD0A2290FBF2F393FBF2F19C
:1061000002FB113102FB130343EA0110C0B27047D6
:10611000642310B5044691FBF3F000FB1310FFF766
:10612000EAFFA07210BD10B504460846FFF7E3FF72
:10613000E07210BD10B504460846FFF7DCFF237B74
:1061400023F03F031843207310BD10B50446481CCC
:10615000FFF7D1FF637B23F007031843607310BD83
:1061600010B504460846FFF7C6FFA07310BD10B572
:1061700004460846FFF7BFFFE07310BD10B50446A4
:106180000846FFF7B8FF237C23F07F0318432074F1
:1061900010BD37B5044602A840F8041D03F084FC86
:1061A000054641692046FFF7B3FF296920460131C2
:1061B000FFF7B9FFE9682046FFF7BCFFA969204651
:1061C000FFF7C3FFA9682046FFF7CAFF69682046AA
:1061D000FFF7CDFF29683B29A8BF3B212046FFF7E9
:1061E000CDFF03B030BD10B50446FFF7D2FF637A90
:1061F000637410BD084A02600022027242720122DA
:10620000827203460322C272044A41601861C2606E
:10621000034A986142617047DCD60D00ACD50D0091
:1062200088D50D002DE9F84F05460F4691469A4650
:1062300000240A9B9C4230D23946686801F07EFBFC
:1062400009EB04016868FFF72FFD0021686801F081
:106250007CFB0646D8B90A9B68681A1B202A28BF0F
:1062600020220123D2B2394601F05AFB0AEB04087E
:1062700083464646C8EB06039B4506D96868036813
:106280005B69984706F8010BF4E75C44D1E70246E6
:1062900004490548FFF70CFD00E000263046BDE844
:1062A000F88F00BF26D60D0098E103201FB501230B
:1062B00000930A4603AB6F21FFF7B4FF10B99DF8B6
:1062C0000C0000E0002005B05DF804FB08B50321D8
:1062D000FFF7ECFFC0F3401008BD7FB51E46002B52
:1062E0000CBF072306230093144602AB0A466F2116
:1062F000FFF798FF0546D8B99DF8083023749DF83C
:106300000930E3739DF80A30A3739DF80B30637373
:106310009DF80C3023739DF80D30E3721EB99DF883
:106320000E30A37204E002F0A5FAFFF7E4FEA072BB
:10633000284604B070BD38B500230C460A461946FD
:106340000546FFF7CAFF28B9A37A1BB12846FFF715
:10635000BDFF00B9002038BD10B586B0044601A8C5
:10636000FFF750FE01A92046FFF7E5FF10B101A895
:10637000FFF799FE06B010BD30B5044685B0406801
:1063800001F0C8FA02F022FAC0B9E37A9B0715D5EA
:106390002046FFF7E1FF054680B102F05BF9094BAB
:1063A00009491B682A46684602F0DEF90748009A48
:1063B0000749FFF77DFC684601F08BFF012323723C
:1063C00005B030BD98DF032084E4032098E103206A
:1063D00040D60D002DE9F34101EB03081E4603688A
:1063E0009B6804460D461746984780450AD8009694
:1063F0003B46EAB257216068FFF714FFB0FA80F01D
:10640000400900E0002002B0BDE8F0812DE9F34131
:1064100001EB03081E4603689B6805460C461746B9
:10642000984780450CD804F1200200963B46D2B232
:106430006F216868FFF7F6FEB0FA80F0400900E0CF
:10644000002002B0BDE8F0812DE9F84F07468946EB
:1064500092469B4600240A9B9C4228D24946786873
:1064600001F06CFA0AEB04017868FFF71DFC0A9B47
:106470001E1B1F2E0BEB040828BF1F2645467868FD
:1064800015F8011B026892689047C8EB0502B242FA
:10649000F5D30121786801F058FA054628B1024683
:1064A00005490648FFF704FC02E03444D3E7002521
:1064B0002846BDE8F88F00BF55D60D0098E10320AF
:1064C0001FB5137C8DF80830D37B8DF80930937B92
:1064D0008DF80A30537B8DF80B30137B8DF80C3020
:1064E000D37A8DF80D30937A8DF80E300723009310
:1064F0000A4602AB6F21FFF7A7FF05B05DF804FB6A
:1065000010B586B0044601A8FFF77CFD01A8FFF78F
:1065100040FE9DF81430A27A63F07F038DF81430AA
:106520009DF8113012B143F0080301E023F0080395
:1065300001AA002120468DF81130FFF7C1FFB0FA03
:1065400080F0400906B010BD7FB5064602F03EF966
:106550000446B8B102F05BF9054601463046FFF744
:10656000CFFF0C4B0C491B682A460446684602F0D4
:10657000FBF8009A09490A48FFF79AFB684601F0C0
:10658000A8FE03E007490648FFF792FB204604B047
:1065900070BD00BF98DF032084E4032070D60D0097
:1065A00098E1032086D60D0037B5457A04468DB9AB
:1065B00002F00CF970B102A8294640F8045D00F021
:1065C000D3FB38B1E37ADB0702D52046FFF7BCFFE7
:1065D0000123637203B030BD1FB504AB03F8042D73
:1065E000012200920A466F21FFF72EFF05B05DF8E9
:1065F00004FBF8B5144605460E461F46FFF756FE47
:10660000204040EA070231462846BDE8F840FFF73F
:10661000E3BF13B11346FF2201E0D243D2B2FFF72A
:10662000E8BF00294FF000034FF0080214BF142107
:106630000D21FFF7EEBF2DE9F34101EB03081E46E4
:1066400003689B6805460C461746984780450CD85A
:1066500004F1200200963B46D2B26F216868FFF732
:10666000F3FEB0FA80F0400900E0002002B0BDE87F
:10667000F081F0B5012B85B006460C4617461D4645
:1066800001D9002043E0FFF721FE0028F9D0294678
:106690003046FFF7C6FF237C227B8DF80830E37B72
:1066A0008DF809308DF80C20A37BE27A8DF80A3042
:1066B0008DF80D20637B17B163F07F0301E003F0D9
:1066C0007F038DF80B30637C9DF80B201B0103F0DA
:1066D00070031343002D8DF80B304FF00603009329
:1066E00008BF0A2202AB18BF11226F213046FFF704
:1066F000ABFE044640B9002D0CBF10232023FF221F
:1067000007213046FFF775FFB4FA84F0400905B061
:10671000F0BDF0B5012B87B006460C4617461D4666
:1067200001D9002010E0FFF717FE0028F9D0011969
:1067300001A8FFF767FC01A8FFF755FD2B463A4675
:1067400001A93046FFF795FF07B0F0BD38B5054603
:1067500032245721686801F0F1F80121686801F0DE
:10676000F4F808B1013CF4D138BD00002DE9F04146
:106770000546D7181446C2EB0108BC421ED057216B
:10678000686801F0DBF808EB04016868FFF78CFA31
:10679000686814F8011B03689B68984701216868C2
:1067A00001F0D3F8064628B1024606490648FFF72D
:1067B0007FFA04E02846FFF7C9FFDEE700263046EF
:1067C000BDE8F0819BD60D0098E103202DE9F04152
:1067D00001EB03081E4603689B6804460D461746F6
:1067E000984780450AD833463A46E9B26068FFF7D1
:1067F000BDFFB0FA80F04009BDE8F0810020BDE89F
:10680000F081000008B500F091F8024B024A1A60CE
:1068100008BD00BF98E10320BCD60D0008B5024BAF
:106820001B685B6C019308BD7402030008B5024B42
:106830001B689B6C019308BD7402030008B5024BF2
:106840001B689B68019308BD4802030008B5024B12
:106850001B681B69019308BD4802030008B5024B81
:106860001B685B69019308BD4802030008B5024B31
:106870001B681B6B019308BD4802030008B5024B5F
:106880001B685B6C019308BD4802030008B5024B0E
:106890001B685B6E019308BD3402030008B5024B10
:1068A0001B689B6E019308BD3402030008B5024BC0
:1068B0001B68DB6E019308BD3402030008B5024B70
:1068C0001B685B68019308BD1802030008B5024B02
:1068D0001B68DB68019308BD1802030008B5024B72
:1068E0001B685B69019308BD1802030008B5024BE1
:1068F0001B68DB69019308BD1802030008B5024B51
:106900001B681B6A019308BD1802030008B5024BFF
:106910001B689B6D019308BD1802030008B5024B6C
:106920001B68DB6D019308BD1802030008B5024B1C
:106930001B681B68019308BD2C02030008B5024BBD
:106940001B685B68019308BD2C02030008B5024B6D
:106950001B689B68019308BD2C02030008B5024B1D
:106960001B68DB68019308BD2C02030008B5024BCD
:106970001B681B69019308BD2C02030008B5024B7C
:106980001B685B69019308BD2C02030008B5024B2C
:106990001B689B69019308BD2C02030008B5024BDC
:1069A0001B68DB69019308BD2C02030008B5024B8C
:1069B0001B681B6B019308BD2C02030008B5024B3A
:1069C0001B68DB68019308BD2802030008B5024B71
:1069D0001B685B69019308BD2802030008B5024BE0
:1069E0001B689B69019308BD2802030008B5024B90
:1069F0001B68DB69019308BD2802030008B5024B40
:106A00001B681B6A019308BD2802030008B5024BEE
:106A10001B685B6A019308BD2802030008B5024B9E
:106A20001B689B6A019308BD2802030008B5024B4E
:106A30001B68DB6A019308BD2802030008B5024BFE
:106A40001B681B6B019308BD2802030008B5024BAD
:106A50001B685B6B019308BD2802030008B5024B5D
:106A60001B681B6C019308BD2802030008B5024B8C
:106A70001B689B6C019308BD2802030008B5024BFC
:106A80001B68DB6C019308BD2802030008B5024BAC
:106A90001B685B69019308BD6402030008B5024BE3
:106AA0001B689B68019308BD6802030008B5024B90
:106AB0001B68DB68019308BD6802030008B5024B40
:106AC0001B68DB69019308BD3002030008B5024B67
:106AD0001B681B6A019308BD3002030008B5024B16
:106AE0001B681B68019308BD3C02030008B5024BFC
:106AF0001B68DB68019308BD3C02030008B5024B2C
:106B00001B681B69019308BD3C02030008B5024BDA
:106B10001B685B69019308BD3C02030008B5024B8A
:106B20001B689B69019308BD3C02030008B5024B3A
:106B30001B68DB69019308BD3C02030008B5024BEA
:106B40001B681B6A019308BD3C02030008B5024B99
:106B50001B689B6A019308BD3C02030008B5024B09
:106B60001B681B68019308BD4C02030008B5024B6B
:106B70001B685B68019308BD4C02030008B5024B1B
:106B80001B681B69019308BD4C02030008B5024B4A
:106B90001B685B69019308BD4C02030008B5024BFA
:106BA0001B689B69019308BD4C02030008B5024BAA
:106BB0001B68DB69019308BD4C02030008B5024B5A
:106BC0001B681B6A019308BD4C02030008B5024B09
:106BD0001B685B6B019308BD6002030008B5024BA4
:106BE0001B685B6D019308BD6002030008B5024B92
:106BF0001B681B68019308BD2002030008B5024B07
:106C00001B685B68019308BD2002030008B5024BB6
:106C10001B685B69019308BD2002030008B5024BA5
:106C20001B689B69019308BD2002030008B5024B55
:106C30001B68DB6A019308BD2002030008B5024B04
:106C40001B68DB6C019308BD2002030008B5024BF2
:106C50001B685B6D019308BD2002030008B5024B61
:106C60001B689B6D019308BD2002030008B5024B11
:106C70001B68DB6D019308BD2002030008B5034BC0
:106C80001B68D3F88830019308BD00002002030080
:106C900008B5034B1B68D3F89430019308BD00007E
:106CA0002002030008B5034B1B68D3F8A030019302
:106CB00008BD00002002030008B5024B1B681B68DA
:106CC000019308BD4402030008B5024B1B685B68D2
:106CD000019308BD4402030008B5024B1B689B6882
:106CE000019308BD4402030008B5024B1B68DB6832
:106CF000019308BD4402030008B5024B1B681B69E1
:106D0000019308BD4402030008B5024B1B685B6990
:106D1000019308BD4402030008B5024B1B68DB6900
:106D2000019308BD4402030008B5024B1B681B6AAF
:106D3000019308BD4402030008B5024B1B685B6A5F
:106D4000019308BD4402030008B5024B1B68DB6ACF
:106D5000019308BD4402030008B5024B1B681B6B7E
:106D6000019308BD4402030008B5024B1B685B6B2E
:106D7000019308BD4402030008B5024B1B68DB6B9E
:106D8000019308BD4402030008B5024B1B685B6811
:106D9000019308BD4002030008B5024B1B689B68C5
:106DA000019308BD4002030008B5024B1B68DB6875
:106DB000019308BD4002030008B5024B1B681B6924
:106DC000019308BD4002030008B5024B1B685B69D4
:106DD000019308BD4002030008B5024B1B689B6984
:106DE000019308BD4002030008B5024B1B68DB6934
:106DF000019308BD4002030008B5024B1B681B6AE3
:106E0000019308BD4002030008B5024B1B681B6BD1
:106E1000019308BD4002030008B5024B1B685B6B81
:106E2000019308BD4002030008B5024B1B681B68B4
:106E3000019308BD1C02030008B5024B1B685B6888
:106E4000019308BD1C02030008B5024B1B689B6838
:106E5000019308BD1C02030008B5024B1B681B69A7
:106E6000019308BD1C02030008B5024B1B689B6917
:106E7000019308BD1C02030008B5024B1B68DB69C7
:106E8000019308BD1C02030008B5024B1B681B6A76
:106E9000019308BD1C02030008B5024B1B68DB6AA6
:106EA000019308BD1C02030008B5024B1B681B6B55
:106EB000019308BD1C0203000021FFF7A7BE10B517
:106EC000836804460BB901F056FFC3689847A3686E
:106ED0001BB1032221462046984720461021BDE8D9
:106EE000104001F046BF0B68036013B15A680132CD
:106EF0005A607047024800230360FFF7BFBC00BF21
:106F00009CE10320002211464068FFF755BF002294
:106F100011464068FFF770BF002211464068FFF736
:106F20007BBF00224068FFF76FBF002281F00101A4
:106F30004068FFF759BF00231A4619464068FFF71B
:106F400043BF002211464068FFF726BF00220221FE
:106F50004068FFF729BF00231A464068FFF714BFB7
:106F6000F0B51B4B036000250F462833182689B067
:106F700043608560C560324629460446103002F001
:106F800044FF2A4629467868FFF716FF08B9A06033
:106F90001BE02946324602A80095019502F035FF14
:106FA00002A96846ADF80860FFF738FC10B101236C
:106FB000A3600AE0009B019AA360E2600BB9022380
:106FC000A36002A9204600F0A1F8204609B0F0BD58
:106FD00020D70D0038B5084C28252A460021204628
:106FE00002F013FF4FF0FF336360044B258004224F
:106FF0005A60034A1A6038BDA8E10320A0E10320CB
:10700000ECD60D007047007D70470000037D1BB17A
:107010008369B3F1004F02D19FED050A704707EE77
:10702000903A9FED047AF8EEE77A87EE870A704788
:10703000000000000000C842037D1BB1036AB3F1E9
:10704000004F02D19FED050A704707EE903A9FED81
:10705000047AF8EEE77A87EE870A704700000000AE
:107060000000C84270B50D4606460A2281682846CF
:1070700001F0FAF82C210446284601F081F80A2292
:107080000444F168284601F0EFF8204470BDA0F1F7
:107090000400FFF7E7BF10B52821044601F069FEA0
:1070A000204610BD037D7BB1436A002B0CDB07EE4D
:1070B000903ADFED076A9FED070AB8EEE77AC7EE70
:1070C000267A27EE800A7047BFEE000A704700BF9D
:1070D00000FF7F470000C842037D7BB1C369002BDE
:1070E0000CDB07EE903ADFED076A9FED070AB8EE7A
:1070F000E77AC7EE267A27EE800A7047BFEE000ACD
:10710000704700BF00FF7F470000C84230B50D4602
:1071100000F110040FCD0FC495E8030084E80300CC
:10712000012030BD70470020704710B51021044683
:1071300001F01FFE204610BD08B508B1FFF7F5FFAE
:1071400008BD10B58368044613B103220146984771
:10715000204610BD0022026010B54FF69C7282805E
:10716000B1F9044084808A8002680C6804600A6077
:1071700010BD10B504460068FFF75EFE204610BD46
:1071800038B5C468F4B12378022B03D104F10C00A4
:10719000FFF7EFFF656835B12846FFF7D2FF1021F2
:1071A000284601F0E6FDA56835B12846FFF7C9FF7E
:1071B0001021284601F0DDFD20461421BDE83840AD
:1071C00001F0D7BD38BD10B588B00446684601F05F
:1071D000C7F8694604A801F0E5F804A8A0470446EA
:1071E00004A801F076F8684601F073F8204608B06C
:1071F00010BDF0B5102485B007460E461546002197
:107200002246684602F001FE002269461046ADF8AB
:107210000040029703960195FFF756FD05B0F0BDBB
:1072200013B5044691E8050000234B600B60206015
:10723000626001A801930093FDF71BFA204602B09B
:1072400010BDF7B50C4602AD54F8043B45F8083DB7
:1072500006460F4601A82146FFF745FE294630465F
:10726000FFF7DEFF01A8FDF704FA2046FDF701FA5B
:107270003846082101F07DFD304603B0F0BD13B55E
:107280000B46044603C88DE8030093E8030084E836
:1072900003009DE8030083E8030002B010BD000076
:1072A00038B500230446036010200D46FCF7F5FEB8
:1072B00028B1012343608360024B0360C5602060F6
:1072C000204638BD54D70D00826810B50AB901F0C8
:1072D00052FDC368BDE81040184708B5006800F1CA
:1072E0001001FFF7F1FF08BD826810B50AB901F07F
:1072F00042FDC368BDE81040184708B5006800F1BA
:107300001001FFF7F1FF08BD38B5002383608B68DB
:1073100004460D462BB102229847EB68E360AB6848
:10732000A360204638BD0000F0B589B00468684607
:10733000FFF710FF00238DF808304FF00202D4E869
:107340004F3F002B03D1C4E8412F0029F7D102D0D1
:107350008DF8083063E014F10C0503D06946284627
:10736000FFF7F8FEBFF35F8F01236370002004F185
:107370000803BFF35F8F53E8006F43E80002002A61
:10738000F9D1BFF35F8F002E49D0FFF757FC20B132
:1073900029463046FFF798FF3AE0314602A8FFF74A
:1073A000B3FFE068B4F9105008B102F0BFFF0690D7
:1073B0001020ADF81C50FCF770FE0546E8B1002720
:1073C00087601820FCF769FE044688B10146876093
:1073D00002A8FFF754FF049BA268A360059B0492D8
:1073E00006A9E268E36004F110000592FFF7B2FE1F
:1073F0000D4BEB600D4B2C60AB6006A8FFF7B9FEA0
:1074000002A8FFF79EFE002229460948FFF71EFC4E
:107410003046FFF796FE1021304601F0AAFC684680
:10742000FFF7A7FE09B0F0BDDB720D0051750D002E
:10743000BF6E0D002DE9F04F8BB006460F4690460B
:1074400099469DF850A0FFF75FFC07AD834630BB1F
:107450004FF62E73059005A92846ADF81830FFF7B2
:1074600079FE1420FCF719FE044658B1022303707C
:1074700001234370C0F804B0C0F808B029460C30AE
:10748000FFF768FE3046214640F8044BFFF708FF3F
:107490002846FFF76EFE05A8FFF76BFE52E00024BA
:1074A0000C2314206C60AC600793FCF7F6FD0146DA
:1074B00018B1047044704460846004A80391FFF71D
:1074C000EFFE224B08930820FCF7E7FD044628B1A5
:1074D000039B40F8043B04A9FFF705FD00955FFA04
:1074E0008AF34A46414638460994FFF71DFC20B905
:1074F000039B5B7803F0FF0283B1039B059304A910
:1075000006A8FFF7F0FC05A93046FFF789FE06A89C
:10751000FDF7AFF804A8FDF7ACF813E04FF69C7345
:1075200005A903A80592ADF81830FFF7FDFE05A8E0
:10753000FFF71FFE05A80999FFF783FE06A8FDF7D0
:1075400098F8DAE730460BB0BDE8F08FC1760D0051
:10755000022AF8B5044606D0032A17D0012A22D100
:107560000B6803601FE018200E68FCF796FD0546C7
:1075700050B13146FFF7C8FE3069B6F9147008B152
:1075800002F0D4FE2861AF8225600CE0046854B19B
:1075900004F11000FFF7EDFD2046FFF7D2FD1821A2
:1075A000204601F0E6FB0020F8BD38B500238360DB
:1075B0008B6804460D462BB102229847EB68E360C6
:1075C000AB68A360204638BD022A70B5044606D0D9
:1075D000032A11D0012A18D10B68036015E014208A
:1075E0000E68FCF75AFD054620B13146FFF7DDFF76
:1075F000337C2B74256008E0046834B12046FFF723
:10760000A0FD1421204601F0B4FB002070BD000055
:10761000F0B5002387B00C46BFF35F8F50E8006FD2
:1076200040E80032002AF9D1BFF35F8F002E3FD02F
:107630001846FFF703FB074620B121463046FFF707
:1076400053FE2EE0314601A8FFF7AFFF23788DF8F7
:1076500014301020FCF721FD0546D0B187601420BE
:10766000FCF71BFD044678B18760014601A8FFF7CF
:1076700006FE039BA268A360049B0392E268E3609A
:107680009DF81430049223740A4BEB600A4B2C6073
:10769000AB6001A8FFF755FD002229460748FFF718
:1076A000D5FA3046FFF74DFD1021304601F061FB61
:1076B00007B0F0BDFB720D00C9750D00BF6E0D0067
:1076C00030B585B004460D4668461146FFF7B9FD52
:1076D0007CB124B228460DB102F028FE029002A926
:1076E0006846ADF80C40FFF71FFE02A8FFF741FD0A
:1076F0001DE000988DF808404FF00102D0E84F3FA0
:10770000A34203D1C0E8412F0029F7D102D08DF860
:1077100008300CE010F10C014FF0010318BF0373A7
:10772000BFF35F8F043000F8033CFFF771FF01A83F
:10773000FCF79FFF05B030BD002211464068FFF7FF
:107740005BBB002211464068FFF766BB0022406821
:10775000FFF75ABB002281F001014068FFF744BBEC
:1077600000231A4619464068FFF736BB00231A4625
:1077700019464068FFF728BB002211464068FFF712
:107780001BBB002211464068FFF706BB0022022106
:107790004068FFF709BB00231A464068FFF7F4BAB8
:1077A000024B03225A60024A1A607047D0E103205C
:1077B00070D70D00006800F0D0B810B50446016025
:1077C00002710AB1FFF7F6FF204610BD38B5044636
:1077D0000D4601F087FA2A4601462046FFF7EDFFE5
:1077E000204638BD006800F0C1B810B503790446E2
:1077F0000BB1FFF7F7FF204610BDF8B5044616465B
:107800001D460F46FFF7D6FF2068362100F09AF894
:107810002068036839469B6898470121206800F07A
:1078200094F8022236210123206800F082F82068B3
:1078300003685B6998473070206803685B69984704
:1078400028702046BDE8F840FFF7CCBF07B502AB73
:10785000002203F8012D8DF8062004210DF1060207
:10786000FFF7CBFF9DF8070001F022FD0022094B36
:1078700001F084FD02F07AF89DF8063000EE103A2F
:1078800007EE900AB8EEC00A37EE800A03B05DF842
:1078900004FB00BF0000703F7047F8B50646154670
:1078A0000C468F18BC4206D0336814F8011B9B6845
:1078B00030469847F6E72846F8BD0022007CFFF7DF
:1078C0009DB80021007CFFF7A1B80021007CFFF7E4
:1078D000A5B80021007CFFF7A9B80021007CFFF7C4
:1078E000ADB810B51421044601F043FA204610BD8E
:1078F00010B504464FF47A730846A3600021044B88
:10790000207461602360FFF7A9F8204610BD00BF16
:10791000A4D70D0000231A461946007CFFF74EB885
:1079200013B50024007C0094FFF750F8C0B202B0F9
:1079300010BDDBB2D2B2C9B2FFF7F2BF0022007CA9
:10794000FFF74CB8C9B2FFF7F9BF0022007CFFF780
:107950004DB80021007CFFF779B808B50021007C04
:10796000FFF784F8B0FA80F0400908BD08B500219F
:10797000007CFFF783F8B0FA80F0400908BD0047AB
:10798000F0B585B01C460E4617460546FFF706F8CB
:10799000002084424FF0040303908DF80C30A5BF03
:1079A0009DF828308DF80E30034603AB0093324625
:1079B0003B460649A8BF8DF80D402846FEF7E6FF76
:1079C000B0FA80F0400905B0F0BD00BF7F790D002E
:1079D000F8B50646FEF7E2FF074668B9084D55F8C8
:1079E00026405CB12046FFF7ACFB1021204601F099
:1079F000C0F945F8267001E00020F8BD0120F8BD6F
:107A0000D8E10320704710B51821044601F0B1F900
:107A1000204610BDF0B5037D062B8DB00E4600F15B
:107A200004074FF0000402D000F1080518E00CAD87
:107A3000394605F8304D2F232A460A20FFF726F84D
:107A4000284603F0A3F933680246DB68294630462E
:107A500098470FE024B12E21304600F091FB0444FA
:107A600015F8011D0A22304600F0D0FBBD42044447
:107A7000F0D120460DB0F0BD10B5054B04461122E3
:107A800040F8043B002102F0C0F9204610BD00BFC1
:107A9000CCD70D000346074A10B543F8042B01F17B
:107AA000100251F8044B43F8044B9142F9D10A7883
:107AB0001A7010BDCCD70D0010B59DF8084044EAEF
:107AC000032343EA024242EA016104234160037551
:107AD00010BD37B50D788B784A78C9780091294662
:107AE000FFF7EAFF03B030BD014B024A1A6070474E
:107AF00068E2032048D80D00002211464068FFF7D5
:107B00007BB9002211464068FFF786B90022406821
:107B1000FFF77AB9002281F001014068FFF764B9EC
:107B200000231A4601214068FFF756B900231A4680
:107B300019464068FFF748B9002211464068FFF730
:107B40003BB9002211464068FFF726B90022022106
:107B50004068FFF729B900231A464068FFF714B9B7
:107B600038B5054688B104684CB1A3681BB103223F
:107B70002146204698471021204601F0FAF8284671
:107B80001421BDE8384001F0F4B838BD10B10368E5
:107B90005B681847704710B503680446BBB1586866
:107BA000FEF74CFE78B923685A7C12B95868FEF784
:107BB0004DFE23685868FEF751FE206800232360BD
:107BC00028B1FFF7CDFF206808B1FFF7C9FF2046B5
:107BD00010BD000038B50C4B03600446D0F8CC0152
:107BE00008B1FCF75EFAD4F8C45135B12846FFF766
:107BF000D2FF0421284601F0BCF8A06808B1FFF7C5
:107C0000C5FF204638BD00BFB4D80D0038B50E4CB6
:107C10000E4B23600025022304F5E4706360A56029
:107C2000C4F8C451C4F8C851FEF728FE084BC4F884
:107C3000CC5184F8D05123602046064A0649BDE85D
:107C4000384001F091B800BF6CE20320E8D80D0085
:107C5000B4D80D0088E00320D57B0D0000231A4620
:107C60004068FFF791B8002202214068FFF79CB8F6
:107C7000002211464068FFF78FB800221146406885
:107C8000FFF79AB800231A4619464068FFF79CB8D8
:107C900000231A4619464068FFF79EB8002281F07B
:107CA00001014068FFF7A0B800224068FFF7ACB8B8
:107CB000002211464068FFF7AFB800221146406825
:107CC000FFF79AB82DE9F043002495B016460D460B
:107CD0000746FFF7D1FE214620220CA8009402F0AF
:107CE00094F840230C9321466B460CAA3046FEF7CD
:107CF000DDFE0446002844D1024601216868FFF7F2
:107D00005BF80221804622466868FFF755F8009E1E
:107D100081462146002E34D0002932D17368022BCF
:107D200002D00A2B09D02AE0B8F1000F27D07169E0
:107D300038460431FFF7CDFE20E0B9F1000F1ED028
:107D40007469112201A802F060F806238DF814303E
:107D500001AD04F108031834186859682A4603C2B3
:107D60000833A3421546F7D101A906A807ADFFF7CE
:107D700091FE0FCD3C1D0FC42B6823700121F669C5
:107D8000C8E70098FEF78AFE384615B0BDE8F083D4
:107D9000024B034A1A6000225A60704740E40320F5
:107DA000E8D80D0008B500F09DFFFFF7D2FD18B927
:107DB00000F098FFFFF7AEFD00F094FFBDE808402B
:107DC000FFF7C7BD08B500F08DFFBDE80840FFF71D
:107DD000C4BD10B50446017009B1FFF7F3FF20469A
:107DE00010BD08B500F07EFFBDE80840FFF7BEBD3E
:107DF00010B5037804460BB1FFF7F3FF204610BD22
:107E000010B504460068FFF7ECFF204610BD37B5FB
:107E100002AC0D4644F8040DFFF7D4FF00F062FFFA
:107E20006B21FFF78FFD00F05DFF036829469B681B
:107E3000984700F057FF0121FFF787FD00F052FF40
:107E400001231A466B21FFF774FD00F04BFF036816
:107E50005B69984705462046FFF7D2FFE8B203B0BA
:107E600030BD73B502AC15460E4644F8040DFFF75D
:107E7000A9FF00F037FF6B21FFF764FD00F032FF30
:107E8000036831469B68984700F02CFF0368294639
:107E90009B68984700F026FF0121FFF756FD20461A
:107EA000FFF7AEFF02B070BD37B504460D46019036
:107EB000FFF788FF00212046FFF7A9FF41F2581382
:107EC0009D4200F087025BD020D841F218039D420A
:107ED0004DD00CD840F678739D4242D040F6C8731E
:107EE0009D4241D040F628739D4260D159E041F255
:107EF000B8039D423ED041F208139D423DD041F26D
:107F000068039D4253D142F020024AE041F2982397
:107F10009D423ED00ED841F2F8139D4233D041F23B
:107F200048239D4232D041F2A8139D423FD142F0F6
:107F3000400236E041F238339D422DD006D841F25E
:107F4000E8239D4233D142F060022AE041F28833B7
:107F50009D4224D041F2D8339D4228D142F078028C
:107F60001FE042F008021CE042F0100219E042F06B
:107F7000180216E042F0280213E042F0300210E04E
:107F800042F038020DE042F048020AE042F05002AE
:107F900007E042F0580204E042F0680201E042F0DB
:107FA000700220460021FFF75CFF012400E000245E
:107FB00001A8FFF725FF204603B030BD37B50446C2
:107FC0000D460190FFF7FEFE00212046FFF71FFF40
:107FD000B5F5617F00F0F80223D007D8962D1AD0AE
:107FE000B5F5FA7F1AD0642D29D122E040F2DC5396
:107FF0009D4219D005D8B5F5966F20D142F0040204
:1080000017E0B5F5FA6F12D040F6B8339D4216D19D
:1080100042F007020DE042F001020AE042F00202E3
:1080200007E042F0030204E042F0050201E042F002
:10803000060220460021FFF714FF012400E000247F
:1080400001A8FFF7DDFE204603B030BDF7B50C46B2
:10805000054617461E460190FFF7B4FE002C0CBFE4
:108060000024802417B144F04004E4B20EB144F07F
:1080700020049DF820300BB144F010049DF824300A
:108080000BB144F008049DF828300BB144F004040F
:1080900002212846FFF7BBFE00F001022243022125
:1080A0002846FFF7DEFE01A8FFF7AAFE012003B075
:1080B000F0BD37B504460D460190FFF783FE04215D
:1080C0002046FFF7A4FE41F210039D4200F0030298
:1080D00006D041F270039D420AD142F0B00201E0A5
:1080E00042F0980220460421FFF7BBFE012400E085
:1080F000002401A8FFF784FE204603B030BD37B549
:1081000002AC054644F8040DFFF75CFE0521284645
:10811000FFF77DFE052100F0CE022846FFF7A1FE05
:108120002046FFF76DFE012003B030BDF8B50646CE
:108130000D468F180024BD420CD0336815F8011B82
:108140009B6830469847002801DB0444F3E7002C85
:1081500008BF04462046F8BD70B505460C460846E3
:1081600049B102F013FE2B68024621462846DB681F
:10817000BDE87040184770BD08B5FFF7EDFF08BDBA
:1081800003689B68184738B50D210546FFF7F8FFCF
:108190000A2104462846FFF7F3FF204438BD38B5CE
:1081A0000546FFF7D9FF04462846FFF7ECFF2044B9
:1081B00038BD30B58BB00B4600218DF82410012A54
:1081C00098BF0A220DF12304B3FBF2F505FB12332D
:1081D00003F0FF03092B94BF30333733DBB2214662
:1081E00004F801392B46002DEED1FFF7B5FF0BB097
:1081F00030BD10B42AB903685DF8044B9B68C9B25E
:108200001847D2B25DF8044BFFF7D3BFFFF7F1BFB9
:1082100038B50546FFF7EDFF04462846FFF7B3FFE4
:10822000204438BD2DE9F04107460E4615462AB9CF
:108230000368C9B29B68BDE8F04118470A2A02D119
:10824000002901DA04E0D2B2BDE8F041FFF7B1BF86
:108250002D21FFF795FF2A46044671423846FFF765
:10826000A8FF2044BDE8F081FFF7DCBF10B504464D
:10827000FEF767FF204610BD0348044A0449002367
:10828000836000F071BD00BF48E4032088E0032054
:108290006D820D00704710B51021044600F069FD95
:1082A000204610BD70B5084B0360044600250E46FD
:1082B00040F80C5FFEF7DAFA30462671FEF7FEFB57
:1082C000A560204670BD00BF1CD90D000079FEF7E7
:1082D000FDBB10B504460068FEF7AEFD204610BD9C
:1082E00010B50446006808B1FEF7A6FD0023236020
:1082F000A360636010BD38B504460D4600680131C7
:10830000FEF7A2FD10B184E82100012038BD10B5B0
:108310000368044613B143688B4207D22046FFF737
:10832000EAFF20B1A3680BB922681370012010BDC9
:1083300070B50E46114604461546FFF7E8FF18B91A
:108340002046FFF7CDFF09E02A463146A5602068A8
:1083500001F050FD2268A3680021D154204670BD71
:1083600038B50023044603604360836003730D4601
:1083700039B1084602F00AFD294602462046FFF7B9
:10838000D7FF204638BD884210B50B46044607D0BB
:10839000096819B19A68FFF7CBFF01E0FFF7A0FF6A
:1083A000204610BD10B5002304460360436083607F
:1083B0000373FFF7E8FF204610BD08B582680B463F
:1083C00012B919B9012008BD11B90368187802E083
:1083D000006801F099FFB0FA80F0400908BD70B55F
:1083E0000E469AB191B185689D4202D800230B7068
:1083F00070BD541EED1A0168AC4228BF2C461944CA
:108400002246304602F0DFFC0023335570BD0146A2
:1084100000228C20FEF742BA0020FFF7F8BF0000D0
:1084200010B50446084611461A460023FEF7F6FB2F
:10843000064B00221A704FF6FF7258809A801A6815
:108440009B882260A380204610BD00BF58E4032013
:1084500010B500240470448000294FF6FF74848016
:1084600007DD0139994209D232F8113083800123A6
:1084700001E002D10223037010BD418010BD000055
:1084800070B586B016461A46002302930C9B0193E2
:108490000D460B9B009304460A9B31462846FEF787
:1084A00001FC33462A46014604A8FFF7D1FF064BDC
:1084B0000498BDF8142018609A801A689B8822607E
:1084C0002046A38006B070BD58E40320044B002072
:1084D0004FF6FF72187058809A80FEF78FBB00BF6E
:1084E00058E40320F0B5144B144F1E68144B064497
:1084F00018683B6806449E428BB01BD00AA801ADA9
:1085000040F8286D01F07AFB436903F26C73436114
:1085100004460FCC0FC50FCC0FC5D4F800E0C5F84A
:1085200000E001AD0FCD074C0FC40FCD0FC43E606E
:10853000C4F800E00BB0F0BD94E4032090E4032005
:108540008CE4032060E4032008B50020FEF704FC5F
:1085500028B1FEF7D9FB80F00100C0B208BD0120B0
:1085600008BD000008B5FFF7BDFF014B986808BDC6
:1085700060E4032008B5FFF7B5FF014BD86808BDDC
:1085800060E4032008B5FFF7ADFF024B98690130A6
:1085900008BD00BF60E4032008B5FFF7A3FF024B4E
:1085A0001869013008BD00BF60E4032008B5FEF77C
:1085B0009DF9034B1B681844024B1B68184408BD07
:1085C00094E403208CE40320FAEE087AB4EEE70A80
:1085D000F1EE10FA0FD4F2EE0C7AB4EEE70AF1EEF7
:1085E00010FA08DCDFED047A044B20EE270ABDEE1A
:1085F000C00A83ED000A70470000614594E403203F
:10860000B5EEC00AF1EE10FA0FD4F0EE007AB4EE37
:10861000E70AF1EE10FA08DCDFED047A044B20EEF5
:10862000270ABDEEC00A83ED000A704700006145CD
:1086300094DF0320024B1A68024B1A60704700BF98
:1086400094DF03208CE40320014B00221A60704762
:108650008CE4032008B5FEF751F9002211461046BC
:10866000BDE80840FEF702BB37B50E4B1B68194446
:108670000D4B1B68044602A8194440F8041D01F084
:10868000BDFA01F0C3F9054602F080FB284400233F
:1086900000F8013C29462046FFF762FE204603B061
:1086A00030BD00BF94E403208CE403202DE9F047A3
:1086B000A4B014AC07468946204611461D4601F079
:1086C0002DFE204602F062FB804625B9244903A80E
:1086D00001F024FE13E03C2195FBF1F2002AB8BF23
:1086E000524292FBF1F301FB132200924FF46163BB
:1086F0001C4A95FBF3F3102103A8FEF7BDFB2546AA
:108700002E1B08F1FF3AB2451BD92B78252B16D129
:108710006B787A2B13D103A802F038FB80463044E3
:10872000C6EB0A02A91C204401F064FB424603A9DF
:10873000284601F05FFB204602F028FB8046013509
:10874000DEE74B462246322107A801F06BFE07A95F
:108750003846FFF705FE384624B0BDE8F08700BF75
:1087600015DF0D0024D90D00F7B5054601921C4612
:1087700013B9124B1C682CB1114B2046196801F03B
:10878000C3FD20B901992846FFF76EFF13E00D4F96
:10879000019A3B680C4E1A44336802A8134440F80F
:1087A000043D01F02BFA3A68336801461344284629
:1087B0002246FFF77BFF284603B0F0BD88E4032084
:1087C00098DF032094E403208CE4032010B50020FC
:1087D000FEF79CF8044668B9FEF708FA01280BD1A9
:1087E0002046FEF73BFA38B9FFF7AEFE30B9FEF788
:1087F00073FAF9E7012010BD002010BDFFF7A4FEB9
:108800000020FEF783F8003018BF012010BD08B526
:10881000FFF7DCFFBDE80840FEF768B808B5FFF7D2
:10882000F6FFFFF75FFE014B986808BD60E4032088
:1088300008B5FFF7ECFFFFF755FE014B586808BD80
:1088400060E4032008B5FFF7E2FFFFF74BFE014BA2
:10885000D86808BD60E4032008B5FFF7D8FFBDE87D
:108860000840FFF78FBE08B5FFF7D1FFBDE808400D
:10887000FFF792BE08B5FFF7CAFFFFF733FE014BC3
:10888000586908BD60E40320024B1A68024B1A6065
:10889000704700BF98DF032088E4032070474174CD
:1088A000704708B5007CFEF751F920EAE07008BD7A
:1088B00008B5007CFEF722F920EAE07008BD08B593
:1088C000007CFEF72BF930EA200028BF4FF0FF3084
:1088D00008BD08B5007CFEF719F930EA200028BF72
:1088E0004FF0FF3008BD007CFEF720B910B5142111
:1088F000044600F03EFA204610BD70B5457C0446A3
:108900000E4625B9007CFEF721F9002805DD314629
:10891000207CBDE87040FEF7E9B8284670BD000035
:1089200010B5044608461146002262604FF47A7280
:10893000A260054A22600122207462741A46FEF782
:10894000CDF8204610BD00BF54D90D00007CFEF7C5
:10895000F5B8000038B50C4D296811F0010411D1AB
:108960002846FBF7A0FB68B1084A094B0948214695
:10897000FFF7D6FF2846FBF79BFB074A0749054848
:1089800000F0F2F9034838BD30E5032034E5032058
:10899000ACE4032098E4032088E003209D880D00C8
:1089A00041747047704708B50021007CFEF7F6F867
:1089B00030EA200028BF4FF0FF3008BD08B5012184
:1089C000007CFEF7EBF830EA200028BF4FF0FF30C4
:1089D00008BD08B5007CFEF7D9F820EAE07008BDB4
:1089E00008B5007CFEF7CAF820EAE07008BD007CFC
:1089F000FEF7E4B810B51421044600F0BAF9204699
:108A000010BD38B50446007C0D46FEF7BFF80028BF
:108A100001DC607C28B12946207CFEF7C7F820EAFB
:108A2000E07038BD10B50446002363604FF47A73DC
:108A3000A360054B2360012308462174637411462B
:108A4000FEF78CF8204610BD84D90D000022007C72
:108A5000FEF78CB810B514220446002101F0D5F9B8
:108A6000204610BD30B50E4D87B001A8FFF7F2FFCC
:108A7000296811F0010410D12846FBF714FB60B1FE
:108A800001AA21460748FFF7CDFF2846FBF710FB58
:108A9000054A0649034800F067F9024807B030BDAF
:108AA000B8E50320BCE5032088E00320A5890D007C
:108AB00008B50C4B33B1FFF7D5FF03681B69984726
:108AC000002809DC084B63B1FFF744FF03681B690A
:108AD0009847002803DC08BDAFF30080F2E7AFF34E
:108AE000008008BD000000000000000008B5FFF78E
:108AF000DFFFFDF7F3FE014B186008BDD4E503204E
:108B000007B5002300931A466FF07701FEF7C0F80F
:108B100003B05DF804FB000007B543880A2B08D0BA
:108B2000502B09D1094B1B683BB103B05DF804EB36
:108B30001847FFF7E5FF06E0002300931A466FF0A1
:108B40007701FEF7A5F803B05DF804FBD0E503203C
:108B500010B5FDF7B3FE044601F0AEFB074B13B1B1
:108B60002046AFF3008000210448FEF705F90021FC
:108B70000348BDE81040FEF781B800BF00000000C8
:108B8000198B0D0008B5024B1B681B68019308BDCB
:108B90005C02030008B5024B1B685B68019308BDCB
:108BA0005C02030008B5024B1B689B68019308BD7B
:108BB0005C02030010B504460F48FFF787FB28B19D
:108BC000A4F10B03022B01D8002010BD00F06AF8BD
:108BD000FEF7BFFE08B1012CF6D9FFF7BBFEFFF789
:108BE000B5FE18B1A4F10903012BEDD9232C8CBFDC
:108BF0000020012010BD00BF08E60320232838B55F
:108C000004460D460AD8FF2908D0FFF7D3FF28B144
:108C100029462046BDE83840FDF798BE38BD38B536
:108C200004460D46FDF79AFEFF2810D0062804D80A
:108C30004D2323FA00F0C30709D42046FFF7BAFFFB
:108C400028B129462046BDE83840FDF78FBE38BD23
:108C500010B50446FDF782FE0438C0B2012808D9D9
:108C60002046FFF7A7FF20B12046BDE81040FDF7E2
:108C700085BE002010BD0D2810B504469CBF0E34E3
:108C8000A4B22046FFF796FF50B103212046FDF71E
:108C900055FE032804D12046BDE81040FDF786BEEE
:108CA000002010BD38B50B4D296811F001040FD11B
:108CB0002846FBF7F8F958B121460748FEF718FE99
:108CC0002846FBF7F5F9054A0549034800F04CF83A
:108CD000014838BDD8E50320F0E5032088E00320F3
:108CE00099780D0010B50B4C2368DB070FD4204694
:108CF000FBF7D9F958B101210748FEF7F9FD2046E5
:108D0000FBF7D6F9054A0649034800F02DF802485A
:108D100010BD00BF04E60320DCE5032088E003204B
:108D200099780D0070B50C4C0C4E0D4D002120466D
:108D3000FFF7B8FA20460B4C3246294600F014F8EB
:108D400001212046FFF7AEFA324629462046BDE80B
:108D5000704000F009B800BF08E6032088E0032057
:108D600095820D0018E603200B460146184600F0D8
:108D70008DBEFBF794B908B5FEF78EF8244B1A6840
:108D8000D0075CBF01221A60224B1A68D1075CBF72
:108D900001221A60204B1A68D2075CBF01221A60B8
:108DA0001E4B1A68D0075CBF01221A601C4B1A6860
:108DB000D1075CBF01221A601A4B1A68D2075CBF48
:108DC00001221A60184B1A68D0075CBF01221A6092
:108DD000164B1A68D1075CBF01221A60144B1A683F
:108DE000D2075CBF01221A60124B1A68D0075CBF21
:108DF00001221A60104B1A68D1075CBF01221A6069
:108E00000E4B1A68D2075CBF01221A60704700BF80
:108E100054E6032050E603204CE6032048E60320F6
:108E200044E6032040E603203CE6032038E6032026
:108E300034E6032030E603202CE6032028E6032056
:108E4000184B1A68D1075CBF01221A60164B1A68CA
:108E5000D2075CBF01221A60144B1A68D0075CBFAE
:108E600001221A60124B1A68D1075CBF01221A60F6
:108E7000104B1A68D2075CBF01221A600E4B1A68A9
:108E8000D0075CBF01221A600C4B1A68D1075CBF87
:108E900001221A600A4B1A68D2075CBF01221A60CD
:108EA000704700BF74E6032070E603206CE60320E1
:108EB00068E6032064E6032060E603205CE6032006
:108EC00058E60320184B1A68D1075CBF01221A60CC
:108ED000164B1A68D2075CBF01221A60144B1A683D
:108EE000D0075CBF01221A60124B1A68D1075CBF21
:108EF00001221A60104B1A68D2075CBF01221A6067
:108F00000E4B1A68D0075CBF01221A600C4B1A681E
:108F1000D1075CBF01221A600A4B1A68D2075CBFF6
:108F200001221A60704700BF94E6032090E60320F8
:108F30008CE6032088E6032084E6032080E60320F5
:108F40007CE6032078E60320244B1A68D0075CBF38
:108F500001221A60224B1A68D1075CBF01221A60F5
:108F6000204B1A68D2075CBF01221A601E4B1A6898
:108F7000D0075CBF01221A601C4B1A68D1075CBF86
:108F800001221A601A4B1A68D2075CBF01221A60CC
:108F9000184B1A68D0075CBF01221A60164B1A687A
:108FA000D1075CBF01221A60144B1A68D2075CBF5C
:108FB00001221A60124B1A68D0075CBF01221A60A6
:108FC000104B1A68D1075CBF01221A600E4B1A6859
:108FD000D2075CBF01221A60704700BFC4E60320BD
:108FE000C0E60320BCE60320B8E60320B4E6032075
:108FF000B0E60320ACE60320A8E60320A4E60320A5
:10900000A0E603209CE6032098E6032081F00041BF
:1090100002E000BF83F0004330B54FEA41044FEA5D
:10902000430594EA050F08BF90EA020F1FBF54EAF8
:10903000000C55EA020C7FEA645C7FEA655C00F094
:10904000E2804FEA5454D4EB5555B8BF6D420CDD65
:109050002C4480EA020281EA030382EA000083EAE8
:10906000010180EA020281EA0303362D88BF30BD88
:1090700011F0004F4FEA01314FF4801C4CEA1131DE
:1090800002D0404261EB410113F0004F4FEA03333D
:109090004CEA133302D0524263EB430394EA050FC8
:1090A00000F0A780A4F10104D5F1200E0DDB02FA37
:1090B0000EFC22FA05F2801841F1000103FA0EF2CB
:1090C000801843FA05F359410EE0A5F120050EF191
:1090D000200E012A03FA0EFC28BF4CF0020C43FAC2
:1090E00005F3C01851EBE37101F0004507D54FF0CF
:1090F000000EDCF1000C7EEB00006EEB0101B1F51F
:10910000801F1BD3B1F5001F0CD349085FEA300064
:109110004FEA3C0C04F101044FEA445212F5800F6F
:1091200080F09A80BCF1004F08BF5FEA500C50F10C
:10913000000041EB045141EA050130BD5FEA4C0CEF
:10914000404141EB010111F4801FA4F10104E9D178
:1091500091F0000F04BF01460020B1FA81F308BF6F
:109160002033A3F10B03B3F120020CDA0C3208DD3B
:1091700002F1140CC2F10C0201FA0CF021FA02F116
:109180000CE002F11402D8BFC2F1200C01FA02F186
:1091900020FA0CFCDCBF41EA0C019040E41AA2BFAB
:1091A00001EB0451294330BD6FEA04041F3C1CDA73
:1091B0000C340EDC04F11404C4F1200220FA04F093
:1091C00001FA02F340EA030021FA04F345EA03013D
:1091D00030BDC4F10C04C4F1200220FA02F001FAFF
:1091E00004F340EA0300294630BD21FA04F0294681
:1091F00030BD94F0000F83F4801306BF81F480111A
:109200000134013D4EE77FEA645C18BF7FEA655C8C
:1092100029D094EA050F08BF90EA020F05D054EA5E
:10922000000C04BF1946104630BD91EA030F1EBF63
:109230000021002030BD5FEA545C05D14000494167
:1092400028BF41F0004130BD14F580043CBF01F55A
:10925000801130BD01F0004545F0FE4141F4700140
:109260004FF0000030BD7FEA645C1ABF194610461B
:109270007FEA655C1CBF0B46024650EA013406BF1C
:1092800052EA033591EA030F41F4002130BD00BFDB
:1092900090F0000F04BF0021704730B54FF4806498
:1092A00004F132044FF000054FF0000150E700BF19
:1092B00090F0000F04BF0021704730B54FF4806478
:1092C00004F1320410F0004548BF40424FF0000165
:1092D0003EE700BF42004FEAE2014FEA31014FEAA8
:1092E00002701FBF12F07F4393F07F4F81F06051F7
:1092F000704792F0000F14BF93F07F4F704730B566
:109300004FF4607401F0004521F0004120E700BFF8
:1093100050EA010208BF704730B54FF000050AE07F
:1093200050EA010208BF704730B511F0004502D580
:10933000404261EB41014FF4806404F132045FEA82
:10934000915C3FF4DCAE4FF003025FEADC0C18BF27
:1093500003325FEADC0C18BF033202EBDC02C2F11D
:10936000200300FA03FC20FA02F001FA03FE40EAAF
:109370000E0021FA02F11444C1E600BF70B54FF0AF
:10938000FF0C4CF4E06C1CEA11541DBF1CEA135591
:1093900094EA0C0F95EA0C0F00F0DEF82C4481EAF9
:1093A000030621EA4C5123EA4C5350EA013518BF19
:1093B00052EA033541F4801143F4801338D0A0FB06
:1093C00002CE4FF00005E1FB02E506F00042E0FBB3
:1093D00003E54FF00006E1FB03569CF0000F18BFB9
:1093E0004EF0010EA4F1FF04B6F5007F64F5407461
:1093F00004D25FEA4E0E6D4146EB060642EAC621F4
:1094000041EA55514FEAC52040EA5E504FEACE2E60
:10941000B4F1FD0C88BFBCF5E06F1ED8BEF1004F63
:1094200008BF5FEA500E50F1000041EB045170BDDF
:1094300006F0004646EA010140EA020081EA030123
:10944000B4EB5C04C2BFD4EB0C0541EA045170BD1F
:1094500041F480114FF0000E013C00F3AB8014F199
:10946000360FDEBF002001F0004170BDC4F10004E2
:10947000203C35DA0C341BDC04F11404C4F1200563
:1094800000FA05F320FA04F001FA05F240EA0200BE
:1094900001F0004221F0004110EBD37021FA04F6F4
:1094A00042EB06015EEA430E08BF20EAD37070BDAE
:1094B000C4F10C04C4F1200500FA04F320FA05F00D
:1094C00001FA04F240EA020001F0004110EBD3700F
:1094D00041F100015EEA430E08BF20EAD37070BD7F
:1094E000C4F1200500FA05F24EEA020E20FA04F358
:1094F00001FA05F243EA020321FA04F001F0004107
:1095000021FA04F220EA020000EBD3705EEA430E77
:1095100008BF20EAD37070BD94F0000F0FD101F0A6
:109520000046400041EB010111F4801F08BF013CDF
:10953000F7D041EA060195F0000F18BF704703F01D
:109540000046520043EB030313F4801F08BF013DA4
:10955000F7D043EA0603704794EA0C0F0CEA135560
:1095600018BF95EA0C0F0CD050EA410618BF52EA1A
:109570004306D1D181EA030101F000414FF0000020
:1095800070BD50EA410606BF1046194652EA43062E
:1095900019D094EA0C0F02D150EA013613D195EAA2
:1095A0000C0F05D152EA03361CBF104619460AD1EA
:1095B00081EA030101F0004141F0FE4141F47001F4
:1095C0004FF0000070BD41F0FE4141F4780170BDE4
:1095D00070B54FF0FF0C4CF4E06C1CEA11541DBF49
:1095E0001CEA135594EA0C0F95EA0C0F00F0A7F84B
:1095F000A4EB050481EA030E52EA03354FEA013178
:1096000000F088804FEA03334FF0805545EA13138A
:1096100043EA12634FEA022245EA111545EA106552
:109620004FEA00260EF000419D4208BF964244F1E9
:10963000FD0404F5407402D25B084FEA3202B61A08
:1096400065EB03055B084FEA32024FF480104FF4DC
:10965000002CB6EB020E75EB030E22BFB61A754650
:1096600040EA0C005B084FEA3202B6EB020E75EBE3
:10967000030E22BFB61A754640EA5C005B084FEA4B
:109680003202B6EB020E75EB030E22BFB61A754618
:1096900040EA9C005B084FEA3202B6EB020E75EB23
:1096A000030E22BFB61A754640EADC0055EA060EE4
:1096B00018D04FEA051545EA16754FEA06164FEA27
:1096C000C30343EA52734FEAC2025FEA1C1CC0D1D3
:1096D00011F4801F0BD141EA00014FF000004FF060
:1096E000004CB6E711F4801F04BF01430020B4F121
:1096F000FD0C88BFBCF5E06F3FF6AFAEB5EB030CD9
:1097000004BFB6EB020C5FEA500C50F1000041EBD5
:10971000045170BD0EF0004E4EEA113114EB5C04A2
:10972000C2BFD4EB0C0541EA045170BD41F4801175
:109730004FF0000E013C90E645EA060E8DE60CEA7D
:10974000135594EA0C0F08BF95EA0C0F3FF43BAF9A
:1097500094EA0C0F0AD150EA01347FF434AF95EA51
:109760000C0F7FF425AF104619462CE795EA0C0F35
:1097700006D152EA03353FF4FDAE1046194622E702
:1097800050EA410618BF52EA43067FF4C5AE50EADC
:1097900041047FF40DAF52EA43057FF4EBAE12E7CC
:1097A0004FF0FF3C06E000BF4FF0010C02E000BFAD
:1097B0004FF0010C4DF804CD4FEA410C7FEA6C5C90
:1097C0004FEA430C18BF7FEA6C5C1BD001B050EA33
:1097D000410C0CBF52EA430C91EA030F02BF90EA1E
:1097E000020F0020704710F1000F91EA030F58BFDD
:1097F000994208BF90422CBFD8176FEAE37040F03F
:10980000010070474FEA410C7FEA6C5C02D150EADC
:10981000013C07D14FEA430C7FEA6C5CD6D152EA97
:10982000033CD3D05DF8040B704700BF844610465C
:1098300062468C461946634600E000BF01B5FFF75B
:10984000B7FF002848BF10F1000F01BD4DF808ED2B
:10985000FFF7F4FF0CBF012000205DF808FB00BFFC
:109860004DF808EDFFF7EAFF34BF012000205DF856
:1098700008FB00BF4DF808EDFFF7E0FF94BF0120A3
:1098800000205DF808FB00BF4DF808EDFFF7CEFFA4
:1098900094BF012000205DF808FB00BF4DF808EDE3
:1098A000FFF7C4FF34BF012000205DF808FB00BFB4
:1098B0004FEA410C7FEA6C5C02D150EA013C0AD1CC
:1098C0004FEA430C7FEA6C5C02D152EA033C02D1BE
:1098D0004FF0000070474FF0010070474FEA41021F
:1098E00012F5001215D211D56FF47873B3EB6252F2
:1098F00012D94FEAC12343F0004343EA505311F019
:10990000004F23FA02F018BF404270474FF00000AA
:10991000704750EA013005D111F0004008BF6FF0E8
:10992000004070474FF00000704700BF4A0011D25E
:1099300012F5001211D20DD56FF47873B3EB6252A9
:109940000ED44FEAC12343F0004343EA505323FAB5
:1099500002F070474FF00000704750EA013002D12A
:109960004FF0FF3070474FF0000070474FEA410260
:10997000B2F1E04324BFB3F5001CDCF1FE5C0DD96D
:1099800001F0004C4FEAC0024CEA5070B2F1004FB7
:1099900040EB830008BF20F00100704711F0804FBA
:1099A00021D113F13872BCBF01F00040704741F47F
:1099B00080114FEA5252C2F11802C2F1200C10FA83
:1099C0000CF320FA02F018BF40F001004FEAC12367
:1099D0004FEAD32303FA0CFC40EA0C0023FA02F30B
:1099E0004FEA4303CCE77FEA625307D150EA0133E1
:1099F0001EBF4FF0FE4040F44000704701F00040B1
:109A000040F0FE4040F40000704700BF094B70B5C5
:109A10001C68256C06463DB91A20FDF705FA1A2286
:109A20002064294600F0F1F9216C3046BDE8704011
:109A300000F002B800E0032010B50C46416903694C
:109A4000826986B001F26C710491016803914168EA
:109A5000029181680191C1680091074903EB4303BA
:109A60000B44064902EB42020A4420460449FDF732
:109A7000F3F9204606B010BDC1D90D00ACD90D00D8
:109A8000E5D90D000A22002102F074B810B5054C8A
:109A900013462CB10A4601460220AFF3008010BDE8
:109AA000204610BD0000000038B5074B1C68E36B72
:109AB00005461BB92420FDF7B7F9E063E16B2846A2
:109AC000BDE8384000F002B800E003200268474BD0
:109AD000F0B592FBF3F403FB1422002ABCBF02F59D
